{
  "address": "0xEEE1ceD926fEf190dB0Ca3fC45b619cBb76a84C8",
  "abi": [
    {
      "inputs": [
        {
          "internalType": "address",
          "name": "_keeperRegAddr",
          "type": "address"
        },
        {
          "internalType": "contract ILucksExecutor",
          "name": "_executor",
          "type": "address"
        },
        {
          "internalType": "contract ILucksBridge",
          "name": "_bridge",
          "type": "address"
        },
        {
          "internalType": "uint16",
          "name": "_lzChainId",
          "type": "uint16"
        }
      ],
      "stateMutability": "nonpayable",
      "type": "constructor"
    },
    {
      "anonymous": false,
      "inputs": [
        {
          "indexed": false,
          "internalType": "uint256",
          "name": "amountAdded",
          "type": "uint256"
        },
        {
          "indexed": false,
          "internalType": "uint256",
          "name": "newBalance",
          "type": "uint256"
        },
        {
          "indexed": false,
          "internalType": "address",
          "name": "sender",
          "type": "address"
        }
      ],
      "name": "FundsAdded",
      "type": "event"
    },
    {
      "anonymous": false,
      "inputs": [
        {
          "indexed": false,
          "internalType": "uint256",
          "name": "amountWithdrawn",
          "type": "uint256"
        },
        {
          "indexed": false,
          "internalType": "address",
          "name": "payee",
          "type": "address"
        }
      ],
      "name": "FundsWithdrawn",
      "type": "event"
    },
    {
      "anonymous": false,
      "inputs": [
        {
          "indexed": false,
          "internalType": "address",
          "name": "oldAddress",
          "type": "address"
        },
        {
          "indexed": false,
          "internalType": "address",
          "name": "newAddress",
          "type": "address"
        }
      ],
      "name": "KeeperRegistryAddressUpdated",
      "type": "event"
    },
    {
      "anonymous": false,
      "inputs": [
        {
          "indexed": false,
          "internalType": "uint256",
          "name": "oldMinWaitPeriod",
          "type": "uint256"
        },
        {
          "indexed": false,
          "internalType": "uint256",
          "name": "newMinWaitPeriod",
          "type": "uint256"
        }
      ],
      "name": "MinWaitPeriodUpdated",
      "type": "event"
    },
    {
      "anonymous": false,
      "inputs": [
        {
          "indexed": true,
          "internalType": "address",
          "name": "previousOwner",
          "type": "address"
        },
        {
          "indexed": true,
          "internalType": "address",
          "name": "newOwner",
          "type": "address"
        }
      ],
      "name": "OwnershipTransferred",
      "type": "event"
    },
    {
      "anonymous": false,
      "inputs": [
        {
          "indexed": false,
          "internalType": "address",
          "name": "account",
          "type": "address"
        }
      ],
      "name": "Paused",
      "type": "event"
    },
    {
      "anonymous": false,
      "inputs": [
        {
          "indexed": false,
          "internalType": "uint256",
          "name": "taskId",
          "type": "uint256"
        },
        {
          "indexed": false,
          "internalType": "bytes",
          "name": "reason",
          "type": "bytes"
        }
      ],
      "name": "RevertInvoke",
      "type": "event"
    },
    {
      "anonymous": false,
      "inputs": [
        {
          "indexed": false,
          "internalType": "address",
          "name": "account",
          "type": "address"
        }
      ],
      "name": "Unpaused",
      "type": "event"
    },
    {
      "inputs": [],
      "name": "BATCH_PERFORM_LIMIT",
      "outputs": [
        {
          "internalType": "uint256",
          "name": "",
          "type": "uint256"
        }
      ],
      "stateMutability": "view",
      "type": "function"
    },
    {
      "inputs": [],
      "name": "DST_GAS_AMOUNT",
      "outputs": [
        {
          "internalType": "uint256",
          "name": "",
          "type": "uint256"
        }
      ],
      "stateMutability": "view",
      "type": "function"
    },
    {
      "inputs": [],
      "name": "KEEPER",
      "outputs": [
        {
          "internalType": "address",
          "name": "",
          "type": "address"
        }
      ],
      "stateMutability": "view",
      "type": "function"
    },
    {
      "inputs": [],
      "name": "WAIT_PERIOD_SEC",
      "outputs": [
        {
          "internalType": "uint256",
          "name": "",
          "type": "uint256"
        }
      ],
      "stateMutability": "view",
      "type": "function"
    },
    {
      "inputs": [
        {
          "internalType": "uint256",
          "name": "taskId",
          "type": "uint256"
        },
        {
          "internalType": "uint256",
          "name": "endTime",
          "type": "uint256"
        }
      ],
      "name": "addTask",
      "outputs": [],
      "stateMutability": "nonpayable",
      "type": "function"
    },
    {
      "inputs": [],
      "name": "bridge",
      "outputs": [
        {
          "internalType": "contract ILucksBridge",
          "name": "",
          "type": "address"
        }
      ],
      "stateMutability": "view",
      "type": "function"
    },
    {
      "inputs": [
        {
          "internalType": "bytes",
          "name": "",
          "type": "bytes"
        }
      ],
      "name": "checkUpkeep",
      "outputs": [
        {
          "internalType": "bool",
          "name": "upkeepNeeded",
          "type": "bool"
        },
        {
          "internalType": "bytes",
          "name": "performData",
          "type": "bytes"
        }
      ],
      "stateMutability": "view",
      "type": "function"
    },
    {
      "inputs": [],
      "name": "executor",
      "outputs": [
        {
          "internalType": "contract ILucksExecutor",
          "name": "",
          "type": "address"
        }
      ],
      "stateMutability": "view",
      "type": "function"
    },
    {
      "inputs": [],
      "name": "getQueueTasks",
      "outputs": [
        {
          "internalType": "uint256[]",
          "name": "",
          "type": "uint256[]"
        }
      ],
      "stateMutability": "view",
      "type": "function"
    },
    {
      "inputs": [],
      "name": "lzChainId",
      "outputs": [
        {
          "internalType": "uint16",
          "name": "",
          "type": "uint16"
        }
      ],
      "stateMutability": "view",
      "type": "function"
    },
    {
      "inputs": [],
      "name": "owner",
      "outputs": [
        {
          "internalType": "address",
          "name": "",
          "type": "address"
        }
      ],
      "stateMutability": "view",
      "type": "function"
    },
    {
      "inputs": [],
      "name": "pause",
      "outputs": [],
      "stateMutability": "nonpayable",
      "type": "function"
    },
    {
      "inputs": [],
      "name": "paused",
      "outputs": [
        {
          "internalType": "bool",
          "name": "",
          "type": "bool"
        }
      ],
      "stateMutability": "view",
      "type": "function"
    },
    {
      "inputs": [
        {
          "internalType": "bytes",
          "name": "performData",
          "type": "bytes"
        }
      ],
      "name": "performUpkeep",
      "outputs": [],
      "stateMutability": "nonpayable",
      "type": "function"
    },
    {
      "inputs": [
        {
          "internalType": "uint256",
          "name": "taskId",
          "type": "uint256"
        }
      ],
      "name": "removeTask",
      "outputs": [],
      "stateMutability": "nonpayable",
      "type": "function"
    },
    {
      "inputs": [],
      "name": "renounceOwnership",
      "outputs": [],
      "stateMutability": "nonpayable",
      "type": "function"
    },
    {
      "inputs": [
        {
          "internalType": "uint256",
          "name": "num",
          "type": "uint256"
        }
      ],
      "name": "setBatchPerformLimist",
      "outputs": [],
      "stateMutability": "nonpayable",
      "type": "function"
    },
    {
      "inputs": [
        {
          "internalType": "uint256",
          "name": "amount",
          "type": "uint256"
        }
      ],
      "name": "setDstGasAmount",
      "outputs": [],
      "stateMutability": "nonpayable",
      "type": "function"
    },
    {
      "inputs": [
        {
          "internalType": "address",
          "name": "_keeperRegAddr",
          "type": "address"
        }
      ],
      "name": "setKeeper",
      "outputs": [],
      "stateMutability": "nonpayable",
      "type": "function"
    },
    {
      "inputs": [
        {
          "internalType": "uint256",
          "name": "second",
          "type": "uint256"
        }
      ],
      "name": "setWaitPeriod",
      "outputs": [],
      "stateMutability": "nonpayable",
      "type": "function"
    },
    {
      "inputs": [
        {
          "internalType": "uint256",
          "name": "",
          "type": "uint256"
        }
      ],
      "name": "taskIds",
      "outputs": [
        {
          "internalType": "uint256",
          "name": "",
          "type": "uint256"
        }
      ],
      "stateMutability": "view",
      "type": "function"
    },
    {
      "inputs": [
        {
          "internalType": "uint256",
          "name": "",
          "type": "uint256"
        }
      ],
      "name": "taskQuene",
      "outputs": [
        {
          "internalType": "uint256",
          "name": "endTime",
          "type": "uint256"
        },
        {
          "internalType": "uint256",
          "name": "lastTimestamp",
          "type": "uint256"
        }
      ],
      "stateMutability": "view",
      "type": "function"
    },
    {
      "inputs": [
        {
          "internalType": "address",
          "name": "newOwner",
          "type": "address"
        }
      ],
      "name": "transferOwnership",
      "outputs": [],
      "stateMutability": "nonpayable",
      "type": "function"
    },
    {
      "inputs": [],
      "name": "unpause",
      "outputs": [],
      "stateMutability": "nonpayable",
      "type": "function"
    },
    {
      "inputs": [
        {
          "internalType": "uint256",
          "name": "amount",
          "type": "uint256"
        },
        {
          "internalType": "address payable",
          "name": "payee",
          "type": "address"
        }
      ],
      "name": "withdraw",
      "outputs": [],
      "stateMutability": "nonpayable",
      "type": "function"
    },
    {
      "stateMutability": "payable",
      "type": "receive"
    }
  ],
  "transactionHash": "0x8bbd410b2e79b0ba73e032d77638e5aa63b0c4caa944e0f355d32a01c57cbaab",
  "args": [
    "0x409CF388DaB66275dA3e44005D182c12EeAa12A0",
    "0xD48230a587b074d82459D99e4174a5E3B5507339",
    "0xB9a01e8f0D3d730614B54D7e4b3bEE521E350E9e",
    10006
  ],
  "numDeployments": 1,
  "solcInputHash": "e23d1c0e651b21c9fd31d5820b1a2bc5",
  "bytecode": "0x60a060405261012c600155600a60025562030d406003553480156200002357600080fd5b506040516200227538038062002275833981016040819052620000469162000101565b6200005133620000b1565b6000805460ff60a01b19169055600480546001600160a01b03199081166001600160a01b039687161790915560058054821694861694909417909355600680549093169190931617905560f01b6001600160f01b03191660805262000188565b600080546001600160a01b038381166001600160a01b0319831681178455604051919092169283917f8be0079c531659141344cd1fd0a4f28419497f9722a3daafe3b4186f6b6457e09190a35050565b600080600080608085870312156200011857600080fd5b845162000125816200016f565b602086015190945062000138816200016f565b60408601519093506200014b816200016f565b606086015190925061ffff811681146200016457600080fd5b939692955090935050565b6001600160a01b03811681146200018557600080fd5b50565b60805160f01c6120c7620001ae60003960008181610457015261145201526120c76000f3fe6080604052600436106101985760003560e01c80638456cb59116100e1578063b15269a51161008a578063c81c6c7c11610064578063c81c6c7c14610525578063d6ff17a014610547578063e78cea921461055d578063f2fde38b1461058a57600080fd5b8063b15269a5146104c2578063c3084117146104d8578063c34c08e5146104f857600080fd5b8063917c4156116100bb578063917c4156146104455780639c38995c1461048c578063aa0a3100146104a257600080fd5b80638456cb59146103b3578063862a179e146103c85780638da5cb5b1461041a57600080fd5b806347662b3811610143578063715018a61161011d578063715018a61461033557806371ceacf21461034a578063748747e61461039357600080fd5b806347662b38146102ac5780635c975abb146102cc5780636e04ff0d1461030757600080fd5b806339118d251161017457806339118d25146102445780633f4ba83a146102775780634585e33b1461028c57600080fd5b8062b34ebd146101e2578062f714ce146102045780630fbeb0321461022457600080fd5b366101dd5760408051348152476020820152338183015290517fc6f3fb0fec49e4877342d4625d77a632541f55b7aae0f9d0b34c69b3478706dc9181900360600190a1005b600080fd5b3480156101ee57600080fd5b506102026101fd366004611d15565b6105aa565b005b34801561021057600080fd5b5061020261021f366004611ce5565b6106af565b34801561023057600080fd5b5061020261023f366004611ccc565b6107e6565b34801561025057600080fd5b5061026461025f366004611ccc565b61086c565b6040519081526020015b60405180910390f35b34801561028357600080fd5b5061020261088d565b34801561029857600080fd5b506102026102a7366004611b03565b610918565b3480156102b857600080fd5b506102026102c7366004611ccc565b610a59565b3480156102d857600080fd5b5060005474010000000000000000000000000000000000000000900460ff16604051901515815260200161026e565b34801561031357600080fd5b50610327610322366004611b03565b610adf565b60405161026e929190611e3b565b34801561034157600080fd5b50610202610ba5565b34801561035657600080fd5b5061037e610365366004611ccc565b6008602052600090815260409020805460019091015482565b6040805192835260208301919091520161026e565b34801561039f57600080fd5b506102026103ae366004611a47565b610c30565b3480156103bf57600080fd5b50610202610d6c565b3480156103d457600080fd5b506004546103f59073ffffffffffffffffffffffffffffffffffffffff1681565b60405173ffffffffffffffffffffffffffffffffffffffff909116815260200161026e565b34801561042657600080fd5b5060005473ffffffffffffffffffffffffffffffffffffffff166103f5565b34801561045157600080fd5b506104797f000000000000000000000000000000000000000000000000000000000000000081565b60405161ffff909116815260200161026e565b34801561049857600080fd5b5061026460015481565b3480156104ae57600080fd5b506102026104bd366004611ccc565b610df5565b3480156104ce57600080fd5b5061026460035481565b3480156104e457600080fd5b506102026104f3366004611ccc565b610ee5565b34801561050457600080fd5b506005546103f59073ffffffffffffffffffffffffffffffffffffffff1681565b34801561053157600080fd5b5061053a610f94565b60405161026e9190611df7565b34801561055357600080fd5b5061026460025481565b34801561056957600080fd5b506006546103f59073ffffffffffffffffffffffffffffffffffffffff1681565b34801561059657600080fd5b506102026105a5366004611a47565b6110c7565b60055473ffffffffffffffffffffffffffffffffffffffff163314806105e7575060005473ffffffffffffffffffffffffffffffffffffffff1633145b610652576040517f08c379a000000000000000000000000000000000000000000000000000000000815260206004820152600c60248201527f6f6e6c794578656375746f72000000000000000000000000000000000000000060448201526064015b60405180910390fd5b60408051808201825291825260006020808401828152858352600890915291812092518355905160019283015560078054928301815590527fa66cc928b5edb82af9bd49922954155ab7b0942694bea4ce44661d9a8736c6880155565b60005473ffffffffffffffffffffffffffffffffffffffff163314610730576040517f08c379a000000000000000000000000000000000000000000000000000000000815260206004820181905260248201527f4f776e61626c653a2063616c6c6572206973206e6f7420746865206f776e65726044820152606401610649565b73ffffffffffffffffffffffffffffffffffffffff811661075057600080fd5b6040805183815273ffffffffffffffffffffffffffffffffffffffff831660208201527f6141b54b56b8a52a8c6f5cd2a857f6117b18ffbf4d46bd3106f300a839cbf5ea910160405180910390a160405173ffffffffffffffffffffffffffffffffffffffff82169083156108fc029084906000818181858888f193505050501580156107e1573d6000803e3d6000fd5b505050565b60005473ffffffffffffffffffffffffffffffffffffffff163314610867576040517f08c379a000000000000000000000000000000000000000000000000000000000815260206004820181905260248201527f4f776e61626c653a2063616c6c6572206973206e6f7420746865206f776e65726044820152606401610649565b600355565b6007818154811061087c57600080fd5b600091825260209091200154905081565b60005473ffffffffffffffffffffffffffffffffffffffff16331461090e576040517f08c379a000000000000000000000000000000000000000000000000000000000815260206004820181905260248201527f4f776e61626c653a2063616c6c6572206973206e6f7420746865206f776e65726044820152606401610649565b6109166111f4565b565b60005474010000000000000000000000000000000000000000900460ff161561099d576040517f08c379a000000000000000000000000000000000000000000000000000000000815260206004820152601060248201527f5061757361626c653a20706175736564000000000000000000000000000000006044820152606401610649565b60045473ffffffffffffffffffffffffffffffffffffffff163314806109da575060005473ffffffffffffffffffffffffffffffffffffffff1633145b610a40576040517f08c379a000000000000000000000000000000000000000000000000000000000815260206004820152601260248201527f6f6e6c794b6565706572526567697374727900000000000000000000000000006044820152606401610649565b6000610a4e82840184611a6b565b90506107e1816112ed565b60005473ffffffffffffffffffffffffffffffffffffffff163314610ada576040517f08c379a000000000000000000000000000000000000000000000000000000000815260206004820181905260248201527f4f776e61626c653a2063616c6c6572206973206e6f7420746865206f776e65726044820152606401610649565b600155565b6000805460609074010000000000000000000000000000000000000000900460ff1615610b68576040517f08c379a000000000000000000000000000000000000000000000000000000000815260206004820152601060248201527f5061757361626c653a20706175736564000000000000000000000000000000006044820152606401610649565b6000610b72610f94565b90506000815111925080604051602001610b8c9190611df7565b6040516020818303038152906040529150509250929050565b60005473ffffffffffffffffffffffffffffffffffffffff163314610c26576040517f08c379a000000000000000000000000000000000000000000000000000000000815260206004820181905260248201527f4f776e61626c653a2063616c6c6572206973206e6f7420746865206f776e65726044820152606401610649565b61091660006116cf565b60005473ffffffffffffffffffffffffffffffffffffffff163314610cb1576040517f08c379a000000000000000000000000000000000000000000000000000000000815260206004820181905260248201527f4f776e61626c653a2063616c6c6572206973206e6f7420746865206f776e65726044820152606401610649565b73ffffffffffffffffffffffffffffffffffffffff8116610cd157600080fd5b6004546040805173ffffffffffffffffffffffffffffffffffffffff928316815291831660208301527fb732223055abcde751d7a24272ffc8a3aa571cb72b443969a4199b7ecd59f8b9910160405180910390a1600480547fffffffffffffffffffffffff00000000000000000000000000000000000000001673ffffffffffffffffffffffffffffffffffffffff92909216919091179055565b60005473ffffffffffffffffffffffffffffffffffffffff163314610ded576040517f08c379a000000000000000000000000000000000000000000000000000000000815260206004820181905260248201527f4f776e61626c653a2063616c6c6572206973206e6f7420746865206f776e65726044820152606401610649565b610916611744565b60005473ffffffffffffffffffffffffffffffffffffffff163314610e76576040517f08c379a000000000000000000000000000000000000000000000000000000000815260206004820181905260248201527f4f776e61626c653a2063616c6c6572206973206e6f7420746865206f776e65726044820152606401610649565b60008111610ee0576040517f08c379a000000000000000000000000000000000000000000000000000000000815260206004820152601160248201527f496e76616c6964206c696d6974206e756d0000000000000000000000000000006044820152606401610649565b600255565b60055473ffffffffffffffffffffffffffffffffffffffff16331480610f22575060005473ffffffffffffffffffffffffffffffffffffffff1633145b610f88576040517f08c379a000000000000000000000000000000000000000000000000000000000815260206004820152600c60248201527f6f6e6c794578656375746f7200000000000000000000000000000000000000006044820152606401610649565b610f9181611830565b50565b6060600060025467ffffffffffffffff811115610fb357610fb3612040565b604051908082528060200260200182016040528015610fdc578160200160208202803683370190505b5090506000805b6007548110156110b35760006007828154811061100257611002612011565b906000526020600020015490506002548310156110a057600081815260086020526040902054421080159061106f5750600081815260086020526040902060010154158061106f575060018054600083815260086020526040902090910154429161106c91611f62565b11155b156110a0578084848151811061108757611087612011565b60209081029190910101528261109c81611f7a565b9350505b50806110ab81611f7a565b915050610fe3565b5060025481146110c1578082525b50919050565b60005473ffffffffffffffffffffffffffffffffffffffff163314611148576040517f08c379a000000000000000000000000000000000000000000000000000000000815260206004820181905260248201527f4f776e61626c653a2063616c6c6572206973206e6f7420746865206f776e65726044820152606401610649565b73ffffffffffffffffffffffffffffffffffffffff81166111eb576040517f08c379a000000000000000000000000000000000000000000000000000000000815260206004820152602660248201527f4f776e61626c653a206e6577206f776e657220697320746865207a65726f206160448201527f64647265737300000000000000000000000000000000000000000000000000006064820152608401610649565b610f91816116cf565b60005474010000000000000000000000000000000000000000900460ff16611278576040517f08c379a000000000000000000000000000000000000000000000000000000000815260206004820152601460248201527f5061757361626c653a206e6f74207061757365640000000000000000000000006044820152606401610649565b600080547fffffffffffffffffffffff00ffffffffffffffffffffffffffffffffffffffff1690557f5db9ee0a495bf2e6ff9c91a7834c1ba4fdd244a5e8aa4e537bd38aeae4b073aa335b60405173ffffffffffffffffffffffffffffffffffffffff909116815260200160405180910390a1565b600060405180606001604052806003548152602001600081526020016040518060400160405280600281526020017f3078000000000000000000000000000000000000000000000000000000000000815250815250905060005b82518110156107e157600083828151811061136457611364612011565b6020908102919091018101516000818152600890925260408083204260019091015560055490517f1d65e77e00000000000000000000000000000000000000000000000000000000815260048101839052919350829173ffffffffffffffffffffffffffffffffffffffff90911690631d65e77e9060240160006040518083038186803b1580156113f457600080fd5b505afa158015611408573d6000803e3d6000fd5b505050506040513d6000823e601f3d9081017fffffffffffffffffffffffffffffffffffffffffffffffffffffffffffffffe016820160405261144e9190810190611b75565b90507f000000000000000000000000000000000000000000000000000000000000000061ffff16816020015161ffff16146115525760065473ffffffffffffffffffffffffffffffffffffffff16156115525760065460208201516040517f54a4139400000000000000000000000000000000000000000000000000000000815273ffffffffffffffffffffffffffffffffffffffff909216916354a41394916114ff916002908a90600401611e56565b604080518083038186803b15801561151657600080fd5b505afa15801561152a573d6000803e3d6000fd5b505050506040513d601f19601f8201168201806040525081019061154e9190611d37565b5091505b814710156115bc576040517f08c379a000000000000000000000000000000000000000000000000000000000815260206004820152601960248201527f4175746f447261773a206e6f7420656e6f7567682066656573000000000000006044820152606401610649565b6005546040517f4403968700000000000000000000000000000000000000000000000000000000815273ffffffffffffffffffffffffffffffffffffffff9091169063440396879084906116169087908a90600401611eac565b6000604051808303818588803b15801561162f57600080fd5b505af193505050508015611641575060015b6116b0573d80801561166f576040519150601f19603f3d011682016040523d82523d6000602084013e611674565b606091505b507f1e636779d1e9049055334d85cd9ecc858646d430080ac176057b6e43eaad421a84826040516116a6929190611e93565b60405180910390a1505b6116b983611830565b50505080806116c790611f7a565b915050611347565b6000805473ffffffffffffffffffffffffffffffffffffffff8381167fffffffffffffffffffffffff0000000000000000000000000000000000000000831681178455604051919092169283917f8be0079c531659141344cd1fd0a4f28419497f9722a3daafe3b4186f6b6457e09190a35050565b60005474010000000000000000000000000000000000000000900460ff16156117c9576040517f08c379a000000000000000000000000000000000000000000000000000000000815260206004820152601060248201527f5061757361626c653a20706175736564000000000000000000000000000000006044820152606401610649565b600080547fffffffffffffffffffffff00ffffffffffffffffffffffffffffffffffffffff16740100000000000000000000000000000000000000001790557f62e78cea01bee320cd4e420270b5ea74000d11b0c9f74754ebdbfc544b05a2586112c33390565b60008181526008602052604081208181556001015561184e81611852565b5050565b6000805b6007548110156118a957826007828154811061187457611874612011565b906000526020600020015414156118975761188e816118b2565b50600192915050565b806118a181611f7a565b915050611856565b50600092915050565b6007546118c0826001611f62565b101561191f5760076118d3826001611f62565b815481106118e3576118e3612011565b90600052602060002001546007828154811061190157611901612011565b6000918252602090912001558061191781611f7a565b9150506118b2565b600780548061193057611930611fe2565b6001900381819060005260206000200160009055905550565b80516119548161206f565b919050565b600082601f83011261196a57600080fd5b8151602061197f61197a83611f3e565b611eef565b80838252828201915082860187848660051b890101111561199f57600080fd5b60005b858110156119be578151845292840192908401906001016119a2565b5090979650505050505050565b80516006811061195457600080fd5b6000604082840312156119ec57600080fd5b6040516040810181811067ffffffffffffffff82111715611a0f57611a0f612040565b80604052508091508251611a228161206f565b8152602092830151920191909152919050565b805161ffff8116811461195457600080fd5b600060208284031215611a5957600080fd5b8135611a648161206f565b9392505050565b60006020808385031215611a7e57600080fd5b823567ffffffffffffffff811115611a9557600080fd5b8301601f81018513611aa657600080fd5b8035611ab461197a82611f3e565b80828252848201915084840188868560051b8701011115611ad457600080fd5b600094505b83851015611af7578035835260019490940193918501918501611ad9565b50979650505050505050565b60008060208385031215611b1657600080fd5b823567ffffffffffffffff80821115611b2e57600080fd5b818501915085601f830112611b4257600080fd5b813581811115611b5157600080fd5b866020828501011115611b6357600080fd5b60209290920196919550909350505050565b600060208284031215611b8757600080fd5b815167ffffffffffffffff80821115611b9f57600080fd5b908301906102008286031215611bb457600080fd5b611bbc611ec5565b611bc583611949565b8152611bd360208401611a35565b6020820152611be460408401611949565b6040820152606083015182811115611bfb57600080fd5b611c0787828601611959565b606083015250608083015182811115611c1f57600080fd5b611c2b87828601611959565b608083015250611c3d60a08401611949565b60a0820152611c4e60c084016119cb565b60c082015260e083810151908201526101008084015190820152610120808401519082015261014080840151908201526101609150611c8e828401611a35565b828201526101809150611ca3868385016119da565b828201526101c09150818301516101a08201526101e08301518282015280935050505092915050565b600060208284031215611cde57600080fd5b5035919050565b60008060408385031215611cf857600080fd5b823591506020830135611d0a8161206f565b809150509250929050565b60008060408385031215611d2857600080fd5b50508035926020909101359150565b60008060408385031215611d4a57600080fd5b505080516020909101519092909150565b6000815180845260005b81811015611d8157602081850181015186830182015201611d65565b81811115611d93576000602083870101525b50601f017fffffffffffffffffffffffffffffffffffffffffffffffffffffffffffffffe0169290920160200192915050565b80518252602081015160208301526000604082015160606040850152611def6060850182611d5b565b949350505050565b6020808252825182820181905260009190848201906040850190845b81811015611e2f57835183529284019291840191600101611e13565b50909695505050505050565b8215158152604060208201526000611def6040830184611d5b565b61ffff8416815260ff83166020820152608060408201526000608082015260a060608201526000611e8a60a0830184611dc6565b95945050505050565b828152604060208201526000611def6040830184611d5b565b828152604060208201526000611def6040830184611dc6565b6040516101e0810167ffffffffffffffff81118282101715611ee957611ee9612040565b60405290565b604051601f82017fffffffffffffffffffffffffffffffffffffffffffffffffffffffffffffffe016810167ffffffffffffffff81118282101715611f3657611f36612040565b604052919050565b600067ffffffffffffffff821115611f5857611f58612040565b5060051b60200190565b60008219821115611f7557611f75611fb3565b500190565b60007fffffffffffffffffffffffffffffffffffffffffffffffffffffffffffffffff821415611fac57611fac611fb3565b5060010190565b7f4e487b7100000000000000000000000000000000000000000000000000000000600052601160045260246000fd5b7f4e487b7100000000000000000000000000000000000000000000000000000000600052603160045260246000fd5b7f4e487b7100000000000000000000000000000000000000000000000000000000600052603260045260246000fd5b7f4e487b7100000000000000000000000000000000000000000000000000000000600052604160045260246000fd5b73ffffffffffffffffffffffffffffffffffffffff81168114610f9157600080fdfea264697066735822122033807340f64fb7145c41e2d5613b7a15ccfc34175f0ba3553ec19d344931352264736f6c63430008060033",
  "devdoc": {
    "kind": "dev",
    "methods": {
      "constructor": {
        "params": {
          "_bridge": "The LucksBridge contract",
          "_executor": "The LucksExecutor contract",
          "_keeperRegAddr": "The address of the keeper registry contract"
        }
      },
      "owner()": {
        "details": "Returns the address of the current owner."
      },
      "paused()": {
        "details": "Returns true if the contract is paused, and false otherwise."
      },
      "performUpkeep(bytes)": {
        "details": "The input to this method should not be trusted, and the caller of the method should not even be restricted to any single registry. Anyone should be able call it, and the input should be validated, there is no guarantee that the data passed in is the performData returned from checkUpkeep. This could happen due to malicious keepers, racing keepers, or simply a state change while the performUpkeep transaction is waiting for confirmation. Always validate the data passed in.",
        "params": {
          "performData": "is the data which was passed back from the checkData simulation. If it is encoded, it can easily be decoded into other types by calling `abi.decode`. This data should not be trusted, and should be validated against the contract's current state."
        }
      },
      "renounceOwnership()": {
        "details": "Leaves the contract without owner. It will not be possible to call `onlyOwner` functions anymore. Can only be called by the current owner. NOTE: Renouncing ownership will leave the contract without an owner, thereby removing any functionality that is only available to the owner."
      },
      "transferOwnership(address)": {
        "details": "Transfers ownership of the contract to a new account (`newOwner`). Can only be called by the current owner."
      },
      "withdraw(uint256,address)": {
        "params": {
          "amount": "The amount of eth (in wei) to withdraw",
          "payee": "The address to pay"
        }
      }
    },
    "version": 1
  },
  "userdoc": {
    "kind": "user",
    "methods": {
      "pause()": {
        "notice": "Pauses the contract, which prevents executing performUpkeep"
      },
      "performUpkeep(bytes)": {
        "notice": "method that is actually executed by the keepers, via the registry. The data returned by the checkUpkeep simulation will be passed into this method to actually be executed."
      },
      "setKeeper(address)": {
        "notice": "Sets the keeper registry address"
      },
      "unpause()": {
        "notice": "Unpauses the contract"
      },
      "withdraw(uint256,address)": {
        "notice": "Withdraws the contract balance"
      }
    },
    "version": 1
  },
  "storageLayout": {
    "storage": [
      {
        "astId": 307,
        "contract": "contracts/lucks/LucksAutoDrawTask.sol:LucksAutoDrawTask",
        "label": "_owner",
        "offset": 0,
        "slot": "0",
        "type": "t_address"
      },
      {
        "astId": 422,
        "contract": "contracts/lucks/LucksAutoDrawTask.sol:LucksAutoDrawTask",
        "label": "_paused",
        "offset": 20,
        "slot": "0",
        "type": "t_bool"
      },
      {
        "astId": 10474,
        "contract": "contracts/lucks/LucksAutoDrawTask.sol:LucksAutoDrawTask",
        "label": "WAIT_PERIOD_SEC",
        "offset": 0,
        "slot": "1",
        "type": "t_uint256"
      },
      {
        "astId": 10477,
        "contract": "contracts/lucks/LucksAutoDrawTask.sol:LucksAutoDrawTask",
        "label": "BATCH_PERFORM_LIMIT",
        "offset": 0,
        "slot": "2",
        "type": "t_uint256"
      },
      {
        "astId": 10480,
        "contract": "contracts/lucks/LucksAutoDrawTask.sol:LucksAutoDrawTask",
        "label": "DST_GAS_AMOUNT",
        "offset": 0,
        "slot": "3",
        "type": "t_uint256"
      },
      {
        "astId": 10484,
        "contract": "contracts/lucks/LucksAutoDrawTask.sol:LucksAutoDrawTask",
        "label": "KEEPER",
        "offset": 0,
        "slot": "4",
        "type": "t_address"
      },
      {
        "astId": 10487,
        "contract": "contracts/lucks/LucksAutoDrawTask.sol:LucksAutoDrawTask",
        "label": "executor",
        "offset": 0,
        "slot": "5",
        "type": "t_contract(ILucksExecutor)8592"
      },
      {
        "astId": 10490,
        "contract": "contracts/lucks/LucksAutoDrawTask.sol:LucksAutoDrawTask",
        "label": "bridge",
        "offset": 0,
        "slot": "6",
        "type": "t_contract(ILucksBridge)8365"
      },
      {
        "astId": 10493,
        "contract": "contracts/lucks/LucksAutoDrawTask.sol:LucksAutoDrawTask",
        "label": "taskIds",
        "offset": 0,
        "slot": "7",
        "type": "t_array(t_uint256)dyn_storage"
      },
      {
        "astId": 10498,
        "contract": "contracts/lucks/LucksAutoDrawTask.sol:LucksAutoDrawTask",
        "label": "taskQuene",
        "offset": 0,
        "slot": "8",
        "type": "t_mapping(t_uint256,t_struct(Task)8227_storage)"
      }
    ],
    "types": {
      "t_address": {
        "encoding": "inplace",
        "label": "address",
        "numberOfBytes": "20"
      },
      "t_array(t_uint256)dyn_storage": {
        "base": "t_uint256",
        "encoding": "dynamic_array",
        "label": "uint256[]",
        "numberOfBytes": "32"
      },
      "t_bool": {
        "encoding": "inplace",
        "label": "bool",
        "numberOfBytes": "1"
      },
      "t_contract(ILucksBridge)8365": {
        "encoding": "inplace",
        "label": "contract ILucksBridge",
        "numberOfBytes": "20"
      },
      "t_contract(ILucksExecutor)8592": {
        "encoding": "inplace",
        "label": "contract ILucksExecutor",
        "numberOfBytes": "20"
      },
      "t_mapping(t_uint256,t_struct(Task)8227_storage)": {
        "encoding": "mapping",
        "key": "t_uint256",
        "label": "mapping(uint256 => struct Task)",
        "numberOfBytes": "32",
        "value": "t_struct(Task)8227_storage"
      },
      "t_struct(Task)8227_storage": {
        "encoding": "inplace",
        "label": "struct Task",
        "members": [
          {
            "astId": 8224,
            "contract": "contracts/lucks/LucksAutoDrawTask.sol:LucksAutoDrawTask",
            "label": "endTime",
            "offset": 0,
            "slot": "0",
            "type": "t_uint256"
          },
          {
            "astId": 8226,
            "contract": "contracts/lucks/LucksAutoDrawTask.sol:LucksAutoDrawTask",
            "label": "lastTimestamp",
            "offset": 0,
            "slot": "1",
            "type": "t_uint256"
          }
        ],
        "numberOfBytes": "64"
      },
      "t_uint256": {
        "encoding": "inplace",
        "label": "uint256",
        "numberOfBytes": "32"
      }
    }
  }
}