{
  "address": "0x897be0747988558c507aF3fd1e07d55c74EfadE8",
  "abi": [
    {
      "inputs": [
        {
          "internalType": "address",
          "name": "_executor",
          "type": "address"
        },
        {
          "internalType": "address",
          "name": "_token",
          "type": "address"
        },
        {
          "internalType": "uint32",
          "name": "_maxSeat",
          "type": "uint32"
        }
      ],
      "stateMutability": "nonpayable",
      "type": "constructor"
    },
    {
      "anonymous": false,
      "inputs": [
        {
          "indexed": false,
          "internalType": "address",
          "name": "user",
          "type": "address"
        },
        {
          "indexed": false,
          "internalType": "uint256",
          "name": "taskId",
          "type": "uint256"
        },
        {
          "indexed": false,
          "internalType": "uint256",
          "name": "groupId",
          "type": "uint256"
        },
        {
          "indexed": false,
          "internalType": "uint16",
          "name": "seat",
          "type": "uint16"
        }
      ],
      "name": "CreateGroup",
      "type": "event"
    },
    {
      "anonymous": false,
      "inputs": [
        {
          "indexed": false,
          "internalType": "address",
          "name": "user",
          "type": "address"
        },
        {
          "indexed": false,
          "internalType": "uint256",
          "name": "taskId",
          "type": "uint256"
        },
        {
          "indexed": false,
          "internalType": "uint256",
          "name": "groupId",
          "type": "uint256"
        }
      ],
      "name": "JoinGroup",
      "type": "event"
    },
    {
      "inputs": [],
      "name": "EXECUTOR",
      "outputs": [
        {
          "internalType": "contract ILucksExecutor",
          "name": "",
          "type": "address"
        }
      ],
      "stateMutability": "view",
      "type": "function"
    },
    {
      "inputs": [],
      "name": "MAX_SEAT",
      "outputs": [
        {
          "internalType": "uint32",
          "name": "",
          "type": "uint32"
        }
      ],
      "stateMutability": "view",
      "type": "function"
    },
    {
      "inputs": [],
      "name": "OpenLuckToken",
      "outputs": [
        {
          "internalType": "address",
          "name": "",
          "type": "address"
        }
      ],
      "stateMutability": "view",
      "type": "function"
    },
    {
      "inputs": [
        {
          "internalType": "uint256",
          "name": "taskId",
          "type": "uint256"
        },
        {
          "internalType": "uint16",
          "name": "seat",
          "type": "uint16"
        }
      ],
      "name": "createGroup",
      "outputs": [],
      "stateMutability": "nonpayable",
      "type": "function"
    },
    {
      "inputs": [
        {
          "internalType": "uint256",
          "name": "taskId",
          "type": "uint256"
        },
        {
          "internalType": "address",
          "name": "user",
          "type": "address"
        }
      ],
      "name": "getGroupUsers",
      "outputs": [
        {
          "internalType": "address[]",
          "name": "",
          "type": "address[]"
        }
      ],
      "stateMutability": "view",
      "type": "function"
    },
    {
      "inputs": [
        {
          "internalType": "uint256",
          "name": "",
          "type": "uint256"
        }
      ],
      "name": "groupIds",
      "outputs": [
        {
          "internalType": "uint256",
          "name": "",
          "type": "uint256"
        }
      ],
      "stateMutability": "view",
      "type": "function"
    },
    {
      "inputs": [
        {
          "internalType": "uint256",
          "name": "",
          "type": "uint256"
        },
        {
          "internalType": "uint256",
          "name": "",
          "type": "uint256"
        }
      ],
      "name": "groupSeat",
      "outputs": [
        {
          "internalType": "uint16",
          "name": "",
          "type": "uint16"
        }
      ],
      "stateMutability": "view",
      "type": "function"
    },
    {
      "inputs": [
        {
          "internalType": "uint256",
          "name": "",
          "type": "uint256"
        },
        {
          "internalType": "uint256",
          "name": "",
          "type": "uint256"
        },
        {
          "internalType": "uint256",
          "name": "",
          "type": "uint256"
        }
      ],
      "name": "groups",
      "outputs": [
        {
          "internalType": "address",
          "name": "",
          "type": "address"
        }
      ],
      "stateMutability": "view",
      "type": "function"
    },
    {
      "inputs": [
        {
          "internalType": "uint256",
          "name": "taskId",
          "type": "uint256"
        },
        {
          "internalType": "uint256",
          "name": "groupId",
          "type": "uint256"
        },
        {
          "internalType": "uint16",
          "name": "seat",
          "type": "uint16"
        }
      ],
      "name": "joinGroup",
      "outputs": [],
      "stateMutability": "nonpayable",
      "type": "function"
    },
    {
      "inputs": [
        {
          "internalType": "address",
          "name": "",
          "type": "address"
        },
        {
          "internalType": "uint256",
          "name": "",
          "type": "uint256"
        }
      ],
      "name": "userGroups",
      "outputs": [
        {
          "internalType": "uint256",
          "name": "",
          "type": "uint256"
        }
      ],
      "stateMutability": "view",
      "type": "function"
    }
  ],
  "transactionHash": "0x58b780aa072cc81e2c7cf900406edf6f0bc3cb32f68848a1a719fe8e56aede33",
  "args": [
    "0xD48230a587b074d82459D99e4174a5E3B5507339",
    "0x0E57E81940231d000Aecc993C3E56a02bc85Ad24",
    10
  ],
  "numDeployments": 1,
  "solcInputHash": "e23d1c0e651b21c9fd31d5820b1a2bc5",
  "bytecode": "0x60806040526001805463ffffffff60a01b1916600560a11b17905534801561002657600080fd5b506040516113c93803806113c9833981016040819052610045916100ad565b600080546001600160a01b039485166001600160a01b03199091161790556001805463ffffffff909216600160a01b026001600160c01b031990921692909316919091171790556100fd565b80516001600160a01b03811681146100a857600080fd5b919050565b6000806000606084860312156100c257600080fd5b6100cb84610091565b92506100d960208501610091565b9150604084015163ffffffff811681146100f257600080fd5b809150509250925092565b6112bd8061010c6000396000f3fe608060405234801561001057600080fd5b50600436106100be5760003560e01c806360a9e0971161007657806376e5066e1161005b57806376e5066e146101de578063a55c54b014610220578063dead6c1e1461024057600080fd5b806360a9e09714610193578063630dc7cb146101be57600080fd5b80632d027f75116100a75780632d027f751461011a57806338c1cdb21461012d5780634093d7a11461016557600080fd5b806313cedac8146100c357806317a0a23214610105575b600080fd5b6001546100eb9074010000000000000000000000000000000000000000900463ffffffff1681565b60405163ffffffff90911681526020015b60405180910390f35b6101186101133660046110cc565b610260565b005b610118610128366004611085565b6107ec565b61014061013b366004611105565b6107fb565b60405173ffffffffffffffffffffffffffffffffffffffff90911681526020016100fc565b61018561017336600461103c565b60026020526000908152604090205481565b6040519081526020016100fc565b6101856101a1366004610eb9565b600460209081526000928352604080842090915290825290205481565b6000546101409073ffffffffffffffffffffffffffffffffffffffff1681565b61020d6101ec3660046110aa565b600560209081526000928352604080842090915290825290205461ffff1681565b60405161ffff90911681526020016100fc565b6001546101409073ffffffffffffffffffffffffffffffffffffffff1681565b61025361024e366004611055565b61084d565b6040516100fc9190611131565b33821580159061027e57506000848152600260205260409020548311155b6102e9576040517f08c379a000000000000000000000000000000000000000000000000000000000815260206004820152600f60248201527f496e76616c69642067726f75704964000000000000000000000000000000000060448201526064015b60405180910390fd5b60015474010000000000000000000000000000000000000000900463ffffffff1661ffff83161115610377576040517f08c379a000000000000000000000000000000000000000000000000000000000815260206004820152600c60248201527f496e76616c69642073656174000000000000000000000000000000000000000060448201526064016102e0565b73ffffffffffffffffffffffffffffffffffffffff811660009081526004602090815260408083208784529091529020541561040f576040517f08c379a000000000000000000000000000000000000000000000000000000000815260206004820152601460248201527f416c7265616479206a6f696e20612067726f757000000000000000000000000060448201526064016102e0565b60005473ffffffffffffffffffffffffffffffffffffffff1661048e576040517f08c379a000000000000000000000000000000000000000000000000000000000815260206004820152601060248201527f4558454355544f52206e6f74207365740000000000000000000000000000000060448201526064016102e0565b600080546040517f1d65e77e0000000000000000000000000000000000000000000000000000000081526004810187905273ffffffffffffffffffffffffffffffffffffffff90911690631d65e77e9060240160006040518083038186803b1580156104f957600080fd5b505afa15801561050d573d6000803e3d6000fd5b505050506040513d6000823e601f3d9081017fffffffffffffffffffffffffffffffffffffffffffffffffffffffffffffffe01682016040526105539190810190610ee5565b90508061010001514211156105c4576040517f08c379a000000000000000000000000000000000000000000000000000000000815260206004820152601260248201527f496e76616c69642074696d652072616e6765000000000000000000000000000060448201526064016102e0565b60008160c0015160058111156105dc576105dc6111f4565b14806105fd575060018160c0015160058111156105fb576105fb6111f4565b145b610663576040517f08c379a000000000000000000000000000000000000000000000000000000000815260206004820152600e60248201527f496e76616c69642073746174757300000000000000000000000000000000000060448201526064016102e0565b60015460008681526003602090815260408083208884529091529020547401000000000000000000000000000000000000000090910463ffffffff161115610766576000858152600360209081526040808320878452825280832080546001810182559084528284200180547fffffffffffffffffffffffff00000000000000000000000000000000000000001673ffffffffffffffffffffffffffffffffffffffff871690811790915580845260048352818420898552835292819020879055805192835290820187905281018590527f9ded7a3449a7d51e28eafa621e5ed2137c3aa3778b53065e2d07bf5078893edc9060600160405180910390a16107e5565b60018361ffff1611156107835761077e8286856108f7565b6107e5565b6040517f08c379a000000000000000000000000000000000000000000000000000000000815260206004820152600b60248201527f457863656564207365617400000000000000000000000000000000000000000060448201526064016102e0565b5050505050565b6107f73383836108f7565b5050565b6003602052826000526040600020602052816000526040600020818154811061082357600080fd5b60009182526020909120015473ffffffffffffffffffffffffffffffffffffffff16925083915050565b600082815260036020908152604080832073ffffffffffffffffffffffffffffffffffffffff851684526004835281842086855283528184205484528252918290208054835181840281018401909452808452606093928301828280156108ea57602002820191906000526020600020905b815473ffffffffffffffffffffffffffffffffffffffff1681526001909101906020018083116108bf575b5050505050905092915050565b60015474010000000000000000000000000000000000000000900463ffffffff1661ffff82161180159061092f575060018161ffff16115b610995576040517f08c379a000000000000000000000000000000000000000000000000000000000815260206004820152600c60248201527f496e76616c69642073656174000000000000000000000000000000000000000060448201526064016102e0565b73ffffffffffffffffffffffffffffffffffffffff8316600090815260046020908152604080832085845290915290205415610a2d576040517f08c379a000000000000000000000000000000000000000000000000000000000815260206004820152601460248201527f416c7265616479206a6f696e20612067726f757000000000000000000000000060448201526064016102e0565b60005473ffffffffffffffffffffffffffffffffffffffff16610aac576040517f08c379a000000000000000000000000000000000000000000000000000000000815260206004820152601060248201527f4558454355544f52206e6f74207365740000000000000000000000000000000060448201526064016102e0565b600080546040517f1d65e77e0000000000000000000000000000000000000000000000000000000081526004810185905273ffffffffffffffffffffffffffffffffffffffff90911690631d65e77e9060240160006040518083038186803b158015610b1757600080fd5b505afa158015610b2b573d6000803e3d6000fd5b505050506040513d6000823e601f3d9081017fffffffffffffffffffffffffffffffffffffffffffffffffffffffffffffffe0168201604052610b719190810190610ee5565b9050806101000151421115610be2576040517f08c379a000000000000000000000000000000000000000000000000000000000815260206004820152601260248201527f496e76616c69642074696d652072616e6765000000000000000000000000000060448201526064016102e0565b60008160c001516005811115610bfa57610bfa6111f4565b1480610c1b575060018160c001516005811115610c1957610c196111f4565b145b610c81576040517f08c379a000000000000000000000000000000000000000000000000000000000815260206004820152600e60248201527f496e76616c69642073746174757300000000000000000000000000000000000060448201526064016102e0565b600083815260026020526040812054610c9b9060016111b5565b600085815260026020908152604080832084905560038252808320848452825280832080546001810182559084528284200180547fffffffffffffffffffffffff00000000000000000000000000000000000000001673ffffffffffffffffffffffffffffffffffffffff8b16908117909155808452600483528184208985528352928190208490558051928352908201879052810182905261ffff851660608201529091507f5c23ecf7d35b727b39000e452236d77f421afe8aa28e32d120085c0b3a8f16b69060800160405180910390a15050505050565b8051610d8081611252565b919050565b600082601f830112610d9657600080fd5b8151602067ffffffffffffffff80831115610db357610db3611223565b8260051b6040517fffffffffffffffffffffffffffffffffffffffffffffffffffffffffffffffe0603f83011681018181108482111715610df657610df6611223565b60405284815283810192508684018288018501891015610e1557600080fd5b600092505b85831015610e38578051845292840192600192909201918401610e1a565b50979650505050505050565b805160068110610d8057600080fd5b600060408284031215610e6557600080fd5b6040516040810181811067ffffffffffffffff82111715610e8857610e88611223565b80604052508091508251610e9b81611252565b8152602092830151920191909152919050565b8051610d8081611277565b60008060408385031215610ecc57600080fd5b8235610ed781611252565b946020939093013593505050565b600060208284031215610ef757600080fd5b815167ffffffffffffffff80821115610f0f57600080fd5b908301906102008286031215610f2457600080fd5b610f2c61118b565b610f3583610d75565b8152610f4360208401610eae565b6020820152610f5460408401610d75565b6040820152606083015182811115610f6b57600080fd5b610f7787828601610d85565b606083015250608083015182811115610f8f57600080fd5b610f9b87828601610d85565b608083015250610fad60a08401610d75565b60a0820152610fbe60c08401610e44565b60c082015260e083810151908201526101008084015190820152610120808401519082015261014080840151908201526101609150610ffe828401610eae565b82820152610180915061101386838501610e53565b828201526101c09150818301516101a08201526101e08301518282015280935050505092915050565b60006020828403121561104e57600080fd5b5035919050565b6000806040838503121561106857600080fd5b82359150602083013561107a81611252565b809150509250929050565b6000806040838503121561109857600080fd5b82359150602083013561107a81611277565b600080604083850312156110bd57600080fd5b50508035926020909101359150565b6000806000606084860312156110e157600080fd5b833592506020840135915060408401356110fa81611277565b809150509250925092565b60008060006060848603121561111a57600080fd5b505081359360208301359350604090920135919050565b6020808252825182820181905260009190848201906040850190845b8181101561117f57835173ffffffffffffffffffffffffffffffffffffffff168352928401929184019160010161114d565b50909695505050505050565b6040516101e0810167ffffffffffffffff811182821017156111af576111af611223565b60405290565b600082198211156111ef577f4e487b7100000000000000000000000000000000000000000000000000000000600052601160045260246000fd5b500190565b7f4e487b7100000000000000000000000000000000000000000000000000000000600052602160045260246000fd5b7f4e487b7100000000000000000000000000000000000000000000000000000000600052604160045260246000fd5b73ffffffffffffffffffffffffffffffffffffffff8116811461127457600080fd5b50565b61ffff8116811461127457600080fdfea2646970667358221220dbcfc42c7980bbcb2e3c4a80c36c30be929172e7e79b21f7cd9b334ab546809964736f6c63430008060033",
  "devdoc": {
    "kind": "dev",
    "methods": {},
    "title": "Openluck LucksGroup",
    "version": 1
  },
  "userdoc": {
    "kind": "user",
    "methods": {},
    "notice": "It is the contract for LucksGroup",
    "version": 1
  },
  "storageLayout": {
    "storage": [
      {
        "astId": 11131,
        "contract": "contracts/lucks/LucksGroup.sol:LucksGroup",
        "label": "EXECUTOR",
        "offset": 0,
        "slot": "0",
        "type": "t_contract(ILucksExecutor)8592"
      },
      {
        "astId": 11133,
        "contract": "contracts/lucks/LucksGroup.sol:LucksGroup",
        "label": "OpenLuckToken",
        "offset": 0,
        "slot": "1",
        "type": "t_address"
      },
      {
        "astId": 11136,
        "contract": "contracts/lucks/LucksGroup.sol:LucksGroup",
        "label": "MAX_SEAT",
        "offset": 20,
        "slot": "1",
        "type": "t_uint32"
      },
      {
        "astId": 11140,
        "contract": "contracts/lucks/LucksGroup.sol:LucksGroup",
        "label": "groupIds",
        "offset": 0,
        "slot": "2",
        "type": "t_mapping(t_uint256,t_uint256)"
      },
      {
        "astId": 11147,
        "contract": "contracts/lucks/LucksGroup.sol:LucksGroup",
        "label": "groups",
        "offset": 0,
        "slot": "3",
        "type": "t_mapping(t_uint256,t_mapping(t_uint256,t_array(t_address)dyn_storage))"
      },
      {
        "astId": 11153,
        "contract": "contracts/lucks/LucksGroup.sol:LucksGroup",
        "label": "userGroups",
        "offset": 0,
        "slot": "4",
        "type": "t_mapping(t_address,t_mapping(t_uint256,t_uint256))"
      },
      {
        "astId": 11159,
        "contract": "contracts/lucks/LucksGroup.sol:LucksGroup",
        "label": "groupSeat",
        "offset": 0,
        "slot": "5",
        "type": "t_mapping(t_uint256,t_mapping(t_uint256,t_uint16))"
      }
    ],
    "types": {
      "t_address": {
        "encoding": "inplace",
        "label": "address",
        "numberOfBytes": "20"
      },
      "t_array(t_address)dyn_storage": {
        "base": "t_address",
        "encoding": "dynamic_array",
        "label": "address[]",
        "numberOfBytes": "32"
      },
      "t_contract(ILucksExecutor)8592": {
        "encoding": "inplace",
        "label": "contract ILucksExecutor",
        "numberOfBytes": "20"
      },
      "t_mapping(t_address,t_mapping(t_uint256,t_uint256))": {
        "encoding": "mapping",
        "key": "t_address",
        "label": "mapping(address => mapping(uint256 => uint256))",
        "numberOfBytes": "32",
        "value": "t_mapping(t_uint256,t_uint256)"
      },
      "t_mapping(t_uint256,t_array(t_address)dyn_storage)": {
        "encoding": "mapping",
        "key": "t_uint256",
        "label": "mapping(uint256 => address[])",
        "numberOfBytes": "32",
        "value": "t_array(t_address)dyn_storage"
      },
      "t_mapping(t_uint256,t_mapping(t_uint256,t_array(t_address)dyn_storage))": {
        "encoding": "mapping",
        "key": "t_uint256",
        "label": "mapping(uint256 => mapping(uint256 => address[]))",
        "numberOfBytes": "32",
        "value": "t_mapping(t_uint256,t_array(t_address)dyn_storage)"
      },
      "t_mapping(t_uint256,t_mapping(t_uint256,t_uint16))": {
        "encoding": "mapping",
        "key": "t_uint256",
        "label": "mapping(uint256 => mapping(uint256 => uint16))",
        "numberOfBytes": "32",
        "value": "t_mapping(t_uint256,t_uint16)"
      },
      "t_mapping(t_uint256,t_uint16)": {
        "encoding": "mapping",
        "key": "t_uint256",
        "label": "mapping(uint256 => uint16)",
        "numberOfBytes": "32",
        "value": "t_uint16"
      },
      "t_mapping(t_uint256,t_uint256)": {
        "encoding": "mapping",
        "key": "t_uint256",
        "label": "mapping(uint256 => uint256)",
        "numberOfBytes": "32",
        "value": "t_uint256"
      },
      "t_uint16": {
        "encoding": "inplace",
        "label": "uint16",
        "numberOfBytes": "2"
      },
      "t_uint256": {
        "encoding": "inplace",
        "label": "uint256",
        "numberOfBytes": "32"
      },
      "t_uint32": {
        "encoding": "inplace",
        "label": "uint32",
        "numberOfBytes": "4"
      }
    }
  }
}