{
  "address": "0xb0b6312e68D02437911E02E52DFC49Dc9a762449",
  "abi": [
    {
      "inputs": [
        {
          "internalType": "address",
          "name": "_keeperRegAddr",
          "type": "address"
        },
        {
          "internalType": "contract ILucksExecutor",
          "name": "_executor",
          "type": "address"
        },
        {
          "internalType": "contract ILucksBridge",
          "name": "_bridge",
          "type": "address"
        },
        {
          "internalType": "uint16",
          "name": "_lzChainId",
          "type": "uint16"
        }
      ],
      "stateMutability": "nonpayable",
      "type": "constructor"
    },
    {
      "anonymous": false,
      "inputs": [
        {
          "indexed": false,
          "internalType": "uint256",
          "name": "amountAdded",
          "type": "uint256"
        },
        {
          "indexed": false,
          "internalType": "uint256",
          "name": "newBalance",
          "type": "uint256"
        },
        {
          "indexed": false,
          "internalType": "address",
          "name": "sender",
          "type": "address"
        }
      ],
      "name": "FundsAdded",
      "type": "event"
    },
    {
      "anonymous": false,
      "inputs": [
        {
          "indexed": false,
          "internalType": "uint256",
          "name": "amountWithdrawn",
          "type": "uint256"
        },
        {
          "indexed": false,
          "internalType": "address",
          "name": "payee",
          "type": "address"
        }
      ],
      "name": "FundsWithdrawn",
      "type": "event"
    },
    {
      "anonymous": false,
      "inputs": [
        {
          "indexed": false,
          "internalType": "address",
          "name": "oldAddress",
          "type": "address"
        },
        {
          "indexed": false,
          "internalType": "address",
          "name": "newAddress",
          "type": "address"
        }
      ],
      "name": "KeeperRegistryAddressUpdated",
      "type": "event"
    },
    {
      "anonymous": false,
      "inputs": [
        {
          "indexed": true,
          "internalType": "address",
          "name": "previousOwner",
          "type": "address"
        },
        {
          "indexed": true,
          "internalType": "address",
          "name": "newOwner",
          "type": "address"
        }
      ],
      "name": "OwnershipTransferred",
      "type": "event"
    },
    {
      "anonymous": false,
      "inputs": [
        {
          "indexed": false,
          "internalType": "address",
          "name": "account",
          "type": "address"
        }
      ],
      "name": "Paused",
      "type": "event"
    },
    {
      "anonymous": false,
      "inputs": [
        {
          "indexed": false,
          "internalType": "uint256",
          "name": "taskId",
          "type": "uint256"
        },
        {
          "indexed": false,
          "internalType": "string",
          "name": "reason",
          "type": "string"
        }
      ],
      "name": "RevertInvoke",
      "type": "event"
    },
    {
      "anonymous": false,
      "inputs": [
        {
          "indexed": false,
          "internalType": "address",
          "name": "account",
          "type": "address"
        }
      ],
      "name": "Unpaused",
      "type": "event"
    },
    {
      "inputs": [],
      "name": "BATCH_PERFORM_LIMIT",
      "outputs": [
        {
          "internalType": "uint256",
          "name": "",
          "type": "uint256"
        }
      ],
      "stateMutability": "view",
      "type": "function"
    },
    {
      "inputs": [],
      "name": "BRIDGE",
      "outputs": [
        {
          "internalType": "contract ILucksBridge",
          "name": "",
          "type": "address"
        }
      ],
      "stateMutability": "view",
      "type": "function"
    },
    {
      "inputs": [],
      "name": "DST_GAS_AMOUNT",
      "outputs": [
        {
          "internalType": "uint256",
          "name": "",
          "type": "uint256"
        }
      ],
      "stateMutability": "view",
      "type": "function"
    },
    {
      "inputs": [],
      "name": "EXECUTOR",
      "outputs": [
        {
          "internalType": "contract ILucksExecutor",
          "name": "",
          "type": "address"
        }
      ],
      "stateMutability": "view",
      "type": "function"
    },
    {
      "inputs": [],
      "name": "KEEPER",
      "outputs": [
        {
          "internalType": "address",
          "name": "",
          "type": "address"
        }
      ],
      "stateMutability": "view",
      "type": "function"
    },
    {
      "inputs": [],
      "name": "QUOTE_FEE_ADD",
      "outputs": [
        {
          "internalType": "uint256",
          "name": "",
          "type": "uint256"
        }
      ],
      "stateMutability": "view",
      "type": "function"
    },
    {
      "inputs": [
        {
          "internalType": "uint256",
          "name": "taskId",
          "type": "uint256"
        },
        {
          "internalType": "uint256",
          "name": "endTime",
          "type": "uint256"
        }
      ],
      "name": "addTask",
      "outputs": [],
      "stateMutability": "nonpayable",
      "type": "function"
    },
    {
      "inputs": [
        {
          "internalType": "uint256[]",
          "name": "taskIds",
          "type": "uint256[]"
        },
        {
          "internalType": "uint256[]",
          "name": "endTimes",
          "type": "uint256[]"
        }
      ],
      "name": "addTasks",
      "outputs": [],
      "stateMutability": "nonpayable",
      "type": "function"
    },
    {
      "inputs": [
        {
          "internalType": "bytes",
          "name": "",
          "type": "bytes"
        }
      ],
      "name": "checkUpkeep",
      "outputs": [
        {
          "internalType": "bool",
          "name": "upkeepNeeded",
          "type": "bool"
        },
        {
          "internalType": "bytes",
          "name": "performData",
          "type": "bytes"
        }
      ],
      "stateMutability": "view",
      "type": "function"
    },
    {
      "inputs": [],
      "name": "first",
      "outputs": [
        {
          "internalType": "uint256",
          "name": "",
          "type": "uint256"
        }
      ],
      "stateMutability": "view",
      "type": "function"
    },
    {
      "inputs": [
        {
          "internalType": "uint256",
          "name": "taskId",
          "type": "uint256"
        }
      ],
      "name": "get",
      "outputs": [
        {
          "internalType": "uint256",
          "name": "",
          "type": "uint256"
        }
      ],
      "stateMutability": "view",
      "type": "function"
    },
    {
      "inputs": [],
      "name": "getQueueTasks",
      "outputs": [
        {
          "internalType": "uint256[]",
          "name": "",
          "type": "uint256[]"
        }
      ],
      "stateMutability": "view",
      "type": "function"
    },
    {
      "inputs": [],
      "name": "last",
      "outputs": [
        {
          "internalType": "uint256",
          "name": "",
          "type": "uint256"
        }
      ],
      "stateMutability": "view",
      "type": "function"
    },
    {
      "inputs": [],
      "name": "lzChainId",
      "outputs": [
        {
          "internalType": "uint16",
          "name": "",
          "type": "uint16"
        }
      ],
      "stateMutability": "view",
      "type": "function"
    },
    {
      "inputs": [
        {
          "internalType": "uint256",
          "name": "taskId",
          "type": "uint256"
        }
      ],
      "name": "next",
      "outputs": [
        {
          "internalType": "uint256",
          "name": "",
          "type": "uint256"
        }
      ],
      "stateMutability": "view",
      "type": "function"
    },
    {
      "inputs": [],
      "name": "owner",
      "outputs": [
        {
          "internalType": "address",
          "name": "",
          "type": "address"
        }
      ],
      "stateMutability": "view",
      "type": "function"
    },
    {
      "inputs": [],
      "name": "pause",
      "outputs": [],
      "stateMutability": "nonpayable",
      "type": "function"
    },
    {
      "inputs": [],
      "name": "paused",
      "outputs": [
        {
          "internalType": "bool",
          "name": "",
          "type": "bool"
        }
      ],
      "stateMutability": "view",
      "type": "function"
    },
    {
      "inputs": [
        {
          "internalType": "bytes",
          "name": "performData",
          "type": "bytes"
        }
      ],
      "name": "performUpkeep",
      "outputs": [],
      "stateMutability": "nonpayable",
      "type": "function"
    },
    {
      "inputs": [
        {
          "internalType": "uint256",
          "name": "taskId",
          "type": "uint256"
        }
      ],
      "name": "prev",
      "outputs": [
        {
          "internalType": "uint256",
          "name": "",
          "type": "uint256"
        }
      ],
      "stateMutability": "view",
      "type": "function"
    },
    {
      "inputs": [
        {
          "internalType": "uint256",
          "name": "taskId",
          "type": "uint256"
        }
      ],
      "name": "removeTask",
      "outputs": [],
      "stateMutability": "nonpayable",
      "type": "function"
    },
    {
      "inputs": [],
      "name": "renounceOwnership",
      "outputs": [],
      "stateMutability": "nonpayable",
      "type": "function"
    },
    {
      "inputs": [
        {
          "internalType": "uint256",
          "name": "num",
          "type": "uint256"
        }
      ],
      "name": "setBatchPerformLimist",
      "outputs": [],
      "stateMutability": "nonpayable",
      "type": "function"
    },
    {
      "inputs": [
        {
          "internalType": "contract ILucksBridge",
          "name": "_bridge",
          "type": "address"
        }
      ],
      "name": "setBridge",
      "outputs": [],
      "stateMutability": "nonpayable",
      "type": "function"
    },
    {
      "inputs": [
        {
          "internalType": "uint256",
          "name": "amount",
          "type": "uint256"
        }
      ],
      "name": "setDstGasAmount",
      "outputs": [],
      "stateMutability": "nonpayable",
      "type": "function"
    },
    {
      "inputs": [
        {
          "internalType": "contract ILucksExecutor",
          "name": "_executor",
          "type": "address"
        }
      ],
      "name": "setExecutor",
      "outputs": [],
      "stateMutability": "nonpayable",
      "type": "function"
    },
    {
      "inputs": [
        {
          "internalType": "address",
          "name": "_keeperRegAddr",
          "type": "address"
        }
      ],
      "name": "setKeeper",
      "outputs": [],
      "stateMutability": "nonpayable",
      "type": "function"
    },
    {
      "inputs": [
        {
          "internalType": "uint256",
          "name": "amount",
          "type": "uint256"
        }
      ],
      "name": "setQuoteFeeAdd",
      "outputs": [],
      "stateMutability": "nonpayable",
      "type": "function"
    },
    {
      "inputs": [],
      "name": "size",
      "outputs": [
        {
          "internalType": "uint256",
          "name": "",
          "type": "uint256"
        }
      ],
      "stateMutability": "view",
      "type": "function"
    },
    {
      "inputs": [
        {
          "internalType": "uint256",
          "name": "num",
          "type": "uint256"
        }
      ],
      "name": "top",
      "outputs": [
        {
          "internalType": "uint256[]",
          "name": "",
          "type": "uint256[]"
        }
      ],
      "stateMutability": "view",
      "type": "function"
    },
    {
      "inputs": [
        {
          "internalType": "address",
          "name": "newOwner",
          "type": "address"
        }
      ],
      "name": "transferOwnership",
      "outputs": [],
      "stateMutability": "nonpayable",
      "type": "function"
    },
    {
      "inputs": [],
      "name": "unpause",
      "outputs": [],
      "stateMutability": "nonpayable",
      "type": "function"
    },
    {
      "inputs": [
        {
          "internalType": "uint256",
          "name": "amount",
          "type": "uint256"
        },
        {
          "internalType": "address payable",
          "name": "payee",
          "type": "address"
        }
      ],
      "name": "withdraw",
      "outputs": [],
      "stateMutability": "nonpayable",
      "type": "function"
    },
    {
      "stateMutability": "payable",
      "type": "receive"
    }
  ],
  "transactionHash": "0x9e1734a4b28607bafae0f9c39b2c835610538518792d6abb2a8e691dfba54498",
  "args": [
    "0x02777053d6764996e594c3E88AF1D58D5363a2e6",
    "0x95077DaaeA7d45A5D44eD269ec142E78aA13153b",
    "0xEEE1ceD926fEf190dB0Ca3fC45b619cBb76a84C8",
    9
  ],
  "numDeployments": 1,
  "solcInputHash": "ba7b0f1e5ca42b8642fc7cfca7a1e343",
  "bytecode": "0x60a060405260058055600060065564e8d4a51000600a553480156200002357600080fd5b506040516200224638038062002246833981016040819052620000469162000111565b83836200005333620000c1565b6000805460ff60a01b19169055600780546001600160a01b03199081166001600160a01b0394851617909155600880548216928416929092179091556208647060065560098054909116939091169290921790915560f01b6001600160f01b03191660805250620001989050565b600080546001600160a01b038381166001600160a01b0319831681178455604051919092169283917f8be0079c531659141344cd1fd0a4f28419497f9722a3daafe3b4186f6b6457e09190a35050565b600080600080608085870312156200012857600080fd5b845162000135816200017f565b602086015190945062000148816200017f565b60408601519093506200015b816200017f565b606086015190925061ffff811681146200017457600080fd5b939692955090935050565b6001600160a01b03811681146200019557600080fd5b50565b60805160f01c612088620001be6000396000818161051f015261129101526120886000f3fe6080604052600436106101f05760003560e01c8063715018a61161010d5780639507d39a116100a0578063c81c6c7c1161006f578063c81c6c7c146105ef578063d6ff17a014610604578063edd004e51461061a578063ee9a31a21461063a578063f2fde38b1461065a57600080fd5b80639507d39a14610569578063aa0a310014610599578063b15269a5146105b9578063c3084117146105cf57600080fd5b80638da5cb5b116100dc5780638da5cb5b146104cf5780638dd14802146104ed578063917c41561461050d578063949d225d1461055457600080fd5b8063715018a614610465578063748747e61461047a5780638456cb591461049a578063862a179e146104af57600080fd5b80633f4ba83a116101855780635c975abb116101545780635c975abb146103bf57806362c41534146103e9578063630dc7cb146103ff5780636e04ff0d1461043757600080fd5b80633f4ba83a146103555780634585e33b1461036a57806346bf33221461038a57806347799da8146103aa57600080fd5b8063257baa3a116101c1578063257baa3a146102bc578063313ae541146102dc57806335671214146103125780633df4ddf41461034057600080fd5b8062b34ebd1461023a578062f714ce1461025c5780630fbeb0321461027c5780631c3c0ea81461029c57600080fd5b366102355760408051348152476020820152338183015290517fc6f3fb0fec49e4877342d4625d77a632541f55b7aae0f9d0b34c69b3478706dc9181900360600190a1005b600080fd5b34801561024657600080fd5b5061025a610255366004611cfb565b61067a565b005b34801561026857600080fd5b5061025a610277366004611ccb565b6106e7565b34801561028857600080fd5b5061025a610297366004611cb2565b6107a0565b3480156102a857600080fd5b5061025a6102b7366004611997565b6107cf565b3480156102c857600080fd5b5061025a6102d73660046119f1565b61081b565b3480156102e857600080fd5b506102fc6102f7366004611cb2565b610953565b6040516103099190611db8565b60405180910390f35b34801561031e57600080fd5b5061033261032d366004611cb2565b610966565b604051908152602001610309565b34801561034c57600080fd5b50610332610973565b34801561036157600080fd5b5061025a610984565b34801561037657600080fd5b5061025a610385366004611a55565b6109b8565b34801561039657600080fd5b5061025a6103a5366004611cb2565b610a5f565b3480156103b657600080fd5b50600254610332565b3480156103cb57600080fd5b50600054600160a01b900460ff166040519015158152602001610309565b3480156103f557600080fd5b50610332600a5481565b34801561040b57600080fd5b5060085461041f906001600160a01b031681565b6040516001600160a01b039091168152602001610309565b34801561044357600080fd5b50610457610452366004611a55565b610a8e565b604051610309929190611dfc565b34801561047157600080fd5b5061025a610af9565b34801561048657600080fd5b5061025a610495366004611997565b610b2d565b3480156104a657600080fd5b5061025a610bd3565b3480156104bb57600080fd5b5060075461041f906001600160a01b031681565b3480156104db57600080fd5b506000546001600160a01b031661041f565b3480156104f957600080fd5b5061025a610508366004611997565b610c05565b34801561051957600080fd5b506105417f000000000000000000000000000000000000000000000000000000000000000081565b60405161ffff9091168152602001610309565b34801561056057600080fd5b50600154610332565b34801561057557600080fd5b50610332610584366004611cb2565b60009081526004602052604090206001015490565b3480156105a557600080fd5b5061025a6105b4366004611cb2565b610c51565b3480156105c557600080fd5b5061033260065481565b3480156105db57600080fd5b5061025a6105ea366004611cb2565b610cc4565b3480156105fb57600080fd5b506102fc610d0f565b34801561061057600080fd5b5061033260055481565b34801561062657600080fd5b50610332610635366004611cb2565b610df6565b34801561064657600080fd5b5060095461041f906001600160a01b031681565b34801561066657600080fd5b5061025a610675366004611997565b610e0a565b6008546001600160a01b031633148061069d57506000546001600160a01b031633145b6106c25760405162461bcd60e51b81526004016106b990611e17565b60405180910390fd5b6000821180156106d25750600081115b156106e3576106e360018383610ea2565b5050565b6000546001600160a01b031633146107115760405162461bcd60e51b81526004016106b990611e67565b6001600160a01b03811661072457600080fd5b604080518381526001600160a01b03831660208201527f6141b54b56b8a52a8c6f5cd2a857f6117b18ffbf4d46bd3106f300a839cbf5ea910160405180910390a16040516001600160a01b0382169083156108fc029084906000818181858888f1935050505015801561079b573d6000803e3d6000fd5b505050565b6000546001600160a01b031633146107ca5760405162461bcd60e51b81526004016106b990611e67565b600655565b6000546001600160a01b031633146107f95760405162461bcd60e51b81526004016106b990611e67565b600880546001600160a01b0319166001600160a01b0392909216919091179055565b6008546001600160a01b031633148061083e57506000546001600160a01b031633145b61085a5760405162461bcd60e51b81526004016106b990611e17565b6000825111801561086c575080518251145b6108a65760405162461bcd60e51b815260206004820152600b60248201526a24b73b30b634b2103632b760a91b60448201526064016106b9565b60005b825181101561079b5760008382815181106108c6576108c6612011565b60200260200101511180156108f4575060008282815181106108ea576108ea612011565b6020026020010151115b156109415761094183828151811061090e5761090e612011565b602002602001015183838151811061092857610928612011565b60200260200101516001610ea29092919063ffffffff16565b8061094b81611fe0565b9150506108a9565b6060610960600183610faf565b92915050565b6000610960600183611092565b600061097f60016110c6565b905090565b6000546001600160a01b031633146109ae5760405162461bcd60e51b81526004016106b990611e67565b6109b66110dc565b565b600054600160a01b900460ff16156109e25760405162461bcd60e51b81526004016106b990611e3d565b6007546001600160a01b0316331480610a0557506000546001600160a01b031633145b610a465760405162461bcd60e51b81526020600482015260126024820152716f6e6c794b6565706572526567697374727960701b60448201526064016106b9565b6000610a54828401846119b4565b905061079b81611179565b6000546001600160a01b03163314610a895760405162461bcd60e51b81526004016106b990611e67565b600a55565b60008054606090600160a01b900460ff1615610abc5760405162461bcd60e51b81526004016106b990611e3d565b6000610ac6610d0f565b90506000815111925080604051602001610ae09190611db8565b6040516020818303038152906040529150509250929050565b6000546001600160a01b03163314610b235760405162461bcd60e51b81526004016106b990611e67565b6109b660006114d6565b6000546001600160a01b03163314610b575760405162461bcd60e51b81526004016106b990611e67565b6001600160a01b038116610b6a57600080fd5b600754604080516001600160a01b03928316815291831660208301527fb732223055abcde751d7a24272ffc8a3aa571cb72b443969a4199b7ecd59f8b9910160405180910390a1600780546001600160a01b0319166001600160a01b0392909216919091179055565b6000546001600160a01b03163314610bfd5760405162461bcd60e51b81526004016106b990611e67565b6109b6611526565b6000546001600160a01b03163314610c2f5760405162461bcd60e51b81526004016106b990611e67565b600980546001600160a01b0319166001600160a01b0392909216919091179055565b6000546001600160a01b03163314610c7b5760405162461bcd60e51b81526004016106b990611e67565b60008111610cbf5760405162461bcd60e51b8152602060048201526011602482015270496e76616c6964206c696d6974206e756d60781b60448201526064016106b9565b600555565b6008546001600160a01b0316331480610ce757506000546001600160a01b031633145b610d035760405162461bcd60e51b81526004016106b990611e17565b610d0c8161158b565b50565b6060600060055467ffffffffffffffff811115610d2e57610d2e612027565b604051908082528060200260200182016040528015610d57578160200160208202803683370190505b509050600080610d6760016110c6565b90505b600081118015610d7b575060055482105b15610de1576000818152600460205260409020600101544210610dc85780838381518110610dab57610dab612011565b602090810291909101015281610dc081611fe0565b925050610dcd565b610de1565b600090815260036020526040902054610d6a565b6005548214610dee578183525b509092915050565b600081815260036020526040812054610960565b6000546001600160a01b03163314610e345760405162461bcd60e51b81526004016106b990611e67565b6001600160a01b038116610e995760405162461bcd60e51b815260206004820152602660248201527f4f776e61626c653a206e6577206f776e657220697320746865207a65726f206160448201526564647265737360d01b60648201526084016106b9565b610d0c816114d6565b60008211610ee35760405162461bcd60e51b815260206004820152600e60248201526d072657175697265206964203e20360941b60448201526064016106b9565b600082815260038401602052604090206001015415610f0157505050565b6000610f0d8483611596565b600081815260028681016020908152604080842080549089905588855281852081905581516060810183528981528084018981528184018881528b885260038d019095529290952094518555905160018501559051929091019190915590915080610f7e5760018501849055610f95565b600081815260038601602052604090206002018490555b8454856000610fa383611fe0565b91905055505050505050565b8154606090821115610fc057825491505b6001821015610fde5750604080516000815260208101909152610960565b60008267ffffffffffffffff811115610ff957610ff9612027565b604051908082528060200260200182016040528015611022578160200160208202803683370190505b5090506000611030856110c6565b905060005b84811015611088578115611063578183828151811061105657611056612011565b6020026020010181815250505b600082815260028701602052604090205491508061108081611fe0565b915050611035565b5090949350505050565b600061109e8383611718565b156110bd57506000818152600383016020526040902060020154610960565b50600092915050565b6000808052600282016020526040812054610960565b600054600160a01b900460ff1661112c5760405162461bcd60e51b815260206004820152601460248201527314185d5cd8589b194e881b9bdd081c185d5cd95960621b60448201526064016106b9565b6000805460ff60a01b191690557f5db9ee0a495bf2e6ff9c91a7834c1ba4fdd244a5e8aa4e537bd38aeae4b073aa335b6040516001600160a01b03909116815260200160405180910390a1565b6000604051806080016040528060065481526020016000815260200160405180604001604052806002815260200161060f60f31b815250815260200160405180604001604052806002815260200161060f60f31b815250815250905060005b825181101561079b5760008382815181106111f5576111f5612011565b602002602001015190506112088161158b565b600854604051630eb2f3bf60e11b81526004810183905260009182916001600160a01b0390911690631d65e77e9060240160006040518083038186803b15801561125157600080fd5b505afa158015611265573d6000803e3d6000fd5b505050506040513d6000823e601f3d908101601f1916820160405261128d9190810190611b5b565b90507f000000000000000000000000000000000000000000000000000000000000000061ffff16816020015161ffff161461136f576009546001600160a01b03161561136f5760095460208201516040516306c2267f60e21b81526001600160a01b0390921691631b0899fc9161130b916002908a90600401611e9c565b604080518083038186803b15801561132257600080fd5b505afa158015611336573d6000803e3d6000fd5b505050506040513d601f19601f8201168201806040525081019061135a9190611d1d565b50600a5490925061136c908390611742565b91505b814710156113ea577f8a8daba70101a3ef953fcbe396dcf4370b8204bff0f421bdeaac9867e8fcfe04836040516113dd9181526040602082018190526019908201527f4175746f447261773a206e6f7420656e6f756768206665657300000000000000606082015260800190565b60405180910390a16114c0565b60085460405163723d784d60e11b81526001600160a01b039091169063e47af09a90849061141e9087908a90600401611ee9565b6000604051808303818588803b15801561143757600080fd5b505af193505050508015611449575060015b6114c0573d808015611477576040519150601f19603f3d011682016040523d82523d6000602084013e61147c565b606091505b507f8a8daba70101a3ef953fcbe396dcf4370b8204bff0f421bdeaac9867e8fcfe04846114a883611755565b6040516114b6929190611ed0565b60405180910390a1505b50505080806114ce90611fe0565b9150506111d8565b600080546001600160a01b038381166001600160a01b0319831681178455604051919092169283917f8be0079c531659141344cd1fd0a4f28419497f9722a3daafe3b4186f6b6457e09190a35050565b600054600160a01b900460ff16156115505760405162461bcd60e51b81526004016106b990611e3d565b6000805460ff60a01b1916600160a01b1790557f62e78cea01bee320cd4e420270b5ea74000d11b0c9f74754ebdbfc544b05a25861115c3390565b610d0c60018261178f565b60008082116115dc5760405162461bcd60e51b815260206004820152601260248201527107265717569726520746172676574203e20360741b60448201526064016106b9565b82546115ea57506000610960565b600180840154600081815260038601602052604090209091015480841061161357509050610960565b600061161e866110c6565b6000818152600388016020526040902060010154909150808611611649576000945050505050610960565b600060016116578584611f81565b901c90508087106116b657845b80156116b0576116748982611092565b90506000811180156116995750600081815260038a0160205260409020600101548810155b156116ab579550610960945050505050565b611664565b5061170a565b825b801561170857600090815260028901602052604090205480158015906116f15750600081815260038a0160205260409020600101548810155b15611703579550610960945050505050565b6116b8565b505b506000979650505050505050565b600080821161172657600080fd5b5060009081526003919091016020526040902060010154151590565b600061174e8284611f81565b9392505050565b606060448251101561177557505060408051602081019091526000815290565b600482019150818060200190518101906109609190611ac7565b6117998282611718565b156106e35760006117aa8383611092565b600083815260028501602052604080822054838352912081905590915080156117e457600081815260038501602052604090206002018290555b806117f157600184018290555b6000838152600385016020908152604080832083815560018101849055600290810184905587019091528120819055845490859061182e83611fc9565b919050555050505050565b80516118448161203d565b919050565b600082601f83011261185a57600080fd5b8135602061186f61186a83611f5d565b611f2c565b80838252828201915082860187848660051b890101111561188f57600080fd5b60005b858110156118ae57813584529284019290840190600101611892565b5090979650505050505050565b600082601f8301126118cc57600080fd5b815160206118dc61186a83611f5d565b80838252828201915082860187848660051b89010111156118fc57600080fd5b60005b858110156118ae578151845292840192908401906001016118ff565b80516006811061184457600080fd5b60006040828403121561193c57600080fd5b6040516040810181811067ffffffffffffffff8211171561195f5761195f612027565b806040525080915082516119728161203d565b8152602092830151920191909152919050565b805161ffff8116811461184457600080fd5b6000602082840312156119a957600080fd5b813561174e8161203d565b6000602082840312156119c657600080fd5b813567ffffffffffffffff8111156119dd57600080fd5b6119e984828501611849565b949350505050565b60008060408385031215611a0457600080fd5b823567ffffffffffffffff80821115611a1c57600080fd5b611a2886838701611849565b93506020850135915080821115611a3e57600080fd5b50611a4b85828601611849565b9150509250929050565b60008060208385031215611a6857600080fd5b823567ffffffffffffffff80821115611a8057600080fd5b818501915085601f830112611a9457600080fd5b813581811115611aa357600080fd5b866020828501011115611ab557600080fd5b60209290920196919550909350505050565b600060208284031215611ad957600080fd5b815167ffffffffffffffff80821115611af157600080fd5b818401915084601f830112611b0557600080fd5b815181811115611b1757611b17612027565b611b2a601f8201601f1916602001611f2c565b9150808252856020828501011115611b4157600080fd5b611b52816020840160208601611f99565b50949350505050565b600060208284031215611b6d57600080fd5b815167ffffffffffffffff80821115611b8557600080fd5b908301906102008286031215611b9a57600080fd5b611ba2611f02565b611bab83611839565b8152611bb960208401611985565b6020820152611bca60408401611839565b6040820152606083015182811115611be157600080fd5b611bed878286016118bb565b606083015250608083015182811115611c0557600080fd5b611c11878286016118bb565b608083015250611c2360a08401611839565b60a0820152611c3460c0840161191b565b60c082015260e083810151908201526101008084015190820152610120808401519082015261014080840151908201526101609150611c74828401611985565b828201526101809150611c898683850161192a565b828201526101c09150818301516101a08201526101e08301518282015280935050505092915050565b600060208284031215611cc457600080fd5b5035919050565b60008060408385031215611cde57600080fd5b823591506020830135611cf08161203d565b809150509250929050565b60008060408385031215611d0e57600080fd5b50508035926020909101359150565b60008060408385031215611d3057600080fd5b505080516020909101519092909150565b60008151808452611d59816020860160208601611f99565b601f01601f19169290920160200192915050565b80518252602081015160208301526000604082015160806040850152611d966080850182611d41565b905060608301518482036060860152611daf8282611d41565b95945050505050565b6020808252825182820181905260009190848201906040850190845b81811015611df057835183529284019291840191600101611dd4565b50909695505050505050565b82151581526040602082015260006119e96040830184611d41565b6020808252600c908201526b37b7363ca2bc32b1baba37b960a11b604082015260600190565b60208082526010908201526f14185d5cd8589b194e881c185d5cd95960821b604082015260600190565b6020808252818101527f4f776e61626c653a2063616c6c6572206973206e6f7420746865206f776e6572604082015260600190565b61ffff8416815260ff83166020820152608060408201526000608082015260a060608201526000611daf60a0830184611d6d565b8281526040602082015260006119e96040830184611d41565b8281526040602082015260006119e96040830184611d6d565b6040516101e0810167ffffffffffffffff81118282101715611f2657611f26612027565b60405290565b604051601f8201601f1916810167ffffffffffffffff81118282101715611f5557611f55612027565b604052919050565b600067ffffffffffffffff821115611f7757611f77612027565b5060051b60200190565b60008219821115611f9457611f94611ffb565b500190565b60005b83811015611fb4578181015183820152602001611f9c565b83811115611fc3576000848401525b50505050565b600081611fd857611fd8611ffb565b506000190190565b6000600019821415611ff457611ff4611ffb565b5060010190565b634e487b7160e01b600052601160045260246000fd5b634e487b7160e01b600052603260045260246000fd5b634e487b7160e01b600052604160045260246000fd5b6001600160a01b0381168114610d0c57600080fdfea26469706673582212202193903d76a5fa6de266a3a5e4bb1b703cb5a565096ace0b3edc3caf62967f5764736f6c63430008060033",
  "devdoc": {
    "kind": "dev",
    "methods": {
      "constructor": {
        "params": {
          "_bridge": "The LucksBridge contract",
          "_executor": "The LucksExecutor contract",
          "_keeperRegAddr": "The address of the keeper registry contract"
        }
      },
      "owner()": {
        "details": "Returns the address of the current owner."
      },
      "paused()": {
        "details": "Returns true if the contract is paused, and false otherwise."
      },
      "performUpkeep(bytes)": {
        "details": "The input to this method should not be trusted, and the caller of the method should not even be restricted to any single registry. Anyone should be able call it, and the input should be validated, there is no guarantee that the data passed in is the performData returned from checkUpkeep. This could happen due to malicious keepers, racing keepers, or simply a state change while the performUpkeep transaction is waiting for confirmation. Always validate the data passed in.",
        "params": {
          "performData": "is the data which was passed back from the checkData simulation. If it is encoded, it can easily be decoded into other types by calling `abi.decode`. This data should not be trusted, and should be validated against the contract's current state."
        }
      },
      "renounceOwnership()": {
        "details": "Leaves the contract without owner. It will not be possible to call `onlyOwner` functions anymore. Can only be called by the current owner. NOTE: Renouncing ownership will leave the contract without an owner, thereby removing any functionality that is only available to the owner."
      },
      "transferOwnership(address)": {
        "details": "Transfers ownership of the contract to a new account (`newOwner`). Can only be called by the current owner."
      },
      "withdraw(uint256,address)": {
        "params": {
          "amount": "The amount of eth (in wei) to withdraw",
          "payee": "The address to pay"
        }
      }
    },
    "version": 1
  },
  "userdoc": {
    "kind": "user",
    "methods": {
      "pause()": {
        "notice": "Pauses the contrac t, which prevents executing performUpkeep"
      },
      "performUpkeep(bytes)": {
        "notice": "method that is actually executed by the keepers, via the registry. The data returned by the checkUpkeep simulation will be passed into this method to actually be executed."
      },
      "setBridge(address)": {
        "notice": "set BRIDGE"
      },
      "setExecutor(address)": {
        "notice": "set operator"
      },
      "setKeeper(address)": {
        "notice": "Sets the keeper registry address"
      },
      "unpause()": {
        "notice": "Unpauses the contract"
      },
      "withdraw(uint256,address)": {
        "notice": "Withdraws the contract balance"
      }
    },
    "version": 1
  },
  "storageLayout": {
    "storage": [
      {
        "astId": 917,
        "contract": "contracts/lucks/LucksAutoDrawTask.sol:LucksAutoDrawTask",
        "label": "_owner",
        "offset": 0,
        "slot": "0",
        "type": "t_address"
      },
      {
        "astId": 1032,
        "contract": "contracts/lucks/LucksAutoDrawTask.sol:LucksAutoDrawTask",
        "label": "_paused",
        "offset": 20,
        "slot": "0",
        "type": "t_bool"
      },
      {
        "astId": 12919,
        "contract": "contracts/lucks/LucksAutoDrawTask.sol:LucksAutoDrawTask",
        "label": "taskList",
        "offset": 0,
        "slot": "1",
        "type": "t_struct(SortedMap)11925_storage"
      },
      {
        "astId": 12922,
        "contract": "contracts/lucks/LucksAutoDrawTask.sol:LucksAutoDrawTask",
        "label": "BATCH_PERFORM_LIMIT",
        "offset": 0,
        "slot": "5",
        "type": "t_uint256"
      },
      {
        "astId": 12925,
        "contract": "contracts/lucks/LucksAutoDrawTask.sol:LucksAutoDrawTask",
        "label": "DST_GAS_AMOUNT",
        "offset": 0,
        "slot": "6",
        "type": "t_uint256"
      },
      {
        "astId": 12927,
        "contract": "contracts/lucks/LucksAutoDrawTask.sol:LucksAutoDrawTask",
        "label": "KEEPER",
        "offset": 0,
        "slot": "7",
        "type": "t_address"
      },
      {
        "astId": 12930,
        "contract": "contracts/lucks/LucksAutoDrawTask.sol:LucksAutoDrawTask",
        "label": "EXECUTOR",
        "offset": 0,
        "slot": "8",
        "type": "t_contract(ILucksExecutor)10522"
      },
      {
        "astId": 12632,
        "contract": "contracts/lucks/LucksAutoDrawTask.sol:LucksAutoDrawTask",
        "label": "BRIDGE",
        "offset": 0,
        "slot": "9",
        "type": "t_contract(ILucksBridge)10206"
      },
      {
        "astId": 12635,
        "contract": "contracts/lucks/LucksAutoDrawTask.sol:LucksAutoDrawTask",
        "label": "QUOTE_FEE_ADD",
        "offset": 0,
        "slot": "10",
        "type": "t_uint256"
      }
    ],
    "types": {
      "t_address": {
        "encoding": "inplace",
        "label": "address",
        "numberOfBytes": "20"
      },
      "t_bool": {
        "encoding": "inplace",
        "label": "bool",
        "numberOfBytes": "1"
      },
      "t_contract(ILucksBridge)10206": {
        "encoding": "inplace",
        "label": "contract ILucksBridge",
        "numberOfBytes": "20"
      },
      "t_contract(ILucksExecutor)10522": {
        "encoding": "inplace",
        "label": "contract ILucksExecutor",
        "numberOfBytes": "20"
      },
      "t_mapping(t_uint256,t_struct(Item)11905_storage)": {
        "encoding": "mapping",
        "key": "t_uint256",
        "label": "mapping(uint256 => struct SortedLinkMap.Item)",
        "numberOfBytes": "32",
        "value": "t_struct(Item)11905_storage"
      },
      "t_mapping(t_uint256,t_uint256)": {
        "encoding": "mapping",
        "key": "t_uint256",
        "label": "mapping(uint256 => uint256)",
        "numberOfBytes": "32",
        "value": "t_uint256"
      },
      "t_struct(Item)11905_storage": {
        "encoding": "inplace",
        "label": "struct SortedLinkMap.Item",
        "members": [
          {
            "astId": 11900,
            "contract": "contracts/lucks/LucksAutoDrawTask.sol:LucksAutoDrawTask",
            "label": "id",
            "offset": 0,
            "slot": "0",
            "type": "t_uint256"
          },
          {
            "astId": 11902,
            "contract": "contracts/lucks/LucksAutoDrawTask.sol:LucksAutoDrawTask",
            "label": "value",
            "offset": 0,
            "slot": "1",
            "type": "t_uint256"
          },
          {
            "astId": 11904,
            "contract": "contracts/lucks/LucksAutoDrawTask.sol:LucksAutoDrawTask",
            "label": "leftId",
            "offset": 0,
            "slot": "2",
            "type": "t_uint256"
          }
        ],
        "numberOfBytes": "96"
      },
      "t_struct(SortedMap)11925_storage": {
        "encoding": "inplace",
        "label": "struct SortedLinkMap.SortedMap",
        "members": [
          {
            "astId": 11913,
            "contract": "contracts/lucks/LucksAutoDrawTask.sol:LucksAutoDrawTask",
            "label": "count",
            "offset": 0,
            "slot": "0",
            "type": "t_uint256"
          },
          {
            "astId": 11915,
            "contract": "contracts/lucks/LucksAutoDrawTask.sol:LucksAutoDrawTask",
            "label": "maxId",
            "offset": 0,
            "slot": "1",
            "type": "t_uint256"
          },
          {
            "astId": 11919,
            "contract": "contracts/lucks/LucksAutoDrawTask.sol:LucksAutoDrawTask",
            "label": "keys",
            "offset": 0,
            "slot": "2",
            "type": "t_mapping(t_uint256,t_uint256)"
          },
          {
            "astId": 11924,
            "contract": "contracts/lucks/LucksAutoDrawTask.sol:LucksAutoDrawTask",
            "label": "nodes",
            "offset": 0,
            "slot": "3",
            "type": "t_mapping(t_uint256,t_struct(Item)11905_storage)"
          }
        ],
        "numberOfBytes": "128"
      },
      "t_uint256": {
        "encoding": "inplace",
        "label": "uint256",
        "numberOfBytes": "32"
      }
    }
  }
}