{
  "address": "0xe5966B99EBC4a6edf12B43F95ADA5c47dC359fD7",
  "abi": [
    {
      "inputs": [
        {
          "internalType": "address[]",
          "name": "_acceptTokens",
          "type": "address[]"
        },
        {
          "internalType": "address",
          "name": "_recipient",
          "type": "address"
        },
        {
          "internalType": "uint256",
          "name": "_fee",
          "type": "uint256"
        },
        {
          "internalType": "contract ILucksExecutor",
          "name": "_executor",
          "type": "address"
        },
        {
          "internalType": "contract ILucksVRF",
          "name": "_vrf",
          "type": "address"
        },
        {
          "internalType": "contract ILucksGroup",
          "name": "_groups",
          "type": "address"
        },
        {
          "internalType": "contract ILucksPaymentStrategy",
          "name": "_strategy",
          "type": "address"
        },
        {
          "internalType": "contract ILucksAuto",
          "name": "_auto_close",
          "type": "address"
        },
        {
          "internalType": "contract ILucksAuto",
          "name": "_auto_draw",
          "type": "address"
        }
      ],
      "stateMutability": "nonpayable",
      "type": "constructor"
    },
    {
      "anonymous": false,
      "inputs": [
        {
          "indexed": true,
          "internalType": "address",
          "name": "previousOwner",
          "type": "address"
        },
        {
          "indexed": true,
          "internalType": "address",
          "name": "newOwner",
          "type": "address"
        }
      ],
      "name": "OwnershipTransferred",
      "type": "event"
    },
    {
      "inputs": [],
      "name": "AUTO_CLOSE",
      "outputs": [
        {
          "internalType": "contract ILucksAuto",
          "name": "",
          "type": "address"
        }
      ],
      "stateMutability": "view",
      "type": "function"
    },
    {
      "inputs": [],
      "name": "AUTO_DRAW",
      "outputs": [
        {
          "internalType": "contract ILucksAuto",
          "name": "",
          "type": "address"
        }
      ],
      "stateMutability": "view",
      "type": "function"
    },
    {
      "inputs": [],
      "name": "DRAW_DELAY_SEC",
      "outputs": [
        {
          "internalType": "uint32",
          "name": "",
          "type": "uint32"
        }
      ],
      "stateMutability": "view",
      "type": "function"
    },
    {
      "inputs": [],
      "name": "EXECUTOR",
      "outputs": [
        {
          "internalType": "contract ILucksExecutor",
          "name": "",
          "type": "address"
        }
      ],
      "stateMutability": "view",
      "type": "function"
    },
    {
      "inputs": [],
      "name": "GROUPS",
      "outputs": [
        {
          "internalType": "contract ILucksGroup",
          "name": "",
          "type": "address"
        }
      ],
      "stateMutability": "view",
      "type": "function"
    },
    {
      "inputs": [],
      "name": "MAX_PER_JOIN_NUM",
      "outputs": [
        {
          "internalType": "uint32",
          "name": "",
          "type": "uint32"
        }
      ],
      "stateMutability": "view",
      "type": "function"
    },
    {
      "inputs": [],
      "name": "PROXY_PUNKS",
      "outputs": [
        {
          "internalType": "contract IProxyNFTStation",
          "name": "",
          "type": "address"
        }
      ],
      "stateMutability": "view",
      "type": "function"
    },
    {
      "inputs": [],
      "name": "PUNKS",
      "outputs": [
        {
          "internalType": "contract IPunks",
          "name": "",
          "type": "address"
        }
      ],
      "stateMutability": "view",
      "type": "function"
    },
    {
      "inputs": [],
      "name": "STRATEGY",
      "outputs": [
        {
          "internalType": "contract ILucksPaymentStrategy",
          "name": "",
          "type": "address"
        }
      ],
      "stateMutability": "view",
      "type": "function"
    },
    {
      "inputs": [],
      "name": "VRF",
      "outputs": [
        {
          "internalType": "contract ILucksVRF",
          "name": "",
          "type": "address"
        }
      ],
      "stateMutability": "view",
      "type": "function"
    },
    {
      "inputs": [
        {
          "internalType": "address",
          "name": "",
          "type": "address"
        }
      ],
      "name": "acceptTokens",
      "outputs": [
        {
          "internalType": "bool",
          "name": "",
          "type": "bool"
        }
      ],
      "stateMutability": "view",
      "type": "function"
    },
    {
      "inputs": [
        {
          "internalType": "address",
          "name": "acceptToken",
          "type": "address"
        }
      ],
      "name": "checkAcceptToken",
      "outputs": [
        {
          "internalType": "bool",
          "name": "",
          "type": "bool"
        }
      ],
      "stateMutability": "view",
      "type": "function"
    },
    {
      "inputs": [
        {
          "internalType": "address",
          "name": "account",
          "type": "address"
        },
        {
          "internalType": "address",
          "name": "token",
          "type": "address"
        },
        {
          "internalType": "uint256",
          "name": "amount",
          "type": "uint256"
        }
      ],
      "name": "checkExclusive",
      "outputs": [
        {
          "internalType": "bool",
          "name": "",
          "type": "bool"
        }
      ],
      "stateMutability": "view",
      "type": "function"
    },
    {
      "inputs": [
        {
          "internalType": "address",
          "name": "user",
          "type": "address"
        },
        {
          "internalType": "uint256",
          "name": "taskId",
          "type": "uint256"
        },
        {
          "internalType": "uint32",
          "name": "num",
          "type": "uint32"
        },
        {
          "internalType": "string",
          "name": "note",
          "type": "string"
        }
      ],
      "name": "checkJoinTask",
      "outputs": [
        {
          "internalType": "bool",
          "name": "",
          "type": "bool"
        }
      ],
      "stateMutability": "view",
      "type": "function"
    },
    {
      "inputs": [
        {
          "internalType": "address",
          "name": "addr",
          "type": "address"
        }
      ],
      "name": "checkNFTContract",
      "outputs": [
        {
          "internalType": "bool",
          "name": "",
          "type": "bool"
        }
      ],
      "stateMutability": "view",
      "type": "function"
    },
    {
      "inputs": [
        {
          "internalType": "address",
          "name": "user",
          "type": "address"
        },
        {
          "components": [
            {
              "internalType": "address",
              "name": "seller",
              "type": "address"
            },
            {
              "internalType": "uint16",
              "name": "nftChainId",
              "type": "uint16"
            },
            {
              "internalType": "address",
              "name": "nftContract",
              "type": "address"
            },
            {
              "internalType": "uint256[]",
              "name": "tokenIds",
              "type": "uint256[]"
            },
            {
              "internalType": "uint256[]",
              "name": "tokenAmounts",
              "type": "uint256[]"
            },
            {
              "internalType": "address",
              "name": "acceptToken",
              "type": "address"
            },
            {
              "internalType": "enum TaskStatus",
              "name": "status",
              "type": "uint8"
            },
            {
              "internalType": "uint256",
              "name": "startTime",
              "type": "uint256"
            },
            {
              "internalType": "uint256",
              "name": "endTime",
              "type": "uint256"
            },
            {
              "internalType": "uint256",
              "name": "targetAmount",
              "type": "uint256"
            },
            {
              "internalType": "uint256",
              "name": "price",
              "type": "uint256"
            },
            {
              "internalType": "uint16",
              "name": "paymentStrategy",
              "type": "uint16"
            },
            {
              "components": [
                {
                  "internalType": "address",
                  "name": "token",
                  "type": "address"
                },
                {
                  "internalType": "uint256",
                  "name": "amount",
                  "type": "uint256"
                }
              ],
              "internalType": "struct ExclusiveToken",
              "name": "exclusiveToken",
              "type": "tuple"
            },
            {
              "internalType": "uint256",
              "name": "amountCollected",
              "type": "uint256"
            },
            {
              "internalType": "uint256",
              "name": "depositId",
              "type": "uint256"
            }
          ],
          "internalType": "struct TaskItem",
          "name": "item",
          "type": "tuple"
        }
      ],
      "name": "checkNewTask",
      "outputs": [
        {
          "internalType": "bool",
          "name": "",
          "type": "bool"
        }
      ],
      "stateMutability": "view",
      "type": "function"
    },
    {
      "inputs": [
        {
          "components": [
            {
              "internalType": "uint16",
              "name": "chainId",
              "type": "uint16"
            },
            {
              "internalType": "string",
              "name": "title",
              "type": "string"
            },
            {
              "internalType": "string",
              "name": "note",
              "type": "string"
            }
          ],
          "internalType": "struct TaskExt",
          "name": "ext",
          "type": "tuple"
        }
      ],
      "name": "checkNewTaskExt",
      "outputs": [
        {
          "internalType": "bool",
          "name": "",
          "type": "bool"
        }
      ],
      "stateMutability": "pure",
      "type": "function"
    },
    {
      "inputs": [
        {
          "components": [
            {
              "internalType": "address",
              "name": "seller",
              "type": "address"
            },
            {
              "internalType": "uint16",
              "name": "nftChainId",
              "type": "uint16"
            },
            {
              "internalType": "address",
              "name": "nftContract",
              "type": "address"
            },
            {
              "internalType": "uint256[]",
              "name": "tokenIds",
              "type": "uint256[]"
            },
            {
              "internalType": "uint256[]",
              "name": "tokenAmounts",
              "type": "uint256[]"
            },
            {
              "internalType": "address",
              "name": "acceptToken",
              "type": "address"
            },
            {
              "internalType": "enum TaskStatus",
              "name": "status",
              "type": "uint8"
            },
            {
              "internalType": "uint256",
              "name": "startTime",
              "type": "uint256"
            },
            {
              "internalType": "uint256",
              "name": "endTime",
              "type": "uint256"
            },
            {
              "internalType": "uint256",
              "name": "targetAmount",
              "type": "uint256"
            },
            {
              "internalType": "uint256",
              "name": "price",
              "type": "uint256"
            },
            {
              "internalType": "uint16",
              "name": "paymentStrategy",
              "type": "uint16"
            },
            {
              "components": [
                {
                  "internalType": "address",
                  "name": "token",
                  "type": "address"
                },
                {
                  "internalType": "uint256",
                  "name": "amount",
                  "type": "uint256"
                }
              ],
              "internalType": "struct ExclusiveToken",
              "name": "exclusiveToken",
              "type": "tuple"
            },
            {
              "internalType": "uint256",
              "name": "amountCollected",
              "type": "uint256"
            },
            {
              "internalType": "uint256",
              "name": "depositId",
              "type": "uint256"
            }
          ],
          "internalType": "struct TaskItem",
          "name": "item",
          "type": "tuple"
        }
      ],
      "name": "checkNewTaskRemote",
      "outputs": [
        {
          "internalType": "bool",
          "name": "",
          "type": "bool"
        }
      ],
      "stateMutability": "view",
      "type": "function"
    },
    {
      "inputs": [
        {
          "internalType": "uint32",
          "name": "num",
          "type": "uint32"
        }
      ],
      "name": "checkPerJoinLimit",
      "outputs": [
        {
          "internalType": "bool",
          "name": "",
          "type": "bool"
        }
      ],
      "stateMutability": "view",
      "type": "function"
    },
    {
      "inputs": [
        {
          "internalType": "address",
          "name": "addr",
          "type": "address"
        },
        {
          "internalType": "address",
          "name": "seller",
          "type": "address"
        },
        {
          "internalType": "uint256[]",
          "name": "tokenIds",
          "type": "uint256[]"
        },
        {
          "internalType": "uint256[]",
          "name": "amounts",
          "type": "uint256[]"
        }
      ],
      "name": "checkTokenListing",
      "outputs": [
        {
          "internalType": "bool",
          "name": "",
          "type": "bool"
        },
        {
          "internalType": "string",
          "name": "",
          "type": "string"
        }
      ],
      "stateMutability": "view",
      "type": "function"
    },
    {
      "inputs": [],
      "name": "feeRecipient",
      "outputs": [
        {
          "internalType": "address",
          "name": "",
          "type": "address"
        }
      ],
      "stateMutability": "view",
      "type": "function"
    },
    {
      "inputs": [],
      "name": "getAutoClose",
      "outputs": [
        {
          "internalType": "contract ILucksAuto",
          "name": "",
          "type": "address"
        }
      ],
      "stateMutability": "view",
      "type": "function"
    },
    {
      "inputs": [],
      "name": "getAutoDraw",
      "outputs": [
        {
          "internalType": "contract ILucksAuto",
          "name": "",
          "type": "address"
        }
      ],
      "stateMutability": "view",
      "type": "function"
    },
    {
      "inputs": [],
      "name": "getDrawDelay",
      "outputs": [
        {
          "internalType": "uint32",
          "name": "",
          "type": "uint32"
        }
      ],
      "stateMutability": "view",
      "type": "function"
    },
    {
      "inputs": [],
      "name": "getGROUPS",
      "outputs": [
        {
          "internalType": "contract ILucksGroup",
          "name": "",
          "type": "address"
        }
      ],
      "stateMutability": "view",
      "type": "function"
    },
    {
      "inputs": [
        {
          "internalType": "address",
          "name": "token",
          "type": "address"
        }
      ],
      "name": "getMinTargetLimit",
      "outputs": [
        {
          "internalType": "uint256",
          "name": "",
          "type": "uint256"
        }
      ],
      "stateMutability": "view",
      "type": "function"
    },
    {
      "inputs": [],
      "name": "getProtocolFee",
      "outputs": [
        {
          "internalType": "uint256",
          "name": "",
          "type": "uint256"
        }
      ],
      "stateMutability": "view",
      "type": "function"
    },
    {
      "inputs": [],
      "name": "getProtocolFeeRecipient",
      "outputs": [
        {
          "internalType": "address",
          "name": "",
          "type": "address"
        }
      ],
      "stateMutability": "view",
      "type": "function"
    },
    {
      "inputs": [],
      "name": "getProxyPunks",
      "outputs": [
        {
          "internalType": "contract IProxyNFTStation",
          "name": "",
          "type": "address"
        }
      ],
      "stateMutability": "view",
      "type": "function"
    },
    {
      "inputs": [],
      "name": "getPunks",
      "outputs": [
        {
          "internalType": "contract IPunks",
          "name": "",
          "type": "address"
        }
      ],
      "stateMutability": "view",
      "type": "function"
    },
    {
      "inputs": [],
      "name": "getSTRATEGY",
      "outputs": [
        {
          "internalType": "contract ILucksPaymentStrategy",
          "name": "",
          "type": "address"
        }
      ],
      "stateMutability": "view",
      "type": "function"
    },
    {
      "inputs": [],
      "name": "getVRF",
      "outputs": [
        {
          "internalType": "contract ILucksVRF",
          "name": "",
          "type": "address"
        }
      ],
      "stateMutability": "view",
      "type": "function"
    },
    {
      "inputs": [
        {
          "internalType": "address",
          "name": "nftContract",
          "type": "address"
        }
      ],
      "name": "isPunks",
      "outputs": [
        {
          "internalType": "bool",
          "name": "",
          "type": "bool"
        }
      ],
      "stateMutability": "view",
      "type": "function"
    },
    {
      "inputs": [
        {
          "internalType": "address",
          "name": "",
          "type": "address"
        }
      ],
      "name": "minTargetAmount",
      "outputs": [
        {
          "internalType": "uint256",
          "name": "",
          "type": "uint256"
        }
      ],
      "stateMutability": "view",
      "type": "function"
    },
    {
      "inputs": [
        {
          "internalType": "address",
          "name": "",
          "type": "address"
        }
      ],
      "name": "operators",
      "outputs": [
        {
          "internalType": "bool",
          "name": "",
          "type": "bool"
        }
      ],
      "stateMutability": "view",
      "type": "function"
    },
    {
      "inputs": [],
      "name": "owner",
      "outputs": [
        {
          "internalType": "address",
          "name": "",
          "type": "address"
        }
      ],
      "stateMutability": "view",
      "type": "function"
    },
    {
      "inputs": [],
      "name": "protocolFee",
      "outputs": [
        {
          "internalType": "uint256",
          "name": "",
          "type": "uint256"
        }
      ],
      "stateMutability": "view",
      "type": "function"
    },
    {
      "inputs": [],
      "name": "renounceOwnership",
      "outputs": [],
      "stateMutability": "nonpayable",
      "type": "function"
    },
    {
      "inputs": [
        {
          "internalType": "address[]",
          "name": "tokens",
          "type": "address[]"
        },
        {
          "internalType": "bool",
          "name": "enable",
          "type": "bool"
        }
      ],
      "name": "setAcceptTokens",
      "outputs": [],
      "stateMutability": "nonpayable",
      "type": "function"
    },
    {
      "inputs": [
        {
          "internalType": "uint32",
          "name": "second",
          "type": "uint32"
        }
      ],
      "name": "setDrawDelay",
      "outputs": [],
      "stateMutability": "nonpayable",
      "type": "function"
    },
    {
      "inputs": [
        {
          "internalType": "contract ILucksExecutor",
          "name": "_executor",
          "type": "address"
        }
      ],
      "name": "setExecutor",
      "outputs": [],
      "stateMutability": "nonpayable",
      "type": "function"
    },
    {
      "inputs": [
        {
          "internalType": "uint32",
          "name": "num",
          "type": "uint32"
        }
      ],
      "name": "setJoinLimitNum",
      "outputs": [],
      "stateMutability": "nonpayable",
      "type": "function"
    },
    {
      "inputs": [
        {
          "internalType": "contract ILucksAuto",
          "name": "_auto_close",
          "type": "address"
        },
        {
          "internalType": "contract ILucksAuto",
          "name": "_auto_draw",
          "type": "address"
        }
      ],
      "name": "setLucksAuto",
      "outputs": [],
      "stateMutability": "nonpayable",
      "type": "function"
    },
    {
      "inputs": [
        {
          "internalType": "contract ILucksGroup",
          "name": "addr",
          "type": "address"
        }
      ],
      "name": "setLucksGroup",
      "outputs": [],
      "stateMutability": "nonpayable",
      "type": "function"
    },
    {
      "inputs": [
        {
          "internalType": "contract ILucksVRF",
          "name": "addr",
          "type": "address"
        }
      ],
      "name": "setLucksVRF",
      "outputs": [],
      "stateMutability": "nonpayable",
      "type": "function"
    },
    {
      "inputs": [
        {
          "internalType": "address[]",
          "name": "tokens",
          "type": "address[]"
        },
        {
          "internalType": "uint256[]",
          "name": "amounts",
          "type": "uint256[]"
        }
      ],
      "name": "setMinTargetAmount",
      "outputs": [],
      "stateMutability": "nonpayable",
      "type": "function"
    },
    {
      "inputs": [
        {
          "internalType": "address",
          "name": "addr",
          "type": "address"
        },
        {
          "internalType": "bool",
          "name": "enable",
          "type": "bool"
        }
      ],
      "name": "setOperator",
      "outputs": [],
      "stateMutability": "nonpayable",
      "type": "function"
    },
    {
      "inputs": [
        {
          "internalType": "contract ILucksPaymentStrategy",
          "name": "addr",
          "type": "address"
        }
      ],
      "name": "setPaymentStrategy",
      "outputs": [],
      "stateMutability": "nonpayable",
      "type": "function"
    },
    {
      "inputs": [
        {
          "internalType": "uint256",
          "name": "fee",
          "type": "uint256"
        }
      ],
      "name": "setProtocolFee",
      "outputs": [],
      "stateMutability": "nonpayable",
      "type": "function"
    },
    {
      "inputs": [
        {
          "internalType": "address",
          "name": "addr",
          "type": "address"
        }
      ],
      "name": "setProtocolFeeRecipient",
      "outputs": [],
      "stateMutability": "nonpayable",
      "type": "function"
    },
    {
      "inputs": [
        {
          "internalType": "contract IPunks",
          "name": "punks",
          "type": "address"
        },
        {
          "internalType": "contract IProxyNFTStation",
          "name": "proxyPunks",
          "type": "address"
        }
      ],
      "name": "setPunks",
      "outputs": [],
      "stateMutability": "nonpayable",
      "type": "function"
    },
    {
      "inputs": [
        {
          "internalType": "address",
          "name": "newOwner",
          "type": "address"
        }
      ],
      "name": "transferOwnership",
      "outputs": [],
      "stateMutability": "nonpayable",
      "type": "function"
    }
  ],
  "transactionHash": "0xbbcf8c1a3d6decbbe1ea1a83403925fd77587568505f68a02ab93b6ead9f01fe",
  "args": [
    [
      "0x0000000000000000000000000000000000000000",
      "0x0d500b1d8e8ef31e21c99d1db9a6444d3adf1270",
      "0x7ceb23fd6bc0add59e62ac25578270cff1b9f619",
      "0x2791bca1f2de4661ed88a30c99a7a9449aa84174",
      "0xc2132d05d31c914a87c6611c10748aeb04b58e8f"
    ],
    "0x5b770F460978C456d69bC46463dfda71FEEE60AD",
    200,
    "0x95077DaaeA7d45A5D44eD269ec142E78aA13153b",
    "0x4a616a03064770C3b269b4e165F46AF4F36d3a16",
    "0xe6B847179B7ad642ff26D376F7cF0f36297e5e04",
    "0x7B3a23f69f5548E7eEFb57F613027c4252f52366",
    "0xd667Ae0B67A1f3b92F2dF1219C2C501FECF306bF",
    "0xb0b6312e68D02437911E02E52DFC49Dc9a762449"
  ],
  "numDeployments": 1,
  "solcInputHash": "ba7b0f1e5ca42b8642fc7cfca7a1e343",
  "bytecode": "0x608060405260098054600160a01b600160e01b03191664078000027160a41b17905560c8600a553480156200003357600080fd5b5060405162002f0a38038062002f0a833981016040819052620000569162000239565b6200006133620000f0565b600980546001600160a01b03199081166001600160a01b038b811691909117909255600a89905560018054821689841617815560028054831689851617905560038054831688851617905560048054831687851617905560058054831686851617905560068054909216928416929092179055620000e1908a9062000140565b505050505050505050620003fe565b600080546001600160a01b038381166001600160a01b0319831681178455604051919092169283917f8be0079c531659141344cd1fd0a4f28419497f9722a3daafe3b4186f6b6457e09190a35050565b6000546001600160a01b0316331480620001695750336000908152600b602052604090205460ff165b620001a95760405162461bcd60e51b815260206004820152600c60248201526b37b7363ca7b832b930ba37b960a11b604482015260640160405180910390fd5b60005b8251811015620002175781600c6000858481518110620001d057620001d0620003d2565b6020908102919091018101516001600160a01b03168252810191909152604001600020805460ff1916911515919091179055806200020e81620003a8565b915050620001ac565b505050565b80516001600160a01b03811681146200023457600080fd5b919050565b60008060008060008060008060006101208a8c0312156200025957600080fd5b89516001600160401b03808211156200027157600080fd5b818c0191508c601f8301126200028657600080fd5b8151818111156200029b576200029b620003e8565b604051601f19603f8360051b011681018181108482111715620002c257620002c2620003e8565b8060405250809250818152602081019250602084018f60208460051b8701011115620002ed57600080fd5b600094505b828510156200031c5762000306816200021c565b84526001949094019360209384019301620002f2565b509b50620003319250505060208b016200021c565b975060408a015196506200034860608b016200021c565b95506200035860808b016200021c565b94506200036860a08b016200021c565b93506200037860c08b016200021c565b92506200038860e08b016200021c565b9150620003996101008b016200021c565b90509295985092959850929598565b6000600019821415620003cb57634e487b7160e01b600052601160045260246000fd5b5060010190565b634e487b7160e01b600052603260045260246000fd5b634e487b7160e01b600052604160045260246000fd5b612afc806200040e6000396000f3fe608060405234801561001057600080fd5b506004361061030c5760003560e01c80637f994c191161019d578063b0e21e8a116100e9578063d45d76b3116100a2578063e67aa0d11161007c578063e67aa0d11461072f578063e7e46def14610746578063edd3159d14610759578063f2fde38b1461076a57600080fd5b8063d45d76b3146106e6578063d48ed1a514610709578063e521cb921461071c57600080fd5b8063b0e21e8a14610680578063b19e035f14610689578063c735fd741461069a578063cb9b4e12146106ad578063d12c51f8146106c0578063d3a01b0a146106d357600080fd5b80639571581c116101565780639b7ed979116101305780639b7ed9791461063f5780639ef4fdd514610652578063a126285b14610665578063a5a410311461067857600080fd5b80639571581c146106085780639861b7b1146106195780639aeecea51461062c57600080fd5b80637f994c191461057d578063873360d7146105a95780638859e523146105c05780638a1d2531146105d35780638da5cb5b146105e657806393f1c911146105f757600080fd5b806333a948311161025c578063630dc7cb1161021557806372c8fc0e116101ef57806372c8fc0e14610526578063770ee87014610537578063787dce3d146105575780637a6bbf181461056a57600080fd5b8063630dc7cb146104f85780636896c5ce1461050b578063715018a61461051e57600080fd5b806333a9483114610464578063350a9e4314610475578063375a32be1461048857806346904840146104bf5780634e30dd90146104d2578063558a7297146104e557600080fd5b80631a44f03a116102c95780631e07dbb8116102a35780631e07dbb81461041c578063239619751461042f57806330da111a146104405780633156a58d1461045357600080fd5b80631a44f03a146103d55780631a88f8fc146103e85780631c3c0ea81461040957600080fd5b806305b84a7d146103115780630990a9821461032657806313e7c9d81461034e5780631750518c14610371578063185025ef1461038457806319af3253146103af575b600080fd5b61032461031f3660046122c1565b61077d565b005b610339610334366004612593565b6107ec565b60405190151581526020015b60405180910390f35b61033961035c3660046122c1565b600b6020526000908152604090205460ff1681565b61033961037f3660046123fd565b610875565b600454610397906001600160a01b031681565b6040516001600160a01b039091168152602001610345565b600954600160c01b900463ffffffff165b60405163ffffffff9091168152602001610345565b6103246103e33660046122c1565b610bcd565b6103fb6103f63660046122fb565b610c33565b604051610345929190612878565b6103246104173660046122c1565b611115565b61032461042a366004612810565b611161565b6005546001600160a01b0316610397565b600754610397906001600160a01b031681565b6006546001600160a01b0316610397565b6007546001600160a01b0316610397565b6103246104833660046122c1565b6111cb565b6104b16104963660046122c1565b6001600160a01b03166000908152600d602052604090205490565b604051908152602001610345565b600954610397906001600160a01b031681565b600854610397906001600160a01b031681565b6103246104f33660046123c4565b611231565b600154610397906001600160a01b031681565b600554610397906001600160a01b031681565b610324611286565b6009546001600160a01b0316610397565b6104b16105453660046122c1565b600d6020526000908152604090205481565b6103246105653660046127de565b6112bc565b610324610578366004612810565b6112eb565b61033961058b3660046122c1565b6001600160a01b03166000908152600c602052604090205460ff1690565b6009546103c090600160a01b900463ffffffff1681565b6103396105ce3660046122c1565b611355565b6103246105e1366004612565565b6114fa565b6000546001600160a01b0316610397565b6004546001600160a01b0316610397565b6008546001600160a01b0316610397565b610339610627366004612810565b61156c565b61033961063a3660046122c1565b6115a7565b61032461064d366004612565565b6115e6565b610339610660366004612383565b611658565b600254610397906001600160a01b031681565b600a546104b1565b6104b1600a5481565b6003546001600160a01b0316610397565b6103396106a836600461264c565b6117bc565b6103246106bb366004612502565b61190d565b600354610397906001600160a01b031681565b600654610397906001600160a01b031681565b6103396106f43660046122c1565b600c6020526000908152604090205460ff1681565b6103246107173660046124a9565b6119bd565b61032461072a3660046122c1565b611a7c565b6009546103c090600160c01b900463ffffffff1681565b61033961075436600461244c565b611ac8565b6002546001600160a01b0316610397565b6103246107783660046122c1565b611e0a565b6000546001600160a01b03163314806107a55750336000908152600b602052604090205460ff165b6107ca5760405162461bcd60e51b81526004016107c1906128a6565b60405180910390fd5b600380546001600160a01b0319166001600160a01b0392909216919091179055565b6000610100826020015151111561082d5760405162461bcd60e51b81526020600482015260056024820152647469746c6560d81b60448201526064016107c1565b610100826040015151111561086d5760405162461bcd60e51b81526004016107c1906020808252600490820152636e6f746560e01b604082015260600190565b506001919050565b80516000906001600160a01b0316158015906108a65750826001600160a01b031682600001516001600160a01b0316145b6108db5760405162461bcd60e51b815260206004820152600660248201526539b2b63632b960d11b60448201526064016107c1565b6000826020015161ffff161161091e5760405162461bcd60e51b815260206004820152600860248201526737333a21b430b4b760c11b60448201526064016107c1565b60008260600151511161095e5760405162461bcd60e51b8152602060048201526008602482015267746f6b656e49647360c01b60448201526064016107c1565b816101000151421061099c5760405162461bcd60e51b8152602060048201526007602482015266656e6454696d6560c81b60448201526064016107c1565b62014a78428361010001516109b191906129d2565b1180156109d057506228de80428361010001516109ce91906129d2565b105b610a075760405162461bcd60e51b8152602060048201526008602482015267323ab930ba34b7b760c11b60448201526064016107c1565b6000826101400151118015610a255750816101200151826101400151105b8015610a435750610140820151610120830151610a4191611ea5565b155b610a875760405162461bcd60e51b81526020600482015260156024820152741c1c9a58d9481bdc881d185c99d95d105b5bdd5b9d605a1b60448201526064016107c1565b6000610aa6836101400151846101200151611eb190919063ffffffff16565b9050600081118015610abb5750620186a08111155b8015610acf5750610acd81600a611ea5565b155b610b015760405162461bcd60e51b81526020600482015260036024820152626e756d60e81b60448201526064016107c1565b6101a083015115610b3e5760405162461bcd60e51b815260206004820152600760248201526618dbdb1b1958dd60ca1b60448201526064016107c1565b610b4b8360400151611355565b610b7d5760405162461bcd60e51b81526020600482015260036024820152621b999d60ea1b60448201526064016107c1565b600080610b9c8560400151866000015187606001518860800151610c33565b91509150818190610bc05760405162461bcd60e51b81526004016107c19190612893565b5060019695505050505050565b6000546001600160a01b0316331480610bf55750336000908152600b602052604090205460ff165b610c115760405162461bcd60e51b81526004016107c1906128a6565b600480546001600160a01b0319166001600160a01b0392909216919091179055565b60006060610c40866115a7565b15610d645760005b8451811015610d5e5760075485516000916001600160a01b031690635817816890889085908110610c7b57610c7b612a5a565b60200260200101516040518263ffffffff1660e01b8152600401610ca191815260200190565b60206040518083038186803b158015610cb957600080fd5b505afa158015610ccd573d6000803e3d6000fd5b505050506040513d601f19601f82011682018060405250810190610cf191906122de565b9050866001600160a01b0316816001600160a01b031614610d4b576000604051806040016040528060198152602001782a37b5b2b7103634b9ba32b21037b9103737ba1037bbb732b960391b81525093509350505061110c565b5080610d56816129e9565b915050610c48565b506110f7565b6040516301ffc9a760e01b81526380ac58cd60e01b60048201526001600160a01b038716906301ffc9a79060240160206040518083038186803b158015610daa57600080fd5b505afa158015610dbe573d6000803e3d6000fd5b505050506040513d601f19601f82011682018060405250810190610de29190612548565b15610eef5760005b8451811015610d5e57856001600160a01b0316876001600160a01b0316636352211e878481518110610e1e57610e1e612a5a565b60200260200101516040518263ffffffff1660e01b8152600401610e4491815260200190565b60206040518083038186803b158015610e5c57600080fd5b505afa158015610e70573d6000803e3d6000fd5b505050506040513d601f19601f82011682018060405250810190610e9491906122de565b6001600160a01b031614610edd5750506040805180820190915260198152782a37b5b2b7103634b9ba32b21037b9103737ba1037bbb732b960391b60208201526000915061110c565b80610ee7816129e9565b915050610dea565b6040516301ffc9a760e01b8152636cdb3d1360e11b60048201526001600160a01b038716906301ffc9a79060240160206040518083038186803b158015610f3557600080fd5b505afa158015610f49573d6000803e3d6000fd5b505050506040513d601f19601f82011682018060405250810190610f6d9190612548565b156110f7578251845114610fb55760405162461bcd60e51b815260206004820152600f60248201526e24b73b30b634b21034b239903632b760891b60448201526064016107c1565b60005b84518110156110f557838181518110610fd357610fd3612a5a565b6020026020010151876001600160a01b031662fdd58e88888581518110610ffc57610ffc612a5a565b60200260200101516040518363ffffffff1660e01b81526004016110359291906001600160a01b03929092168252602082015260400190565b60206040518083038186803b15801561104d57600080fd5b505afa158015611061573d6000803e3d6000fd5b505050506040513d601f19601f8201168201806040525081019061108591906127f7565b101580156110ac575060008482815181106110a2576110a2612a5a565b6020026020010151115b6110e3575050604080518082019091526011815270616d6f756e74206f722062616c616e636560781b60208201526000915061110c565b806110ed816129e9565b915050610fb8565b505b50506040805160208101909152600081526001905b94509492505050565b6000546001600160a01b0316331461113f5760405162461bcd60e51b81526004016107c1906128cc565b600180546001600160a01b0319166001600160a01b0392909216919091179055565b6000546001600160a01b03163314806111895750336000908152600b602052604090205460ff165b6111a55760405162461bcd60e51b81526004016107c1906128a6565b6009805463ffffffff909216600160a01b0263ffffffff60a01b19909216919091179055565b6000546001600160a01b03163314806111f35750336000908152600b602052604090205460ff165b61120f5760405162461bcd60e51b81526004016107c1906128a6565b600280546001600160a01b0319166001600160a01b0392909216919091179055565b6000546001600160a01b0316331461125b5760405162461bcd60e51b81526004016107c1906128cc565b6001600160a01b03919091166000908152600b60205260409020805460ff1916911515919091179055565b6000546001600160a01b031633146112b05760405162461bcd60e51b81526004016107c1906128cc565b6112ba6000611ebd565b565b6000546001600160a01b031633146112e65760405162461bcd60e51b81526004016107c1906128cc565b600a55565b6000546001600160a01b03163314806113135750336000908152600b602052604090205460ff165b61132f5760405162461bcd60e51b81526004016107c1906128a6565b6009805463ffffffff909216600160c01b0263ffffffff60c01b19909216919091179055565b60006001600160a01b0382161580159061137857506001600160a01b0382163b15155b6113aa5760405162461bcd60e51b81526020600482015260036024820152621b999d60ea1b60448201526064016107c1565b6113b3826115a7565b8061143757506040516301ffc9a760e01b81526380ac58cd60e01b60048201526001600160a01b038316906301ffc9a79060240160206040518083038186803b1580156113ff57600080fd5b505afa158015611413573d6000803e3d6000fd5b505050506040513d601f19601f820116820180604052508101906114379190612548565b806114bb57506040516301ffc9a760e01b8152636cdb3d1360e11b60048201526001600160a01b038316906301ffc9a79060240160206040518083038186803b15801561148357600080fd5b505afa158015611497573d6000803e3d6000fd5b505050506040513d601f19601f820116820180604052508101906114bb9190612548565b61086d5760405162461bcd60e51b815260206004820152601060248201526f125b9d985b1a590818dbdb9d1c9858dd60821b60448201526064016107c1565b6000546001600160a01b03163314806115225750336000908152600b602052604090205460ff165b61153e5760405162461bcd60e51b81526004016107c1906128a6565b600780546001600160a01b039384166001600160a01b03199182161790915560088054929093169116179055565b6009546000906001600160a01b90910463ffffffff1610806115a1575060095463ffffffff600160a01b909104811690831611155b92915050565b6007546000906001600160a01b0383811691161480156115d157506007546001600160a01b031615155b156115de57506001919050565b506000919050565b6000546001600160a01b031633148061160e5750336000908152600b602052604090205460ff165b61162a5760405162461bcd60e51b81526004016107c1906128a6565b600580546001600160a01b039384166001600160a01b03199182161790915560068054929093169116179055565b6000808211801561167257506001600160a01b0383163b15155b156117b1576040516301ffc9a760e01b81526380ac58cd60e01b60048201526001600160a01b038416906301ffc9a79060240160206040518083038186803b1580156116bd57600080fd5b505afa1580156116d1573d6000803e3d6000fd5b505050506040513d601f19601f820116820180604052508101906116f59190612548565b15611780576040516370a0823160e01b81526001600160a01b0385811660048301528391908516906370a08231906024015b60206040518083038186803b15801561173f57600080fd5b505afa158015611753573d6000803e3d6000fd5b505050506040513d601f19601f8201168201806040525081019061177791906127f7565b101590506117b5565b6040516370a0823160e01b81526001600160a01b0385811660048301528391908516906370a0823190602401611727565b5060015b9392505050565b610180810151516000906001600160a01b0316158015906117e65750600082610180015160200151115b1561183457610180820151516001600160a01b03163b6118345760405162461bcd60e51b81526020600482015260096024820152686578636c757369766560b81b60448201526064016107c1565b60a08201516001600160a01b03166000908152600c602052604090205460ff166118a05760405162461bcd60e51b815260206004820152601760248201527f556e737570706f7274656420616363657074546f6b656e00000000000000000060448201526064016107c1565b60a08201516001600160a01b03166000908152600d60205260409020548015806118cf57508083610120015110155b6119045760405162461bcd60e51b81526020600482015260066024820152651d185c99d95d60d21b60448201526064016107c1565b50600192915050565b6000546001600160a01b03163314806119355750336000908152600b602052604090205460ff165b6119515760405162461bcd60e51b81526004016107c1906128a6565b60005b82518110156119b85781600c600085848151811061197457611974612a5a565b6020908102919091018101516001600160a01b03168252810191909152604001600020805460ff1916911515919091179055806119b0816129e9565b915050611954565b505050565b6000546001600160a01b03163314806119e55750336000908152600b602052604090205460ff165b611a015760405162461bcd60e51b81526004016107c1906128a6565b60005b82518110156119b857818181518110611a1f57611a1f612a5a565b6020026020010151600d6000858481518110611a3d57611a3d612a5a565b60200260200101516001600160a01b03166001600160a01b03168152602001908152602001600020819055508080611a74906129e9565b915050611a04565b6000546001600160a01b03163314611aa65760405162461bcd60e51b81526004016107c1906128cc565b600980546001600160a01b0319166001600160a01b0392909216919091179055565b600061010082511115611b0e5760405162461bcd60e51b815260206004820152600e60248201526d4e6f746520746f6f206c6172676560901b60448201526064016107c1565b611b178361156c565b611b555760405162461bcd60e51b815260206004820152600f60248201526e13dd995c881a9bda5b881b1a5b5a5d608a1b60448201526064016107c1565b60008363ffffffff1611611b915760405162461bcd60e51b81526020600482015260036024820152626e756d60e81b60448201526064016107c1565b600154604051630eb2f3bf60e11b8152600481018690526000916001600160a01b031690631d65e77e9060240160006040518083038186803b158015611bd657600080fd5b505afa158015611bea573d6000803e3d6000fd5b505050506040513d6000823e601f3d908101601f19168201604052611c129190810190612688565b9050856001600160a01b031681600001516001600160a01b03161415611c6c5760405162461bcd60e51b815260206004820152600f60248201526e2737ba1030b63637bb9037bbb732b960891b60448201526064016107c1565b8060e001514210158015611c8557508061010001514211155b611cbb5760405162461bcd60e51b8152602060048201526007602482015266656e6454696d6560c81b60448201526064016107c1565b60008160c001516005811115611cd357611cd3612a44565b1480611cf4575060018160c001516005811115611cf257611cf2612a44565b145b611d295760405162461bcd60e51b815260206004820152600660248201526573746174757360d01b60448201526064016107c1565b6000611d498563ffffffff16836101400151611f0d90919063ffffffff16565b905060008111611d845760405162461bcd60e51b8152602060048201526006602482015265185b5bdd5b9d60d21b60448201526064016107c1565b610180820151516001600160a01b031615801590611dab5750600082610180015160200151115b15610bc0576101808201518051602090910151611dc9918991611658565b610bc05760405162461bcd60e51b81526020600482015260126024820152714e6f742070617373204558434c555349564560701b60448201526064016107c1565b6000546001600160a01b03163314611e345760405162461bcd60e51b81526004016107c1906128cc565b6001600160a01b038116611e995760405162461bcd60e51b815260206004820152602660248201527f4f776e61626c653a206e6577206f776e657220697320746865207a65726f206160448201526564647265737360d01b60648201526084016107c1565b611ea281611ebd565b50565b60006117b58284612a04565b60006117b5828461299f565b600080546001600160a01b038381166001600160a01b0319831681178455604051919092169283917f8be0079c531659141344cd1fd0a4f28419497f9722a3daafe3b4186f6b6457e09190a35050565b60006117b582846129b3565b8035611f2481612a86565b919050565b8051611f2481612a86565b600082601f830112611f4557600080fd5b81356020611f5a611f558361297c565b61294c565b80838252828201915082860187848660051b8901011115611f7a57600080fd5b60005b85811015611fa2578135611f9081612a86565b84529284019290840190600101611f7d565b5090979650505050505050565b600082601f830112611fc057600080fd5b81356020611fd0611f558361297c565b80838252828201915082860187848660051b8901011115611ff057600080fd5b60005b85811015611fa257813584529284019290840190600101611ff3565b600082601f83011261202057600080fd5b81516020612030611f558361297c565b80838252828201915082860187848660051b890101111561205057600080fd5b60005b85811015611fa257815184529284019290840190600101612053565b8035611f2481612aa9565b8051611f2481612aa9565b600082601f83011261209657600080fd5b81356001600160401b038111156120af576120af612a70565b6120c2601f8201601f191660200161294c565b8181528460208386010111156120d757600080fd5b816020850160208301376000918101602001919091529392505050565b60006040828403121561210657600080fd5b61210e612901565b9050813561211b81612a86565b808252506020820135602082015292915050565b60006040828403121561214157600080fd5b612149612901565b9050815161215681612a86565b808252506020820151602082015292915050565b6000610200828403121561217d57600080fd5b612185612929565b905061219082611f19565b815261219e60208301612297565b60208201526121af60408301611f19565b604082015260608201356001600160401b03808211156121ce57600080fd5b6121da85838601611faf565b606084015260808401359150808211156121f357600080fd5b5061220084828501611faf565b60808301525061221260a08301611f19565b60a082015261222360c0830161206f565b60c082015260e08281013590820152610100808301359082015261012080830135908201526101408083013590820152610160612261818401612297565b90820152610180612274848483016120f4565b81830152506101c0808301356101a08301526101e0830135818301525092915050565b8035611f2481612ab6565b8051611f2481612ab6565b803563ffffffff81168114611f2457600080fd5b6000602082840312156122d357600080fd5b81356117b581612a86565b6000602082840312156122f057600080fd5b81516117b581612a86565b6000806000806080858703121561231157600080fd5b843561231c81612a86565b9350602085013561232c81612a86565b925060408501356001600160401b038082111561234857600080fd5b61235488838901611faf565b9350606087013591508082111561236a57600080fd5b5061237787828801611faf565b91505092959194509250565b60008060006060848603121561239857600080fd5b83356123a381612a86565b925060208401356123b381612a86565b929592945050506040919091013590565b600080604083850312156123d757600080fd5b82356123e281612a86565b915060208301356123f281612a9b565b809150509250929050565b6000806040838503121561241057600080fd5b823561241b81612a86565b915060208301356001600160401b0381111561243657600080fd5b6124428582860161216a565b9150509250929050565b6000806000806080858703121561246257600080fd5b843561246d81612a86565b935060208501359250612482604086016122ad565b915060608501356001600160401b0381111561249d57600080fd5b61237787828801612085565b600080604083850312156124bc57600080fd5b82356001600160401b03808211156124d357600080fd5b6124df86838701611f34565b935060208501359150808211156124f557600080fd5b5061244285828601611faf565b6000806040838503121561251557600080fd5b82356001600160401b0381111561252b57600080fd5b61253785828601611f34565b92505060208301356123f281612a9b565b60006020828403121561255a57600080fd5b81516117b581612a9b565b6000806040838503121561257857600080fd5b823561258381612a86565b915060208301356123f281612a86565b6000602082840312156125a557600080fd5b81356001600160401b03808211156125bc57600080fd5b90830190606082860312156125d057600080fd5b6040516060810181811083821117156125eb576125eb612a70565b60405282356125f981612ab6565b815260208301358281111561260d57600080fd5b61261987828601612085565b60208301525060408301358281111561263157600080fd5b61263d87828601612085565b60408301525095945050505050565b60006020828403121561265e57600080fd5b81356001600160401b0381111561267457600080fd5b6126808482850161216a565b949350505050565b60006020828403121561269a57600080fd5b81516001600160401b03808211156126b157600080fd5b9083019061020082860312156126c657600080fd5b6126ce612929565b6126d783611f29565b81526126e5602084016122a2565b60208201526126f660408401611f29565b604082015260608301518281111561270d57600080fd5b6127198782860161200f565b60608301525060808301518281111561273157600080fd5b61273d8782860161200f565b60808301525061274f60a08401611f29565b60a082015261276060c0840161207a565b60c082015260e0838101519082015261010080840151908201526101208084015190820152610140808401519082015261016091506127a08284016122a2565b8282015261018091506127b58683850161212f565b828201526101c09150818301516101a08201526101e08301518282015280935050505092915050565b6000602082840312156127f057600080fd5b5035919050565b60006020828403121561280957600080fd5b5051919050565b60006020828403121561282257600080fd5b6117b5826122ad565b6000815180845260005b8181101561285157602081850181015186830182015201612835565b81811115612863576000602083870101525b50601f01601f19169290920160200192915050565b8215158152604060208201526000612680604083018461282b565b6020815260006117b5602083018461282b565b6020808252600c908201526b37b7363ca7b832b930ba37b960a11b604082015260600190565b6020808252818101527f4f776e61626c653a2063616c6c6572206973206e6f7420746865206f776e6572604082015260600190565b604080519081016001600160401b038111828210171561292357612923612a70565b60405290565b6040516101e081016001600160401b038111828210171561292357612923612a70565b604051601f8201601f191681016001600160401b038111828210171561297457612974612a70565b604052919050565b60006001600160401b0382111561299557612995612a70565b5060051b60200190565b6000826129ae576129ae612a2e565b500490565b60008160001904831182151516156129cd576129cd612a18565b500290565b6000828210156129e4576129e4612a18565b500390565b60006000198214156129fd576129fd612a18565b5060010190565b600082612a1357612a13612a2e565b500690565b634e487b7160e01b600052601160045260246000fd5b634e487b7160e01b600052601260045260246000fd5b634e487b7160e01b600052602160045260246000fd5b634e487b7160e01b600052603260045260246000fd5b634e487b7160e01b600052604160045260246000fd5b6001600160a01b0381168114611ea257600080fd5b8015158114611ea257600080fd5b60068110611ea257600080fd5b61ffff81168114611ea257600080fdfea2646970667358221220d328093c8392aea23e41b30917e39dfeef6312cf81dbd365873b2625cae87b3864736f6c63430008060033",
  "devdoc": {
    "kind": "dev",
    "methods": {
      "checkAcceptToken(address)": {
        "params": {
          "acceptToken": "token address, blockchain token is address(0)"
        },
        "returns": {
          "_0": "bool"
        }
      },
      "checkTokenListing(address,address,uint256[],uint256[])": {
        "params": {
          "addr": "NFT contract address",
          "amounts": "tokenId amount array (ERC721 can be null)",
          "tokenIds": "tokenId array"
        }
      },
      "getProtocolFee()": {
        "returns": {
          "_0": "fee (200 = 25%, 1,000 = 10%)"
        }
      },
      "owner()": {
        "details": "Returns the address of the current owner."
      },
      "renounceOwnership()": {
        "details": "Leaves the contract without owner. It will not be possible to call `onlyOwner` functions anymore. Can only be called by the current owner. NOTE: Renouncing ownership will leave the contract without an owner, thereby removing any functionality that is only available to the owner."
      },
      "setProtocolFee(uint256)": {
        "params": {
          "fee": "fee (500 = 5%, 1,000 = 10%)"
        }
      },
      "transferOwnership(address)": {
        "details": "Transfers ownership of the contract to a new account (`newOwner`). Can only be called by the current owner."
      }
    },
    "title": "Openluck LucksHelper.",
    "version": 1
  },
  "userdoc": {
    "kind": "user",
    "methods": {
      "checkAcceptToken(address)": {
        "notice": "check acceptToken support"
      },
      "checkNFTContract(address)": {
        "notice": "check nft contract, support erc721 & erc1155"
      },
      "checkNewTask(address,(address,uint16,address,uint256[],uint256[],address,uint8,uint256,uint256,uint256,uint256,uint16,(address,uint256),uint256,uint256))": {
        "notice": "check the new task inputs"
      },
      "checkTokenListing(address,address,uint256[],uint256[])": {
        "notice": "checking seller listing NFTs ownership and balance"
      },
      "getDrawDelay()": {
        "notice": "get Draw Delay second for security"
      },
      "getGROUPS()": {
        "notice": "get ILucksGroup instance  "
      },
      "getProtocolFee()": {
        "notice": "get protocol fee for eache success TaskItem payment, default is 2%"
      },
      "getSTRATEGY()": {
        "notice": "get ILucksPaymentStrategy instance  "
      },
      "getVRF()": {
        "notice": "get ILucksVRF instance  "
      },
      "setAcceptTokens(address[],bool)": {
        "notice": "set the acceptTokens"
      },
      "setDrawDelay(uint32)": {
        "notice": "set Draw Delay for security"
      },
      "setExecutor(address)": {
        "notice": "set operator"
      },
      "setJoinLimitNum(uint32)": {
        "notice": "set the set MAX_PER_JOIN_NUM"
      },
      "setLucksGroup(address)": {
        "notice": "set the LucksGroup"
      },
      "setLucksVRF(address)": {
        "notice": "set the VRF"
      },
      "setOperator(address,bool)": {
        "notice": "set operator"
      },
      "setPaymentStrategy(address)": {
        "notice": "set the PaymentStrategy"
      },
      "setProtocolFee(uint256)": {
        "notice": "set protocol fee for eache success TaskItem payment, default is 5%"
      },
      "setProtocolFeeRecipient(address)": {
        "notice": "set the ProtocolFeeRecipient"
      }
    },
    "notice": "It is the contract for protocol settings",
    "version": 1
  },
  "storageLayout": {
    "storage": [
      {
        "astId": 917,
        "contract": "contracts/lucks/LucksHelper.sol:LucksHelper",
        "label": "_owner",
        "offset": 0,
        "slot": "0",
        "type": "t_address"
      },
      {
        "astId": 13833,
        "contract": "contracts/lucks/LucksHelper.sol:LucksHelper",
        "label": "EXECUTOR",
        "offset": 0,
        "slot": "1",
        "type": "t_contract(ILucksExecutor)10522"
      },
      {
        "astId": 13836,
        "contract": "contracts/lucks/LucksHelper.sol:LucksHelper",
        "label": "VRF",
        "offset": 0,
        "slot": "2",
        "type": "t_contract(ILucksVRF)10894"
      },
      {
        "astId": 13839,
        "contract": "contracts/lucks/LucksHelper.sol:LucksHelper",
        "label": "GROUPS",
        "offset": 0,
        "slot": "3",
        "type": "t_contract(ILucksGroup)10576"
      },
      {
        "astId": 13842,
        "contract": "contracts/lucks/LucksHelper.sol:LucksHelper",
        "label": "STRATEGY",
        "offset": 0,
        "slot": "4",
        "type": "t_contract(ILucksPaymentStrategy)10781"
      },
      {
        "astId": 13845,
        "contract": "contracts/lucks/LucksHelper.sol:LucksHelper",
        "label": "AUTO_CLOSE",
        "offset": 0,
        "slot": "5",
        "type": "t_contract(ILucksAuto)10095"
      },
      {
        "astId": 13848,
        "contract": "contracts/lucks/LucksHelper.sol:LucksHelper",
        "label": "AUTO_DRAW",
        "offset": 0,
        "slot": "6",
        "type": "t_contract(ILucksAuto)10095"
      },
      {
        "astId": 13851,
        "contract": "contracts/lucks/LucksHelper.sol:LucksHelper",
        "label": "PUNKS",
        "offset": 0,
        "slot": "7",
        "type": "t_contract(IPunks)11095"
      },
      {
        "astId": 13854,
        "contract": "contracts/lucks/LucksHelper.sol:LucksHelper",
        "label": "PROXY_PUNKS",
        "offset": 0,
        "slot": "8",
        "type": "t_contract(IProxyNFTStation)11024"
      },
      {
        "astId": 13856,
        "contract": "contracts/lucks/LucksHelper.sol:LucksHelper",
        "label": "feeRecipient",
        "offset": 0,
        "slot": "9",
        "type": "t_address"
      },
      {
        "astId": 13859,
        "contract": "contracts/lucks/LucksHelper.sol:LucksHelper",
        "label": "MAX_PER_JOIN_NUM",
        "offset": 20,
        "slot": "9",
        "type": "t_uint32"
      },
      {
        "astId": 13862,
        "contract": "contracts/lucks/LucksHelper.sol:LucksHelper",
        "label": "DRAW_DELAY_SEC",
        "offset": 24,
        "slot": "9",
        "type": "t_uint32"
      },
      {
        "astId": 13865,
        "contract": "contracts/lucks/LucksHelper.sol:LucksHelper",
        "label": "protocolFee",
        "offset": 0,
        "slot": "10",
        "type": "t_uint256"
      },
      {
        "astId": 13869,
        "contract": "contracts/lucks/LucksHelper.sol:LucksHelper",
        "label": "operators",
        "offset": 0,
        "slot": "11",
        "type": "t_mapping(t_address,t_bool)"
      },
      {
        "astId": 13873,
        "contract": "contracts/lucks/LucksHelper.sol:LucksHelper",
        "label": "acceptTokens",
        "offset": 0,
        "slot": "12",
        "type": "t_mapping(t_address,t_bool)"
      },
      {
        "astId": 13877,
        "contract": "contracts/lucks/LucksHelper.sol:LucksHelper",
        "label": "minTargetAmount",
        "offset": 0,
        "slot": "13",
        "type": "t_mapping(t_address,t_uint256)"
      }
    ],
    "types": {
      "t_address": {
        "encoding": "inplace",
        "label": "address",
        "numberOfBytes": "20"
      },
      "t_bool": {
        "encoding": "inplace",
        "label": "bool",
        "numberOfBytes": "1"
      },
      "t_contract(ILucksAuto)10095": {
        "encoding": "inplace",
        "label": "contract ILucksAuto",
        "numberOfBytes": "20"
      },
      "t_contract(ILucksExecutor)10522": {
        "encoding": "inplace",
        "label": "contract ILucksExecutor",
        "numberOfBytes": "20"
      },
      "t_contract(ILucksGroup)10576": {
        "encoding": "inplace",
        "label": "contract ILucksGroup",
        "numberOfBytes": "20"
      },
      "t_contract(ILucksPaymentStrategy)10781": {
        "encoding": "inplace",
        "label": "contract ILucksPaymentStrategy",
        "numberOfBytes": "20"
      },
      "t_contract(ILucksVRF)10894": {
        "encoding": "inplace",
        "label": "contract ILucksVRF",
        "numberOfBytes": "20"
      },
      "t_contract(IProxyNFTStation)11024": {
        "encoding": "inplace",
        "label": "contract IProxyNFTStation",
        "numberOfBytes": "20"
      },
      "t_contract(IPunks)11095": {
        "encoding": "inplace",
        "label": "contract IPunks",
        "numberOfBytes": "20"
      },
      "t_mapping(t_address,t_bool)": {
        "encoding": "mapping",
        "key": "t_address",
        "label": "mapping(address => bool)",
        "numberOfBytes": "32",
        "value": "t_bool"
      },
      "t_mapping(t_address,t_uint256)": {
        "encoding": "mapping",
        "key": "t_address",
        "label": "mapping(address => uint256)",
        "numberOfBytes": "32",
        "value": "t_uint256"
      },
      "t_uint256": {
        "encoding": "inplace",
        "label": "uint256",
        "numberOfBytes": "32"
      },
      "t_uint32": {
        "encoding": "inplace",
        "label": "uint32",
        "numberOfBytes": "4"
      }
    }
  }
}