{
  "address": "0xa7A53a88B457e94ffd5b5fA21326603746dd6FDB",
  "abi": [
    {
      "inputs": [
        {
          "internalType": "address",
          "name": "mintTo",
          "type": "address"
        },
        {
          "internalType": "uint256",
          "name": "num",
          "type": "uint256"
        }
      ],
      "stateMutability": "nonpayable",
      "type": "constructor"
    },
    {
      "anonymous": false,
      "inputs": [
        {
          "indexed": true,
          "internalType": "address",
          "name": "owner",
          "type": "address"
        },
        {
          "indexed": true,
          "internalType": "address",
          "name": "approved",
          "type": "address"
        },
        {
          "indexed": true,
          "internalType": "uint256",
          "name": "tokenId",
          "type": "uint256"
        }
      ],
      "name": "Approval",
      "type": "event"
    },
    {
      "anonymous": false,
      "inputs": [
        {
          "indexed": true,
          "internalType": "address",
          "name": "owner",
          "type": "address"
        },
        {
          "indexed": true,
          "internalType": "address",
          "name": "operator",
          "type": "address"
        },
        {
          "indexed": false,
          "internalType": "bool",
          "name": "approved",
          "type": "bool"
        }
      ],
      "name": "ApprovalForAll",
      "type": "event"
    },
    {
      "anonymous": false,
      "inputs": [
        {
          "indexed": true,
          "internalType": "address",
          "name": "previousOwner",
          "type": "address"
        },
        {
          "indexed": true,
          "internalType": "address",
          "name": "newOwner",
          "type": "address"
        }
      ],
      "name": "OwnershipTransferred",
      "type": "event"
    },
    {
      "anonymous": false,
      "inputs": [
        {
          "indexed": true,
          "internalType": "address",
          "name": "from",
          "type": "address"
        },
        {
          "indexed": true,
          "internalType": "address",
          "name": "to",
          "type": "address"
        },
        {
          "indexed": true,
          "internalType": "uint256",
          "name": "tokenId",
          "type": "uint256"
        }
      ],
      "name": "Transfer",
      "type": "event"
    },
    {
      "inputs": [
        {
          "internalType": "address",
          "name": "to",
          "type": "address"
        },
        {
          "internalType": "uint256",
          "name": "tokenId",
          "type": "uint256"
        }
      ],
      "name": "approve",
      "outputs": [],
      "stateMutability": "nonpayable",
      "type": "function"
    },
    {
      "inputs": [
        {
          "internalType": "address",
          "name": "owner",
          "type": "address"
        }
      ],
      "name": "balanceOf",
      "outputs": [
        {
          "internalType": "uint256",
          "name": "",
          "type": "uint256"
        }
      ],
      "stateMutability": "view",
      "type": "function"
    },
    {
      "inputs": [],
      "name": "baseURI",
      "outputs": [
        {
          "internalType": "string",
          "name": "",
          "type": "string"
        }
      ],
      "stateMutability": "view",
      "type": "function"
    },
    {
      "inputs": [
        {
          "internalType": "uint256",
          "name": "tokenId",
          "type": "uint256"
        }
      ],
      "name": "getApproved",
      "outputs": [
        {
          "internalType": "address",
          "name": "",
          "type": "address"
        }
      ],
      "stateMutability": "view",
      "type": "function"
    },
    {
      "inputs": [
        {
          "internalType": "address",
          "name": "owner",
          "type": "address"
        },
        {
          "internalType": "address",
          "name": "operator",
          "type": "address"
        }
      ],
      "name": "isApprovedForAll",
      "outputs": [
        {
          "internalType": "bool",
          "name": "",
          "type": "bool"
        }
      ],
      "stateMutability": "view",
      "type": "function"
    },
    {
      "inputs": [
        {
          "internalType": "address",
          "name": "to",
          "type": "address"
        },
        {
          "internalType": "uint256",
          "name": "num",
          "type": "uint256"
        }
      ],
      "name": "mint",
      "outputs": [],
      "stateMutability": "nonpayable",
      "type": "function"
    },
    {
      "inputs": [],
      "name": "name",
      "outputs": [
        {
          "internalType": "string",
          "name": "",
          "type": "string"
        }
      ],
      "stateMutability": "view",
      "type": "function"
    },
    {
      "inputs": [],
      "name": "owner",
      "outputs": [
        {
          "internalType": "address",
          "name": "",
          "type": "address"
        }
      ],
      "stateMutability": "view",
      "type": "function"
    },
    {
      "inputs": [
        {
          "internalType": "uint256",
          "name": "tokenId",
          "type": "uint256"
        }
      ],
      "name": "ownerOf",
      "outputs": [
        {
          "internalType": "address",
          "name": "",
          "type": "address"
        }
      ],
      "stateMutability": "view",
      "type": "function"
    },
    {
      "inputs": [],
      "name": "renounceOwnership",
      "outputs": [],
      "stateMutability": "nonpayable",
      "type": "function"
    },
    {
      "inputs": [
        {
          "internalType": "address",
          "name": "to",
          "type": "address"
        }
      ],
      "name": "safeMint",
      "outputs": [],
      "stateMutability": "nonpayable",
      "type": "function"
    },
    {
      "inputs": [
        {
          "internalType": "address",
          "name": "from",
          "type": "address"
        },
        {
          "internalType": "address",
          "name": "to",
          "type": "address"
        },
        {
          "internalType": "uint256",
          "name": "tokenId",
          "type": "uint256"
        }
      ],
      "name": "safeTransferFrom",
      "outputs": [],
      "stateMutability": "nonpayable",
      "type": "function"
    },
    {
      "inputs": [
        {
          "internalType": "address",
          "name": "from",
          "type": "address"
        },
        {
          "internalType": "address",
          "name": "to",
          "type": "address"
        },
        {
          "internalType": "uint256",
          "name": "tokenId",
          "type": "uint256"
        },
        {
          "internalType": "bytes",
          "name": "_data",
          "type": "bytes"
        }
      ],
      "name": "safeTransferFrom",
      "outputs": [],
      "stateMutability": "nonpayable",
      "type": "function"
    },
    {
      "inputs": [
        {
          "internalType": "address",
          "name": "operator",
          "type": "address"
        },
        {
          "internalType": "bool",
          "name": "approved",
          "type": "bool"
        }
      ],
      "name": "setApprovalForAll",
      "outputs": [],
      "stateMutability": "nonpayable",
      "type": "function"
    },
    {
      "inputs": [
        {
          "internalType": "bytes4",
          "name": "interfaceId",
          "type": "bytes4"
        }
      ],
      "name": "supportsInterface",
      "outputs": [
        {
          "internalType": "bool",
          "name": "",
          "type": "bool"
        }
      ],
      "stateMutability": "view",
      "type": "function"
    },
    {
      "inputs": [],
      "name": "symbol",
      "outputs": [
        {
          "internalType": "string",
          "name": "",
          "type": "string"
        }
      ],
      "stateMutability": "view",
      "type": "function"
    },
    {
      "inputs": [
        {
          "internalType": "uint256",
          "name": "tokenId",
          "type": "uint256"
        }
      ],
      "name": "tokenURI",
      "outputs": [
        {
          "internalType": "string",
          "name": "",
          "type": "string"
        }
      ],
      "stateMutability": "view",
      "type": "function"
    },
    {
      "inputs": [],
      "name": "totalSupply",
      "outputs": [
        {
          "internalType": "uint256",
          "name": "",
          "type": "uint256"
        }
      ],
      "stateMutability": "view",
      "type": "function"
    },
    {
      "inputs": [
        {
          "internalType": "address",
          "name": "from",
          "type": "address"
        },
        {
          "internalType": "address",
          "name": "to",
          "type": "address"
        },
        {
          "internalType": "uint256",
          "name": "tokenId",
          "type": "uint256"
        }
      ],
      "name": "transferFrom",
      "outputs": [],
      "stateMutability": "nonpayable",
      "type": "function"
    },
    {
      "inputs": [
        {
          "internalType": "address",
          "name": "newOwner",
          "type": "address"
        }
      ],
      "name": "transferOwnership",
      "outputs": [],
      "stateMutability": "nonpayable",
      "type": "function"
    }
  ],
  "transactionHash": "0xe1b89f72669bff5310e6e6641e4bc3be3e50cee2843ba2e5818bd89ace6d753c",
  "args": [
    "0x18a6AaEBc4B2C796a51bce7FDd66938cAd6Aa4Ab",
    6
  ],
  "numDeployments": 1,
  "solcInputHash": "70231f361b17e0bcfd950564ac90e3b4",
  "bytecode": "0x60e06040526036608081815290620027df60a0398051620000299160089160209091019062000525565b503480156200003757600080fd5b5060405162002815380380620028158339810160408190526200005a91620005cb565b60408051808201825260118152702137b932b220b832acb0b1b43a21b63ab160791b6020808301918252835180850190945260048452634241594360e01b908401528151919291620000af9160009162000525565b508051620000c590600190602084019062000525565b505050620000e2620000dc620000f660201b60201c565b620000fa565b620000ee82826200014c565b505062000741565b3390565b600680546001600160a01b038381166001600160a01b0319831681179093556040519116919082907f8be0079c531659141344cd1fd0a4f28419497f9722a3daafe3b4186f6b6457e090600090a35050565b60005b81811015620001785762000163836200017d565b806200016f816200070d565b9150506200014f565b505050565b620001946007620001bf60201b62000d991760201c565b6000620001ad6007620001c860201b62000da21760201c565b9050620001bb8282620001cc565b5050565b80546001019055565b5490565b620001bb828260405180602001604052806000815250620001ee60201b60201c565b620001fa838362000265565b620002096000848484620003ad565b620001785760405162461bcd60e51b81526020600482015260326024820152600080516020620027bf83398151915260448201527131b2b4bb32b91034b6b83632b6b2b73a32b960711b60648201526084015b60405180910390fd5b6001600160a01b038216620002bd5760405162461bcd60e51b815260206004820181905260248201527f4552433732313a206d696e7420746f20746865207a65726f206164647265737360448201526064016200025c565b6000818152600260205260409020546001600160a01b031615620003245760405162461bcd60e51b815260206004820152601c60248201527f4552433732313a20746f6b656e20616c7265616479206d696e7465640000000060448201526064016200025c565b6001600160a01b03821660009081526003602052604081208054600192906200034f908490620006b5565b909155505060008181526002602052604080822080546001600160a01b0319166001600160a01b03861690811790915590518392907fddf252ad1be2c89b69c2b068fc378daa952ba7f163c4a11628f55a4df523b3ef908290a45050565b6000620003ce846001600160a01b03166200051660201b62000da61760201c565b156200050a57604051630a85bd0160e11b81526001600160a01b0385169063150b7a0290620004089033908990889088906004016200063a565b602060405180830381600087803b1580156200042357600080fd5b505af192505050801562000456575060408051601f3d908101601f19168201909252620004539181019062000607565b60015b620004ef573d80801562000487576040519150601f19603f3d011682016040523d82523d6000602084013e6200048c565b606091505b508051620004e75760405162461bcd60e51b81526020600482015260326024820152600080516020620027bf83398151915260448201527131b2b4bb32b91034b6b83632b6b2b73a32b960711b60648201526084016200025c565b805181602001fd5b6001600160e01b031916630a85bd0160e11b1490506200050e565b5060015b949350505050565b6001600160a01b03163b151590565b8280546200053390620006d0565b90600052602060002090601f016020900481019282620005575760008555620005a2565b82601f106200057257805160ff1916838001178555620005a2565b82800160010185558215620005a2579182015b82811115620005a257825182559160200191906001019062000585565b50620005b0929150620005b4565b5090565b5b80821115620005b05760008155600101620005b5565b60008060408385031215620005df57600080fd5b82516001600160a01b0381168114620005f757600080fd5b6020939093015192949293505050565b6000602082840312156200061a57600080fd5b81516001600160e01b0319811681146200063357600080fd5b9392505050565b600060018060a01b038087168352602081871681850152856040850152608060608501528451915081608085015260005b82811015620006895785810182015185820160a0015281016200066b565b828111156200069c57600060a084870101525b5050601f01601f19169190910160a00195945050505050565b60008219821115620006cb57620006cb6200072b565b500190565b600181811c90821680620006e557607f821691505b602082108114156200070757634e487b7160e01b600052602260045260246000fd5b50919050565b60006000198214156200072457620007246200072b565b5060010190565b634e487b7160e01b600052601160045260246000fd5b61206e80620007516000396000f3fe608060405234801561001057600080fd5b506004361061016c5760003560e01c80636c0360eb116100cd578063a22cb46511610081578063c87b56dd11610066578063c87b56dd146102df578063e985e9c5146102f2578063f2fde38b1461033b57600080fd5b8063a22cb465146102b9578063b88d4fde146102cc57600080fd5b8063715018a6116100b2578063715018a61461028b5780638da5cb5b1461029357806395d89b41146102b157600080fd5b80636c0360eb1461027057806370a082311461027857600080fd5b806323b872dd1161012457806340d097c31161010957806340d097c31461023757806342842e0e1461024a5780636352211e1461025d57600080fd5b806323b872dd1461021157806340c10f191461022457600080fd5b8063081812fc11610155578063081812fc146101ae578063095ea7b3146101e657806318160ddd146101fb57600080fd5b806301ffc9a71461017157806306fdde0314610199575b600080fd5b61018461017f366004611c4b565b61034e565b60405190151581526020015b60405180910390f35b6101a1610433565b6040516101909190611e2b565b6101c16101bc366004611c85565b6104c5565b60405173ffffffffffffffffffffffffffffffffffffffff9091168152602001610190565b6101f96101f4366004611c21565b6105a4565b005b610203610731565b604051908152602001610190565b6101f961021f366004611aaf565b610741565b6101f9610232366004611c21565b6107e2565b6101f9610245366004611a5a565b610808565b6101f9610258366004611aaf565b610831565b6101c161026b366004611c85565b61084c565b6101a16108fe565b610203610286366004611a5a565b61098c565b6101f9610a5a565b60065473ffffffffffffffffffffffffffffffffffffffff166101c1565b6101a1610ae7565b6101f96102c7366004611be5565b610af6565b6101f96102da366004611aeb565b610b01565b6101a16102ed366004611c85565b610ba9565b610184610300366004611a7c565b73ffffffffffffffffffffffffffffffffffffffff918216600090815260056020908152604080832093909416825291909152205460ff1690565b6101f9610349366004611a5a565b610c69565b60007fffffffff0000000000000000000000000000000000000000000000000000000082167f80ac58cd0000000000000000000000000000000000000000000000000000000014806103e157507fffffffff0000000000000000000000000000000000000000000000000000000082167f5b5e139f00000000000000000000000000000000000000000000000000000000145b8061042d57507f01ffc9a7000000000000000000000000000000000000000000000000000000007fffffffff000000000000000000000000000000000000000000000000000000008316145b92915050565b60606000805461044290611ead565b80601f016020809104026020016040519081016040528092919081815260200182805461046e90611ead565b80156104bb5780601f10610490576101008083540402835291602001916104bb565b820191906000526020600020905b81548152906001019060200180831161049e57829003601f168201915b5050505050905090565b60008181526002602052604081205473ffffffffffffffffffffffffffffffffffffffff1661057b576040517f08c379a000000000000000000000000000000000000000000000000000000000815260206004820152602c60248201527f4552433732313a20617070726f76656420717565727920666f72206e6f6e657860448201527f697374656e7420746f6b656e000000000000000000000000000000000000000060648201526084015b60405180910390fd5b5060009081526004602052604090205473ffffffffffffffffffffffffffffffffffffffff1690565b60006105af8261084c565b90508073ffffffffffffffffffffffffffffffffffffffff168373ffffffffffffffffffffffffffffffffffffffff16141561066d576040517f08c379a000000000000000000000000000000000000000000000000000000000815260206004820152602160248201527f4552433732313a20617070726f76616c20746f2063757272656e74206f776e6560448201527f72000000000000000000000000000000000000000000000000000000000000006064820152608401610572565b3373ffffffffffffffffffffffffffffffffffffffff8216148061069657506106968133610300565b610722576040517f08c379a000000000000000000000000000000000000000000000000000000000815260206004820152603860248201527f4552433732313a20617070726f76652063616c6c6572206973206e6f74206f7760448201527f6e6572206e6f7220617070726f76656420666f7220616c6c00000000000000006064820152608401610572565b61072c8383610dc2565b505050565b600061073c60075490565b905090565b61074b3382610e62565b6107d7576040517f08c379a000000000000000000000000000000000000000000000000000000000815260206004820152603160248201527f4552433732313a207472616e736665722063616c6c6572206973206e6f74206f60448201527f776e6572206e6f7220617070726f7665640000000000000000000000000000006064820152608401610572565b61072c838383610fd2565b60005b8181101561072c576107f683610808565b8061080081611f01565b9150506107e5565b610816600780546001019055565b600061082160075490565b905061082d8282611239565b5050565b61072c83838360405180602001604052806000815250610b01565b60008181526002602052604081205473ffffffffffffffffffffffffffffffffffffffff168061042d576040517f08c379a000000000000000000000000000000000000000000000000000000000815260206004820152602960248201527f4552433732313a206f776e657220717565727920666f72206e6f6e657869737460448201527f656e7420746f6b656e00000000000000000000000000000000000000000000006064820152608401610572565b6008805461090b90611ead565b80601f016020809104026020016040519081016040528092919081815260200182805461093790611ead565b80156109845780601f1061095957610100808354040283529160200191610984565b820191906000526020600020905b81548152906001019060200180831161096757829003601f168201915b505050505081565b600073ffffffffffffffffffffffffffffffffffffffff8216610a31576040517f08c379a000000000000000000000000000000000000000000000000000000000815260206004820152602a60248201527f4552433732313a2062616c616e636520717565727920666f7220746865207a6560448201527f726f2061646472657373000000000000000000000000000000000000000000006064820152608401610572565b5073ffffffffffffffffffffffffffffffffffffffff1660009081526003602052604090205490565b60065473ffffffffffffffffffffffffffffffffffffffff163314610adb576040517f08c379a000000000000000000000000000000000000000000000000000000000815260206004820181905260248201527f4f776e61626c653a2063616c6c6572206973206e6f7420746865206f776e65726044820152606401610572565b610ae56000611253565b565b60606001805461044290611ead565b61082d3383836112ca565b610b0b3383610e62565b610b97576040517f08c379a000000000000000000000000000000000000000000000000000000000815260206004820152603160248201527f4552433732313a207472616e736665722063616c6c6572206973206e6f74206f60448201527f776e6572206e6f7220617070726f7665640000000000000000000000000000006064820152608401610572565b610ba3848484846113f8565b50505050565b60008181526002602052604090205460609073ffffffffffffffffffffffffffffffffffffffff16610c37576040517f08c379a000000000000000000000000000000000000000000000000000000000815260206004820152601160248201527f4e6f6e6578697374656e7420746f6b656e0000000000000000000000000000006044820152606401610572565b6008610c428361149b565b604051602001610c53929190611d04565b6040516020818303038152906040529050919050565b60065473ffffffffffffffffffffffffffffffffffffffff163314610cea576040517f08c379a000000000000000000000000000000000000000000000000000000000815260206004820181905260248201527f4f776e61626c653a2063616c6c6572206973206e6f7420746865206f776e65726044820152606401610572565b73ffffffffffffffffffffffffffffffffffffffff8116610d8d576040517f08c379a000000000000000000000000000000000000000000000000000000000815260206004820152602660248201527f4f776e61626c653a206e6577206f776e657220697320746865207a65726f206160448201527f64647265737300000000000000000000000000000000000000000000000000006064820152608401610572565b610d9681611253565b50565b80546001019055565b5490565b73ffffffffffffffffffffffffffffffffffffffff163b151590565b600081815260046020526040902080547fffffffffffffffffffffffff00000000000000000000000000000000000000001673ffffffffffffffffffffffffffffffffffffffff84169081179091558190610e1c8261084c565b73ffffffffffffffffffffffffffffffffffffffff167f8c5be1e5ebec7d5bd14f71427d1e84f3dd0314c0f7b2291e5b200ac8c7c3b92560405160405180910390a45050565b60008181526002602052604081205473ffffffffffffffffffffffffffffffffffffffff16610f13576040517f08c379a000000000000000000000000000000000000000000000000000000000815260206004820152602c60248201527f4552433732313a206f70657261746f7220717565727920666f72206e6f6e657860448201527f697374656e7420746f6b656e00000000000000000000000000000000000000006064820152608401610572565b6000610f1e8361084c565b90508073ffffffffffffffffffffffffffffffffffffffff168473ffffffffffffffffffffffffffffffffffffffff161480610f8d57508373ffffffffffffffffffffffffffffffffffffffff16610f75846104c5565b73ffffffffffffffffffffffffffffffffffffffff16145b80610fca575073ffffffffffffffffffffffffffffffffffffffff80821660009081526005602090815260408083209388168352929052205460ff165b949350505050565b8273ffffffffffffffffffffffffffffffffffffffff16610ff28261084c565b73ffffffffffffffffffffffffffffffffffffffff1614611095576040517f08c379a000000000000000000000000000000000000000000000000000000000815260206004820152602560248201527f4552433732313a207472616e736665722066726f6d20696e636f72726563742060448201527f6f776e65720000000000000000000000000000000000000000000000000000006064820152608401610572565b73ffffffffffffffffffffffffffffffffffffffff8216611137576040517f08c379a0000000000000000000000000000000000000000000000000000000008152602060048201526024808201527f4552433732313a207472616e7366657220746f20746865207a65726f2061646460448201527f72657373000000000000000000000000000000000000000000000000000000006064820152608401610572565b611142600082610dc2565b73ffffffffffffffffffffffffffffffffffffffff83166000908152600360205260408120805460019290611178908490611e6a565b909155505073ffffffffffffffffffffffffffffffffffffffff821660009081526003602052604081208054600192906111b3908490611e3e565b909155505060008181526002602052604080822080547fffffffffffffffffffffffff00000000000000000000000000000000000000001673ffffffffffffffffffffffffffffffffffffffff86811691821790925591518493918716917fddf252ad1be2c89b69c2b068fc378daa952ba7f163c4a11628f55a4df523b3ef91a4505050565b61082d8282604051806020016040528060008152506115cd565b6006805473ffffffffffffffffffffffffffffffffffffffff8381167fffffffffffffffffffffffff0000000000000000000000000000000000000000831681179093556040519116919082907f8be0079c531659141344cd1fd0a4f28419497f9722a3daafe3b4186f6b6457e090600090a35050565b8173ffffffffffffffffffffffffffffffffffffffff168373ffffffffffffffffffffffffffffffffffffffff161415611360576040517f08c379a000000000000000000000000000000000000000000000000000000000815260206004820152601960248201527f4552433732313a20617070726f766520746f2063616c6c6572000000000000006044820152606401610572565b73ffffffffffffffffffffffffffffffffffffffff83811660008181526005602090815260408083209487168084529482529182902080547fffffffffffffffffffffffffffffffffffffffffffffffffffffffffffffff001686151590811790915591519182527f17307eab39ab6107e8899845ad3d59bd9653f200f220920489ca2b5937696c31910160405180910390a3505050565b611403848484610fd2565b61140f84848484611670565b610ba3576040517f08c379a000000000000000000000000000000000000000000000000000000000815260206004820152603260248201527f4552433732313a207472616e7366657220746f206e6f6e20455243373231526560448201527f63656976657220696d706c656d656e74657200000000000000000000000000006064820152608401610572565b6060816114db57505060408051808201909152600181527f3000000000000000000000000000000000000000000000000000000000000000602082015290565b8160005b811561150557806114ef81611f01565b91506114fe9050600a83611e56565b91506114df565b60008167ffffffffffffffff81111561152057611520611fdb565b6040519080825280601f01601f19166020018201604052801561154a576020820181803683370190505b5090505b8415610fca5761155f600183611e6a565b915061156c600a86611f3a565b611577906030611e3e565b60f81b81838151811061158c5761158c611fac565b60200101907effffffffffffffffffffffffffffffffffffffffffffffffffffffffffffff1916908160001a9053506115c6600a86611e56565b945061154e565b6115d7838361186f565b6115e46000848484611670565b61072c576040517f08c379a000000000000000000000000000000000000000000000000000000000815260206004820152603260248201527f4552433732313a207472616e7366657220746f206e6f6e20455243373231526560448201527f63656976657220696d706c656d656e74657200000000000000000000000000006064820152608401610572565b600073ffffffffffffffffffffffffffffffffffffffff84163b15611864576040517f150b7a0200000000000000000000000000000000000000000000000000000000815273ffffffffffffffffffffffffffffffffffffffff85169063150b7a02906116e7903390899088908890600401611de2565b602060405180830381600087803b15801561170157600080fd5b505af192505050801561174f575060408051601f3d9081017fffffffffffffffffffffffffffffffffffffffffffffffffffffffffffffffe016820190925261174c91810190611c68565b60015b611819573d80801561177d576040519150601f19603f3d011682016040523d82523d6000602084013e611782565b606091505b508051611811576040517f08c379a000000000000000000000000000000000000000000000000000000000815260206004820152603260248201527f4552433732313a207472616e7366657220746f206e6f6e20455243373231526560448201527f63656976657220696d706c656d656e74657200000000000000000000000000006064820152608401610572565b805181602001fd5b7fffffffff00000000000000000000000000000000000000000000000000000000167f150b7a0200000000000000000000000000000000000000000000000000000000149050610fca565b506001949350505050565b73ffffffffffffffffffffffffffffffffffffffff82166118ec576040517f08c379a000000000000000000000000000000000000000000000000000000000815260206004820181905260248201527f4552433732313a206d696e7420746f20746865207a65726f20616464726573736044820152606401610572565b60008181526002602052604090205473ffffffffffffffffffffffffffffffffffffffff1615611978576040517f08c379a000000000000000000000000000000000000000000000000000000000815260206004820152601c60248201527f4552433732313a20746f6b656e20616c7265616479206d696e746564000000006044820152606401610572565b73ffffffffffffffffffffffffffffffffffffffff821660009081526003602052604081208054600192906119ae908490611e3e565b909155505060008181526002602052604080822080547fffffffffffffffffffffffff00000000000000000000000000000000000000001673ffffffffffffffffffffffffffffffffffffffff861690811790915590518392907fddf252ad1be2c89b69c2b068fc378daa952ba7f163c4a11628f55a4df523b3ef908290a45050565b803573ffffffffffffffffffffffffffffffffffffffff81168114611a5557600080fd5b919050565b600060208284031215611a6c57600080fd5b611a7582611a31565b9392505050565b60008060408385031215611a8f57600080fd5b611a9883611a31565b9150611aa660208401611a31565b90509250929050565b600080600060608486031215611ac457600080fd5b611acd84611a31565b9250611adb60208501611a31565b9150604084013590509250925092565b60008060008060808587031215611b0157600080fd5b611b0a85611a31565b9350611b1860208601611a31565b925060408501359150606085013567ffffffffffffffff80821115611b3c57600080fd5b818701915087601f830112611b5057600080fd5b813581811115611b6257611b62611fdb565b604051601f82017fffffffffffffffffffffffffffffffffffffffffffffffffffffffffffffffe0908116603f01168101908382118183101715611ba857611ba8611fdb565b816040528281528a6020848701011115611bc157600080fd5b82602086016020830137600060208483010152809550505050505092959194509250565b60008060408385031215611bf857600080fd5b611c0183611a31565b915060208301358015158114611c1657600080fd5b809150509250929050565b60008060408385031215611c3457600080fd5b611c3d83611a31565b946020939093013593505050565b600060208284031215611c5d57600080fd5b8135611a758161200a565b600060208284031215611c7a57600080fd5b8151611a758161200a565b600060208284031215611c9757600080fd5b5035919050565b60008151808452611cb6816020860160208601611e81565b601f017fffffffffffffffffffffffffffffffffffffffffffffffffffffffffffffffe0169290920160200192915050565b60008151611cfa818560208601611e81565b9290920192915050565b600080845481600182811c915080831680611d2057607f831692505b6020808410821415611d59577f4e487b710000000000000000000000000000000000000000000000000000000086526022600452602486fd5b818015611d6d5760018114611d9c57611dc9565b7fffffffffffffffffffffffffffffffffffffffffffffffffffffffffffffff00861689528489019650611dc9565b60008b81526020902060005b86811015611dc15781548b820152908501908301611da8565b505084890196505b505050505050611dd98185611ce8565b95945050505050565b600073ffffffffffffffffffffffffffffffffffffffff808716835280861660208401525083604083015260806060830152611e216080830184611c9e565b9695505050505050565b602081526000611a756020830184611c9e565b60008219821115611e5157611e51611f4e565b500190565b600082611e6557611e65611f7d565b500490565b600082821015611e7c57611e7c611f4e565b500390565b60005b83811015611e9c578181015183820152602001611e84565b83811115610ba35750506000910152565b600181811c90821680611ec157607f821691505b60208210811415611efb577f4e487b7100000000000000000000000000000000000000000000000000000000600052602260045260246000fd5b50919050565b60007fffffffffffffffffffffffffffffffffffffffffffffffffffffffffffffffff821415611f3357611f33611f4e565b5060010190565b600082611f4957611f49611f7d565b500690565b7f4e487b7100000000000000000000000000000000000000000000000000000000600052601160045260246000fd5b7f4e487b7100000000000000000000000000000000000000000000000000000000600052601260045260246000fd5b7f4e487b7100000000000000000000000000000000000000000000000000000000600052603260045260246000fd5b7f4e487b7100000000000000000000000000000000000000000000000000000000600052604160045260246000fd5b7fffffffff0000000000000000000000000000000000000000000000000000000081168114610d9657600080fdfea264697066735822122040f35f01f1a09a5d21a2703d6823d4f21afbd6da94d1ffb07bb967ba1861a1ae64736f6c634300080600334552433732313a207472616e7366657220746f206e6f6e204552433732315265697066733a2f2f516d65536a53696e4870506e6d586d73704d6a776958794e367a533445397a63636172694752336a7863615774712f",
  "devdoc": {
    "kind": "dev",
    "methods": {
      "approve(address,uint256)": {
        "details": "See {IERC721-approve}."
      },
      "balanceOf(address)": {
        "details": "See {IERC721-balanceOf}."
      },
      "getApproved(uint256)": {
        "details": "See {IERC721-getApproved}."
      },
      "isApprovedForAll(address,address)": {
        "details": "See {IERC721-isApprovedForAll}."
      },
      "name()": {
        "details": "See {IERC721Metadata-name}."
      },
      "owner()": {
        "details": "Returns the address of the current owner."
      },
      "ownerOf(uint256)": {
        "details": "See {IERC721-ownerOf}."
      },
      "renounceOwnership()": {
        "details": "Leaves the contract without owner. It will not be possible to call `onlyOwner` functions anymore. Can only be called by the current owner. NOTE: Renouncing ownership will leave the contract without an owner, thereby removing any functionality that is only available to the owner."
      },
      "safeTransferFrom(address,address,uint256)": {
        "details": "See {IERC721-safeTransferFrom}."
      },
      "safeTransferFrom(address,address,uint256,bytes)": {
        "details": "See {IERC721-safeTransferFrom}."
      },
      "setApprovalForAll(address,bool)": {
        "details": "See {IERC721-setApprovalForAll}."
      },
      "supportsInterface(bytes4)": {
        "details": "See {IERC165-supportsInterface}."
      },
      "symbol()": {
        "details": "See {IERC721Metadata-symbol}."
      },
      "tokenURI(uint256)": {
        "details": "See {IERC721Metadata-tokenURI}."
      },
      "transferFrom(address,address,uint256)": {
        "details": "See {IERC721-transferFrom}."
      },
      "transferOwnership(address)": {
        "details": "Transfers ownership of the contract to a new account (`newOwner`). Can only be called by the current owner."
      }
    },
    "version": 1
  },
  "userdoc": {
    "kind": "user",
    "methods": {},
    "version": 1
  },
  "storageLayout": {
    "storage": [
      {
        "astId": 2836,
        "contract": "contracts/tests/NFTs-ETH/EthBoredApeYachtClub.sol:EthBoredApeYachtClub",
        "label": "_name",
        "offset": 0,
        "slot": "0",
        "type": "t_string_storage"
      },
      {
        "astId": 2838,
        "contract": "contracts/tests/NFTs-ETH/EthBoredApeYachtClub.sol:EthBoredApeYachtClub",
        "label": "_symbol",
        "offset": 0,
        "slot": "1",
        "type": "t_string_storage"
      },
      {
        "astId": 2842,
        "contract": "contracts/tests/NFTs-ETH/EthBoredApeYachtClub.sol:EthBoredApeYachtClub",
        "label": "_owners",
        "offset": 0,
        "slot": "2",
        "type": "t_mapping(t_uint256,t_address)"
      },
      {
        "astId": 2846,
        "contract": "contracts/tests/NFTs-ETH/EthBoredApeYachtClub.sol:EthBoredApeYachtClub",
        "label": "_balances",
        "offset": 0,
        "slot": "3",
        "type": "t_mapping(t_address,t_uint256)"
      },
      {
        "astId": 2850,
        "contract": "contracts/tests/NFTs-ETH/EthBoredApeYachtClub.sol:EthBoredApeYachtClub",
        "label": "_tokenApprovals",
        "offset": 0,
        "slot": "4",
        "type": "t_mapping(t_uint256,t_address)"
      },
      {
        "astId": 2856,
        "contract": "contracts/tests/NFTs-ETH/EthBoredApeYachtClub.sol:EthBoredApeYachtClub",
        "label": "_operatorApprovals",
        "offset": 0,
        "slot": "5",
        "type": "t_mapping(t_address,t_mapping(t_address,t_bool))"
      },
      {
        "astId": 307,
        "contract": "contracts/tests/NFTs-ETH/EthBoredApeYachtClub.sol:EthBoredApeYachtClub",
        "label": "_owner",
        "offset": 0,
        "slot": "6",
        "type": "t_address"
      },
      {
        "astId": 17131,
        "contract": "contracts/tests/NFTs-ETH/EthBoredApeYachtClub.sol:EthBoredApeYachtClub",
        "label": "_tokenIdCounter",
        "offset": 0,
        "slot": "7",
        "type": "t_struct(Counter)4272_storage"
      },
      {
        "astId": 17134,
        "contract": "contracts/tests/NFTs-ETH/EthBoredApeYachtClub.sol:EthBoredApeYachtClub",
        "label": "baseURI",
        "offset": 0,
        "slot": "8",
        "type": "t_string_storage"
      }
    ],
    "types": {
      "t_address": {
        "encoding": "inplace",
        "label": "address",
        "numberOfBytes": "20"
      },
      "t_bool": {
        "encoding": "inplace",
        "label": "bool",
        "numberOfBytes": "1"
      },
      "t_mapping(t_address,t_bool)": {
        "encoding": "mapping",
        "key": "t_address",
        "label": "mapping(address => bool)",
        "numberOfBytes": "32",
        "value": "t_bool"
      },
      "t_mapping(t_address,t_mapping(t_address,t_bool))": {
        "encoding": "mapping",
        "key": "t_address",
        "label": "mapping(address => mapping(address => bool))",
        "numberOfBytes": "32",
        "value": "t_mapping(t_address,t_bool)"
      },
      "t_mapping(t_address,t_uint256)": {
        "encoding": "mapping",
        "key": "t_address",
        "label": "mapping(address => uint256)",
        "numberOfBytes": "32",
        "value": "t_uint256"
      },
      "t_mapping(t_uint256,t_address)": {
        "encoding": "mapping",
        "key": "t_uint256",
        "label": "mapping(uint256 => address)",
        "numberOfBytes": "32",
        "value": "t_address"
      },
      "t_string_storage": {
        "encoding": "bytes",
        "label": "string",
        "numberOfBytes": "32"
      },
      "t_struct(Counter)4272_storage": {
        "encoding": "inplace",
        "label": "struct Counters.Counter",
        "members": [
          {
            "astId": 4271,
            "contract": "contracts/tests/NFTs-ETH/EthBoredApeYachtClub.sol:EthBoredApeYachtClub",
            "label": "_value",
            "offset": 0,
            "slot": "0",
            "type": "t_uint256"
          }
        ],
        "numberOfBytes": "32"
      },
      "t_uint256": {
        "encoding": "inplace",
        "label": "uint256",
        "numberOfBytes": "32"
      }
    }
  }
}