{
  "address": "0xBA84A5c239937849F30eA16E71C0364C17325984",
  "abi": [
    {
      "inputs": [
        {
          "internalType": "address",
          "name": "_lzEndpoint",
          "type": "address"
        },
        {
          "internalType": "address",
          "name": "_executor",
          "type": "address"
        }
      ],
      "stateMutability": "nonpayable",
      "type": "constructor"
    },
    {
      "anonymous": false,
      "inputs": [
        {
          "indexed": false,
          "internalType": "uint16",
          "name": "_srcChainId",
          "type": "uint16"
        },
        {
          "indexed": false,
          "internalType": "bytes",
          "name": "_srcAddress",
          "type": "bytes"
        },
        {
          "indexed": false,
          "internalType": "uint64",
          "name": "_nonce",
          "type": "uint64"
        },
        {
          "indexed": false,
          "internalType": "bytes",
          "name": "_payload",
          "type": "bytes"
        }
      ],
      "name": "MessageFailed",
      "type": "event"
    },
    {
      "anonymous": false,
      "inputs": [
        {
          "indexed": true,
          "internalType": "address",
          "name": "previousOwner",
          "type": "address"
        },
        {
          "indexed": true,
          "internalType": "address",
          "name": "newOwner",
          "type": "address"
        }
      ],
      "name": "OwnershipTransferred",
      "type": "event"
    },
    {
      "anonymous": false,
      "inputs": [
        {
          "indexed": false,
          "internalType": "uint8",
          "name": "msgType",
          "type": "uint8"
        },
        {
          "indexed": false,
          "internalType": "uint64",
          "name": "nonce",
          "type": "uint64"
        }
      ],
      "name": "SendMsg",
      "type": "event"
    },
    {
      "anonymous": false,
      "inputs": [
        {
          "indexed": false,
          "internalType": "uint16",
          "name": "_srcChainId",
          "type": "uint16"
        },
        {
          "indexed": false,
          "internalType": "bytes",
          "name": "_srcAddress",
          "type": "bytes"
        }
      ],
      "name": "SetTrustedRemote",
      "type": "event"
    },
    {
      "inputs": [],
      "name": "EXECUTOR",
      "outputs": [
        {
          "internalType": "contract ILucksExecutor",
          "name": "",
          "type": "address"
        }
      ],
      "stateMutability": "view",
      "type": "function"
    },
    {
      "inputs": [
        {
          "internalType": "uint16",
          "name": "_dstChainId",
          "type": "uint16"
        },
        {
          "components": [
            {
              "internalType": "address",
              "name": "seller",
              "type": "address"
            },
            {
              "internalType": "uint16",
              "name": "nftChainId",
              "type": "uint16"
            },
            {
              "internalType": "address",
              "name": "nftContract",
              "type": "address"
            },
            {
              "internalType": "uint256[]",
              "name": "tokenIds",
              "type": "uint256[]"
            },
            {
              "internalType": "uint256[]",
              "name": "tokenAmounts",
              "type": "uint256[]"
            },
            {
              "internalType": "address",
              "name": "acceptToken",
              "type": "address"
            },
            {
              "internalType": "enum TaskStatus",
              "name": "status",
              "type": "uint8"
            },
            {
              "internalType": "uint256",
              "name": "startTime",
              "type": "uint256"
            },
            {
              "internalType": "uint256",
              "name": "endTime",
              "type": "uint256"
            },
            {
              "internalType": "uint256",
              "name": "targetAmount",
              "type": "uint256"
            },
            {
              "internalType": "uint256",
              "name": "price",
              "type": "uint256"
            },
            {
              "internalType": "uint16",
              "name": "paymentStrategy",
              "type": "uint16"
            },
            {
              "components": [
                {
                  "internalType": "address",
                  "name": "token",
                  "type": "address"
                },
                {
                  "internalType": "uint256",
                  "name": "amount",
                  "type": "uint256"
                }
              ],
              "internalType": "struct ExclusiveToken",
              "name": "exclusiveToken",
              "type": "tuple"
            },
            {
              "internalType": "uint256",
              "name": "amountCollected",
              "type": "uint256"
            },
            {
              "internalType": "uint256",
              "name": "depositId",
              "type": "uint256"
            }
          ],
          "internalType": "struct TaskItem",
          "name": "item",
          "type": "tuple"
        },
        {
          "components": [
            {
              "internalType": "uint16",
              "name": "chainId",
              "type": "uint16"
            },
            {
              "internalType": "string",
              "name": "title",
              "type": "string"
            },
            {
              "internalType": "string",
              "name": "note",
              "type": "string"
            }
          ],
          "internalType": "struct TaskExt",
          "name": "ext",
          "type": "tuple"
        },
        {
          "components": [
            {
              "internalType": "uint256",
              "name": "dstGasForCall",
              "type": "uint256"
            },
            {
              "internalType": "uint256",
              "name": "dstNativeAmount",
              "type": "uint256"
            },
            {
              "internalType": "bytes",
              "name": "dstNativeAddr",
              "type": "bytes"
            },
            {
              "internalType": "bytes",
              "name": "zroPaymentAddr",
              "type": "bytes"
            }
          ],
          "internalType": "struct lzTxObj",
          "name": "_lzTxParams",
          "type": "tuple"
        }
      ],
      "name": "estimateCreateTaskFee",
      "outputs": [
        {
          "internalType": "uint256",
          "name": "nativeFee",
          "type": "uint256"
        },
        {
          "internalType": "uint256",
          "name": "zroFee",
          "type": "uint256"
        }
      ],
      "stateMutability": "view",
      "type": "function"
    },
    {
      "inputs": [
        {
          "internalType": "uint16",
          "name": "_dstChainId",
          "type": "uint16"
        },
        {
          "internalType": "address payable",
          "name": "_user",
          "type": "address"
        },
        {
          "internalType": "address",
          "name": "nftContract",
          "type": "address"
        },
        {
          "internalType": "uint256",
          "name": "depositId",
          "type": "uint256"
        },
        {
          "components": [
            {
              "internalType": "uint256",
              "name": "dstGasForCall",
              "type": "uint256"
            },
            {
              "internalType": "uint256",
              "name": "dstNativeAmount",
              "type": "uint256"
            },
            {
              "internalType": "bytes",
              "name": "dstNativeAddr",
              "type": "bytes"
            },
            {
              "internalType": "bytes",
              "name": "zroPaymentAddr",
              "type": "bytes"
            }
          ],
          "internalType": "struct lzTxObj",
          "name": "_lzTxParams",
          "type": "tuple"
        }
      ],
      "name": "estimateWithdrawNFTsFee",
      "outputs": [
        {
          "internalType": "uint256",
          "name": "nativeFee",
          "type": "uint256"
        },
        {
          "internalType": "uint256",
          "name": "zroFee",
          "type": "uint256"
        }
      ],
      "stateMutability": "view",
      "type": "function"
    },
    {
      "inputs": [
        {
          "internalType": "uint16",
          "name": "",
          "type": "uint16"
        },
        {
          "internalType": "bytes",
          "name": "",
          "type": "bytes"
        },
        {
          "internalType": "uint64",
          "name": "",
          "type": "uint64"
        }
      ],
      "name": "failedMessages",
      "outputs": [
        {
          "internalType": "bytes32",
          "name": "",
          "type": "bytes32"
        }
      ],
      "stateMutability": "view",
      "type": "function"
    },
    {
      "inputs": [
        {
          "internalType": "uint16",
          "name": "_srcChainId",
          "type": "uint16"
        },
        {
          "internalType": "bytes",
          "name": "_srcAddress",
          "type": "bytes"
        }
      ],
      "name": "forceResumeReceive",
      "outputs": [],
      "stateMutability": "nonpayable",
      "type": "function"
    },
    {
      "inputs": [
        {
          "internalType": "uint16",
          "name": "",
          "type": "uint16"
        },
        {
          "internalType": "uint8",
          "name": "",
          "type": "uint8"
        }
      ],
      "name": "gasLookup",
      "outputs": [
        {
          "internalType": "uint256",
          "name": "",
          "type": "uint256"
        }
      ],
      "stateMutability": "view",
      "type": "function"
    },
    {
      "inputs": [
        {
          "internalType": "uint16",
          "name": "_version",
          "type": "uint16"
        },
        {
          "internalType": "uint16",
          "name": "_chainId",
          "type": "uint16"
        },
        {
          "internalType": "address",
          "name": "",
          "type": "address"
        },
        {
          "internalType": "uint256",
          "name": "_configType",
          "type": "uint256"
        }
      ],
      "name": "getConfig",
      "outputs": [
        {
          "internalType": "bytes",
          "name": "",
          "type": "bytes"
        }
      ],
      "stateMutability": "view",
      "type": "function"
    },
    {
      "inputs": [
        {
          "internalType": "uint16",
          "name": "_srcChainId",
          "type": "uint16"
        },
        {
          "internalType": "bytes",
          "name": "_srcAddress",
          "type": "bytes"
        }
      ],
      "name": "isTrustedRemote",
      "outputs": [
        {
          "internalType": "bool",
          "name": "",
          "type": "bool"
        }
      ],
      "stateMutability": "view",
      "type": "function"
    },
    {
      "inputs": [],
      "name": "lzEndpoint",
      "outputs": [
        {
          "internalType": "contract ILayerZeroEndpoint",
          "name": "",
          "type": "address"
        }
      ],
      "stateMutability": "view",
      "type": "function"
    },
    {
      "inputs": [
        {
          "internalType": "uint16",
          "name": "_srcChainId",
          "type": "uint16"
        },
        {
          "internalType": "bytes",
          "name": "_srcAddress",
          "type": "bytes"
        },
        {
          "internalType": "uint64",
          "name": "_nonce",
          "type": "uint64"
        },
        {
          "internalType": "bytes",
          "name": "_payload",
          "type": "bytes"
        }
      ],
      "name": "lzReceive",
      "outputs": [],
      "stateMutability": "nonpayable",
      "type": "function"
    },
    {
      "inputs": [
        {
          "internalType": "uint16",
          "name": "_srcChainId",
          "type": "uint16"
        },
        {
          "internalType": "bytes",
          "name": "_srcAddress",
          "type": "bytes"
        },
        {
          "internalType": "uint64",
          "name": "_nonce",
          "type": "uint64"
        },
        {
          "internalType": "bytes",
          "name": "_payload",
          "type": "bytes"
        }
      ],
      "name": "nonblockingLzReceive",
      "outputs": [],
      "stateMutability": "nonpayable",
      "type": "function"
    },
    {
      "inputs": [],
      "name": "owner",
      "outputs": [
        {
          "internalType": "address",
          "name": "",
          "type": "address"
        }
      ],
      "stateMutability": "view",
      "type": "function"
    },
    {
      "inputs": [
        {
          "internalType": "uint16",
          "name": "_dstChainId",
          "type": "uint16"
        },
        {
          "internalType": "uint8",
          "name": "_functionType",
          "type": "uint8"
        },
        {
          "internalType": "string",
          "name": "_note",
          "type": "string"
        },
        {
          "components": [
            {
              "internalType": "uint256",
              "name": "dstGasForCall",
              "type": "uint256"
            },
            {
              "internalType": "uint256",
              "name": "dstNativeAmount",
              "type": "uint256"
            },
            {
              "internalType": "bytes",
              "name": "dstNativeAddr",
              "type": "bytes"
            },
            {
              "internalType": "bytes",
              "name": "zroPaymentAddr",
              "type": "bytes"
            }
          ],
          "internalType": "struct lzTxObj",
          "name": "_lzTxParams",
          "type": "tuple"
        }
      ],
      "name": "quoteLayerZeroFee",
      "outputs": [
        {
          "internalType": "uint256",
          "name": "nativeFee",
          "type": "uint256"
        },
        {
          "internalType": "uint256",
          "name": "zroFee",
          "type": "uint256"
        }
      ],
      "stateMutability": "view",
      "type": "function"
    },
    {
      "inputs": [],
      "name": "renounceOwnership",
      "outputs": [],
      "stateMutability": "nonpayable",
      "type": "function"
    },
    {
      "inputs": [
        {
          "internalType": "uint16",
          "name": "_srcChainId",
          "type": "uint16"
        },
        {
          "internalType": "bytes",
          "name": "_srcAddress",
          "type": "bytes"
        },
        {
          "internalType": "uint64",
          "name": "_nonce",
          "type": "uint64"
        },
        {
          "internalType": "bytes",
          "name": "_payload",
          "type": "bytes"
        }
      ],
      "name": "retryMessage",
      "outputs": [],
      "stateMutability": "payable",
      "type": "function"
    },
    {
      "inputs": [
        {
          "internalType": "uint16",
          "name": "_dstChainId",
          "type": "uint16"
        },
        {
          "internalType": "address payable",
          "name": "_refundAddress",
          "type": "address"
        },
        {
          "components": [
            {
              "internalType": "address",
              "name": "seller",
              "type": "address"
            },
            {
              "internalType": "uint16",
              "name": "nftChainId",
              "type": "uint16"
            },
            {
              "internalType": "address",
              "name": "nftContract",
              "type": "address"
            },
            {
              "internalType": "uint256[]",
              "name": "tokenIds",
              "type": "uint256[]"
            },
            {
              "internalType": "uint256[]",
              "name": "tokenAmounts",
              "type": "uint256[]"
            },
            {
              "internalType": "address",
              "name": "acceptToken",
              "type": "address"
            },
            {
              "internalType": "enum TaskStatus",
              "name": "status",
              "type": "uint8"
            },
            {
              "internalType": "uint256",
              "name": "startTime",
              "type": "uint256"
            },
            {
              "internalType": "uint256",
              "name": "endTime",
              "type": "uint256"
            },
            {
              "internalType": "uint256",
              "name": "targetAmount",
              "type": "uint256"
            },
            {
              "internalType": "uint256",
              "name": "price",
              "type": "uint256"
            },
            {
              "internalType": "uint16",
              "name": "paymentStrategy",
              "type": "uint16"
            },
            {
              "components": [
                {
                  "internalType": "address",
                  "name": "token",
                  "type": "address"
                },
                {
                  "internalType": "uint256",
                  "name": "amount",
                  "type": "uint256"
                }
              ],
              "internalType": "struct ExclusiveToken",
              "name": "exclusiveToken",
              "type": "tuple"
            },
            {
              "internalType": "uint256",
              "name": "amountCollected",
              "type": "uint256"
            },
            {
              "internalType": "uint256",
              "name": "depositId",
              "type": "uint256"
            }
          ],
          "internalType": "struct TaskItem",
          "name": "item",
          "type": "tuple"
        },
        {
          "components": [
            {
              "internalType": "uint16",
              "name": "chainId",
              "type": "uint16"
            },
            {
              "internalType": "string",
              "name": "title",
              "type": "string"
            },
            {
              "internalType": "string",
              "name": "note",
              "type": "string"
            }
          ],
          "internalType": "struct TaskExt",
          "name": "ext",
          "type": "tuple"
        },
        {
          "components": [
            {
              "internalType": "uint256",
              "name": "dstGasForCall",
              "type": "uint256"
            },
            {
              "internalType": "uint256",
              "name": "dstNativeAmount",
              "type": "uint256"
            },
            {
              "internalType": "bytes",
              "name": "dstNativeAddr",
              "type": "bytes"
            },
            {
              "internalType": "bytes",
              "name": "zroPaymentAddr",
              "type": "bytes"
            }
          ],
          "internalType": "struct lzTxObj",
          "name": "_lzTxParams",
          "type": "tuple"
        }
      ],
      "name": "sendCreateTask",
      "outputs": [],
      "stateMutability": "payable",
      "type": "function"
    },
    {
      "inputs": [
        {
          "internalType": "uint16",
          "name": "_dstChainId",
          "type": "uint16"
        },
        {
          "internalType": "address payable",
          "name": "_refundAddress",
          "type": "address"
        },
        {
          "internalType": "address payable",
          "name": "_user",
          "type": "address"
        },
        {
          "internalType": "address",
          "name": "nftContract",
          "type": "address"
        },
        {
          "internalType": "uint256",
          "name": "depositId",
          "type": "uint256"
        },
        {
          "components": [
            {
              "internalType": "uint256",
              "name": "dstGasForCall",
              "type": "uint256"
            },
            {
              "internalType": "uint256",
              "name": "dstNativeAmount",
              "type": "uint256"
            },
            {
              "internalType": "bytes",
              "name": "dstNativeAddr",
              "type": "bytes"
            },
            {
              "internalType": "bytes",
              "name": "zroPaymentAddr",
              "type": "bytes"
            }
          ],
          "internalType": "struct lzTxObj",
          "name": "_lzTxParams",
          "type": "tuple"
        }
      ],
      "name": "sendWithdrawNFTs",
      "outputs": [],
      "stateMutability": "payable",
      "type": "function"
    },
    {
      "inputs": [
        {
          "internalType": "uint16",
          "name": "_version",
          "type": "uint16"
        },
        {
          "internalType": "uint16",
          "name": "_chainId",
          "type": "uint16"
        },
        {
          "internalType": "uint256",
          "name": "_configType",
          "type": "uint256"
        },
        {
          "internalType": "bytes",
          "name": "_config",
          "type": "bytes"
        }
      ],
      "name": "setConfig",
      "outputs": [],
      "stateMutability": "nonpayable",
      "type": "function"
    },
    {
      "inputs": [
        {
          "internalType": "contract ILucksExecutor",
          "name": "_executor",
          "type": "address"
        }
      ],
      "name": "setExecutor",
      "outputs": [],
      "stateMutability": "nonpayable",
      "type": "function"
    },
    {
      "inputs": [
        {
          "internalType": "uint16",
          "name": "_dstChainId",
          "type": "uint16"
        },
        {
          "internalType": "uint8",
          "name": "_functionType",
          "type": "uint8"
        },
        {
          "internalType": "uint256",
          "name": "_gasAmount",
          "type": "uint256"
        }
      ],
      "name": "setGasAmount",
      "outputs": [],
      "stateMutability": "nonpayable",
      "type": "function"
    },
    {
      "inputs": [
        {
          "internalType": "uint16",
          "name": "_version",
          "type": "uint16"
        }
      ],
      "name": "setReceiveVersion",
      "outputs": [],
      "stateMutability": "nonpayable",
      "type": "function"
    },
    {
      "inputs": [
        {
          "internalType": "uint16",
          "name": "_version",
          "type": "uint16"
        }
      ],
      "name": "setSendVersion",
      "outputs": [],
      "stateMutability": "nonpayable",
      "type": "function"
    },
    {
      "inputs": [
        {
          "internalType": "uint16",
          "name": "_srcChainId",
          "type": "uint16"
        },
        {
          "internalType": "bytes",
          "name": "_srcAddress",
          "type": "bytes"
        }
      ],
      "name": "setTrustedRemote",
      "outputs": [],
      "stateMutability": "nonpayable",
      "type": "function"
    },
    {
      "inputs": [
        {
          "internalType": "bool",
          "name": "enable",
          "type": "bool"
        }
      ],
      "name": "setUseLayerZeroToken",
      "outputs": [],
      "stateMutability": "nonpayable",
      "type": "function"
    },
    {
      "inputs": [
        {
          "internalType": "address",
          "name": "newOwner",
          "type": "address"
        }
      ],
      "name": "transferOwnership",
      "outputs": [],
      "stateMutability": "nonpayable",
      "type": "function"
    },
    {
      "inputs": [
        {
          "internalType": "uint16",
          "name": "",
          "type": "uint16"
        }
      ],
      "name": "trustedRemoteLookup",
      "outputs": [
        {
          "internalType": "bytes",
          "name": "",
          "type": "bytes"
        }
      ],
      "stateMutability": "view",
      "type": "function"
    },
    {
      "inputs": [],
      "name": "useLayerZeroToken",
      "outputs": [
        {
          "internalType": "bool",
          "name": "",
          "type": "bool"
        }
      ],
      "stateMutability": "view",
      "type": "function"
    }
  ],
  "transactionHash": "0xe013347987d2e1c54b0b5c2db64b991571e50cceae261347a1a1f07f9ba9c03f",
  "args": [
    "0xa908aa5bd022f893237DEcE43e4962BEa3FA0c87",
    "0x3bdAF12bBE62973Af297A37f2aB8f21c5f78FCF3"
  ],
  "numDeployments": 1,
  "solcInputHash": "ebe9685cad90cf13094170ca99fb6d7a",
  "bytecode": "0x60a06040523480156200001157600080fd5b5060405162002ee038038062002ee0833981016040819052620000349162000141565b81806200004133620000d4565b60601b6001600160601b031916608052506001600160a01b038116620000ad5760405162461bcd60e51b815260206004820152601e60248201527f4c75636b733a205f6578656375746f722063616e6e6f74206265203078300000604482015260640160405180910390fd5b600480546001600160a01b0319166001600160a01b03929092169190911790555062000179565b600080546001600160a01b038381166001600160a01b0319831681178455604051919092169283917f8be0079c531659141344cd1fd0a4f28419497f9722a3daafe3b4186f6b6457e09190a35050565b80516001600160a01b03811681146200013c57600080fd5b919050565b600080604083850312156200015557600080fd5b620001608362000124565b9150620001706020840162000124565b90509250929050565b60805160601c612cfb620001e5600039600081816104920152818161058a015281816107710152818161087e01528181610af001528181610cf401528181610dcf01528181611000015281816111ae015281816114cb015281816117460152611b3b0152612cfb6000f3fe60806040526004361061019b5760003560e01c8063715018a6116100ec578063c213dc2b1161008a578063eb8d72b711610064578063eb8d72b714610507578063f2fde38b14610527578063f5ecbdbc14610547578063fc8691081461056757600080fd5b8063c213dc2b146104b4578063cbed8b9c146104d4578063d1deba1f146104f457600080fd5b80638305de61116100c65780638305de611461042e5780638c7ae0fc146104415780638da5cb5b14610462578063b353aaa71461048057600080fd5b8063715018a6146103cc5780637533d788146103e15780637cbbc5d21461040e57600080fd5b80631c3c0ea811610159578063479e1e0b11610133578063479e1e0b146103055780635b8c41e614610325578063630dc7cb1461037457806366ad5c8a146103ac57600080fd5b80631c3c0ea8146102955780633d8b38f6146102b557806342d65a8d146102e557600080fd5b80621d3567146101a057806302422054146101c257806307e0db171461020d578063107f6e281461022d57806310ddb137146102405780631b0899fc14610260575b600080fd5b3480156101ac57600080fd5b506101c06101bb3660046123da565b610587565b005b3480156101ce57600080fd5b506101fa6101dd3660046125a9565b600360209081526000928352604080842090915290825290205481565b6040519081526020015b60405180910390f35b34801561021957600080fd5b506101c0610228366004612165565b61072e565b6101c061023b366004612289565b6107d2565b34801561024c57600080fd5b506101c061025b366004612165565b61083b565b34801561026c57600080fd5b5061028061027b3660046125dc565b6108b5565b60408051928352602083019190915201610204565b3480156102a157600080fd5b506101c06102b03660046120b9565b610b9b565b3480156102c157600080fd5b506102d56102d0366004612327565b610be7565b6040519015158152602001610204565b3480156102f157600080fd5b506101c0610300366004612327565b610cb3565b34801561031157600080fd5b5061028061032036600461220d565b610d64565b34801561033157600080fd5b506101fa610340366004612379565b6002602090815260009384526040808520845180860184018051928152908401958401959095209452929052825290205481565b34801561038057600080fd5b50600454610394906001600160a01b031681565b6040516001600160a01b039091168152602001610204565b3480156103b857600080fd5b506101c06103c73660046123da565b610e7a565b3480156103d857600080fd5b506101c0610eea565b3480156103ed57600080fd5b506104016103fc366004612165565b610f16565b6040516102049190612806565b34801561041a57600080fd5b50610280610429366004612462565b610fb0565b6101c061043c366004612180565b6110aa565b34801561044d57600080fd5b506004546102d590600160a01b900460ff1681565b34801561046e57600080fd5b506000546001600160a01b0316610394565b34801561048c57600080fd5b506103947f000000000000000000000000000000000000000000000000000000000000000081565b3480156104c057600080fd5b506101c06104cf3660046120d6565b611125565b3480156104e057600080fd5b506101c06104ef36600461253b565b61116d565b6101c06105023660046123da565b611224565b34801561051357600080fd5b506101c0610522366004612327565b611376565b34801561053357600080fd5b506101c06105423660046120b9565b6113ff565b34801561055357600080fd5b506104016105623660046124ee565b61149a565b34801561057357600080fd5b506101c0610582366004612631565b61155a565b337f00000000000000000000000000000000000000000000000000000000000000006001600160a01b0316146106045760405162461bcd60e51b815260206004820152601e60248201527f4c7a4170703a20696e76616c696420656e64706f696e742063616c6c6572000060448201526064015b60405180910390fd5b61ffff84166000908152600160205260408120805461062290612c34565b80601f016020809104026020016040519081016040528092919081815260200182805461064e90612c34565b801561069b5780601f106106705761010080835404028352916020019161069b565b820191906000526020600020905b81548152906001019060200180831161067e57829003601f168201915b50505050509050805184511480156106c0575080805190602001208480519060200120145b61071b5760405162461bcd60e51b815260206004820152602660248201527f4c7a4170703a20696e76616c696420736f757263652073656e64696e6720636f6044820152651b9d1c9858dd60d21b60648201526084016105fb565b6107278585858561160d565b5050505050565b6000546001600160a01b031633146107585760405162461bcd60e51b81526004016105fb9061285d565b6040516307e0db1760e01b815261ffff821660048201527f00000000000000000000000000000000000000000000000000000000000000006001600160a01b0316906307e0db17906024015b600060405180830381600087803b1580156107be57600080fd5b505af1158015610727573d6000803e3d6000fd5b6004546001600160a01b031633146107fc5760405162461bcd60e51b81526004016105fb90612819565b60006001848460405160200161081493929190612a06565b60405160208183030381529060405290506108338660018785856116fe565b505050505050565b6000546001600160a01b031633146108655760405162461bcd60e51b81526004016105fb9061285d565b6040516310ddb13760e01b815261ffff821660048201527f00000000000000000000000000000000000000000000000000000000000000006001600160a01b0316906310ddb137906024016107a4565b604080516020808201835260008083528351600280825260608201865291948594938593919083019080368337019050509050612710816000815181106108fe576108fe612c6f565b6020026020010181815250506127108160018151811061092057610920612c6f565b602090810291909101015260ff871660011415610a4457604080516101e0810182526000808252602080830182905282840182905260608084018690526080840186905260a08401839052600160c085018190524260e08601819052610100860152683635c9adc5dea00000610120860152670de0b6b3a76400006101408601819052610160860182905286518088018852858152808501919091526101808601526101a08501939093526127106101c08501528451908101855282815284518086018652601981527f6e667420636f6c6c656374696f6e206974656d207469746c650000000000000081840152818301528085018b90529351929392610a2c92918591859101612a06565b60405160208183030381529060405293505050610acd565b60ff871660021415610a8557604080516002602082015260009181019190915261271060608201526080016040516020818303038152906040529150610acd565b60405162461bcd60e51b815260206004820181905260248201527f4c75636b733a20756e737570706f727465642066756e6374696f6e207479706560448201526064016105fb565b6000610ada898988611819565b6004805460405163040a7bb160e41b81529293507f00000000000000000000000000000000000000000000000000000000000000006001600160a01b0316926340a7bb1092610b3c928e9230928a92600160a01b900460ff1691899101612892565b604080518083038186803b158015610b5357600080fd5b505afa158015610b67573d6000803e3d6000fd5b505050506040513d601f19601f82011682018060405250810190610b8b919061266d565b9450945050505094509492505050565b6000546001600160a01b03163314610bc55760405162461bcd60e51b81526004016105fb9061285d565b600480546001600160a01b0319166001600160a01b0392909216919091179055565b61ffff831660009081526001602052604081208054829190610c0890612c34565b80601f0160208091040260200160405190810160405280929190818152602001828054610c3490612c34565b8015610c815780601f10610c5657610100808354040283529160200191610c81565b820191906000526020600020905b815481529060010190602001808311610c6457829003601f168201915b505050505090508383604051610c9892919061279c565b60405180910390208180519060200120149150509392505050565b6000546001600160a01b03163314610cdd5760405162461bcd60e51b81526004016105fb9061285d565b6040516342d65a8d60e01b81526001600160a01b037f000000000000000000000000000000000000000000000000000000000000000016906342d65a8d90610d2d908690869086906004016128e6565b600060405180830381600087803b158015610d4757600080fd5b505af1158015610d5b573d6000803e3d6000fd5b50505050505050565b60408051600260208201526001600160a01b03808716928201929092529084166060820152608081018390526000908190819060a00160405160208183030381529060405290506000610db989600287611819565b6004805460405163040a7bb160e41b81529293507f00000000000000000000000000000000000000000000000000000000000000006001600160a01b0316926340a7bb1092610e1b928e9230928992600160a01b900460ff1691899101612892565b604080518083038186803b158015610e3257600080fd5b505afa158015610e46573d6000803e3d6000fd5b505050506040513d601f19601f82011682018060405250810190610e6a919061266d565b9350935050509550959350505050565b333014610ed85760405162461bcd60e51b815260206004820152602660248201527f4e6f6e626c6f636b696e674c7a4170703a2063616c6c6572206d7573742062656044820152650204c7a4170760d41b60648201526084016105fb565b610ee4848484846118ce565b50505050565b6000546001600160a01b03163314610f145760405162461bcd60e51b81526004016105fb9061285d565b565b60016020526000908152604090208054610f2f90612c34565b80601f0160208091040260200160405190810160405280929190818152602001828054610f5b90612c34565b8015610fa85780601f10610f7d57610100808354040283529160200191610fa8565b820191906000526020600020905b815481529060010190602001808311610f8b57829003601f168201915b505050505081565b600080600060018686604051602001610fcb93929190612a06565b60405160208183030381529060405290506000610fea88600187611819565b6004805460405163040a7bb160e41b81529293507f00000000000000000000000000000000000000000000000000000000000000006001600160a01b0316926340a7bb109261104c928d9230928992600160a01b900460ff1691899101612892565b604080518083038186803b15801561106357600080fd5b505afa158015611077573d6000803e3d6000fd5b505050506040513d601f19601f8201168201806040525081019061109b919061266d565b93509350505094509492505050565b6004546001600160a01b031633146110d45760405162461bcd60e51b81526004016105fb90612819565b60408051600260208201526001600160a01b038087169282019290925290841660608201526080810183905260009060a0016040516020818303038152906040529050610d5b8760028885856116fe565b6000546001600160a01b0316331461114f5760405162461bcd60e51b81526004016105fb9061285d565b60048054911515600160a01b0260ff60a01b19909216919091179055565b6000546001600160a01b031633146111975760405162461bcd60e51b81526004016105fb9061285d565b6040516332fb62e760e21b81526001600160a01b037f0000000000000000000000000000000000000000000000000000000000000000169063cbed8b9c906111eb90889088908890889088906004016129b4565b600060405180830381600087803b15801561120557600080fd5b505af1158015611219573d6000803e3d6000fd5b505050505050505050565b61ffff841660009081526002602052604080822090516112459086906127ac565b90815260408051602092819003830190206001600160401b038616600090815292529020549050806112c55760405162461bcd60e51b815260206004820152602360248201527f4e6f6e626c6f636b696e674c7a4170703a206e6f2073746f726564206d65737360448201526261676560e81b60648201526084016105fb565b8151602083012081146113245760405162461bcd60e51b815260206004820152602160248201527f4e6f6e626c6f636b696e674c7a4170703a20696e76616c6964207061796c6f616044820152601960fa1b60648201526084016105fb565b61ffff851660009081526002602052604080822090516113459087906127ac565b90815260408051602092819003830190206001600160401b03871660009081529252902055610727858585856118ce565b6000546001600160a01b031633146113a05760405162461bcd60e51b81526004016105fb9061285d565b61ffff831660009081526001602052604090206113be908383611bff565b507ffa41487ad5d6728f0b19276fa1eddc16558578f5109fc39d2dc33c3230470dab8383836040516113f2939291906128e6565b60405180910390a1505050565b6000546001600160a01b031633146114295760405162461bcd60e51b81526004016105fb9061285d565b6001600160a01b03811661148e5760405162461bcd60e51b815260206004820152602660248201527f4f776e61626c653a206e6577206f776e657220697320746865207a65726f206160448201526564647265737360d01b60648201526084016105fb565b611497816119cc565b50565b604051633d7b2f6f60e21b815261ffff808616600483015284166024820152306044820152606481018290526060907f00000000000000000000000000000000000000000000000000000000000000006001600160a01b03169063f5ecbdbc9060840160006040518083038186803b15801561151557600080fd5b505afa158015611529573d6000803e3d6000fd5b505050506040513d6000823e601f3d908101601f1916820160405261155191908101906120f8565b95945050505050565b6000546001600160a01b031633146115845760405162461bcd60e51b81526004016105fb9061285d565b60018260ff161015801561159c575060048260ff1611155b6115e85760405162461bcd60e51b815260206004820152601c60248201527f4c75636b733a20696e76616c6964205f66756e6374696f6e547970650000000060448201526064016105fb565b61ffff909216600090815260036020908152604080832060ff90941683529290522055565b604051633356ae4560e11b815230906366ad5c8a9061163690879087908790879060040161296b565b600060405180830381600087803b15801561165057600080fd5b505af1925050508015611661575060015b610ee4578080519060200120600260008661ffff1661ffff1681526020019081526020016000208460405161169691906127ac565b9081526040805191829003602090810183206001600160401b0387166000908152915220919091557fe6f254030bcb01ffd20558175c13fcaed6d1520be7becee4c961b65f79243b0d906116f190869086908690869061296b565b60405180910390a1610ee4565b600061170b868685611819565b6060840151601401519091506117248784878486611a1c565b604051630f428ae960e31b815261ffff881660048201523060248201526000907f00000000000000000000000000000000000000000000000000000000000000006001600160a01b031690637a1457489060440160206040518083038186803b15801561179057600080fd5b505afa1580156117a4573d6000803e3d6000fd5b505050506040513d601f19601f820116820180604052508101906117c89190612691565b6040805160ff8a1681526001600160401b03831660208201529192507f8d3ee0df6a4b7e82a7f20a763f1c6826e6176323e655af64f32318827d2112d4910160405180910390a15050505050505050565b60408082015160140151825161ffff861660009081526003602090815284822060ff88168352905292832054606093849392909161185691611bb6565b90506000856020015111801561187457506001600160a01b03821615155b156118935761188c8186602001518760400151611bc9565b92506118c3565b6118c08160408051600160f01b602082015260228082019390935281518082039093018352604201905290565b92505b509095945050505050565b6020810151600480546040516339132e3960e21b81526001600160a01b039091169163e44cb8e4916119049185918791016129e2565b600060405180830381600087803b15801561191e57600080fd5b505af192505050801561192f575060015b610727578180519060200120600260008761ffff1661ffff1681526020019081526020016000208560405161196491906127ac565b9081526040805191829003602090810183206001600160401b0388166000908152915220919091557fe6f254030bcb01ffd20558175c13fcaed6d1520be7becee4c961b65f79243b0d906119bf90879087908790879061296b565b60405180910390a1610727565b600080546001600160a01b038381166001600160a01b0319831681178455604051919092169283917f8be0079c531659141344cd1fd0a4f28419497f9722a3daafe3b4186f6b6457e09190a35050565b61ffff851660009081526001602052604081208054611a3a90612c34565b80601f0160208091040260200160405190810160405280929190818152602001828054611a6690612c34565b8015611ab35780601f10611a8857610100808354040283529160200191611ab3565b820191906000526020600020905b815481529060010190602001808311611a9657829003601f168201915b50505050509050805160001415611b255760405162461bcd60e51b815260206004820152603060248201527f4c7a4170703a2064657374696e6174696f6e20636861696e206973206e6f742060448201526f61207472757374656420736f7572636560801b60648201526084016105fb565b60405162c5803160e81b81526001600160a01b037f0000000000000000000000000000000000000000000000000000000000000000169063c5803100903490611b7c908a9086908b908b908b908b90600401612904565b6000604051808303818588803b158015611b9557600080fd5b505af1158015611ba9573d6000803e3d6000fd5b5050505050505050505050565b6000611bc28284612be2565b9392505050565b604051606090600290611be69082908790879087906020016127c8565b6040516020818303038152906040529150509392505050565b828054611c0b90612c34565b90600052602060002090601f016020900481019282611c2d5760008555611c73565b82601f10611c465782800160ff19823516178555611c73565b82800160010185558215611c73579182015b82811115611c73578235825591602001919060010190611c58565b50611c7f929150611c83565b5090565b5b80821115611c7f5760008155600101611c84565b8035611ca381612c9b565b919050565b600082601f830112611cb957600080fd5b813560206001600160401b03821115611cd457611cd4612c85565b8160051b611ce3828201612b8b565b838152828101908684018388018501891015611cfe57600080fd5b600093505b85841015611d21578035835260019390930192918401918401611d03565b50979650505050505050565b60008083601f840112611d3f57600080fd5b5081356001600160401b03811115611d5657600080fd5b602083019150836020828501011115611d6e57600080fd5b9250929050565b600082601f830112611d8657600080fd5b8135611d99611d9482612bbb565b612b8b565b818152846020838601011115611dae57600080fd5b816020850160208301376000918101602001919091529392505050565b803560068110611ca357600080fd5b600060408284031215611dec57600080fd5b604051604081018181106001600160401b0382111715611e0e57611e0e612c85565b6040529050808235611e1f81612c9b565b8152602092830135920191909152919050565b600060608284031215611e4457600080fd5b604051606081016001600160401b038282108183111715611e6757611e67612c85565b81604052829350611e7785612096565b83526020850135915080821115611e8d57600080fd5b611e9986838701611d75565b60208401526040850135915080821115611eb257600080fd5b50611ebf85828601611d75565b6040830152505092915050565b60006102008284031215611edf57600080fd5b611ee7612b62565b9050611ef282611c98565b8152611f0060208301612096565b6020820152611f1160408301611c98565b604082015260608201356001600160401b0380821115611f3057600080fd5b611f3c85838601611ca8565b60608401526080840135915080821115611f5557600080fd5b50611f6284828501611ca8565b608083015250611f7460a08301611c98565b60a0820152611f8560c08301611dcb565b60c082015260e08281013590820152610100808301359082015261012080830135908201526101408083013590820152610160611fc3818401612096565b90820152610180611fd684848301611dda565b81830152506101c0808301356101a08301526101e0830135818301525092915050565b60006080828403121561200b57600080fd5b604051608081016001600160401b03828210818311171561202e5761202e612c85565b816040528293508435835260208501356020840152604085013591508082111561205757600080fd5b61206386838701611d75565b6040840152606085013591508082111561207c57600080fd5b5061208985828601611d75565b6060830152505092915050565b803561ffff81168114611ca357600080fd5b803560ff81168114611ca357600080fd5b6000602082840312156120cb57600080fd5b8135611bc281612c9b565b6000602082840312156120e857600080fd5b81358015158114611bc257600080fd5b60006020828403121561210a57600080fd5b81516001600160401b0381111561212057600080fd5b8201601f8101841361213157600080fd5b805161213f611d9482612bbb565b81815285602083850101111561215457600080fd5b611551826020830160208601612c08565b60006020828403121561217757600080fd5b611bc282612096565b60008060008060008060c0878903121561219957600080fd5b6121a287612096565b955060208701356121b281612c9b565b945060408701356121c281612c9b565b935060608701356121d281612c9b565b92506080870135915060a08701356001600160401b038111156121f457600080fd5b61220089828a01611ff9565b9150509295509295509295565b600080600080600060a0868803121561222557600080fd5b61222e86612096565b9450602086013561223e81612c9b565b9350604086013561224e81612c9b565b92506060860135915060808601356001600160401b0381111561227057600080fd5b61227c88828901611ff9565b9150509295509295909350565b600080600080600060a086880312156122a157600080fd5b6122aa86612096565b945060208601356122ba81612c9b565b935060408601356001600160401b03808211156122d657600080fd5b6122e289838a01611ecc565b945060608801359150808211156122f857600080fd5b61230489838a01611e32565b9350608088013591508082111561231a57600080fd5b5061227c88828901611ff9565b60008060006040848603121561233c57600080fd5b61234584612096565b925060208401356001600160401b0381111561236057600080fd5b61236c86828701611d2d565b9497909650939450505050565b60008060006060848603121561238e57600080fd5b61239784612096565b925060208401356001600160401b038111156123b257600080fd5b6123be86828701611d75565b92505060408401356123cf81612cb0565b809150509250925092565b600080600080608085870312156123f057600080fd5b6123f985612096565b935060208501356001600160401b038082111561241557600080fd5b61242188838901611d75565b94506040870135915061243382612cb0565b9092506060860135908082111561244957600080fd5b5061245687828801611d75565b91505092959194509250565b6000806000806080858703121561247857600080fd5b61248185612096565b935060208501356001600160401b038082111561249d57600080fd5b6124a988838901611ecc565b945060408701359150808211156124bf57600080fd5b6124cb88838901611e32565b935060608701359150808211156124e157600080fd5b5061245687828801611ff9565b6000806000806080858703121561250457600080fd5b61250d85612096565b935061251b60208601612096565b9250604085013561252b81612c9b565b9396929550929360600135925050565b60008060008060006080868803121561255357600080fd5b61255c86612096565b945061256a60208701612096565b93506040860135925060608601356001600160401b0381111561258c57600080fd5b61259888828901611d2d565b969995985093965092949392505050565b600080604083850312156125bc57600080fd5b6125c583612096565b91506125d3602084016120a8565b90509250929050565b600080600080608085870312156125f257600080fd5b6125fb85612096565b9350612609602086016120a8565b925060408501356001600160401b038082111561262557600080fd5b6124cb88838901611d75565b60008060006060848603121561264657600080fd5b61264f84612096565b925061265d602085016120a8565b9150604084013590509250925092565b6000806040838503121561268057600080fd5b505080516020909101519092909150565b6000602082840312156126a357600080fd5b8151611bc281612cb0565b600081518084526020808501945080840160005b838110156126de578151875295820195908201906001016126c2565b509495945050505050565b81835281816020850137506000828201602090810191909152601f909101601f19169091010190565b6000815180845261272a816020860160208601612c08565b601f01601f19169290920160200192915050565b6006811061275c57634e487b7160e01b600052602160045260246000fd5b9052565b61ffff815116825260006020820151606060208501526127836060850182612712565b9050604083015184820360408601526115518282612712565b8183823760009101908152919050565b600082516127be818460208701612c08565b9190910192915050565b61ffff60f01b8560f01b168152836002820152826022820152600082516127f6816042850160208701612c08565b9190910160420195945050505050565b602081526000611bc26020830184612712565b60208082526024908201527f4c75636b733a2063616c6c6572206d757374206265204c75636b7345786563756040820152633a37b91760e11b606082015260800190565b6020808252818101527f4f776e61626c653a2063616c6c6572206973206e6f7420746865206f776e6572604082015260600190565b61ffff861681526001600160a01b038516602082015260a0604082018190526000906128c090830186612712565b841515606084015282810360808401526128da8185612712565b98975050505050505050565b61ffff841681526040602082015260006115516040830184866126e9565b61ffff8716815260c06020820152600061292160c0830188612712565b82810360408401526129338188612712565b6001600160a01b0387811660608601528616608085015283810360a0850152905061295e8185612712565b9998505050505050505050565b61ffff851681526080602082015260006129886080830186612712565b6001600160401b038516604084015282810360608401526129a98185612712565b979650505050505050565b600061ffff8088168352808716602084015250846040830152608060608301526129a96080830184866126e9565b60ff831681526040602082015260006129fe6040830184612712565b949350505050565b60ff8416815260606020820152612a296060820184516001600160a01b03169052565b60006020840151612a40608084018261ffff169052565b5060408401516001600160a01b031660a0830152606084015161020060c0840152612a6f6102608401826126ae565b90506080850151605f198483030160e0850152612a8c82826126ae565b91505060a0850151610100612aab818601836001600160a01b03169052565b60c08701519150610120612ac18187018461273e565b60e08801516101408781019190915291880151610160808801919091529088015161018080880191909152918801516101a0808801919091529088015192506101c09190612b148388018561ffff169052565b9088015180516001600160a01b03166101e088015260200151610200870152870151610220860152860151610240850152508281036040840152612b588185612760565b9695505050505050565b6040516101e081016001600160401b0381118282101715612b8557612b85612c85565b60405290565b604051601f8201601f191681016001600160401b0381118282101715612bb357612bb3612c85565b604052919050565b60006001600160401b03821115612bd457612bd4612c85565b50601f01601f191660200190565b60008219821115612c0357634e487b7160e01b600052601160045260246000fd5b500190565b60005b83811015612c23578181015183820152602001612c0b565b83811115610ee45750506000910152565b600181811c90821680612c4857607f821691505b60208210811415612c6957634e487b7160e01b600052602260045260246000fd5b50919050565b634e487b7160e01b600052603260045260246000fd5b634e487b7160e01b600052604160045260246000fd5b6001600160a01b038116811461149757600080fd5b6001600160401b038116811461149757600080fdfea2646970667358221220c1d6820027e6bcfc3ee65328b8bb4ad2ec40bc52fdc4afde7418cacb07dea7bf64736f6c63430008060033",
  "devdoc": {
    "kind": "dev",
    "methods": {
      "owner()": {
        "details": "Returns the address of the current owner."
      },
      "renounceOwnership()": {
        "details": "Leaves the contract without owner. It will not be possible to call `onlyOwner` functions anymore. Can only be called by the current owner. NOTE: Renouncing ownership will leave the contract without an owner, thereby removing any functionality that is only available to the owner."
      },
      "transferOwnership(address)": {
        "details": "Transfers ownership of the contract to a new account (`newOwner`). Can only be called by the current owner."
      }
    },
    "version": 1
  },
  "userdoc": {
    "kind": "user",
    "methods": {
      "setExecutor(address)": {
        "notice": "set operator"
      },
      "setUseLayerZeroToken(bool)": {
        "notice": "set useLayerZeroToken"
      }
    },
    "version": 1
  },
  "storageLayout": {
    "storage": [
      {
        "astId": 917,
        "contract": "contracts/LucksBridge.sol:LucksBridge",
        "label": "_owner",
        "offset": 0,
        "slot": "0",
        "type": "t_address"
      },
      {
        "astId": 20119,
        "contract": "contracts/LucksBridge.sol:LucksBridge",
        "label": "trustedRemoteLookup",
        "offset": 0,
        "slot": "1",
        "type": "t_mapping(t_uint16,t_bytes_storage)"
      },
      {
        "astId": 20409,
        "contract": "contracts/LucksBridge.sol:LucksBridge",
        "label": "failedMessages",
        "offset": 0,
        "slot": "2",
        "type": "t_mapping(t_uint16,t_mapping(t_bytes_memory_ptr,t_mapping(t_uint64,t_bytes32)))"
      },
      {
        "astId": 5947,
        "contract": "contracts/LucksBridge.sol:LucksBridge",
        "label": "gasLookup",
        "offset": 0,
        "slot": "3",
        "type": "t_mapping(t_uint16,t_mapping(t_uint8,t_uint256))"
      },
      {
        "astId": 5950,
        "contract": "contracts/LucksBridge.sol:LucksBridge",
        "label": "EXECUTOR",
        "offset": 0,
        "slot": "4",
        "type": "t_contract(ILucksExecutor)10474"
      },
      {
        "astId": 5952,
        "contract": "contracts/LucksBridge.sol:LucksBridge",
        "label": "useLayerZeroToken",
        "offset": 20,
        "slot": "4",
        "type": "t_bool"
      }
    ],
    "types": {
      "t_address": {
        "encoding": "inplace",
        "label": "address",
        "numberOfBytes": "20"
      },
      "t_bool": {
        "encoding": "inplace",
        "label": "bool",
        "numberOfBytes": "1"
      },
      "t_bytes32": {
        "encoding": "inplace",
        "label": "bytes32",
        "numberOfBytes": "32"
      },
      "t_bytes_memory_ptr": {
        "encoding": "bytes",
        "label": "bytes",
        "numberOfBytes": "32"
      },
      "t_bytes_storage": {
        "encoding": "bytes",
        "label": "bytes",
        "numberOfBytes": "32"
      },
      "t_contract(ILucksExecutor)10474": {
        "encoding": "inplace",
        "label": "contract ILucksExecutor",
        "numberOfBytes": "20"
      },
      "t_mapping(t_bytes_memory_ptr,t_mapping(t_uint64,t_bytes32))": {
        "encoding": "mapping",
        "key": "t_bytes_memory_ptr",
        "label": "mapping(bytes => mapping(uint64 => bytes32))",
        "numberOfBytes": "32",
        "value": "t_mapping(t_uint64,t_bytes32)"
      },
      "t_mapping(t_uint16,t_bytes_storage)": {
        "encoding": "mapping",
        "key": "t_uint16",
        "label": "mapping(uint16 => bytes)",
        "numberOfBytes": "32",
        "value": "t_bytes_storage"
      },
      "t_mapping(t_uint16,t_mapping(t_bytes_memory_ptr,t_mapping(t_uint64,t_bytes32)))": {
        "encoding": "mapping",
        "key": "t_uint16",
        "label": "mapping(uint16 => mapping(bytes => mapping(uint64 => bytes32)))",
        "numberOfBytes": "32",
        "value": "t_mapping(t_bytes_memory_ptr,t_mapping(t_uint64,t_bytes32))"
      },
      "t_mapping(t_uint16,t_mapping(t_uint8,t_uint256))": {
        "encoding": "mapping",
        "key": "t_uint16",
        "label": "mapping(uint16 => mapping(uint8 => uint256))",
        "numberOfBytes": "32",
        "value": "t_mapping(t_uint8,t_uint256)"
      },
      "t_mapping(t_uint64,t_bytes32)": {
        "encoding": "mapping",
        "key": "t_uint64",
        "label": "mapping(uint64 => bytes32)",
        "numberOfBytes": "32",
        "value": "t_bytes32"
      },
      "t_mapping(t_uint8,t_uint256)": {
        "encoding": "mapping",
        "key": "t_uint8",
        "label": "mapping(uint8 => uint256)",
        "numberOfBytes": "32",
        "value": "t_uint256"
      },
      "t_uint16": {
        "encoding": "inplace",
        "label": "uint16",
        "numberOfBytes": "2"
      },
      "t_uint256": {
        "encoding": "inplace",
        "label": "uint256",
        "numberOfBytes": "32"
      },
      "t_uint64": {
        "encoding": "inplace",
        "label": "uint64",
        "numberOfBytes": "8"
      },
      "t_uint8": {
        "encoding": "inplace",
        "label": "uint8",
        "numberOfBytes": "1"
      }
    }
  }
}