{
  "address": "0xE63D56E2D6466F068170e8b5CB462dA56E619363",
  "abi": [
    {
      "inputs": [
        {
          "internalType": "address[]",
          "name": "_acceptTokens",
          "type": "address[]"
        },
        {
          "internalType": "address",
          "name": "_recipient",
          "type": "address"
        },
        {
          "internalType": "uint256",
          "name": "_fee",
          "type": "uint256"
        },
        {
          "internalType": "contract ILucksExecutor",
          "name": "_executor",
          "type": "address"
        },
        {
          "internalType": "contract ILucksVRF",
          "name": "_vrf",
          "type": "address"
        },
        {
          "internalType": "contract ILucksGroup",
          "name": "_groups",
          "type": "address"
        },
        {
          "internalType": "contract ILucksPaymentStrategy",
          "name": "_strategy",
          "type": "address"
        },
        {
          "internalType": "contract ILucksAuto",
          "name": "_auto_close",
          "type": "address"
        },
        {
          "internalType": "contract ILucksAuto",
          "name": "_auto_draw",
          "type": "address"
        }
      ],
      "stateMutability": "nonpayable",
      "type": "constructor"
    },
    {
      "anonymous": false,
      "inputs": [
        {
          "indexed": true,
          "internalType": "address",
          "name": "previousOwner",
          "type": "address"
        },
        {
          "indexed": true,
          "internalType": "address",
          "name": "newOwner",
          "type": "address"
        }
      ],
      "name": "OwnershipTransferred",
      "type": "event"
    },
    {
      "inputs": [],
      "name": "AUTO_CLOSE",
      "outputs": [
        {
          "internalType": "contract ILucksAuto",
          "name": "",
          "type": "address"
        }
      ],
      "stateMutability": "view",
      "type": "function"
    },
    {
      "inputs": [],
      "name": "AUTO_DRAW",
      "outputs": [
        {
          "internalType": "contract ILucksAuto",
          "name": "",
          "type": "address"
        }
      ],
      "stateMutability": "view",
      "type": "function"
    },
    {
      "inputs": [],
      "name": "DRAW_DELAY_SEC",
      "outputs": [
        {
          "internalType": "uint32",
          "name": "",
          "type": "uint32"
        }
      ],
      "stateMutability": "view",
      "type": "function"
    },
    {
      "inputs": [],
      "name": "EXECUTOR",
      "outputs": [
        {
          "internalType": "contract ILucksExecutor",
          "name": "",
          "type": "address"
        }
      ],
      "stateMutability": "view",
      "type": "function"
    },
    {
      "inputs": [],
      "name": "GROUPS",
      "outputs": [
        {
          "internalType": "contract ILucksGroup",
          "name": "",
          "type": "address"
        }
      ],
      "stateMutability": "view",
      "type": "function"
    },
    {
      "inputs": [],
      "name": "MAX_PER_JOIN_NUM",
      "outputs": [
        {
          "internalType": "uint32",
          "name": "",
          "type": "uint32"
        }
      ],
      "stateMutability": "view",
      "type": "function"
    },
    {
      "inputs": [],
      "name": "STRATEGY",
      "outputs": [
        {
          "internalType": "contract ILucksPaymentStrategy",
          "name": "",
          "type": "address"
        }
      ],
      "stateMutability": "view",
      "type": "function"
    },
    {
      "inputs": [],
      "name": "VRF",
      "outputs": [
        {
          "internalType": "contract ILucksVRF",
          "name": "",
          "type": "address"
        }
      ],
      "stateMutability": "view",
      "type": "function"
    },
    {
      "inputs": [
        {
          "internalType": "address",
          "name": "",
          "type": "address"
        }
      ],
      "name": "acceptTokens",
      "outputs": [
        {
          "internalType": "bool",
          "name": "",
          "type": "bool"
        }
      ],
      "stateMutability": "view",
      "type": "function"
    },
    {
      "inputs": [
        {
          "internalType": "address",
          "name": "acceptToken",
          "type": "address"
        }
      ],
      "name": "checkAcceptToken",
      "outputs": [
        {
          "internalType": "bool",
          "name": "",
          "type": "bool"
        }
      ],
      "stateMutability": "view",
      "type": "function"
    },
    {
      "inputs": [
        {
          "internalType": "address",
          "name": "account",
          "type": "address"
        },
        {
          "internalType": "address",
          "name": "token",
          "type": "address"
        },
        {
          "internalType": "uint256",
          "name": "amount",
          "type": "uint256"
        }
      ],
      "name": "checkExclusive",
      "outputs": [
        {
          "internalType": "bool",
          "name": "",
          "type": "bool"
        }
      ],
      "stateMutability": "view",
      "type": "function"
    },
    {
      "inputs": [
        {
          "internalType": "address",
          "name": "user",
          "type": "address"
        },
        {
          "internalType": "uint256",
          "name": "taskId",
          "type": "uint256"
        },
        {
          "internalType": "uint32",
          "name": "num",
          "type": "uint32"
        },
        {
          "internalType": "string",
          "name": "note",
          "type": "string"
        }
      ],
      "name": "checkJoinTask",
      "outputs": [
        {
          "internalType": "bool",
          "name": "",
          "type": "bool"
        }
      ],
      "stateMutability": "view",
      "type": "function"
    },
    {
      "inputs": [
        {
          "internalType": "address",
          "name": "addr",
          "type": "address"
        }
      ],
      "name": "checkNFTContract",
      "outputs": [
        {
          "internalType": "bool",
          "name": "",
          "type": "bool"
        }
      ],
      "stateMutability": "view",
      "type": "function"
    },
    {
      "inputs": [
        {
          "internalType": "address",
          "name": "user",
          "type": "address"
        },
        {
          "components": [
            {
              "internalType": "address",
              "name": "seller",
              "type": "address"
            },
            {
              "internalType": "uint16",
              "name": "nftChainId",
              "type": "uint16"
            },
            {
              "internalType": "address",
              "name": "nftContract",
              "type": "address"
            },
            {
              "internalType": "uint256[]",
              "name": "tokenIds",
              "type": "uint256[]"
            },
            {
              "internalType": "uint256[]",
              "name": "tokenAmounts",
              "type": "uint256[]"
            },
            {
              "internalType": "address",
              "name": "acceptToken",
              "type": "address"
            },
            {
              "internalType": "enum TaskStatus",
              "name": "status",
              "type": "uint8"
            },
            {
              "internalType": "uint256",
              "name": "startTime",
              "type": "uint256"
            },
            {
              "internalType": "uint256",
              "name": "endTime",
              "type": "uint256"
            },
            {
              "internalType": "uint256",
              "name": "targetAmount",
              "type": "uint256"
            },
            {
              "internalType": "uint256",
              "name": "price",
              "type": "uint256"
            },
            {
              "internalType": "uint16",
              "name": "paymentStrategy",
              "type": "uint16"
            },
            {
              "components": [
                {
                  "internalType": "address",
                  "name": "token",
                  "type": "address"
                },
                {
                  "internalType": "uint256",
                  "name": "amount",
                  "type": "uint256"
                }
              ],
              "internalType": "struct ExclusiveToken",
              "name": "exclusiveToken",
              "type": "tuple"
            },
            {
              "internalType": "uint256",
              "name": "amountCollected",
              "type": "uint256"
            },
            {
              "internalType": "uint256",
              "name": "depositId",
              "type": "uint256"
            }
          ],
          "internalType": "struct TaskItem",
          "name": "item",
          "type": "tuple"
        }
      ],
      "name": "checkNewTask",
      "outputs": [
        {
          "internalType": "bool",
          "name": "",
          "type": "bool"
        }
      ],
      "stateMutability": "view",
      "type": "function"
    },
    {
      "inputs": [
        {
          "components": [
            {
              "internalType": "uint16",
              "name": "chainId",
              "type": "uint16"
            },
            {
              "internalType": "string",
              "name": "title",
              "type": "string"
            },
            {
              "internalType": "string",
              "name": "note",
              "type": "string"
            }
          ],
          "internalType": "struct TaskExt",
          "name": "ext",
          "type": "tuple"
        }
      ],
      "name": "checkNewTaskExt",
      "outputs": [
        {
          "internalType": "bool",
          "name": "",
          "type": "bool"
        }
      ],
      "stateMutability": "pure",
      "type": "function"
    },
    {
      "inputs": [
        {
          "components": [
            {
              "internalType": "address",
              "name": "seller",
              "type": "address"
            },
            {
              "internalType": "uint16",
              "name": "nftChainId",
              "type": "uint16"
            },
            {
              "internalType": "address",
              "name": "nftContract",
              "type": "address"
            },
            {
              "internalType": "uint256[]",
              "name": "tokenIds",
              "type": "uint256[]"
            },
            {
              "internalType": "uint256[]",
              "name": "tokenAmounts",
              "type": "uint256[]"
            },
            {
              "internalType": "address",
              "name": "acceptToken",
              "type": "address"
            },
            {
              "internalType": "enum TaskStatus",
              "name": "status",
              "type": "uint8"
            },
            {
              "internalType": "uint256",
              "name": "startTime",
              "type": "uint256"
            },
            {
              "internalType": "uint256",
              "name": "endTime",
              "type": "uint256"
            },
            {
              "internalType": "uint256",
              "name": "targetAmount",
              "type": "uint256"
            },
            {
              "internalType": "uint256",
              "name": "price",
              "type": "uint256"
            },
            {
              "internalType": "uint16",
              "name": "paymentStrategy",
              "type": "uint16"
            },
            {
              "components": [
                {
                  "internalType": "address",
                  "name": "token",
                  "type": "address"
                },
                {
                  "internalType": "uint256",
                  "name": "amount",
                  "type": "uint256"
                }
              ],
              "internalType": "struct ExclusiveToken",
              "name": "exclusiveToken",
              "type": "tuple"
            },
            {
              "internalType": "uint256",
              "name": "amountCollected",
              "type": "uint256"
            },
            {
              "internalType": "uint256",
              "name": "depositId",
              "type": "uint256"
            }
          ],
          "internalType": "struct TaskItem",
          "name": "item",
          "type": "tuple"
        }
      ],
      "name": "checkNewTaskRemote",
      "outputs": [
        {
          "internalType": "bool",
          "name": "",
          "type": "bool"
        }
      ],
      "stateMutability": "view",
      "type": "function"
    },
    {
      "inputs": [
        {
          "internalType": "uint32",
          "name": "num",
          "type": "uint32"
        }
      ],
      "name": "checkPerJoinLimit",
      "outputs": [
        {
          "internalType": "bool",
          "name": "",
          "type": "bool"
        }
      ],
      "stateMutability": "view",
      "type": "function"
    },
    {
      "inputs": [
        {
          "internalType": "address",
          "name": "addr",
          "type": "address"
        },
        {
          "internalType": "address",
          "name": "seller",
          "type": "address"
        },
        {
          "internalType": "uint256[]",
          "name": "tokenIds",
          "type": "uint256[]"
        },
        {
          "internalType": "uint256[]",
          "name": "amounts",
          "type": "uint256[]"
        }
      ],
      "name": "checkTokenListing",
      "outputs": [
        {
          "internalType": "bool",
          "name": "",
          "type": "bool"
        },
        {
          "internalType": "string",
          "name": "",
          "type": "string"
        }
      ],
      "stateMutability": "view",
      "type": "function"
    },
    {
      "inputs": [],
      "name": "feeRecipient",
      "outputs": [
        {
          "internalType": "address",
          "name": "",
          "type": "address"
        }
      ],
      "stateMutability": "view",
      "type": "function"
    },
    {
      "inputs": [],
      "name": "getAutoClose",
      "outputs": [
        {
          "internalType": "contract ILucksAuto",
          "name": "",
          "type": "address"
        }
      ],
      "stateMutability": "view",
      "type": "function"
    },
    {
      "inputs": [],
      "name": "getAutoDraw",
      "outputs": [
        {
          "internalType": "contract ILucksAuto",
          "name": "",
          "type": "address"
        }
      ],
      "stateMutability": "view",
      "type": "function"
    },
    {
      "inputs": [],
      "name": "getDrawDelay",
      "outputs": [
        {
          "internalType": "uint32",
          "name": "",
          "type": "uint32"
        }
      ],
      "stateMutability": "view",
      "type": "function"
    },
    {
      "inputs": [],
      "name": "getGROUPS",
      "outputs": [
        {
          "internalType": "contract ILucksGroup",
          "name": "",
          "type": "address"
        }
      ],
      "stateMutability": "view",
      "type": "function"
    },
    {
      "inputs": [
        {
          "internalType": "address",
          "name": "token",
          "type": "address"
        }
      ],
      "name": "getMinTargetLimit",
      "outputs": [
        {
          "internalType": "uint256",
          "name": "",
          "type": "uint256"
        }
      ],
      "stateMutability": "view",
      "type": "function"
    },
    {
      "inputs": [],
      "name": "getProtocolFee",
      "outputs": [
        {
          "internalType": "uint256",
          "name": "",
          "type": "uint256"
        }
      ],
      "stateMutability": "view",
      "type": "function"
    },
    {
      "inputs": [],
      "name": "getProtocolFeeRecipient",
      "outputs": [
        {
          "internalType": "address",
          "name": "",
          "type": "address"
        }
      ],
      "stateMutability": "view",
      "type": "function"
    },
    {
      "inputs": [],
      "name": "getSTRATEGY",
      "outputs": [
        {
          "internalType": "contract ILucksPaymentStrategy",
          "name": "",
          "type": "address"
        }
      ],
      "stateMutability": "view",
      "type": "function"
    },
    {
      "inputs": [],
      "name": "getVRF",
      "outputs": [
        {
          "internalType": "contract ILucksVRF",
          "name": "",
          "type": "address"
        }
      ],
      "stateMutability": "view",
      "type": "function"
    },
    {
      "inputs": [
        {
          "internalType": "address",
          "name": "",
          "type": "address"
        }
      ],
      "name": "minTargetAmount",
      "outputs": [
        {
          "internalType": "uint256",
          "name": "",
          "type": "uint256"
        }
      ],
      "stateMutability": "view",
      "type": "function"
    },
    {
      "inputs": [
        {
          "internalType": "address",
          "name": "",
          "type": "address"
        }
      ],
      "name": "operators",
      "outputs": [
        {
          "internalType": "bool",
          "name": "",
          "type": "bool"
        }
      ],
      "stateMutability": "view",
      "type": "function"
    },
    {
      "inputs": [],
      "name": "owner",
      "outputs": [
        {
          "internalType": "address",
          "name": "",
          "type": "address"
        }
      ],
      "stateMutability": "view",
      "type": "function"
    },
    {
      "inputs": [],
      "name": "protocolFee",
      "outputs": [
        {
          "internalType": "uint256",
          "name": "",
          "type": "uint256"
        }
      ],
      "stateMutability": "view",
      "type": "function"
    },
    {
      "inputs": [],
      "name": "renounceOwnership",
      "outputs": [],
      "stateMutability": "nonpayable",
      "type": "function"
    },
    {
      "inputs": [
        {
          "internalType": "address[]",
          "name": "tokens",
          "type": "address[]"
        },
        {
          "internalType": "bool",
          "name": "enable",
          "type": "bool"
        }
      ],
      "name": "setAcceptTokens",
      "outputs": [],
      "stateMutability": "nonpayable",
      "type": "function"
    },
    {
      "inputs": [
        {
          "internalType": "uint32",
          "name": "second",
          "type": "uint32"
        }
      ],
      "name": "setDrawDelay",
      "outputs": [],
      "stateMutability": "nonpayable",
      "type": "function"
    },
    {
      "inputs": [
        {
          "internalType": "uint32",
          "name": "num",
          "type": "uint32"
        }
      ],
      "name": "setJoinLimitNum",
      "outputs": [],
      "stateMutability": "nonpayable",
      "type": "function"
    },
    {
      "inputs": [
        {
          "internalType": "contract ILucksAuto",
          "name": "_auto_close",
          "type": "address"
        },
        {
          "internalType": "contract ILucksAuto",
          "name": "_auto_draw",
          "type": "address"
        }
      ],
      "name": "setLucksAuto",
      "outputs": [],
      "stateMutability": "nonpayable",
      "type": "function"
    },
    {
      "inputs": [
        {
          "internalType": "contract ILucksGroup",
          "name": "addr",
          "type": "address"
        }
      ],
      "name": "setLucksGroup",
      "outputs": [],
      "stateMutability": "nonpayable",
      "type": "function"
    },
    {
      "inputs": [
        {
          "internalType": "contract ILucksVRF",
          "name": "addr",
          "type": "address"
        }
      ],
      "name": "setLucksVRF",
      "outputs": [],
      "stateMutability": "nonpayable",
      "type": "function"
    },
    {
      "inputs": [
        {
          "internalType": "address[]",
          "name": "tokens",
          "type": "address[]"
        },
        {
          "internalType": "uint256[]",
          "name": "amounts",
          "type": "uint256[]"
        }
      ],
      "name": "setMinTargetAmount",
      "outputs": [],
      "stateMutability": "nonpayable",
      "type": "function"
    },
    {
      "inputs": [
        {
          "internalType": "address",
          "name": "addr",
          "type": "address"
        },
        {
          "internalType": "bool",
          "name": "enable",
          "type": "bool"
        }
      ],
      "name": "setOperator",
      "outputs": [],
      "stateMutability": "nonpayable",
      "type": "function"
    },
    {
      "inputs": [
        {
          "internalType": "contract ILucksPaymentStrategy",
          "name": "addr",
          "type": "address"
        }
      ],
      "name": "setPaymentStrategy",
      "outputs": [],
      "stateMutability": "nonpayable",
      "type": "function"
    },
    {
      "inputs": [
        {
          "internalType": "uint256",
          "name": "fee",
          "type": "uint256"
        }
      ],
      "name": "setProtocolFee",
      "outputs": [],
      "stateMutability": "nonpayable",
      "type": "function"
    },
    {
      "inputs": [
        {
          "internalType": "address",
          "name": "addr",
          "type": "address"
        }
      ],
      "name": "setProtocolFeeRecipient",
      "outputs": [],
      "stateMutability": "nonpayable",
      "type": "function"
    },
    {
      "inputs": [
        {
          "internalType": "address",
          "name": "newOwner",
          "type": "address"
        }
      ],
      "name": "transferOwnership",
      "outputs": [],
      "stateMutability": "nonpayable",
      "type": "function"
    }
  ],
  "transactionHash": "0xc34918c38f845a3abbaadc1b4b9d89b5d57099581f4e2c3d2994a2a864cff4f2",
  "args": [
    [
      "0x0000000000000000000000000000000000000000"
    ],
    "0x8c623589Ce38936A138a70cCE554553473BbC0f4",
    200,
    "0x4f785fae3C549963340113a1b3670c1fd553e122",
    "0x0000000000000000000000000000000000000000",
    "0x0000000000000000000000000000000000000000",
    "0x0000000000000000000000000000000000000000",
    "0x0000000000000000000000000000000000000000",
    "0x0000000000000000000000000000000000000000"
  ],
  "numDeployments": 1,
  "solcInputHash": "70231f361b17e0bcfd950564ac90e3b4",
  "bytecode": "0x608060405260078054600160a01b600160e01b03191664078000027160a41b17905560c86008553480156200003357600080fd5b5060405162003c4938038062003c49833981016040819052620000569162000239565b6200006133620000f0565b600780546001600160a01b03199081166001600160a01b038b811691909117909255600889905560018054821689841617815560028054831689851617905560038054831688851617905560048054831687851617905560058054831686851617905560068054909216928416929092179055620000e1908a9062000140565b505050505050505050620003fe565b600080546001600160a01b038381166001600160a01b0319831681178455604051919092169283917f8be0079c531659141344cd1fd0a4f28419497f9722a3daafe3b4186f6b6457e09190a35050565b6000546001600160a01b03163314806200016957503360009081526009602052604090205460ff165b620001a95760405162461bcd60e51b815260206004820152600c60248201526b37b7363ca7b832b930ba37b960a11b604482015260640160405180910390fd5b60005b8251811015620002175781600a6000858481518110620001d057620001d0620003d2565b6020908102919091018101516001600160a01b03168252810191909152604001600020805460ff1916911515919091179055806200020e81620003a8565b915050620001ac565b505050565b80516001600160a01b03811681146200023457600080fd5b919050565b60008060008060008060008060006101208a8c0312156200025957600080fd5b89516001600160401b03808211156200027157600080fd5b818c0191508c601f8301126200028657600080fd5b8151818111156200029b576200029b620003e8565b604051601f19603f8360051b011681018181108482111715620002c257620002c2620003e8565b8060405250809250818152602081019250602084018f60208460051b8701011115620002ed57600080fd5b600094505b828510156200031c5762000306816200021c565b84526001949094019360209384019301620002f2565b509b50620003319250505060208b016200021c565b975060408a015196506200034860608b016200021c565b95506200035860808b016200021c565b94506200036860a08b016200021c565b93506200037860c08b016200021c565b92506200038860e08b016200021c565b9150620003996101008b016200021c565b90509295985092959850929598565b6000600019821415620003cb57634e487b7160e01b600052601160045260246000fd5b5060010190565b634e487b7160e01b600052603260045260246000fd5b634e487b7160e01b600052604160045260246000fd5b61383b806200040e6000396000f3fe608060405234801561001057600080fd5b50600436106102ff5760003560e01c80637f994c191161019c578063b19e035f116100ee578063d48ed1a511610097578063e7e46def11610071578063e7e46def146107c3578063edd3159d146107d6578063f2fde38b146107f457600080fd5b8063d48ed1a514610771578063e521cb9214610784578063e67aa0d11461079757600080fd5b8063d12c51f8116100c8578063d12c51f81461070e578063d3a01b0a1461072e578063d45d76b31461074e57600080fd5b8063b19e035f146106ca578063c735fd74146106e8578063cb9b4e12146106fb57600080fd5b80639861b7b111610150578063a126285b1161012a578063a126285b14610699578063a5a41031146106b9578063b0e21e8a146106c157600080fd5b80639861b7b1146106605780639b7ed979146106735780639ef4fdd51461068657600080fd5b80638859e523116101815780638859e523146106115780638da5cb5b1461062457806393f1c9111461064257600080fd5b80637f994c19146105b0578063873360d7146105e957600080fd5b8063350a9e43116102555780636896c5ce11610209578063770ee870116101e3578063770ee8701461056a578063787dce3d1461058a5780637a6bbf181461059d57600080fd5b80636896c5ce14610524578063715018a61461054457806372c8fc0e1461054c57600080fd5b8063469048401161023a57806346904840146104d1578063558a7297146104f1578063630dc7cb1461050457600080fd5b8063350a9e431461047a578063375a32be1461048d57600080fd5b806319af3253116102b75780631e07dbb8116102915780631e07dbb81461042b578063239619751461043e5780633156a58d1461045c57600080fd5b806319af3253146103bc5780631a44f03a146103f75780631a88f8fc1461040a57600080fd5b806313e7c9d8116102e857806313e7c9d8146103415780631750518c14610364578063185025ef1461037757600080fd5b806305b84a7d146103045780630990a98214610319575b600080fd5b610317610312366004612f4d565b610807565b005b61032c610327366004613224565b6108ee565b60405190151581526020015b60405180910390f35b61032c61034f366004612f4d565b60096020526000908152604090205460ff1681565b61032c61037236600461308a565b6109da565b6004546103979073ffffffffffffffffffffffffffffffffffffffff1681565b60405173ffffffffffffffffffffffffffffffffffffffff9091168152602001610338565b6007547801000000000000000000000000000000000000000000000000900463ffffffff165b60405163ffffffff9091168152602001610338565b610317610405366004612f4d565b610f79565b61041d610418366004612f87565b61105b565b60405161033892919061352a565b6103176104393660046134a4565b61150f565b60055473ffffffffffffffffffffffffffffffffffffffff16610397565b60065473ffffffffffffffffffffffffffffffffffffffff16610397565b610317610488366004612f4d565b6115f9565b6104c361049b366004612f4d565b73ffffffffffffffffffffffffffffffffffffffff166000908152600b602052604090205490565b604051908152602001610338565b6007546103979073ffffffffffffffffffffffffffffffffffffffff1681565b6103176104ff366004613051565b6116db565b6001546103979073ffffffffffffffffffffffffffffffffffffffff1681565b6005546103979073ffffffffffffffffffffffffffffffffffffffff1681565b6103176117b2565b60075473ffffffffffffffffffffffffffffffffffffffff16610397565b6104c3610578366004612f4d565b600b6020526000908152604090205481565b610317610598366004613472565b61183f565b6103176105ab3660046134a4565b6118c5565b61032c6105be366004612f4d565b73ffffffffffffffffffffffffffffffffffffffff166000908152600a602052604090205460ff1690565b6007546103e29074010000000000000000000000000000000000000000900463ffffffff1681565b61032c61061f366004612f4d565b6119b3565b60005473ffffffffffffffffffffffffffffffffffffffff16610397565b60045473ffffffffffffffffffffffffffffffffffffffff16610397565b61032c61066e3660046134a4565b611c3c565b6103176106813660046131f6565b611c99565b61032c610694366004613010565b611d87565b6002546103979073ffffffffffffffffffffffffffffffffffffffff1681565b6008546104c3565b6104c360085481565b60035473ffffffffffffffffffffffffffffffffffffffff16610397565b61032c6106f63660046132de565b611f83565b610317610709366004613192565b612181565b6003546103979073ffffffffffffffffffffffffffffffffffffffff1681565b6006546103979073ffffffffffffffffffffffffffffffffffffffff1681565b61032c61075c366004612f4d565b600a6020526000908152604090205460ff1681565b61031761077f366004613138565b6122b3565b610317610792366004612f4d565b6123e3565b6007546103e2907801000000000000000000000000000000000000000000000000900463ffffffff1681565b61032c6107d13660046130da565b6124ab565b60025473ffffffffffffffffffffffffffffffffffffffff16610397565b610317610802366004612f4d565b6129bc565b60005473ffffffffffffffffffffffffffffffffffffffff1633148061083c57503360009081526009602052604090205460ff165b6108a7576040517f08c379a000000000000000000000000000000000000000000000000000000000815260206004820152600c60248201527f6f6e6c794f70657261746f72000000000000000000000000000000000000000060448201526064015b60405180910390fd5b600380547fffffffffffffffffffffffff00000000000000000000000000000000000000001673ffffffffffffffffffffffffffffffffffffffff92909216919091179055565b60006101008260200151511115610961576040517f08c379a000000000000000000000000000000000000000000000000000000000815260206004820152601160248201527f496e76616c696420657874207469746c65000000000000000000000000000000604482015260640161089e565b61010082604001515111156109d2576040517f08c379a000000000000000000000000000000000000000000000000000000000815260206004820152601060248201527f496e76616c696420657874206e6f746500000000000000000000000000000000604482015260640161089e565b506001919050565b805160009073ffffffffffffffffffffffffffffffffffffffff1615801590610a3257508273ffffffffffffffffffffffffffffffffffffffff16826000015173ffffffffffffffffffffffffffffffffffffffff16145b610a98576040517f08c379a000000000000000000000000000000000000000000000000000000000815260206004820152601660248201527f496e76616c69642073656c6c6572206164647265737300000000000000000000604482015260640161089e565b6000826020015161ffff1611610b0a576040517f08c379a000000000000000000000000000000000000000000000000000000000815260206004820152601260248201527f496e76616c6964206e6674436861696e49640000000000000000000000000000604482015260640161089e565b600082606001515111610b79576040517f08c379a000000000000000000000000000000000000000000000000000000000815260206004820152600e60248201527f456d70747920746f6b656e496473000000000000000000000000000000000000604482015260640161089e565b8161010001514210610be7576040517f08c379a000000000000000000000000000000000000000000000000000000000815260206004820152601260248201527f496e76616c69642074696d652072616e67650000000000000000000000000000604482015260640161089e565b62014a7842836101000151610bfc9190613669565b11610c63576040517f08c379a000000000000000000000000000000000000000000000000000000000815260206004820152601260248201527f4475726174696f6e20746f6f2073686f72740000000000000000000000000000604482015260640161089e565b6228de8042836101000151610c789190613669565b10610cdf576040517f08c379a000000000000000000000000000000000000000000000000000000000815260206004820152601160248201527f4475726174696f6e20746f6f206c6f6e67000000000000000000000000000000604482015260640161089e565b6000826101400151118015610cfd5750816101200151826101400151105b8015610d1b5750610140820151610120830151610d1991612aec565b155b610d81576040517f08c379a000000000000000000000000000000000000000000000000000000000815260206004820152601d60248201527f496e76616c6964207072696365206f7220746172676574416d6f756e74000000604482015260640161089e565b6000610da0836101400151846101200151612af890919063ffffffff16565b9050600081118015610db55750620186a08111155b8015610dc95750610dc781600a612aec565b155b610e2f576040517f08c379a000000000000000000000000000000000000000000000000000000000815260206004820152600b60248201527f496e76616c6964206e756d000000000000000000000000000000000000000000604482015260640161089e565b6101a083015115610e9c576040517f08c379a000000000000000000000000000000000000000000000000000000000815260206004820152601760248201527f496e76616c696420616d6f756e74436f6c6c6563746564000000000000000000604482015260640161089e565b610ea983604001516119b3565b610f0f576040517f08c379a000000000000000000000000000000000000000000000000000000000815260206004820152601360248201527f496e76616c6964206e6674436f6e747261637400000000000000000000000000604482015260640161089e565b600080610f2e856040015186600001518760600151886080015161105b565b91509150818190610f6c576040517f08c379a000000000000000000000000000000000000000000000000000000000815260040161089e9190613545565b5060019695505050505050565b60005473ffffffffffffffffffffffffffffffffffffffff16331480610fae57503360009081526009602052604090205460ff165b611014576040517f08c379a000000000000000000000000000000000000000000000000000000000815260206004820152600c60248201527f6f6e6c794f70657261746f720000000000000000000000000000000000000000604482015260640161089e565b600480547fffffffffffffffffffffffff00000000000000000000000000000000000000001673ffffffffffffffffffffffffffffffffffffffff92909216919091179055565b6040517f01ffc9a70000000000000000000000000000000000000000000000000000000081527f80ac58cd00000000000000000000000000000000000000000000000000000000600482015260009060609073ffffffffffffffffffffffffffffffffffffffff8716906301ffc9a79060240160206040518083038186803b1580156110e657600080fd5b505afa1580156110fa573d6000803e3d6000fd5b505050506040513d601f19601f8201168201806040525081019061111e91906131d9565b1561125c5760005b8451811015611256578573ffffffffffffffffffffffffffffffffffffffff168773ffffffffffffffffffffffffffffffffffffffff16636352211e8784815181106111745761117461375a565b60200260200101516040518263ffffffff1660e01b815260040161119a91815260200190565b60206040518083038186803b1580156111b257600080fd5b505afa1580156111c6573d6000803e3d6000fd5b505050506040513d601f19601f820116820180604052508101906111ea9190612f6a565b73ffffffffffffffffffffffffffffffffffffffff161461124457505060408051808201909152601981527f546f6b656e206c6973746564206f72206e6f74206f776e657200000000000000602082015260009150611506565b8061124e81613680565b915050611126565b506114f1565b6040517f01ffc9a70000000000000000000000000000000000000000000000000000000081527fd9b67a2600000000000000000000000000000000000000000000000000000000600482015273ffffffffffffffffffffffffffffffffffffffff8716906301ffc9a79060240160206040518083038186803b1580156112e157600080fd5b505afa1580156112f5573d6000803e3d6000fd5b505050506040513d601f19601f8201168201806040525081019061131991906131d9565b156114f1578251845114611389576040517f08c379a000000000000000000000000000000000000000000000000000000000815260206004820152600f60248201527f496e76616c696420696473206c656e0000000000000000000000000000000000604482015260640161089e565b60005b84518110156114ef578381815181106113a7576113a761375a565b60200260200101518773ffffffffffffffffffffffffffffffffffffffff1662fdd58e888885815181106113dd576113dd61375a565b60200260200101516040518363ffffffff1660e01b815260040161142392919073ffffffffffffffffffffffffffffffffffffffff929092168252602082015260400190565b60206040518083038186803b15801561143b57600080fd5b505afa15801561144f573d6000803e3d6000fd5b505050506040513d601f19601f82011682018060405250810190611473919061348b565b1015801561149a575060008482815181106114905761149061375a565b6020026020010151115b6114dd57505060408051808201909152601981527f496e76616c696420616d6f756e74206f722062616c616e636500000000000000602082015260009150611506565b806114e781613680565b91505061138c565b505b50506040805160208101909152600081526001905b94509492505050565b60005473ffffffffffffffffffffffffffffffffffffffff1633148061154457503360009081526009602052604090205460ff165b6115aa576040517f08c379a000000000000000000000000000000000000000000000000000000000815260206004820152600c60248201527f6f6e6c794f70657261746f720000000000000000000000000000000000000000604482015260640161089e565b6007805463ffffffff90921674010000000000000000000000000000000000000000027fffffffffffffffff00000000ffffffffffffffffffffffffffffffffffffffff909216919091179055565b60005473ffffffffffffffffffffffffffffffffffffffff1633148061162e57503360009081526009602052604090205460ff165b611694576040517f08c379a000000000000000000000000000000000000000000000000000000000815260206004820152600c60248201527f6f6e6c794f70657261746f720000000000000000000000000000000000000000604482015260640161089e565b600280547fffffffffffffffffffffffff00000000000000000000000000000000000000001673ffffffffffffffffffffffffffffffffffffffff92909216919091179055565b60005473ffffffffffffffffffffffffffffffffffffffff16331461175c576040517f08c379a000000000000000000000000000000000000000000000000000000000815260206004820181905260248201527f4f776e61626c653a2063616c6c6572206973206e6f7420746865206f776e6572604482015260640161089e565b73ffffffffffffffffffffffffffffffffffffffff91909116600090815260096020526040902080547fffffffffffffffffffffffffffffffffffffffffffffffffffffffffffffff0016911515919091179055565b60005473ffffffffffffffffffffffffffffffffffffffff163314611833576040517f08c379a000000000000000000000000000000000000000000000000000000000815260206004820181905260248201527f4f776e61626c653a2063616c6c6572206973206e6f7420746865206f776e6572604482015260640161089e565b61183d6000612b04565b565b60005473ffffffffffffffffffffffffffffffffffffffff1633146118c0576040517f08c379a000000000000000000000000000000000000000000000000000000000815260206004820181905260248201527f4f776e61626c653a2063616c6c6572206973206e6f7420746865206f776e6572604482015260640161089e565b600855565b60005473ffffffffffffffffffffffffffffffffffffffff163314806118fa57503360009081526009602052604090205460ff165b611960576040517f08c379a000000000000000000000000000000000000000000000000000000000815260206004820152600c60248201527f6f6e6c794f70657261746f720000000000000000000000000000000000000000604482015260640161089e565b6007805463ffffffff9092167801000000000000000000000000000000000000000000000000027fffffffff00000000ffffffffffffffffffffffffffffffffffffffffffffffff909216919091179055565b600073ffffffffffffffffffffffffffffffffffffffff8216158015906119f0575073ffffffffffffffffffffffffffffffffffffffff82163b15155b611a56576040517f08c379a000000000000000000000000000000000000000000000000000000000815260206004820152601360248201527f496e76616c6964206e6674436f6e747261637400000000000000000000000000604482015260640161089e565b6040517f01ffc9a70000000000000000000000000000000000000000000000000000000081527f80ac58cd00000000000000000000000000000000000000000000000000000000600482015273ffffffffffffffffffffffffffffffffffffffff8316906301ffc9a79060240160206040518083038186803b158015611adb57600080fd5b505afa158015611aef573d6000803e3d6000fd5b505050506040513d601f19601f82011682018060405250810190611b1391906131d9565b80611bd657506040517f01ffc9a70000000000000000000000000000000000000000000000000000000081527fd9b67a2600000000000000000000000000000000000000000000000000000000600482015273ffffffffffffffffffffffffffffffffffffffff8316906301ffc9a79060240160206040518083038186803b158015611b9e57600080fd5b505afa158015611bb2573d6000803e3d6000fd5b505050506040513d601f19601f82011682018060405250810190611bd691906131d9565b6109d2576040517f08c379a000000000000000000000000000000000000000000000000000000000815260206004820152601060248201527f496e76616c696420636f6e747261637400000000000000000000000000000000604482015260640161089e565b60075460009060017401000000000000000000000000000000000000000090910463ffffffff161080611c93575060075463ffffffff74010000000000000000000000000000000000000000909104811690831611155b92915050565b60005473ffffffffffffffffffffffffffffffffffffffff16331480611cce57503360009081526009602052604090205460ff165b611d34576040517f08c379a000000000000000000000000000000000000000000000000000000000815260206004820152600c60248201527f6f6e6c794f70657261746f720000000000000000000000000000000000000000604482015260640161089e565b6005805473ffffffffffffffffffffffffffffffffffffffff9384167fffffffffffffffffffffffff00000000000000000000000000000000000000009182161790915560068054929093169116179055565b60008082118015611dae575073ffffffffffffffffffffffffffffffffffffffff83163b15155b15611f78576040517f01ffc9a70000000000000000000000000000000000000000000000000000000081527f80ac58cd00000000000000000000000000000000000000000000000000000000600482015273ffffffffffffffffffffffffffffffffffffffff8416906301ffc9a79060240160206040518083038186803b158015611e3857600080fd5b505afa158015611e4c573d6000803e3d6000fd5b505050506040513d601f19601f82011682018060405250810190611e7091906131d9565b15611f21576040517f70a0823100000000000000000000000000000000000000000000000000000000815273ffffffffffffffffffffffffffffffffffffffff85811660048301528391908516906370a08231906024015b60206040518083038186803b158015611ee057600080fd5b505afa158015611ef4573d6000803e3d6000fd5b505050506040513d601f19601f82011682018060405250810190611f18919061348b565b10159050611f7c565b6040517f70a0823100000000000000000000000000000000000000000000000000000000815273ffffffffffffffffffffffffffffffffffffffff85811660048301528391908516906370a0823190602401611ec8565b5060015b9392505050565b6101808101515160009073ffffffffffffffffffffffffffffffffffffffff1615801590611fba5750600082610180015160200151115b15612043576101808201515173ffffffffffffffffffffffffffffffffffffffff163b612043576040517f08c379a000000000000000000000000000000000000000000000000000000000815260206004820152601660248201527f496e76616c6964206578636c7573697665546f6b656e00000000000000000000604482015260640161089e565b60a082015173ffffffffffffffffffffffffffffffffffffffff166000908152600a602052604090205460ff166120d6576040517f08c379a000000000000000000000000000000000000000000000000000000000815260206004820152601760248201527f556e737570706f7274656420616363657074546f6b656e000000000000000000604482015260640161089e565b60a082015173ffffffffffffffffffffffffffffffffffffffff166000908152600b602052604090205480158061211257508083610120015110155b612178576040517f08c379a000000000000000000000000000000000000000000000000000000000815260206004820152601060248201527f54617267657420746f6f20736d616c6c00000000000000000000000000000000604482015260640161089e565b50600192915050565b60005473ffffffffffffffffffffffffffffffffffffffff163314806121b657503360009081526009602052604090205460ff165b61221c576040517f08c379a000000000000000000000000000000000000000000000000000000000815260206004820152600c60248201527f6f6e6c794f70657261746f720000000000000000000000000000000000000000604482015260640161089e565b60005b82518110156122ae5781600a600085848151811061223f5761223f61375a565b60209081029190910181015173ffffffffffffffffffffffffffffffffffffffff16825281019190915260400160002080547fffffffffffffffffffffffffffffffffffffffffffffffffffffffffffffff0016911515919091179055806122a681613680565b91505061221f565b505050565b60005473ffffffffffffffffffffffffffffffffffffffff163314806122e857503360009081526009602052604090205460ff165b61234e576040517f08c379a000000000000000000000000000000000000000000000000000000000815260206004820152600c60248201527f6f6e6c794f70657261746f720000000000000000000000000000000000000000604482015260640161089e565b60005b82518110156122ae5781818151811061236c5761236c61375a565b6020026020010151600b600085848151811061238a5761238a61375a565b602002602001015173ffffffffffffffffffffffffffffffffffffffff1673ffffffffffffffffffffffffffffffffffffffff1681526020019081526020016000208190555080806123db90613680565b915050612351565b60005473ffffffffffffffffffffffffffffffffffffffff163314612464576040517f08c379a000000000000000000000000000000000000000000000000000000000815260206004820181905260248201527f4f776e61626c653a2063616c6c6572206973206e6f7420746865206f776e6572604482015260640161089e565b600780547fffffffffffffffffffffffff00000000000000000000000000000000000000001673ffffffffffffffffffffffffffffffffffffffff92909216919091179055565b60006101008251111561251a576040517f08c379a000000000000000000000000000000000000000000000000000000000815260206004820152600e60248201527f4e6f746520746f6f206c61726765000000000000000000000000000000000000604482015260640161089e565b61252383611c3c565b612589576040517f08c379a000000000000000000000000000000000000000000000000000000000815260206004820152600f60248201527f4f766572206a6f696e206c696d69740000000000000000000000000000000000604482015260640161089e565b60008363ffffffff16116125f9576040517f08c379a000000000000000000000000000000000000000000000000000000000815260206004820152600b60248201527f496e76616c6964206e756d000000000000000000000000000000000000000000604482015260640161089e565b6001546040517f1d65e77e0000000000000000000000000000000000000000000000000000000081526004810186905260009173ffffffffffffffffffffffffffffffffffffffff1690631d65e77e9060240160006040518083038186803b15801561266457600080fd5b505afa158015612678573d6000803e3d6000fd5b505050506040513d6000823e601f3d9081017fffffffffffffffffffffffffffffffffffffffffffffffffffffffffffffffe01682016040526126be919081019061331b565b90508573ffffffffffffffffffffffffffffffffffffffff16816000015173ffffffffffffffffffffffffffffffffffffffff16141561275a576040517f08c379a000000000000000000000000000000000000000000000000000000000815260206004820152600f60248201527f4e6f7420616c6c6f77206f776e65720000000000000000000000000000000000604482015260640161089e565b8060e00151421015801561277357508061010001514211155b6127d9576040517f08c379a000000000000000000000000000000000000000000000000000000000815260206004820152601260248201527f496e76616c69642074696d652072616e67650000000000000000000000000000604482015260640161089e565b60008160c0015160058111156127f1576127f161372b565b1480612812575060018160c0015160058111156128105761281061372b565b145b612878576040517f08c379a000000000000000000000000000000000000000000000000000000000815260206004820152600e60248201527f496e76616c696420737461747573000000000000000000000000000000000000604482015260640161089e565b60006128988563ffffffff16836101400151612b7990919063ffffffff16565b905060008111612904576040517f08c379a000000000000000000000000000000000000000000000000000000000815260206004820152600e60248201527f496e76616c696420616d6f756e74000000000000000000000000000000000000604482015260640161089e565b6101808201515173ffffffffffffffffffffffffffffffffffffffff16158015906129385750600082610180015160200151115b15610f6c576101808201518051602090910151612956918991611d87565b610f6c576040517f08c379a000000000000000000000000000000000000000000000000000000000815260206004820152601260248201527f4e6f742070617373204558434c55534956450000000000000000000000000000604482015260640161089e565b60005473ffffffffffffffffffffffffffffffffffffffff163314612a3d576040517f08c379a000000000000000000000000000000000000000000000000000000000815260206004820181905260248201527f4f776e61626c653a2063616c6c6572206973206e6f7420746865206f776e6572604482015260640161089e565b73ffffffffffffffffffffffffffffffffffffffff8116612ae0576040517f08c379a000000000000000000000000000000000000000000000000000000000815260206004820152602660248201527f4f776e61626c653a206e6577206f776e657220697320746865207a65726f206160448201527f6464726573730000000000000000000000000000000000000000000000000000606482015260840161089e565b612ae981612b04565b50565b6000611f7c82846136b9565b6000611f7c8284613618565b6000805473ffffffffffffffffffffffffffffffffffffffff8381167fffffffffffffffffffffffff0000000000000000000000000000000000000000831681178455604051919092169283917f8be0079c531659141344cd1fd0a4f28419497f9722a3daafe3b4186f6b6457e09190a35050565b6000611f7c828461362c565b8035612b90816137b8565b919050565b8051612b90816137b8565b600082601f830112612bb157600080fd5b81356020612bc6612bc1836135f4565b6135a5565b80838252828201915082860187848660051b8901011115612be657600080fd5b60005b85811015612c0e578135612bfc816137b8565b84529284019290840190600101612be9565b5090979650505050505050565b600082601f830112612c2c57600080fd5b81356020612c3c612bc1836135f4565b80838252828201915082860187848660051b8901011115612c5c57600080fd5b60005b85811015612c0e57813584529284019290840190600101612c5f565b600082601f830112612c8c57600080fd5b81516020612c9c612bc1836135f4565b80838252828201915082860187848660051b8901011115612cbc57600080fd5b60005b85811015612c0e57815184529284019290840190600101612cbf565b8035612b90816137e8565b8051612b90816137e8565b600082601f830112612d0257600080fd5b813567ffffffffffffffff811115612d1c57612d1c613789565b612d4d60207fffffffffffffffffffffffffffffffffffffffffffffffffffffffffffffffe0601f840116016135a5565b818152846020838601011115612d6257600080fd5b816020850160208301376000918101602001919091529392505050565b600060408284031215612d9157600080fd5b612d99613558565b90508135612da6816137b8565b808252506020820135602082015292915050565b600060408284031215612dcc57600080fd5b612dd4613558565b90508151612de1816137b8565b808252506020820151602082015292915050565b60006102008284031215612e0857600080fd5b612e10613581565b9050612e1b82612b85565b8152612e2960208301612f23565b6020820152612e3a60408301612b85565b6040820152606082013567ffffffffffffffff80821115612e5a57600080fd5b612e6685838601612c1b565b60608401526080840135915080821115612e7f57600080fd5b50612e8c84828501612c1b565b608083015250612e9e60a08301612b85565b60a0820152612eaf60c08301612cdb565b60c082015260e08281013590820152610100808301359082015261012080830135908201526101408083013590820152610160612eed818401612f23565b90820152610180612f0084848301612d7f565b81830152506101c0808301356101a08301526101e0830135818301525092915050565b8035612b90816137f5565b8051612b90816137f5565b803563ffffffff81168114612b9057600080fd5b600060208284031215612f5f57600080fd5b8135611f7c816137b8565b600060208284031215612f7c57600080fd5b8151611f7c816137b8565b60008060008060808587031215612f9d57600080fd5b8435612fa8816137b8565b93506020850135612fb8816137b8565b9250604085013567ffffffffffffffff80821115612fd557600080fd5b612fe188838901612c1b565b93506060870135915080821115612ff757600080fd5b5061300487828801612c1b565b91505092959194509250565b60008060006060848603121561302557600080fd5b8335613030816137b8565b92506020840135613040816137b8565b929592945050506040919091013590565b6000806040838503121561306457600080fd5b823561306f816137b8565b9150602083013561307f816137da565b809150509250929050565b6000806040838503121561309d57600080fd5b82356130a8816137b8565b9150602083013567ffffffffffffffff8111156130c457600080fd5b6130d085828601612df5565b9150509250929050565b600080600080608085870312156130f057600080fd5b84356130fb816137b8565b93506020850135925061311060408601612f39565b9150606085013567ffffffffffffffff81111561312c57600080fd5b61300487828801612cf1565b6000806040838503121561314b57600080fd5b823567ffffffffffffffff8082111561316357600080fd5b61316f86838701612ba0565b9350602085013591508082111561318557600080fd5b506130d085828601612c1b565b600080604083850312156131a557600080fd5b823567ffffffffffffffff8111156131bc57600080fd5b6131c885828601612ba0565b925050602083013561307f816137da565b6000602082840312156131eb57600080fd5b8151611f7c816137da565b6000806040838503121561320957600080fd5b8235613214816137b8565b9150602083013561307f816137b8565b60006020828403121561323657600080fd5b813567ffffffffffffffff8082111561324e57600080fd5b908301906060828603121561326257600080fd5b60405160608101818110838211171561327d5761327d613789565b604052823561328b816137f5565b815260208301358281111561329f57600080fd5b6132ab87828601612cf1565b6020830152506040830135828111156132c357600080fd5b6132cf87828601612cf1565b60408301525095945050505050565b6000602082840312156132f057600080fd5b813567ffffffffffffffff81111561330757600080fd5b61331384828501612df5565b949350505050565b60006020828403121561332d57600080fd5b815167ffffffffffffffff8082111561334557600080fd5b90830190610200828603121561335a57600080fd5b613362613581565b61336b83612b95565b815261337960208401612f2e565b602082015261338a60408401612b95565b60408201526060830151828111156133a157600080fd5b6133ad87828601612c7b565b6060830152506080830151828111156133c557600080fd5b6133d187828601612c7b565b6080830152506133e360a08401612b95565b60a08201526133f460c08401612ce6565b60c082015260e083810151908201526101008084015190820152610120808401519082015261014080840151908201526101609150613434828401612f2e565b82820152610180915061344986838501612dba565b828201526101c09150818301516101a08201526101e08301518282015280935050505092915050565b60006020828403121561348457600080fd5b5035919050565b60006020828403121561349d57600080fd5b5051919050565b6000602082840312156134b657600080fd5b611f7c82612f39565b6000815180845260005b818110156134e5576020818501810151868301820152016134c9565b818111156134f7576000602083870101525b50601f017fffffffffffffffffffffffffffffffffffffffffffffffffffffffffffffffe0169290920160200192915050565b821515815260406020820152600061331360408301846134bf565b602081526000611f7c60208301846134bf565b6040805190810167ffffffffffffffff8111828210171561357b5761357b613789565b60405290565b6040516101e0810167ffffffffffffffff8111828210171561357b5761357b613789565b604051601f82017fffffffffffffffffffffffffffffffffffffffffffffffffffffffffffffffe016810167ffffffffffffffff811182821017156135ec576135ec613789565b604052919050565b600067ffffffffffffffff82111561360e5761360e613789565b5060051b60200190565b600082613627576136276136fc565b500490565b6000817fffffffffffffffffffffffffffffffffffffffffffffffffffffffffffffffff0483118215151615613664576136646136cd565b500290565b60008282101561367b5761367b6136cd565b500390565b60007fffffffffffffffffffffffffffffffffffffffffffffffffffffffffffffffff8214156136b2576136b26136cd565b5060010190565b6000826136c8576136c86136fc565b500690565b7f4e487b7100000000000000000000000000000000000000000000000000000000600052601160045260246000fd5b7f4e487b7100000000000000000000000000000000000000000000000000000000600052601260045260246000fd5b7f4e487b7100000000000000000000000000000000000000000000000000000000600052602160045260246000fd5b7f4e487b7100000000000000000000000000000000000000000000000000000000600052603260045260246000fd5b7f4e487b7100000000000000000000000000000000000000000000000000000000600052604160045260246000fd5b73ffffffffffffffffffffffffffffffffffffffff81168114612ae957600080fd5b8015158114612ae957600080fd5b60068110612ae957600080fd5b61ffff81168114612ae957600080fdfea2646970667358221220604b5d1cc3f29f4fba63756bcb288297cfa71c9305b31e5eff81d6cd5fcdeba464736f6c63430008060033",
  "devdoc": {
    "kind": "dev",
    "methods": {
      "checkAcceptToken(address)": {
        "params": {
          "acceptToken": "token address, blockchain token is address(0)"
        },
        "returns": {
          "_0": "bool"
        }
      },
      "checkTokenListing(address,address,uint256[],uint256[])": {
        "params": {
          "addr": "NFT contract address",
          "amounts": "tokenId amount array (ERC721 can be null)",
          "tokenIds": "tokenId array"
        }
      },
      "getProtocolFee()": {
        "returns": {
          "_0": "fee (200 = 25%, 1,000 = 10%)"
        }
      },
      "owner()": {
        "details": "Returns the address of the current owner."
      },
      "renounceOwnership()": {
        "details": "Leaves the contract without owner. It will not be possible to call `onlyOwner` functions anymore. Can only be called by the current owner. NOTE: Renouncing ownership will leave the contract without an owner, thereby removing any functionality that is only available to the owner."
      },
      "setProtocolFee(uint256)": {
        "params": {
          "fee": "fee (500 = 5%, 1,000 = 10%)"
        }
      },
      "transferOwnership(address)": {
        "details": "Transfers ownership of the contract to a new account (`newOwner`). Can only be called by the current owner."
      }
    },
    "title": "Openluck LucksHelper.",
    "version": 1
  },
  "userdoc": {
    "kind": "user",
    "methods": {
      "checkAcceptToken(address)": {
        "notice": "check acceptToken support"
      },
      "checkNFTContract(address)": {
        "notice": "check nft contract, support erc721 & erc1155"
      },
      "checkNewTask(address,(address,uint16,address,uint256[],uint256[],address,uint8,uint256,uint256,uint256,uint256,uint16,(address,uint256),uint256,uint256))": {
        "notice": "check the new task inputs"
      },
      "checkTokenListing(address,address,uint256[],uint256[])": {
        "notice": "checking seller listing NFTs ownership and balance"
      },
      "getDrawDelay()": {
        "notice": "get Draw Delay second for security"
      },
      "getGROUPS()": {
        "notice": "get ILucksGroup instance  "
      },
      "getProtocolFee()": {
        "notice": "get protocol fee for eache success TaskItem payment, default is 2%"
      },
      "getSTRATEGY()": {
        "notice": "get ILucksPaymentStrategy instance  "
      },
      "getVRF()": {
        "notice": "get ILucksVRF instance  "
      },
      "setAcceptTokens(address[],bool)": {
        "notice": "set the acceptTokens"
      },
      "setDrawDelay(uint32)": {
        "notice": "set Draw Delay for security"
      },
      "setJoinLimitNum(uint32)": {
        "notice": "set the set MAX_PER_JOIN_NUM"
      },
      "setLucksGroup(address)": {
        "notice": "set the LucksGroup"
      },
      "setLucksVRF(address)": {
        "notice": "set the VRF"
      },
      "setOperator(address,bool)": {
        "notice": "set operator"
      },
      "setPaymentStrategy(address)": {
        "notice": "set the PaymentStrategy"
      },
      "setProtocolFee(uint256)": {
        "notice": "set protocol fee for eache success TaskItem payment, default is 5%"
      },
      "setProtocolFeeRecipient(address)": {
        "notice": "set the ProtocolFeeRecipient"
      }
    },
    "notice": "It is the contract for protocol settings",
    "version": 1
  },
  "storageLayout": {
    "storage": [
      {
        "astId": 307,
        "contract": "contracts/lucks/LucksHelper.sol:LucksHelper",
        "label": "_owner",
        "offset": 0,
        "slot": "0",
        "type": "t_address"
      },
      {
        "astId": 13778,
        "contract": "contracts/lucks/LucksHelper.sol:LucksHelper",
        "label": "EXECUTOR",
        "offset": 0,
        "slot": "1",
        "type": "t_contract(ILucksExecutor)9290"
      },
      {
        "astId": 13781,
        "contract": "contracts/lucks/LucksHelper.sol:LucksHelper",
        "label": "VRF",
        "offset": 0,
        "slot": "2",
        "type": "t_contract(ILucksVRF)9639"
      },
      {
        "astId": 13784,
        "contract": "contracts/lucks/LucksHelper.sol:LucksHelper",
        "label": "GROUPS",
        "offset": 0,
        "slot": "3",
        "type": "t_contract(ILucksGroup)9344"
      },
      {
        "astId": 13787,
        "contract": "contracts/lucks/LucksHelper.sol:LucksHelper",
        "label": "STRATEGY",
        "offset": 0,
        "slot": "4",
        "type": "t_contract(ILucksPaymentStrategy)9526"
      },
      {
        "astId": 13790,
        "contract": "contracts/lucks/LucksHelper.sol:LucksHelper",
        "label": "AUTO_CLOSE",
        "offset": 0,
        "slot": "5",
        "type": "t_contract(ILucksAuto)8931"
      },
      {
        "astId": 13793,
        "contract": "contracts/lucks/LucksHelper.sol:LucksHelper",
        "label": "AUTO_DRAW",
        "offset": 0,
        "slot": "6",
        "type": "t_contract(ILucksAuto)8931"
      },
      {
        "astId": 13795,
        "contract": "contracts/lucks/LucksHelper.sol:LucksHelper",
        "label": "feeRecipient",
        "offset": 0,
        "slot": "7",
        "type": "t_address"
      },
      {
        "astId": 13798,
        "contract": "contracts/lucks/LucksHelper.sol:LucksHelper",
        "label": "MAX_PER_JOIN_NUM",
        "offset": 20,
        "slot": "7",
        "type": "t_uint32"
      },
      {
        "astId": 13801,
        "contract": "contracts/lucks/LucksHelper.sol:LucksHelper",
        "label": "DRAW_DELAY_SEC",
        "offset": 24,
        "slot": "7",
        "type": "t_uint32"
      },
      {
        "astId": 13804,
        "contract": "contracts/lucks/LucksHelper.sol:LucksHelper",
        "label": "protocolFee",
        "offset": 0,
        "slot": "8",
        "type": "t_uint256"
      },
      {
        "astId": 13808,
        "contract": "contracts/lucks/LucksHelper.sol:LucksHelper",
        "label": "operators",
        "offset": 0,
        "slot": "9",
        "type": "t_mapping(t_address,t_bool)"
      },
      {
        "astId": 13812,
        "contract": "contracts/lucks/LucksHelper.sol:LucksHelper",
        "label": "acceptTokens",
        "offset": 0,
        "slot": "10",
        "type": "t_mapping(t_address,t_bool)"
      },
      {
        "astId": 13816,
        "contract": "contracts/lucks/LucksHelper.sol:LucksHelper",
        "label": "minTargetAmount",
        "offset": 0,
        "slot": "11",
        "type": "t_mapping(t_address,t_uint256)"
      }
    ],
    "types": {
      "t_address": {
        "encoding": "inplace",
        "label": "address",
        "numberOfBytes": "20"
      },
      "t_bool": {
        "encoding": "inplace",
        "label": "bool",
        "numberOfBytes": "1"
      },
      "t_contract(ILucksAuto)8931": {
        "encoding": "inplace",
        "label": "contract ILucksAuto",
        "numberOfBytes": "20"
      },
      "t_contract(ILucksExecutor)9290": {
        "encoding": "inplace",
        "label": "contract ILucksExecutor",
        "numberOfBytes": "20"
      },
      "t_contract(ILucksGroup)9344": {
        "encoding": "inplace",
        "label": "contract ILucksGroup",
        "numberOfBytes": "20"
      },
      "t_contract(ILucksPaymentStrategy)9526": {
        "encoding": "inplace",
        "label": "contract ILucksPaymentStrategy",
        "numberOfBytes": "20"
      },
      "t_contract(ILucksVRF)9639": {
        "encoding": "inplace",
        "label": "contract ILucksVRF",
        "numberOfBytes": "20"
      },
      "t_mapping(t_address,t_bool)": {
        "encoding": "mapping",
        "key": "t_address",
        "label": "mapping(address => bool)",
        "numberOfBytes": "32",
        "value": "t_bool"
      },
      "t_mapping(t_address,t_uint256)": {
        "encoding": "mapping",
        "key": "t_address",
        "label": "mapping(address => uint256)",
        "numberOfBytes": "32",
        "value": "t_uint256"
      },
      "t_uint256": {
        "encoding": "inplace",
        "label": "uint256",
        "numberOfBytes": "32"
      },
      "t_uint32": {
        "encoding": "inplace",
        "label": "uint32",
        "numberOfBytes": "4"
      }
    }
  }
}