{
  "address": "0x388dfB3A59786442A465a49C98B260a0022997Da",
  "abi": [
    {
      "inputs": [
        {
          "internalType": "address",
          "name": "_executor",
          "type": "address"
        }
      ],
      "stateMutability": "nonpayable",
      "type": "constructor"
    },
    {
      "anonymous": false,
      "inputs": [
        {
          "indexed": true,
          "internalType": "address",
          "name": "executor",
          "type": "address"
        },
        {
          "indexed": false,
          "internalType": "uint256",
          "name": "depositId",
          "type": "uint256"
        },
        {
          "indexed": true,
          "internalType": "address",
          "name": "user",
          "type": "address"
        },
        {
          "indexed": false,
          "internalType": "address",
          "name": "nft",
          "type": "address"
        },
        {
          "indexed": false,
          "internalType": "uint256[]",
          "name": "tokenIds",
          "type": "uint256[]"
        },
        {
          "indexed": false,
          "internalType": "uint256[]",
          "name": "amounts",
          "type": "uint256[]"
        },
        {
          "indexed": false,
          "internalType": "uint256",
          "name": "endTime",
          "type": "uint256"
        }
      ],
      "name": "Deposit",
      "type": "event"
    },
    {
      "anonymous": false,
      "inputs": [
        {
          "indexed": true,
          "internalType": "address",
          "name": "previousOwner",
          "type": "address"
        },
        {
          "indexed": true,
          "internalType": "address",
          "name": "newOwner",
          "type": "address"
        }
      ],
      "name": "OwnershipTransferred",
      "type": "event"
    },
    {
      "anonymous": false,
      "inputs": [
        {
          "indexed": true,
          "internalType": "address",
          "name": "executor",
          "type": "address"
        },
        {
          "indexed": false,
          "internalType": "uint256",
          "name": "depositId",
          "type": "uint256"
        },
        {
          "indexed": true,
          "internalType": "address",
          "name": "to",
          "type": "address"
        },
        {
          "indexed": false,
          "internalType": "address",
          "name": "nft",
          "type": "address"
        },
        {
          "indexed": false,
          "internalType": "uint256[]",
          "name": "tokenIds",
          "type": "uint256[]"
        },
        {
          "indexed": false,
          "internalType": "uint256[]",
          "name": "amounts",
          "type": "uint256[]"
        }
      ],
      "name": "Redeem",
      "type": "event"
    },
    {
      "anonymous": false,
      "inputs": [
        {
          "indexed": true,
          "internalType": "address",
          "name": "executor",
          "type": "address"
        },
        {
          "indexed": false,
          "internalType": "uint256",
          "name": "depositId",
          "type": "uint256"
        },
        {
          "indexed": true,
          "internalType": "address",
          "name": "to",
          "type": "address"
        },
        {
          "indexed": false,
          "internalType": "address",
          "name": "nft",
          "type": "address"
        },
        {
          "indexed": false,
          "internalType": "uint256[]",
          "name": "tokenIds",
          "type": "uint256[]"
        },
        {
          "indexed": false,
          "internalType": "uint256[]",
          "name": "amounts",
          "type": "uint256[]"
        }
      ],
      "name": "Withdraw",
      "type": "event"
    },
    {
      "inputs": [],
      "name": "DELAY_REDEEM_SEC",
      "outputs": [
        {
          "internalType": "uint256",
          "name": "",
          "type": "uint256"
        }
      ],
      "stateMutability": "view",
      "type": "function"
    },
    {
      "inputs": [],
      "name": "ID_ERC1155",
      "outputs": [
        {
          "internalType": "bytes4",
          "name": "",
          "type": "bytes4"
        }
      ],
      "stateMutability": "view",
      "type": "function"
    },
    {
      "inputs": [],
      "name": "ID_ERC721",
      "outputs": [
        {
          "internalType": "bytes4",
          "name": "",
          "type": "bytes4"
        }
      ],
      "stateMutability": "view",
      "type": "function"
    },
    {
      "inputs": [
        {
          "internalType": "address",
          "name": "user",
          "type": "address"
        },
        {
          "internalType": "address",
          "name": "nft",
          "type": "address"
        },
        {
          "internalType": "uint256[]",
          "name": "tokenIds",
          "type": "uint256[]"
        },
        {
          "internalType": "uint256[]",
          "name": "amounts",
          "type": "uint256[]"
        },
        {
          "internalType": "uint256",
          "name": "endTime",
          "type": "uint256"
        }
      ],
      "name": "deposit",
      "outputs": [
        {
          "internalType": "uint256",
          "name": "depositId",
          "type": "uint256"
        }
      ],
      "stateMutability": "payable",
      "type": "function"
    },
    {
      "inputs": [
        {
          "internalType": "address",
          "name": "",
          "type": "address"
        },
        {
          "internalType": "uint256",
          "name": "",
          "type": "uint256"
        }
      ],
      "name": "deposits",
      "outputs": [
        {
          "internalType": "address",
          "name": "user",
          "type": "address"
        },
        {
          "internalType": "address",
          "name": "nftContract",
          "type": "address"
        },
        {
          "internalType": "uint256",
          "name": "endTime",
          "type": "uint256"
        }
      ],
      "stateMutability": "view",
      "type": "function"
    },
    {
      "inputs": [
        {
          "internalType": "address",
          "name": "",
          "type": "address"
        }
      ],
      "name": "executors",
      "outputs": [
        {
          "internalType": "bool",
          "name": "",
          "type": "bool"
        }
      ],
      "stateMutability": "view",
      "type": "function"
    },
    {
      "inputs": [
        {
          "internalType": "address",
          "name": "",
          "type": "address"
        },
        {
          "internalType": "address",
          "name": "",
          "type": "address"
        },
        {
          "internalType": "uint256[]",
          "name": "",
          "type": "uint256[]"
        },
        {
          "internalType": "uint256[]",
          "name": "",
          "type": "uint256[]"
        },
        {
          "internalType": "bytes",
          "name": "",
          "type": "bytes"
        }
      ],
      "name": "onERC1155BatchReceived",
      "outputs": [
        {
          "internalType": "bytes4",
          "name": "",
          "type": "bytes4"
        }
      ],
      "stateMutability": "nonpayable",
      "type": "function"
    },
    {
      "inputs": [
        {
          "internalType": "address",
          "name": "",
          "type": "address"
        },
        {
          "internalType": "address",
          "name": "",
          "type": "address"
        },
        {
          "internalType": "uint256",
          "name": "",
          "type": "uint256"
        },
        {
          "internalType": "uint256",
          "name": "",
          "type": "uint256"
        },
        {
          "internalType": "bytes",
          "name": "",
          "type": "bytes"
        }
      ],
      "name": "onERC1155Received",
      "outputs": [
        {
          "internalType": "bytes4",
          "name": "",
          "type": "bytes4"
        }
      ],
      "stateMutability": "nonpayable",
      "type": "function"
    },
    {
      "inputs": [
        {
          "internalType": "address",
          "name": "",
          "type": "address"
        },
        {
          "internalType": "address",
          "name": "",
          "type": "address"
        },
        {
          "internalType": "uint256",
          "name": "",
          "type": "uint256"
        },
        {
          "internalType": "bytes",
          "name": "",
          "type": "bytes"
        }
      ],
      "name": "onERC721Received",
      "outputs": [
        {
          "internalType": "bytes4",
          "name": "",
          "type": "bytes4"
        }
      ],
      "stateMutability": "nonpayable",
      "type": "function"
    },
    {
      "inputs": [],
      "name": "owner",
      "outputs": [
        {
          "internalType": "address",
          "name": "",
          "type": "address"
        }
      ],
      "stateMutability": "view",
      "type": "function"
    },
    {
      "inputs": [
        {
          "internalType": "address",
          "name": "executor",
          "type": "address"
        },
        {
          "internalType": "uint256",
          "name": "depositId",
          "type": "uint256"
        },
        {
          "internalType": "address",
          "name": "to",
          "type": "address"
        }
      ],
      "name": "redeem",
      "outputs": [],
      "stateMutability": "nonpayable",
      "type": "function"
    },
    {
      "inputs": [],
      "name": "renounceOwnership",
      "outputs": [],
      "stateMutability": "nonpayable",
      "type": "function"
    },
    {
      "inputs": [
        {
          "internalType": "address",
          "name": "executor",
          "type": "address"
        }
      ],
      "name": "setExecutor",
      "outputs": [],
      "stateMutability": "nonpayable",
      "type": "function"
    },
    {
      "inputs": [
        {
          "internalType": "uint256",
          "name": "second",
          "type": "uint256"
        }
      ],
      "name": "setRedeemDelay",
      "outputs": [],
      "stateMutability": "nonpayable",
      "type": "function"
    },
    {
      "inputs": [
        {
          "internalType": "bytes4",
          "name": "interfaceId",
          "type": "bytes4"
        }
      ],
      "name": "supportsInterface",
      "outputs": [
        {
          "internalType": "bool",
          "name": "",
          "type": "bool"
        }
      ],
      "stateMutability": "view",
      "type": "function"
    },
    {
      "inputs": [
        {
          "internalType": "address",
          "name": "newOwner",
          "type": "address"
        }
      ],
      "name": "transferOwnership",
      "outputs": [],
      "stateMutability": "nonpayable",
      "type": "function"
    },
    {
      "inputs": [
        {
          "internalType": "uint256",
          "name": "depositId",
          "type": "uint256"
        },
        {
          "internalType": "address",
          "name": "to",
          "type": "address"
        }
      ],
      "name": "withdraw",
      "outputs": [],
      "stateMutability": "nonpayable",
      "type": "function"
    }
  ],
  "transactionHash": "0xfce0ba8140934b11ea802bf735c1f52ea9f2592eeb8afcbb639b956f8ddb443e",
  "args": [
    "0x4f785fae3C549963340113a1b3670c1fd553e122"
  ],
  "numDeployments": 1,
  "solcInputHash": "70231f361b17e0bcfd950564ac90e3b4",
  "bytecode": "0x60806040526202a3006002553480156200001857600080fd5b5060405162001f3138038062001f318339810160408190526200003b91620000be565b62000046336200006e565b6001600160a01b03166000908152600360205260409020805460ff19166001179055620000f0565b600080546001600160a01b038381166001600160a01b0319831681178455604051919092169283917f8be0079c531659141344cd1fd0a4f28419497f9722a3daafe3b4186f6b6457e09190a35050565b600060208284031215620000d157600080fd5b81516001600160a01b0381168114620000e957600080fd5b9392505050565b611e3180620001006000396000f3fe60806040526004361061010d5760003560e01c8063715018a6116100a5578063a70354ed11610074578063d6d6817711610059578063d6d681771461039c578063f23a6e611461042f578063f2fde38b1461047457600080fd5b8063a70354ed14610323578063bc197c811461035757600080fd5b8063715018a6146102755780638da5cb5b1461028a5780638fa68c13146102bf5780639ac2a011146102f357600080fd5b8063443cf787116100e1578063443cf787146101fe5780635c833bfd1461021f578063668282a01461023f5780636854ce761461025f57600080fd5b8062f714ce1461011257806301ffc9a714610134578063150b7a02146101695780631c3c0ea8146101de575b600080fd5b34801561011e57600080fd5b5061013261012d366004611b53565b610494565b005b34801561014057600080fd5b5061015461014f366004611af8565b6107a9565b60405190151581526020015b60405180910390f35b34801561017557600080fd5b506101ad6101843660046119a3565b7f150b7a0200000000000000000000000000000000000000000000000000000000949350505050565b6040517fffffffff000000000000000000000000000000000000000000000000000000009091168152602001610160565b3480156101ea57600080fd5b506101326101f936600461184a565b610842565b61021161020c366004611916565b610912565b604051908152602001610160565b34801561022b57600080fd5b5061013261023a366004611a9a565b610b28565b34801561024b57600080fd5b5061013261025a366004611b3a565b610f9c565b34801561026b57600080fd5b5061021160025481565b34801561028157600080fd5b50610132611022565b34801561029657600080fd5b5060005460405173ffffffffffffffffffffffffffffffffffffffff9091168152602001610160565b3480156102cb57600080fd5b506101ad7f80ac58cd0000000000000000000000000000000000000000000000000000000081565b3480156102ff57600080fd5b5061015461030e36600461184a565b60036020526000908152604090205460ff1681565b34801561032f57600080fd5b506101ad7fd9b67a260000000000000000000000000000000000000000000000000000000081565b34801561036357600080fd5b506101ad61037236600461186c565b7fbc197c810000000000000000000000000000000000000000000000000000000095945050505050565b3480156103a857600080fd5b506103fc6103b7366004611a70565b6004602081815260009384526040808520909152918352912080546001820154919092015473ffffffffffffffffffffffffffffffffffffffff928316929091169083565b6040805173ffffffffffffffffffffffffffffffffffffffff948516815293909216602084015290820152606001610160565b34801561043b57600080fd5b506101ad61044a366004611a0b565b7ff23a6e610000000000000000000000000000000000000000000000000000000095945050505050565b34801561048057600080fd5b5061013261048f36600461184a565b6110af565b3360009081526003602052604090205460ff16151560011461053c576040517f08c379a0000000000000000000000000000000000000000000000000000000008152602060048201526024808201527f4c75636b733a2063616c6c6572206d757374206265204c75636b73457865637560448201527f746f722e0000000000000000000000000000000000000000000000000000000060648201526084015b60405180910390fd5b3360009081526004602090815260408083208584529091529020600201546105c0576040517f08c379a000000000000000000000000000000000000000000000000000000000815260206004820152601160248201527f496e76616c6964206465706f73697449640000000000000000000000000000006044820152606401610533565b336000908152600460209081526040808320858452825280832060018101546002909101805483518186028101860190945280845273ffffffffffffffffffffffffffffffffffffffff909216949390919083018282801561064157602002820191906000526020600020905b81548152602001906001019080831161062d575b50503360009081526004602090815260408083208b84528252808320600301805482518185028101850190935280835297985092969095509193509091508301828280156106ae57602002820191906000526020600020905b81548152602001906001019080831161069a575b50503360009081526004602090815260408083208c8452909152812080547fffffffffffffffffffffffff0000000000000000000000000000000000000000908116825560018201805490911690559495509250610712915050600283018261168f565b61072060038301600061168f565b6004820160009055505061073783308685856111df565b8373ffffffffffffffffffffffffffffffffffffffff163373ffffffffffffffffffffffffffffffffffffffff167f1aa1975ec78254d9555afd3cb8a24bc7ed7cca61a92954e019b7d07e9c31626a8786868660405161079a9493929190611c22565b60405180910390a35050505050565b60007fffffffff0000000000000000000000000000000000000000000000000000000082167f4e2312e000000000000000000000000000000000000000000000000000000000148061083c57507f01ffc9a7000000000000000000000000000000000000000000000000000000007fffffffff000000000000000000000000000000000000000000000000000000008316145b92915050565b60005473ffffffffffffffffffffffffffffffffffffffff1633146108c3576040517f08c379a000000000000000000000000000000000000000000000000000000000815260206004820181905260248201527f4f776e61626c653a2063616c6c6572206973206e6f7420746865206f776e65726044820152606401610533565b73ffffffffffffffffffffffffffffffffffffffff16600090815260036020526040902080547fffffffffffffffffffffffffffffffffffffffffffffffffffffffffffffff00166001179055565b3360009081526003602052604081205460ff1615156001146109b5576040517f08c379a0000000000000000000000000000000000000000000000000000000008152602060048201526024808201527f4c75636b733a2063616c6c6572206d757374206265204c75636b73457865637560448201527f746f722e000000000000000000000000000000000000000000000000000000006064820152608401610533565b6109c285873087876111df565b6109d0600180546001019055565b6001546040805160a08101825273ffffffffffffffffffffffffffffffffffffffff808a16825288811660208084019182528385018a8152606085018a90526080850189905233600090815260048352868120888252835295909520845181549085167fffffffffffffffffffffffff0000000000000000000000000000000000000000918216178255925160018201805491909516931692909217909255925180519495509193610a8892600285019201906116ad565b5060608201518051610aa49160038401916020909101906116ad565b50608082015181600401559050508573ffffffffffffffffffffffffffffffffffffffff163373ffffffffffffffffffffffffffffffffffffffff167f347f2f3ccace771076d0730d10c78c9e198450059b63d2a0fa243110219604248388888888604051610b17959493929190611c74565b60405180910390a395945050505050565b60005473ffffffffffffffffffffffffffffffffffffffff163314610ba9576040517f08c379a000000000000000000000000000000000000000000000000000000000815260206004820181905260248201527f4f776e61626c653a2063616c6c6572206973206e6f7420746865206f776e65726044820152606401610533565b73ffffffffffffffffffffffffffffffffffffffff83166000908152600460209081526040808320858452909152902060020154610c43576040517f08c379a000000000000000000000000000000000000000000000000000000000815260206004820152601160248201527f496e76616c6964206465706f73697449640000000000000000000000000000006044820152606401610533565b60025473ffffffffffffffffffffffffffffffffffffffff841660009081526004602081815260408084208785529091529091200154610c839190611d1d565b4211610ceb576040517f08c379a000000000000000000000000000000000000000000000000000000000815260206004820152601260248201527f4e6f742074696d6520746f2072656465656d00000000000000000000000000006044820152606401610533565b73ffffffffffffffffffffffffffffffffffffffff8381166000908152600460209081526040808320868452909152902054811690821614610d89576040517f08c379a000000000000000000000000000000000000000000000000000000000815260206004820152601160248201527f496e76616c69642072656465656d20746f0000000000000000000000000000006044820152606401610533565b73ffffffffffffffffffffffffffffffffffffffff8381166000908152600460209081526040808320868452825280832060018101546002909101805483518186028101860190945280845291909516949192830182828015610e0b57602002820191906000526020600020905b815481526020019060010190808311610df7575b5050505073ffffffffffffffffffffffffffffffffffffffff8716600090815260046020908152604080832089845282528083206003018054825181850281018501909352808352959650929490935090830182828015610e8b57602002820191906000526020600020905b815481526020019060010190808311610e77575b5050505073ffffffffffffffffffffffffffffffffffffffff881660009081526004602090815260408083208a8452909152812080547fffffffffffffffffffffffff0000000000000000000000000000000000000000908116825560018201805490911690559293509050610f04600283018261168f565b610f1260038301600061168f565b60048201600090555050610f2983308685856111df565b8373ffffffffffffffffffffffffffffffffffffffff163373ffffffffffffffffffffffffffffffffffffffff167f419f05693ec28c30b2a3f2378868ffd6e66384945f6de621f1aef8bb91e3058587868686604051610f8c9493929190611c22565b60405180910390a3505050505050565b60005473ffffffffffffffffffffffffffffffffffffffff16331461101d576040517f08c379a000000000000000000000000000000000000000000000000000000000815260206004820181905260248201527f4f776e61626c653a2063616c6c6572206973206e6f7420746865206f776e65726044820152606401610533565b600255565b60005473ffffffffffffffffffffffffffffffffffffffff1633146110a3576040517f08c379a000000000000000000000000000000000000000000000000000000000815260206004820181905260248201527f4f776e61626c653a2063616c6c6572206973206e6f7420746865206f776e65726044820152606401610533565b6110ad600061161a565b565b60005473ffffffffffffffffffffffffffffffffffffffff163314611130576040517f08c379a000000000000000000000000000000000000000000000000000000000815260206004820181905260248201527f4f776e61626c653a2063616c6c6572206973206e6f7420746865206f776e65726044820152606401610533565b73ffffffffffffffffffffffffffffffffffffffff81166111d3576040517f08c379a000000000000000000000000000000000000000000000000000000000815260206004820152602660248201527f4f776e61626c653a206e6577206f776e657220697320746865207a65726f206160448201527f64647265737300000000000000000000000000000000000000000000000000006064820152608401610533565b6111dc8161161a565b50565b8373ffffffffffffffffffffffffffffffffffffffff168573ffffffffffffffffffffffffffffffffffffffff161415801561124757508273ffffffffffffffffffffffffffffffffffffffff168473ffffffffffffffffffffffffffffffffffffffff1614155b6112ad576040517f08c379a000000000000000000000000000000000000000000000000000000000815260206004820152600f60248201527f496e76616c6964206164647265737300000000000000000000000000000000006044820152606401610533565b6040517f01ffc9a70000000000000000000000000000000000000000000000000000000081527f80ac58cd00000000000000000000000000000000000000000000000000000000600482015273ffffffffffffffffffffffffffffffffffffffff8616906301ffc9a79060240160206040518083038186803b15801561133257600080fd5b505afa158015611346573d6000803e3d6000fd5b505050506040513d601f19601f8201168201806040525081019061136a9190611ad6565b1561145b5760005b8251811015611455578573ffffffffffffffffffffffffffffffffffffffff166323b872dd86868685815181106113ab576113ab611d9d565b60209081029190910101516040517fffffffff0000000000000000000000000000000000000000000000000000000060e086901b16815273ffffffffffffffffffffffffffffffffffffffff93841660048201529290911660248301526044820152606401600060405180830381600087803b15801561142a57600080fd5b505af115801561143e573d6000803e3d6000fd5b50505050808061144d90611d35565b915050611372565b50611613565b6040517f01ffc9a70000000000000000000000000000000000000000000000000000000081527fd9b67a2600000000000000000000000000000000000000000000000000000000600482015273ffffffffffffffffffffffffffffffffffffffff8616906301ffc9a79060240160206040518083038186803b1580156114e057600080fd5b505afa1580156114f4573d6000803e3d6000fd5b505050506040513d601f19601f820116820180604052508101906115189190611ad6565b15611613578051825114611588576040517f08c379a000000000000000000000000000000000000000000000000000000000815260206004820152601560248201527f496e76616c696420696473202620616d6f756e747300000000000000000000006044820152606401610533565b6040517f2eb2c2d600000000000000000000000000000000000000000000000000000000815273ffffffffffffffffffffffffffffffffffffffff861690632eb2c2d6906115e0908790879087908790600401611bba565b600060405180830381600087803b1580156115fa57600080fd5b505af115801561160e573d6000803e3d6000fd5b505050505b5050505050565b6000805473ffffffffffffffffffffffffffffffffffffffff8381167fffffffffffffffffffffffff0000000000000000000000000000000000000000831681178455604051919092169283917f8be0079c531659141344cd1fd0a4f28419497f9722a3daafe3b4186f6b6457e09190a35050565b50805460008255906000526020600020908101906111dc91906116f8565b8280548282559060005260206000209081019282156116e8579160200282015b828111156116e85782518255916020019190600101906116cd565b506116f49291506116f8565b5090565b5b808211156116f457600081556001016116f9565b803573ffffffffffffffffffffffffffffffffffffffff8116811461173157600080fd5b919050565b600082601f83011261174757600080fd5b8135602067ffffffffffffffff82111561176357611763611dcc565b8160051b611772828201611cce565b83815282810190868401838801850189101561178d57600080fd5b600093505b858410156117b0578035835260019390930192918401918401611792565b50979650505050505050565b600082601f8301126117cd57600080fd5b813567ffffffffffffffff8111156117e7576117e7611dcc565b61181860207fffffffffffffffffffffffffffffffffffffffffffffffffffffffffffffffe0601f84011601611cce565b81815284602083860101111561182d57600080fd5b816020850160208301376000918101602001919091529392505050565b60006020828403121561185c57600080fd5b6118658261170d565b9392505050565b600080600080600060a0868803121561188457600080fd5b61188d8661170d565b945061189b6020870161170d565b9350604086013567ffffffffffffffff808211156118b857600080fd5b6118c489838a01611736565b945060608801359150808211156118da57600080fd5b6118e689838a01611736565b935060808801359150808211156118fc57600080fd5b50611909888289016117bc565b9150509295509295909350565b600080600080600060a0868803121561192e57600080fd5b6119378661170d565b94506119456020870161170d565b9350604086013567ffffffffffffffff8082111561196257600080fd5b61196e89838a01611736565b9450606088013591508082111561198457600080fd5b5061199188828901611736565b95989497509295608001359392505050565b600080600080608085870312156119b957600080fd5b6119c28561170d565b93506119d06020860161170d565b925060408501359150606085013567ffffffffffffffff8111156119f357600080fd5b6119ff878288016117bc565b91505092959194509250565b600080600080600060a08688031215611a2357600080fd5b611a2c8661170d565b9450611a3a6020870161170d565b93506040860135925060608601359150608086013567ffffffffffffffff811115611a6457600080fd5b611909888289016117bc565b60008060408385031215611a8357600080fd5b611a8c8361170d565b946020939093013593505050565b600080600060608486031215611aaf57600080fd5b611ab88461170d565b925060208401359150611acd6040850161170d565b90509250925092565b600060208284031215611ae857600080fd5b8151801515811461186557600080fd5b600060208284031215611b0a57600080fd5b81357fffffffff000000000000000000000000000000000000000000000000000000008116811461186557600080fd5b600060208284031215611b4c57600080fd5b5035919050565b60008060408385031215611b6657600080fd5b82359150611b766020840161170d565b90509250929050565b600081518084526020808501945080840160005b83811015611baf57815187529582019590820190600101611b93565b509495945050505050565b600073ffffffffffffffffffffffffffffffffffffffff808716835280861660208401525060a06040830152611bf360a0830185611b7f565b8281036060840152611c058185611b7f565b838103608090940193909352505060008152602001949350505050565b84815273ffffffffffffffffffffffffffffffffffffffff84166020820152608060408201526000611c576080830185611b7f565b8281036060840152611c698185611b7f565b979650505050505050565b85815273ffffffffffffffffffffffffffffffffffffffff8516602082015260a060408201526000611ca960a0830186611b7f565b8281036060840152611cbb8186611b7f565b9150508260808301529695505050505050565b604051601f82017fffffffffffffffffffffffffffffffffffffffffffffffffffffffffffffffe016810167ffffffffffffffff81118282101715611d1557611d15611dcc565b604052919050565b60008219821115611d3057611d30611d6e565b500190565b60007fffffffffffffffffffffffffffffffffffffffffffffffffffffffffffffffff821415611d6757611d67611d6e565b5060010190565b7f4e487b7100000000000000000000000000000000000000000000000000000000600052601160045260246000fd5b7f4e487b7100000000000000000000000000000000000000000000000000000000600052603260045260246000fd5b7f4e487b7100000000000000000000000000000000000000000000000000000000600052604160045260246000fdfea26469706673582212206d7b32e0ae9e808a69e72aea011f67c6c92b0ab0046281b3d0957bbeabdae90f64736f6c63430008060033",
  "devdoc": {
    "kind": "dev",
    "methods": {
      "constructor": {
        "params": {
          "_executor": "address"
        }
      },
      "onERC721Received(address,address,uint256,bytes)": {
        "details": "See {IERC721Receiver-onERC721Received}. Always returns `IERC721Receiver.onERC721Received.selector`."
      },
      "owner()": {
        "details": "Returns the address of the current owner."
      },
      "renounceOwnership()": {
        "details": "Leaves the contract without owner. It will not be possible to call `onlyOwner` functions anymore. Can only be called by the current owner. NOTE: Renouncing ownership will leave the contract without an owner, thereby removing any functionality that is only available to the owner."
      },
      "supportsInterface(bytes4)": {
        "details": "See {IERC165-supportsInterface}."
      },
      "transferOwnership(address)": {
        "details": "Transfers ownership of the contract to a new account (`newOwner`). Can only be called by the current owner."
      }
    },
    "version": 1
  },
  "userdoc": {
    "kind": "user",
    "methods": {
      "constructor": {
        "notice": "Constructor"
      },
      "redeem(address,uint256,address)": {
        "notice": "for enmergency case for user to redeem in case of cross chain withdraw suck nft, enable to redeem back to seller nft after endTime"
      },
      "setExecutor(address)": {
        "notice": "set operator"
      },
      "setRedeemDelay(uint256)": {
        "notice": "set operator"
      }
    },
    "version": 1
  },
  "storageLayout": {
    "storage": [
      {
        "astId": 307,
        "contract": "contracts/ProxyNFTStation.sol:ProxyNFTStation",
        "label": "_owner",
        "offset": 0,
        "slot": "0",
        "type": "t_address"
      },
      {
        "astId": 7613,
        "contract": "contracts/ProxyNFTStation.sol:ProxyNFTStation",
        "label": "_depositIds",
        "offset": 0,
        "slot": "1",
        "type": "t_struct(Counter)4272_storage"
      },
      {
        "astId": 7622,
        "contract": "contracts/ProxyNFTStation.sol:ProxyNFTStation",
        "label": "DELAY_REDEEM_SEC",
        "offset": 0,
        "slot": "2",
        "type": "t_uint256"
      },
      {
        "astId": 7626,
        "contract": "contracts/ProxyNFTStation.sol:ProxyNFTStation",
        "label": "executors",
        "offset": 0,
        "slot": "3",
        "type": "t_mapping(t_address,t_bool)"
      },
      {
        "astId": 7633,
        "contract": "contracts/ProxyNFTStation.sol:ProxyNFTStation",
        "label": "deposits",
        "offset": 0,
        "slot": "4",
        "type": "t_mapping(t_address,t_mapping(t_uint256,t_struct(DepositNFT)9722_storage))"
      }
    ],
    "types": {
      "t_address": {
        "encoding": "inplace",
        "label": "address",
        "numberOfBytes": "20"
      },
      "t_array(t_uint256)dyn_storage": {
        "base": "t_uint256",
        "encoding": "dynamic_array",
        "label": "uint256[]",
        "numberOfBytes": "32"
      },
      "t_bool": {
        "encoding": "inplace",
        "label": "bool",
        "numberOfBytes": "1"
      },
      "t_mapping(t_address,t_bool)": {
        "encoding": "mapping",
        "key": "t_address",
        "label": "mapping(address => bool)",
        "numberOfBytes": "32",
        "value": "t_bool"
      },
      "t_mapping(t_address,t_mapping(t_uint256,t_struct(DepositNFT)9722_storage))": {
        "encoding": "mapping",
        "key": "t_address",
        "label": "mapping(address => mapping(uint256 => struct DepositNFT))",
        "numberOfBytes": "32",
        "value": "t_mapping(t_uint256,t_struct(DepositNFT)9722_storage)"
      },
      "t_mapping(t_uint256,t_struct(DepositNFT)9722_storage)": {
        "encoding": "mapping",
        "key": "t_uint256",
        "label": "mapping(uint256 => struct DepositNFT)",
        "numberOfBytes": "32",
        "value": "t_struct(DepositNFT)9722_storage"
      },
      "t_struct(Counter)4272_storage": {
        "encoding": "inplace",
        "label": "struct Counters.Counter",
        "members": [
          {
            "astId": 4271,
            "contract": "contracts/ProxyNFTStation.sol:ProxyNFTStation",
            "label": "_value",
            "offset": 0,
            "slot": "0",
            "type": "t_uint256"
          }
        ],
        "numberOfBytes": "32"
      },
      "t_struct(DepositNFT)9722_storage": {
        "encoding": "inplace",
        "label": "struct DepositNFT",
        "members": [
          {
            "astId": 9711,
            "contract": "contracts/ProxyNFTStation.sol:ProxyNFTStation",
            "label": "user",
            "offset": 0,
            "slot": "0",
            "type": "t_address"
          },
          {
            "astId": 9713,
            "contract": "contracts/ProxyNFTStation.sol:ProxyNFTStation",
            "label": "nftContract",
            "offset": 0,
            "slot": "1",
            "type": "t_address"
          },
          {
            "astId": 9716,
            "contract": "contracts/ProxyNFTStation.sol:ProxyNFTStation",
            "label": "tokenIds",
            "offset": 0,
            "slot": "2",
            "type": "t_array(t_uint256)dyn_storage"
          },
          {
            "astId": 9719,
            "contract": "contracts/ProxyNFTStation.sol:ProxyNFTStation",
            "label": "amounts",
            "offset": 0,
            "slot": "3",
            "type": "t_array(t_uint256)dyn_storage"
          },
          {
            "astId": 9721,
            "contract": "contracts/ProxyNFTStation.sol:ProxyNFTStation",
            "label": "endTime",
            "offset": 0,
            "slot": "4",
            "type": "t_uint256"
          }
        ],
        "numberOfBytes": "160"
      },
      "t_uint256": {
        "encoding": "inplace",
        "label": "uint256",
        "numberOfBytes": "32"
      }
    }
  }
}