{
  "address": "0xd58572f2d1b670Ba022C30C41da447730CFF32A2",
  "abi": [
    {
      "inputs": [
        {
          "internalType": "address",
          "name": "punkContract_",
          "type": "address"
        }
      ],
      "stateMutability": "nonpayable",
      "type": "constructor"
    },
    {
      "anonymous": false,
      "inputs": [
        {
          "indexed": true,
          "internalType": "address",
          "name": "owner",
          "type": "address"
        },
        {
          "indexed": true,
          "internalType": "address",
          "name": "approved",
          "type": "address"
        },
        {
          "indexed": true,
          "internalType": "uint256",
          "name": "tokenId",
          "type": "uint256"
        }
      ],
      "name": "Approval",
      "type": "event"
    },
    {
      "anonymous": false,
      "inputs": [
        {
          "indexed": true,
          "internalType": "address",
          "name": "owner",
          "type": "address"
        },
        {
          "indexed": true,
          "internalType": "address",
          "name": "operator",
          "type": "address"
        },
        {
          "indexed": false,
          "internalType": "bool",
          "name": "approved",
          "type": "bool"
        }
      ],
      "name": "ApprovalForAll",
      "type": "event"
    },
    {
      "anonymous": false,
      "inputs": [
        {
          "indexed": true,
          "internalType": "address",
          "name": "previousOwner",
          "type": "address"
        },
        {
          "indexed": true,
          "internalType": "address",
          "name": "newOwner",
          "type": "address"
        }
      ],
      "name": "OwnershipTransferred",
      "type": "event"
    },
    {
      "anonymous": false,
      "inputs": [
        {
          "indexed": false,
          "internalType": "address",
          "name": "account",
          "type": "address"
        }
      ],
      "name": "Paused",
      "type": "event"
    },
    {
      "anonymous": false,
      "inputs": [
        {
          "indexed": false,
          "internalType": "address",
          "name": "user",
          "type": "address"
        },
        {
          "indexed": false,
          "internalType": "address",
          "name": "proxy",
          "type": "address"
        }
      ],
      "name": "ProxyRegistered",
      "type": "event"
    },
    {
      "anonymous": false,
      "inputs": [
        {
          "indexed": true,
          "internalType": "address",
          "name": "from",
          "type": "address"
        },
        {
          "indexed": true,
          "internalType": "address",
          "name": "to",
          "type": "address"
        },
        {
          "indexed": true,
          "internalType": "uint256",
          "name": "tokenId",
          "type": "uint256"
        }
      ],
      "name": "Transfer",
      "type": "event"
    },
    {
      "anonymous": false,
      "inputs": [
        {
          "indexed": false,
          "internalType": "address",
          "name": "account",
          "type": "address"
        }
      ],
      "name": "Unpaused",
      "type": "event"
    },
    {
      "inputs": [
        {
          "internalType": "address",
          "name": "to",
          "type": "address"
        },
        {
          "internalType": "uint256",
          "name": "tokenId",
          "type": "uint256"
        }
      ],
      "name": "approve",
      "outputs": [],
      "stateMutability": "nonpayable",
      "type": "function"
    },
    {
      "inputs": [
        {
          "internalType": "address",
          "name": "owner",
          "type": "address"
        }
      ],
      "name": "balanceOf",
      "outputs": [
        {
          "internalType": "uint256",
          "name": "",
          "type": "uint256"
        }
      ],
      "stateMutability": "view",
      "type": "function"
    },
    {
      "inputs": [
        {
          "internalType": "uint256",
          "name": "punkIndex",
          "type": "uint256"
        }
      ],
      "name": "burn",
      "outputs": [],
      "stateMutability": "nonpayable",
      "type": "function"
    },
    {
      "inputs": [
        {
          "internalType": "uint256",
          "name": "tokenId",
          "type": "uint256"
        }
      ],
      "name": "getApproved",
      "outputs": [
        {
          "internalType": "address",
          "name": "",
          "type": "address"
        }
      ],
      "stateMutability": "view",
      "type": "function"
    },
    {
      "inputs": [
        {
          "internalType": "address",
          "name": "owner",
          "type": "address"
        },
        {
          "internalType": "address",
          "name": "operator",
          "type": "address"
        }
      ],
      "name": "isApprovedForAll",
      "outputs": [
        {
          "internalType": "bool",
          "name": "",
          "type": "bool"
        }
      ],
      "stateMutability": "view",
      "type": "function"
    },
    {
      "inputs": [
        {
          "internalType": "uint256",
          "name": "punkIndex",
          "type": "uint256"
        }
      ],
      "name": "mint",
      "outputs": [],
      "stateMutability": "nonpayable",
      "type": "function"
    },
    {
      "inputs": [],
      "name": "name",
      "outputs": [
        {
          "internalType": "string",
          "name": "",
          "type": "string"
        }
      ],
      "stateMutability": "view",
      "type": "function"
    },
    {
      "inputs": [],
      "name": "owner",
      "outputs": [
        {
          "internalType": "address",
          "name": "",
          "type": "address"
        }
      ],
      "stateMutability": "view",
      "type": "function"
    },
    {
      "inputs": [
        {
          "internalType": "uint256",
          "name": "tokenId",
          "type": "uint256"
        }
      ],
      "name": "ownerOf",
      "outputs": [
        {
          "internalType": "address",
          "name": "",
          "type": "address"
        }
      ],
      "stateMutability": "view",
      "type": "function"
    },
    {
      "inputs": [],
      "name": "paused",
      "outputs": [
        {
          "internalType": "bool",
          "name": "",
          "type": "bool"
        }
      ],
      "stateMutability": "view",
      "type": "function"
    },
    {
      "inputs": [
        {
          "internalType": "address",
          "name": "user",
          "type": "address"
        }
      ],
      "name": "proxyInfo",
      "outputs": [
        {
          "internalType": "address",
          "name": "",
          "type": "address"
        }
      ],
      "stateMutability": "view",
      "type": "function"
    },
    {
      "inputs": [],
      "name": "punkContract",
      "outputs": [
        {
          "internalType": "address",
          "name": "",
          "type": "address"
        }
      ],
      "stateMutability": "view",
      "type": "function"
    },
    {
      "inputs": [],
      "name": "registerProxy",
      "outputs": [],
      "stateMutability": "nonpayable",
      "type": "function"
    },
    {
      "inputs": [],
      "name": "renounceOwnership",
      "outputs": [],
      "stateMutability": "nonpayable",
      "type": "function"
    },
    {
      "inputs": [
        {
          "internalType": "address",
          "name": "from",
          "type": "address"
        },
        {
          "internalType": "address",
          "name": "to",
          "type": "address"
        },
        {
          "internalType": "uint256",
          "name": "tokenId",
          "type": "uint256"
        }
      ],
      "name": "safeTransferFrom",
      "outputs": [],
      "stateMutability": "nonpayable",
      "type": "function"
    },
    {
      "inputs": [
        {
          "internalType": "address",
          "name": "from",
          "type": "address"
        },
        {
          "internalType": "address",
          "name": "to",
          "type": "address"
        },
        {
          "internalType": "uint256",
          "name": "tokenId",
          "type": "uint256"
        },
        {
          "internalType": "bytes",
          "name": "_data",
          "type": "bytes"
        }
      ],
      "name": "safeTransferFrom",
      "outputs": [],
      "stateMutability": "nonpayable",
      "type": "function"
    },
    {
      "inputs": [
        {
          "internalType": "address",
          "name": "operator",
          "type": "address"
        },
        {
          "internalType": "bool",
          "name": "approved",
          "type": "bool"
        }
      ],
      "name": "setApprovalForAll",
      "outputs": [],
      "stateMutability": "nonpayable",
      "type": "function"
    },
    {
      "inputs": [
        {
          "internalType": "bytes4",
          "name": "interfaceId",
          "type": "bytes4"
        }
      ],
      "name": "supportsInterface",
      "outputs": [
        {
          "internalType": "bool",
          "name": "",
          "type": "bool"
        }
      ],
      "stateMutability": "view",
      "type": "function"
    },
    {
      "inputs": [],
      "name": "symbol",
      "outputs": [
        {
          "internalType": "string",
          "name": "",
          "type": "string"
        }
      ],
      "stateMutability": "view",
      "type": "function"
    },
    {
      "inputs": [
        {
          "internalType": "uint256",
          "name": "index",
          "type": "uint256"
        }
      ],
      "name": "tokenByIndex",
      "outputs": [
        {
          "internalType": "uint256",
          "name": "",
          "type": "uint256"
        }
      ],
      "stateMutability": "view",
      "type": "function"
    },
    {
      "inputs": [
        {
          "internalType": "address",
          "name": "owner",
          "type": "address"
        },
        {
          "internalType": "uint256",
          "name": "index",
          "type": "uint256"
        }
      ],
      "name": "tokenOfOwnerByIndex",
      "outputs": [
        {
          "internalType": "uint256",
          "name": "",
          "type": "uint256"
        }
      ],
      "stateMutability": "view",
      "type": "function"
    },
    {
      "inputs": [
        {
          "internalType": "uint256",
          "name": "tokenId",
          "type": "uint256"
        }
      ],
      "name": "tokenURI",
      "outputs": [
        {
          "internalType": "string",
          "name": "",
          "type": "string"
        }
      ],
      "stateMutability": "view",
      "type": "function"
    },
    {
      "inputs": [],
      "name": "totalSupply",
      "outputs": [
        {
          "internalType": "uint256",
          "name": "",
          "type": "uint256"
        }
      ],
      "stateMutability": "view",
      "type": "function"
    },
    {
      "inputs": [
        {
          "internalType": "address",
          "name": "from",
          "type": "address"
        },
        {
          "internalType": "address",
          "name": "to",
          "type": "address"
        },
        {
          "internalType": "uint256",
          "name": "tokenId",
          "type": "uint256"
        }
      ],
      "name": "transferFrom",
      "outputs": [],
      "stateMutability": "nonpayable",
      "type": "function"
    },
    {
      "inputs": [
        {
          "internalType": "address",
          "name": "newOwner",
          "type": "address"
        }
      ],
      "name": "transferOwnership",
      "outputs": [],
      "stateMutability": "nonpayable",
      "type": "function"
    }
  ],
  "transactionHash": "0xfa05def3159f43b1029b70566ead1b471c8230619c8369c32eb60d7731527925",
  "args": [
    "0x8F77Fa709a909F665a9B6C914f4BdC7385b07D8A"
  ],
  "numDeployments": 1,
  "solcInputHash": "ebe9685cad90cf13094170ca99fb6d7a",
  "bytecode": "0x60806040523480156200001157600080fd5b50604051620023a5380380620023a58339810160408190526200003491620001f7565b6040518060400160405280601381526020017f577261707065642043727970746f70756e6b7300000000000000000000000000815250604051806040016040528060068152602001655750554e4b5360d01b815250620000a36200009d620000fd60201b60201c565b62000101565b8151620000b890600190602085019062000151565b508051620000ce90600290602084019062000151565b5050600b80546001600160a01b03909316610100026001600160a81b0319909316929092179091555062000266565b3390565b600080546001600160a01b038381166001600160a01b0319831681178455604051919092169283917f8be0079c531659141344cd1fd0a4f28419497f9722a3daafe3b4186f6b6457e09190a35050565b8280546200015f9062000229565b90600052602060002090601f016020900481019282620001835760008555620001ce565b82601f106200019e57805160ff1916838001178555620001ce565b82800160010185558215620001ce579182015b82811115620001ce578251825591602001919060010190620001b1565b50620001dc929150620001e0565b5090565b5b80821115620001dc5760008155600101620001e1565b6000602082840312156200020a57600080fd5b81516001600160a01b03811681146200022257600080fd5b9392505050565b600181811c908216806200023e57607f821691505b602082108114156200026057634e487b7160e01b600052602260045260246000fd5b50919050565b61212f80620002766000396000f3fe608060405234801561001057600080fd5b50600436106101735760003560e01c806370a08231116100de578063a9c7b2c811610097578063ddd81f8211610071578063ddd81f8214610330578063e985e9c514610338578063f2fde38b14610374578063f97e48ee1461038757600080fd5b8063a9c7b2c8146102de578063b88d4fde1461030a578063c87b56dd1461031d57600080fd5b806370a0823114610284578063715018a6146102975780638da5cb5b1461029f57806395d89b41146102b0578063a0712d68146102b8578063a22cb465146102cb57600080fd5b80632f745c59116101305780632f745c591461021a57806342842e0e1461022d57806342966c68146102405780634f6ccce7146102535780635c975abb146102665780636352211e1461027157600080fd5b806301ffc9a71461017857806306fdde03146101a0578063081812fc146101b5578063095ea7b3146101e057806318160ddd146101f557806323b872dd14610207575b600080fd5b61018b610186366004611b83565b61039d565b60405190151581526020015b60405180910390f35b6101a86103c8565b6040516101979190611c6e565b6101c86101c3366004611bbd565b61045a565b6040516001600160a01b039091168152602001610197565b6101f36101ee366004611b3c565b6104f4565b005b6009545b604051908152602001610197565b6101f36102153660046119ed565b61060a565b6101f9610228366004611b3c565b61063b565b6101f361023b3660046119ed565b6106d1565b6101f361024e366004611bbd565b6106ec565b6101f9610261366004611bbd565b610818565b600b5460ff1661018b565b6101c861027f366004611bbd565b6108ab565b6101f961029236600461199f565b610922565b6101f36109a9565b6000546001600160a01b03166101c8565b6101a8610a0f565b6101f36102c6366004611bbd565b610a1e565b6101f36102d9366004611b05565b610b5f565b6101c86102ec36600461199f565b6001600160a01b039081166000908152600c60205260409020541690565b6101f3610318366004611a29565b610b6e565b6101a861032b366004611bbd565b610ba6565b6101f3610c81565b61018b6103463660046119ba565b6001600160a01b03918216600090815260066020908152604080832093909416825291909152205460ff1690565b6101f361038236600461199f565b610d95565b600b5461010090046001600160a01b03166101c8565b60006001600160e01b0319821663780e9d6360e01b14806103c257506103c282610e60565b92915050565b6060600180546103d790611d93565b80601f016020809104026020016040519081016040528092919081815260200182805461040390611d93565b80156104505780601f1061042557610100808354040283529160200191610450565b820191906000526020600020905b81548152906001019060200180831161043357829003601f168201915b5050505050905090565b6000818152600360205260408120546001600160a01b03166104d85760405162461bcd60e51b815260206004820152602c60248201527f4552433732313a20617070726f76656420717565727920666f72206e6f6e657860448201526b34b9ba32b73a103a37b5b2b760a11b60648201526084015b60405180910390fd5b506000908152600560205260409020546001600160a01b031690565b60006104ff826108ab565b9050806001600160a01b0316836001600160a01b0316141561056d5760405162461bcd60e51b815260206004820152602160248201527f4552433732313a20617070726f76616c20746f2063757272656e74206f776e656044820152603960f91b60648201526084016104cf565b336001600160a01b038216148061058957506105898133610346565b6105fb5760405162461bcd60e51b815260206004820152603860248201527f4552433732313a20617070726f76652063616c6c6572206973206e6f74206f7760448201527f6e6572206e6f7220617070726f76656420666f7220616c6c000000000000000060648201526084016104cf565b6106058383610eb0565b505050565b6106143382610f1e565b6106305760405162461bcd60e51b81526004016104cf90611cd3565b610605838383611015565b600061064683610922565b82106106a85760405162461bcd60e51b815260206004820152602b60248201527f455243373231456e756d657261626c653a206f776e657220696e646578206f7560448201526a74206f6620626f756e647360a81b60648201526084016104cf565b506001600160a01b03919091166000908152600760209081526040808320938352929052205490565b61060583838360405180602001604052806000815250610b6e565b600b5460ff16156107325760405162461bcd60e51b815260206004820152601060248201526f14185d5cd8589b194e881c185d5cd95960821b60448201526064016104cf565b3361073d8183610f1e565b61079f5760405162461bcd60e51b815260206004820152602d60248201527f50756e6b577261707065723a2063616c6c6572206973206e6f74206f776e657260448201526c081b9bdc88185c1c1c9bdd9959609a1b60648201526084016104cf565b6107a8826111bc565b600b546040516322dca8bb60e21b81526001600160a01b0383811660048301526024820185905261010090920490911690638b72a2ec90604401600060405180830381600087803b1580156107fc57600080fd5b505af1158015610810573d6000803e3d6000fd5b505050505050565b600061082360095490565b82106108865760405162461bcd60e51b815260206004820152602c60248201527f455243373231456e756d657261626c653a20676c6f62616c20696e646578206f60448201526b7574206f6620626f756e647360a01b60648201526084016104cf565b6009828154811061089957610899611e3f565b90600052602060002001549050919050565b6000818152600360205260408120546001600160a01b0316806103c25760405162461bcd60e51b815260206004820152602960248201527f4552433732313a206f776e657220717565727920666f72206e6f6e657869737460448201526832b73a103a37b5b2b760b91b60648201526084016104cf565b60006001600160a01b03821661098d5760405162461bcd60e51b815260206004820152602a60248201527f4552433732313a2062616c616e636520717565727920666f7220746865207a65604482015269726f206164647265737360b01b60648201526084016104cf565b506001600160a01b031660009081526004602052604090205490565b6000546001600160a01b03163314610a035760405162461bcd60e51b815260206004820181905260248201527f4f776e61626c653a2063616c6c6572206973206e6f7420746865206f776e657260448201526064016104cf565b610a0d6000611263565b565b6060600280546103d790611d93565b600b5460ff1615610a645760405162461bcd60e51b815260206004820152601060248201526f14185d5cd8589b194e881c185d5cd95960821b60448201526064016104cf565b6000336001600160a01b038181166000908152600c60205260409081902054600b54915163a9059cbb60e01b81526101009092048316600483015260248201869052929350911690819063a9059cbb90604401602060405180830381600087803b158015610ad157600080fd5b505af1158015610ae5573d6000803e3d6000fd5b505050506040513d601f19601f82011682018060405250810190610b099190611b66565b610b555760405162461bcd60e51b815260206004820152601a60248201527f50756e6b577261707065723a207472616e73666572206661696c00000000000060448201526064016104cf565b61060582846112b3565b610b6a338383611401565b5050565b610b783383610f1e565b610b945760405162461bcd60e51b81526004016104cf90611cd3565b610ba0848484846114d0565b50505050565b6000818152600360205260409020546060906001600160a01b0316610c255760405162461bcd60e51b815260206004820152602f60248201527f4552433732314d657461646174613a2055524920717565727920666f72206e6f60448201526e3732bc34b9ba32b73a103a37b5b2b760891b60648201526084016104cf565b6000610c2f611503565b90506000815111610c4f5760405180602001604052806000815250610c7a565b80610c5984611523565b604051602001610c6a929190611c02565b6040516020818303038152906040525b9392505050565b336000818152600c60205260409020546001600160a01b031615610cfc5760405162461bcd60e51b815260206004820152602c60248201527f50756e6b577261707065723a2063616c6c65722068617320726567697374657260448201526b6564207468652070726f787960a01b60648201526084016104cf565b6000604051610d0a90611976565b604051809103906000f080158015610d26573d6000803e3d6000fd5b506001600160a01b038381166000818152600c602090815260409182902080546001600160a01b031916948616948517905581519283528201929092529192507f3623f8bd4da9524cfaa08c81b8194f759ca625e8d761f4cc2cea23e63d3f4b12910160405180910390a15050565b6000546001600160a01b03163314610def5760405162461bcd60e51b815260206004820181905260248201527f4f776e61626c653a2063616c6c6572206973206e6f7420746865206f776e657260448201526064016104cf565b6001600160a01b038116610e545760405162461bcd60e51b815260206004820152602660248201527f4f776e61626c653a206e6577206f776e657220697320746865207a65726f206160448201526564647265737360d01b60648201526084016104cf565b610e5d81611263565b50565b60006001600160e01b031982166380ac58cd60e01b1480610e9157506001600160e01b03198216635b5e139f60e01b145b806103c257506301ffc9a760e01b6001600160e01b03198316146103c2565b600081815260056020526040902080546001600160a01b0319166001600160a01b0384169081179091558190610ee5826108ab565b6001600160a01b03167f8c5be1e5ebec7d5bd14f71427d1e84f3dd0314c0f7b2291e5b200ac8c7c3b92560405160405180910390a45050565b6000818152600360205260408120546001600160a01b0316610f975760405162461bcd60e51b815260206004820152602c60248201527f4552433732313a206f70657261746f7220717565727920666f72206e6f6e657860448201526b34b9ba32b73a103a37b5b2b760a11b60648201526084016104cf565b6000610fa2836108ab565b9050806001600160a01b0316846001600160a01b03161480610fdd5750836001600160a01b0316610fd28461045a565b6001600160a01b0316145b8061100d57506001600160a01b0380821660009081526006602090815260408083209388168352929052205460ff165b949350505050565b826001600160a01b0316611028826108ab565b6001600160a01b03161461108c5760405162461bcd60e51b815260206004820152602560248201527f4552433732313a207472616e736665722066726f6d20696e636f72726563742060448201526437bbb732b960d91b60648201526084016104cf565b6001600160a01b0382166110ee5760405162461bcd60e51b8152602060048201526024808201527f4552433732313a207472616e7366657220746f20746865207a65726f206164646044820152637265737360e01b60648201526084016104cf565b6110f9838383611621565b611104600082610eb0565b6001600160a01b038316600090815260046020526040812080546001929061112d908490611d50565b90915550506001600160a01b038216600090815260046020526040812080546001929061115b908490611d24565b909155505060008181526003602052604080822080546001600160a01b0319166001600160a01b0386811691821790925591518493918716917fddf252ad1be2c89b69c2b068fc378daa952ba7f163c4a11628f55a4df523b3ef91a4505050565b60006111c7826108ab565b90506111d581600084611621565b6111e0600083610eb0565b6001600160a01b0381166000908152600460205260408120805460019290611209908490611d50565b909155505060008281526003602052604080822080546001600160a01b0319169055518391906001600160a01b038416907fddf252ad1be2c89b69c2b068fc378daa952ba7f163c4a11628f55a4df523b3ef908390a45050565b600080546001600160a01b038381166001600160a01b0319831681178455604051919092169283917f8be0079c531659141344cd1fd0a4f28419497f9722a3daafe3b4186f6b6457e09190a35050565b6001600160a01b0382166113095760405162461bcd60e51b815260206004820181905260248201527f4552433732313a206d696e7420746f20746865207a65726f206164647265737360448201526064016104cf565b6000818152600360205260409020546001600160a01b03161561136e5760405162461bcd60e51b815260206004820152601c60248201527f4552433732313a20746f6b656e20616c7265616479206d696e7465640000000060448201526064016104cf565b61137a60008383611621565b6001600160a01b03821660009081526004602052604081208054600192906113a3908490611d24565b909155505060008181526003602052604080822080546001600160a01b0319166001600160a01b03861690811790915590518392907fddf252ad1be2c89b69c2b068fc378daa952ba7f163c4a11628f55a4df523b3ef908290a45050565b816001600160a01b0316836001600160a01b031614156114635760405162461bcd60e51b815260206004820152601960248201527f4552433732313a20617070726f766520746f2063616c6c65720000000000000060448201526064016104cf565b6001600160a01b03838116600081815260066020908152604080832094871680845294825291829020805460ff191686151590811790915591519182527f17307eab39ab6107e8899845ad3d59bd9653f200f220920489ca2b5937696c31910160405180910390a3505050565b6114db848484611015565b6114e7848484846116d9565b610ba05760405162461bcd60e51b81526004016104cf90611c81565b60606040518060600160405280603181526020016120c960319139905090565b6060816115475750506040805180820190915260018152600360fc1b602082015290565b8160005b8115611571578061155b81611dce565b915061156a9050600a83611d3c565b915061154b565b60008167ffffffffffffffff81111561158c5761158c611e55565b6040519080825280601f01601f1916602001820160405280156115b6576020820181803683370190505b5090505b841561100d576115cb600183611d50565b91506115d8600a86611de9565b6115e3906030611d24565b60f81b8183815181106115f8576115f8611e3f565b60200101906001600160f81b031916908160001a90535061161a600a86611d3c565b94506115ba565b6001600160a01b03831661167c5761167781600980546000838152600a60205260408120829055600182018355919091527f6e1540171b6c0c960b71a7020d9f60077f6af931a8bbf590da0223dacf75c7af0155565b61169f565b816001600160a01b0316836001600160a01b03161461169f5761169f83826117e6565b6001600160a01b0382166116b65761060581611883565b826001600160a01b0316826001600160a01b031614610605576106058282611932565b60006001600160a01b0384163b156117db57604051630a85bd0160e11b81526001600160a01b0385169063150b7a029061171d903390899088908890600401611c31565b602060405180830381600087803b15801561173757600080fd5b505af1925050508015611767575060408051601f3d908101601f1916820190925261176491810190611ba0565b60015b6117c1573d808015611795576040519150601f19603f3d011682016040523d82523d6000602084013e61179a565b606091505b5080516117b95760405162461bcd60e51b81526004016104cf90611c81565b805181602001fd5b6001600160e01b031916630a85bd0160e11b14905061100d565b506001949350505050565b600060016117f384610922565b6117fd9190611d50565b600083815260086020526040902054909150808214611850576001600160a01b03841660009081526007602090815260408083208584528252808320548484528184208190558352600890915290208190555b5060009182526008602090815260408084208490556001600160a01b039094168352600781528383209183525290812055565b60095460009061189590600190611d50565b6000838152600a6020526040812054600980549394509092849081106118bd576118bd611e3f565b9060005260206000200154905080600983815481106118de576118de611e3f565b6000918252602080832090910192909255828152600a9091526040808220849055858252812055600980548061191657611916611e29565b6001900381819060005260206000200160009055905550505050565b600061193d83610922565b6001600160a01b039093166000908152600760209081526040808320868452825280832085905593825260089052919091209190915550565b61023980611e9083390190565b80356001600160a01b038116811461199a57600080fd5b919050565b6000602082840312156119b157600080fd5b610c7a82611983565b600080604083850312156119cd57600080fd5b6119d683611983565b91506119e460208401611983565b90509250929050565b600080600060608486031215611a0257600080fd5b611a0b84611983565b9250611a1960208501611983565b9150604084013590509250925092565b60008060008060808587031215611a3f57600080fd5b611a4885611983565b9350611a5660208601611983565b925060408501359150606085013567ffffffffffffffff80821115611a7a57600080fd5b818701915087601f830112611a8e57600080fd5b813581811115611aa057611aa0611e55565b604051601f8201601f19908116603f01168101908382118183101715611ac857611ac8611e55565b816040528281528a6020848701011115611ae157600080fd5b82602086016020830137600060208483010152809550505050505092959194509250565b60008060408385031215611b1857600080fd5b611b2183611983565b91506020830135611b3181611e6b565b809150509250929050565b60008060408385031215611b4f57600080fd5b611b5883611983565b946020939093013593505050565b600060208284031215611b7857600080fd5b8151610c7a81611e6b565b600060208284031215611b9557600080fd5b8135610c7a81611e79565b600060208284031215611bb257600080fd5b8151610c7a81611e79565b600060208284031215611bcf57600080fd5b5035919050565b60008151808452611bee816020860160208601611d67565b601f01601f19169290920160200192915050565b60008351611c14818460208801611d67565b835190830190611c28818360208801611d67565b01949350505050565b6001600160a01b0385811682528416602082015260408101839052608060608201819052600090611c6490830184611bd6565b9695505050505050565b602081526000610c7a6020830184611bd6565b60208082526032908201527f4552433732313a207472616e7366657220746f206e6f6e20455243373231526560408201527131b2b4bb32b91034b6b83632b6b2b73a32b960711b606082015260800190565b60208082526031908201527f4552433732313a207472616e736665722063616c6c6572206973206e6f74206f6040820152701ddb995c881b9bdc88185c1c1c9bdd9959607a1b606082015260800190565b60008219821115611d3757611d37611dfd565b500190565b600082611d4b57611d4b611e13565b500490565b600082821015611d6257611d62611dfd565b500390565b60005b83811015611d82578181015183820152602001611d6a565b83811115610ba05750506000910152565b600181811c90821680611da757607f821691505b60208210811415611dc857634e487b7160e01b600052602260045260246000fd5b50919050565b6000600019821415611de257611de2611dfd565b5060010190565b600082611df857611df8611e13565b500690565b634e487b7160e01b600052601160045260246000fd5b634e487b7160e01b600052601260045260246000fd5b634e487b7160e01b600052603160045260246000fd5b634e487b7160e01b600052603260045260246000fd5b634e487b7160e01b600052604160045260246000fd5b8015158114610e5d57600080fd5b6001600160e01b031981168114610e5d57600080fdfe60a060405234801561001057600080fd5b5033606081901b60805261020261003760003960008181605b0152609e01526102026000f3fe608060405234801561001057600080fd5b506004361061002b5760003560e01c8063a9059cbb14610030575b600080fd5b61004361003e366004610159565b610057565b604051901515815260200160405180910390f35b60007f00000000000000000000000000000000000000000000000000000000000000006001600160a01b0316331461009157506000610153565b6040516001600160a01b037f000000000000000000000000000000000000000000000000000000000000000081166024830152604482018490526000919085169060640160408051601f198184030181529181526020820180516001600160e01b03166322dca8bb60e21b1790525161010a9190610191565b6000604051808303816000865af19150503d8060008114610147576040519150601f19603f3d011682016040523d82523d6000602084013e61014c565b606091505b5090925050505b92915050565b6000806040838503121561016c57600080fd5b82356001600160a01b038116811461018357600080fd5b946020939093013593505050565b6000825160005b818110156101b25760208186018101518583015201610198565b818111156101c1576000828501525b50919091019291505056fea2646970667358221220368b34d1627a022c4b93ecb1d0f5943c9464eb6d45f7b07e1d74b6a2e397550764736f6c6343000806003368747470733a2f2f7772617070656470756e6b732e636f6d3a333030302f6170692f70756e6b732f6d657461646174612fa264697066735822122021ba6e5d6ec5fe1a71e80e7b63476d350d2632d08dc5f36c21bdfb8d3f972ce064736f6c63430008060033",
  "devdoc": {
    "kind": "dev",
    "methods": {
      "approve(address,uint256)": {
        "details": "See {IERC721-approve}."
      },
      "balanceOf(address)": {
        "details": "See {IERC721-balanceOf}."
      },
      "burn(uint256)": {
        "details": "Burns a specific wrapped punk"
      },
      "constructor": {
        "details": "Initializes the contract settings"
      },
      "getApproved(uint256)": {
        "details": "See {IERC721-getApproved}."
      },
      "isApprovedForAll(address,address)": {
        "details": "See {IERC721-isApprovedForAll}."
      },
      "mint(uint256)": {
        "details": "Mints a wrapped punk"
      },
      "name()": {
        "details": "See {IERC721Metadata-name}."
      },
      "owner()": {
        "details": "Returns the address of the current owner."
      },
      "ownerOf(uint256)": {
        "details": "See {IERC721-ownerOf}."
      },
      "paused()": {
        "details": "Returns true if the contract is paused, and false otherwise."
      },
      "proxyInfo(address)": {
        "details": "Gets proxy address"
      },
      "punkContract()": {
        "details": "Gets address of cryptopunk smart contract"
      },
      "registerProxy()": {
        "details": "Registers proxy"
      },
      "renounceOwnership()": {
        "details": "Leaves the contract without owner. It will not be possible to call `onlyOwner` functions anymore. Can only be called by the current owner. NOTE: Renouncing ownership will leave the contract without an owner, thereby removing any functionality that is only available to the owner."
      },
      "safeTransferFrom(address,address,uint256)": {
        "details": "See {IERC721-safeTransferFrom}."
      },
      "safeTransferFrom(address,address,uint256,bytes)": {
        "details": "See {IERC721-safeTransferFrom}."
      },
      "setApprovalForAll(address,bool)": {
        "details": "See {IERC721-setApprovalForAll}."
      },
      "supportsInterface(bytes4)": {
        "details": "See {IERC165-supportsInterface}."
      },
      "symbol()": {
        "details": "See {IERC721Metadata-symbol}."
      },
      "tokenByIndex(uint256)": {
        "details": "See {IERC721Enumerable-tokenByIndex}."
      },
      "tokenOfOwnerByIndex(address,uint256)": {
        "details": "See {IERC721Enumerable-tokenOfOwnerByIndex}."
      },
      "tokenURI(uint256)": {
        "details": "See {IERC721Metadata-tokenURI}."
      },
      "totalSupply()": {
        "details": "See {IERC721Enumerable-totalSupply}."
      },
      "transferFrom(address,address,uint256)": {
        "details": "See {IERC721-transferFrom}."
      },
      "transferOwnership(address)": {
        "details": "Transfers ownership of the contract to a new account (`newOwner`). Can only be called by the current owner."
      }
    },
    "version": 1
  },
  "userdoc": {
    "kind": "user",
    "methods": {},
    "version": 1
  },
  "storageLayout": {
    "storage": [
      {
        "astId": 917,
        "contract": "contracts/mocks/WrappedPunk/WrappedPunk.sol:WrappedPunk",
        "label": "_owner",
        "offset": 0,
        "slot": "0",
        "type": "t_address"
      },
      {
        "astId": 3406,
        "contract": "contracts/mocks/WrappedPunk/WrappedPunk.sol:WrappedPunk",
        "label": "_name",
        "offset": 0,
        "slot": "1",
        "type": "t_string_storage"
      },
      {
        "astId": 3408,
        "contract": "contracts/mocks/WrappedPunk/WrappedPunk.sol:WrappedPunk",
        "label": "_symbol",
        "offset": 0,
        "slot": "2",
        "type": "t_string_storage"
      },
      {
        "astId": 3412,
        "contract": "contracts/mocks/WrappedPunk/WrappedPunk.sol:WrappedPunk",
        "label": "_owners",
        "offset": 0,
        "slot": "3",
        "type": "t_mapping(t_uint256,t_address)"
      },
      {
        "astId": 3416,
        "contract": "contracts/mocks/WrappedPunk/WrappedPunk.sol:WrappedPunk",
        "label": "_balances",
        "offset": 0,
        "slot": "4",
        "type": "t_mapping(t_address,t_uint256)"
      },
      {
        "astId": 3420,
        "contract": "contracts/mocks/WrappedPunk/WrappedPunk.sol:WrappedPunk",
        "label": "_tokenApprovals",
        "offset": 0,
        "slot": "5",
        "type": "t_mapping(t_uint256,t_address)"
      },
      {
        "astId": 3426,
        "contract": "contracts/mocks/WrappedPunk/WrappedPunk.sol:WrappedPunk",
        "label": "_operatorApprovals",
        "offset": 0,
        "slot": "6",
        "type": "t_mapping(t_address,t_mapping(t_address,t_bool))"
      },
      {
        "astId": 4395,
        "contract": "contracts/mocks/WrappedPunk/WrappedPunk.sol:WrappedPunk",
        "label": "_ownedTokens",
        "offset": 0,
        "slot": "7",
        "type": "t_mapping(t_address,t_mapping(t_uint256,t_uint256))"
      },
      {
        "astId": 4399,
        "contract": "contracts/mocks/WrappedPunk/WrappedPunk.sol:WrappedPunk",
        "label": "_ownedTokensIndex",
        "offset": 0,
        "slot": "8",
        "type": "t_mapping(t_uint256,t_uint256)"
      },
      {
        "astId": 4402,
        "contract": "contracts/mocks/WrappedPunk/WrappedPunk.sol:WrappedPunk",
        "label": "_allTokens",
        "offset": 0,
        "slot": "9",
        "type": "t_array(t_uint256)dyn_storage"
      },
      {
        "astId": 4406,
        "contract": "contracts/mocks/WrappedPunk/WrappedPunk.sol:WrappedPunk",
        "label": "_allTokensIndex",
        "offset": 0,
        "slot": "10",
        "type": "t_mapping(t_uint256,t_uint256)"
      },
      {
        "astId": 1032,
        "contract": "contracts/mocks/WrappedPunk/WrappedPunk.sol:WrappedPunk",
        "label": "_paused",
        "offset": 0,
        "slot": "11",
        "type": "t_bool"
      },
      {
        "astId": 17068,
        "contract": "contracts/mocks/WrappedPunk/WrappedPunk.sol:WrappedPunk",
        "label": "_punkContract",
        "offset": 1,
        "slot": "11",
        "type": "t_contract(ICryptoPunk)16987"
      },
      {
        "astId": 17072,
        "contract": "contracts/mocks/WrappedPunk/WrappedPunk.sol:WrappedPunk",
        "label": "_proxies",
        "offset": 0,
        "slot": "12",
        "type": "t_mapping(t_address,t_address)"
      }
    ],
    "types": {
      "t_address": {
        "encoding": "inplace",
        "label": "address",
        "numberOfBytes": "20"
      },
      "t_array(t_uint256)dyn_storage": {
        "base": "t_uint256",
        "encoding": "dynamic_array",
        "label": "uint256[]",
        "numberOfBytes": "32"
      },
      "t_bool": {
        "encoding": "inplace",
        "label": "bool",
        "numberOfBytes": "1"
      },
      "t_contract(ICryptoPunk)16987": {
        "encoding": "inplace",
        "label": "contract ICryptoPunk",
        "numberOfBytes": "20"
      },
      "t_mapping(t_address,t_address)": {
        "encoding": "mapping",
        "key": "t_address",
        "label": "mapping(address => address)",
        "numberOfBytes": "32",
        "value": "t_address"
      },
      "t_mapping(t_address,t_bool)": {
        "encoding": "mapping",
        "key": "t_address",
        "label": "mapping(address => bool)",
        "numberOfBytes": "32",
        "value": "t_bool"
      },
      "t_mapping(t_address,t_mapping(t_address,t_bool))": {
        "encoding": "mapping",
        "key": "t_address",
        "label": "mapping(address => mapping(address => bool))",
        "numberOfBytes": "32",
        "value": "t_mapping(t_address,t_bool)"
      },
      "t_mapping(t_address,t_mapping(t_uint256,t_uint256))": {
        "encoding": "mapping",
        "key": "t_address",
        "label": "mapping(address => mapping(uint256 => uint256))",
        "numberOfBytes": "32",
        "value": "t_mapping(t_uint256,t_uint256)"
      },
      "t_mapping(t_address,t_uint256)": {
        "encoding": "mapping",
        "key": "t_address",
        "label": "mapping(address => uint256)",
        "numberOfBytes": "32",
        "value": "t_uint256"
      },
      "t_mapping(t_uint256,t_address)": {
        "encoding": "mapping",
        "key": "t_uint256",
        "label": "mapping(uint256 => address)",
        "numberOfBytes": "32",
        "value": "t_address"
      },
      "t_mapping(t_uint256,t_uint256)": {
        "encoding": "mapping",
        "key": "t_uint256",
        "label": "mapping(uint256 => uint256)",
        "numberOfBytes": "32",
        "value": "t_uint256"
      },
      "t_string_storage": {
        "encoding": "bytes",
        "label": "string",
        "numberOfBytes": "32"
      },
      "t_uint256": {
        "encoding": "inplace",
        "label": "uint256",
        "numberOfBytes": "32"
      }
    }
  }
}