{
    "contractName": "ProxyTokenStation",
    "abi": [
        {
            "inputs": [
                {
                    "internalType": "address",
                    "name": "_executor",
                    "type": "address"
                },
                {
                    "internalType": "address",
                    "name": "_weth",
                    "type": "address"
                }
            ],
            "stateMutability": "nonpayable",
            "type": "constructor"
        },
        {
            "anonymous": false,
            "inputs": [
                {
                    "indexed": true,
                    "internalType": "address",
                    "name": "executor",
                    "type": "address"
                },
                {
                    "indexed": true,
                    "internalType": "address",
                    "name": "user",
                    "type": "address"
                },
                {
                    "indexed": false,
                    "internalType": "address",
                    "name": "token",
                    "type": "address"
                },
                {
                    "indexed": false,
                    "internalType": "uint256",
                    "name": "amount",
                    "type": "uint256"
                }
            ],
            "name": "Deposit",
            "type": "event"
        },
        {
            "anonymous": false,
            "inputs": [
                {
                    "indexed": true,
                    "internalType": "address",
                    "name": "previousOwner",
                    "type": "address"
                },
                {
                    "indexed": true,
                    "internalType": "address",
                    "name": "newOwner",
                    "type": "address"
                }
            ],
            "name": "OwnershipTransferred",
            "type": "event"
        },
        {
            "anonymous": false,
            "inputs": [
                {
                    "indexed": true,
                    "internalType": "address",
                    "name": "executor",
                    "type": "address"
                },
                {
                    "indexed": true,
                    "internalType": "address",
                    "name": "user",
                    "type": "address"
                },
                {
                    "indexed": false,
                    "internalType": "address",
                    "name": "token",
                    "type": "address"
                },
                {
                    "indexed": false,
                    "internalType": "uint256",
                    "name": "amount",
                    "type": "uint256"
                }
            ],
            "name": "Withdraw",
            "type": "event"
        },
        {
            "inputs": [],
            "name": "WETH",
            "outputs": [
                {
                    "internalType": "address",
                    "name": "",
                    "type": "address"
                }
            ],
            "stateMutability": "view",
            "type": "function"
        },
        {
            "inputs": [
                {
                    "internalType": "address",
                    "name": "user",
                    "type": "address"
                },
                {
                    "internalType": "address",
                    "name": "token",
                    "type": "address"
                },
                {
                    "internalType": "uint256",
                    "name": "amount",
                    "type": "uint256"
                }
            ],
            "name": "deposit",
            "outputs": [],
            "stateMutability": "payable",
            "type": "function"
        },
        {
            "inputs": [
                {
                    "internalType": "address",
                    "name": "",
                    "type": "address"
                },
                {
                    "internalType": "address",
                    "name": "",
                    "type": "address"
                }
            ],
            "name": "deposits",
            "outputs": [
                {
                    "internalType": "uint256",
                    "name": "",
                    "type": "uint256"
                }
            ],
            "stateMutability": "view",
            "type": "function"
        },
        {
            "inputs": [
                {
                    "internalType": "address",
                    "name": "",
                    "type": "address"
                }
            ],
            "name": "executors",
            "outputs": [
                {
                    "internalType": "bool",
                    "name": "",
                    "type": "bool"
                }
            ],
            "stateMutability": "view",
            "type": "function"
        },
        {
            "inputs": [],
            "name": "owner",
            "outputs": [
                {
                    "internalType": "address",
                    "name": "",
                    "type": "address"
                }
            ],
            "stateMutability": "view",
            "type": "function"
        },
        {
            "inputs": [],
            "name": "renounceOwnership",
            "outputs": [],
            "stateMutability": "nonpayable",
            "type": "function"
        },
        {
            "inputs": [
                {
                    "internalType": "address",
                    "name": "executor",
                    "type": "address"
                }
            ],
            "name": "setExecutor",
            "outputs": [],
            "stateMutability": "nonpayable",
            "type": "function"
        },
        {
            "inputs": [
                {
                    "internalType": "address",
                    "name": "_eth",
                    "type": "address"
                }
            ],
            "name": "setWETH",
            "outputs": [],
            "stateMutability": "nonpayable",
            "type": "function"
        },
        {
            "inputs": [
                {
                    "internalType": "address",
                    "name": "newOwner",
                    "type": "address"
                }
            ],
            "name": "transferOwnership",
            "outputs": [],
            "stateMutability": "nonpayable",
            "type": "function"
        },
        {
            "inputs": [
                {
                    "internalType": "address",
                    "name": "user",
                    "type": "address"
                },
                {
                    "internalType": "address",
                    "name": "token",
                    "type": "address"
                },
                {
                    "internalType": "uint256",
                    "name": "amount",
                    "type": "uint256"
                }
            ],
            "name": "withdraw",
            "outputs": [],
            "stateMutability": "nonpayable",
            "type": "function"
        }
    ],
    "bytecode": "608060405234801561001057600080fd5b5060405161107838038061107883398101604081905261002f916100e5565b61003833610079565b6001600160a01b039182166000908152600160208190526040909120805460ff19169091179055600380546001600160a01b03191691909216179055610118565b600080546001600160a01b038381166001600160a01b0319831681178455604051919092169283917f8be0079c531659141344cd1fd0a4f28419497f9722a3daafe3b4186f6b6457e09190a35050565b80516001600160a01b03811681146100e057600080fd5b919050565b600080604083850312156100f857600080fd5b610101836100c9565b915061010f602084016100c9565b90509250929050565b610f51806101276000396000f3fe6080604052600436106100915760003560e01c80638f601f66116100595780638f601f66146101375780639ac2a0111461017d578063ad5c4648146101bd578063d9caed12146101dd578063f2fde38b146101fd57600080fd5b80631c3c0ea8146100965780635b769f3c146100b8578063715018a6146100d85780638340f549146100ed5780638da5cb5b14610100575b600080fd5b3480156100a257600080fd5b506100b66100b1366004610d98565b61021d565b005b3480156100c457600080fd5b506100b66100d3366004610d98565b610277565b3480156100e457600080fd5b506100b66102c3565b6100b66100fb366004610db3565b6102f9565b34801561010c57600080fd5b506000546001600160a01b03165b6040516001600160a01b0390911681526020015b60405180910390f35b34801561014357600080fd5b5061016f610152366004610def565b600260209081526000928352604080842090915290825290205481565b60405190815260200161012e565b34801561018957600080fd5b506101ad610198366004610d98565b60016020526000908152604090205460ff1681565b604051901515815260200161012e565b3480156101c957600080fd5b5060035461011a906001600160a01b031681565b3480156101e957600080fd5b506100b66101f8366004610db3565b610388565b34801561020957600080fd5b506100b6610218366004610d98565b61040e565b6000546001600160a01b031633146102505760405162461bcd60e51b815260040161024790610e22565b60405180910390fd5b6001600160a01b03166000908152600160208190526040909120805460ff19169091179055565b6000546001600160a01b031633146102a15760405162461bcd60e51b815260040161024790610e22565b600380546001600160a01b0319166001600160a01b0392909216919091179055565b6000546001600160a01b031633146102ed5760405162461bcd60e51b815260040161024790610e22565b6102f760006104a9565b565b3360009081526001602081905260409091205460ff1615151461032e5760405162461bcd60e51b815260040161024790610e57565b61033a338484846104f9565b604080516001600160a01b0384811682526020820184905285169133917f7cfff908a4b583f36430b25d75964c458d8ede8a99bd61be750e97ee1b2f3a9691015b60405180910390a3505050565b3360009081526001602081905260409091205460ff161515146103bd5760405162461bcd60e51b815260040161024790610e57565b6103c933848484610a30565b604080516001600160a01b0384811682526020820184905285169133917f3115d1449a7b732c986cba18244e897a450f61e1bb8d589cd2e69e6c8924f9f7910161037b565b6000546001600160a01b031633146104385760405162461bcd60e51b815260040161024790610e22565b6001600160a01b03811661049d5760405162461bcd60e51b815260206004820152602660248201527f4f776e61626c653a206e6577206f776e657220697320746865207a65726f206160448201526564647265737360d01b6064820152608401610247565b6104a6816104a9565b50565b600080546001600160a01b038381166001600160a01b0319831681178455604051919092169283917f8be0079c531659141344cd1fd0a4f28419497f9722a3daafe3b4186f6b6457e09190a35050565b6001600160a01b0382166107d75760006105138234610d5d565b905080156107d1576003546001600160a01b03166105865760405162461bcd60e51b815260206004820152602a60248201527f777261707020746f6b656e206e6f7420736574206f72206d73672e76616c7565604482015269081d1bdbc81cdb585b1b60b21b6064820152608401610247565b6003546040516370a0823160e01b81526001600160a01b038681166004830152839216906370a0823190602401602060405180830381865afa1580156105d0573d6000803e3d6000fd5b505050506040513d601f19601f820116820180604052508101906105f49190610e9b565b10156106395760405162461bcd60e51b8152602060048201526014602482015273496e73756666696369656e742062616c616e636560601b6044820152606401610247565b600354604051636eb1769f60e11b81526001600160a01b0386811660048301523060248301528392169063dd62ed3e90604401602060405180830381865afa158015610689573d6000803e3d6000fd5b505050506040513d601f19601f820116820180604052508101906106ad9190610e9b565b10156106f45760405162461bcd60e51b8152602060048201526016602482015275496e73756666696369656e7420616c6c6f77616e636560501b6044820152606401610247565b6003546040516323b872dd60e01b81526001600160a01b03868116600483015230602483015260448201849052909116906323b872dd906064016020604051808303816000875af115801561074d573d6000803e3d6000fd5b505050506040513d601f19601f820116820180604052508101906107719190610eb4565b50600354604051632e1a7d4d60e01b8152600481018390526001600160a01b0390911690632e1a7d4d90602401600060405180830381600087803b1580156107b857600080fd5b505af11580156107cc573d6000803e3d6000fd5b505050505b506109ce565b6040516370a0823160e01b81526001600160a01b0384811660048301528291908416906370a0823190602401602060405180830381865afa158015610820573d6000803e3d6000fd5b505050506040513d601f19601f820116820180604052508101906108449190610e9b565b10156108925760405162461bcd60e51b815260206004820152601a60248201527f496e73756666696369656e7420746f6b656e2062616c616e63650000000000006044820152606401610247565b604051636eb1769f60e11b81526001600160a01b03848116600483015230602483015282919084169063dd62ed3e90604401602060405180830381865afa1580156108e1573d6000803e3d6000fd5b505050506040513d601f19601f820116820180604052508101906109059190610e9b565b10156109535760405162461bcd60e51b815260206004820152601c60248201527f496e73756666696369656e7420746f6b656e20616c6c6f77616e6365000000006044820152606401610247565b6040516323b872dd60e01b81526001600160a01b038481166004830152306024830152604482018390528316906323b872dd906064016020604051808303816000875af11580156109a8573d6000803e3d6000fd5b505050506040513d601f19601f820116820180604052508101906109cc9190610eb4565b505b6001600160a01b038085166000908152600260209081526040808320938616835292905220546109fe9082610d70565b6001600160a01b0394851660009081526002602090815260408083209590971682529390935293909120929092555050565b6001600160a01b03831615801590610a5157506001600160a01b0383163014155b610a8f5760405162461bcd60e51b815260206004820152600f60248201526e496e76616c6964206164647265737360881b6044820152606401610247565b60008111610ad05760405162461bcd60e51b815260206004820152600e60248201526d125b9d985b1a5908185b5bdd5b9d60921b6044820152606401610247565b6001600160a01b03808516600090815260026020908152604080832093861683529290522054811115610b5e5760405162461bcd60e51b815260206004820152603060248201527f496e73756666696369656e74206465706f73697465642062616c616e6365206660448201526f37b9103a3434b99032bc32b1baba37b960811b6064820152608401610247565b6001600160a01b03808516600090815260026020908152604080832093861683529290522054610b8e9082610d5d565b6001600160a01b03808616600090815260026020908152604080832093871680845293909152902091909155610c3a5780471015610bfe5760405162461bcd60e51b815260206004820152600d60248201526c4c61636b206f662066756e647360981b6044820152606401610247565b6040516001600160a01b0384169082156108fc029083906000818181858888f19350505050158015610c34573d6000803e3d6000fd5b50610d57565b6040516370a0823160e01b815230600482015281906001600160a01b038416906370a0823190602401602060405180830381865afa158015610c80573d6000803e3d6000fd5b505050506040513d601f19601f82011682018060405250810190610ca49190610e9b565b1015610ce25760405162461bcd60e51b815260206004820152600d60248201526c2630b1b59037b3103a37b5b2b760991b6044820152606401610247565b60405163a9059cbb60e01b81526001600160a01b0384811660048301526024820183905283169063a9059cbb906044016020604051808303816000875af1158015610d31573d6000803e3d6000fd5b505050506040513d601f19601f82011682018060405250810190610d559190610eb4565b505b50505050565b6000610d698284610eec565b9392505050565b6000610d698284610f03565b80356001600160a01b0381168114610d9357600080fd5b919050565b600060208284031215610daa57600080fd5b610d6982610d7c565b600080600060608486031215610dc857600080fd5b610dd184610d7c565b9250610ddf60208501610d7c565b9150604084013590509250925092565b60008060408385031215610e0257600080fd5b610e0b83610d7c565b9150610e1960208401610d7c565b90509250929050565b6020808252818101527f4f776e61626c653a2063616c6c6572206973206e6f7420746865206f776e6572604082015260600190565b60208082526024908201527f4c75636b733a2063616c6c6572206d757374206265204c75636b7345786563756040820152633a37b91760e11b606082015260800190565b600060208284031215610ead57600080fd5b5051919050565b600060208284031215610ec657600080fd5b81518015158114610d6957600080fd5b634e487b7160e01b600052601160045260246000fd5b600082821015610efe57610efe610ed6565b500390565b60008219821115610f1657610f16610ed6565b50019056fea26469706673582212205220c6e8497134a255281f9ba4fdba7038ea246887bf8a6090464f62d70f9e4e64736f6c634300080e0033",
    "sourcePath": "d:/projects/blockchain/chainuniverse/openluck/openluck-contracts/contracts/ProxyTokenStation.sol",
    "compiler": {
        "name": "solc",
        "version": "0.8.14+commit.80d49f37"
    },
    "functionHashes": {
        "WETH()": "ad5c4648",
        "deposit(address,address,uint256)": "8340f549",
        "deposits(address,address)": "8f601f66",
        "executors(address)": "9ac2a011",
        "owner()": "8da5cb5b",
        "renounceOwnership()": "715018a6",
        "setExecutor(address)": "1c3c0ea8",
        "setWETH(address)": "5b769f3c",
        "transferOwnership(address)": "f2fde38b",
        "withdraw(address,address,uint256)": "d9caed12"
    },
    "gasEstimates": {
        "creation": {
            "codeDepositCost": "784200",
            "executionCost": "infinite",
            "totalCost": "infinite"
        },
        "external": {
            "WETH()": "2370",
            "deposit(address,address,uint256)": "infinite",
            "deposits(address,address)": "infinite",
            "executors(address)": "2553",
            "owner()": "2398",
            "renounceOwnership()": "28159",
            "setExecutor(address)": "26763",
            "setWETH(address)": "26734",
            "transferOwnership(address)": "28397",
            "withdraw(address,address,uint256)": "infinite"
        },
        "internal": {
            "_deposit(address,address,address,uint256)": "infinite",
            "_withdraw(address,address,address,uint256)": "infinite"
        }
    }
}