{
    "contractName": "ProxyNFTStation",
    "abi": [
        {
            "inputs": [
                {
                    "internalType": "address",
                    "name": "_executor",
                    "type": "address"
                }
            ],
            "stateMutability": "nonpayable",
            "type": "constructor"
        },
        {
            "anonymous": false,
            "inputs": [
                {
                    "indexed": true,
                    "internalType": "address",
                    "name": "executor",
                    "type": "address"
                },
                {
                    "indexed": false,
                    "internalType": "uint256",
                    "name": "depositId",
                    "type": "uint256"
                },
                {
                    "indexed": true,
                    "internalType": "address",
                    "name": "user",
                    "type": "address"
                },
                {
                    "indexed": false,
                    "internalType": "address",
                    "name": "nft",
                    "type": "address"
                },
                {
                    "indexed": false,
                    "internalType": "uint256[]",
                    "name": "tokenIds",
                    "type": "uint256[]"
                },
                {
                    "indexed": false,
                    "internalType": "uint256[]",
                    "name": "amounts",
                    "type": "uint256[]"
                },
                {
                    "indexed": false,
                    "internalType": "uint256",
                    "name": "endTime",
                    "type": "uint256"
                }
            ],
            "name": "Deposit",
            "type": "event"
        },
        {
            "anonymous": false,
            "inputs": [
                {
                    "indexed": true,
                    "internalType": "address",
                    "name": "previousOwner",
                    "type": "address"
                },
                {
                    "indexed": true,
                    "internalType": "address",
                    "name": "newOwner",
                    "type": "address"
                }
            ],
            "name": "OwnershipTransferred",
            "type": "event"
        },
        {
            "anonymous": false,
            "inputs": [
                {
                    "indexed": true,
                    "internalType": "address",
                    "name": "executor",
                    "type": "address"
                },
                {
                    "indexed": false,
                    "internalType": "uint256",
                    "name": "depositId",
                    "type": "uint256"
                },
                {
                    "indexed": true,
                    "internalType": "address",
                    "name": "to",
                    "type": "address"
                },
                {
                    "indexed": false,
                    "internalType": "address",
                    "name": "nft",
                    "type": "address"
                },
                {
                    "indexed": false,
                    "internalType": "uint256[]",
                    "name": "tokenIds",
                    "type": "uint256[]"
                },
                {
                    "indexed": false,
                    "internalType": "uint256[]",
                    "name": "amounts",
                    "type": "uint256[]"
                }
            ],
            "name": "Redeem",
            "type": "event"
        },
        {
            "anonymous": false,
            "inputs": [
                {
                    "indexed": true,
                    "internalType": "address",
                    "name": "executor",
                    "type": "address"
                },
                {
                    "indexed": false,
                    "internalType": "uint256",
                    "name": "depositId",
                    "type": "uint256"
                },
                {
                    "indexed": true,
                    "internalType": "address",
                    "name": "to",
                    "type": "address"
                },
                {
                    "indexed": false,
                    "internalType": "address",
                    "name": "nft",
                    "type": "address"
                },
                {
                    "indexed": false,
                    "internalType": "uint256[]",
                    "name": "tokenIds",
                    "type": "uint256[]"
                },
                {
                    "indexed": false,
                    "internalType": "uint256[]",
                    "name": "amounts",
                    "type": "uint256[]"
                }
            ],
            "name": "Withdraw",
            "type": "event"
        },
        {
            "inputs": [],
            "name": "ID_ERC1155",
            "outputs": [
                {
                    "internalType": "bytes4",
                    "name": "",
                    "type": "bytes4"
                }
            ],
            "stateMutability": "view",
            "type": "function"
        },
        {
            "inputs": [],
            "name": "ID_ERC721",
            "outputs": [
                {
                    "internalType": "bytes4",
                    "name": "",
                    "type": "bytes4"
                }
            ],
            "stateMutability": "view",
            "type": "function"
        },
        {
            "inputs": [
                {
                    "internalType": "address",
                    "name": "user",
                    "type": "address"
                },
                {
                    "internalType": "address",
                    "name": "nft",
                    "type": "address"
                },
                {
                    "internalType": "uint256[]",
                    "name": "tokenIds",
                    "type": "uint256[]"
                },
                {
                    "internalType": "uint256[]",
                    "name": "amounts",
                    "type": "uint256[]"
                },
                {
                    "internalType": "uint256",
                    "name": "endTime",
                    "type": "uint256"
                }
            ],
            "name": "deposit",
            "outputs": [
                {
                    "internalType": "uint256",
                    "name": "depositId",
                    "type": "uint256"
                }
            ],
            "stateMutability": "payable",
            "type": "function"
        },
        {
            "inputs": [
                {
                    "internalType": "address",
                    "name": "",
                    "type": "address"
                },
                {
                    "internalType": "uint256",
                    "name": "",
                    "type": "uint256"
                }
            ],
            "name": "deposits",
            "outputs": [
                {
                    "internalType": "address",
                    "name": "user",
                    "type": "address"
                },
                {
                    "internalType": "address",
                    "name": "nftContract",
                    "type": "address"
                },
                {
                    "internalType": "uint256",
                    "name": "endTime",
                    "type": "uint256"
                }
            ],
            "stateMutability": "view",
            "type": "function"
        },
        {
            "inputs": [
                {
                    "internalType": "address",
                    "name": "",
                    "type": "address"
                }
            ],
            "name": "executors",
            "outputs": [
                {
                    "internalType": "bool",
                    "name": "",
                    "type": "bool"
                }
            ],
            "stateMutability": "view",
            "type": "function"
        },
        {
            "inputs": [
                {
                    "internalType": "address",
                    "name": "",
                    "type": "address"
                },
                {
                    "internalType": "address",
                    "name": "",
                    "type": "address"
                },
                {
                    "internalType": "uint256[]",
                    "name": "",
                    "type": "uint256[]"
                },
                {
                    "internalType": "uint256[]",
                    "name": "",
                    "type": "uint256[]"
                },
                {
                    "internalType": "bytes",
                    "name": "",
                    "type": "bytes"
                }
            ],
            "name": "onERC1155BatchReceived",
            "outputs": [
                {
                    "internalType": "bytes4",
                    "name": "",
                    "type": "bytes4"
                }
            ],
            "stateMutability": "nonpayable",
            "type": "function"
        },
        {
            "inputs": [
                {
                    "internalType": "address",
                    "name": "",
                    "type": "address"
                },
                {
                    "internalType": "address",
                    "name": "",
                    "type": "address"
                },
                {
                    "internalType": "uint256",
                    "name": "",
                    "type": "uint256"
                },
                {
                    "internalType": "uint256",
                    "name": "",
                    "type": "uint256"
                },
                {
                    "internalType": "bytes",
                    "name": "",
                    "type": "bytes"
                }
            ],
            "name": "onERC1155Received",
            "outputs": [
                {
                    "internalType": "bytes4",
                    "name": "",
                    "type": "bytes4"
                }
            ],
            "stateMutability": "nonpayable",
            "type": "function"
        },
        {
            "inputs": [
                {
                    "internalType": "address",
                    "name": "",
                    "type": "address"
                },
                {
                    "internalType": "address",
                    "name": "",
                    "type": "address"
                },
                {
                    "internalType": "uint256",
                    "name": "",
                    "type": "uint256"
                },
                {
                    "internalType": "bytes",
                    "name": "",
                    "type": "bytes"
                }
            ],
            "name": "onERC721Received",
            "outputs": [
                {
                    "internalType": "bytes4",
                    "name": "",
                    "type": "bytes4"
                }
            ],
            "stateMutability": "nonpayable",
            "type": "function"
        },
        {
            "inputs": [],
            "name": "owner",
            "outputs": [
                {
                    "internalType": "address",
                    "name": "",
                    "type": "address"
                }
            ],
            "stateMutability": "view",
            "type": "function"
        },
        {
            "inputs": [
                {
                    "internalType": "address",
                    "name": "executor",
                    "type": "address"
                },
                {
                    "internalType": "uint256",
                    "name": "depositId",
                    "type": "uint256"
                },
                {
                    "internalType": "address",
                    "name": "to",
                    "type": "address"
                }
            ],
            "name": "redeem",
            "outputs": [],
            "stateMutability": "nonpayable",
            "type": "function"
        },
        {
            "inputs": [],
            "name": "renounceOwnership",
            "outputs": [],
            "stateMutability": "nonpayable",
            "type": "function"
        },
        {
            "inputs": [
                {
                    "internalType": "address",
                    "name": "executor",
                    "type": "address"
                }
            ],
            "name": "setExecutor",
            "outputs": [],
            "stateMutability": "nonpayable",
            "type": "function"
        },
        {
            "inputs": [
                {
                    "internalType": "bytes4",
                    "name": "interfaceId",
                    "type": "bytes4"
                }
            ],
            "name": "supportsInterface",
            "outputs": [
                {
                    "internalType": "bool",
                    "name": "",
                    "type": "bool"
                }
            ],
            "stateMutability": "view",
            "type": "function"
        },
        {
            "inputs": [
                {
                    "internalType": "address",
                    "name": "newOwner",
                    "type": "address"
                }
            ],
            "name": "transferOwnership",
            "outputs": [],
            "stateMutability": "nonpayable",
            "type": "function"
        },
        {
            "inputs": [
                {
                    "internalType": "uint256",
                    "name": "depositId",
                    "type": "uint256"
                },
                {
                    "internalType": "address",
                    "name": "to",
                    "type": "address"
                }
            ],
            "name": "withdraw",
            "outputs": [],
            "stateMutability": "nonpayable",
            "type": "function"
        }
    ],
    "bytecode": "608060405234801561001057600080fd5b5060405161168b38038061168b83398101604081905261002f916100af565b6100383361005f565b6001600160a01b03166000908152600260205260409020805460ff191660011790556100df565b600080546001600160a01b038381166001600160a01b0319831681178455604051919092169283917f8be0079c531659141344cd1fd0a4f28419497f9722a3daafe3b4186f6b6457e09190a35050565b6000602082840312156100c157600080fd5b81516001600160a01b03811681146100d857600080fd5b9392505050565b61159d806100ee6000396000f3fe6080604052600436106100e75760003560e01c80638da5cb5b1161008a578063bc197c8111610059578063bc197c811461028b578063d6d68177146102b7578063f23a6e6114610331578063f2fde38b1461035d57600080fd5b80638da5cb5b146101fd5780638fa68c13146102255780639ac2a01114610240578063a70354ed1461027057600080fd5b80631c3c0ea8116100c65780631c3c0ea814610187578063443cf787146101a75780635c833bfd146101c8578063715018a6146101e857600080fd5b8062f714ce146100ec57806301ffc9a71461010e578063150b7a0214610143575b600080fd5b3480156100f857600080fd5b5061010c610107366004610f99565b61037d565b005b34801561011a57600080fd5b5061012e610129366004610fc5565b6105e3565b60405190151581526020015b60405180910390f35b34801561014f57600080fd5b5061016e61015e3660046110ad565b630a85bd0160e11b949350505050565b6040516001600160e01b0319909116815260200161013a565b34801561019357600080fd5b5061010c6101a2366004611115565b61061a565b6101ba6101b53660046111b0565b610668565b60405190815260200161013a565b3480156101d457600080fd5b5061010c6101e336600461123d565b6107f6565b3480156101f457600080fd5b5061010c610b15565b34801561020957600080fd5b506000546040516001600160a01b03909116815260200161013a565b34801561023157600080fd5b5061016e6380ac58cd60e01b81565b34801561024c57600080fd5b5061012e61025b366004611115565b60026020526000908152604090205460ff1681565b34801561027c57600080fd5b5061016e636cdb3d1360e11b81565b34801561029757600080fd5b5061016e6102a6366004611279565b63bc197c8160e01b95945050505050565b3480156102c357600080fd5b5061030b6102d2366004611323565b60036020908152600092835260408084209091529082529020805460018201546004909201546001600160a01b03918216929091169083565b604080516001600160a01b0394851681529390921660208401529082015260600161013a565b34801561033d57600080fd5b5061016e61034c36600461134d565b63f23a6e6160e01b95945050505050565b34801561036957600080fd5b5061010c610378366004611115565b610b4b565b3360009081526002602052604090205460ff1615156001146103dc5760405162461bcd60e51b8152602060048201526013602482015272263ab1b5b99d1037b7363ca2bc32b1baba37b960691b60448201526064015b60405180910390fd5b33600090815260036020908152604080832085845290915290206002015461043a5760405162461bcd60e51b8152602060048201526011602482015270125b9d985b1a590819195c1bdcda5d1259607a1b60448201526064016103d3565b33600090815260036020908152604080832085845282528083206001810154600290910180548351818602810186019094528084526001600160a01b0390921694939091908301828280156104ae57602002820191906000526020600020905b81548152602001906001019080831161049a575b50503360009081526003602081815260408084208c8552825280842090920180548351818402810184019094528084529798509296919550919350915083018282801561051a57602002820191906000526020600020905b815481526020019060010190808311610506575b50503360009081526003602090815260408083208c8452909152812080546001600160a01b03199081168255600182018054909116905594955092506105669150506002830182610eff565b610574600383016000610eff565b6004820160009055505061058b8330868585610be6565b836001600160a01b0316336001600160a01b03167f1aa1975ec78254d9555afd3cb8a24bc7ed7cca61a92954e019b7d07e9c31626a878686866040516105d494939291906113ed565b60405180910390a35050505050565b60006001600160e01b03198216630271189760e51b148061061457506301ffc9a760e01b6001600160e01b03198316145b92915050565b6000546001600160a01b031633146106445760405162461bcd60e51b81526004016103d390611429565b6001600160a01b03166000908152600260205260409020805460ff19166001179055565b3360009081526002602052604081205460ff1615156001146106c25760405162461bcd60e51b8152602060048201526013602482015272263ab1b5b99d1037b7363ca2bc32b1baba37b960691b60448201526064016103d3565b6106cf8587308787610be6565b6106dd600180546001019055565b6001546040805160a0810182526001600160a01b03808a16825288811660208084019182528385018a8152606085018a90526080850189905233600090815260038352868120888252835295909520845181549085166001600160a01b03199182161782559251600182018054919095169316929092179092559251805194955091936107709260028501920190610f1d565b506060820151805161078c916003840191602090910190610f1d565b5060808201518160040155905050856001600160a01b0316336001600160a01b03167f347f2f3ccace771076d0730d10c78c9e198450059b63d2a0fa2431102196042483888888886040516107e595949392919061145e565b60405180910390a395945050505050565b6000546001600160a01b031633146108205760405162461bcd60e51b81526004016103d390611429565b6001600160a01b03831660009081526003602090815260408083208584529091529020600201546108875760405162461bcd60e51b8152602060048201526011602482015270125b9d985b1a590819195c1bdcda5d1259607a1b60448201526064016103d3565b6001600160a01b038316600090815260036020908152604080832085845290915290206004015442116108f15760405162461bcd60e51b81526020600482015260126024820152714e6f742074696d6520746f2072656465656d60701b60448201526064016103d3565b6001600160a01b03838116600090815260036020908152604080832086845290915290205481169082161461095c5760405162461bcd60e51b8152602060048201526011602482015270496e76616c69642072656465656d20746f60781b60448201526064016103d3565b6001600160a01b0383811660009081526003602090815260408083208684528252808320600181015460029091018054835181860281018601909452808452919095169491928301828280156109d157602002820191906000526020600020905b8154815260200190600101908083116109bd575b505050506001600160a01b03871660009081526003602081815260408084208a8552825280842090920180548351818402810184019094528084529596509294919350830182828015610a4357602002820191906000526020600020905b815481526020019060010190808311610a2f575b505050506001600160a01b03881660009081526003602090815260408083208a8452909152812080546001600160a01b0319908116825560018201805490911690559293509050610a976002830182610eff565b610aa5600383016000610eff565b60048201600090555050610abc8330868585610be6565b836001600160a01b0316336001600160a01b03167f419f05693ec28c30b2a3f2378868ffd6e66384945f6de621f1aef8bb91e3058587868686604051610b0594939291906113ed565b60405180910390a3505050505050565b6000546001600160a01b03163314610b3f5760405162461bcd60e51b81526004016103d390611429565b610b496000610eaf565b565b6000546001600160a01b03163314610b755760405162461bcd60e51b81526004016103d390611429565b6001600160a01b038116610bda5760405162461bcd60e51b815260206004820152602660248201527f4f776e61626c653a206e6577206f776e657220697320746865207a65726f206160448201526564647265737360d01b60648201526084016103d3565b610be381610eaf565b50565b836001600160a01b0316856001600160a01b031614158015610c1a5750826001600160a01b0316846001600160a01b031614155b610c585760405162461bcd60e51b815260206004820152600f60248201526e496e76616c6964206164647265737360881b60448201526064016103d3565b6040516301ffc9a760e01b81526380ac58cd60e01b60048201526001600160a01b038616906301ffc9a790602401602060405180830381865afa158015610ca3573d6000803e3d6000fd5b505050506040513d601f19601f82011682018060405250810190610cc791906114ad565b15610d865760005b8251811015610d8057856001600160a01b03166323b872dd8686868581518110610cfb57610cfb6114cf565b60209081029190910101516040516001600160e01b031960e086901b1681526001600160a01b0393841660048201529290911660248301526044820152606401600060405180830381600087803b158015610d5557600080fd5b505af1158015610d69573d6000803e3d6000fd5b505050508080610d78906114e5565b915050610ccf565b50610ea8565b6040516301ffc9a760e01b8152636cdb3d1360e11b60048201526001600160a01b038616906301ffc9a790602401602060405180830381865afa158015610dd1573d6000803e3d6000fd5b505050506040513d601f19601f82011682018060405250810190610df591906114ad565b15610ea8578051825114610e435760405162461bcd60e51b8152602060048201526015602482015274496e76616c696420696473202620616d6f756e747360581b60448201526064016103d3565b604051631759616b60e11b81526001600160a01b03861690632eb2c2d690610e7590879087908790879060040161150c565b600060405180830381600087803b158015610e8f57600080fd5b505af1158015610ea3573d6000803e3d6000fd5b505050505b5050505050565b600080546001600160a01b038381166001600160a01b0319831681178455604051919092169283917f8be0079c531659141344cd1fd0a4f28419497f9722a3daafe3b4186f6b6457e09190a35050565b5080546000825590600052602060002090810190610be39190610f68565b828054828255906000526020600020908101928215610f58579160200282015b82811115610f58578251825591602001919060010190610f3d565b50610f64929150610f68565b5090565b5b80821115610f645760008155600101610f69565b80356001600160a01b0381168114610f9457600080fd5b919050565b60008060408385031215610fac57600080fd5b82359150610fbc60208401610f7d565b90509250929050565b600060208284031215610fd757600080fd5b81356001600160e01b031981168114610fef57600080fd5b9392505050565b634e487b7160e01b600052604160045260246000fd5b604051601f8201601f1916810167ffffffffffffffff8111828210171561103557611035610ff6565b604052919050565b600082601f83011261104e57600080fd5b813567ffffffffffffffff81111561106857611068610ff6565b61107b601f8201601f191660200161100c565b81815284602083860101111561109057600080fd5b816020850160208301376000918101602001919091529392505050565b600080600080608085870312156110c357600080fd5b6110cc85610f7d565b93506110da60208601610f7d565b925060408501359150606085013567ffffffffffffffff8111156110fd57600080fd5b6111098782880161103d565b91505092959194509250565b60006020828403121561112757600080fd5b610fef82610f7d565b600082601f83011261114157600080fd5b8135602067ffffffffffffffff82111561115d5761115d610ff6565b8160051b61116c82820161100c565b928352848101820192828101908785111561118657600080fd5b83870192505b848310156111a55782358252918301919083019061118c565b979650505050505050565b600080600080600060a086880312156111c857600080fd5b6111d186610f7d565b94506111df60208701610f7d565b9350604086013567ffffffffffffffff808211156111fc57600080fd5b61120889838a01611130565b9450606088013591508082111561121e57600080fd5b5061122b88828901611130565b95989497509295608001359392505050565b60008060006060848603121561125257600080fd5b61125b84610f7d565b92506020840135915061127060408501610f7d565b90509250925092565b600080600080600060a0868803121561129157600080fd5b61129a86610f7d565b94506112a860208701610f7d565b9350604086013567ffffffffffffffff808211156112c557600080fd5b6112d189838a01611130565b945060608801359150808211156112e757600080fd5b6112f389838a01611130565b9350608088013591508082111561130957600080fd5b506113168882890161103d565b9150509295509295909350565b6000806040838503121561133657600080fd5b61133f83610f7d565b946020939093013593505050565b600080600080600060a0868803121561136557600080fd5b61136e86610f7d565b945061137c60208701610f7d565b93506040860135925060608601359150608086013567ffffffffffffffff8111156113a657600080fd5b6113168882890161103d565b600081518084526020808501945080840160005b838110156113e2578151875295820195908201906001016113c6565b509495945050505050565b8481526001600160a01b0384166020820152608060408201819052600090611417908301856113b2565b82810360608401526111a581856113b2565b6020808252818101527f4f776e61626c653a2063616c6c6572206973206e6f7420746865206f776e6572604082015260600190565b8581526001600160a01b038516602082015260a060408201819052600090611488908301866113b2565b828103606084015261149a81866113b2565b9150508260808301529695505050505050565b6000602082840312156114bf57600080fd5b81518015158114610fef57600080fd5b634e487b7160e01b600052603260045260246000fd5b60006001820161150557634e487b7160e01b600052601160045260246000fd5b5060010190565b6001600160a01b0385811682528416602082015260a060408201819052600090611538908301856113b2565b828103606084015261154a81856113b2565b83810360809094019390935250506000815260200194935050505056fea264697066735822122075a044d3fd252d7f2baf6569da61dad2075a245b017e17ef0ab400e1975b3df164736f6c634300080e0033",
    "sourcePath": "d:/projects/blockchain/chainuniverse/openluck/openluck-contracts/contracts/ProxyNFTStation.sol",
    "compiler": {
        "name": "solc",
        "version": "0.8.14+commit.80d49f37"
    },
    "functionHashes": {
        "ID_ERC1155()": "a70354ed",
        "ID_ERC721()": "8fa68c13",
        "deposit(address,address,uint256[],uint256[],uint256)": "443cf787",
        "deposits(address,uint256)": "d6d68177",
        "executors(address)": "9ac2a011",
        "onERC1155BatchReceived(address,address,uint256[],uint256[],bytes)": "bc197c81",
        "onERC1155Received(address,address,uint256,uint256,bytes)": "f23a6e61",
        "onERC721Received(address,address,uint256,bytes)": "150b7a02",
        "owner()": "8da5cb5b",
        "redeem(address,uint256,address)": "5c833bfd",
        "renounceOwnership()": "715018a6",
        "setExecutor(address)": "1c3c0ea8",
        "supportsInterface(bytes4)": "01ffc9a7",
        "transferOwnership(address)": "f2fde38b",
        "withdraw(uint256,address)": "00f714ce"
    },
    "gasEstimates": {
        "creation": {
            "codeDepositCost": "1106600",
            "executionCost": "infinite",
            "totalCost": "infinite"
        },
        "external": {
            "ID_ERC1155()": "314",
            "ID_ERC721()": "270",
            "deposit(address,address,uint256[],uint256[],uint256)": "infinite",
            "deposits(address,uint256)": "6985",
            "executors(address)": "2587",
            "onERC1155BatchReceived(address,address,uint256[],uint256[],bytes)": "infinite",
            "onERC1155Received(address,address,uint256,uint256,bytes)": "infinite",
            "onERC721Received(address,address,uint256,bytes)": "infinite",
            "owner()": "2324",
            "redeem(address,uint256,address)": "infinite",
            "renounceOwnership()": "28203",
            "setExecutor(address)": "26773",
            "supportsInterface(bytes4)": "472",
            "transferOwnership(address)": "28397",
            "withdraw(uint256,address)": "infinite"
        },
        "internal": {
            "_transferNFTs(address,address,address,uint256[] memory,uint256[] memory)": "infinite"
        }
    }
}