{
  "address": "0xe5966B99EBC4a6edf12B43F95ADA5c47dC359fD7",
  "abi": [
    {
      "inputs": [
        {
          "internalType": "address",
          "name": "_lzEndpoint",
          "type": "address"
        },
        {
          "internalType": "address",
          "name": "_executor",
          "type": "address"
        }
      ],
      "stateMutability": "nonpayable",
      "type": "constructor"
    },
    {
      "anonymous": false,
      "inputs": [
        {
          "indexed": false,
          "internalType": "uint16",
          "name": "_srcChainId",
          "type": "uint16"
        },
        {
          "indexed": false,
          "internalType": "bytes",
          "name": "_srcAddress",
          "type": "bytes"
        },
        {
          "indexed": false,
          "internalType": "uint64",
          "name": "_nonce",
          "type": "uint64"
        },
        {
          "indexed": false,
          "internalType": "bytes",
          "name": "_payload",
          "type": "bytes"
        }
      ],
      "name": "MessageFailed",
      "type": "event"
    },
    {
      "anonymous": false,
      "inputs": [
        {
          "indexed": true,
          "internalType": "address",
          "name": "previousOwner",
          "type": "address"
        },
        {
          "indexed": true,
          "internalType": "address",
          "name": "newOwner",
          "type": "address"
        }
      ],
      "name": "OwnershipTransferred",
      "type": "event"
    },
    {
      "anonymous": false,
      "inputs": [
        {
          "indexed": false,
          "internalType": "uint8",
          "name": "msgType",
          "type": "uint8"
        },
        {
          "indexed": false,
          "internalType": "uint64",
          "name": "nonce",
          "type": "uint64"
        }
      ],
      "name": "SendMsg",
      "type": "event"
    },
    {
      "anonymous": false,
      "inputs": [
        {
          "indexed": false,
          "internalType": "uint16",
          "name": "_srcChainId",
          "type": "uint16"
        },
        {
          "indexed": false,
          "internalType": "bytes",
          "name": "_srcAddress",
          "type": "bytes"
        }
      ],
      "name": "SetTrustedRemote",
      "type": "event"
    },
    {
      "inputs": [],
      "name": "EXECUTOR",
      "outputs": [
        {
          "internalType": "contract ILucksExecutor",
          "name": "",
          "type": "address"
        }
      ],
      "stateMutability": "view",
      "type": "function"
    },
    {
      "inputs": [
        {
          "internalType": "uint16",
          "name": "_dstChainId",
          "type": "uint16"
        },
        {
          "components": [
            {
              "internalType": "address",
              "name": "seller",
              "type": "address"
            },
            {
              "internalType": "uint16",
              "name": "nftChainId",
              "type": "uint16"
            },
            {
              "internalType": "address",
              "name": "nftContract",
              "type": "address"
            },
            {
              "internalType": "uint256[]",
              "name": "tokenIds",
              "type": "uint256[]"
            },
            {
              "internalType": "uint256[]",
              "name": "tokenAmounts",
              "type": "uint256[]"
            },
            {
              "internalType": "address",
              "name": "acceptToken",
              "type": "address"
            },
            {
              "internalType": "enum TaskStatus",
              "name": "status",
              "type": "uint8"
            },
            {
              "internalType": "uint256",
              "name": "startTime",
              "type": "uint256"
            },
            {
              "internalType": "uint256",
              "name": "endTime",
              "type": "uint256"
            },
            {
              "internalType": "uint256",
              "name": "targetAmount",
              "type": "uint256"
            },
            {
              "internalType": "uint256",
              "name": "price",
              "type": "uint256"
            },
            {
              "internalType": "uint16",
              "name": "paymentStrategy",
              "type": "uint16"
            },
            {
              "components": [
                {
                  "internalType": "address",
                  "name": "token",
                  "type": "address"
                },
                {
                  "internalType": "uint256",
                  "name": "amount",
                  "type": "uint256"
                }
              ],
              "internalType": "struct ExclusiveToken",
              "name": "exclusiveToken",
              "type": "tuple"
            },
            {
              "internalType": "uint256",
              "name": "amountCollected",
              "type": "uint256"
            },
            {
              "internalType": "uint256",
              "name": "depositId",
              "type": "uint256"
            }
          ],
          "internalType": "struct TaskItem",
          "name": "item",
          "type": "tuple"
        },
        {
          "components": [
            {
              "internalType": "uint16",
              "name": "chainId",
              "type": "uint16"
            },
            {
              "internalType": "string",
              "name": "title",
              "type": "string"
            },
            {
              "internalType": "string",
              "name": "note",
              "type": "string"
            }
          ],
          "internalType": "struct TaskExt",
          "name": "ext",
          "type": "tuple"
        },
        {
          "components": [
            {
              "internalType": "uint256",
              "name": "dstGasForCall",
              "type": "uint256"
            },
            {
              "internalType": "uint256",
              "name": "dstNativeAmount",
              "type": "uint256"
            },
            {
              "internalType": "bytes",
              "name": "dstNativeAddr",
              "type": "bytes"
            },
            {
              "internalType": "bytes",
              "name": "zroPaymentAddr",
              "type": "bytes"
            }
          ],
          "internalType": "struct lzTxObj",
          "name": "_lzTxParams",
          "type": "tuple"
        }
      ],
      "name": "estimateCreateTaskFee",
      "outputs": [
        {
          "internalType": "uint256",
          "name": "nativeFee",
          "type": "uint256"
        },
        {
          "internalType": "uint256",
          "name": "zroFee",
          "type": "uint256"
        }
      ],
      "stateMutability": "view",
      "type": "function"
    },
    {
      "inputs": [
        {
          "internalType": "uint16",
          "name": "_dstChainId",
          "type": "uint16"
        },
        {
          "internalType": "address payable",
          "name": "_user",
          "type": "address"
        },
        {
          "internalType": "address",
          "name": "nftContract",
          "type": "address"
        },
        {
          "internalType": "uint256",
          "name": "depositId",
          "type": "uint256"
        },
        {
          "components": [
            {
              "internalType": "uint256",
              "name": "dstGasForCall",
              "type": "uint256"
            },
            {
              "internalType": "uint256",
              "name": "dstNativeAmount",
              "type": "uint256"
            },
            {
              "internalType": "bytes",
              "name": "dstNativeAddr",
              "type": "bytes"
            },
            {
              "internalType": "bytes",
              "name": "zroPaymentAddr",
              "type": "bytes"
            }
          ],
          "internalType": "struct lzTxObj",
          "name": "_lzTxParams",
          "type": "tuple"
        }
      ],
      "name": "estimateWithdrawNFTsFee",
      "outputs": [
        {
          "internalType": "uint256",
          "name": "nativeFee",
          "type": "uint256"
        },
        {
          "internalType": "uint256",
          "name": "zroFee",
          "type": "uint256"
        }
      ],
      "stateMutability": "view",
      "type": "function"
    },
    {
      "inputs": [
        {
          "internalType": "uint16",
          "name": "",
          "type": "uint16"
        },
        {
          "internalType": "bytes",
          "name": "",
          "type": "bytes"
        },
        {
          "internalType": "uint64",
          "name": "",
          "type": "uint64"
        }
      ],
      "name": "failedMessages",
      "outputs": [
        {
          "internalType": "bytes32",
          "name": "",
          "type": "bytes32"
        }
      ],
      "stateMutability": "view",
      "type": "function"
    },
    {
      "inputs": [
        {
          "internalType": "uint16",
          "name": "_srcChainId",
          "type": "uint16"
        },
        {
          "internalType": "bytes",
          "name": "_srcAddress",
          "type": "bytes"
        }
      ],
      "name": "forceResumeReceive",
      "outputs": [],
      "stateMutability": "nonpayable",
      "type": "function"
    },
    {
      "inputs": [
        {
          "internalType": "uint16",
          "name": "",
          "type": "uint16"
        },
        {
          "internalType": "uint8",
          "name": "",
          "type": "uint8"
        }
      ],
      "name": "gasLookup",
      "outputs": [
        {
          "internalType": "uint256",
          "name": "",
          "type": "uint256"
        }
      ],
      "stateMutability": "view",
      "type": "function"
    },
    {
      "inputs": [
        {
          "internalType": "uint16",
          "name": "_version",
          "type": "uint16"
        },
        {
          "internalType": "uint16",
          "name": "_chainId",
          "type": "uint16"
        },
        {
          "internalType": "address",
          "name": "",
          "type": "address"
        },
        {
          "internalType": "uint256",
          "name": "_configType",
          "type": "uint256"
        }
      ],
      "name": "getConfig",
      "outputs": [
        {
          "internalType": "bytes",
          "name": "",
          "type": "bytes"
        }
      ],
      "stateMutability": "view",
      "type": "function"
    },
    {
      "inputs": [
        {
          "internalType": "uint16",
          "name": "_srcChainId",
          "type": "uint16"
        },
        {
          "internalType": "bytes",
          "name": "_srcAddress",
          "type": "bytes"
        }
      ],
      "name": "isTrustedRemote",
      "outputs": [
        {
          "internalType": "bool",
          "name": "",
          "type": "bool"
        }
      ],
      "stateMutability": "view",
      "type": "function"
    },
    {
      "inputs": [],
      "name": "lzEndpoint",
      "outputs": [
        {
          "internalType": "contract ILayerZeroEndpoint",
          "name": "",
          "type": "address"
        }
      ],
      "stateMutability": "view",
      "type": "function"
    },
    {
      "inputs": [
        {
          "internalType": "uint16",
          "name": "_srcChainId",
          "type": "uint16"
        },
        {
          "internalType": "bytes",
          "name": "_srcAddress",
          "type": "bytes"
        },
        {
          "internalType": "uint64",
          "name": "_nonce",
          "type": "uint64"
        },
        {
          "internalType": "bytes",
          "name": "_payload",
          "type": "bytes"
        }
      ],
      "name": "lzReceive",
      "outputs": [],
      "stateMutability": "nonpayable",
      "type": "function"
    },
    {
      "inputs": [
        {
          "internalType": "uint16",
          "name": "_srcChainId",
          "type": "uint16"
        },
        {
          "internalType": "bytes",
          "name": "_srcAddress",
          "type": "bytes"
        },
        {
          "internalType": "uint64",
          "name": "_nonce",
          "type": "uint64"
        },
        {
          "internalType": "bytes",
          "name": "_payload",
          "type": "bytes"
        }
      ],
      "name": "nonblockingLzReceive",
      "outputs": [],
      "stateMutability": "nonpayable",
      "type": "function"
    },
    {
      "inputs": [],
      "name": "owner",
      "outputs": [
        {
          "internalType": "address",
          "name": "",
          "type": "address"
        }
      ],
      "stateMutability": "view",
      "type": "function"
    },
    {
      "inputs": [
        {
          "internalType": "uint16",
          "name": "_dstChainId",
          "type": "uint16"
        },
        {
          "internalType": "uint8",
          "name": "_functionType",
          "type": "uint8"
        },
        {
          "internalType": "string",
          "name": "_note",
          "type": "string"
        },
        {
          "components": [
            {
              "internalType": "uint256",
              "name": "dstGasForCall",
              "type": "uint256"
            },
            {
              "internalType": "uint256",
              "name": "dstNativeAmount",
              "type": "uint256"
            },
            {
              "internalType": "bytes",
              "name": "dstNativeAddr",
              "type": "bytes"
            },
            {
              "internalType": "bytes",
              "name": "zroPaymentAddr",
              "type": "bytes"
            }
          ],
          "internalType": "struct lzTxObj",
          "name": "_lzTxParams",
          "type": "tuple"
        }
      ],
      "name": "quoteLayerZeroFee",
      "outputs": [
        {
          "internalType": "uint256",
          "name": "nativeFee",
          "type": "uint256"
        },
        {
          "internalType": "uint256",
          "name": "zroFee",
          "type": "uint256"
        }
      ],
      "stateMutability": "view",
      "type": "function"
    },
    {
      "inputs": [],
      "name": "renounceOwnership",
      "outputs": [],
      "stateMutability": "nonpayable",
      "type": "function"
    },
    {
      "inputs": [
        {
          "internalType": "uint16",
          "name": "_srcChainId",
          "type": "uint16"
        },
        {
          "internalType": "bytes",
          "name": "_srcAddress",
          "type": "bytes"
        },
        {
          "internalType": "uint64",
          "name": "_nonce",
          "type": "uint64"
        },
        {
          "internalType": "bytes",
          "name": "_payload",
          "type": "bytes"
        }
      ],
      "name": "retryMessage",
      "outputs": [],
      "stateMutability": "payable",
      "type": "function"
    },
    {
      "inputs": [
        {
          "internalType": "uint16",
          "name": "_dstChainId",
          "type": "uint16"
        },
        {
          "internalType": "address payable",
          "name": "_refundAddress",
          "type": "address"
        },
        {
          "components": [
            {
              "internalType": "address",
              "name": "seller",
              "type": "address"
            },
            {
              "internalType": "uint16",
              "name": "nftChainId",
              "type": "uint16"
            },
            {
              "internalType": "address",
              "name": "nftContract",
              "type": "address"
            },
            {
              "internalType": "uint256[]",
              "name": "tokenIds",
              "type": "uint256[]"
            },
            {
              "internalType": "uint256[]",
              "name": "tokenAmounts",
              "type": "uint256[]"
            },
            {
              "internalType": "address",
              "name": "acceptToken",
              "type": "address"
            },
            {
              "internalType": "enum TaskStatus",
              "name": "status",
              "type": "uint8"
            },
            {
              "internalType": "uint256",
              "name": "startTime",
              "type": "uint256"
            },
            {
              "internalType": "uint256",
              "name": "endTime",
              "type": "uint256"
            },
            {
              "internalType": "uint256",
              "name": "targetAmount",
              "type": "uint256"
            },
            {
              "internalType": "uint256",
              "name": "price",
              "type": "uint256"
            },
            {
              "internalType": "uint16",
              "name": "paymentStrategy",
              "type": "uint16"
            },
            {
              "components": [
                {
                  "internalType": "address",
                  "name": "token",
                  "type": "address"
                },
                {
                  "internalType": "uint256",
                  "name": "amount",
                  "type": "uint256"
                }
              ],
              "internalType": "struct ExclusiveToken",
              "name": "exclusiveToken",
              "type": "tuple"
            },
            {
              "internalType": "uint256",
              "name": "amountCollected",
              "type": "uint256"
            },
            {
              "internalType": "uint256",
              "name": "depositId",
              "type": "uint256"
            }
          ],
          "internalType": "struct TaskItem",
          "name": "item",
          "type": "tuple"
        },
        {
          "components": [
            {
              "internalType": "uint16",
              "name": "chainId",
              "type": "uint16"
            },
            {
              "internalType": "string",
              "name": "title",
              "type": "string"
            },
            {
              "internalType": "string",
              "name": "note",
              "type": "string"
            }
          ],
          "internalType": "struct TaskExt",
          "name": "ext",
          "type": "tuple"
        },
        {
          "components": [
            {
              "internalType": "uint256",
              "name": "dstGasForCall",
              "type": "uint256"
            },
            {
              "internalType": "uint256",
              "name": "dstNativeAmount",
              "type": "uint256"
            },
            {
              "internalType": "bytes",
              "name": "dstNativeAddr",
              "type": "bytes"
            },
            {
              "internalType": "bytes",
              "name": "zroPaymentAddr",
              "type": "bytes"
            }
          ],
          "internalType": "struct lzTxObj",
          "name": "_lzTxParams",
          "type": "tuple"
        }
      ],
      "name": "sendCreateTask",
      "outputs": [],
      "stateMutability": "payable",
      "type": "function"
    },
    {
      "inputs": [
        {
          "internalType": "uint16",
          "name": "_dstChainId",
          "type": "uint16"
        },
        {
          "internalType": "address payable",
          "name": "_refundAddress",
          "type": "address"
        },
        {
          "internalType": "address payable",
          "name": "_user",
          "type": "address"
        },
        {
          "internalType": "address",
          "name": "nftContract",
          "type": "address"
        },
        {
          "internalType": "uint256",
          "name": "depositId",
          "type": "uint256"
        },
        {
          "components": [
            {
              "internalType": "uint256",
              "name": "dstGasForCall",
              "type": "uint256"
            },
            {
              "internalType": "uint256",
              "name": "dstNativeAmount",
              "type": "uint256"
            },
            {
              "internalType": "bytes",
              "name": "dstNativeAddr",
              "type": "bytes"
            },
            {
              "internalType": "bytes",
              "name": "zroPaymentAddr",
              "type": "bytes"
            }
          ],
          "internalType": "struct lzTxObj",
          "name": "_lzTxParams",
          "type": "tuple"
        }
      ],
      "name": "sendWithdrawNFTs",
      "outputs": [],
      "stateMutability": "payable",
      "type": "function"
    },
    {
      "inputs": [
        {
          "internalType": "uint16",
          "name": "_version",
          "type": "uint16"
        },
        {
          "internalType": "uint16",
          "name": "_chainId",
          "type": "uint16"
        },
        {
          "internalType": "uint256",
          "name": "_configType",
          "type": "uint256"
        },
        {
          "internalType": "bytes",
          "name": "_config",
          "type": "bytes"
        }
      ],
      "name": "setConfig",
      "outputs": [],
      "stateMutability": "nonpayable",
      "type": "function"
    },
    {
      "inputs": [
        {
          "internalType": "contract ILucksExecutor",
          "name": "_executor",
          "type": "address"
        }
      ],
      "name": "setExecutor",
      "outputs": [],
      "stateMutability": "nonpayable",
      "type": "function"
    },
    {
      "inputs": [
        {
          "internalType": "uint16",
          "name": "_dstChainId",
          "type": "uint16"
        },
        {
          "internalType": "uint8",
          "name": "_functionType",
          "type": "uint8"
        },
        {
          "internalType": "uint256",
          "name": "_gasAmount",
          "type": "uint256"
        }
      ],
      "name": "setGasAmount",
      "outputs": [],
      "stateMutability": "nonpayable",
      "type": "function"
    },
    {
      "inputs": [
        {
          "internalType": "uint16",
          "name": "_version",
          "type": "uint16"
        }
      ],
      "name": "setReceiveVersion",
      "outputs": [],
      "stateMutability": "nonpayable",
      "type": "function"
    },
    {
      "inputs": [
        {
          "internalType": "uint16",
          "name": "_version",
          "type": "uint16"
        }
      ],
      "name": "setSendVersion",
      "outputs": [],
      "stateMutability": "nonpayable",
      "type": "function"
    },
    {
      "inputs": [
        {
          "internalType": "uint16",
          "name": "_srcChainId",
          "type": "uint16"
        },
        {
          "internalType": "bytes",
          "name": "_srcAddress",
          "type": "bytes"
        }
      ],
      "name": "setTrustedRemote",
      "outputs": [],
      "stateMutability": "nonpayable",
      "type": "function"
    },
    {
      "inputs": [
        {
          "internalType": "bool",
          "name": "enable",
          "type": "bool"
        }
      ],
      "name": "setUseLayerZeroToken",
      "outputs": [],
      "stateMutability": "nonpayable",
      "type": "function"
    },
    {
      "inputs": [
        {
          "internalType": "address",
          "name": "newOwner",
          "type": "address"
        }
      ],
      "name": "transferOwnership",
      "outputs": [],
      "stateMutability": "nonpayable",
      "type": "function"
    },
    {
      "inputs": [
        {
          "internalType": "uint16",
          "name": "",
          "type": "uint16"
        }
      ],
      "name": "trustedRemoteLookup",
      "outputs": [
        {
          "internalType": "bytes",
          "name": "",
          "type": "bytes"
        }
      ],
      "stateMutability": "view",
      "type": "function"
    },
    {
      "inputs": [],
      "name": "useLayerZeroToken",
      "outputs": [
        {
          "internalType": "bool",
          "name": "",
          "type": "bool"
        }
      ],
      "stateMutability": "view",
      "type": "function"
    }
  ],
  "transactionHash": "0xf4ccbdc40b5657c2c36dc33b7d76c8e49e55e1f07ef2c2632582d30fef90f842",
  "args": [
    "0x3c2269811836af69497E5F486A85D7316753cf62",
    "0xd667Ae0B67A1f3b92F2dF1219C2C501FECF306bF"
  ],
  "numDeployments": 1,
  "solcInputHash": "7b804176a7632af5b6ee7d8f47f9cf27",
  "bytecode": "0x60a06040523480156200001157600080fd5b506040516200392138038062003921833981016040819052620000349162000141565b81806200004133620000d4565b60601b6001600160601b031916608052506001600160a01b038116620000ad5760405162461bcd60e51b815260206004820152601e60248201527f4c75636b733a205f6578656375746f722063616e6e6f74206265203078300000604482015260640160405180910390fd5b600480546001600160a01b0319166001600160a01b03929092169190911790555062000179565b600080546001600160a01b038381166001600160a01b0319831681178455604051919092169283917f8be0079c531659141344cd1fd0a4f28419497f9722a3daafe3b4186f6b6457e09190a35050565b80516001600160a01b03811681146200013c57600080fd5b919050565b600080604083850312156200015557600080fd5b620001608362000124565b9150620001706020840162000124565b90509250929050565b60805160601c61373c620001e5600039600081816104da015281816105d20152818161088101528181610a8801528181610d3a0152818161105501528181611156015281816114460152818161179c01528181611c2a01528181611f740152612439015261373c6000f3fe6080604052600436106101ab5760003560e01c8063715018a6116100ec578063c213dc2b1161008a578063eb8d72b711610064578063eb8d72b71461054f578063f2fde38b1461056f578063f5ecbdbc1461058f578063fc869108146105af57600080fd5b8063c213dc2b146104fc578063cbed8b9c1461051c578063d1deba1f1461053c57600080fd5b80638305de61116100c65780638305de61146104585780638c7ae0fc1461046b5780638da5cb5b1461049d578063b353aaa7146104c857600080fd5b8063715018a6146103f65780637533d7881461040b5780637cbbc5d21461043857600080fd5b80631c3c0ea811610159578063479e1e0b11610133578063479e1e0b146103155780635b8c41e614610335578063630dc7cb1461038457806366ad5c8a146103d657600080fd5b80631c3c0ea8146102a55780633d8b38f6146102c557806342d65a8d146102f557600080fd5b8063107f6e281161018a578063107f6e281461023d57806310ddb137146102505780631b0899fc1461027057600080fd5b80621d3567146101b057806302422054146101d257806307e0db171461021d575b600080fd5b3480156101bc57600080fd5b506101d06101cb366004612d02565b6105cf565b005b3480156101de57600080fd5b5061020a6101ed366004612ed4565b600360209081526000928352604080842090915290825290205481565b6040519081526020015b60405180910390f35b34801561022957600080fd5b506101d0610238366004612a88565b6107ce565b6101d061024b366004612bae565b6108ef565b34801561025c57600080fd5b506101d061026b366004612a88565b6109d5565b34801561027c57600080fd5b5061029061028b366004612f07565b610acc565b60408051928352602083019190915201610214565b3480156102b157600080fd5b506101d06102c03660046129db565b610e03565b3480156102d157600080fd5b506102e56102e0366004612c4d565b610ecb565b6040519015158152602001610214565b34801561030157600080fd5b506101d0610310366004612c4d565b610f97565b34801561032157600080fd5b50610290610330366004612b31565b6110c5565b34801561034157600080fd5b5061020a610350366004612ca0565b6002602090815260009384526040808520845180860184018051928152908401958401959095209452929052825290205481565b34801561039057600080fd5b506004546103b19073ffffffffffffffffffffffffffffffffffffffff1681565b60405173ffffffffffffffffffffffffffffffffffffffff9091168152602001610214565b3480156103e257600080fd5b506101d06103f1366004612d02565b61121f565b34801561040257600080fd5b506101d06112c0565b34801561041757600080fd5b5061042b610426366004612a88565b611343565b60405161021491906131a4565b34801561044457600080fd5b50610290610453366004612d8b565b6113dd565b6101d0610466366004612aa3565b61150e565b34801561047757600080fd5b506004546102e59074010000000000000000000000000000000000000000900460ff1681565b3480156104a957600080fd5b5060005473ffffffffffffffffffffffffffffffffffffffff166103b1565b3480156104d457600080fd5b506103b17f000000000000000000000000000000000000000000000000000000000000000081565b34801561050857600080fd5b506101d06105173660046129f8565b611613565b34801561052857600080fd5b506101d0610537366004612e65565b6116de565b6101d061054a366004612d02565b611812565b34801561055b57600080fd5b506101d061056a366004612c4d565b6119d0565b34801561057b57600080fd5b506101d061058a3660046129db565b611ab0565b34801561059b57600080fd5b5061042b6105aa366004612e18565b611be0565b3480156105bb57600080fd5b506101d06105ca366004612f5d565b611ce4565b337f000000000000000000000000000000000000000000000000000000000000000073ffffffffffffffffffffffffffffffffffffffff1614610673576040517f08c379a000000000000000000000000000000000000000000000000000000000815260206004820152601e60248201527f4c7a4170703a20696e76616c696420656e64706f696e742063616c6c6572000060448201526064015b60405180910390fd5b61ffff8416600090815260016020526040812080546106919061361c565b80601f01602080910402602001604051908101604052809291908181526020018280546106bd9061361c565b801561070a5780601f106106df5761010080835404028352916020019161070a565b820191906000526020600020905b8154815290600101906020018083116106ed57829003601f168201915b505050505090508051845114801561072f575080805190602001208480519060200120145b6107bb576040517f08c379a000000000000000000000000000000000000000000000000000000000815260206004820152602660248201527f4c7a4170703a20696e76616c696420736f757263652073656e64696e6720636f60448201527f6e74726163740000000000000000000000000000000000000000000000000000606482015260840161066a565b6107c785858585611e08565b5050505050565b60005473ffffffffffffffffffffffffffffffffffffffff16331461084f576040517f08c379a000000000000000000000000000000000000000000000000000000000815260206004820181905260248201527f4f776e61626c653a2063616c6c6572206973206e6f7420746865206f776e6572604482015260640161066a565b6040517f07e0db1700000000000000000000000000000000000000000000000000000000815261ffff821660048201527f000000000000000000000000000000000000000000000000000000000000000073ffffffffffffffffffffffffffffffffffffffff16906307e0db17906024015b600060405180830381600087803b1580156108db57600080fd5b505af11580156107c7573d6000803e3d6000fd5b60045473ffffffffffffffffffffffffffffffffffffffff163314610996576040517f08c379a000000000000000000000000000000000000000000000000000000000815260206004820152602360248201527f4c75636b733a2063616c6c6572206d757374206265204c75636b73457865637560448201527f746f720000000000000000000000000000000000000000000000000000000000606482015260840161066a565b6000600184846040516020016109ae93929190613344565b60405160208183030381529060405290506109cd866001878585611f13565b505050505050565b60005473ffffffffffffffffffffffffffffffffffffffff163314610a56576040517f08c379a000000000000000000000000000000000000000000000000000000000815260206004820181905260248201527f4f776e61626c653a2063616c6c6572206973206e6f7420746865206f776e6572604482015260640161066a565b6040517f10ddb13700000000000000000000000000000000000000000000000000000000815261ffff821660048201527f000000000000000000000000000000000000000000000000000000000000000073ffffffffffffffffffffffffffffffffffffffff16906310ddb137906024016108c1565b60408051602080820183526000808352835160028082526060820186529194859493859391908301908036833701905050905061271081600081518110610b1557610b15613670565b60200260200101818152505061271081600181518110610b3757610b37613670565b602090810291909101015260ff871660011415610c5b57604080516101e0810182526000808252602080830182905282840182905260608084018690526080840186905260a08401839052600160c085018190524260e08601819052610100860152683635c9adc5dea00000610120860152670de0b6b3a76400006101408601819052610160860182905286518088018852858152808501919091526101808601526101a08501939093526127106101c08501528451908101855282815284518086018652601981527f6e667420636f6c6c656374696f6e206974656d207469746c650000000000000081840152818301528085018b90529351929392610c4392918591859101613344565b60405160208183030381529060405293505050610cfe565b60ff871660021415610c9c57604080516002602082015260009181019190915261271060608201526080016040516020818303038152906040529150610cfe565b6040517f08c379a000000000000000000000000000000000000000000000000000000000815260206004820181905260248201527f4c75636b733a20756e737570706f727465642066756e6374696f6e2074797065604482015260640161066a565b6000610d0b898988612055565b600480546040517f40a7bb100000000000000000000000000000000000000000000000000000000081529293507f000000000000000000000000000000000000000000000000000000000000000073ffffffffffffffffffffffffffffffffffffffff16926340a7bb1092610da4928e9230928a9274010000000000000000000000000000000000000000900460ff16918991016131b7565b604080518083038186803b158015610dbb57600080fd5b505afa158015610dcf573d6000803e3d6000fd5b505050506040513d601f19601f82011682018060405250810190610df39190612f99565b9450945050505094509492505050565b60005473ffffffffffffffffffffffffffffffffffffffff163314610e84576040517f08c379a000000000000000000000000000000000000000000000000000000000815260206004820181905260248201527f4f776e61626c653a2063616c6c6572206973206e6f7420746865206f776e6572604482015260640161066a565b600480547fffffffffffffffffffffffff00000000000000000000000000000000000000001673ffffffffffffffffffffffffffffffffffffffff92909216919091179055565b61ffff831660009081526001602052604081208054829190610eec9061361c565b80601f0160208091040260200160405190810160405280929190818152602001828054610f189061361c565b8015610f655780601f10610f3a57610100808354040283529160200191610f65565b820191906000526020600020905b815481529060010190602001808311610f4857829003601f168201915b505050505090508383604051610f7c92919061311f565b60405180910390208180519060200120149150509392505050565b60005473ffffffffffffffffffffffffffffffffffffffff163314611018576040517f08c379a000000000000000000000000000000000000000000000000000000000815260206004820181905260248201527f4f776e61626c653a2063616c6c6572206973206e6f7420746865206f776e6572604482015260640161066a565b6040517f42d65a8d00000000000000000000000000000000000000000000000000000000815273ffffffffffffffffffffffffffffffffffffffff7f000000000000000000000000000000000000000000000000000000000000000016906342d65a8d9061108e90869086908690600401613216565b600060405180830381600087803b1580156110a857600080fd5b505af11580156110bc573d6000803e3d6000fd5b50505050505050565b604080516002602082015273ffffffffffffffffffffffffffffffffffffffff808716928201929092529084166060820152608081018390526000908190819060a0016040516020818303038152906040529050600061112789600287612055565b600480546040517f40a7bb100000000000000000000000000000000000000000000000000000000081529293507f000000000000000000000000000000000000000000000000000000000000000073ffffffffffffffffffffffffffffffffffffffff16926340a7bb10926111c0928e923092899274010000000000000000000000000000000000000000900460ff16918991016131b7565b604080518083038186803b1580156111d757600080fd5b505afa1580156111eb573d6000803e3d6000fd5b505050506040513d601f19601f8201168201806040525081019061120f9190612f99565b9350935050509550959350505050565b3330146112ae576040517f08c379a000000000000000000000000000000000000000000000000000000000815260206004820152602660248201527f4e6f6e626c6f636b696e674c7a4170703a2063616c6c6572206d75737420626560448201527f204c7a4170700000000000000000000000000000000000000000000000000000606482015260840161066a565b6112ba84848484612132565b50505050565b60005473ffffffffffffffffffffffffffffffffffffffff163314611341576040517f08c379a000000000000000000000000000000000000000000000000000000000815260206004820181905260248201527f4f776e61626c653a2063616c6c6572206973206e6f7420746865206f776e6572604482015260640161066a565b565b6001602052600090815260409020805461135c9061361c565b80601f01602080910402602001604051908101604052809291908181526020018280546113889061361c565b80156113d55780601f106113aa576101008083540402835291602001916113d5565b820191906000526020600020905b8154815290600101906020018083116113b857829003601f168201915b505050505081565b6000806000600186866040516020016113f893929190613344565b6040516020818303038152906040529050600061141788600187612055565b600480546040517f40a7bb100000000000000000000000000000000000000000000000000000000081529293507f000000000000000000000000000000000000000000000000000000000000000073ffffffffffffffffffffffffffffffffffffffff16926340a7bb10926114b0928d923092899274010000000000000000000000000000000000000000900460ff16918991016131b7565b604080518083038186803b1580156114c757600080fd5b505afa1580156114db573d6000803e3d6000fd5b505050506040513d601f19601f820116820180604052508101906114ff9190612f99565b93509350505094509492505050565b60045473ffffffffffffffffffffffffffffffffffffffff1633146115b5576040517f08c379a000000000000000000000000000000000000000000000000000000000815260206004820152602360248201527f4c75636b733a2063616c6c6572206d757374206265204c75636b73457865637560448201527f746f720000000000000000000000000000000000000000000000000000000000606482015260840161066a565b604080516002602082015273ffffffffffffffffffffffffffffffffffffffff8087169282019290925290841660608201526080810183905260009060a00160405160208183030381529060405290506110bc876002888585611f13565b60005473ffffffffffffffffffffffffffffffffffffffff163314611694576040517f08c379a000000000000000000000000000000000000000000000000000000000815260206004820181905260248201527f4f776e61626c653a2063616c6c6572206973206e6f7420746865206f776e6572604482015260640161066a565b6004805491151574010000000000000000000000000000000000000000027fffffffffffffffffffffff00ffffffffffffffffffffffffffffffffffffffff909216919091179055565b60005473ffffffffffffffffffffffffffffffffffffffff16331461175f576040517f08c379a000000000000000000000000000000000000000000000000000000000815260206004820181905260248201527f4f776e61626c653a2063616c6c6572206973206e6f7420746865206f776e6572604482015260640161066a565b6040517fcbed8b9c00000000000000000000000000000000000000000000000000000000815273ffffffffffffffffffffffffffffffffffffffff7f0000000000000000000000000000000000000000000000000000000000000000169063cbed8b9c906117d990889088908890889088906004016132f2565b600060405180830381600087803b1580156117f357600080fd5b505af1158015611807573d6000803e3d6000fd5b505050505050505050565b61ffff8416600090815260026020526040808220905161183390869061312f565b908152604080516020928190038301902067ffffffffffffffff8616600090815292529020549050806118e8576040517f08c379a000000000000000000000000000000000000000000000000000000000815260206004820152602360248201527f4e6f6e626c6f636b696e674c7a4170703a206e6f2073746f726564206d65737360448201527f6167650000000000000000000000000000000000000000000000000000000000606482015260840161066a565b81516020830120811461197d576040517f08c379a000000000000000000000000000000000000000000000000000000000815260206004820152602160248201527f4e6f6e626c6f636b696e674c7a4170703a20696e76616c6964207061796c6f6160448201527f6400000000000000000000000000000000000000000000000000000000000000606482015260840161066a565b61ffff8516600090815260026020526040808220905161199e90879061312f565b908152604080516020928190038301902067ffffffffffffffff8716600090815292529020556107c785858585612132565b60005473ffffffffffffffffffffffffffffffffffffffff163314611a51576040517f08c379a000000000000000000000000000000000000000000000000000000000815260206004820181905260248201527f4f776e61626c653a2063616c6c6572206973206e6f7420746865206f776e6572604482015260640161066a565b61ffff83166000908152600160205260409020611a6f9083836124fd565b507ffa41487ad5d6728f0b19276fa1eddc16558578f5109fc39d2dc33c3230470dab838383604051611aa393929190613216565b60405180910390a1505050565b60005473ffffffffffffffffffffffffffffffffffffffff163314611b31576040517f08c379a000000000000000000000000000000000000000000000000000000000815260206004820181905260248201527f4f776e61626c653a2063616c6c6572206973206e6f7420746865206f776e6572604482015260640161066a565b73ffffffffffffffffffffffffffffffffffffffff8116611bd4576040517f08c379a000000000000000000000000000000000000000000000000000000000815260206004820152602660248201527f4f776e61626c653a206e6577206f776e657220697320746865207a65726f206160448201527f6464726573730000000000000000000000000000000000000000000000000000606482015260840161066a565b611bdd81612257565b50565b6040517ff5ecbdbc00000000000000000000000000000000000000000000000000000000815261ffff808616600483015284166024820152306044820152606481018290526060907f000000000000000000000000000000000000000000000000000000000000000073ffffffffffffffffffffffffffffffffffffffff169063f5ecbdbc9060840160006040518083038186803b158015611c8157600080fd5b505afa158015611c95573d6000803e3d6000fd5b505050506040513d6000823e601f3d9081017fffffffffffffffffffffffffffffffffffffffffffffffffffffffffffffffe0168201604052611cdb9190810190612a1a565b95945050505050565b60005473ffffffffffffffffffffffffffffffffffffffff163314611d65576040517f08c379a000000000000000000000000000000000000000000000000000000000815260206004820181905260248201527f4f776e61626c653a2063616c6c6572206973206e6f7420746865206f776e6572604482015260640161066a565b60018260ff1610158015611d7d575060048260ff1611155b611de3576040517f08c379a000000000000000000000000000000000000000000000000000000000815260206004820152601c60248201527f4c75636b733a20696e76616c6964205f66756e6374696f6e5479706500000000604482015260640161066a565b61ffff909216600090815260036020908152604080832060ff90941683529290522055565b6040517f66ad5c8a00000000000000000000000000000000000000000000000000000000815230906366ad5c8a90611e4a9087908790879087906004016132a8565b600060405180830381600087803b158015611e6457600080fd5b505af1925050508015611e75575060015b6112ba578080519060200120600260008661ffff1661ffff16815260200190815260200160002084604051611eaa919061312f565b90815260408051918290036020908101832067ffffffffffffffff87166000908152915220919091557fe6f254030bcb01ffd20558175c13fcaed6d1520be7becee4c961b65f79243b0d90611f069086908690869086906132a8565b60405180910390a16112ba565b6000611f20868685612055565b606084015160140151909150611f3987848784866122cc565b6040517f7a14574800000000000000000000000000000000000000000000000000000000815261ffff881660048201523060248201526000907f000000000000000000000000000000000000000000000000000000000000000073ffffffffffffffffffffffffffffffffffffffff1690637a1457489060440160206040518083038186803b158015611fcb57600080fd5b505afa158015611fdf573d6000803e3d6000fd5b505050506040513d601f19601f820116820180604052508101906120039190612fbd565b6040805160ff8a16815267ffffffffffffffff831660208201529192507f8d3ee0df6a4b7e82a7f20a763f1c6826e6176323e655af64f32318827d2112d4910160405180910390a15050505050505050565b60408082015160140151825161ffff861660009081526003602090815284822060ff881683529052928320546060938493929091612092916124b4565b9050600085602001511180156120bd575073ffffffffffffffffffffffffffffffffffffffff821615155b156120dc576120d581866020015187604001516124c7565b9250612127565b61212481604080517e01000000000000000000000000000000000000000000000000000000000000602082015260228082019390935281518082039093018352604201905290565b92505b509095945050505050565b6020810151600480546040517fe44cb8e400000000000000000000000000000000000000000000000000000000815273ffffffffffffffffffffffffffffffffffffffff9091169163e44cb8e49161218e918591879101613320565b600060405180830381600087803b1580156121a857600080fd5b505af19250505080156121b9575060015b6107c7578180519060200120600260008761ffff1661ffff168152602001908152602001600020856040516121ee919061312f565b90815260408051918290036020908101832067ffffffffffffffff88166000908152915220919091557fe6f254030bcb01ffd20558175c13fcaed6d1520be7becee4c961b65f79243b0d9061224a9087908790879087906132a8565b60405180910390a16107c7565b6000805473ffffffffffffffffffffffffffffffffffffffff8381167fffffffffffffffffffffffff0000000000000000000000000000000000000000831681178455604051919092169283917f8be0079c531659141344cd1fd0a4f28419497f9722a3daafe3b4186f6b6457e09190a35050565b61ffff8516600090815260016020526040812080546122ea9061361c565b80601f01602080910402602001604051908101604052809291908181526020018280546123169061361c565b80156123635780601f1061233857610100808354040283529160200191612363565b820191906000526020600020905b81548152906001019060200180831161234657829003601f168201915b505050505090508051600014156123fc576040517f08c379a000000000000000000000000000000000000000000000000000000000815260206004820152603060248201527f4c7a4170703a2064657374696e6174696f6e20636861696e206973206e6f742060448201527f61207472757374656420736f7572636500000000000000000000000000000000606482015260840161066a565b6040517fc580310000000000000000000000000000000000000000000000000000000000815273ffffffffffffffffffffffffffffffffffffffff7f0000000000000000000000000000000000000000000000000000000000000000169063c580310090349061247a908a9086908b908b908b908b90600401613234565b6000604051808303818588803b15801561249357600080fd5b505af11580156124a7573d6000803e3d6000fd5b5050505050505050505050565b60006124c082846135b1565b9392505050565b6040516060906002906124e490829087908790879060200161314b565b6040516020818303038152906040529150509392505050565b8280546125099061361c565b90600052602060002090601f01602090048101928261252b576000855561258f565b82601f10612562578280017fffffffffffffffffffffffffffffffffffffffffffffffffffffffffffffff0082351617855561258f565b8280016001018555821561258f579182015b8281111561258f578235825591602001919060010190612574565b5061259b92915061259f565b5090565b5b8082111561259b57600081556001016125a0565b80356125bf816136ce565b919050565b600082601f8301126125d557600080fd5b8135602067ffffffffffffffff8211156125f1576125f161369f565b8160051b61260082820161351c565b83815282810190868401838801850189101561261b57600080fd5b600093505b8584101561263e578035835260019390930192918401918401612620565b50979650505050505050565b60008083601f84011261265c57600080fd5b50813567ffffffffffffffff81111561267457600080fd5b60208301915083602082850101111561268c57600080fd5b9250929050565b600082601f8301126126a457600080fd5b81356126b76126b28261356b565b61351c565b8181528460208386010111156126cc57600080fd5b816020850160208301376000918101602001919091529392505050565b8035600681106125bf57600080fd5b60006040828403121561270a57600080fd5b6040516040810181811067ffffffffffffffff8211171561272d5761272d61369f565b604052905080823561273e816136ce565b8152602092830135920191909152919050565b60006060828403121561276357600080fd5b6040516060810167ffffffffffffffff82821081831117156127875761278761369f565b81604052829350612797856129b8565b835260208501359150808211156127ad57600080fd5b6127b986838701612693565b602084015260408501359150808211156127d257600080fd5b506127df85828601612693565b6040830152505092915050565b600061020082840312156127ff57600080fd5b6128076134f2565b9050612812826125b4565b8152612820602083016129b8565b6020820152612831604083016125b4565b6040820152606082013567ffffffffffffffff8082111561285157600080fd5b61285d858386016125c4565b6060840152608084013591508082111561287657600080fd5b50612883848285016125c4565b60808301525061289560a083016125b4565b60a08201526128a660c083016126e9565b60c082015260e082810135908201526101008083013590820152610120808301359082015261014080830135908201526101606128e48184016129b8565b908201526101806128f7848483016126f8565b81830152506101c0808301356101a08301526101e0830135818301525092915050565b60006080828403121561292c57600080fd5b6040516080810167ffffffffffffffff82821081831117156129505761295061369f565b816040528293508435835260208501356020840152604085013591508082111561297957600080fd5b61298586838701612693565b6040840152606085013591508082111561299e57600080fd5b506129ab85828601612693565b6060830152505092915050565b803561ffff811681146125bf57600080fd5b803560ff811681146125bf57600080fd5b6000602082840312156129ed57600080fd5b81356124c0816136ce565b600060208284031215612a0a57600080fd5b813580151581146124c057600080fd5b600060208284031215612a2c57600080fd5b815167ffffffffffffffff811115612a4357600080fd5b8201601f81018413612a5457600080fd5b8051612a626126b28261356b565b818152856020838501011115612a7757600080fd5b611cdb8260208301602086016135f0565b600060208284031215612a9a57600080fd5b6124c0826129b8565b60008060008060008060c08789031215612abc57600080fd5b612ac5876129b8565b95506020870135612ad5816136ce565b94506040870135612ae5816136ce565b93506060870135612af5816136ce565b92506080870135915060a087013567ffffffffffffffff811115612b1857600080fd5b612b2489828a0161291a565b9150509295509295509295565b600080600080600060a08688031215612b4957600080fd5b612b52866129b8565b94506020860135612b62816136ce565b93506040860135612b72816136ce565b925060608601359150608086013567ffffffffffffffff811115612b9557600080fd5b612ba18882890161291a565b9150509295509295909350565b600080600080600060a08688031215612bc657600080fd5b612bcf866129b8565b94506020860135612bdf816136ce565b9350604086013567ffffffffffffffff80821115612bfc57600080fd5b612c0889838a016127ec565b94506060880135915080821115612c1e57600080fd5b612c2a89838a01612751565b93506080880135915080821115612c4057600080fd5b50612ba18882890161291a565b600080600060408486031215612c6257600080fd5b612c6b846129b8565b9250602084013567ffffffffffffffff811115612c8757600080fd5b612c938682870161264a565b9497909650939450505050565b600080600060608486031215612cb557600080fd5b612cbe846129b8565b9250602084013567ffffffffffffffff811115612cda57600080fd5b612ce686828701612693565b9250506040840135612cf7816136f0565b809150509250925092565b60008060008060808587031215612d1857600080fd5b612d21856129b8565b9350602085013567ffffffffffffffff80821115612d3e57600080fd5b612d4a88838901612693565b945060408701359150612d5c826136f0565b90925060608601359080821115612d7257600080fd5b50612d7f87828801612693565b91505092959194509250565b60008060008060808587031215612da157600080fd5b612daa856129b8565b9350602085013567ffffffffffffffff80821115612dc757600080fd5b612dd3888389016127ec565b94506040870135915080821115612de957600080fd5b612df588838901612751565b93506060870135915080821115612e0b57600080fd5b50612d7f8782880161291a565b60008060008060808587031215612e2e57600080fd5b612e37856129b8565b9350612e45602086016129b8565b92506040850135612e55816136ce565b9396929550929360600135925050565b600080600080600060808688031215612e7d57600080fd5b612e86866129b8565b9450612e94602087016129b8565b935060408601359250606086013567ffffffffffffffff811115612eb757600080fd5b612ec38882890161264a565b969995985093965092949392505050565b60008060408385031215612ee757600080fd5b612ef0836129b8565b9150612efe602084016129ca565b90509250929050565b60008060008060808587031215612f1d57600080fd5b612f26856129b8565b9350612f34602086016129ca565b9250604085013567ffffffffffffffff80821115612f5157600080fd5b612df588838901612693565b600080600060608486031215612f7257600080fd5b612f7b846129b8565b9250612f89602085016129ca565b9150604084013590509250925092565b60008060408385031215612fac57600080fd5b505080516020909101519092909150565b600060208284031215612fcf57600080fd5b81516124c0816136f0565b600081518084526020808501945080840160005b8381101561300a57815187529582019590820190600101612fee565b509495945050505050565b8183528181602085013750600060208284010152600060207fffffffffffffffffffffffffffffffffffffffffffffffffffffffffffffffe0601f840116840101905092915050565b600081518084526130768160208601602086016135f0565b601f017fffffffffffffffffffffffffffffffffffffffffffffffffffffffffffffffe0169290920160200192915050565b600681106130df577f4e487b7100000000000000000000000000000000000000000000000000000000600052602160045260246000fd5b9052565b61ffff81511682526000602082015160606020850152613106606085018261305e565b905060408301518482036040860152611cdb828261305e565b8183823760009101908152919050565b600082516131418184602087016135f0565b9190910192915050565b7fffff0000000000000000000000000000000000000000000000000000000000008560f01b168152836002820152826022820152600082516131948160428501602087016135f0565b9190910160420195945050505050565b6020815260006124c0602083018461305e565b61ffff8616815273ffffffffffffffffffffffffffffffffffffffff8516602082015260a0604082015260006131f060a083018661305e565b8415156060840152828103608084015261320a818561305e565b98975050505050505050565b61ffff84168152604060208201526000611cdb604083018486613015565b61ffff8716815260c06020820152600061325160c083018861305e565b8281036040840152613263818861305e565b73ffffffffffffffffffffffffffffffffffffffff87811660608601528616608085015283810360a0850152905061329b818561305e565b9998505050505050505050565b61ffff851681526080602082015260006132c5608083018661305e565b67ffffffffffffffff8516604084015282810360608401526132e7818561305e565b979650505050505050565b600061ffff8088168352808716602084015250846040830152608060608301526132e7608083018486613015565b60ff8316815260406020820152600061333c604083018461305e565b949350505050565b60ff841681526060602082015261337460608201845173ffffffffffffffffffffffffffffffffffffffff169052565b6000602084015161338b608084018261ffff169052565b50604084015173ffffffffffffffffffffffffffffffffffffffff1660a0830152606084015161020060c08401526133c7610260840182612fda565b905060808501517fffffffffffffffffffffffffffffffffffffffffffffffffffffffffffffffa08483030160e08501526134028282612fda565b91505060a085015161010061342e8186018373ffffffffffffffffffffffffffffffffffffffff169052565b60c08701519150610120613444818701846130a8565b60e08801516101408781019190915291880151610160808801919091529088015161018080880191909152918801516101a0808801919091529088015192506101c091906134978388018561ffff169052565b90880151805173ffffffffffffffffffffffffffffffffffffffff166101e0880152602001516102008701528701516102208601528601516102408501525082810360408401526134e881856130e3565b9695505050505050565b6040516101e0810167ffffffffffffffff811182821017156135165761351661369f565b60405290565b604051601f82017fffffffffffffffffffffffffffffffffffffffffffffffffffffffffffffffe016810167ffffffffffffffff811182821017156135635761356361369f565b604052919050565b600067ffffffffffffffff8211156135855761358561369f565b50601f017fffffffffffffffffffffffffffffffffffffffffffffffffffffffffffffffe01660200190565b600082198211156135eb577f4e487b7100000000000000000000000000000000000000000000000000000000600052601160045260246000fd5b500190565b60005b8381101561360b5781810151838201526020016135f3565b838111156112ba5750506000910152565b600181811c9082168061363057607f821691505b6020821081141561366a577f4e487b7100000000000000000000000000000000000000000000000000000000600052602260045260246000fd5b50919050565b7f4e487b7100000000000000000000000000000000000000000000000000000000600052603260045260246000fd5b7f4e487b7100000000000000000000000000000000000000000000000000000000600052604160045260246000fd5b73ffffffffffffffffffffffffffffffffffffffff81168114611bdd57600080fd5b67ffffffffffffffff81168114611bdd57600080fdfea2646970667358221220ec2faa20cc0073a5ac788677c44b70a5c10b6abce689161945faebc164342e5464736f6c63430008060033",
  "devdoc": {
    "kind": "dev",
    "methods": {
      "owner()": {
        "details": "Returns the address of the current owner."
      },
      "renounceOwnership()": {
        "details": "Leaves the contract without owner. It will not be possible to call `onlyOwner` functions anymore. Can only be called by the current owner. NOTE: Renouncing ownership will leave the contract without an owner, thereby removing any functionality that is only available to the owner."
      },
      "transferOwnership(address)": {
        "details": "Transfers ownership of the contract to a new account (`newOwner`). Can only be called by the current owner."
      }
    },
    "version": 1
  },
  "userdoc": {
    "kind": "user",
    "methods": {},
    "version": 1
  },
  "storageLayout": {
    "storage": [
      {
        "astId": 917,
        "contract": "contracts/LucksBridge.sol:LucksBridge",
        "label": "_owner",
        "offset": 0,
        "slot": "0",
        "type": "t_address"
      },
      {
        "astId": 19865,
        "contract": "contracts/LucksBridge.sol:LucksBridge",
        "label": "trustedRemoteLookup",
        "offset": 0,
        "slot": "1",
        "type": "t_mapping(t_uint16,t_bytes_storage)"
      },
      {
        "astId": 20155,
        "contract": "contracts/LucksBridge.sol:LucksBridge",
        "label": "failedMessages",
        "offset": 0,
        "slot": "2",
        "type": "t_mapping(t_uint16,t_mapping(t_bytes_memory_ptr,t_mapping(t_uint64,t_bytes32)))"
      },
      {
        "astId": 5578,
        "contract": "contracts/LucksBridge.sol:LucksBridge",
        "label": "gasLookup",
        "offset": 0,
        "slot": "3",
        "type": "t_mapping(t_uint16,t_mapping(t_uint8,t_uint256))"
      },
      {
        "astId": 5581,
        "contract": "contracts/LucksBridge.sol:LucksBridge",
        "label": "EXECUTOR",
        "offset": 0,
        "slot": "4",
        "type": "t_contract(ILucksExecutor)10355"
      },
      {
        "astId": 5583,
        "contract": "contracts/LucksBridge.sol:LucksBridge",
        "label": "useLayerZeroToken",
        "offset": 20,
        "slot": "4",
        "type": "t_bool"
      }
    ],
    "types": {
      "t_address": {
        "encoding": "inplace",
        "label": "address",
        "numberOfBytes": "20"
      },
      "t_bool": {
        "encoding": "inplace",
        "label": "bool",
        "numberOfBytes": "1"
      },
      "t_bytes32": {
        "encoding": "inplace",
        "label": "bytes32",
        "numberOfBytes": "32"
      },
      "t_bytes_memory_ptr": {
        "encoding": "bytes",
        "label": "bytes",
        "numberOfBytes": "32"
      },
      "t_bytes_storage": {
        "encoding": "bytes",
        "label": "bytes",
        "numberOfBytes": "32"
      },
      "t_contract(ILucksExecutor)10355": {
        "encoding": "inplace",
        "label": "contract ILucksExecutor",
        "numberOfBytes": "20"
      },
      "t_mapping(t_bytes_memory_ptr,t_mapping(t_uint64,t_bytes32))": {
        "encoding": "mapping",
        "key": "t_bytes_memory_ptr",
        "label": "mapping(bytes => mapping(uint64 => bytes32))",
        "numberOfBytes": "32",
        "value": "t_mapping(t_uint64,t_bytes32)"
      },
      "t_mapping(t_uint16,t_bytes_storage)": {
        "encoding": "mapping",
        "key": "t_uint16",
        "label": "mapping(uint16 => bytes)",
        "numberOfBytes": "32",
        "value": "t_bytes_storage"
      },
      "t_mapping(t_uint16,t_mapping(t_bytes_memory_ptr,t_mapping(t_uint64,t_bytes32)))": {
        "encoding": "mapping",
        "key": "t_uint16",
        "label": "mapping(uint16 => mapping(bytes => mapping(uint64 => bytes32)))",
        "numberOfBytes": "32",
        "value": "t_mapping(t_bytes_memory_ptr,t_mapping(t_uint64,t_bytes32))"
      },
      "t_mapping(t_uint16,t_mapping(t_uint8,t_uint256))": {
        "encoding": "mapping",
        "key": "t_uint16",
        "label": "mapping(uint16 => mapping(uint8 => uint256))",
        "numberOfBytes": "32",
        "value": "t_mapping(t_uint8,t_uint256)"
      },
      "t_mapping(t_uint64,t_bytes32)": {
        "encoding": "mapping",
        "key": "t_uint64",
        "label": "mapping(uint64 => bytes32)",
        "numberOfBytes": "32",
        "value": "t_bytes32"
      },
      "t_mapping(t_uint8,t_uint256)": {
        "encoding": "mapping",
        "key": "t_uint8",
        "label": "mapping(uint8 => uint256)",
        "numberOfBytes": "32",
        "value": "t_uint256"
      },
      "t_uint16": {
        "encoding": "inplace",
        "label": "uint16",
        "numberOfBytes": "2"
      },
      "t_uint256": {
        "encoding": "inplace",
        "label": "uint256",
        "numberOfBytes": "32"
      },
      "t_uint64": {
        "encoding": "inplace",
        "label": "uint64",
        "numberOfBytes": "8"
      },
      "t_uint8": {
        "encoding": "inplace",
        "label": "uint8",
        "numberOfBytes": "1"
      }
    }
  }
}