{
  "address": "0x2059E9DdCc64148B5E33220928953b2A31EF4635",
  "abi": [
    {
      "inputs": [
        {
          "internalType": "address",
          "name": "_keeperRegAddr",
          "type": "address"
        },
        {
          "internalType": "contract ILucksExecutor",
          "name": "_executor",
          "type": "address"
        }
      ],
      "stateMutability": "nonpayable",
      "type": "constructor"
    },
    {
      "anonymous": false,
      "inputs": [
        {
          "indexed": false,
          "internalType": "uint256",
          "name": "amountAdded",
          "type": "uint256"
        },
        {
          "indexed": false,
          "internalType": "uint256",
          "name": "newBalance",
          "type": "uint256"
        },
        {
          "indexed": false,
          "internalType": "address",
          "name": "sender",
          "type": "address"
        }
      ],
      "name": "FundsAdded",
      "type": "event"
    },
    {
      "anonymous": false,
      "inputs": [
        {
          "indexed": false,
          "internalType": "uint256",
          "name": "amountWithdrawn",
          "type": "uint256"
        },
        {
          "indexed": false,
          "internalType": "address",
          "name": "payee",
          "type": "address"
        }
      ],
      "name": "FundsWithdrawn",
      "type": "event"
    },
    {
      "anonymous": false,
      "inputs": [
        {
          "indexed": false,
          "internalType": "address",
          "name": "oldAddress",
          "type": "address"
        },
        {
          "indexed": false,
          "internalType": "address",
          "name": "newAddress",
          "type": "address"
        }
      ],
      "name": "KeeperRegistryAddressUpdated",
      "type": "event"
    },
    {
      "anonymous": false,
      "inputs": [
        {
          "indexed": true,
          "internalType": "address",
          "name": "previousOwner",
          "type": "address"
        },
        {
          "indexed": true,
          "internalType": "address",
          "name": "newOwner",
          "type": "address"
        }
      ],
      "name": "OwnershipTransferred",
      "type": "event"
    },
    {
      "anonymous": false,
      "inputs": [
        {
          "indexed": false,
          "internalType": "address",
          "name": "account",
          "type": "address"
        }
      ],
      "name": "Paused",
      "type": "event"
    },
    {
      "anonymous": false,
      "inputs": [
        {
          "indexed": false,
          "internalType": "uint256",
          "name": "taskId",
          "type": "uint256"
        },
        {
          "indexed": false,
          "internalType": "string",
          "name": "reason",
          "type": "string"
        }
      ],
      "name": "RevertInvoke",
      "type": "event"
    },
    {
      "anonymous": false,
      "inputs": [
        {
          "indexed": false,
          "internalType": "address",
          "name": "account",
          "type": "address"
        }
      ],
      "name": "Unpaused",
      "type": "event"
    },
    {
      "inputs": [],
      "name": "BATCH_PERFORM_LIMIT",
      "outputs": [
        {
          "internalType": "uint256",
          "name": "",
          "type": "uint256"
        }
      ],
      "stateMutability": "view",
      "type": "function"
    },
    {
      "inputs": [],
      "name": "DST_GAS_AMOUNT",
      "outputs": [
        {
          "internalType": "uint256",
          "name": "",
          "type": "uint256"
        }
      ],
      "stateMutability": "view",
      "type": "function"
    },
    {
      "inputs": [],
      "name": "EXECUTOR",
      "outputs": [
        {
          "internalType": "contract ILucksExecutor",
          "name": "",
          "type": "address"
        }
      ],
      "stateMutability": "view",
      "type": "function"
    },
    {
      "inputs": [],
      "name": "KEEPER",
      "outputs": [
        {
          "internalType": "address",
          "name": "",
          "type": "address"
        }
      ],
      "stateMutability": "view",
      "type": "function"
    },
    {
      "inputs": [
        {
          "internalType": "uint256",
          "name": "taskId",
          "type": "uint256"
        },
        {
          "internalType": "uint256",
          "name": "endTime",
          "type": "uint256"
        }
      ],
      "name": "addTask",
      "outputs": [],
      "stateMutability": "nonpayable",
      "type": "function"
    },
    {
      "inputs": [
        {
          "internalType": "uint256[]",
          "name": "taskIds",
          "type": "uint256[]"
        },
        {
          "internalType": "uint256[]",
          "name": "endTimes",
          "type": "uint256[]"
        }
      ],
      "name": "addTasks",
      "outputs": [],
      "stateMutability": "nonpayable",
      "type": "function"
    },
    {
      "inputs": [
        {
          "internalType": "bytes",
          "name": "",
          "type": "bytes"
        }
      ],
      "name": "checkUpkeep",
      "outputs": [
        {
          "internalType": "bool",
          "name": "upkeepNeeded",
          "type": "bool"
        },
        {
          "internalType": "bytes",
          "name": "performData",
          "type": "bytes"
        }
      ],
      "stateMutability": "view",
      "type": "function"
    },
    {
      "inputs": [],
      "name": "first",
      "outputs": [
        {
          "internalType": "uint256",
          "name": "",
          "type": "uint256"
        }
      ],
      "stateMutability": "view",
      "type": "function"
    },
    {
      "inputs": [
        {
          "internalType": "uint256",
          "name": "taskId",
          "type": "uint256"
        }
      ],
      "name": "get",
      "outputs": [
        {
          "internalType": "uint256",
          "name": "",
          "type": "uint256"
        }
      ],
      "stateMutability": "view",
      "type": "function"
    },
    {
      "inputs": [],
      "name": "getQueueTasks",
      "outputs": [
        {
          "internalType": "uint256[]",
          "name": "",
          "type": "uint256[]"
        }
      ],
      "stateMutability": "view",
      "type": "function"
    },
    {
      "inputs": [],
      "name": "last",
      "outputs": [
        {
          "internalType": "uint256",
          "name": "",
          "type": "uint256"
        }
      ],
      "stateMutability": "view",
      "type": "function"
    },
    {
      "inputs": [
        {
          "internalType": "uint256",
          "name": "taskId",
          "type": "uint256"
        }
      ],
      "name": "next",
      "outputs": [
        {
          "internalType": "uint256",
          "name": "",
          "type": "uint256"
        }
      ],
      "stateMutability": "view",
      "type": "function"
    },
    {
      "inputs": [],
      "name": "owner",
      "outputs": [
        {
          "internalType": "address",
          "name": "",
          "type": "address"
        }
      ],
      "stateMutability": "view",
      "type": "function"
    },
    {
      "inputs": [],
      "name": "pause",
      "outputs": [],
      "stateMutability": "nonpayable",
      "type": "function"
    },
    {
      "inputs": [],
      "name": "paused",
      "outputs": [
        {
          "internalType": "bool",
          "name": "",
          "type": "bool"
        }
      ],
      "stateMutability": "view",
      "type": "function"
    },
    {
      "inputs": [
        {
          "internalType": "bytes",
          "name": "performData",
          "type": "bytes"
        }
      ],
      "name": "performUpkeep",
      "outputs": [],
      "stateMutability": "nonpayable",
      "type": "function"
    },
    {
      "inputs": [
        {
          "internalType": "uint256",
          "name": "taskId",
          "type": "uint256"
        }
      ],
      "name": "prev",
      "outputs": [
        {
          "internalType": "uint256",
          "name": "",
          "type": "uint256"
        }
      ],
      "stateMutability": "view",
      "type": "function"
    },
    {
      "inputs": [
        {
          "internalType": "uint256",
          "name": "taskId",
          "type": "uint256"
        }
      ],
      "name": "removeTask",
      "outputs": [],
      "stateMutability": "nonpayable",
      "type": "function"
    },
    {
      "inputs": [],
      "name": "renounceOwnership",
      "outputs": [],
      "stateMutability": "nonpayable",
      "type": "function"
    },
    {
      "inputs": [
        {
          "internalType": "uint256",
          "name": "num",
          "type": "uint256"
        }
      ],
      "name": "setBatchPerformLimist",
      "outputs": [],
      "stateMutability": "nonpayable",
      "type": "function"
    },
    {
      "inputs": [
        {
          "internalType": "uint256",
          "name": "amount",
          "type": "uint256"
        }
      ],
      "name": "setDstGasAmount",
      "outputs": [],
      "stateMutability": "nonpayable",
      "type": "function"
    },
    {
      "inputs": [
        {
          "internalType": "contract ILucksExecutor",
          "name": "_executor",
          "type": "address"
        }
      ],
      "name": "setExecutor",
      "outputs": [],
      "stateMutability": "nonpayable",
      "type": "function"
    },
    {
      "inputs": [
        {
          "internalType": "address",
          "name": "_keeperRegAddr",
          "type": "address"
        }
      ],
      "name": "setKeeper",
      "outputs": [],
      "stateMutability": "nonpayable",
      "type": "function"
    },
    {
      "inputs": [],
      "name": "size",
      "outputs": [
        {
          "internalType": "uint256",
          "name": "",
          "type": "uint256"
        }
      ],
      "stateMutability": "view",
      "type": "function"
    },
    {
      "inputs": [
        {
          "internalType": "uint256",
          "name": "num",
          "type": "uint256"
        }
      ],
      "name": "top",
      "outputs": [
        {
          "internalType": "uint256[]",
          "name": "",
          "type": "uint256[]"
        }
      ],
      "stateMutability": "view",
      "type": "function"
    },
    {
      "inputs": [
        {
          "internalType": "address",
          "name": "newOwner",
          "type": "address"
        }
      ],
      "name": "transferOwnership",
      "outputs": [],
      "stateMutability": "nonpayable",
      "type": "function"
    },
    {
      "inputs": [],
      "name": "unpause",
      "outputs": [],
      "stateMutability": "nonpayable",
      "type": "function"
    },
    {
      "inputs": [
        {
          "internalType": "uint256",
          "name": "amount",
          "type": "uint256"
        },
        {
          "internalType": "address payable",
          "name": "payee",
          "type": "address"
        }
      ],
      "name": "withdraw",
      "outputs": [],
      "stateMutability": "nonpayable",
      "type": "function"
    },
    {
      "stateMutability": "payable",
      "type": "receive"
    }
  ],
  "transactionHash": "0x4aabcd178a48e8e1eaf7b87fd0be447a71c93504c4114aa50e8ad7cad4cb45f4",
  "args": [
    "0x7b3EC232b08BD7b4b3305BE0C044D907B2DF960B",
    "0xd667Ae0B67A1f3b92F2dF1219C2C501FECF306bF"
  ],
  "numDeployments": 1,
  "solcInputHash": "252dd0463f83d91b4214b4ca3b466744",
  "bytecode": "0x60806040526005805560006006553480156200001a57600080fd5b5060405162002452380380620024528339810160408190526200003d91620000dc565b81816200004a336200008c565b6000805460ff60a01b19169055600780546001600160a01b039384166001600160a01b0319918216179091556008805492909316911617905550620001349050565b600080546001600160a01b038381166001600160a01b0319831681178455604051919092169283917f8be0079c531659141344cd1fd0a4f28419497f9722a3daafe3b4186f6b6457e09190a35050565b60008060408385031215620000f057600080fd5b8251620000fd816200011b565b602084015190925062000110816200011b565b809150509250929050565b6001600160a01b03811681146200013157600080fd5b50565b61230e80620001446000396000f3fe6080604052600436106101b95760003560e01c8063715018a6116100ec578063aa0a31001161008a578063c81c6c7c11610064578063c81c6c7c14610560578063d6ff17a014610575578063edd004e51461058b578063f2fde38b146105ab57600080fd5b8063aa0a31001461050a578063b15269a51461052a578063c30841171461054057600080fd5b8063862a179e116100c6578063862a179e1461046d5780638da5cb5b1461049a578063949d225d146104c55780639507d39a146104da57600080fd5b8063715018a614610423578063748747e6146104385780638456cb591461045857600080fd5b80633df4ddf41161015957806347799da81161013357806347799da8146103535780635c975abb14610368578063630dc7cb146103a35780636e04ff0d146103f557600080fd5b80633df4ddf4146103095780633f4ba83a1461031e5780634585e33b1461033357600080fd5b80631c3c0ea8116101955780631c3c0ea814610265578063257baa3a14610285578063313ae541146102a557806335671214146102db57600080fd5b8062b34ebd14610203578062f714ce146102255780630fbeb0321461024557600080fd5b366101fe5760408051348152476020820152338183015290517fc6f3fb0fec49e4877342d4625d77a632541f55b7aae0f9d0b34c69b3478706dc9181900360600190a1005b600080fd5b34801561020f57600080fd5b5061022361021e366004611fc6565b6105cb565b005b34801561023157600080fd5b50610223610240366004611f96565b610698565b34801561025157600080fd5b50610223610260366004611f7d565b6107cf565b34801561027157600080fd5b50610223610280366004611d94565b610855565b34801561029157600080fd5b506102236102a0366004611df5565b61091d565b3480156102b157600080fd5b506102c56102c0366004611f7d565b610ae5565b6040516102d29190612032565b60405180910390f35b3480156102e757600080fd5b506102fb6102f6366004611f7d565b610af8565b6040519081526020016102d2565b34801561031557600080fd5b506102fb610b05565b34801561032a57600080fd5b50610223610b16565b34801561033f57600080fd5b5061022361034e366004611e59565b610ba1565b34801561035f57600080fd5b506002546102fb565b34801561037457600080fd5b5060005474010000000000000000000000000000000000000000900460ff1660405190151581526020016102d2565b3480156103af57600080fd5b506008546103d09073ffffffffffffffffffffffffffffffffffffffff1681565b60405173ffffffffffffffffffffffffffffffffffffffff90911681526020016102d2565b34801561040157600080fd5b50610415610410366004611e59565b610ce2565b6040516102d2929190612076565b34801561042f57600080fd5b50610223610da8565b34801561044457600080fd5b50610223610453366004611d94565b610e33565b34801561046457600080fd5b50610223610f6f565b34801561047957600080fd5b506007546103d09073ffffffffffffffffffffffffffffffffffffffff1681565b3480156104a657600080fd5b5060005473ffffffffffffffffffffffffffffffffffffffff166103d0565b3480156104d157600080fd5b506001546102fb565b3480156104e657600080fd5b506102fb6104f5366004611f7d565b60009081526004602052604090206001015490565b34801561051657600080fd5b50610223610525366004611f7d565b610ff8565b34801561053657600080fd5b506102fb60065481565b34801561054c57600080fd5b5061022361055b366004611f7d565b6110e8565b34801561056c57600080fd5b506102c5611197565b34801561058157600080fd5b506102fb60055481565b34801561059757600080fd5b506102fb6105a6366004611f7d565b61127e565b3480156105b757600080fd5b506102236105c6366004611d94565b611292565b60085473ffffffffffffffffffffffffffffffffffffffff16331480610608575060005473ffffffffffffffffffffffffffffffffffffffff1633145b610673576040517f08c379a000000000000000000000000000000000000000000000000000000000815260206004820152600c60248201527f6f6e6c794578656375746f72000000000000000000000000000000000000000060448201526064015b60405180910390fd5b6000821180156106835750600081115b1561069457610694600183836113bf565b5050565b60005473ffffffffffffffffffffffffffffffffffffffff163314610719576040517f08c379a000000000000000000000000000000000000000000000000000000000815260206004820181905260248201527f4f776e61626c653a2063616c6c6572206973206e6f7420746865206f776e6572604482015260640161066a565b73ffffffffffffffffffffffffffffffffffffffff811661073957600080fd5b6040805183815273ffffffffffffffffffffffffffffffffffffffff831660208201527f6141b54b56b8a52a8c6f5cd2a857f6117b18ffbf4d46bd3106f300a839cbf5ea910160405180910390a160405173ffffffffffffffffffffffffffffffffffffffff82169083156108fc029084906000818181858888f193505050501580156107ca573d6000803e3d6000fd5b505050565b60005473ffffffffffffffffffffffffffffffffffffffff163314610850576040517f08c379a000000000000000000000000000000000000000000000000000000000815260206004820181905260248201527f4f776e61626c653a2063616c6c6572206973206e6f7420746865206f776e6572604482015260640161066a565b600655565b60005473ffffffffffffffffffffffffffffffffffffffff1633146108d6576040517f08c379a000000000000000000000000000000000000000000000000000000000815260206004820181905260248201527f4f776e61626c653a2063616c6c6572206973206e6f7420746865206f776e6572604482015260640161066a565b600880547fffffffffffffffffffffffff00000000000000000000000000000000000000001673ffffffffffffffffffffffffffffffffffffffff92909216919091179055565b60085473ffffffffffffffffffffffffffffffffffffffff1633148061095a575060005473ffffffffffffffffffffffffffffffffffffffff1633145b6109c0576040517f08c379a000000000000000000000000000000000000000000000000000000000815260206004820152600c60248201527f6f6e6c794578656375746f720000000000000000000000000000000000000000604482015260640161066a565b600082511180156109d2575080518251145b610a38576040517f08c379a000000000000000000000000000000000000000000000000000000000815260206004820152600b60248201527f496e76616c6964206c656e000000000000000000000000000000000000000000604482015260640161066a565b60005b82518110156107ca576000838281518110610a5857610a58612258565b6020026020010151118015610a8657506000828281518110610a7c57610a7c612258565b6020026020010151115b15610ad357610ad3838281518110610aa057610aa0612258565b6020026020010151838381518110610aba57610aba612258565b602002602001015160016113bf9092919063ffffffff16565b80610add816121f0565b915050610a3b565b6060610af26001836114f5565b92915050565b6000610af26001836115d8565b6000610b11600161160c565b905090565b60005473ffffffffffffffffffffffffffffffffffffffff163314610b97576040517f08c379a000000000000000000000000000000000000000000000000000000000815260206004820181905260248201527f4f776e61626c653a2063616c6c6572206973206e6f7420746865206f776e6572604482015260640161066a565b610b9f611622565b565b60005474010000000000000000000000000000000000000000900460ff1615610c26576040517f08c379a000000000000000000000000000000000000000000000000000000000815260206004820152601060248201527f5061757361626c653a2070617573656400000000000000000000000000000000604482015260640161066a565b60075473ffffffffffffffffffffffffffffffffffffffff16331480610c63575060005473ffffffffffffffffffffffffffffffffffffffff1633145b610cc9576040517f08c379a000000000000000000000000000000000000000000000000000000000815260206004820152601260248201527f6f6e6c794b656570657252656769737472790000000000000000000000000000604482015260640161066a565b6000610cd782840184611db8565b90506107ca8161171b565b6000805460609074010000000000000000000000000000000000000000900460ff1615610d6b576040517f08c379a000000000000000000000000000000000000000000000000000000000815260206004820152601060248201527f5061757361626c653a2070617573656400000000000000000000000000000000604482015260640161066a565b6000610d75611197565b90506000815111925080604051602001610d8f9190612032565b6040516020818303038152906040529150509250929050565b60005473ffffffffffffffffffffffffffffffffffffffff163314610e29576040517f08c379a000000000000000000000000000000000000000000000000000000000815260206004820181905260248201527f4f776e61626c653a2063616c6c6572206973206e6f7420746865206f776e6572604482015260640161066a565b610b9f60006118ed565b60005473ffffffffffffffffffffffffffffffffffffffff163314610eb4576040517f08c379a000000000000000000000000000000000000000000000000000000000815260206004820181905260248201527f4f776e61626c653a2063616c6c6572206973206e6f7420746865206f776e6572604482015260640161066a565b73ffffffffffffffffffffffffffffffffffffffff8116610ed457600080fd5b6007546040805173ffffffffffffffffffffffffffffffffffffffff928316815291831660208301527fb732223055abcde751d7a24272ffc8a3aa571cb72b443969a4199b7ecd59f8b9910160405180910390a1600780547fffffffffffffffffffffffff00000000000000000000000000000000000000001673ffffffffffffffffffffffffffffffffffffffff92909216919091179055565b60005473ffffffffffffffffffffffffffffffffffffffff163314610ff0576040517f08c379a000000000000000000000000000000000000000000000000000000000815260206004820181905260248201527f4f776e61626c653a2063616c6c6572206973206e6f7420746865206f776e6572604482015260640161066a565b610b9f611962565b60005473ffffffffffffffffffffffffffffffffffffffff163314611079576040517f08c379a000000000000000000000000000000000000000000000000000000000815260206004820181905260248201527f4f776e61626c653a2063616c6c6572206973206e6f7420746865206f776e6572604482015260640161066a565b600081116110e3576040517f08c379a000000000000000000000000000000000000000000000000000000000815260206004820152601160248201527f496e76616c6964206c696d6974206e756d000000000000000000000000000000604482015260640161066a565b600555565b60085473ffffffffffffffffffffffffffffffffffffffff16331480611125575060005473ffffffffffffffffffffffffffffffffffffffff1633145b61118b576040517f08c379a000000000000000000000000000000000000000000000000000000000815260206004820152600c60248201527f6f6e6c794578656375746f720000000000000000000000000000000000000000604482015260640161066a565b61119481611a4e565b50565b6060600060055467ffffffffffffffff8111156111b6576111b6612287565b6040519080825280602002602001820160405280156111df578160200160208202803683370190505b5090506000806111ef600161160c565b90505b600081118015611203575060055482105b15611269576000818152600460205260409020600101544210611250578083838151811061123357611233612258565b602090810291909101015281611248816121f0565b925050611255565b611269565b6000908152600360205260409020546111f2565b6005548214611276578183525b509092915050565b600081815260036020526040812054610af2565b60005473ffffffffffffffffffffffffffffffffffffffff163314611313576040517f08c379a000000000000000000000000000000000000000000000000000000000815260206004820181905260248201527f4f776e61626c653a2063616c6c6572206973206e6f7420746865206f776e6572604482015260640161066a565b73ffffffffffffffffffffffffffffffffffffffff81166113b6576040517f08c379a000000000000000000000000000000000000000000000000000000000815260206004820152602660248201527f4f776e61626c653a206e6577206f776e657220697320746865207a65726f206160448201527f6464726573730000000000000000000000000000000000000000000000000000606482015260840161066a565b611194816118ed565b60008211611429576040517f08c379a000000000000000000000000000000000000000000000000000000000815260206004820152600e60248201527f72657175697265206964203e2030000000000000000000000000000000000000604482015260640161066a565b60008281526003840160205260409020600101541561144757505050565b60006114538483611a59565b600081815260028681016020908152604080842080549089905588855281852081905581516060810183528981528084018981528184018881528b885260038d0190955292909520945185559051600185015590519290910191909155909150806114c457600185018490556114db565b600081815260038601602052604090206002018490555b84548560006114e9836121f0565b91905055505050505050565b815460609082111561150657825491505b60018210156115245750604080516000815260208101909152610af2565b60008267ffffffffffffffff81111561153f5761153f612287565b604051908082528060200260200182016040528015611568578160200160208202803683370190505b50905060006115768561160c565b905060005b848110156115ce5781156115a9578183828151811061159c5761159c612258565b6020026020010181815250505b60008281526002870160205260409020549150806115c6816121f0565b91505061157b565b5090949350505050565b60006115e48383611c00565b1561160357506000818152600383016020526040902060020154610af2565b50600092915050565b6000808052600282016020526040812054610af2565b60005474010000000000000000000000000000000000000000900460ff166116a6576040517f08c379a000000000000000000000000000000000000000000000000000000000815260206004820152601460248201527f5061757361626c653a206e6f7420706175736564000000000000000000000000604482015260640161066a565b600080547fffffffffffffffffffffff00ffffffffffffffffffffffffffffffffffffffff1690557f5db9ee0a495bf2e6ff9c91a7834c1ba4fdd244a5e8aa4e537bd38aeae4b073aa335b60405173ffffffffffffffffffffffffffffffffffffffff909116815260200160405180910390a1565b600060405180608001604052806006548152602001600081526020016040518060400160405280600281526020017f307800000000000000000000000000000000000000000000000000000000000081525081526020016040518060400160405280600281526020017f3078000000000000000000000000000000000000000000000000000000000000815250815250905060005b82518110156107ca5760008382815181106117cd576117cd612258565b602002602001015190506117e081611a4e565b6008546040517fef2d237600000000000000000000000000000000000000000000000000000000815273ffffffffffffffffffffffffffffffffffffffff9091169063ef2d23769061183890849087906004016120aa565b600060405180830381600087803b15801561185257600080fd5b505af1925050508015611863575060015b6118da573d808015611891576040519150601f19603f3d011682016040523d82523d6000602084013e611896565b606091505b507f8a8daba70101a3ef953fcbe396dcf4370b8204bff0f421bdeaac9867e8fcfe04826118c283611c2a565b6040516118d0929190612091565b60405180910390a1505b50806118e5816121f0565b9150506117b0565b6000805473ffffffffffffffffffffffffffffffffffffffff8381167fffffffffffffffffffffffff0000000000000000000000000000000000000000831681178455604051919092169283917f8be0079c531659141344cd1fd0a4f28419497f9722a3daafe3b4186f6b6457e09190a35050565b60005474010000000000000000000000000000000000000000900460ff16156119e7576040517f08c379a000000000000000000000000000000000000000000000000000000000815260206004820152601060248201527f5061757361626c653a2070617573656400000000000000000000000000000000604482015260640161066a565b600080547fffffffffffffffffffffff00ffffffffffffffffffffffffffffffffffffffff16740100000000000000000000000000000000000000001790557f62e78cea01bee320cd4e420270b5ea74000d11b0c9f74754ebdbfc544b05a2586116f13390565b611194600182611c64565b6000808211611ac4576040517f08c379a000000000000000000000000000000000000000000000000000000000815260206004820152601260248201527f7265717569726520746172676574203e20300000000000000000000000000000604482015260640161066a565b8254611ad257506000610af2565b6001808401546000818152600386016020526040902090910154808410611afb57509050610af2565b6000611b068661160c565b6000818152600388016020526040902060010154909150808611611b31576000945050505050610af2565b60006001611b3f8584612173565b901c9050808710611b9e57845b8015611b9857611b5c89826115d8565b9050600081118015611b815750600081815260038a0160205260409020600101548810155b15611b93579550610af2945050505050565b611b4c565b50611bf2565b825b8015611bf05760009081526002890160205260409020548015801590611bd95750600081815260038a0160205260409020600101548810155b15611beb579550610af2945050505050565b611ba0565b505b506000979650505050505050565b6000808211611c0e57600080fd5b5060009081526003919091016020526040902060010154151590565b6060604482511015611c4a57505060408051602081019091526000815290565b60048201915081806020019051810190610af29190611ecb565b611c6e8282611c00565b15610694576000611c7f83836115d8565b60008381526002850160205260408082205483835291208190559091508015611cb957600081815260038501602052604090206002018290555b80611cc657600184018290555b60008381526003850160209081526040808320838155600181018490556002908101849055870190915281208190558454908590611d03836121bb565b919050555050505050565b600082601f830112611d1f57600080fd5b8135602067ffffffffffffffff821115611d3b57611d3b612287565b8160051b611d4a828201612124565b838152828101908684018388018501891015611d6557600080fd5b600093505b85841015611d88578035835260019390930192918401918401611d6a565b50979650505050505050565b600060208284031215611da657600080fd5b8135611db1816122b6565b9392505050565b600060208284031215611dca57600080fd5b813567ffffffffffffffff811115611de157600080fd5b611ded84828501611d0e565b949350505050565b60008060408385031215611e0857600080fd5b823567ffffffffffffffff80821115611e2057600080fd5b611e2c86838701611d0e565b93506020850135915080821115611e4257600080fd5b50611e4f85828601611d0e565b9150509250929050565b60008060208385031215611e6c57600080fd5b823567ffffffffffffffff80821115611e8457600080fd5b818501915085601f830112611e9857600080fd5b813581811115611ea757600080fd5b866020828501011115611eb957600080fd5b60209290920196919550909350505050565b600060208284031215611edd57600080fd5b815167ffffffffffffffff80821115611ef557600080fd5b818401915084601f830112611f0957600080fd5b815181811115611f1b57611f1b612287565b611f4c60207fffffffffffffffffffffffffffffffffffffffffffffffffffffffffffffffe0601f84011601612124565b9150808252856020828501011115611f6357600080fd5b611f7481602084016020860161218b565b50949350505050565b600060208284031215611f8f57600080fd5b5035919050565b60008060408385031215611fa957600080fd5b823591506020830135611fbb816122b6565b809150509250929050565b60008060408385031215611fd957600080fd5b50508035926020909101359150565b6000815180845261200081602086016020860161218b565b601f017fffffffffffffffffffffffffffffffffffffffffffffffffffffffffffffffe0169290920160200192915050565b6020808252825182820181905260009190848201906040850190845b8181101561206a5783518352928401929184019160010161204e565b50909695505050505050565b8215158152604060208201526000611ded6040830184611fe8565b828152604060208201526000611ded6040830184611fe8565b828152604060208201528151604082015260208201516060820152600060408301516080808401526120df60c0840182611fe8565b905060608401517fffffffffffffffffffffffffffffffffffffffffffffffffffffffffffffffc08483030160a085015261211a8282611fe8565b9695505050505050565b604051601f82017fffffffffffffffffffffffffffffffffffffffffffffffffffffffffffffffe016810167ffffffffffffffff8111828210171561216b5761216b612287565b604052919050565b6000821982111561218657612186612229565b500190565b60005b838110156121a657818101518382015260200161218e565b838111156121b5576000848401525b50505050565b6000816121ca576121ca612229565b507fffffffffffffffffffffffffffffffffffffffffffffffffffffffffffffffff0190565b60007fffffffffffffffffffffffffffffffffffffffffffffffffffffffffffffffff82141561222257612222612229565b5060010190565b7f4e487b7100000000000000000000000000000000000000000000000000000000600052601160045260246000fd5b7f4e487b7100000000000000000000000000000000000000000000000000000000600052603260045260246000fd5b7f4e487b7100000000000000000000000000000000000000000000000000000000600052604160045260246000fd5b73ffffffffffffffffffffffffffffffffffffffff8116811461119457600080fdfea2646970667358221220e181c4b5166c5c2cc27506ab1d69b721cffc996ebf6c9ee4545f27a70df7900c64736f6c63430008060033",
  "devdoc": {
    "kind": "dev",
    "methods": {
      "constructor": {
        "params": {
          "_executor": "The LucksExecutor contract",
          "_keeperRegAddr": "The address of the keeper registry contract"
        }
      },
      "owner()": {
        "details": "Returns the address of the current owner."
      },
      "paused()": {
        "details": "Returns true if the contract is paused, and false otherwise."
      },
      "performUpkeep(bytes)": {
        "details": "The input to this method should not be trusted, and the caller of the method should not even be restricted to any single registry. Anyone should be able call it, and the input should be validated, there is no guarantee that the data passed in is the performData returned from checkUpkeep. This could happen due to malicious keepers, racing keepers, or simply a state change while the performUpkeep transaction is waiting for confirmation. Always validate the data passed in.",
        "params": {
          "performData": "is the data which was passed back from the checkData simulation. If it is encoded, it can easily be decoded into other types by calling `abi.decode`. This data should not be trusted, and should be validated against the contract's current state."
        }
      },
      "renounceOwnership()": {
        "details": "Leaves the contract without owner. It will not be possible to call `onlyOwner` functions anymore. Can only be called by the current owner. NOTE: Renouncing ownership will leave the contract without an owner, thereby removing any functionality that is only available to the owner."
      },
      "transferOwnership(address)": {
        "details": "Transfers ownership of the contract to a new account (`newOwner`). Can only be called by the current owner."
      },
      "withdraw(uint256,address)": {
        "params": {
          "amount": "The amount of eth (in wei) to withdraw",
          "payee": "The address to pay"
        }
      }
    },
    "version": 1
  },
  "userdoc": {
    "kind": "user",
    "methods": {
      "pause()": {
        "notice": "Pauses the contrac t, which prevents executing performUpkeep"
      },
      "performUpkeep(bytes)": {
        "notice": "method that is actually executed by the keepers, via the registry. The data returned by the checkUpkeep simulation will be passed into this method to actually be executed."
      },
      "setExecutor(address)": {
        "notice": "set operator"
      },
      "setKeeper(address)": {
        "notice": "Sets the keeper registry address"
      },
      "unpause()": {
        "notice": "Unpauses the contract"
      },
      "withdraw(uint256,address)": {
        "notice": "Withdraws the contract balance"
      }
    },
    "version": 1
  },
  "storageLayout": {
    "storage": [
      {
        "astId": 917,
        "contract": "contracts/lucks/LucksAutoCloseTask.sol:LucksAutoCloseTask",
        "label": "_owner",
        "offset": 0,
        "slot": "0",
        "type": "t_address"
      },
      {
        "astId": 1032,
        "contract": "contracts/lucks/LucksAutoCloseTask.sol:LucksAutoCloseTask",
        "label": "_paused",
        "offset": 20,
        "slot": "0",
        "type": "t_bool"
      },
      {
        "astId": 12113,
        "contract": "contracts/lucks/LucksAutoCloseTask.sol:LucksAutoCloseTask",
        "label": "taskList",
        "offset": 0,
        "slot": "1",
        "type": "t_struct(SortedMap)11119_storage"
      },
      {
        "astId": 12116,
        "contract": "contracts/lucks/LucksAutoCloseTask.sol:LucksAutoCloseTask",
        "label": "BATCH_PERFORM_LIMIT",
        "offset": 0,
        "slot": "5",
        "type": "t_uint256"
      },
      {
        "astId": 12119,
        "contract": "contracts/lucks/LucksAutoCloseTask.sol:LucksAutoCloseTask",
        "label": "DST_GAS_AMOUNT",
        "offset": 0,
        "slot": "6",
        "type": "t_uint256"
      },
      {
        "astId": 12121,
        "contract": "contracts/lucks/LucksAutoCloseTask.sol:LucksAutoCloseTask",
        "label": "KEEPER",
        "offset": 0,
        "slot": "7",
        "type": "t_address"
      },
      {
        "astId": 12124,
        "contract": "contracts/lucks/LucksAutoCloseTask.sol:LucksAutoCloseTask",
        "label": "EXECUTOR",
        "offset": 0,
        "slot": "8",
        "type": "t_contract(ILucksExecutor)10402"
      }
    ],
    "types": {
      "t_address": {
        "encoding": "inplace",
        "label": "address",
        "numberOfBytes": "20"
      },
      "t_bool": {
        "encoding": "inplace",
        "label": "bool",
        "numberOfBytes": "1"
      },
      "t_contract(ILucksExecutor)10402": {
        "encoding": "inplace",
        "label": "contract ILucksExecutor",
        "numberOfBytes": "20"
      },
      "t_mapping(t_uint256,t_struct(Item)11099_storage)": {
        "encoding": "mapping",
        "key": "t_uint256",
        "label": "mapping(uint256 => struct SortedLinkMap.Item)",
        "numberOfBytes": "32",
        "value": "t_struct(Item)11099_storage"
      },
      "t_mapping(t_uint256,t_uint256)": {
        "encoding": "mapping",
        "key": "t_uint256",
        "label": "mapping(uint256 => uint256)",
        "numberOfBytes": "32",
        "value": "t_uint256"
      },
      "t_struct(Item)11099_storage": {
        "encoding": "inplace",
        "label": "struct SortedLinkMap.Item",
        "members": [
          {
            "astId": 11094,
            "contract": "contracts/lucks/LucksAutoCloseTask.sol:LucksAutoCloseTask",
            "label": "id",
            "offset": 0,
            "slot": "0",
            "type": "t_uint256"
          },
          {
            "astId": 11096,
            "contract": "contracts/lucks/LucksAutoCloseTask.sol:LucksAutoCloseTask",
            "label": "value",
            "offset": 0,
            "slot": "1",
            "type": "t_uint256"
          },
          {
            "astId": 11098,
            "contract": "contracts/lucks/LucksAutoCloseTask.sol:LucksAutoCloseTask",
            "label": "leftId",
            "offset": 0,
            "slot": "2",
            "type": "t_uint256"
          }
        ],
        "numberOfBytes": "96"
      },
      "t_struct(SortedMap)11119_storage": {
        "encoding": "inplace",
        "label": "struct SortedLinkMap.SortedMap",
        "members": [
          {
            "astId": 11107,
            "contract": "contracts/lucks/LucksAutoCloseTask.sol:LucksAutoCloseTask",
            "label": "count",
            "offset": 0,
            "slot": "0",
            "type": "t_uint256"
          },
          {
            "astId": 11109,
            "contract": "contracts/lucks/LucksAutoCloseTask.sol:LucksAutoCloseTask",
            "label": "maxId",
            "offset": 0,
            "slot": "1",
            "type": "t_uint256"
          },
          {
            "astId": 11113,
            "contract": "contracts/lucks/LucksAutoCloseTask.sol:LucksAutoCloseTask",
            "label": "keys",
            "offset": 0,
            "slot": "2",
            "type": "t_mapping(t_uint256,t_uint256)"
          },
          {
            "astId": 11118,
            "contract": "contracts/lucks/LucksAutoCloseTask.sol:LucksAutoCloseTask",
            "label": "nodes",
            "offset": 0,
            "slot": "3",
            "type": "t_mapping(t_uint256,t_struct(Item)11099_storage)"
          }
        ],
        "numberOfBytes": "128"
      },
      "t_uint256": {
        "encoding": "inplace",
        "label": "uint256",
        "numberOfBytes": "32"
      }
    }
  }
}