{
  "address": "0x2d4Ff90CF1aCc5a4637696dc7e2c8Bf630f8BAFb",
  "abi": [
    {
      "inputs": [
        {
          "internalType": "address",
          "name": "_executor",
          "type": "address"
        },
        {
          "internalType": "contract ILucksGroup",
          "name": "_groups",
          "type": "address"
        }
      ],
      "stateMutability": "nonpayable",
      "type": "constructor"
    },
    {
      "anonymous": false,
      "inputs": [
        {
          "indexed": true,
          "internalType": "address",
          "name": "previousOwner",
          "type": "address"
        },
        {
          "indexed": true,
          "internalType": "address",
          "name": "newOwner",
          "type": "address"
        }
      ],
      "name": "OwnershipTransferred",
      "type": "event"
    },
    {
      "inputs": [],
      "name": "EXECUTOR",
      "outputs": [
        {
          "internalType": "contract ILucksExecutor",
          "name": "",
          "type": "address"
        }
      ],
      "stateMutability": "view",
      "type": "function"
    },
    {
      "inputs": [],
      "name": "GROUPS",
      "outputs": [
        {
          "internalType": "contract ILucksGroup",
          "name": "",
          "type": "address"
        }
      ],
      "stateMutability": "view",
      "type": "function"
    },
    {
      "inputs": [
        {
          "internalType": "uint16",
          "name": "strategyId",
          "type": "uint16"
        }
      ],
      "name": "getShareRate",
      "outputs": [
        {
          "internalType": "uint32",
          "name": "",
          "type": "uint32"
        }
      ],
      "stateMutability": "pure",
      "type": "function"
    },
    {
      "inputs": [],
      "name": "owner",
      "outputs": [
        {
          "internalType": "address",
          "name": "",
          "type": "address"
        }
      ],
      "stateMutability": "view",
      "type": "function"
    },
    {
      "inputs": [],
      "name": "renounceOwnership",
      "outputs": [],
      "stateMutability": "nonpayable",
      "type": "function"
    },
    {
      "inputs": [
        {
          "internalType": "contract ILucksExecutor",
          "name": "_executor",
          "type": "address"
        }
      ],
      "name": "setExecutor",
      "outputs": [],
      "stateMutability": "nonpayable",
      "type": "function"
    },
    {
      "inputs": [
        {
          "internalType": "contract ILucksGroup",
          "name": "_group",
          "type": "address"
        }
      ],
      "name": "setLucksGroup",
      "outputs": [],
      "stateMutability": "nonpayable",
      "type": "function"
    },
    {
      "inputs": [
        {
          "internalType": "address",
          "name": "newOwner",
          "type": "address"
        }
      ],
      "name": "transferOwnership",
      "outputs": [],
      "stateMutability": "nonpayable",
      "type": "function"
    },
    {
      "inputs": [
        {
          "internalType": "uint16",
          "name": "strategyId",
          "type": "uint16"
        },
        {
          "internalType": "address",
          "name": "winner",
          "type": "address"
        },
        {
          "internalType": "uint256",
          "name": "taskId",
          "type": "uint256"
        }
      ],
      "name": "viewPaymentShares",
      "outputs": [
        {
          "internalType": "uint256",
          "name": "",
          "type": "uint256"
        },
        {
          "internalType": "uint256[]",
          "name": "",
          "type": "uint256[]"
        },
        {
          "internalType": "address[]",
          "name": "",
          "type": "address[]"
        }
      ],
      "stateMutability": "view",
      "type": "function"
    }
  ],
  "transactionHash": "0xc145ad5968755435d3198282f286ef5ba403cc2d688f5c5ee167202d4d37d29b",
  "args": [
    "0xd667Ae0B67A1f3b92F2dF1219C2C501FECF306bF",
    "0x85C8c8E11aCa93ac7C4e3b5beEf10fA803Bb19b1"
  ],
  "numDeployments": 1,
  "solcInputHash": "31f6db6eb1e4d0d23db94023bd3142e7",
  "bytecode": "0x608060405234801561001057600080fd5b50604051610c09380380610c0983398101604081905261002f916100b9565b61003833610069565b600180546001600160a01b039384166001600160a01b0319918216179091556002805492909316911617905561010b565b600080546001600160a01b038381166001600160a01b0319831681178455604051919092169283917f8be0079c531659141344cd1fd0a4f28419497f9722a3daafe3b4186f6b6457e09190a35050565b600080604083850312156100cc57600080fd5b82516100d7816100f3565b60208401519092506100e8816100f3565b809150509250929050565b6001600160a01b038116811461010857600080fd5b50565b610aef8061011a6000396000f3fe608060405234801561001057600080fd5b50600436106100a35760003560e01c8063715018a6116100765780638da5cb5b1161005b5780638da5cb5b1461016c578063d12c51f81461018a578063f2fde38b146101aa57600080fd5b8063715018a61461014257806374a0a2511461014a57600080fd5b806305b84a7d146100a85780631a7c07fe146100bd5780631c3c0ea8146100ea578063630dc7cb146100fd575b600080fd5b6100bb6100b636600461079a565b6101bd565b005b6100d06100cb3660046108a8565b61028a565b60405163ffffffff90911681526020015b60405180910390f35b6100bb6100f836600461079a565b6102db565b60015461011d9073ffffffffffffffffffffffffffffffffffffffff1681565b60405173ffffffffffffffffffffffffffffffffffffffff90911681526020016100e1565b6100bb6103a3565b61015d6101583660046108c3565b610430565b6040516100e193929190610902565b60005473ffffffffffffffffffffffffffffffffffffffff1661011d565b60025461011d9073ffffffffffffffffffffffffffffffffffffffff1681565b6100bb6101b836600461079a565b6105d8565b60005473ffffffffffffffffffffffffffffffffffffffff163314610243576040517f08c379a000000000000000000000000000000000000000000000000000000000815260206004820181905260248201527f4f776e61626c653a2063616c6c6572206973206e6f7420746865206f776e657260448201526064015b60405180910390fd5b600280547fffffffffffffffffffffffff00000000000000000000000000000000000000001673ffffffffffffffffffffffffffffffffffffffff92909216919091179055565b60008161ffff16600114156102a257506103e8919050565b8161ffff16600214156102b857506107d0919050565b8161ffff16600314156102ce5750610bb8919050565b506000919050565b919050565b60005473ffffffffffffffffffffffffffffffffffffffff16331461035c576040517f08c379a000000000000000000000000000000000000000000000000000000000815260206004820181905260248201527f4f776e61626c653a2063616c6c6572206973206e6f7420746865206f776e6572604482015260640161023a565b600180547fffffffffffffffffffffffff00000000000000000000000000000000000000001673ffffffffffffffffffffffffffffffffffffffff92909216919091179055565b60005473ffffffffffffffffffffffffffffffffffffffff163314610424576040517f08c379a000000000000000000000000000000000000000000000000000000000815260206004820181905260248201527f4f776e61626c653a2063616c6c6572206973206e6f7420746865206f776e6572604482015260640161023a565b61042e6000610708565b565b600060608060006104408761028a565b905060608063ffffffff8316156105c1576002546040517fdead6c1e0000000000000000000000000000000000000000000000000000000081526004810189905273ffffffffffffffffffffffffffffffffffffffff8a811660248301529091169063dead6c1e9060440160006040518083038186803b1580156104c357600080fd5b505afa1580156104d7573d6000803e3d6000fd5b505050506040513d6000823e601f3d9081017fffffffffffffffffffffffffffffffffffffffffffffffffffffffffffffffe016820160405261051d91908101906107be565b90506001815111156105c157805167ffffffffffffffff81111561054357610543610a68565b60405190808252806020026020018201604052801561056c578160200160208202803683370190505b50915060008151612710610580919061099e565b905060005b82518110156105be57818482815181106105a1576105a1610a39565b6020908102919091010152806105b6816109d9565b915050610585565b50505b63ffffffff90921694509250905093509350939050565b60005473ffffffffffffffffffffffffffffffffffffffff163314610659576040517f08c379a000000000000000000000000000000000000000000000000000000000815260206004820181905260248201527f4f776e61626c653a2063616c6c6572206973206e6f7420746865206f776e6572604482015260640161023a565b73ffffffffffffffffffffffffffffffffffffffff81166106fc576040517f08c379a000000000000000000000000000000000000000000000000000000000815260206004820152602660248201527f4f776e61626c653a206e6577206f776e657220697320746865207a65726f206160448201527f6464726573730000000000000000000000000000000000000000000000000000606482015260840161023a565b61070581610708565b50565b6000805473ffffffffffffffffffffffffffffffffffffffff8381167fffffffffffffffffffffffff0000000000000000000000000000000000000000831681178455604051919092169283917f8be0079c531659141344cd1fd0a4f28419497f9722a3daafe3b4186f6b6457e09190a35050565b80516102d681610a97565b803561ffff811681146102d657600080fd5b6000602082840312156107ac57600080fd5b81356107b781610a97565b9392505050565b600060208083850312156107d157600080fd5b825167ffffffffffffffff808211156107e957600080fd5b818501915085601f8301126107fd57600080fd5b81518181111561080f5761080f610a68565b8060051b6040517fffffffffffffffffffffffffffffffffffffffffffffffffffffffffffffffe0603f8301168101818110858211171561085257610852610a68565b604052828152858101935084860182860187018a101561087157600080fd5b600095505b8386101561089b576108878161077d565b855260019590950194938601938601610876565b5098975050505050505050565b6000602082840312156108ba57600080fd5b6107b782610788565b6000806000606084860312156108d857600080fd5b6108e184610788565b925060208401356108f181610a97565b929592945050506040919091013590565b6000606082018583526020606081850152818651808452608086019150828801935060005b8181101561094357845183529383019391830191600101610927565b50508481036040860152855180825290820192508186019060005b8181101561099057825173ffffffffffffffffffffffffffffffffffffffff168552938301939183019160010161095e565b509298975050505050505050565b6000826109d4577f4e487b7100000000000000000000000000000000000000000000000000000000600052601260045260246000fd5b500490565b60007fffffffffffffffffffffffffffffffffffffffffffffffffffffffffffffffff821415610a32577f4e487b7100000000000000000000000000000000000000000000000000000000600052601160045260246000fd5b5060010190565b7f4e487b7100000000000000000000000000000000000000000000000000000000600052603260045260246000fd5b7f4e487b7100000000000000000000000000000000000000000000000000000000600052604160045260246000fd5b73ffffffffffffffffffffffffffffffffffffffff8116811461070557600080fdfea2646970667358221220315cf959e9d5ac1131aab3da21b9966fd784c78237c496d5b263fe4d091ec57d64736f6c63430008060033",
  "devdoc": {
    "kind": "dev",
    "methods": {
      "owner()": {
        "details": "Returns the address of the current owner."
      },
      "renounceOwnership()": {
        "details": "Leaves the contract without owner. It will not be possible to call `onlyOwner` functions anymore. Can only be called by the current owner. NOTE: Renouncing ownership will leave the contract without an owner, thereby removing any functionality that is only available to the owner."
      },
      "transferOwnership(address)": {
        "details": "Transfers ownership of the contract to a new account (`newOwner`). Can only be called by the current owner."
      }
    },
    "title": "Openluck LucksPaymentStrategy",
    "version": 1
  },
  "userdoc": {
    "kind": "user",
    "methods": {},
    "notice": "It is the contract for PaymentStrategy",
    "version": 1
  },
  "storageLayout": {
    "storage": [
      {
        "astId": 917,
        "contract": "contracts/lucks/LucksPaymentStrategy.sol:LucksPaymentStrategy",
        "label": "_owner",
        "offset": 0,
        "slot": "0",
        "type": "t_address"
      },
      {
        "astId": 14317,
        "contract": "contracts/lucks/LucksPaymentStrategy.sol:LucksPaymentStrategy",
        "label": "EXECUTOR",
        "offset": 0,
        "slot": "1",
        "type": "t_contract(ILucksExecutor)10443"
      },
      {
        "astId": 14320,
        "contract": "contracts/lucks/LucksPaymentStrategy.sol:LucksPaymentStrategy",
        "label": "GROUPS",
        "offset": 0,
        "slot": "2",
        "type": "t_contract(ILucksGroup)10497"
      }
    ],
    "types": {
      "t_address": {
        "encoding": "inplace",
        "label": "address",
        "numberOfBytes": "20"
      },
      "t_contract(ILucksExecutor)10443": {
        "encoding": "inplace",
        "label": "contract ILucksExecutor",
        "numberOfBytes": "20"
      },
      "t_contract(ILucksGroup)10497": {
        "encoding": "inplace",
        "label": "contract ILucksGroup",
        "numberOfBytes": "20"
      }
    }
  }
}