{
  "address": "0xDDF825FC7741a1a043C9157927494b9C60811E48",
  "abi": [
    {
      "inputs": [
        {
          "internalType": "address",
          "name": "_keeperRegAddr",
          "type": "address"
        },
        {
          "internalType": "contract ILucksExecutor",
          "name": "_executor",
          "type": "address"
        },
        {
          "internalType": "contract ILucksBridge",
          "name": "_bridge",
          "type": "address"
        },
        {
          "internalType": "uint16",
          "name": "_lzChainId",
          "type": "uint16"
        }
      ],
      "stateMutability": "nonpayable",
      "type": "constructor"
    },
    {
      "anonymous": false,
      "inputs": [
        {
          "indexed": false,
          "internalType": "uint256",
          "name": "amountAdded",
          "type": "uint256"
        },
        {
          "indexed": false,
          "internalType": "uint256",
          "name": "newBalance",
          "type": "uint256"
        },
        {
          "indexed": false,
          "internalType": "address",
          "name": "sender",
          "type": "address"
        }
      ],
      "name": "FundsAdded",
      "type": "event"
    },
    {
      "anonymous": false,
      "inputs": [
        {
          "indexed": false,
          "internalType": "uint256",
          "name": "amountWithdrawn",
          "type": "uint256"
        },
        {
          "indexed": false,
          "internalType": "address",
          "name": "payee",
          "type": "address"
        }
      ],
      "name": "FundsWithdrawn",
      "type": "event"
    },
    {
      "anonymous": false,
      "inputs": [
        {
          "indexed": false,
          "internalType": "address",
          "name": "oldAddress",
          "type": "address"
        },
        {
          "indexed": false,
          "internalType": "address",
          "name": "newAddress",
          "type": "address"
        }
      ],
      "name": "KeeperRegistryAddressUpdated",
      "type": "event"
    },
    {
      "anonymous": false,
      "inputs": [
        {
          "indexed": true,
          "internalType": "address",
          "name": "previousOwner",
          "type": "address"
        },
        {
          "indexed": true,
          "internalType": "address",
          "name": "newOwner",
          "type": "address"
        }
      ],
      "name": "OwnershipTransferred",
      "type": "event"
    },
    {
      "anonymous": false,
      "inputs": [
        {
          "indexed": false,
          "internalType": "address",
          "name": "account",
          "type": "address"
        }
      ],
      "name": "Paused",
      "type": "event"
    },
    {
      "anonymous": false,
      "inputs": [
        {
          "indexed": false,
          "internalType": "uint256",
          "name": "taskId",
          "type": "uint256"
        },
        {
          "indexed": false,
          "internalType": "string",
          "name": "reason",
          "type": "string"
        }
      ],
      "name": "RevertInvoke",
      "type": "event"
    },
    {
      "anonymous": false,
      "inputs": [
        {
          "indexed": false,
          "internalType": "address",
          "name": "account",
          "type": "address"
        }
      ],
      "name": "Unpaused",
      "type": "event"
    },
    {
      "inputs": [],
      "name": "BATCH_PERFORM_LIMIT",
      "outputs": [
        {
          "internalType": "uint256",
          "name": "",
          "type": "uint256"
        }
      ],
      "stateMutability": "view",
      "type": "function"
    },
    {
      "inputs": [],
      "name": "BRIDGE",
      "outputs": [
        {
          "internalType": "contract ILucksBridge",
          "name": "",
          "type": "address"
        }
      ],
      "stateMutability": "view",
      "type": "function"
    },
    {
      "inputs": [],
      "name": "DST_GAS_AMOUNT",
      "outputs": [
        {
          "internalType": "uint256",
          "name": "",
          "type": "uint256"
        }
      ],
      "stateMutability": "view",
      "type": "function"
    },
    {
      "inputs": [],
      "name": "EXECUTOR",
      "outputs": [
        {
          "internalType": "contract ILucksExecutor",
          "name": "",
          "type": "address"
        }
      ],
      "stateMutability": "view",
      "type": "function"
    },
    {
      "inputs": [],
      "name": "KEEPER",
      "outputs": [
        {
          "internalType": "address",
          "name": "",
          "type": "address"
        }
      ],
      "stateMutability": "view",
      "type": "function"
    },
    {
      "inputs": [],
      "name": "QUOTE_FEE_ADD",
      "outputs": [
        {
          "internalType": "uint256",
          "name": "",
          "type": "uint256"
        }
      ],
      "stateMutability": "view",
      "type": "function"
    },
    {
      "inputs": [
        {
          "internalType": "uint256",
          "name": "taskId",
          "type": "uint256"
        },
        {
          "internalType": "uint256",
          "name": "endTime",
          "type": "uint256"
        }
      ],
      "name": "addTask",
      "outputs": [],
      "stateMutability": "nonpayable",
      "type": "function"
    },
    {
      "inputs": [
        {
          "internalType": "uint256[]",
          "name": "taskIds",
          "type": "uint256[]"
        },
        {
          "internalType": "uint256[]",
          "name": "endTimes",
          "type": "uint256[]"
        }
      ],
      "name": "addTasks",
      "outputs": [],
      "stateMutability": "nonpayable",
      "type": "function"
    },
    {
      "inputs": [
        {
          "internalType": "bytes",
          "name": "",
          "type": "bytes"
        }
      ],
      "name": "checkUpkeep",
      "outputs": [
        {
          "internalType": "bool",
          "name": "upkeepNeeded",
          "type": "bool"
        },
        {
          "internalType": "bytes",
          "name": "performData",
          "type": "bytes"
        }
      ],
      "stateMutability": "view",
      "type": "function"
    },
    {
      "inputs": [],
      "name": "first",
      "outputs": [
        {
          "internalType": "uint256",
          "name": "",
          "type": "uint256"
        }
      ],
      "stateMutability": "view",
      "type": "function"
    },
    {
      "inputs": [
        {
          "internalType": "uint256",
          "name": "taskId",
          "type": "uint256"
        }
      ],
      "name": "get",
      "outputs": [
        {
          "internalType": "uint256",
          "name": "",
          "type": "uint256"
        }
      ],
      "stateMutability": "view",
      "type": "function"
    },
    {
      "inputs": [],
      "name": "getQueueTasks",
      "outputs": [
        {
          "internalType": "uint256[]",
          "name": "",
          "type": "uint256[]"
        }
      ],
      "stateMutability": "view",
      "type": "function"
    },
    {
      "inputs": [],
      "name": "last",
      "outputs": [
        {
          "internalType": "uint256",
          "name": "",
          "type": "uint256"
        }
      ],
      "stateMutability": "view",
      "type": "function"
    },
    {
      "inputs": [],
      "name": "lzChainId",
      "outputs": [
        {
          "internalType": "uint16",
          "name": "",
          "type": "uint16"
        }
      ],
      "stateMutability": "view",
      "type": "function"
    },
    {
      "inputs": [
        {
          "internalType": "uint256",
          "name": "taskId",
          "type": "uint256"
        }
      ],
      "name": "next",
      "outputs": [
        {
          "internalType": "uint256",
          "name": "",
          "type": "uint256"
        }
      ],
      "stateMutability": "view",
      "type": "function"
    },
    {
      "inputs": [],
      "name": "owner",
      "outputs": [
        {
          "internalType": "address",
          "name": "",
          "type": "address"
        }
      ],
      "stateMutability": "view",
      "type": "function"
    },
    {
      "inputs": [],
      "name": "pause",
      "outputs": [],
      "stateMutability": "nonpayable",
      "type": "function"
    },
    {
      "inputs": [],
      "name": "paused",
      "outputs": [
        {
          "internalType": "bool",
          "name": "",
          "type": "bool"
        }
      ],
      "stateMutability": "view",
      "type": "function"
    },
    {
      "inputs": [
        {
          "internalType": "bytes",
          "name": "performData",
          "type": "bytes"
        }
      ],
      "name": "performUpkeep",
      "outputs": [],
      "stateMutability": "nonpayable",
      "type": "function"
    },
    {
      "inputs": [
        {
          "internalType": "uint256",
          "name": "taskId",
          "type": "uint256"
        }
      ],
      "name": "prev",
      "outputs": [
        {
          "internalType": "uint256",
          "name": "",
          "type": "uint256"
        }
      ],
      "stateMutability": "view",
      "type": "function"
    },
    {
      "inputs": [
        {
          "internalType": "uint256",
          "name": "taskId",
          "type": "uint256"
        }
      ],
      "name": "removeTask",
      "outputs": [],
      "stateMutability": "nonpayable",
      "type": "function"
    },
    {
      "inputs": [],
      "name": "renounceOwnership",
      "outputs": [],
      "stateMutability": "nonpayable",
      "type": "function"
    },
    {
      "inputs": [
        {
          "internalType": "uint256",
          "name": "num",
          "type": "uint256"
        }
      ],
      "name": "setBatchPerformLimist",
      "outputs": [],
      "stateMutability": "nonpayable",
      "type": "function"
    },
    {
      "inputs": [
        {
          "internalType": "contract ILucksBridge",
          "name": "_bridge",
          "type": "address"
        }
      ],
      "name": "setBridge",
      "outputs": [],
      "stateMutability": "nonpayable",
      "type": "function"
    },
    {
      "inputs": [
        {
          "internalType": "uint256",
          "name": "amount",
          "type": "uint256"
        }
      ],
      "name": "setDstGasAmount",
      "outputs": [],
      "stateMutability": "nonpayable",
      "type": "function"
    },
    {
      "inputs": [
        {
          "internalType": "contract ILucksExecutor",
          "name": "_executor",
          "type": "address"
        }
      ],
      "name": "setExecutor",
      "outputs": [],
      "stateMutability": "nonpayable",
      "type": "function"
    },
    {
      "inputs": [
        {
          "internalType": "address",
          "name": "_keeperRegAddr",
          "type": "address"
        }
      ],
      "name": "setKeeper",
      "outputs": [],
      "stateMutability": "nonpayable",
      "type": "function"
    },
    {
      "inputs": [
        {
          "internalType": "uint256",
          "name": "amount",
          "type": "uint256"
        }
      ],
      "name": "setQuoteFeeAdd",
      "outputs": [],
      "stateMutability": "nonpayable",
      "type": "function"
    },
    {
      "inputs": [],
      "name": "size",
      "outputs": [
        {
          "internalType": "uint256",
          "name": "",
          "type": "uint256"
        }
      ],
      "stateMutability": "view",
      "type": "function"
    },
    {
      "inputs": [
        {
          "internalType": "uint256",
          "name": "num",
          "type": "uint256"
        }
      ],
      "name": "top",
      "outputs": [
        {
          "internalType": "uint256[]",
          "name": "",
          "type": "uint256[]"
        }
      ],
      "stateMutability": "view",
      "type": "function"
    },
    {
      "inputs": [
        {
          "internalType": "address",
          "name": "newOwner",
          "type": "address"
        }
      ],
      "name": "transferOwnership",
      "outputs": [],
      "stateMutability": "nonpayable",
      "type": "function"
    },
    {
      "inputs": [],
      "name": "unpause",
      "outputs": [],
      "stateMutability": "nonpayable",
      "type": "function"
    },
    {
      "inputs": [
        {
          "internalType": "uint256",
          "name": "amount",
          "type": "uint256"
        },
        {
          "internalType": "address payable",
          "name": "payee",
          "type": "address"
        }
      ],
      "name": "withdraw",
      "outputs": [],
      "stateMutability": "nonpayable",
      "type": "function"
    },
    {
      "stateMutability": "payable",
      "type": "receive"
    }
  ],
  "transactionHash": "0xd4e2a26cd3ee675c9069b62b8dede7eb5b43a8260aee539ecf522db49179f931",
  "args": [
    "0x7b3EC232b08BD7b4b3305BE0C044D907B2DF960B",
    "0xd667Ae0B67A1f3b92F2dF1219C2C501FECF306bF",
    "0xe5966B99EBC4a6edf12B43F95ADA5c47dC359fD7",
    2
  ],
  "numDeployments": 1,
  "solcInputHash": "252dd0463f83d91b4214b4ca3b466744",
  "bytecode": "0x60a060405260058055600060065564e8d4a51000600a553480156200002357600080fd5b50604051620029e4380380620029e4833981016040819052620000469162000111565b83836200005333620000c1565b6000805460ff60a01b19169055600780546001600160a01b03199081166001600160a01b0394851617909155600880548216928416929092179091556208647060065560098054909116939091169290921790915560f01b6001600160f01b03191660805250620001989050565b600080546001600160a01b038381166001600160a01b0319831681178455604051919092169283917f8be0079c531659141344cd1fd0a4f28419497f9722a3daafe3b4186f6b6457e09190a35050565b600080600080608085870312156200012857600080fd5b845162000135816200017f565b602086015190945062000148816200017f565b60408601519093506200015b816200017f565b606086015190925061ffff811681146200017457600080fd5b939692955090935050565b6001600160a01b03811681146200019557600080fd5b50565b60805160f01c612826620001be6000396000818161057401526118d001526128266000f3fe6080604052600436106102005760003560e01c8063715018a61161011d5780639507d39a116100b0578063c81c6c7c1161007f578063edd004e511610064578063edd004e51461066f578063ee9a31a21461068f578063f2fde38b146106bc57600080fd5b8063c81c6c7c14610644578063d6ff17a01461065957600080fd5b80639507d39a146105be578063aa0a3100146105ee578063b15269a51461060e578063c30841171461062457600080fd5b80638da5cb5b116100ec5780638da5cb5b146105175780638dd1480214610542578063917c415614610562578063949d225d146105a957600080fd5b8063715018a6146104a0578063748747e6146104b55780638456cb59146104d5578063862a179e146104ea57600080fd5b80633f4ba83a116101955780635c975abb116101645780635c975abb146103cf57806362c415341461040a578063630dc7cb146104205780636e04ff0d1461047257600080fd5b80633f4ba83a146103655780634585e33b1461037a57806346bf33221461039a57806347799da8146103ba57600080fd5b8063257baa3a116101d1578063257baa3a146102cc578063313ae541146102ec57806335671214146103225780633df4ddf41461035057600080fd5b8062b34ebd1461024a578062f714ce1461026c5780630fbeb0321461028c5780631c3c0ea8146102ac57600080fd5b366102455760408051348152476020820152338183015290517fc6f3fb0fec49e4877342d4625d77a632541f55b7aae0f9d0b34c69b3478706dc9181900360600190a1005b600080fd5b34801561025657600080fd5b5061026a61026536600461244e565b6106dc565b005b34801561027857600080fd5b5061026a61028736600461241e565b61078f565b34801561029857600080fd5b5061026a6102a7366004612405565b6108ac565b3480156102b857600080fd5b5061026a6102c73660046120cc565b610918565b3480156102d857600080fd5b5061026a6102e7366004612126565b6109c6565b3480156102f857600080fd5b5061030c610307366004612405565b610b5a565b6040516103199190612529565b60405180910390f35b34801561032e57600080fd5b5061034261033d366004612405565b610b6d565b604051908152602001610319565b34801561035c57600080fd5b50610342610b7a565b34801561037157600080fd5b5061026a610b8b565b34801561038657600080fd5b5061026a61039536600461218a565b610bfc565b3480156103a657600080fd5b5061026a6103b5366004612405565b610d09565b3480156103c657600080fd5b50600254610342565b3480156103db57600080fd5b5060005474010000000000000000000000000000000000000000900460ff166040519015158152602001610319565b34801561041657600080fd5b50610342600a5481565b34801561042c57600080fd5b5060085461044d9073ffffffffffffffffffffffffffffffffffffffff1681565b60405173ffffffffffffffffffffffffffffffffffffffff9091168152602001610319565b34801561047e57600080fd5b5061049261048d36600461218a565b610d75565b60405161031992919061256d565b3480156104ac57600080fd5b5061026a610e21565b3480156104c157600080fd5b5061026a6104d03660046120cc565b610e92565b3480156104e157600080fd5b5061026a610fb4565b3480156104f657600080fd5b5060075461044d9073ffffffffffffffffffffffffffffffffffffffff1681565b34801561052357600080fd5b5060005473ffffffffffffffffffffffffffffffffffffffff1661044d565b34801561054e57600080fd5b5061026a61055d3660046120cc565b611023565b34801561056e57600080fd5b506105967f000000000000000000000000000000000000000000000000000000000000000081565b60405161ffff9091168152602001610319565b3480156105b557600080fd5b50600154610342565b3480156105ca57600080fd5b506103426105d9366004612405565b60009081526004602052604090206001015490565b3480156105fa57600080fd5b5061026a610609366004612405565b6110d1565b34801561061a57600080fd5b5061034260065481565b34801561063057600080fd5b5061026a61063f366004612405565b61118d565b34801561065057600080fd5b5061030c611222565b34801561066557600080fd5b5061034260055481565b34801561067b57600080fd5b5061034261068a366004612405565b611309565b34801561069b57600080fd5b5060095461044d9073ffffffffffffffffffffffffffffffffffffffff1681565b3480156106c857600080fd5b5061026a6106d73660046120cc565b61131d565b60085473ffffffffffffffffffffffffffffffffffffffff16331480610719575060005473ffffffffffffffffffffffffffffffffffffffff1633145b61076a5760405162461bcd60e51b815260206004820152600c60248201527f6f6e6c794578656375746f72000000000000000000000000000000000000000060448201526064015b60405180910390fd5b60008211801561077a5750600081115b1561078b5761078b60018383611416565b5050565b60005473ffffffffffffffffffffffffffffffffffffffff1633146107f65760405162461bcd60e51b815260206004820181905260248201527f4f776e61626c653a2063616c6c6572206973206e6f7420746865206f776e65726044820152606401610761565b73ffffffffffffffffffffffffffffffffffffffff811661081657600080fd5b6040805183815273ffffffffffffffffffffffffffffffffffffffff831660208201527f6141b54b56b8a52a8c6f5cd2a857f6117b18ffbf4d46bd3106f300a839cbf5ea910160405180910390a160405173ffffffffffffffffffffffffffffffffffffffff82169083156108fc029084906000818181858888f193505050501580156108a7573d6000803e3d6000fd5b505050565b60005473ffffffffffffffffffffffffffffffffffffffff1633146109135760405162461bcd60e51b815260206004820181905260248201527f4f776e61626c653a2063616c6c6572206973206e6f7420746865206f776e65726044820152606401610761565b600655565b60005473ffffffffffffffffffffffffffffffffffffffff16331461097f5760405162461bcd60e51b815260206004820181905260248201527f4f776e61626c653a2063616c6c6572206973206e6f7420746865206f776e65726044820152606401610761565b600880547fffffffffffffffffffffffff00000000000000000000000000000000000000001673ffffffffffffffffffffffffffffffffffffffff92909216919091179055565b60085473ffffffffffffffffffffffffffffffffffffffff16331480610a03575060005473ffffffffffffffffffffffffffffffffffffffff1633145b610a4f5760405162461bcd60e51b815260206004820152600c60248201527f6f6e6c794578656375746f7200000000000000000000000000000000000000006044820152606401610761565b60008251118015610a61575080518251145b610aad5760405162461bcd60e51b815260206004820152600b60248201527f496e76616c6964206c656e0000000000000000000000000000000000000000006044820152606401610761565b60005b82518110156108a7576000838281518110610acd57610acd612770565b6020026020010151118015610afb57506000828281518110610af157610af1612770565b6020026020010151115b15610b4857610b48838281518110610b1557610b15612770565b6020026020010151838381518110610b2f57610b2f612770565b602002602001015160016114169092919063ffffffff16565b80610b5281612708565b915050610ab0565b6060610b67600183611532565b92915050565b6000610b67600183611615565b6000610b866001611649565b905090565b60005473ffffffffffffffffffffffffffffffffffffffff163314610bf25760405162461bcd60e51b815260206004820181905260248201527f4f776e61626c653a2063616c6c6572206973206e6f7420746865206f776e65726044820152606401610761565b610bfa61165f565b565b60005474010000000000000000000000000000000000000000900460ff1615610c675760405162461bcd60e51b815260206004820152601060248201527f5061757361626c653a20706175736564000000000000000000000000000000006044820152606401610761565b60075473ffffffffffffffffffffffffffffffffffffffff16331480610ca4575060005473ffffffffffffffffffffffffffffffffffffffff1633145b610cf05760405162461bcd60e51b815260206004820152601260248201527f6f6e6c794b6565706572526567697374727900000000000000000000000000006044820152606401610761565b6000610cfe828401846120e9565b90506108a78161173e565b60005473ffffffffffffffffffffffffffffffffffffffff163314610d705760405162461bcd60e51b815260206004820181905260248201527f4f776e61626c653a2063616c6c6572206973206e6f7420746865206f776e65726044820152606401610761565b600a55565b6000805460609074010000000000000000000000000000000000000000900460ff1615610de45760405162461bcd60e51b815260206004820152601060248201527f5061757361626c653a20706175736564000000000000000000000000000000006044820152606401610761565b6000610dee611222565b90506000815111925080604051602001610e089190612529565b6040516020818303038152906040529150509250929050565b60005473ffffffffffffffffffffffffffffffffffffffff163314610e885760405162461bcd60e51b815260206004820181905260248201527f4f776e61626c653a2063616c6c6572206973206e6f7420746865206f776e65726044820152606401610761565b610bfa6000611b6e565b60005473ffffffffffffffffffffffffffffffffffffffff163314610ef95760405162461bcd60e51b815260206004820181905260248201527f4f776e61626c653a2063616c6c6572206973206e6f7420746865206f776e65726044820152606401610761565b73ffffffffffffffffffffffffffffffffffffffff8116610f1957600080fd5b6007546040805173ffffffffffffffffffffffffffffffffffffffff928316815291831660208301527fb732223055abcde751d7a24272ffc8a3aa571cb72b443969a4199b7ecd59f8b9910160405180910390a1600780547fffffffffffffffffffffffff00000000000000000000000000000000000000001673ffffffffffffffffffffffffffffffffffffffff92909216919091179055565b60005473ffffffffffffffffffffffffffffffffffffffff16331461101b5760405162461bcd60e51b815260206004820181905260248201527f4f776e61626c653a2063616c6c6572206973206e6f7420746865206f776e65726044820152606401610761565b610bfa611be3565b60005473ffffffffffffffffffffffffffffffffffffffff16331461108a5760405162461bcd60e51b815260206004820181905260248201527f4f776e61626c653a2063616c6c6572206973206e6f7420746865206f776e65726044820152606401610761565b600980547fffffffffffffffffffffffff00000000000000000000000000000000000000001673ffffffffffffffffffffffffffffffffffffffff92909216919091179055565b60005473ffffffffffffffffffffffffffffffffffffffff1633146111385760405162461bcd60e51b815260206004820181905260248201527f4f776e61626c653a2063616c6c6572206973206e6f7420746865206f776e65726044820152606401610761565b600081116111885760405162461bcd60e51b815260206004820152601160248201527f496e76616c6964206c696d6974206e756d0000000000000000000000000000006044820152606401610761565b600555565b60085473ffffffffffffffffffffffffffffffffffffffff163314806111ca575060005473ffffffffffffffffffffffffffffffffffffffff1633145b6112165760405162461bcd60e51b815260206004820152600c60248201527f6f6e6c794578656375746f7200000000000000000000000000000000000000006044820152606401610761565b61121f81611cb5565b50565b6060600060055467ffffffffffffffff8111156112415761124161279f565b60405190808252806020026020018201604052801561126a578160200160208202803683370190505b50905060008061127a6001611649565b90505b60008111801561128e575060055482105b156112f45760008181526004602052604090206001015442106112db57808383815181106112be576112be612770565b6020908102919091010152816112d381612708565b9250506112e0565b6112f4565b60009081526003602052604090205461127d565b6005548214611301578183525b509092915050565b600081815260036020526040812054610b67565b60005473ffffffffffffffffffffffffffffffffffffffff1633146113845760405162461bcd60e51b815260206004820181905260248201527f4f776e61626c653a2063616c6c6572206973206e6f7420746865206f776e65726044820152606401610761565b73ffffffffffffffffffffffffffffffffffffffff811661140d5760405162461bcd60e51b815260206004820152602660248201527f4f776e61626c653a206e6577206f776e657220697320746865207a65726f206160448201527f64647265737300000000000000000000000000000000000000000000000000006064820152608401610761565b61121f81611b6e565b600082116114665760405162461bcd60e51b815260206004820152600e60248201527f72657175697265206964203e20300000000000000000000000000000000000006044820152606401610761565b60008281526003840160205260409020600101541561148457505050565b60006114908483611cc0565b600081815260028681016020908152604080842080549089905588855281852081905581516060810183528981528084018981528184018881528b885260038d0190955292909520945185559051600185015590519290910191909155909150806115015760018501849055611518565b600081815260038601602052604090206002018490555b845485600061152683612708565b91905055505050505050565b815460609082111561154357825491505b60018210156115615750604080516000815260208101909152610b67565b60008267ffffffffffffffff81111561157c5761157c61279f565b6040519080825280602002602001820160405280156115a5578160200160208202803683370190505b50905060006115b385611649565b905060005b8481101561160b5781156115e657818382815181106115d9576115d9612770565b6020026020010181815250505b600082815260028701602052604090205491508061160381612708565b9150506115b8565b5090949350505050565b60006116218383611e4d565b1561164057506000818152600383016020526040902060020154610b67565b50600092915050565b6000808052600282016020526040812054610b67565b60005474010000000000000000000000000000000000000000900460ff166116c95760405162461bcd60e51b815260206004820152601460248201527f5061757361626c653a206e6f74207061757365640000000000000000000000006044820152606401610761565b600080547fffffffffffffffffffffff00ffffffffffffffffffffffffffffffffffffffff1690557f5db9ee0a495bf2e6ff9c91a7834c1ba4fdd244a5e8aa4e537bd38aeae4b073aa335b60405173ffffffffffffffffffffffffffffffffffffffff909116815260200160405180910390a1565b600060405180608001604052806006548152602001600081526020016040518060400160405280600281526020017f307800000000000000000000000000000000000000000000000000000000000081525081526020016040518060400160405280600281526020017f3078000000000000000000000000000000000000000000000000000000000000815250815250905060005b82518110156108a75760008382815181106117f0576117f0612770565b6020026020010151905061180381611cb5565b6008546040517f1d65e77e00000000000000000000000000000000000000000000000000000000815260048101839052600091829173ffffffffffffffffffffffffffffffffffffffff90911690631d65e77e9060240160006040518083038186803b15801561187257600080fd5b505afa158015611886573d6000803e3d6000fd5b505050506040513d6000823e601f3d9081017fffffffffffffffffffffffffffffffffffffffffffffffffffffffffffffffe01682016040526118cc91908101906122ae565b90507f000000000000000000000000000000000000000000000000000000000000000061ffff16816020015161ffff16146119e15760095473ffffffffffffffffffffffffffffffffffffffff16156119e15760095460208201516040517f1b0899fc00000000000000000000000000000000000000000000000000000000815273ffffffffffffffffffffffffffffffffffffffff90921691631b0899fc9161197d916002908a90600401612588565b604080518083038186803b15801561199457600080fd5b505afa1580156119a8573d6000803e3d6000fd5b505050506040513d601f19601f820116820180604052508101906119cc9190612470565b50600a549092506119de908390611e77565b91505b81471015611a5c577f8a8daba70101a3ef953fcbe396dcf4370b8204bff0f421bdeaac9867e8fcfe0483604051611a4f9181526040602082018190526019908201527f4175746f447261773a206e6f7420656e6f756768206665657300000000000000606082015260800190565b60405180910390a1611b58565b6008546040517fe47af09a00000000000000000000000000000000000000000000000000000000815273ffffffffffffffffffffffffffffffffffffffff9091169063e47af09a908490611ab69087908a906004016125d5565b6000604051808303818588803b158015611acf57600080fd5b505af193505050508015611ae1575060015b611b58573d808015611b0f576040519150601f19603f3d011682016040523d82523d6000602084013e611b14565b606091505b507f8a8daba70101a3ef953fcbe396dcf4370b8204bff0f421bdeaac9867e8fcfe0484611b4083611e8a565b604051611b4e9291906125bc565b60405180910390a1505b5050508080611b6690612708565b9150506117d3565b6000805473ffffffffffffffffffffffffffffffffffffffff8381167fffffffffffffffffffffffff0000000000000000000000000000000000000000831681178455604051919092169283917f8be0079c531659141344cd1fd0a4f28419497f9722a3daafe3b4186f6b6457e09190a35050565b60005474010000000000000000000000000000000000000000900460ff1615611c4e5760405162461bcd60e51b815260206004820152601060248201527f5061757361626c653a20706175736564000000000000000000000000000000006044820152606401610761565b600080547fffffffffffffffffffffff00ffffffffffffffffffffffffffffffffffffffff16740100000000000000000000000000000000000000001790557f62e78cea01bee320cd4e420270b5ea74000d11b0c9f74754ebdbfc544b05a2586117143390565b61121f600182611ec4565b6000808211611d115760405162461bcd60e51b815260206004820152601260248201527f7265717569726520746172676574203e203000000000000000000000000000006044820152606401610761565b8254611d1f57506000610b67565b6001808401546000818152600386016020526040902090910154808410611d4857509050610b67565b6000611d5386611649565b6000818152600388016020526040902060010154909150808611611d7e576000945050505050610b67565b60006001611d8c858461268b565b901c9050808710611deb57845b8015611de557611da98982611615565b9050600081118015611dce5750600081815260038a0160205260409020600101548810155b15611de0579550610b67945050505050565b611d99565b50611e3f565b825b8015611e3d5760009081526002890160205260409020548015801590611e265750600081815260038a0160205260409020600101548810155b15611e38579550610b67945050505050565b611ded565b505b506000979650505050505050565b6000808211611e5b57600080fd5b5060009081526003919091016020526040902060010154151590565b6000611e83828461268b565b9392505050565b6060604482511015611eaa57505060408051602081019091526000815290565b60048201915081806020019051810190610b6791906121fc565b611ece8282611e4d565b1561078b576000611edf8383611615565b60008381526002850160205260408082205483835291208190559091508015611f1957600081815260038501602052604090206002018290555b80611f2657600184018290555b60008381526003850160209081526040808320838155600181018490556002908101849055870190915281208190558454908590611f63836126d3565b919050555050505050565b8051611f79816127ce565b919050565b600082601f830112611f8f57600080fd5b81356020611fa4611f9f83612667565b612618565b80838252828201915082860187848660051b8901011115611fc457600080fd5b60005b85811015611fe357813584529284019290840190600101611fc7565b5090979650505050505050565b600082601f83011261200157600080fd5b81516020612011611f9f83612667565b80838252828201915082860187848660051b890101111561203157600080fd5b60005b85811015611fe357815184529284019290840190600101612034565b805160068110611f7957600080fd5b60006040828403121561207157600080fd5b6040516040810181811067ffffffffffffffff821117156120945761209461279f565b806040525080915082516120a7816127ce565b8152602092830151920191909152919050565b805161ffff81168114611f7957600080fd5b6000602082840312156120de57600080fd5b8135611e83816127ce565b6000602082840312156120fb57600080fd5b813567ffffffffffffffff81111561211257600080fd5b61211e84828501611f7e565b949350505050565b6000806040838503121561213957600080fd5b823567ffffffffffffffff8082111561215157600080fd5b61215d86838701611f7e565b9350602085013591508082111561217357600080fd5b5061218085828601611f7e565b9150509250929050565b6000806020838503121561219d57600080fd5b823567ffffffffffffffff808211156121b557600080fd5b818501915085601f8301126121c957600080fd5b8135818111156121d857600080fd5b8660208285010111156121ea57600080fd5b60209290920196919550909350505050565b60006020828403121561220e57600080fd5b815167ffffffffffffffff8082111561222657600080fd5b818401915084601f83011261223a57600080fd5b81518181111561224c5761224c61279f565b61227d60207fffffffffffffffffffffffffffffffffffffffffffffffffffffffffffffffe0601f84011601612618565b915080825285602082850101111561229457600080fd5b6122a58160208401602086016126a3565b50949350505050565b6000602082840312156122c057600080fd5b815167ffffffffffffffff808211156122d857600080fd5b9083019061020082860312156122ed57600080fd5b6122f56125ee565b6122fe83611f6e565b815261230c602084016120ba565b602082015261231d60408401611f6e565b604082015260608301518281111561233457600080fd5b61234087828601611ff0565b60608301525060808301518281111561235857600080fd5b61236487828601611ff0565b60808301525061237660a08401611f6e565b60a082015261238760c08401612050565b60c082015260e0838101519082015261010080840151908201526101208084015190820152610140808401519082015261016091506123c78284016120ba565b8282015261018091506123dc8683850161205f565b828201526101c09150818301516101a08201526101e08301518282015280935050505092915050565b60006020828403121561241757600080fd5b5035919050565b6000806040838503121561243157600080fd5b823591506020830135612443816127ce565b809150509250929050565b6000806040838503121561246157600080fd5b50508035926020909101359150565b6000806040838503121561248357600080fd5b505080516020909101519092909150565b600081518084526124ac8160208601602086016126a3565b601f017fffffffffffffffffffffffffffffffffffffffffffffffffffffffffffffffe0169290920160200192915050565b805182526020810151602083015260006040820151608060408501526125076080850182612494565b9050606083015184820360608601526125208282612494565b95945050505050565b6020808252825182820181905260009190848201906040850190845b8181101561256157835183529284019291840191600101612545565b50909695505050505050565b821515815260406020820152600061211e6040830184612494565b61ffff8416815260ff83166020820152608060408201526000608082015260a06060820152600061252060a08301846124de565b82815260406020820152600061211e6040830184612494565b82815260406020820152600061211e60408301846124de565b6040516101e0810167ffffffffffffffff811182821017156126125761261261279f565b60405290565b604051601f82017fffffffffffffffffffffffffffffffffffffffffffffffffffffffffffffffe016810167ffffffffffffffff8111828210171561265f5761265f61279f565b604052919050565b600067ffffffffffffffff8211156126815761268161279f565b5060051b60200190565b6000821982111561269e5761269e612741565b500190565b60005b838110156126be5781810151838201526020016126a6565b838111156126cd576000848401525b50505050565b6000816126e2576126e2612741565b507fffffffffffffffffffffffffffffffffffffffffffffffffffffffffffffffff0190565b60007fffffffffffffffffffffffffffffffffffffffffffffffffffffffffffffffff82141561273a5761273a612741565b5060010190565b7f4e487b7100000000000000000000000000000000000000000000000000000000600052601160045260246000fd5b7f4e487b7100000000000000000000000000000000000000000000000000000000600052603260045260246000fd5b7f4e487b7100000000000000000000000000000000000000000000000000000000600052604160045260246000fd5b73ffffffffffffffffffffffffffffffffffffffff8116811461121f57600080fdfea264697066735822122014fb385eb4dee37830b5f9d06a08fe2cd13bc4346c8e0afd1ee9a1d402c178fc64736f6c63430008060033",
  "devdoc": {
    "kind": "dev",
    "methods": {
      "constructor": {
        "params": {
          "_bridge": "The LucksBridge contract",
          "_executor": "The LucksExecutor contract",
          "_keeperRegAddr": "The address of the keeper registry contract"
        }
      },
      "owner()": {
        "details": "Returns the address of the current owner."
      },
      "paused()": {
        "details": "Returns true if the contract is paused, and false otherwise."
      },
      "performUpkeep(bytes)": {
        "details": "The input to this method should not be trusted, and the caller of the method should not even be restricted to any single registry. Anyone should be able call it, and the input should be validated, there is no guarantee that the data passed in is the performData returned from checkUpkeep. This could happen due to malicious keepers, racing keepers, or simply a state change while the performUpkeep transaction is waiting for confirmation. Always validate the data passed in.",
        "params": {
          "performData": "is the data which was passed back from the checkData simulation. If it is encoded, it can easily be decoded into other types by calling `abi.decode`. This data should not be trusted, and should be validated against the contract's current state."
        }
      },
      "renounceOwnership()": {
        "details": "Leaves the contract without owner. It will not be possible to call `onlyOwner` functions anymore. Can only be called by the current owner. NOTE: Renouncing ownership will leave the contract without an owner, thereby removing any functionality that is only available to the owner."
      },
      "transferOwnership(address)": {
        "details": "Transfers ownership of the contract to a new account (`newOwner`). Can only be called by the current owner."
      },
      "withdraw(uint256,address)": {
        "params": {
          "amount": "The amount of eth (in wei) to withdraw",
          "payee": "The address to pay"
        }
      }
    },
    "version": 1
  },
  "userdoc": {
    "kind": "user",
    "methods": {
      "pause()": {
        "notice": "Pauses the contrac t, which prevents executing performUpkeep"
      },
      "performUpkeep(bytes)": {
        "notice": "method that is actually executed by the keepers, via the registry. The data returned by the checkUpkeep simulation will be passed into this method to actually be executed."
      },
      "setBridge(address)": {
        "notice": "set BRIDGE"
      },
      "setExecutor(address)": {
        "notice": "set operator"
      },
      "setKeeper(address)": {
        "notice": "Sets the keeper registry address"
      },
      "unpause()": {
        "notice": "Unpauses the contract"
      },
      "withdraw(uint256,address)": {
        "notice": "Withdraws the contract balance"
      }
    },
    "version": 1
  },
  "storageLayout": {
    "storage": [
      {
        "astId": 917,
        "contract": "contracts/lucks/LucksAutoDrawTask.sol:LucksAutoDrawTask",
        "label": "_owner",
        "offset": 0,
        "slot": "0",
        "type": "t_address"
      },
      {
        "astId": 1032,
        "contract": "contracts/lucks/LucksAutoDrawTask.sol:LucksAutoDrawTask",
        "label": "_paused",
        "offset": 20,
        "slot": "0",
        "type": "t_bool"
      },
      {
        "astId": 12113,
        "contract": "contracts/lucks/LucksAutoDrawTask.sol:LucksAutoDrawTask",
        "label": "taskList",
        "offset": 0,
        "slot": "1",
        "type": "t_struct(SortedMap)11119_storage"
      },
      {
        "astId": 12116,
        "contract": "contracts/lucks/LucksAutoDrawTask.sol:LucksAutoDrawTask",
        "label": "BATCH_PERFORM_LIMIT",
        "offset": 0,
        "slot": "5",
        "type": "t_uint256"
      },
      {
        "astId": 12119,
        "contract": "contracts/lucks/LucksAutoDrawTask.sol:LucksAutoDrawTask",
        "label": "DST_GAS_AMOUNT",
        "offset": 0,
        "slot": "6",
        "type": "t_uint256"
      },
      {
        "astId": 12121,
        "contract": "contracts/lucks/LucksAutoDrawTask.sol:LucksAutoDrawTask",
        "label": "KEEPER",
        "offset": 0,
        "slot": "7",
        "type": "t_address"
      },
      {
        "astId": 12124,
        "contract": "contracts/lucks/LucksAutoDrawTask.sol:LucksAutoDrawTask",
        "label": "EXECUTOR",
        "offset": 0,
        "slot": "8",
        "type": "t_contract(ILucksExecutor)10402"
      },
      {
        "astId": 11826,
        "contract": "contracts/lucks/LucksAutoDrawTask.sol:LucksAutoDrawTask",
        "label": "BRIDGE",
        "offset": 0,
        "slot": "9",
        "type": "t_contract(ILucksBridge)10094"
      },
      {
        "astId": 11829,
        "contract": "contracts/lucks/LucksAutoDrawTask.sol:LucksAutoDrawTask",
        "label": "QUOTE_FEE_ADD",
        "offset": 0,
        "slot": "10",
        "type": "t_uint256"
      }
    ],
    "types": {
      "t_address": {
        "encoding": "inplace",
        "label": "address",
        "numberOfBytes": "20"
      },
      "t_bool": {
        "encoding": "inplace",
        "label": "bool",
        "numberOfBytes": "1"
      },
      "t_contract(ILucksBridge)10094": {
        "encoding": "inplace",
        "label": "contract ILucksBridge",
        "numberOfBytes": "20"
      },
      "t_contract(ILucksExecutor)10402": {
        "encoding": "inplace",
        "label": "contract ILucksExecutor",
        "numberOfBytes": "20"
      },
      "t_mapping(t_uint256,t_struct(Item)11099_storage)": {
        "encoding": "mapping",
        "key": "t_uint256",
        "label": "mapping(uint256 => struct SortedLinkMap.Item)",
        "numberOfBytes": "32",
        "value": "t_struct(Item)11099_storage"
      },
      "t_mapping(t_uint256,t_uint256)": {
        "encoding": "mapping",
        "key": "t_uint256",
        "label": "mapping(uint256 => uint256)",
        "numberOfBytes": "32",
        "value": "t_uint256"
      },
      "t_struct(Item)11099_storage": {
        "encoding": "inplace",
        "label": "struct SortedLinkMap.Item",
        "members": [
          {
            "astId": 11094,
            "contract": "contracts/lucks/LucksAutoDrawTask.sol:LucksAutoDrawTask",
            "label": "id",
            "offset": 0,
            "slot": "0",
            "type": "t_uint256"
          },
          {
            "astId": 11096,
            "contract": "contracts/lucks/LucksAutoDrawTask.sol:LucksAutoDrawTask",
            "label": "value",
            "offset": 0,
            "slot": "1",
            "type": "t_uint256"
          },
          {
            "astId": 11098,
            "contract": "contracts/lucks/LucksAutoDrawTask.sol:LucksAutoDrawTask",
            "label": "leftId",
            "offset": 0,
            "slot": "2",
            "type": "t_uint256"
          }
        ],
        "numberOfBytes": "96"
      },
      "t_struct(SortedMap)11119_storage": {
        "encoding": "inplace",
        "label": "struct SortedLinkMap.SortedMap",
        "members": [
          {
            "astId": 11107,
            "contract": "contracts/lucks/LucksAutoDrawTask.sol:LucksAutoDrawTask",
            "label": "count",
            "offset": 0,
            "slot": "0",
            "type": "t_uint256"
          },
          {
            "astId": 11109,
            "contract": "contracts/lucks/LucksAutoDrawTask.sol:LucksAutoDrawTask",
            "label": "maxId",
            "offset": 0,
            "slot": "1",
            "type": "t_uint256"
          },
          {
            "astId": 11113,
            "contract": "contracts/lucks/LucksAutoDrawTask.sol:LucksAutoDrawTask",
            "label": "keys",
            "offset": 0,
            "slot": "2",
            "type": "t_mapping(t_uint256,t_uint256)"
          },
          {
            "astId": 11118,
            "contract": "contracts/lucks/LucksAutoDrawTask.sol:LucksAutoDrawTask",
            "label": "nodes",
            "offset": 0,
            "slot": "3",
            "type": "t_mapping(t_uint256,t_struct(Item)11099_storage)"
          }
        ],
        "numberOfBytes": "128"
      },
      "t_uint256": {
        "encoding": "inplace",
        "label": "uint256",
        "numberOfBytes": "32"
      }
    }
  }
}