{
  "address": "0x593401BBCaeA373c1CCd7A3F102d13f12dA0A3A6",
  "abi": [
    {
      "inputs": [
        {
          "internalType": "address",
          "name": "_executor",
          "type": "address"
        },
        {
          "internalType": "address",
          "name": "_weth",
          "type": "address"
        }
      ],
      "stateMutability": "nonpayable",
      "type": "constructor"
    },
    {
      "anonymous": false,
      "inputs": [
        {
          "indexed": true,
          "internalType": "address",
          "name": "executor",
          "type": "address"
        },
        {
          "indexed": true,
          "internalType": "address",
          "name": "user",
          "type": "address"
        },
        {
          "indexed": false,
          "internalType": "address",
          "name": "token",
          "type": "address"
        },
        {
          "indexed": false,
          "internalType": "uint256",
          "name": "amount",
          "type": "uint256"
        }
      ],
      "name": "Deposit",
      "type": "event"
    },
    {
      "anonymous": false,
      "inputs": [
        {
          "indexed": true,
          "internalType": "address",
          "name": "previousOwner",
          "type": "address"
        },
        {
          "indexed": true,
          "internalType": "address",
          "name": "newOwner",
          "type": "address"
        }
      ],
      "name": "OwnershipTransferred",
      "type": "event"
    },
    {
      "anonymous": false,
      "inputs": [
        {
          "indexed": true,
          "internalType": "address",
          "name": "executor",
          "type": "address"
        },
        {
          "indexed": true,
          "internalType": "address",
          "name": "user",
          "type": "address"
        },
        {
          "indexed": false,
          "internalType": "address",
          "name": "token",
          "type": "address"
        },
        {
          "indexed": false,
          "internalType": "uint256",
          "name": "amount",
          "type": "uint256"
        }
      ],
      "name": "Withdraw",
      "type": "event"
    },
    {
      "inputs": [],
      "name": "GAS_LIMIT",
      "outputs": [
        {
          "internalType": "uint256",
          "name": "",
          "type": "uint256"
        }
      ],
      "stateMutability": "view",
      "type": "function"
    },
    {
      "inputs": [],
      "name": "WETH",
      "outputs": [
        {
          "internalType": "address",
          "name": "",
          "type": "address"
        }
      ],
      "stateMutability": "view",
      "type": "function"
    },
    {
      "inputs": [
        {
          "internalType": "address",
          "name": "user",
          "type": "address"
        },
        {
          "internalType": "address",
          "name": "token",
          "type": "address"
        },
        {
          "internalType": "uint256",
          "name": "amount",
          "type": "uint256"
        }
      ],
      "name": "deposit",
      "outputs": [],
      "stateMutability": "payable",
      "type": "function"
    },
    {
      "inputs": [
        {
          "internalType": "address",
          "name": "",
          "type": "address"
        },
        {
          "internalType": "address",
          "name": "",
          "type": "address"
        }
      ],
      "name": "deposits",
      "outputs": [
        {
          "internalType": "uint256",
          "name": "",
          "type": "uint256"
        }
      ],
      "stateMutability": "view",
      "type": "function"
    },
    {
      "inputs": [
        {
          "internalType": "address",
          "name": "",
          "type": "address"
        }
      ],
      "name": "executors",
      "outputs": [
        {
          "internalType": "bool",
          "name": "",
          "type": "bool"
        }
      ],
      "stateMutability": "view",
      "type": "function"
    },
    {
      "inputs": [],
      "name": "owner",
      "outputs": [
        {
          "internalType": "address",
          "name": "",
          "type": "address"
        }
      ],
      "stateMutability": "view",
      "type": "function"
    },
    {
      "inputs": [],
      "name": "renounceOwnership",
      "outputs": [],
      "stateMutability": "nonpayable",
      "type": "function"
    },
    {
      "inputs": [
        {
          "internalType": "address",
          "name": "executor",
          "type": "address"
        }
      ],
      "name": "setExecutor",
      "outputs": [],
      "stateMutability": "nonpayable",
      "type": "function"
    },
    {
      "inputs": [
        {
          "internalType": "uint256",
          "name": "amount",
          "type": "uint256"
        }
      ],
      "name": "setGasLimit",
      "outputs": [],
      "stateMutability": "nonpayable",
      "type": "function"
    },
    {
      "inputs": [
        {
          "internalType": "address",
          "name": "_eth",
          "type": "address"
        }
      ],
      "name": "setWETH",
      "outputs": [],
      "stateMutability": "nonpayable",
      "type": "function"
    },
    {
      "inputs": [
        {
          "internalType": "address",
          "name": "newOwner",
          "type": "address"
        }
      ],
      "name": "transferOwnership",
      "outputs": [],
      "stateMutability": "nonpayable",
      "type": "function"
    },
    {
      "inputs": [
        {
          "internalType": "address",
          "name": "user",
          "type": "address"
        },
        {
          "internalType": "address",
          "name": "token",
          "type": "address"
        },
        {
          "internalType": "uint256",
          "name": "amount",
          "type": "uint256"
        }
      ],
      "name": "withdraw",
      "outputs": [],
      "stateMutability": "nonpayable",
      "type": "function"
    }
  ],
  "transactionHash": "0xf4ac91fe6c25a893e5580d884b4ce19997edb5268c1555d12c219b60a6900cd4",
  "args": [
    "0xd667Ae0B67A1f3b92F2dF1219C2C501FECF306bF",
    "0xbb4CdB9CBd36B01bD1cBaEBF2De08d9173bc095c"
  ],
  "numDeployments": 1,
  "solcInputHash": "c349ce4a63c44a90a748898fc7a49ddb",
  "bytecode": "0x6080604052620186a06001553480156200001857600080fd5b50604051620018d4380380620018d48339810160408190526200003b91620000f4565b620000463362000087565b6001600160a01b039182166000908152600260205260409020805460ff1916600117905560048054919092166001600160a01b03199091161790556200012c565b600080546001600160a01b038381166001600160a01b0319831681178455604051919092169283917f8be0079c531659141344cd1fd0a4f28419497f9722a3daafe3b4186f6b6457e09190a35050565b80516001600160a01b0381168114620000ef57600080fd5b919050565b600080604083850312156200010857600080fd5b6200011383620000d7565b91506200012360208401620000d7565b90509250929050565b611798806200013c6000396000f3fe6080604052600436106100c75760003560e01c80638f601f6611610074578063d9caed121161004e578063d9caed1214610250578063ee7d72b414610270578063f2fde38b1461029057600080fd5b80638f601f66146101ab5780639ac2a011146101e3578063ad5c46481461022357600080fd5b8063715018a6116100a5578063715018a6146101375780638340f5491461014c5780638da5cb5b1461015f57600080fd5b8063091d2788146100cc5780631c3c0ea8146100f55780635b769f3c14610117575b600080fd5b3480156100d857600080fd5b506100e260015481565b6040519081526020015b60405180910390f35b34801561010157600080fd5b50610115610110366004611626565b6102b0565b005b34801561012357600080fd5b50610115610132366004611626565b610385565b34801561014357600080fd5b5061011561044d565b61011561015a366004611674565b6104da565b34801561016b57600080fd5b5060005473ffffffffffffffffffffffffffffffffffffffff165b60405173ffffffffffffffffffffffffffffffffffffffff90911681526020016100ec565b3480156101b757600080fd5b506100e26101c6366004611641565b600360209081526000928352604080842090915290825290205481565b3480156101ef57600080fd5b506102136101fe366004611626565b60026020526000908152604090205460ff1681565b60405190151581526020016100ec565b34801561022f57600080fd5b506004546101869073ffffffffffffffffffffffffffffffffffffffff1681565b34801561025c57600080fd5b5061011561026b366004611674565b6105bf565b34801561027c57600080fd5b5061011561028b3660046116d2565b61069b565b34801561029c57600080fd5b506101156102ab366004611626565b610721565b60005473ffffffffffffffffffffffffffffffffffffffff163314610336576040517f08c379a000000000000000000000000000000000000000000000000000000000815260206004820181905260248201527f4f776e61626c653a2063616c6c6572206973206e6f7420746865206f776e657260448201526064015b60405180910390fd5b73ffffffffffffffffffffffffffffffffffffffff16600090815260026020526040902080547fffffffffffffffffffffffffffffffffffffffffffffffffffffffffffffff00166001179055565b60005473ffffffffffffffffffffffffffffffffffffffff163314610406576040517f08c379a000000000000000000000000000000000000000000000000000000000815260206004820181905260248201527f4f776e61626c653a2063616c6c6572206973206e6f7420746865206f776e6572604482015260640161032d565b600480547fffffffffffffffffffffffff00000000000000000000000000000000000000001673ffffffffffffffffffffffffffffffffffffffff92909216919091179055565b60005473ffffffffffffffffffffffffffffffffffffffff1633146104ce576040517f08c379a000000000000000000000000000000000000000000000000000000000815260206004820181905260248201527f4f776e61626c653a2063616c6c6572206973206e6f7420746865206f776e6572604482015260640161032d565b6104d86000610851565b565b3360009081526002602052604090205460ff161515600114610558576040517f08c379a000000000000000000000000000000000000000000000000000000000815260206004820152601360248201527f4c75636b733a206f6e6c794578656375746f7200000000000000000000000000604482015260640161032d565b610564338484846108c6565b6040805173ffffffffffffffffffffffffffffffffffffffff84811682526020820184905285169133917f7cfff908a4b583f36430b25d75964c458d8ede8a99bd61be750e97ee1b2f3a9691015b60405180910390a3505050565b3360009081526002602052604090205460ff16151560011461063d576040517f08c379a000000000000000000000000000000000000000000000000000000000815260206004820152601360248201527f4c75636b733a206f6e6c794578656375746f7200000000000000000000000000604482015260640161032d565b61064933848484611044565b6040805173ffffffffffffffffffffffffffffffffffffffff84811682526020820184905285169133917f3115d1449a7b732c986cba18244e897a450f61e1bb8d589cd2e69e6c8924f9f791016105b2565b60005473ffffffffffffffffffffffffffffffffffffffff16331461071c576040517f08c379a000000000000000000000000000000000000000000000000000000000815260206004820181905260248201527f4f776e61626c653a2063616c6c6572206973206e6f7420746865206f776e6572604482015260640161032d565b600155565b60005473ffffffffffffffffffffffffffffffffffffffff1633146107a2576040517f08c379a000000000000000000000000000000000000000000000000000000000815260206004820181905260248201527f4f776e61626c653a2063616c6c6572206973206e6f7420746865206f776e6572604482015260640161032d565b73ffffffffffffffffffffffffffffffffffffffff8116610845576040517f08c379a000000000000000000000000000000000000000000000000000000000815260206004820152602660248201527f4f776e61626c653a206e6577206f776e657220697320746865207a65726f206160448201527f6464726573730000000000000000000000000000000000000000000000000000606482015260840161032d565b61084e81610851565b50565b6000805473ffffffffffffffffffffffffffffffffffffffff8381167fffffffffffffffffffffffff0000000000000000000000000000000000000000831681178455604051919092169283917f8be0079c531659141344cd1fd0a4f28419497f9722a3daafe3b4186f6b6457e09190a35050565b73ffffffffffffffffffffffffffffffffffffffff8216610cfe5760006108ed82346115de565b90508015610cf85760045473ffffffffffffffffffffffffffffffffffffffff1661099a576040517f08c379a000000000000000000000000000000000000000000000000000000000815260206004820152602a60248201527f777261707020746f6b656e206e6f7420736574206f72206d73672e76616c756560448201527f20746f6f20736d616c6c00000000000000000000000000000000000000000000606482015260840161032d565b600480546040517f70a0823100000000000000000000000000000000000000000000000000000000815273ffffffffffffffffffffffffffffffffffffffff878116938201939093528392909116906370a082319060240160206040518083038186803b158015610a0a57600080fd5b505afa158015610a1e573d6000803e3d6000fd5b505050506040513d601f19601f82011682018060405250810190610a4291906116eb565b1015610aaa576040517f08c379a000000000000000000000000000000000000000000000000000000000815260206004820152601460248201527f496e73756666696369656e742062616c616e6365000000000000000000000000604482015260640161032d565b600480546040517fdd62ed3e00000000000000000000000000000000000000000000000000000000815273ffffffffffffffffffffffffffffffffffffffff8781169382019390935230602482015283929091169063dd62ed3e9060440160206040518083038186803b158015610b2057600080fd5b505afa158015610b34573d6000803e3d6000fd5b505050506040513d601f19601f82011682018060405250810190610b5891906116eb565b1015610bc0576040517f08c379a000000000000000000000000000000000000000000000000000000000815260206004820152601660248201527f496e73756666696369656e7420616c6c6f77616e636500000000000000000000604482015260640161032d565b600480546040517f23b872dd00000000000000000000000000000000000000000000000000000000815273ffffffffffffffffffffffffffffffffffffffff87811693820193909352306024820152604481018490529116906323b872dd90606401602060405180830381600087803b158015610c3c57600080fd5b505af1158015610c50573d6000803e3d6000fd5b505050506040513d601f19601f82011682018060405250810190610c7491906116b0565b50600480546040517f2e1a7d4d00000000000000000000000000000000000000000000000000000000815291820183905273ffffffffffffffffffffffffffffffffffffffff1690632e1a7d4d90602401600060405180830381600087803b158015610cdf57600080fd5b505af1158015610cf3573d6000803e3d6000fd5b505050505b50610fc8565b6040517f70a0823100000000000000000000000000000000000000000000000000000000815273ffffffffffffffffffffffffffffffffffffffff84811660048301528291908416906370a082319060240160206040518083038186803b158015610d6857600080fd5b505afa158015610d7c573d6000803e3d6000fd5b505050506040513d601f19601f82011682018060405250810190610da091906116eb565b1015610e08576040517f08c379a000000000000000000000000000000000000000000000000000000000815260206004820152601a60248201527f496e73756666696369656e7420746f6b656e2062616c616e6365000000000000604482015260640161032d565b6040517fdd62ed3e00000000000000000000000000000000000000000000000000000000815273ffffffffffffffffffffffffffffffffffffffff848116600483015230602483015282919084169063dd62ed3e9060440160206040518083038186803b158015610e7857600080fd5b505afa158015610e8c573d6000803e3d6000fd5b505050506040513d601f19601f82011682018060405250810190610eb091906116eb565b1015610f18576040517f08c379a000000000000000000000000000000000000000000000000000000000815260206004820152601c60248201527f496e73756666696369656e7420746f6b656e20616c6c6f77616e636500000000604482015260640161032d565b6040517f23b872dd00000000000000000000000000000000000000000000000000000000815273ffffffffffffffffffffffffffffffffffffffff8481166004830152306024830152604482018390528316906323b872dd90606401602060405180830381600087803b158015610f8e57600080fd5b505af1158015610fa2573d6000803e3d6000fd5b505050506040513d601f19601f82011682018060405250810190610fc691906116b0565b505b73ffffffffffffffffffffffffffffffffffffffff80851660009081526003602090815260408083209386168352929052205461100590826115f1565b73ffffffffffffffffffffffffffffffffffffffff94851660009081526003602090815260408083209590971682529390935293909120929092555050565b73ffffffffffffffffffffffffffffffffffffffff83161580159061107f575073ffffffffffffffffffffffffffffffffffffffff83163014155b6110e5576040517f08c379a000000000000000000000000000000000000000000000000000000000815260206004820152600f60248201527f496e76616c696420616464726573730000000000000000000000000000000000604482015260640161032d565b6000811161114f576040517f08c379a000000000000000000000000000000000000000000000000000000000815260206004820152600e60248201527f496e76616c696420616d6f756e74000000000000000000000000000000000000604482015260640161032d565b73ffffffffffffffffffffffffffffffffffffffff808516600090815260036020908152604080832093861683529290522054811115611211576040517f08c379a000000000000000000000000000000000000000000000000000000000815260206004820152603060248201527f496e73756666696369656e74206465706f73697465642062616c616e6365206660448201527f6f722074686973206578656375746f7200000000000000000000000000000000606482015260840161032d565b73ffffffffffffffffffffffffffffffffffffffff80851660009081526003602090815260408083209386168352929052205461124e90826115de565b73ffffffffffffffffffffffffffffffffffffffff80861660009081526003602090815260408083209387168084529390915290209190915561142757804710156112f5576040517f08c379a000000000000000000000000000000000000000000000000000000000815260206004820152600d60248201527f4c61636b206f662066756e647300000000000000000000000000000000000000604482015260640161032d565b73ffffffffffffffffffffffffffffffffffffffff83163b156113e45760015460405160009173ffffffffffffffffffffffffffffffffffffffff861691849084818181858888f193505050503d806000811461136e576040519150601f19603f3d011682016040523d82523d6000602084013e611373565b606091505b50509050806113de576040517f08c379a000000000000000000000000000000000000000000000000000000000815260206004820152601160248201527f73656e642076616c7565206661696c6564000000000000000000000000000000604482015260640161032d565b506115d8565b60405173ffffffffffffffffffffffffffffffffffffffff84169082156108fc029083906000818181858888f193505050501580156113de573d6000803e3d6000fd5b6040517f70a08231000000000000000000000000000000000000000000000000000000008152306004820152819073ffffffffffffffffffffffffffffffffffffffff8416906370a082319060240160206040518083038186803b15801561148e57600080fd5b505afa1580156114a2573d6000803e3d6000fd5b505050506040513d601f19601f820116820180604052508101906114c691906116eb565b101561152e576040517f08c379a000000000000000000000000000000000000000000000000000000000815260206004820152600d60248201527f4c61636b206f6620746f6b656e00000000000000000000000000000000000000604482015260640161032d565b6040517fa9059cbb00000000000000000000000000000000000000000000000000000000815273ffffffffffffffffffffffffffffffffffffffff84811660048301526024820183905283169063a9059cbb90604401602060405180830381600087803b15801561159e57600080fd5b505af11580156115b2573d6000803e3d6000fd5b505050506040513d601f19601f820116820180604052508101906115d691906116b0565b505b50505050565b60006115ea828461171c565b9392505050565b60006115ea8284611704565b803573ffffffffffffffffffffffffffffffffffffffff8116811461162157600080fd5b919050565b60006020828403121561163857600080fd5b6115ea826115fd565b6000806040838503121561165457600080fd5b61165d836115fd565b915061166b602084016115fd565b90509250929050565b60008060006060848603121561168957600080fd5b611692846115fd565b92506116a0602085016115fd565b9150604084013590509250925092565b6000602082840312156116c257600080fd5b815180151581146115ea57600080fd5b6000602082840312156116e457600080fd5b5035919050565b6000602082840312156116fd57600080fd5b5051919050565b6000821982111561171757611717611733565b500190565b60008282101561172e5761172e611733565b500390565b7f4e487b7100000000000000000000000000000000000000000000000000000000600052601160045260246000fdfea2646970667358221220a4eb3c64639e423f29e642fdecd0cff3bc5a9293516c94c1c929b4e999c0993064736f6c63430008060033",
  "devdoc": {
    "kind": "dev",
    "methods": {
      "constructor": {
        "params": {
          "_executor": "executor address"
        }
      },
      "owner()": {
        "details": "Returns the address of the current owner."
      },
      "renounceOwnership()": {
        "details": "Leaves the contract without owner. It will not be possible to call `onlyOwner` functions anymore. Can only be called by the current owner. NOTE: Renouncing ownership will leave the contract without an owner, thereby removing any functionality that is only available to the owner."
      },
      "transferOwnership(address)": {
        "details": "Transfers ownership of the contract to a new account (`newOwner`). Can only be called by the current owner."
      }
    },
    "version": 1
  },
  "userdoc": {
    "kind": "user",
    "methods": {
      "constructor": {
        "notice": "Constructor"
      },
      "setExecutor(address)": {
        "notice": "set operator"
      },
      "setWETH(address)": {
        "notice": "set IWETH"
      }
    },
    "version": 1
  },
  "storageLayout": {
    "storage": [
      {
        "astId": 917,
        "contract": "contracts/ProxyTokenStation.sol:ProxyTokenStation",
        "label": "_owner",
        "offset": 0,
        "slot": "0",
        "type": "t_address"
      },
      {
        "astId": 9186,
        "contract": "contracts/ProxyTokenStation.sol:ProxyTokenStation",
        "label": "GAS_LIMIT",
        "offset": 0,
        "slot": "1",
        "type": "t_uint256"
      },
      {
        "astId": 9190,
        "contract": "contracts/ProxyTokenStation.sol:ProxyTokenStation",
        "label": "executors",
        "offset": 0,
        "slot": "2",
        "type": "t_mapping(t_address,t_bool)"
      },
      {
        "astId": 9196,
        "contract": "contracts/ProxyTokenStation.sol:ProxyTokenStation",
        "label": "deposits",
        "offset": 0,
        "slot": "3",
        "type": "t_mapping(t_address,t_mapping(t_address,t_uint256))"
      },
      {
        "astId": 9198,
        "contract": "contracts/ProxyTokenStation.sol:ProxyTokenStation",
        "label": "WETH",
        "offset": 0,
        "slot": "4",
        "type": "t_address"
      }
    ],
    "types": {
      "t_address": {
        "encoding": "inplace",
        "label": "address",
        "numberOfBytes": "20"
      },
      "t_bool": {
        "encoding": "inplace",
        "label": "bool",
        "numberOfBytes": "1"
      },
      "t_mapping(t_address,t_bool)": {
        "encoding": "mapping",
        "key": "t_address",
        "label": "mapping(address => bool)",
        "numberOfBytes": "32",
        "value": "t_bool"
      },
      "t_mapping(t_address,t_mapping(t_address,t_uint256))": {
        "encoding": "mapping",
        "key": "t_address",
        "label": "mapping(address => mapping(address => uint256))",
        "numberOfBytes": "32",
        "value": "t_mapping(t_address,t_uint256)"
      },
      "t_mapping(t_address,t_uint256)": {
        "encoding": "mapping",
        "key": "t_address",
        "label": "mapping(address => uint256)",
        "numberOfBytes": "32",
        "value": "t_uint256"
      },
      "t_uint256": {
        "encoding": "inplace",
        "label": "uint256",
        "numberOfBytes": "32"
      }
    }
  }
}