{
  "address": "0xEEE1ceD926fEf190dB0Ca3fC45b619cBb76a84C8",
  "abi": [
    {
      "inputs": [
        {
          "internalType": "address",
          "name": "_executor",
          "type": "address"
        },
        {
          "internalType": "contract ILucksHelper",
          "name": "_helper",
          "type": "address"
        }
      ],
      "stateMutability": "nonpayable",
      "type": "constructor"
    },
    {
      "anonymous": false,
      "inputs": [
        {
          "indexed": true,
          "internalType": "address",
          "name": "executor",
          "type": "address"
        },
        {
          "indexed": false,
          "internalType": "uint256",
          "name": "depositId",
          "type": "uint256"
        },
        {
          "indexed": true,
          "internalType": "address",
          "name": "user",
          "type": "address"
        },
        {
          "indexed": false,
          "internalType": "address",
          "name": "nft",
          "type": "address"
        },
        {
          "indexed": false,
          "internalType": "uint256[]",
          "name": "tokenIds",
          "type": "uint256[]"
        },
        {
          "indexed": false,
          "internalType": "uint256[]",
          "name": "amounts",
          "type": "uint256[]"
        },
        {
          "indexed": false,
          "internalType": "uint256",
          "name": "endTime",
          "type": "uint256"
        }
      ],
      "name": "Deposit",
      "type": "event"
    },
    {
      "anonymous": false,
      "inputs": [
        {
          "indexed": true,
          "internalType": "address",
          "name": "previousOwner",
          "type": "address"
        },
        {
          "indexed": true,
          "internalType": "address",
          "name": "newOwner",
          "type": "address"
        }
      ],
      "name": "OwnershipTransferred",
      "type": "event"
    },
    {
      "anonymous": false,
      "inputs": [
        {
          "indexed": true,
          "internalType": "address",
          "name": "executor",
          "type": "address"
        },
        {
          "indexed": false,
          "internalType": "uint256",
          "name": "depositId",
          "type": "uint256"
        },
        {
          "indexed": true,
          "internalType": "address",
          "name": "to",
          "type": "address"
        },
        {
          "indexed": false,
          "internalType": "address",
          "name": "nft",
          "type": "address"
        },
        {
          "indexed": false,
          "internalType": "uint256[]",
          "name": "tokenIds",
          "type": "uint256[]"
        },
        {
          "indexed": false,
          "internalType": "uint256[]",
          "name": "amounts",
          "type": "uint256[]"
        }
      ],
      "name": "Redeem",
      "type": "event"
    },
    {
      "anonymous": false,
      "inputs": [
        {
          "indexed": true,
          "internalType": "address",
          "name": "executor",
          "type": "address"
        },
        {
          "indexed": false,
          "internalType": "uint256",
          "name": "depositId",
          "type": "uint256"
        },
        {
          "indexed": true,
          "internalType": "address",
          "name": "to",
          "type": "address"
        },
        {
          "indexed": false,
          "internalType": "address",
          "name": "nft",
          "type": "address"
        },
        {
          "indexed": false,
          "internalType": "uint256[]",
          "name": "tokenIds",
          "type": "uint256[]"
        },
        {
          "indexed": false,
          "internalType": "uint256[]",
          "name": "amounts",
          "type": "uint256[]"
        }
      ],
      "name": "Withdraw",
      "type": "event"
    },
    {
      "inputs": [],
      "name": "HELPER",
      "outputs": [
        {
          "internalType": "contract ILucksHelper",
          "name": "",
          "type": "address"
        }
      ],
      "stateMutability": "view",
      "type": "function"
    },
    {
      "inputs": [
        {
          "internalType": "address",
          "name": "user",
          "type": "address"
        },
        {
          "internalType": "address",
          "name": "nft",
          "type": "address"
        },
        {
          "internalType": "uint256[]",
          "name": "tokenIds",
          "type": "uint256[]"
        },
        {
          "internalType": "uint256[]",
          "name": "amounts",
          "type": "uint256[]"
        },
        {
          "internalType": "uint256",
          "name": "endTime",
          "type": "uint256"
        }
      ],
      "name": "deposit",
      "outputs": [
        {
          "internalType": "uint256",
          "name": "depositId",
          "type": "uint256"
        }
      ],
      "stateMutability": "payable",
      "type": "function"
    },
    {
      "inputs": [
        {
          "internalType": "address",
          "name": "",
          "type": "address"
        },
        {
          "internalType": "uint256",
          "name": "",
          "type": "uint256"
        }
      ],
      "name": "deposits",
      "outputs": [
        {
          "internalType": "address",
          "name": "user",
          "type": "address"
        },
        {
          "internalType": "address",
          "name": "nftContract",
          "type": "address"
        },
        {
          "internalType": "uint256",
          "name": "endTime",
          "type": "uint256"
        }
      ],
      "stateMutability": "view",
      "type": "function"
    },
    {
      "inputs": [
        {
          "internalType": "address",
          "name": "",
          "type": "address"
        }
      ],
      "name": "executors",
      "outputs": [
        {
          "internalType": "bool",
          "name": "",
          "type": "bool"
        }
      ],
      "stateMutability": "view",
      "type": "function"
    },
    {
      "inputs": [
        {
          "internalType": "address",
          "name": "executor",
          "type": "address"
        },
        {
          "internalType": "uint256",
          "name": "depositId",
          "type": "uint256"
        }
      ],
      "name": "getNFT",
      "outputs": [
        {
          "components": [
            {
              "internalType": "address",
              "name": "user",
              "type": "address"
            },
            {
              "internalType": "address",
              "name": "nftContract",
              "type": "address"
            },
            {
              "internalType": "uint256[]",
              "name": "tokenIds",
              "type": "uint256[]"
            },
            {
              "internalType": "uint256[]",
              "name": "amounts",
              "type": "uint256[]"
            },
            {
              "internalType": "uint256",
              "name": "endTime",
              "type": "uint256"
            }
          ],
          "internalType": "struct DepositNFT",
          "name": "",
          "type": "tuple"
        }
      ],
      "stateMutability": "view",
      "type": "function"
    },
    {
      "inputs": [],
      "name": "owner",
      "outputs": [
        {
          "internalType": "address",
          "name": "",
          "type": "address"
        }
      ],
      "stateMutability": "view",
      "type": "function"
    },
    {
      "inputs": [
        {
          "internalType": "address",
          "name": "executor",
          "type": "address"
        },
        {
          "internalType": "uint256",
          "name": "depositId",
          "type": "uint256"
        },
        {
          "internalType": "address",
          "name": "to",
          "type": "address"
        }
      ],
      "name": "redeem",
      "outputs": [],
      "stateMutability": "nonpayable",
      "type": "function"
    },
    {
      "inputs": [],
      "name": "renounceOwnership",
      "outputs": [],
      "stateMutability": "nonpayable",
      "type": "function"
    },
    {
      "inputs": [
        {
          "internalType": "address",
          "name": "executor",
          "type": "address"
        }
      ],
      "name": "setExecutor",
      "outputs": [],
      "stateMutability": "nonpayable",
      "type": "function"
    },
    {
      "inputs": [
        {
          "internalType": "address",
          "name": "newOwner",
          "type": "address"
        }
      ],
      "name": "transferOwnership",
      "outputs": [],
      "stateMutability": "nonpayable",
      "type": "function"
    },
    {
      "inputs": [
        {
          "internalType": "uint256",
          "name": "depositId",
          "type": "uint256"
        },
        {
          "internalType": "address",
          "name": "to",
          "type": "address"
        }
      ],
      "name": "withdraw",
      "outputs": [],
      "stateMutability": "nonpayable",
      "type": "function"
    }
  ],
  "transactionHash": "0x844aee90ff0d8d20a0429dab35e8082a579d1658aa5f04abe20149a2939d2754",
  "args": [
    "0x897be0747988558c507aF3fd1e07d55c74EfadE8",
    "0x97C6c0d68186aEf33cCC00CFfe35Fe8663590c9e"
  ],
  "numDeployments": 1,
  "solcInputHash": "7b804176a7632af5b6ee7d8f47f9cf27",
  "bytecode": "0x60806040523480156200001157600080fd5b5060405162001fdd38038062001fdd8339810160408190526200003491620000d0565b6200003f3362000080565b6001600160a01b039182166000908152600360205260409020805460ff1916600117905560028054919092166001600160a01b031990911617905562000128565b600080546001600160a01b038381166001600160a01b0319831681178455604051919092169283917f8be0079c531659141344cd1fd0a4f28419497f9722a3daafe3b4186f6b6457e09190a35050565b60008060408385031215620000e457600080fd5b8251620000f1816200010f565b602084015190925062000104816200010f565b809150509250929050565b6001600160a01b03811681146200012557600080fd5b50565b611ea580620001386000396000f3fe6080604052600436106100bb5760003560e01c8063715018a611610074578063d6d681771161004e578063d6d681771461021a578063f2fde38b146102ad578063f551bf20146102cd57600080fd5b8063715018a6146101795780638da5cb5b1461018e5780639ac2a011146101da57600080fd5b80632207bdcf116100a55780632207bdcf14610102578063443cf787146101385780635c833bfd1461015957600080fd5b8062f714ce146100c05780631c3c0ea8146100e2575b600080fd5b3480156100cc57600080fd5b506100e06100db366004611bdc565b6102fa565b005b3480156100ee57600080fd5b506100e06100fd366004611a7a565b610871565b34801561010e57600080fd5b5061012261011d366004611b4c565b610941565b60405161012f9190611c47565b60405180910390f35b61014b610146366004611abb565b610aa6565b60405190815260200161012f565b34801561016557600080fd5b506100e0610174366004611b78565b61101d565b34801561018557600080fd5b506100e061170b565b34801561019a57600080fd5b5060005473ffffffffffffffffffffffffffffffffffffffff165b60405173ffffffffffffffffffffffffffffffffffffffff909116815260200161012f565b3480156101e657600080fd5b5061020a6101f5366004611a7a565b60036020526000908152604090205460ff1681565b604051901515815260200161012f565b34801561022657600080fd5b5061027a610235366004611b4c565b6004602081815260009384526040808520909152918352912080546001820154919092015473ffffffffffffffffffffffffffffffffffffffff928316929091169083565b6040805173ffffffffffffffffffffffffffffffffffffffff94851681529390921660208401529082015260600161012f565b3480156102b957600080fd5b506100e06102c8366004611a7a565b611798565b3480156102d957600080fd5b506002546101b59073ffffffffffffffffffffffffffffffffffffffff1681565b3360009081526003602052604090205460ff16151560011461037d576040517f08c379a000000000000000000000000000000000000000000000000000000000815260206004820152601360248201527f4c75636b733a206f6e6c794578656375746f720000000000000000000000000060448201526064015b60405180910390fd5b336000908152600460209081526040808320858452909152902060020154610401576040517f08c379a000000000000000000000000000000000000000000000000000000000815260206004820152601160248201527f496e76616c6964206465706f73697449640000000000000000000000000000006044820152606401610374565b336000908152600460209081526040808320858452825280832060018101546002909101805483518186028101860190945280845273ffffffffffffffffffffffffffffffffffffffff909216949390919083018282801561048257602002820191906000526020600020905b81548152602001906001019080831161046e575b50503360009081526004602090815260408083208b84528252808320600301805482518185028101850190935280835297985092969095509193509091508301828280156104ef57602002820191906000526020600020905b8154815260200190600101908083116104db575b50503360009081526004602090815260408083208c8452909152812080547fffffffffffffffffffffffff0000000000000000000000000000000000000000908116825560018201805490911690559495509250610553915050600283018261193d565b61056160038301600061193d565b600482016000905550506000600260009054906101000a900473ffffffffffffffffffffffffffffffffffffffff1673ffffffffffffffffffffffffffffffffffffffff166333a948316040518163ffffffff1660e01b815260040160206040518083038186803b1580156105d557600080fd5b505afa1580156105e9573d6000803e3d6000fd5b505050506040513d601f19601f8201168201806040525081019061060d9190611a9e565b905060005b83518110156107fd5760008273ffffffffffffffffffffffffffffffffffffffff16635817816886848151811061064b5761064b611def565b60200260200101516040518263ffffffff1660e01b815260040161067191815260200190565b60206040518083038186803b15801561068957600080fd5b505afa15801561069d573d6000803e3d6000fd5b505050506040513d601f19601f820116820180604052508101906106c19190611a9e565b905073ffffffffffffffffffffffffffffffffffffffff81163014610742576040517f08c379a000000000000000000000000000000000000000000000000000000000815260206004820152601960248201527f50756e6b733a2070726f7879206973206e6f74206f776e6572000000000000006044820152606401610374565b8273ffffffffffffffffffffffffffffffffffffffff16638b72a2ec8887858151811061077157610771611def565b60200260200101516040518363ffffffff1660e01b81526004016107b792919073ffffffffffffffffffffffffffffffffffffffff929092168252602082015260400190565b600060405180830381600087803b1580156107d157600080fd5b505af11580156107e5573d6000803e3d6000fd5b505050505080806107f590611d8f565b915050610612565b508473ffffffffffffffffffffffffffffffffffffffff163373ffffffffffffffffffffffffffffffffffffffff167f1aa1975ec78254d9555afd3cb8a24bc7ed7cca61a92954e019b7d07e9c31626a888787876040516108619493929190611ce3565b60405180910390a3505050505050565b60005473ffffffffffffffffffffffffffffffffffffffff1633146108f2576040517f08c379a000000000000000000000000000000000000000000000000000000000815260206004820181905260248201527f4f776e61626c653a2063616c6c6572206973206e6f7420746865206f776e65726044820152606401610374565b73ffffffffffffffffffffffffffffffffffffffff16600090815260036020526040902080547fffffffffffffffffffffffffffffffffffffffffffffffffffffffffffffff00166001179055565b61099f6040518060a00160405280600073ffffffffffffffffffffffffffffffffffffffff168152602001600073ffffffffffffffffffffffffffffffffffffffff1681526020016060815260200160608152602001600081525090565b73ffffffffffffffffffffffffffffffffffffffff8084166000908152600460209081526040808320868452825291829020825160a08101845281548516815260018201549094168483015260028101805484518185028101850186528181529294860193830182828015610a3357602002820191906000526020600020905b815481526020019060010190808311610a1f575b5050505050815260200160038201805480602002602001604051908101604052809291908181526020018280548015610a8b57602002820191906000526020600020905b815481526020019060010190808311610a77575b50505050508152602001600482015481525050905092915050565b3360009081526003602052604081205460ff161515600114610b24576040517f08c379a000000000000000000000000000000000000000000000000000000000815260206004820152601360248201527f4c75636b733a206f6e6c794578656375746f72000000000000000000000000006044820152606401610374565b6002546040517f9aeecea500000000000000000000000000000000000000000000000000000000815273ffffffffffffffffffffffffffffffffffffffff878116600483015290911690639aeecea59060240160206040518083038186803b158015610b8f57600080fd5b505afa158015610ba3573d6000803e3d6000fd5b505050506040513d601f19601f82011682018060405250810190610bc79190611bba565b610c2d576040517f08c379a000000000000000000000000000000000000000000000000000000000815260206004820152601060248201527f50756e6b733a206e6f742050756e6b73000000000000000000000000000000006044820152606401610374565b600254604080517f33a94831000000000000000000000000000000000000000000000000000000008152905160009273ffffffffffffffffffffffffffffffffffffffff16916333a94831916004808301926020929190829003018186803b158015610c9857600080fd5b505afa158015610cac573d6000803e3d6000fd5b505050506040513d601f19601f82011682018060405250810190610cd09190611a9e565b905060005b8551811015610eb55760008273ffffffffffffffffffffffffffffffffffffffff166358178168888481518110610d0e57610d0e611def565b60200260200101516040518263ffffffff1660e01b8152600401610d3491815260200190565b60206040518083038186803b158015610d4c57600080fd5b505afa158015610d60573d6000803e3d6000fd5b505050506040513d601f19601f82011682018060405250810190610d849190611a9e565b90508873ffffffffffffffffffffffffffffffffffffffff168173ffffffffffffffffffffffffffffffffffffffff1614610e1b576040517f08c379a000000000000000000000000000000000000000000000000000000000815260206004820152601d60248201527f50756e6b733a206e6f74206f776e6572206f662070756e6b496e6465780000006044820152606401610374565b8273ffffffffffffffffffffffffffffffffffffffff16638264fe98888481518110610e4957610e49611def565b60200260200101516040518263ffffffff1660e01b8152600401610e6f91815260200190565b600060405180830381600087803b158015610e8957600080fd5b505af1158015610e9d573d6000803e3d6000fd5b50505050508080610ead90611d8f565b915050610cd5565b50610ec4600180546001019055565b6001546040805160a08101825273ffffffffffffffffffffffffffffffffffffffff808b16825289811660208084019182528385018b8152606085018b9052608085018a905233600090815260048352868120888252835295909520845181549085167fffffffffffffffffffffffff0000000000000000000000000000000000000000918216178255925160018201805491909516931692909217909255925180519496509193610f7c926002850192019061195b565b5060608201518051610f9891600384019160209091019061195b565b50608082015181600401559050508673ffffffffffffffffffffffffffffffffffffffff163373ffffffffffffffffffffffffffffffffffffffff167f347f2f3ccace771076d0730d10c78c9e198450059b63d2a0fa24311021960424848989898960405161100b959493929190611d35565b60405180910390a35095945050505050565b60005473ffffffffffffffffffffffffffffffffffffffff16331461109e576040517f08c379a000000000000000000000000000000000000000000000000000000000815260206004820181905260248201527f4f776e61626c653a2063616c6c6572206973206e6f7420746865206f776e65726044820152606401610374565b73ffffffffffffffffffffffffffffffffffffffff83166000908152600460209081526040808320858452909152902060020154611138576040517f08c379a000000000000000000000000000000000000000000000000000000000815260206004820152601160248201527f496e76616c6964206465706f73697449640000000000000000000000000000006044820152606401610374565b73ffffffffffffffffffffffffffffffffffffffff83166000908152600460208181526040808420868552909152909120015442116111d3576040517f08c379a000000000000000000000000000000000000000000000000000000000815260206004820152601260248201527f4e6f742074696d6520746f2072656465656d00000000000000000000000000006044820152606401610374565b73ffffffffffffffffffffffffffffffffffffffff8381166000908152600460209081526040808320868452909152902054811690821614611271576040517f08c379a000000000000000000000000000000000000000000000000000000000815260206004820152601160248201527f496e76616c69642072656465656d20746f0000000000000000000000000000006044820152606401610374565b73ffffffffffffffffffffffffffffffffffffffff83811660009081526004602090815260408083208684528252808320600181015460029091018054835181860281018601909452808452919095169491928301828280156112f357602002820191906000526020600020905b8154815260200190600101908083116112df575b5050505073ffffffffffffffffffffffffffffffffffffffff871660009081526004602090815260408083208984528252808320600301805482518185028101850190935280835295965092949093509083018282801561137357602002820191906000526020600020905b81548152602001906001019080831161135f575b5050505073ffffffffffffffffffffffffffffffffffffffff881660009081526004602090815260408083208a8452909152812080547fffffffffffffffffffffffff00000000000000000000000000000000000000009081168255600182018054909116905592935090506113ec600283018261193d565b6113fa60038301600061193d565b600482016000905550506000600260009054906101000a900473ffffffffffffffffffffffffffffffffffffffff1673ffffffffffffffffffffffffffffffffffffffff166333a948316040518163ffffffff1660e01b815260040160206040518083038186803b15801561146e57600080fd5b505afa158015611482573d6000803e3d6000fd5b505050506040513d601f19601f820116820180604052508101906114a69190611a9e565b905060005b83518110156116965760008273ffffffffffffffffffffffffffffffffffffffff1663581781688684815181106114e4576114e4611def565b60200260200101516040518263ffffffff1660e01b815260040161150a91815260200190565b60206040518083038186803b15801561152257600080fd5b505afa158015611536573d6000803e3d6000fd5b505050506040513d601f19601f8201168201806040525081019061155a9190611a9e565b905073ffffffffffffffffffffffffffffffffffffffff811630146115db576040517f08c379a000000000000000000000000000000000000000000000000000000000815260206004820152601960248201527f50756e6b733a2070726f7879206973206e6f74206f776e6572000000000000006044820152606401610374565b8273ffffffffffffffffffffffffffffffffffffffff16638b72a2ec8887858151811061160a5761160a611def565b60200260200101516040518363ffffffff1660e01b815260040161165092919073ffffffffffffffffffffffffffffffffffffffff929092168252602082015260400190565b600060405180830381600087803b15801561166a57600080fd5b505af115801561167e573d6000803e3d6000fd5b5050505050808061168e90611d8f565b9150506114ab565b508473ffffffffffffffffffffffffffffffffffffffff163373ffffffffffffffffffffffffffffffffffffffff167f419f05693ec28c30b2a3f2378868ffd6e66384945f6de621f1aef8bb91e30585888787876040516116fa9493929190611ce3565b60405180910390a350505050505050565b60005473ffffffffffffffffffffffffffffffffffffffff16331461178c576040517f08c379a000000000000000000000000000000000000000000000000000000000815260206004820181905260248201527f4f776e61626c653a2063616c6c6572206973206e6f7420746865206f776e65726044820152606401610374565b61179660006118c8565b565b60005473ffffffffffffffffffffffffffffffffffffffff163314611819576040517f08c379a000000000000000000000000000000000000000000000000000000000815260206004820181905260248201527f4f776e61626c653a2063616c6c6572206973206e6f7420746865206f776e65726044820152606401610374565b73ffffffffffffffffffffffffffffffffffffffff81166118bc576040517f08c379a000000000000000000000000000000000000000000000000000000000815260206004820152602660248201527f4f776e61626c653a206e6577206f776e657220697320746865207a65726f206160448201527f64647265737300000000000000000000000000000000000000000000000000006064820152608401610374565b6118c5816118c8565b50565b6000805473ffffffffffffffffffffffffffffffffffffffff8381167fffffffffffffffffffffffff0000000000000000000000000000000000000000831681178455604051919092169283917f8be0079c531659141344cd1fd0a4f28419497f9722a3daafe3b4186f6b6457e09190a35050565b50805460008255906000526020600020908101906118c591906119a6565b828054828255906000526020600020908101928215611996579160200282015b8281111561199657825182559160200191906001019061197b565b506119a29291506119a6565b5090565b5b808211156119a257600081556001016119a7565b600082601f8301126119cc57600080fd5b8135602067ffffffffffffffff808311156119e9576119e9611e1e565b8260051b6040517fffffffffffffffffffffffffffffffffffffffffffffffffffffffffffffffe0603f83011681018181108482111715611a2c57611a2c611e1e565b60405284815283810192508684018288018501891015611a4b57600080fd5b600092505b85831015611a6e578035845292840192600192909201918401611a50565b50979650505050505050565b600060208284031215611a8c57600080fd5b8135611a9781611e4d565b9392505050565b600060208284031215611ab057600080fd5b8151611a9781611e4d565b600080600080600060a08688031215611ad357600080fd5b8535611ade81611e4d565b94506020860135611aee81611e4d565b9350604086013567ffffffffffffffff80821115611b0b57600080fd5b611b1789838a016119bb565b94506060880135915080821115611b2d57600080fd5b50611b3a888289016119bb565b95989497509295608001359392505050565b60008060408385031215611b5f57600080fd5b8235611b6a81611e4d565b946020939093013593505050565b600080600060608486031215611b8d57600080fd5b8335611b9881611e4d565b9250602084013591506040840135611baf81611e4d565b809150509250925092565b600060208284031215611bcc57600080fd5b81518015158114611a9757600080fd5b60008060408385031215611bef57600080fd5b823591506020830135611c0181611e4d565b809150509250929050565b600081518084526020808501945080840160005b83811015611c3c57815187529582019590820190600101611c20565b509495945050505050565b60208152600073ffffffffffffffffffffffffffffffffffffffff80845116602084015280602085015116604084015250604083015160a06060840152611c9160c0840182611c0c565b905060608401517fffffffffffffffffffffffffffffffffffffffffffffffffffffffffffffffe0848303016080850152611ccc8282611c0c565b915050608084015160a08401528091505092915050565b84815273ffffffffffffffffffffffffffffffffffffffff84166020820152608060408201526000611d186080830185611c0c565b8281036060840152611d2a8185611c0c565b979650505050505050565b85815273ffffffffffffffffffffffffffffffffffffffff8516602082015260a060408201526000611d6a60a0830186611c0c565b8281036060840152611d7c8186611c0c565b9150508260808301529695505050505050565b60007fffffffffffffffffffffffffffffffffffffffffffffffffffffffffffffffff821415611de8577f4e487b7100000000000000000000000000000000000000000000000000000000600052601160045260246000fd5b5060010190565b7f4e487b7100000000000000000000000000000000000000000000000000000000600052603260045260246000fd5b7f4e487b7100000000000000000000000000000000000000000000000000000000600052604160045260246000fd5b73ffffffffffffffffffffffffffffffffffffffff811681146118c557600080fdfea264697066735822122070f7149f0108be7894785c42fc3d062934932b96f3f6ddb8fd5883b9ba79f77164736f6c63430008060033",
  "devdoc": {
    "kind": "dev",
    "methods": {
      "constructor": {
        "params": {
          "_executor": "address"
        }
      },
      "owner()": {
        "details": "Returns the address of the current owner."
      },
      "renounceOwnership()": {
        "details": "Leaves the contract without owner. It will not be possible to call `onlyOwner` functions anymore. Can only be called by the current owner. NOTE: Renouncing ownership will leave the contract without an owner, thereby removing any functionality that is only available to the owner."
      },
      "transferOwnership(address)": {
        "details": "Transfers ownership of the contract to a new account (`newOwner`). Can only be called by the current owner."
      }
    },
    "version": 1
  },
  "userdoc": {
    "kind": "user",
    "methods": {
      "constructor": {
        "notice": "Constructor"
      },
      "redeem(address,uint256,address)": {
        "notice": "for enmergency case for user to redeem in case of cross chain withdraw suck nft, enable to redeem back to seller nft after endTime"
      }
    },
    "version": 1
  },
  "storageLayout": {
    "storage": [
      {
        "astId": 917,
        "contract": "contracts/ProxyCryptoPunks.sol:ProxyCryptoPunks",
        "label": "_owner",
        "offset": 0,
        "slot": "0",
        "type": "t_address"
      },
      {
        "astId": 8192,
        "contract": "contracts/ProxyCryptoPunks.sol:ProxyCryptoPunks",
        "label": "_depositIds",
        "offset": 0,
        "slot": "1",
        "type": "t_struct(Counter)4842_storage"
      },
      {
        "astId": 8195,
        "contract": "contracts/ProxyCryptoPunks.sol:ProxyCryptoPunks",
        "label": "HELPER",
        "offset": 0,
        "slot": "2",
        "type": "t_contract(ILucksHelper)10587"
      },
      {
        "astId": 8199,
        "contract": "contracts/ProxyCryptoPunks.sol:ProxyCryptoPunks",
        "label": "executors",
        "offset": 0,
        "slot": "3",
        "type": "t_mapping(t_address,t_bool)"
      },
      {
        "astId": 8206,
        "contract": "contracts/ProxyCryptoPunks.sol:ProxyCryptoPunks",
        "label": "deposits",
        "offset": 0,
        "slot": "4",
        "type": "t_mapping(t_address,t_mapping(t_uint256,t_struct(DepositNFT)10763_storage))"
      }
    ],
    "types": {
      "t_address": {
        "encoding": "inplace",
        "label": "address",
        "numberOfBytes": "20"
      },
      "t_array(t_uint256)dyn_storage": {
        "base": "t_uint256",
        "encoding": "dynamic_array",
        "label": "uint256[]",
        "numberOfBytes": "32"
      },
      "t_bool": {
        "encoding": "inplace",
        "label": "bool",
        "numberOfBytes": "1"
      },
      "t_contract(ILucksHelper)10587": {
        "encoding": "inplace",
        "label": "contract ILucksHelper",
        "numberOfBytes": "20"
      },
      "t_mapping(t_address,t_bool)": {
        "encoding": "mapping",
        "key": "t_address",
        "label": "mapping(address => bool)",
        "numberOfBytes": "32",
        "value": "t_bool"
      },
      "t_mapping(t_address,t_mapping(t_uint256,t_struct(DepositNFT)10763_storage))": {
        "encoding": "mapping",
        "key": "t_address",
        "label": "mapping(address => mapping(uint256 => struct DepositNFT))",
        "numberOfBytes": "32",
        "value": "t_mapping(t_uint256,t_struct(DepositNFT)10763_storage)"
      },
      "t_mapping(t_uint256,t_struct(DepositNFT)10763_storage)": {
        "encoding": "mapping",
        "key": "t_uint256",
        "label": "mapping(uint256 => struct DepositNFT)",
        "numberOfBytes": "32",
        "value": "t_struct(DepositNFT)10763_storage"
      },
      "t_struct(Counter)4842_storage": {
        "encoding": "inplace",
        "label": "struct Counters.Counter",
        "members": [
          {
            "astId": 4841,
            "contract": "contracts/ProxyCryptoPunks.sol:ProxyCryptoPunks",
            "label": "_value",
            "offset": 0,
            "slot": "0",
            "type": "t_uint256"
          }
        ],
        "numberOfBytes": "32"
      },
      "t_struct(DepositNFT)10763_storage": {
        "encoding": "inplace",
        "label": "struct DepositNFT",
        "members": [
          {
            "astId": 10752,
            "contract": "contracts/ProxyCryptoPunks.sol:ProxyCryptoPunks",
            "label": "user",
            "offset": 0,
            "slot": "0",
            "type": "t_address"
          },
          {
            "astId": 10754,
            "contract": "contracts/ProxyCryptoPunks.sol:ProxyCryptoPunks",
            "label": "nftContract",
            "offset": 0,
            "slot": "1",
            "type": "t_address"
          },
          {
            "astId": 10757,
            "contract": "contracts/ProxyCryptoPunks.sol:ProxyCryptoPunks",
            "label": "tokenIds",
            "offset": 0,
            "slot": "2",
            "type": "t_array(t_uint256)dyn_storage"
          },
          {
            "astId": 10760,
            "contract": "contracts/ProxyCryptoPunks.sol:ProxyCryptoPunks",
            "label": "amounts",
            "offset": 0,
            "slot": "3",
            "type": "t_array(t_uint256)dyn_storage"
          },
          {
            "astId": 10762,
            "contract": "contracts/ProxyCryptoPunks.sol:ProxyCryptoPunks",
            "label": "endTime",
            "offset": 0,
            "slot": "4",
            "type": "t_uint256"
          }
        ],
        "numberOfBytes": "160"
      },
      "t_uint256": {
        "encoding": "inplace",
        "label": "uint256",
        "numberOfBytes": "32"
      }
    }
  }
}