{
  "address": "0x0f2191c6CA2B2bB9e03E325F62D0Ee734B752bAD",
  "abi": [
    {
      "inputs": [
        {
          "internalType": "address",
          "name": "mintTo",
          "type": "address"
        },
        {
          "internalType": "uint256",
          "name": "num",
          "type": "uint256"
        }
      ],
      "stateMutability": "nonpayable",
      "type": "constructor"
    },
    {
      "anonymous": false,
      "inputs": [
        {
          "indexed": true,
          "internalType": "address",
          "name": "owner",
          "type": "address"
        },
        {
          "indexed": true,
          "internalType": "address",
          "name": "approved",
          "type": "address"
        },
        {
          "indexed": true,
          "internalType": "uint256",
          "name": "tokenId",
          "type": "uint256"
        }
      ],
      "name": "Approval",
      "type": "event"
    },
    {
      "anonymous": false,
      "inputs": [
        {
          "indexed": true,
          "internalType": "address",
          "name": "owner",
          "type": "address"
        },
        {
          "indexed": true,
          "internalType": "address",
          "name": "operator",
          "type": "address"
        },
        {
          "indexed": false,
          "internalType": "bool",
          "name": "approved",
          "type": "bool"
        }
      ],
      "name": "ApprovalForAll",
      "type": "event"
    },
    {
      "anonymous": false,
      "inputs": [
        {
          "indexed": true,
          "internalType": "address",
          "name": "previousOwner",
          "type": "address"
        },
        {
          "indexed": true,
          "internalType": "address",
          "name": "newOwner",
          "type": "address"
        }
      ],
      "name": "OwnershipTransferred",
      "type": "event"
    },
    {
      "anonymous": false,
      "inputs": [
        {
          "indexed": true,
          "internalType": "address",
          "name": "from",
          "type": "address"
        },
        {
          "indexed": true,
          "internalType": "address",
          "name": "to",
          "type": "address"
        },
        {
          "indexed": true,
          "internalType": "uint256",
          "name": "tokenId",
          "type": "uint256"
        }
      ],
      "name": "Transfer",
      "type": "event"
    },
    {
      "inputs": [
        {
          "internalType": "address",
          "name": "to",
          "type": "address"
        },
        {
          "internalType": "uint256",
          "name": "tokenId",
          "type": "uint256"
        }
      ],
      "name": "approve",
      "outputs": [],
      "stateMutability": "nonpayable",
      "type": "function"
    },
    {
      "inputs": [
        {
          "internalType": "address",
          "name": "owner",
          "type": "address"
        }
      ],
      "name": "balanceOf",
      "outputs": [
        {
          "internalType": "uint256",
          "name": "",
          "type": "uint256"
        }
      ],
      "stateMutability": "view",
      "type": "function"
    },
    {
      "inputs": [],
      "name": "baseURI",
      "outputs": [
        {
          "internalType": "string",
          "name": "",
          "type": "string"
        }
      ],
      "stateMutability": "view",
      "type": "function"
    },
    {
      "inputs": [
        {
          "internalType": "uint256",
          "name": "tokenId",
          "type": "uint256"
        }
      ],
      "name": "getApproved",
      "outputs": [
        {
          "internalType": "address",
          "name": "",
          "type": "address"
        }
      ],
      "stateMutability": "view",
      "type": "function"
    },
    {
      "inputs": [
        {
          "internalType": "address",
          "name": "owner",
          "type": "address"
        },
        {
          "internalType": "address",
          "name": "operator",
          "type": "address"
        }
      ],
      "name": "isApprovedForAll",
      "outputs": [
        {
          "internalType": "bool",
          "name": "",
          "type": "bool"
        }
      ],
      "stateMutability": "view",
      "type": "function"
    },
    {
      "inputs": [
        {
          "internalType": "address",
          "name": "to",
          "type": "address"
        },
        {
          "internalType": "uint256",
          "name": "num",
          "type": "uint256"
        }
      ],
      "name": "mint",
      "outputs": [],
      "stateMutability": "nonpayable",
      "type": "function"
    },
    {
      "inputs": [],
      "name": "name",
      "outputs": [
        {
          "internalType": "string",
          "name": "",
          "type": "string"
        }
      ],
      "stateMutability": "view",
      "type": "function"
    },
    {
      "inputs": [],
      "name": "owner",
      "outputs": [
        {
          "internalType": "address",
          "name": "",
          "type": "address"
        }
      ],
      "stateMutability": "view",
      "type": "function"
    },
    {
      "inputs": [
        {
          "internalType": "uint256",
          "name": "tokenId",
          "type": "uint256"
        }
      ],
      "name": "ownerOf",
      "outputs": [
        {
          "internalType": "address",
          "name": "",
          "type": "address"
        }
      ],
      "stateMutability": "view",
      "type": "function"
    },
    {
      "inputs": [],
      "name": "renounceOwnership",
      "outputs": [],
      "stateMutability": "nonpayable",
      "type": "function"
    },
    {
      "inputs": [
        {
          "internalType": "address",
          "name": "to",
          "type": "address"
        }
      ],
      "name": "safeMint",
      "outputs": [],
      "stateMutability": "nonpayable",
      "type": "function"
    },
    {
      "inputs": [
        {
          "internalType": "address",
          "name": "from",
          "type": "address"
        },
        {
          "internalType": "address",
          "name": "to",
          "type": "address"
        },
        {
          "internalType": "uint256",
          "name": "tokenId",
          "type": "uint256"
        }
      ],
      "name": "safeTransferFrom",
      "outputs": [],
      "stateMutability": "nonpayable",
      "type": "function"
    },
    {
      "inputs": [
        {
          "internalType": "address",
          "name": "from",
          "type": "address"
        },
        {
          "internalType": "address",
          "name": "to",
          "type": "address"
        },
        {
          "internalType": "uint256",
          "name": "tokenId",
          "type": "uint256"
        },
        {
          "internalType": "bytes",
          "name": "_data",
          "type": "bytes"
        }
      ],
      "name": "safeTransferFrom",
      "outputs": [],
      "stateMutability": "nonpayable",
      "type": "function"
    },
    {
      "inputs": [
        {
          "internalType": "address",
          "name": "operator",
          "type": "address"
        },
        {
          "internalType": "bool",
          "name": "approved",
          "type": "bool"
        }
      ],
      "name": "setApprovalForAll",
      "outputs": [],
      "stateMutability": "nonpayable",
      "type": "function"
    },
    {
      "inputs": [
        {
          "internalType": "bytes4",
          "name": "interfaceId",
          "type": "bytes4"
        }
      ],
      "name": "supportsInterface",
      "outputs": [
        {
          "internalType": "bool",
          "name": "",
          "type": "bool"
        }
      ],
      "stateMutability": "view",
      "type": "function"
    },
    {
      "inputs": [],
      "name": "symbol",
      "outputs": [
        {
          "internalType": "string",
          "name": "",
          "type": "string"
        }
      ],
      "stateMutability": "view",
      "type": "function"
    },
    {
      "inputs": [
        {
          "internalType": "uint256",
          "name": "tokenId",
          "type": "uint256"
        }
      ],
      "name": "tokenURI",
      "outputs": [
        {
          "internalType": "string",
          "name": "",
          "type": "string"
        }
      ],
      "stateMutability": "view",
      "type": "function"
    },
    {
      "inputs": [],
      "name": "totalSupply",
      "outputs": [
        {
          "internalType": "uint256",
          "name": "",
          "type": "uint256"
        }
      ],
      "stateMutability": "view",
      "type": "function"
    },
    {
      "inputs": [
        {
          "internalType": "address",
          "name": "from",
          "type": "address"
        },
        {
          "internalType": "address",
          "name": "to",
          "type": "address"
        },
        {
          "internalType": "uint256",
          "name": "tokenId",
          "type": "uint256"
        }
      ],
      "name": "transferFrom",
      "outputs": [],
      "stateMutability": "nonpayable",
      "type": "function"
    },
    {
      "inputs": [
        {
          "internalType": "address",
          "name": "newOwner",
          "type": "address"
        }
      ],
      "name": "transferOwnership",
      "outputs": [],
      "stateMutability": "nonpayable",
      "type": "function"
    }
  ],
  "transactionHash": "0x3de284a1e3a2cd7ce997b7de90845201639d4270254b1db53ed00f0496fed3f6",
  "args": [
    "0x793E92A30fdaD0AD4F6Bbc191729957Ae5aBb880",
    3
  ],
  "numDeployments": 1,
  "solcInputHash": "c0fe5b4e222fc1662477735d28af009f",
  "bytecode": "0x60e06040526025608081815290620029b860a039805162000029916008916020909101906200063f565b503480156200003757600080fd5b50604051620029fd380380620029fd8339810160408190526200005a91620006e5565b60408051808201825260078152664d65656269747360c81b602080830191825283518085019094526003845262e29a8760e81b908401528151919291620000a4916000916200063f565b508051620000ba9060019060208401906200063f565b505050620000d7620000d1620000eb60201b60201c565b620000ef565b620000e3828262000141565b50506200085b565b3390565b600680546001600160a01b038381166001600160a01b0319831681179093556040519116919082907f8be0079c531659141344cd1fd0a4f28419497f9722a3daafe3b4186f6b6457e090600090a35050565b60005b818110156200016d57620001588362000172565b80620001648162000827565b91505062000144565b505050565b60036200017f8262000254565b1115620001d35760405162461bcd60e51b815260206004820152601960248201527f6f776e657220636f756e74206f7574206f6620626f756e64730000000000000060448201526064015b60405180910390fd5b620001ea6007620002dd60201b62000e781760201c565b6000620002036007620002e660201b62000e811760201c565b9050612710811115620002445760405162461bcd60e51b815260206004820152600860248201526706f766572206361760c41b6044820152606401620001ca565b620002508282620002ea565b5050565b60006001600160a01b038216620002c15760405162461bcd60e51b815260206004820152602a60248201527f4552433732313a2062616c616e636520717565727920666f7220746865207a65604482015269726f206164647265737360b01b6064820152608401620001ca565b506001600160a01b031660009081526003602052604090205490565b80546001019055565b5490565b620002508282604051806020016040528060008152506200030c60201b60201c565b6200031883836200037f565b620003276000848484620004c7565b6200016d5760405162461bcd60e51b81526020600482015260326024820152600080516020620029dd83398151915260448201527131b2b4bb32b91034b6b83632b6b2b73a32b960711b6064820152608401620001ca565b6001600160a01b038216620003d75760405162461bcd60e51b815260206004820181905260248201527f4552433732313a206d696e7420746f20746865207a65726f20616464726573736044820152606401620001ca565b6000818152600260205260409020546001600160a01b0316156200043e5760405162461bcd60e51b815260206004820152601c60248201527f4552433732313a20746f6b656e20616c7265616479206d696e746564000000006044820152606401620001ca565b6001600160a01b038216600090815260036020526040812080546001929062000469908490620007cf565b909155505060008181526002602052604080822080546001600160a01b0319166001600160a01b03861690811790915590518392907fddf252ad1be2c89b69c2b068fc378daa952ba7f163c4a11628f55a4df523b3ef908290a45050565b6000620004e8846001600160a01b03166200063060201b62000e851760201c565b156200062457604051630a85bd0160e11b81526001600160a01b0385169063150b7a02906200052290339089908890889060040162000754565b602060405180830381600087803b1580156200053d57600080fd5b505af192505050801562000570575060408051601f3d908101601f191682019092526200056d9181019062000721565b60015b62000609573d808015620005a1576040519150601f19603f3d011682016040523d82523d6000602084013e620005a6565b606091505b508051620006015760405162461bcd60e51b81526020600482015260326024820152600080516020620029dd83398151915260448201527131b2b4bb32b91034b6b83632b6b2b73a32b960711b6064820152608401620001ca565b805181602001fd5b6001600160e01b031916630a85bd0160e11b14905062000628565b5060015b949350505050565b6001600160a01b03163b151590565b8280546200064d90620007ea565b90600052602060002090601f016020900481019282620006715760008555620006bc565b82601f106200068c57805160ff1916838001178555620006bc565b82800160010185558215620006bc579182015b82811115620006bc5782518255916020019190600101906200069f565b50620006ca929150620006ce565b5090565b5b80821115620006ca5760008155600101620006cf565b60008060408385031215620006f957600080fd5b82516001600160a01b03811681146200071157600080fd5b6020939093015192949293505050565b6000602082840312156200073457600080fd5b81516001600160e01b0319811681146200074d57600080fd5b9392505050565b600060018060a01b038087168352602081871681850152856040850152608060608501528451915081608085015260005b82811015620007a35785810182015185820160a00152810162000785565b82811115620007b657600060a084870101525b5050601f01601f19169190910160a00195945050505050565b60008219821115620007e557620007e562000845565b500190565b600181811c90821680620007ff57607f821691505b602082108114156200082157634e487b7160e01b600052602260045260246000fd5b50919050565b60006000198214156200083e576200083e62000845565b5060010190565b634e487b7160e01b600052601160045260246000fd5b61214d806200086b6000396000f3fe608060405234801561001057600080fd5b506004361061016c5760003560e01c80636c0360eb116100cd578063a22cb46511610081578063c87b56dd11610066578063c87b56dd146102df578063e985e9c5146102f2578063f2fde38b1461033b57600080fd5b8063a22cb465146102b9578063b88d4fde146102cc57600080fd5b8063715018a6116100b2578063715018a61461028b5780638da5cb5b1461029357806395d89b41146102b157600080fd5b80636c0360eb1461027057806370a082311461027857600080fd5b806323b872dd1161012457806340d097c31161010957806340d097c31461023757806342842e0e1461024a5780636352211e1461025d57600080fd5b806323b872dd1461021157806340c10f191461022457600080fd5b8063081812fc11610155578063081812fc146101ae578063095ea7b3146101e657806318160ddd146101fb57600080fd5b806301ffc9a71461017157806306fdde0314610199575b600080fd5b61018461017f366004611d2a565b61034e565b60405190151581526020015b60405180910390f35b6101a1610433565b6040516101909190611f0a565b6101c16101bc366004611d64565b6104c5565b60405173ffffffffffffffffffffffffffffffffffffffff9091168152602001610190565b6101f96101f4366004611d00565b6105a4565b005b610203610731565b604051908152602001610190565b6101f961021f366004611b8e565b610741565b6101f9610232366004611d00565b6107e2565b6101f9610245366004611b39565b610808565b6101f9610258366004611b8e565b610910565b6101c161026b366004611d64565b61092b565b6101a16109dd565b610203610286366004611b39565b610a6b565b6101f9610b39565b60065473ffffffffffffffffffffffffffffffffffffffff166101c1565b6101a1610bc6565b6101f96102c7366004611cc4565b610bd5565b6101f96102da366004611bca565b610be0565b6101a16102ed366004611d64565b610c88565b610184610300366004611b5b565b73ffffffffffffffffffffffffffffffffffffffff918216600090815260056020908152604080832093909416825291909152205460ff1690565b6101f9610349366004611b39565b610d48565b60007fffffffff0000000000000000000000000000000000000000000000000000000082167f80ac58cd0000000000000000000000000000000000000000000000000000000014806103e157507fffffffff0000000000000000000000000000000000000000000000000000000082167f5b5e139f00000000000000000000000000000000000000000000000000000000145b8061042d57507f01ffc9a7000000000000000000000000000000000000000000000000000000007fffffffff000000000000000000000000000000000000000000000000000000008316145b92915050565b60606000805461044290611f8c565b80601f016020809104026020016040519081016040528092919081815260200182805461046e90611f8c565b80156104bb5780601f10610490576101008083540402835291602001916104bb565b820191906000526020600020905b81548152906001019060200180831161049e57829003601f168201915b5050505050905090565b60008181526002602052604081205473ffffffffffffffffffffffffffffffffffffffff1661057b576040517f08c379a000000000000000000000000000000000000000000000000000000000815260206004820152602c60248201527f4552433732313a20617070726f76656420717565727920666f72206e6f6e657860448201527f697374656e7420746f6b656e000000000000000000000000000000000000000060648201526084015b60405180910390fd5b5060009081526004602052604090205473ffffffffffffffffffffffffffffffffffffffff1690565b60006105af8261092b565b90508073ffffffffffffffffffffffffffffffffffffffff168373ffffffffffffffffffffffffffffffffffffffff16141561066d576040517f08c379a000000000000000000000000000000000000000000000000000000000815260206004820152602160248201527f4552433732313a20617070726f76616c20746f2063757272656e74206f776e6560448201527f72000000000000000000000000000000000000000000000000000000000000006064820152608401610572565b3373ffffffffffffffffffffffffffffffffffffffff8216148061069657506106968133610300565b610722576040517f08c379a000000000000000000000000000000000000000000000000000000000815260206004820152603860248201527f4552433732313a20617070726f76652063616c6c6572206973206e6f74206f7760448201527f6e6572206e6f7220617070726f76656420666f7220616c6c00000000000000006064820152608401610572565b61072c8383610ea1565b505050565b600061073c60075490565b905090565b61074b3382610f41565b6107d7576040517f08c379a000000000000000000000000000000000000000000000000000000000815260206004820152603160248201527f4552433732313a207472616e736665722063616c6c6572206973206e6f74206f60448201527f776e6572206e6f7220617070726f7665640000000000000000000000000000006064820152608401610572565b61072c8383836110b1565b60005b8181101561072c576107f683610808565b8061080081611fe0565b9150506107e5565b600361081382610a6b565b111561087b576040517f08c379a000000000000000000000000000000000000000000000000000000000815260206004820152601960248201527f6f776e657220636f756e74206f7574206f6620626f756e6473000000000000006044820152606401610572565b610889600780546001019055565b600061089460075490565b9050612710811115610902576040517f08c379a000000000000000000000000000000000000000000000000000000000815260206004820152600860248201527f6f766572206361700000000000000000000000000000000000000000000000006044820152606401610572565b61090c8282611318565b5050565b61072c83838360405180602001604052806000815250610be0565b60008181526002602052604081205473ffffffffffffffffffffffffffffffffffffffff168061042d576040517f08c379a000000000000000000000000000000000000000000000000000000000815260206004820152602960248201527f4552433732313a206f776e657220717565727920666f72206e6f6e657869737460448201527f656e7420746f6b656e00000000000000000000000000000000000000000000006064820152608401610572565b600880546109ea90611f8c565b80601f0160208091040260200160405190810160405280929190818152602001828054610a1690611f8c565b8015610a635780601f10610a3857610100808354040283529160200191610a63565b820191906000526020600020905b815481529060010190602001808311610a4657829003601f168201915b505050505081565b600073ffffffffffffffffffffffffffffffffffffffff8216610b10576040517f08c379a000000000000000000000000000000000000000000000000000000000815260206004820152602a60248201527f4552433732313a2062616c616e636520717565727920666f7220746865207a6560448201527f726f2061646472657373000000000000000000000000000000000000000000006064820152608401610572565b5073ffffffffffffffffffffffffffffffffffffffff1660009081526003602052604090205490565b60065473ffffffffffffffffffffffffffffffffffffffff163314610bba576040517f08c379a000000000000000000000000000000000000000000000000000000000815260206004820181905260248201527f4f776e61626c653a2063616c6c6572206973206e6f7420746865206f776e65726044820152606401610572565b610bc46000611332565b565b60606001805461044290611f8c565b61090c3383836113a9565b610bea3383610f41565b610c76576040517f08c379a000000000000000000000000000000000000000000000000000000000815260206004820152603160248201527f4552433732313a207472616e736665722063616c6c6572206973206e6f74206f60448201527f776e6572206e6f7220617070726f7665640000000000000000000000000000006064820152608401610572565b610c82848484846114d7565b50505050565b60008181526002602052604090205460609073ffffffffffffffffffffffffffffffffffffffff16610d16576040517f08c379a000000000000000000000000000000000000000000000000000000000815260206004820152601160248201527f4e6f6e6578697374656e7420746f6b656e0000000000000000000000000000006044820152606401610572565b6008610d218361157a565b604051602001610d32929190611de3565b6040516020818303038152906040529050919050565b60065473ffffffffffffffffffffffffffffffffffffffff163314610dc9576040517f08c379a000000000000000000000000000000000000000000000000000000000815260206004820181905260248201527f4f776e61626c653a2063616c6c6572206973206e6f7420746865206f776e65726044820152606401610572565b73ffffffffffffffffffffffffffffffffffffffff8116610e6c576040517f08c379a000000000000000000000000000000000000000000000000000000000815260206004820152602660248201527f4f776e61626c653a206e6577206f776e657220697320746865207a65726f206160448201527f64647265737300000000000000000000000000000000000000000000000000006064820152608401610572565b610e7581611332565b50565b80546001019055565b5490565b73ffffffffffffffffffffffffffffffffffffffff163b151590565b600081815260046020526040902080547fffffffffffffffffffffffff00000000000000000000000000000000000000001673ffffffffffffffffffffffffffffffffffffffff84169081179091558190610efb8261092b565b73ffffffffffffffffffffffffffffffffffffffff167f8c5be1e5ebec7d5bd14f71427d1e84f3dd0314c0f7b2291e5b200ac8c7c3b92560405160405180910390a45050565b60008181526002602052604081205473ffffffffffffffffffffffffffffffffffffffff16610ff2576040517f08c379a000000000000000000000000000000000000000000000000000000000815260206004820152602c60248201527f4552433732313a206f70657261746f7220717565727920666f72206e6f6e657860448201527f697374656e7420746f6b656e00000000000000000000000000000000000000006064820152608401610572565b6000610ffd8361092b565b90508073ffffffffffffffffffffffffffffffffffffffff168473ffffffffffffffffffffffffffffffffffffffff16148061106c57508373ffffffffffffffffffffffffffffffffffffffff16611054846104c5565b73ffffffffffffffffffffffffffffffffffffffff16145b806110a9575073ffffffffffffffffffffffffffffffffffffffff80821660009081526005602090815260408083209388168352929052205460ff165b949350505050565b8273ffffffffffffffffffffffffffffffffffffffff166110d18261092b565b73ffffffffffffffffffffffffffffffffffffffff1614611174576040517f08c379a000000000000000000000000000000000000000000000000000000000815260206004820152602560248201527f4552433732313a207472616e736665722066726f6d20696e636f72726563742060448201527f6f776e65720000000000000000000000000000000000000000000000000000006064820152608401610572565b73ffffffffffffffffffffffffffffffffffffffff8216611216576040517f08c379a0000000000000000000000000000000000000000000000000000000008152602060048201526024808201527f4552433732313a207472616e7366657220746f20746865207a65726f2061646460448201527f72657373000000000000000000000000000000000000000000000000000000006064820152608401610572565b611221600082610ea1565b73ffffffffffffffffffffffffffffffffffffffff83166000908152600360205260408120805460019290611257908490611f49565b909155505073ffffffffffffffffffffffffffffffffffffffff82166000908152600360205260408120805460019290611292908490611f1d565b909155505060008181526002602052604080822080547fffffffffffffffffffffffff00000000000000000000000000000000000000001673ffffffffffffffffffffffffffffffffffffffff86811691821790925591518493918716917fddf252ad1be2c89b69c2b068fc378daa952ba7f163c4a11628f55a4df523b3ef91a4505050565b61090c8282604051806020016040528060008152506116ac565b6006805473ffffffffffffffffffffffffffffffffffffffff8381167fffffffffffffffffffffffff0000000000000000000000000000000000000000831681179093556040519116919082907f8be0079c531659141344cd1fd0a4f28419497f9722a3daafe3b4186f6b6457e090600090a35050565b8173ffffffffffffffffffffffffffffffffffffffff168373ffffffffffffffffffffffffffffffffffffffff16141561143f576040517f08c379a000000000000000000000000000000000000000000000000000000000815260206004820152601960248201527f4552433732313a20617070726f766520746f2063616c6c6572000000000000006044820152606401610572565b73ffffffffffffffffffffffffffffffffffffffff83811660008181526005602090815260408083209487168084529482529182902080547fffffffffffffffffffffffffffffffffffffffffffffffffffffffffffffff001686151590811790915591519182527f17307eab39ab6107e8899845ad3d59bd9653f200f220920489ca2b5937696c31910160405180910390a3505050565b6114e28484846110b1565b6114ee8484848461174f565b610c82576040517f08c379a000000000000000000000000000000000000000000000000000000000815260206004820152603260248201527f4552433732313a207472616e7366657220746f206e6f6e20455243373231526560448201527f63656976657220696d706c656d656e74657200000000000000000000000000006064820152608401610572565b6060816115ba57505060408051808201909152600181527f3000000000000000000000000000000000000000000000000000000000000000602082015290565b8160005b81156115e457806115ce81611fe0565b91506115dd9050600a83611f35565b91506115be565b60008167ffffffffffffffff8111156115ff576115ff6120ba565b6040519080825280601f01601f191660200182016040528015611629576020820181803683370190505b5090505b84156110a95761163e600183611f49565b915061164b600a86612019565b611656906030611f1d565b60f81b81838151811061166b5761166b61208b565b60200101907effffffffffffffffffffffffffffffffffffffffffffffffffffffffffffff1916908160001a9053506116a5600a86611f35565b945061162d565b6116b6838361194e565b6116c3600084848461174f565b61072c576040517f08c379a000000000000000000000000000000000000000000000000000000000815260206004820152603260248201527f4552433732313a207472616e7366657220746f206e6f6e20455243373231526560448201527f63656976657220696d706c656d656e74657200000000000000000000000000006064820152608401610572565b600073ffffffffffffffffffffffffffffffffffffffff84163b15611943576040517f150b7a0200000000000000000000000000000000000000000000000000000000815273ffffffffffffffffffffffffffffffffffffffff85169063150b7a02906117c6903390899088908890600401611ec1565b602060405180830381600087803b1580156117e057600080fd5b505af192505050801561182e575060408051601f3d9081017fffffffffffffffffffffffffffffffffffffffffffffffffffffffffffffffe016820190925261182b91810190611d47565b60015b6118f8573d80801561185c576040519150601f19603f3d011682016040523d82523d6000602084013e611861565b606091505b5080516118f0576040517f08c379a000000000000000000000000000000000000000000000000000000000815260206004820152603260248201527f4552433732313a207472616e7366657220746f206e6f6e20455243373231526560448201527f63656976657220696d706c656d656e74657200000000000000000000000000006064820152608401610572565b805181602001fd5b7fffffffff00000000000000000000000000000000000000000000000000000000167f150b7a02000000000000000000000000000000000000000000000000000000001490506110a9565b506001949350505050565b73ffffffffffffffffffffffffffffffffffffffff82166119cb576040517f08c379a000000000000000000000000000000000000000000000000000000000815260206004820181905260248201527f4552433732313a206d696e7420746f20746865207a65726f20616464726573736044820152606401610572565b60008181526002602052604090205473ffffffffffffffffffffffffffffffffffffffff1615611a57576040517f08c379a000000000000000000000000000000000000000000000000000000000815260206004820152601c60248201527f4552433732313a20746f6b656e20616c7265616479206d696e746564000000006044820152606401610572565b73ffffffffffffffffffffffffffffffffffffffff82166000908152600360205260408120805460019290611a8d908490611f1d565b909155505060008181526002602052604080822080547fffffffffffffffffffffffff00000000000000000000000000000000000000001673ffffffffffffffffffffffffffffffffffffffff861690811790915590518392907fddf252ad1be2c89b69c2b068fc378daa952ba7f163c4a11628f55a4df523b3ef908290a45050565b803573ffffffffffffffffffffffffffffffffffffffff81168114611b3457600080fd5b919050565b600060208284031215611b4b57600080fd5b611b5482611b10565b9392505050565b60008060408385031215611b6e57600080fd5b611b7783611b10565b9150611b8560208401611b10565b90509250929050565b600080600060608486031215611ba357600080fd5b611bac84611b10565b9250611bba60208501611b10565b9150604084013590509250925092565b60008060008060808587031215611be057600080fd5b611be985611b10565b9350611bf760208601611b10565b925060408501359150606085013567ffffffffffffffff80821115611c1b57600080fd5b818701915087601f830112611c2f57600080fd5b813581811115611c4157611c416120ba565b604051601f82017fffffffffffffffffffffffffffffffffffffffffffffffffffffffffffffffe0908116603f01168101908382118183101715611c8757611c876120ba565b816040528281528a6020848701011115611ca057600080fd5b82602086016020830137600060208483010152809550505050505092959194509250565b60008060408385031215611cd757600080fd5b611ce083611b10565b915060208301358015158114611cf557600080fd5b809150509250929050565b60008060408385031215611d1357600080fd5b611d1c83611b10565b946020939093013593505050565b600060208284031215611d3c57600080fd5b8135611b54816120e9565b600060208284031215611d5957600080fd5b8151611b54816120e9565b600060208284031215611d7657600080fd5b5035919050565b60008151808452611d95816020860160208601611f60565b601f017fffffffffffffffffffffffffffffffffffffffffffffffffffffffffffffffe0169290920160200192915050565b60008151611dd9818560208601611f60565b9290920192915050565b600080845481600182811c915080831680611dff57607f831692505b6020808410821415611e38577f4e487b710000000000000000000000000000000000000000000000000000000086526022600452602486fd5b818015611e4c5760018114611e7b57611ea8565b7fffffffffffffffffffffffffffffffffffffffffffffffffffffffffffffff00861689528489019650611ea8565b60008b81526020902060005b86811015611ea05781548b820152908501908301611e87565b505084890196505b505050505050611eb88185611dc7565b95945050505050565b600073ffffffffffffffffffffffffffffffffffffffff808716835280861660208401525083604083015260806060830152611f006080830184611d7d565b9695505050505050565b602081526000611b546020830184611d7d565b60008219821115611f3057611f3061202d565b500190565b600082611f4457611f4461205c565b500490565b600082821015611f5b57611f5b61202d565b500390565b60005b83811015611f7b578181015183820152602001611f63565b83811115610c825750506000910152565b600181811c90821680611fa057607f821691505b60208210811415611fda577f4e487b7100000000000000000000000000000000000000000000000000000000600052602260045260246000fd5b50919050565b60007fffffffffffffffffffffffffffffffffffffffffffffffffffffffffffffffff8214156120125761201261202d565b5060010190565b6000826120285761202861205c565b500690565b7f4e487b7100000000000000000000000000000000000000000000000000000000600052601160045260246000fd5b7f4e487b7100000000000000000000000000000000000000000000000000000000600052601260045260246000fd5b7f4e487b7100000000000000000000000000000000000000000000000000000000600052603260045260246000fd5b7f4e487b7100000000000000000000000000000000000000000000000000000000600052604160045260246000fd5b7fffffffff0000000000000000000000000000000000000000000000000000000081168114610e7557600080fdfea264697066735822122018fbd8ac8c7adf76e98b53e05fe9bc72e6b0925a89cbf2b7cc8e398388b775f564736f6c6343000806003368747470733a2f2f6d6565626974732e6c617276616c6162732e636f6d2f6d65656269742f4552433732313a207472616e7366657220746f206e6f6e204552433732315265",
  "devdoc": {
    "kind": "dev",
    "methods": {
      "approve(address,uint256)": {
        "details": "See {IERC721-approve}."
      },
      "balanceOf(address)": {
        "details": "See {IERC721-balanceOf}."
      },
      "getApproved(uint256)": {
        "details": "See {IERC721-getApproved}."
      },
      "isApprovedForAll(address,address)": {
        "details": "See {IERC721-isApprovedForAll}."
      },
      "name()": {
        "details": "See {IERC721Metadata-name}."
      },
      "owner()": {
        "details": "Returns the address of the current owner."
      },
      "ownerOf(uint256)": {
        "details": "See {IERC721-ownerOf}."
      },
      "renounceOwnership()": {
        "details": "Leaves the contract without owner. It will not be possible to call `onlyOwner` functions anymore. Can only be called by the current owner. NOTE: Renouncing ownership will leave the contract without an owner, thereby removing any functionality that is only available to the owner."
      },
      "safeTransferFrom(address,address,uint256)": {
        "details": "See {IERC721-safeTransferFrom}."
      },
      "safeTransferFrom(address,address,uint256,bytes)": {
        "details": "See {IERC721-safeTransferFrom}."
      },
      "setApprovalForAll(address,bool)": {
        "details": "See {IERC721-setApprovalForAll}."
      },
      "supportsInterface(bytes4)": {
        "details": "See {IERC165-supportsInterface}."
      },
      "symbol()": {
        "details": "See {IERC721Metadata-symbol}."
      },
      "tokenURI(uint256)": {
        "details": "See {IERC721Metadata-tokenURI}."
      },
      "transferFrom(address,address,uint256)": {
        "details": "See {IERC721-transferFrom}."
      },
      "transferOwnership(address)": {
        "details": "Transfers ownership of the contract to a new account (`newOwner`). Can only be called by the current owner."
      }
    },
    "version": 1
  },
  "userdoc": {
    "kind": "user",
    "methods": {},
    "version": 1
  },
  "storageLayout": {
    "storage": [
      {
        "astId": 3406,
        "contract": "contracts/tests/NFTs-ETH/EthMeebits.sol:EthMeebits",
        "label": "_name",
        "offset": 0,
        "slot": "0",
        "type": "t_string_storage"
      },
      {
        "astId": 3408,
        "contract": "contracts/tests/NFTs-ETH/EthMeebits.sol:EthMeebits",
        "label": "_symbol",
        "offset": 0,
        "slot": "1",
        "type": "t_string_storage"
      },
      {
        "astId": 3412,
        "contract": "contracts/tests/NFTs-ETH/EthMeebits.sol:EthMeebits",
        "label": "_owners",
        "offset": 0,
        "slot": "2",
        "type": "t_mapping(t_uint256,t_address)"
      },
      {
        "astId": 3416,
        "contract": "contracts/tests/NFTs-ETH/EthMeebits.sol:EthMeebits",
        "label": "_balances",
        "offset": 0,
        "slot": "3",
        "type": "t_mapping(t_address,t_uint256)"
      },
      {
        "astId": 3420,
        "contract": "contracts/tests/NFTs-ETH/EthMeebits.sol:EthMeebits",
        "label": "_tokenApprovals",
        "offset": 0,
        "slot": "4",
        "type": "t_mapping(t_uint256,t_address)"
      },
      {
        "astId": 3426,
        "contract": "contracts/tests/NFTs-ETH/EthMeebits.sol:EthMeebits",
        "label": "_operatorApprovals",
        "offset": 0,
        "slot": "5",
        "type": "t_mapping(t_address,t_mapping(t_address,t_bool))"
      },
      {
        "astId": 917,
        "contract": "contracts/tests/NFTs-ETH/EthMeebits.sol:EthMeebits",
        "label": "_owner",
        "offset": 0,
        "slot": "6",
        "type": "t_address"
      },
      {
        "astId": 18116,
        "contract": "contracts/tests/NFTs-ETH/EthMeebits.sol:EthMeebits",
        "label": "_tokenIdCounter",
        "offset": 0,
        "slot": "7",
        "type": "t_struct(Counter)4842_storage"
      },
      {
        "astId": 18119,
        "contract": "contracts/tests/NFTs-ETH/EthMeebits.sol:EthMeebits",
        "label": "baseURI",
        "offset": 0,
        "slot": "8",
        "type": "t_string_storage"
      }
    ],
    "types": {
      "t_address": {
        "encoding": "inplace",
        "label": "address",
        "numberOfBytes": "20"
      },
      "t_bool": {
        "encoding": "inplace",
        "label": "bool",
        "numberOfBytes": "1"
      },
      "t_mapping(t_address,t_bool)": {
        "encoding": "mapping",
        "key": "t_address",
        "label": "mapping(address => bool)",
        "numberOfBytes": "32",
        "value": "t_bool"
      },
      "t_mapping(t_address,t_mapping(t_address,t_bool))": {
        "encoding": "mapping",
        "key": "t_address",
        "label": "mapping(address => mapping(address => bool))",
        "numberOfBytes": "32",
        "value": "t_mapping(t_address,t_bool)"
      },
      "t_mapping(t_address,t_uint256)": {
        "encoding": "mapping",
        "key": "t_address",
        "label": "mapping(address => uint256)",
        "numberOfBytes": "32",
        "value": "t_uint256"
      },
      "t_mapping(t_uint256,t_address)": {
        "encoding": "mapping",
        "key": "t_uint256",
        "label": "mapping(uint256 => address)",
        "numberOfBytes": "32",
        "value": "t_address"
      },
      "t_string_storage": {
        "encoding": "bytes",
        "label": "string",
        "numberOfBytes": "32"
      },
      "t_struct(Counter)4842_storage": {
        "encoding": "inplace",
        "label": "struct Counters.Counter",
        "members": [
          {
            "astId": 4841,
            "contract": "contracts/tests/NFTs-ETH/EthMeebits.sol:EthMeebits",
            "label": "_value",
            "offset": 0,
            "slot": "0",
            "type": "t_uint256"
          }
        ],
        "numberOfBytes": "32"
      },
      "t_uint256": {
        "encoding": "inplace",
        "label": "uint256",
        "numberOfBytes": "32"
      }
    }
  }
}