{
  "address": "0xA4a24C339EE1561EFc2B5ED66E53f677a94817F9",
  "abi": [
    {
      "inputs": [
        {
          "internalType": "address[]",
          "name": "_acceptTokens",
          "type": "address[]"
        },
        {
          "internalType": "address",
          "name": "_recipient",
          "type": "address"
        },
        {
          "internalType": "uint256",
          "name": "_fee",
          "type": "uint256"
        },
        {
          "internalType": "contract ILucksExecutor",
          "name": "_executor",
          "type": "address"
        },
        {
          "internalType": "contract ILucksVRF",
          "name": "_vrf",
          "type": "address"
        },
        {
          "internalType": "contract ILucksGroup",
          "name": "_groups",
          "type": "address"
        },
        {
          "internalType": "contract ILucksPaymentStrategy",
          "name": "_strategy",
          "type": "address"
        },
        {
          "internalType": "contract ILucksAuto",
          "name": "_auto_close",
          "type": "address"
        },
        {
          "internalType": "contract ILucksAuto",
          "name": "_auto_draw",
          "type": "address"
        }
      ],
      "stateMutability": "nonpayable",
      "type": "constructor"
    },
    {
      "anonymous": false,
      "inputs": [
        {
          "indexed": true,
          "internalType": "address",
          "name": "previousOwner",
          "type": "address"
        },
        {
          "indexed": true,
          "internalType": "address",
          "name": "newOwner",
          "type": "address"
        }
      ],
      "name": "OwnershipTransferred",
      "type": "event"
    },
    {
      "inputs": [],
      "name": "AUTO_CLOSE",
      "outputs": [
        {
          "internalType": "contract ILucksAuto",
          "name": "",
          "type": "address"
        }
      ],
      "stateMutability": "view",
      "type": "function"
    },
    {
      "inputs": [],
      "name": "AUTO_DRAW",
      "outputs": [
        {
          "internalType": "contract ILucksAuto",
          "name": "",
          "type": "address"
        }
      ],
      "stateMutability": "view",
      "type": "function"
    },
    {
      "inputs": [],
      "name": "DRAW_DELAY_SEC",
      "outputs": [
        {
          "internalType": "uint32",
          "name": "",
          "type": "uint32"
        }
      ],
      "stateMutability": "view",
      "type": "function"
    },
    {
      "inputs": [],
      "name": "EXECUTOR",
      "outputs": [
        {
          "internalType": "contract ILucksExecutor",
          "name": "",
          "type": "address"
        }
      ],
      "stateMutability": "view",
      "type": "function"
    },
    {
      "inputs": [],
      "name": "GROUPS",
      "outputs": [
        {
          "internalType": "contract ILucksGroup",
          "name": "",
          "type": "address"
        }
      ],
      "stateMutability": "view",
      "type": "function"
    },
    {
      "inputs": [],
      "name": "MAX_PER_JOIN_NUM",
      "outputs": [
        {
          "internalType": "uint32",
          "name": "",
          "type": "uint32"
        }
      ],
      "stateMutability": "view",
      "type": "function"
    },
    {
      "inputs": [],
      "name": "STRATEGY",
      "outputs": [
        {
          "internalType": "contract ILucksPaymentStrategy",
          "name": "",
          "type": "address"
        }
      ],
      "stateMutability": "view",
      "type": "function"
    },
    {
      "inputs": [],
      "name": "VRF",
      "outputs": [
        {
          "internalType": "contract ILucksVRF",
          "name": "",
          "type": "address"
        }
      ],
      "stateMutability": "view",
      "type": "function"
    },
    {
      "inputs": [
        {
          "internalType": "address",
          "name": "",
          "type": "address"
        }
      ],
      "name": "acceptTokens",
      "outputs": [
        {
          "internalType": "bool",
          "name": "",
          "type": "bool"
        }
      ],
      "stateMutability": "view",
      "type": "function"
    },
    {
      "inputs": [
        {
          "internalType": "address",
          "name": "acceptToken",
          "type": "address"
        }
      ],
      "name": "checkAcceptToken",
      "outputs": [
        {
          "internalType": "bool",
          "name": "",
          "type": "bool"
        }
      ],
      "stateMutability": "view",
      "type": "function"
    },
    {
      "inputs": [
        {
          "internalType": "address",
          "name": "account",
          "type": "address"
        },
        {
          "internalType": "address",
          "name": "token",
          "type": "address"
        },
        {
          "internalType": "uint256",
          "name": "amount",
          "type": "uint256"
        }
      ],
      "name": "checkExclusive",
      "outputs": [
        {
          "internalType": "bool",
          "name": "",
          "type": "bool"
        }
      ],
      "stateMutability": "view",
      "type": "function"
    },
    {
      "inputs": [
        {
          "internalType": "address",
          "name": "user",
          "type": "address"
        },
        {
          "internalType": "uint256",
          "name": "taskId",
          "type": "uint256"
        },
        {
          "internalType": "uint32",
          "name": "num",
          "type": "uint32"
        },
        {
          "internalType": "string",
          "name": "note",
          "type": "string"
        }
      ],
      "name": "checkJoinTask",
      "outputs": [
        {
          "internalType": "bool",
          "name": "",
          "type": "bool"
        }
      ],
      "stateMutability": "view",
      "type": "function"
    },
    {
      "inputs": [
        {
          "internalType": "address",
          "name": "addr",
          "type": "address"
        }
      ],
      "name": "checkNFTContract",
      "outputs": [
        {
          "internalType": "bool",
          "name": "",
          "type": "bool"
        }
      ],
      "stateMutability": "view",
      "type": "function"
    },
    {
      "inputs": [
        {
          "internalType": "address",
          "name": "user",
          "type": "address"
        },
        {
          "components": [
            {
              "internalType": "address",
              "name": "seller",
              "type": "address"
            },
            {
              "internalType": "uint16",
              "name": "nftChainId",
              "type": "uint16"
            },
            {
              "internalType": "address",
              "name": "nftContract",
              "type": "address"
            },
            {
              "internalType": "uint256[]",
              "name": "tokenIds",
              "type": "uint256[]"
            },
            {
              "internalType": "uint256[]",
              "name": "tokenAmounts",
              "type": "uint256[]"
            },
            {
              "internalType": "address",
              "name": "acceptToken",
              "type": "address"
            },
            {
              "internalType": "enum TaskStatus",
              "name": "status",
              "type": "uint8"
            },
            {
              "internalType": "uint256",
              "name": "startTime",
              "type": "uint256"
            },
            {
              "internalType": "uint256",
              "name": "endTime",
              "type": "uint256"
            },
            {
              "internalType": "uint256",
              "name": "targetAmount",
              "type": "uint256"
            },
            {
              "internalType": "uint256",
              "name": "price",
              "type": "uint256"
            },
            {
              "internalType": "uint16",
              "name": "paymentStrategy",
              "type": "uint16"
            },
            {
              "components": [
                {
                  "internalType": "address",
                  "name": "token",
                  "type": "address"
                },
                {
                  "internalType": "uint256",
                  "name": "amount",
                  "type": "uint256"
                }
              ],
              "internalType": "struct ExclusiveToken",
              "name": "exclusiveToken",
              "type": "tuple"
            },
            {
              "internalType": "uint256",
              "name": "amountCollected",
              "type": "uint256"
            },
            {
              "internalType": "uint256",
              "name": "depositId",
              "type": "uint256"
            }
          ],
          "internalType": "struct TaskItem",
          "name": "item",
          "type": "tuple"
        }
      ],
      "name": "checkNewTask",
      "outputs": [
        {
          "internalType": "bool",
          "name": "",
          "type": "bool"
        }
      ],
      "stateMutability": "view",
      "type": "function"
    },
    {
      "inputs": [
        {
          "components": [
            {
              "internalType": "uint16",
              "name": "chainId",
              "type": "uint16"
            },
            {
              "internalType": "string",
              "name": "title",
              "type": "string"
            },
            {
              "internalType": "string",
              "name": "note",
              "type": "string"
            }
          ],
          "internalType": "struct TaskExt",
          "name": "ext",
          "type": "tuple"
        }
      ],
      "name": "checkNewTaskExt",
      "outputs": [
        {
          "internalType": "bool",
          "name": "",
          "type": "bool"
        }
      ],
      "stateMutability": "pure",
      "type": "function"
    },
    {
      "inputs": [
        {
          "components": [
            {
              "internalType": "address",
              "name": "seller",
              "type": "address"
            },
            {
              "internalType": "uint16",
              "name": "nftChainId",
              "type": "uint16"
            },
            {
              "internalType": "address",
              "name": "nftContract",
              "type": "address"
            },
            {
              "internalType": "uint256[]",
              "name": "tokenIds",
              "type": "uint256[]"
            },
            {
              "internalType": "uint256[]",
              "name": "tokenAmounts",
              "type": "uint256[]"
            },
            {
              "internalType": "address",
              "name": "acceptToken",
              "type": "address"
            },
            {
              "internalType": "enum TaskStatus",
              "name": "status",
              "type": "uint8"
            },
            {
              "internalType": "uint256",
              "name": "startTime",
              "type": "uint256"
            },
            {
              "internalType": "uint256",
              "name": "endTime",
              "type": "uint256"
            },
            {
              "internalType": "uint256",
              "name": "targetAmount",
              "type": "uint256"
            },
            {
              "internalType": "uint256",
              "name": "price",
              "type": "uint256"
            },
            {
              "internalType": "uint16",
              "name": "paymentStrategy",
              "type": "uint16"
            },
            {
              "components": [
                {
                  "internalType": "address",
                  "name": "token",
                  "type": "address"
                },
                {
                  "internalType": "uint256",
                  "name": "amount",
                  "type": "uint256"
                }
              ],
              "internalType": "struct ExclusiveToken",
              "name": "exclusiveToken",
              "type": "tuple"
            },
            {
              "internalType": "uint256",
              "name": "amountCollected",
              "type": "uint256"
            },
            {
              "internalType": "uint256",
              "name": "depositId",
              "type": "uint256"
            }
          ],
          "internalType": "struct TaskItem",
          "name": "item",
          "type": "tuple"
        }
      ],
      "name": "checkNewTaskRemote",
      "outputs": [
        {
          "internalType": "bool",
          "name": "",
          "type": "bool"
        }
      ],
      "stateMutability": "view",
      "type": "function"
    },
    {
      "inputs": [
        {
          "internalType": "uint32",
          "name": "num",
          "type": "uint32"
        }
      ],
      "name": "checkPerJoinLimit",
      "outputs": [
        {
          "internalType": "bool",
          "name": "",
          "type": "bool"
        }
      ],
      "stateMutability": "view",
      "type": "function"
    },
    {
      "inputs": [
        {
          "internalType": "address",
          "name": "addr",
          "type": "address"
        },
        {
          "internalType": "address",
          "name": "seller",
          "type": "address"
        },
        {
          "internalType": "uint256[]",
          "name": "tokenIds",
          "type": "uint256[]"
        },
        {
          "internalType": "uint256[]",
          "name": "amounts",
          "type": "uint256[]"
        }
      ],
      "name": "checkTokenListing",
      "outputs": [
        {
          "internalType": "bool",
          "name": "",
          "type": "bool"
        },
        {
          "internalType": "string",
          "name": "",
          "type": "string"
        }
      ],
      "stateMutability": "view",
      "type": "function"
    },
    {
      "inputs": [],
      "name": "feeRecipient",
      "outputs": [
        {
          "internalType": "address",
          "name": "",
          "type": "address"
        }
      ],
      "stateMutability": "view",
      "type": "function"
    },
    {
      "inputs": [],
      "name": "getAutoClose",
      "outputs": [
        {
          "internalType": "contract ILucksAuto",
          "name": "",
          "type": "address"
        }
      ],
      "stateMutability": "view",
      "type": "function"
    },
    {
      "inputs": [],
      "name": "getAutoDraw",
      "outputs": [
        {
          "internalType": "contract ILucksAuto",
          "name": "",
          "type": "address"
        }
      ],
      "stateMutability": "view",
      "type": "function"
    },
    {
      "inputs": [],
      "name": "getDrawDelay",
      "outputs": [
        {
          "internalType": "uint32",
          "name": "",
          "type": "uint32"
        }
      ],
      "stateMutability": "view",
      "type": "function"
    },
    {
      "inputs": [],
      "name": "getGROUPS",
      "outputs": [
        {
          "internalType": "contract ILucksGroup",
          "name": "",
          "type": "address"
        }
      ],
      "stateMutability": "view",
      "type": "function"
    },
    {
      "inputs": [
        {
          "internalType": "address",
          "name": "token",
          "type": "address"
        }
      ],
      "name": "getMinTargetLimit",
      "outputs": [
        {
          "internalType": "uint256",
          "name": "",
          "type": "uint256"
        }
      ],
      "stateMutability": "view",
      "type": "function"
    },
    {
      "inputs": [],
      "name": "getProtocolFee",
      "outputs": [
        {
          "internalType": "uint256",
          "name": "",
          "type": "uint256"
        }
      ],
      "stateMutability": "view",
      "type": "function"
    },
    {
      "inputs": [],
      "name": "getProtocolFeeRecipient",
      "outputs": [
        {
          "internalType": "address",
          "name": "",
          "type": "address"
        }
      ],
      "stateMutability": "view",
      "type": "function"
    },
    {
      "inputs": [],
      "name": "getSTRATEGY",
      "outputs": [
        {
          "internalType": "contract ILucksPaymentStrategy",
          "name": "",
          "type": "address"
        }
      ],
      "stateMutability": "view",
      "type": "function"
    },
    {
      "inputs": [],
      "name": "getVRF",
      "outputs": [
        {
          "internalType": "contract ILucksVRF",
          "name": "",
          "type": "address"
        }
      ],
      "stateMutability": "view",
      "type": "function"
    },
    {
      "inputs": [
        {
          "internalType": "address",
          "name": "",
          "type": "address"
        }
      ],
      "name": "minTargetAmount",
      "outputs": [
        {
          "internalType": "uint256",
          "name": "",
          "type": "uint256"
        }
      ],
      "stateMutability": "view",
      "type": "function"
    },
    {
      "inputs": [
        {
          "internalType": "address",
          "name": "",
          "type": "address"
        }
      ],
      "name": "operators",
      "outputs": [
        {
          "internalType": "bool",
          "name": "",
          "type": "bool"
        }
      ],
      "stateMutability": "view",
      "type": "function"
    },
    {
      "inputs": [],
      "name": "owner",
      "outputs": [
        {
          "internalType": "address",
          "name": "",
          "type": "address"
        }
      ],
      "stateMutability": "view",
      "type": "function"
    },
    {
      "inputs": [],
      "name": "protocolFee",
      "outputs": [
        {
          "internalType": "uint256",
          "name": "",
          "type": "uint256"
        }
      ],
      "stateMutability": "view",
      "type": "function"
    },
    {
      "inputs": [],
      "name": "renounceOwnership",
      "outputs": [],
      "stateMutability": "nonpayable",
      "type": "function"
    },
    {
      "inputs": [
        {
          "internalType": "address[]",
          "name": "tokens",
          "type": "address[]"
        },
        {
          "internalType": "bool",
          "name": "enable",
          "type": "bool"
        }
      ],
      "name": "setAcceptTokens",
      "outputs": [],
      "stateMutability": "nonpayable",
      "type": "function"
    },
    {
      "inputs": [
        {
          "internalType": "uint32",
          "name": "second",
          "type": "uint32"
        }
      ],
      "name": "setDrawDelay",
      "outputs": [],
      "stateMutability": "nonpayable",
      "type": "function"
    },
    {
      "inputs": [
        {
          "internalType": "uint32",
          "name": "num",
          "type": "uint32"
        }
      ],
      "name": "setJoinLimitNum",
      "outputs": [],
      "stateMutability": "nonpayable",
      "type": "function"
    },
    {
      "inputs": [
        {
          "internalType": "contract ILucksAuto",
          "name": "_auto_close",
          "type": "address"
        },
        {
          "internalType": "contract ILucksAuto",
          "name": "_auto_draw",
          "type": "address"
        }
      ],
      "name": "setLucksAuto",
      "outputs": [],
      "stateMutability": "nonpayable",
      "type": "function"
    },
    {
      "inputs": [
        {
          "internalType": "contract ILucksGroup",
          "name": "addr",
          "type": "address"
        }
      ],
      "name": "setLucksGroup",
      "outputs": [],
      "stateMutability": "nonpayable",
      "type": "function"
    },
    {
      "inputs": [
        {
          "internalType": "contract ILucksVRF",
          "name": "addr",
          "type": "address"
        }
      ],
      "name": "setLucksVRF",
      "outputs": [],
      "stateMutability": "nonpayable",
      "type": "function"
    },
    {
      "inputs": [
        {
          "internalType": "address[]",
          "name": "tokens",
          "type": "address[]"
        },
        {
          "internalType": "uint256[]",
          "name": "amounts",
          "type": "uint256[]"
        }
      ],
      "name": "setMinTargetAmount",
      "outputs": [],
      "stateMutability": "nonpayable",
      "type": "function"
    },
    {
      "inputs": [
        {
          "internalType": "address",
          "name": "addr",
          "type": "address"
        },
        {
          "internalType": "bool",
          "name": "enable",
          "type": "bool"
        }
      ],
      "name": "setOperator",
      "outputs": [],
      "stateMutability": "nonpayable",
      "type": "function"
    },
    {
      "inputs": [
        {
          "internalType": "contract ILucksPaymentStrategy",
          "name": "addr",
          "type": "address"
        }
      ],
      "name": "setPaymentStrategy",
      "outputs": [],
      "stateMutability": "nonpayable",
      "type": "function"
    },
    {
      "inputs": [
        {
          "internalType": "uint256",
          "name": "fee",
          "type": "uint256"
        }
      ],
      "name": "setProtocolFee",
      "outputs": [],
      "stateMutability": "nonpayable",
      "type": "function"
    },
    {
      "inputs": [
        {
          "internalType": "address",
          "name": "addr",
          "type": "address"
        }
      ],
      "name": "setProtocolFeeRecipient",
      "outputs": [],
      "stateMutability": "nonpayable",
      "type": "function"
    },
    {
      "inputs": [
        {
          "internalType": "address",
          "name": "newOwner",
          "type": "address"
        }
      ],
      "name": "transferOwnership",
      "outputs": [],
      "stateMutability": "nonpayable",
      "type": "function"
    }
  ],
  "transactionHash": "0x4c2fd0af42e8b08fec9084add67aefa653041431a0b94010f19b9feba49f6c9d",
  "args": [
    [
      "0x0000000000000000000000000000000000000000"
    ],
    "0x5b770F460978C456d69bC46463dfda71FEEE60AD",
    200,
    "0x7AC99e83a9D05C9aB7a7d9A61844622F6509DC6e",
    "0x0000000000000000000000000000000000000000",
    "0x0000000000000000000000000000000000000000",
    "0x0000000000000000000000000000000000000000",
    "0x0000000000000000000000000000000000000000",
    "0x0000000000000000000000000000000000000000"
  ],
  "numDeployments": 1,
  "solcInputHash": "c901f1a063d05d2c0029f9800f4d2c88",
  "bytecode": "0x608060405260078054600160a01b600160e01b03191664078000027160a41b17905560c86008553480156200003357600080fd5b5060405162003a8b38038062003a8b833981016040819052620000569162000239565b6200006133620000f0565b600780546001600160a01b03199081166001600160a01b038b811691909117909255600889905560018054821689841617815560028054831689851617905560038054831688851617905560048054831687851617905560058054831686851617905560068054909216928416929092179055620000e1908a9062000140565b505050505050505050620003fe565b600080546001600160a01b038381166001600160a01b0319831681178455604051919092169283917f8be0079c531659141344cd1fd0a4f28419497f9722a3daafe3b4186f6b6457e09190a35050565b6000546001600160a01b03163314806200016957503360009081526009602052604090205460ff165b620001a95760405162461bcd60e51b815260206004820152600c60248201526b37b7363ca7b832b930ba37b960a11b604482015260640160405180910390fd5b60005b8251811015620002175781600a6000858481518110620001d057620001d0620003d2565b6020908102919091018101516001600160a01b03168252810191909152604001600020805460ff1916911515919091179055806200020e81620003a8565b915050620001ac565b505050565b80516001600160a01b03811681146200023457600080fd5b919050565b60008060008060008060008060006101208a8c0312156200025957600080fd5b89516001600160401b03808211156200027157600080fd5b818c0191508c601f8301126200028657600080fd5b8151818111156200029b576200029b620003e8565b604051601f19603f8360051b011681018181108482111715620002c257620002c2620003e8565b8060405250809250818152602081019250602084018f60208460051b8701011115620002ed57600080fd5b600094505b828510156200031c5762000306816200021c565b84526001949094019360209384019301620002f2565b509b50620003319250505060208b016200021c565b975060408a015196506200034860608b016200021c565b95506200035860808b016200021c565b94506200036860a08b016200021c565b93506200037860c08b016200021c565b92506200038860e08b016200021c565b9150620003996101008b016200021c565b90509295985092959850929598565b6000600019821415620003cb57634e487b7160e01b600052601160045260246000fd5b5060010190565b634e487b7160e01b600052603260045260246000fd5b634e487b7160e01b600052604160045260246000fd5b61367d806200040e6000396000f3fe608060405234801561001057600080fd5b50600436106102ff5760003560e01c80637f994c191161019c578063b19e035f116100ee578063d48ed1a511610097578063e7e46def11610071578063e7e46def146107c3578063edd3159d146107d6578063f2fde38b146107f457600080fd5b8063d48ed1a514610771578063e521cb9214610784578063e67aa0d11461079757600080fd5b8063d12c51f8116100c8578063d12c51f81461070e578063d3a01b0a1461072e578063d45d76b31461074e57600080fd5b8063b19e035f146106ca578063c735fd74146106e8578063cb9b4e12146106fb57600080fd5b80639861b7b111610150578063a126285b1161012a578063a126285b14610699578063a5a41031146106b9578063b0e21e8a146106c157600080fd5b80639861b7b1146106605780639b7ed979146106735780639ef4fdd51461068657600080fd5b80638859e523116101815780638859e523146106115780638da5cb5b1461062457806393f1c9111461064257600080fd5b80637f994c19146105b0578063873360d7146105e957600080fd5b8063350a9e43116102555780636896c5ce11610209578063770ee870116101e3578063770ee8701461056a578063787dce3d1461058a5780637a6bbf181461059d57600080fd5b80636896c5ce14610524578063715018a61461054457806372c8fc0e1461054c57600080fd5b8063469048401161023a57806346904840146104d1578063558a7297146104f1578063630dc7cb1461050457600080fd5b8063350a9e431461047a578063375a32be1461048d57600080fd5b806319af3253116102b75780631e07dbb8116102915780631e07dbb81461042b578063239619751461043e5780633156a58d1461045c57600080fd5b806319af3253146103bc5780631a44f03a146103f75780631a88f8fc1461040a57600080fd5b806313e7c9d8116102e857806313e7c9d8146103415780631750518c14610364578063185025ef1461037757600080fd5b806305b84a7d146103045780630990a98214610319575b600080fd5b610317610312366004612de6565b610807565b005b61032c6103273660046130bd565b6108ee565b60405190151581526020015b60405180910390f35b61032c61034f366004612de6565b60096020526000908152604090205460ff1681565b61032c610372366004612f23565b6109da565b6004546103979073ffffffffffffffffffffffffffffffffffffffff1681565b60405173ffffffffffffffffffffffffffffffffffffffff9091168152602001610338565b6007547801000000000000000000000000000000000000000000000000900463ffffffff165b60405163ffffffff9091168152602001610338565b610317610405366004612de6565b610e30565b61041d610418366004612e20565b610f12565b6040516103389291906133c3565b61031761043936600461333d565b6113c6565b60055473ffffffffffffffffffffffffffffffffffffffff16610397565b60065473ffffffffffffffffffffffffffffffffffffffff16610397565b610317610488366004612de6565b6114b0565b6104c361049b366004612de6565b73ffffffffffffffffffffffffffffffffffffffff166000908152600b602052604090205490565b604051908152602001610338565b6007546103979073ffffffffffffffffffffffffffffffffffffffff1681565b6103176104ff366004612eea565b611592565b6001546103979073ffffffffffffffffffffffffffffffffffffffff1681565b6005546103979073ffffffffffffffffffffffffffffffffffffffff1681565b610317611669565b60075473ffffffffffffffffffffffffffffffffffffffff16610397565b6104c3610578366004612de6565b600b6020526000908152604090205481565b61031761059836600461330b565b6116f6565b6103176105ab36600461333d565b61177c565b61032c6105be366004612de6565b73ffffffffffffffffffffffffffffffffffffffff166000908152600a602052604090205460ff1690565b6007546103e29074010000000000000000000000000000000000000000900463ffffffff1681565b61032c61061f366004612de6565b61186a565b60005473ffffffffffffffffffffffffffffffffffffffff16610397565b60045473ffffffffffffffffffffffffffffffffffffffff16610397565b61032c61066e36600461333d565b611af3565b61031761068136600461308f565b611b50565b61032c610694366004612ea9565b611c3e565b6002546103979073ffffffffffffffffffffffffffffffffffffffff1681565b6008546104c3565b6104c360085481565b60035473ffffffffffffffffffffffffffffffffffffffff16610397565b61032c6106f6366004613177565b611e3a565b61031761070936600461302b565b612038565b6003546103979073ffffffffffffffffffffffffffffffffffffffff1681565b6006546103979073ffffffffffffffffffffffffffffffffffffffff1681565b61032c61075c366004612de6565b600a6020526000908152604090205460ff1681565b61031761077f366004612fd1565b61216a565b610317610792366004612de6565b61229a565b6007546103e2907801000000000000000000000000000000000000000000000000900463ffffffff1681565b61032c6107d1366004612f73565b612362565b60025473ffffffffffffffffffffffffffffffffffffffff16610397565b610317610802366004612de6565b612879565b60005473ffffffffffffffffffffffffffffffffffffffff1633148061083c57503360009081526009602052604090205460ff165b6108a7576040517f08c379a000000000000000000000000000000000000000000000000000000000815260206004820152600c60248201527f6f6e6c794f70657261746f72000000000000000000000000000000000000000060448201526064015b60405180910390fd5b600380547fffffffffffffffffffffffff00000000000000000000000000000000000000001673ffffffffffffffffffffffffffffffffffffffff92909216919091179055565b60006101008260200151511115610961576040517f08c379a000000000000000000000000000000000000000000000000000000000815260206004820152601160248201527f496e76616c696420657874207469746c65000000000000000000000000000000604482015260640161089e565b61010082604001515111156109d2576040517f08c379a000000000000000000000000000000000000000000000000000000000815260206004820152601060248201527f496e76616c696420657874206e6f746500000000000000000000000000000000604482015260640161089e565b506001919050565b805160009073ffffffffffffffffffffffffffffffffffffffff1615801590610a3257508273ffffffffffffffffffffffffffffffffffffffff16826000015173ffffffffffffffffffffffffffffffffffffffff16145b610a98576040517f08c379a000000000000000000000000000000000000000000000000000000000815260206004820152601660248201527f496e76616c69642073656c6c6572206164647265737300000000000000000000604482015260640161089e565b6000826020015161ffff1611610b0a576040517f08c379a000000000000000000000000000000000000000000000000000000000815260206004820152601260248201527f496e76616c6964206e6674436861696e49640000000000000000000000000000604482015260640161089e565b600082606001515111610b79576040517f08c379a000000000000000000000000000000000000000000000000000000000815260206004820152600e60248201527f456d70747920746f6b656e496473000000000000000000000000000000000000604482015260640161089e565b8161010001514210610be7576040517f08c379a000000000000000000000000000000000000000000000000000000000815260206004820152601260248201527f496e76616c69642074696d652072616e67650000000000000000000000000000604482015260640161089e565b62014a7842836101000151610bfc91906134ee565b11610c63576040517f08c379a000000000000000000000000000000000000000000000000000000000815260206004820152601260248201527f4475726174696f6e20746f6f2073686f72740000000000000000000000000000604482015260640161089e565b6000826101400151118015610c815750816101200151826101400151105b610ce7576040517f08c379a000000000000000000000000000000000000000000000000000000000815260206004820152601d60248201527f496e76616c6964207072696365206f7220746172676574416d6f756e74000000604482015260640161089e565b6101a082015115610d54576040517f08c379a000000000000000000000000000000000000000000000000000000000815260206004820152601760248201527f496e76616c696420616d6f756e74436f6c6c6563746564000000000000000000604482015260640161089e565b610d61826040015161186a565b610dc7576040517f08c379a000000000000000000000000000000000000000000000000000000000815260206004820152601360248201527f496e76616c6964206e6674436f6e747261637400000000000000000000000000604482015260640161089e565b600080610de68460400151856000015186606001518760800151610f12565b91509150818190610e24576040517f08c379a000000000000000000000000000000000000000000000000000000000815260040161089e91906133de565b50600195945050505050565b60005473ffffffffffffffffffffffffffffffffffffffff16331480610e6557503360009081526009602052604090205460ff165b610ecb576040517f08c379a000000000000000000000000000000000000000000000000000000000815260206004820152600c60248201527f6f6e6c794f70657261746f720000000000000000000000000000000000000000604482015260640161089e565b600480547fffffffffffffffffffffffff00000000000000000000000000000000000000001673ffffffffffffffffffffffffffffffffffffffff92909216919091179055565b6040517f01ffc9a70000000000000000000000000000000000000000000000000000000081527f80ac58cd00000000000000000000000000000000000000000000000000000000600482015260009060609073ffffffffffffffffffffffffffffffffffffffff8716906301ffc9a79060240160206040518083038186803b158015610f9d57600080fd5b505afa158015610fb1573d6000803e3d6000fd5b505050506040513d601f19601f82011682018060405250810190610fd59190613072565b156111135760005b845181101561110d578573ffffffffffffffffffffffffffffffffffffffff168773ffffffffffffffffffffffffffffffffffffffff16636352211e87848151811061102b5761102b61359c565b60200260200101516040518263ffffffff1660e01b815260040161105191815260200190565b60206040518083038186803b15801561106957600080fd5b505afa15801561107d573d6000803e3d6000fd5b505050506040513d601f19601f820116820180604052508101906110a19190612e03565b73ffffffffffffffffffffffffffffffffffffffff16146110fb57505060408051808201909152601981527f546f6b656e206c6973746564206f72206e6f74206f776e6572000000000000006020820152600091506113bd565b8061110581613505565b915050610fdd565b506113a8565b6040517f01ffc9a70000000000000000000000000000000000000000000000000000000081527fd9b67a2600000000000000000000000000000000000000000000000000000000600482015273ffffffffffffffffffffffffffffffffffffffff8716906301ffc9a79060240160206040518083038186803b15801561119857600080fd5b505afa1580156111ac573d6000803e3d6000fd5b505050506040513d601f19601f820116820180604052508101906111d09190613072565b156113a8578251845114611240576040517f08c379a000000000000000000000000000000000000000000000000000000000815260206004820152600f60248201527f496e76616c696420696473206c656e0000000000000000000000000000000000604482015260640161089e565b60005b84518110156113a65783818151811061125e5761125e61359c565b60200260200101518773ffffffffffffffffffffffffffffffffffffffff1662fdd58e888885815181106112945761129461359c565b60200260200101516040518363ffffffff1660e01b81526004016112da92919073ffffffffffffffffffffffffffffffffffffffff929092168252602082015260400190565b60206040518083038186803b1580156112f257600080fd5b505afa158015611306573d6000803e3d6000fd5b505050506040513d601f19601f8201168201806040525081019061132a9190613324565b10158015611351575060008482815181106113475761134761359c565b6020026020010151115b61139457505060408051808201909152601981527f496e76616c696420616d6f756e74206f722062616c616e6365000000000000006020820152600091506113bd565b8061139e81613505565b915050611243565b505b50506040805160208101909152600081526001905b94509492505050565b60005473ffffffffffffffffffffffffffffffffffffffff163314806113fb57503360009081526009602052604090205460ff165b611461576040517f08c379a000000000000000000000000000000000000000000000000000000000815260206004820152600c60248201527f6f6e6c794f70657261746f720000000000000000000000000000000000000000604482015260640161089e565b6007805463ffffffff90921674010000000000000000000000000000000000000000027fffffffffffffffff00000000ffffffffffffffffffffffffffffffffffffffff909216919091179055565b60005473ffffffffffffffffffffffffffffffffffffffff163314806114e557503360009081526009602052604090205460ff165b61154b576040517f08c379a000000000000000000000000000000000000000000000000000000000815260206004820152600c60248201527f6f6e6c794f70657261746f720000000000000000000000000000000000000000604482015260640161089e565b600280547fffffffffffffffffffffffff00000000000000000000000000000000000000001673ffffffffffffffffffffffffffffffffffffffff92909216919091179055565b60005473ffffffffffffffffffffffffffffffffffffffff163314611613576040517f08c379a000000000000000000000000000000000000000000000000000000000815260206004820181905260248201527f4f776e61626c653a2063616c6c6572206973206e6f7420746865206f776e6572604482015260640161089e565b73ffffffffffffffffffffffffffffffffffffffff91909116600090815260096020526040902080547fffffffffffffffffffffffffffffffffffffffffffffffffffffffffffffff0016911515919091179055565b60005473ffffffffffffffffffffffffffffffffffffffff1633146116ea576040517f08c379a000000000000000000000000000000000000000000000000000000000815260206004820181905260248201527f4f776e61626c653a2063616c6c6572206973206e6f7420746865206f776e6572604482015260640161089e565b6116f460006129a9565b565b60005473ffffffffffffffffffffffffffffffffffffffff163314611777576040517f08c379a000000000000000000000000000000000000000000000000000000000815260206004820181905260248201527f4f776e61626c653a2063616c6c6572206973206e6f7420746865206f776e6572604482015260640161089e565b600855565b60005473ffffffffffffffffffffffffffffffffffffffff163314806117b157503360009081526009602052604090205460ff165b611817576040517f08c379a000000000000000000000000000000000000000000000000000000000815260206004820152600c60248201527f6f6e6c794f70657261746f720000000000000000000000000000000000000000604482015260640161089e565b6007805463ffffffff9092167801000000000000000000000000000000000000000000000000027fffffffff00000000ffffffffffffffffffffffffffffffffffffffffffffffff909216919091179055565b600073ffffffffffffffffffffffffffffffffffffffff8216158015906118a7575073ffffffffffffffffffffffffffffffffffffffff82163b15155b61190d576040517f08c379a000000000000000000000000000000000000000000000000000000000815260206004820152601360248201527f496e76616c6964206e6674436f6e747261637400000000000000000000000000604482015260640161089e565b6040517f01ffc9a70000000000000000000000000000000000000000000000000000000081527f80ac58cd00000000000000000000000000000000000000000000000000000000600482015273ffffffffffffffffffffffffffffffffffffffff8316906301ffc9a79060240160206040518083038186803b15801561199257600080fd5b505afa1580156119a6573d6000803e3d6000fd5b505050506040513d601f19601f820116820180604052508101906119ca9190613072565b80611a8d57506040517f01ffc9a70000000000000000000000000000000000000000000000000000000081527fd9b67a2600000000000000000000000000000000000000000000000000000000600482015273ffffffffffffffffffffffffffffffffffffffff8316906301ffc9a79060240160206040518083038186803b158015611a5557600080fd5b505afa158015611a69573d6000803e3d6000fd5b505050506040513d601f19601f82011682018060405250810190611a8d9190613072565b6109d2576040517f08c379a000000000000000000000000000000000000000000000000000000000815260206004820152601060248201527f496e76616c696420636f6e747261637400000000000000000000000000000000604482015260640161089e565b60075460009060017401000000000000000000000000000000000000000090910463ffffffff161080611b4a575060075463ffffffff74010000000000000000000000000000000000000000909104811690831611155b92915050565b60005473ffffffffffffffffffffffffffffffffffffffff16331480611b8557503360009081526009602052604090205460ff165b611beb576040517f08c379a000000000000000000000000000000000000000000000000000000000815260206004820152600c60248201527f6f6e6c794f70657261746f720000000000000000000000000000000000000000604482015260640161089e565b6005805473ffffffffffffffffffffffffffffffffffffffff9384167fffffffffffffffffffffffff00000000000000000000000000000000000000009182161790915560068054929093169116179055565b60008082118015611c65575073ffffffffffffffffffffffffffffffffffffffff83163b15155b15611e2f576040517f01ffc9a70000000000000000000000000000000000000000000000000000000081527f80ac58cd00000000000000000000000000000000000000000000000000000000600482015273ffffffffffffffffffffffffffffffffffffffff8416906301ffc9a79060240160206040518083038186803b158015611cef57600080fd5b505afa158015611d03573d6000803e3d6000fd5b505050506040513d601f19601f82011682018060405250810190611d279190613072565b15611dd8576040517f70a0823100000000000000000000000000000000000000000000000000000000815273ffffffffffffffffffffffffffffffffffffffff85811660048301528391908516906370a08231906024015b60206040518083038186803b158015611d9757600080fd5b505afa158015611dab573d6000803e3d6000fd5b505050506040513d601f19601f82011682018060405250810190611dcf9190613324565b10159050611e33565b6040517f70a0823100000000000000000000000000000000000000000000000000000000815273ffffffffffffffffffffffffffffffffffffffff85811660048301528391908516906370a0823190602401611d7f565b5060015b9392505050565b6101808101515160009073ffffffffffffffffffffffffffffffffffffffff1615801590611e715750600082610180015160200151115b15611efa576101808201515173ffffffffffffffffffffffffffffffffffffffff163b611efa576040517f08c379a000000000000000000000000000000000000000000000000000000000815260206004820152601660248201527f496e76616c6964206578636c7573697665546f6b656e00000000000000000000604482015260640161089e565b60a082015173ffffffffffffffffffffffffffffffffffffffff166000908152600a602052604090205460ff16611f8d576040517f08c379a000000000000000000000000000000000000000000000000000000000815260206004820152601760248201527f556e737570706f7274656420616363657074546f6b656e000000000000000000604482015260640161089e565b60a082015173ffffffffffffffffffffffffffffffffffffffff166000908152600b6020526040902054801580611fc957508083610120015110155b61202f576040517f08c379a000000000000000000000000000000000000000000000000000000000815260206004820152601060248201527f54617267657420746f6f20736d616c6c00000000000000000000000000000000604482015260640161089e565b50600192915050565b60005473ffffffffffffffffffffffffffffffffffffffff1633148061206d57503360009081526009602052604090205460ff165b6120d3576040517f08c379a000000000000000000000000000000000000000000000000000000000815260206004820152600c60248201527f6f6e6c794f70657261746f720000000000000000000000000000000000000000604482015260640161089e565b60005b82518110156121655781600a60008584815181106120f6576120f661359c565b60209081029190910181015173ffffffffffffffffffffffffffffffffffffffff16825281019190915260400160002080547fffffffffffffffffffffffffffffffffffffffffffffffffffffffffffffff00169115159190911790558061215d81613505565b9150506120d6565b505050565b60005473ffffffffffffffffffffffffffffffffffffffff1633148061219f57503360009081526009602052604090205460ff165b612205576040517f08c379a000000000000000000000000000000000000000000000000000000000815260206004820152600c60248201527f6f6e6c794f70657261746f720000000000000000000000000000000000000000604482015260640161089e565b60005b8251811015612165578181815181106122235761222361359c565b6020026020010151600b60008584815181106122415761224161359c565b602002602001015173ffffffffffffffffffffffffffffffffffffffff1673ffffffffffffffffffffffffffffffffffffffff16815260200190815260200160002081905550808061229290613505565b915050612208565b60005473ffffffffffffffffffffffffffffffffffffffff16331461231b576040517f08c379a000000000000000000000000000000000000000000000000000000000815260206004820181905260248201527f4f776e61626c653a2063616c6c6572206973206e6f7420746865206f776e6572604482015260640161089e565b600780547fffffffffffffffffffffffff00000000000000000000000000000000000000001673ffffffffffffffffffffffffffffffffffffffff92909216919091179055565b6000610100825111156123d1576040517f08c379a000000000000000000000000000000000000000000000000000000000815260206004820152600e60248201527f4e6f746520746f6f206c61726765000000000000000000000000000000000000604482015260640161089e565b6123da83611af3565b612440576040517f08c379a000000000000000000000000000000000000000000000000000000000815260206004820152600f60248201527f4f766572206a6f696e206c696d69740000000000000000000000000000000000604482015260640161089e565b60008363ffffffff16116124b0576040517f08c379a000000000000000000000000000000000000000000000000000000000815260206004820152600b60248201527f496e76616c6964206e756d000000000000000000000000000000000000000000604482015260640161089e565b6001546040517f1d65e77e0000000000000000000000000000000000000000000000000000000081526004810186905260009173ffffffffffffffffffffffffffffffffffffffff1690631d65e77e9060240160006040518083038186803b15801561251b57600080fd5b505afa15801561252f573d6000803e3d6000fd5b505050506040513d6000823e601f3d9081017fffffffffffffffffffffffffffffffffffffffffffffffffffffffffffffffe016820160405261257591908101906131b4565b90508573ffffffffffffffffffffffffffffffffffffffff16816000015173ffffffffffffffffffffffffffffffffffffffff161415612611576040517f08c379a000000000000000000000000000000000000000000000000000000000815260206004820152600f60248201527f4e6f7420616c6c6f77206f776e65720000000000000000000000000000000000604482015260640161089e565b8060e00151421015801561262a57508061010001514211155b612690576040517f08c379a000000000000000000000000000000000000000000000000000000000815260206004820152601260248201527f496e76616c69642074696d652072616e67650000000000000000000000000000604482015260640161089e565b60008160c0015160058111156126a8576126a861356d565b14806126c9575060018160c0015160058111156126c7576126c761356d565b145b61272f576040517f08c379a000000000000000000000000000000000000000000000000000000000815260206004820152600e60248201527f496e76616c696420737461747573000000000000000000000000000000000000604482015260640161089e565b60008463ffffffff1682610140015161274891906134b1565b9050600081116127b4576040517f08c379a000000000000000000000000000000000000000000000000000000000815260206004820152600e60248201527f496e76616c696420616d6f756e74000000000000000000000000000000000000604482015260640161089e565b6101808201515173ffffffffffffffffffffffffffffffffffffffff16158015906127e85750600082610180015160200151115b1561286c576101808201518051602090910151612806918991611c3e565b61286c576040517f08c379a000000000000000000000000000000000000000000000000000000000815260206004820152601260248201527f4e6f742070617373204558434c55534956450000000000000000000000000000604482015260640161089e565b5060019695505050505050565b60005473ffffffffffffffffffffffffffffffffffffffff1633146128fa576040517f08c379a000000000000000000000000000000000000000000000000000000000815260206004820181905260248201527f4f776e61626c653a2063616c6c6572206973206e6f7420746865206f776e6572604482015260640161089e565b73ffffffffffffffffffffffffffffffffffffffff811661299d576040517f08c379a000000000000000000000000000000000000000000000000000000000815260206004820152602660248201527f4f776e61626c653a206e6577206f776e657220697320746865207a65726f206160448201527f6464726573730000000000000000000000000000000000000000000000000000606482015260840161089e565b6129a6816129a9565b50565b6000805473ffffffffffffffffffffffffffffffffffffffff8381167fffffffffffffffffffffffff0000000000000000000000000000000000000000831681178455604051919092169283917f8be0079c531659141344cd1fd0a4f28419497f9722a3daafe3b4186f6b6457e09190a35050565b8035612a29816135fa565b919050565b8051612a29816135fa565b600082601f830112612a4a57600080fd5b81356020612a5f612a5a8361348d565b61343e565b80838252828201915082860187848660051b8901011115612a7f57600080fd5b60005b85811015612aa7578135612a95816135fa565b84529284019290840190600101612a82565b5090979650505050505050565b600082601f830112612ac557600080fd5b81356020612ad5612a5a8361348d565b80838252828201915082860187848660051b8901011115612af557600080fd5b60005b85811015612aa757813584529284019290840190600101612af8565b600082601f830112612b2557600080fd5b81516020612b35612a5a8361348d565b80838252828201915082860187848660051b8901011115612b5557600080fd5b60005b85811015612aa757815184529284019290840190600101612b58565b8035612a298161362a565b8051612a298161362a565b600082601f830112612b9b57600080fd5b813567ffffffffffffffff811115612bb557612bb56135cb565b612be660207fffffffffffffffffffffffffffffffffffffffffffffffffffffffffffffffe0601f8401160161343e565b818152846020838601011115612bfb57600080fd5b816020850160208301376000918101602001919091529392505050565b600060408284031215612c2a57600080fd5b612c326133f1565b90508135612c3f816135fa565b808252506020820135602082015292915050565b600060408284031215612c6557600080fd5b612c6d6133f1565b90508151612c7a816135fa565b808252506020820151602082015292915050565b60006102008284031215612ca157600080fd5b612ca961341a565b9050612cb482612a1e565b8152612cc260208301612dbc565b6020820152612cd360408301612a1e565b6040820152606082013567ffffffffffffffff80821115612cf357600080fd5b612cff85838601612ab4565b60608401526080840135915080821115612d1857600080fd5b50612d2584828501612ab4565b608083015250612d3760a08301612a1e565b60a0820152612d4860c08301612b74565b60c082015260e08281013590820152610100808301359082015261012080830135908201526101408083013590820152610160612d86818401612dbc565b90820152610180612d9984848301612c18565b81830152506101c0808301356101a08301526101e0830135818301525092915050565b8035612a2981613637565b8051612a2981613637565b803563ffffffff81168114612a2957600080fd5b600060208284031215612df857600080fd5b8135611e33816135fa565b600060208284031215612e1557600080fd5b8151611e33816135fa565b60008060008060808587031215612e3657600080fd5b8435612e41816135fa565b93506020850135612e51816135fa565b9250604085013567ffffffffffffffff80821115612e6e57600080fd5b612e7a88838901612ab4565b93506060870135915080821115612e9057600080fd5b50612e9d87828801612ab4565b91505092959194509250565b600080600060608486031215612ebe57600080fd5b8335612ec9816135fa565b92506020840135612ed9816135fa565b929592945050506040919091013590565b60008060408385031215612efd57600080fd5b8235612f08816135fa565b91506020830135612f188161361c565b809150509250929050565b60008060408385031215612f3657600080fd5b8235612f41816135fa565b9150602083013567ffffffffffffffff811115612f5d57600080fd5b612f6985828601612c8e565b9150509250929050565b60008060008060808587031215612f8957600080fd5b8435612f94816135fa565b935060208501359250612fa960408601612dd2565b9150606085013567ffffffffffffffff811115612fc557600080fd5b612e9d87828801612b8a565b60008060408385031215612fe457600080fd5b823567ffffffffffffffff80821115612ffc57600080fd5b61300886838701612a39565b9350602085013591508082111561301e57600080fd5b50612f6985828601612ab4565b6000806040838503121561303e57600080fd5b823567ffffffffffffffff81111561305557600080fd5b61306185828601612a39565b9250506020830135612f188161361c565b60006020828403121561308457600080fd5b8151611e338161361c565b600080604083850312156130a257600080fd5b82356130ad816135fa565b91506020830135612f18816135fa565b6000602082840312156130cf57600080fd5b813567ffffffffffffffff808211156130e757600080fd5b90830190606082860312156130fb57600080fd5b604051606081018181108382111715613116576131166135cb565b604052823561312481613637565b815260208301358281111561313857600080fd5b61314487828601612b8a565b60208301525060408301358281111561315c57600080fd5b61316887828601612b8a565b60408301525095945050505050565b60006020828403121561318957600080fd5b813567ffffffffffffffff8111156131a057600080fd5b6131ac84828501612c8e565b949350505050565b6000602082840312156131c657600080fd5b815167ffffffffffffffff808211156131de57600080fd5b9083019061020082860312156131f357600080fd5b6131fb61341a565b61320483612a2e565b815261321260208401612dc7565b602082015261322360408401612a2e565b604082015260608301518281111561323a57600080fd5b61324687828601612b14565b60608301525060808301518281111561325e57600080fd5b61326a87828601612b14565b60808301525061327c60a08401612a2e565b60a082015261328d60c08401612b7f565b60c082015260e0838101519082015261010080840151908201526101208084015190820152610140808401519082015261016091506132cd828401612dc7565b8282015261018091506132e286838501612c53565b828201526101c09150818301516101a08201526101e08301518282015280935050505092915050565b60006020828403121561331d57600080fd5b5035919050565b60006020828403121561333657600080fd5b5051919050565b60006020828403121561334f57600080fd5b611e3382612dd2565b6000815180845260005b8181101561337e57602081850181015186830182015201613362565b81811115613390576000602083870101525b50601f017fffffffffffffffffffffffffffffffffffffffffffffffffffffffffffffffe0169290920160200192915050565b82151581526040602082015260006131ac6040830184613358565b602081526000611e336020830184613358565b6040805190810167ffffffffffffffff81118282101715613414576134146135cb565b60405290565b6040516101e0810167ffffffffffffffff81118282101715613414576134146135cb565b604051601f82017fffffffffffffffffffffffffffffffffffffffffffffffffffffffffffffffe016810167ffffffffffffffff81118282101715613485576134856135cb565b604052919050565b600067ffffffffffffffff8211156134a7576134a76135cb565b5060051b60200190565b6000817fffffffffffffffffffffffffffffffffffffffffffffffffffffffffffffffff04831182151516156134e9576134e961353e565b500290565b6000828210156135005761350061353e565b500390565b60007fffffffffffffffffffffffffffffffffffffffffffffffffffffffffffffffff8214156135375761353761353e565b5060010190565b7f4e487b7100000000000000000000000000000000000000000000000000000000600052601160045260246000fd5b7f4e487b7100000000000000000000000000000000000000000000000000000000600052602160045260246000fd5b7f4e487b7100000000000000000000000000000000000000000000000000000000600052603260045260246000fd5b7f4e487b7100000000000000000000000000000000000000000000000000000000600052604160045260246000fd5b73ffffffffffffffffffffffffffffffffffffffff811681146129a657600080fd5b80151581146129a657600080fd5b600681106129a657600080fd5b61ffff811681146129a657600080fdfea26469706673582212201469d03b5f5abbac3c0f0332a31a7e601fa56874bc3da47c7381364c1e27a7d164736f6c63430008060033",
  "devdoc": {
    "kind": "dev",
    "methods": {
      "checkAcceptToken(address)": {
        "params": {
          "acceptToken": "token address, blockchain token is address(0)"
        },
        "returns": {
          "_0": "bool"
        }
      },
      "checkTokenListing(address,address,uint256[],uint256[])": {
        "params": {
          "addr": "NFT contract address",
          "amounts": "tokenId amount array (ERC721 can be null)",
          "tokenIds": "tokenId array"
        }
      },
      "getProtocolFee()": {
        "returns": {
          "_0": "fee (200 = 25%, 1,000 = 10%)"
        }
      },
      "owner()": {
        "details": "Returns the address of the current owner."
      },
      "renounceOwnership()": {
        "details": "Leaves the contract without owner. It will not be possible to call `onlyOwner` functions anymore. Can only be called by the current owner. NOTE: Renouncing ownership will leave the contract without an owner, thereby removing any functionality that is only available to the owner."
      },
      "setProtocolFee(uint256)": {
        "params": {
          "fee": "fee (500 = 5%, 1,000 = 10%)"
        }
      },
      "transferOwnership(address)": {
        "details": "Transfers ownership of the contract to a new account (`newOwner`). Can only be called by the current owner."
      }
    },
    "title": "Openluck LucksHelper.",
    "version": 1
  },
  "userdoc": {
    "kind": "user",
    "methods": {
      "checkAcceptToken(address)": {
        "notice": "check acceptToken support"
      },
      "checkNFTContract(address)": {
        "notice": "check nft contract, support erc721 & erc1155"
      },
      "checkNewTask(address,(address,uint16,address,uint256[],uint256[],address,uint8,uint256,uint256,uint256,uint256,uint16,(address,uint256),uint256,uint256))": {
        "notice": "check the new task inputs"
      },
      "checkTokenListing(address,address,uint256[],uint256[])": {
        "notice": "checking seller listing NFTs ownership and balance"
      },
      "getDrawDelay()": {
        "notice": "get Draw Delay second for security"
      },
      "getGROUPS()": {
        "notice": "get ILucksGroup instance  "
      },
      "getProtocolFee()": {
        "notice": "get protocol fee for eache success TaskItem payment, default is 2%"
      },
      "getSTRATEGY()": {
        "notice": "get ILucksPaymentStrategy instance  "
      },
      "getVRF()": {
        "notice": "get ILucksVRF instance  "
      },
      "setAcceptTokens(address[],bool)": {
        "notice": "set the acceptTokens"
      },
      "setDrawDelay(uint32)": {
        "notice": "set Draw Delay for security"
      },
      "setJoinLimitNum(uint32)": {
        "notice": "set the set MAX_PER_JOIN_NUM"
      },
      "setLucksGroup(address)": {
        "notice": "set the LucksGroup"
      },
      "setLucksVRF(address)": {
        "notice": "set the VRF"
      },
      "setOperator(address,bool)": {
        "notice": "set operator"
      },
      "setPaymentStrategy(address)": {
        "notice": "set the PaymentStrategy"
      },
      "setProtocolFee(uint256)": {
        "notice": "set protocol fee for eache success TaskItem payment, default is 5%"
      },
      "setProtocolFeeRecipient(address)": {
        "notice": "set the ProtocolFeeRecipient"
      }
    },
    "notice": "It is the contract for protocol settings",
    "version": 1
  },
  "storageLayout": {
    "storage": [
      {
        "astId": 307,
        "contract": "contracts/lucks/LucksHelper.sol:LucksHelper",
        "label": "_owner",
        "offset": 0,
        "slot": "0",
        "type": "t_address"
      },
      {
        "astId": 11509,
        "contract": "contracts/lucks/LucksHelper.sol:LucksHelper",
        "label": "EXECUTOR",
        "offset": 0,
        "slot": "1",
        "type": "t_contract(ILucksExecutor)8592"
      },
      {
        "astId": 11512,
        "contract": "contracts/lucks/LucksHelper.sol:LucksHelper",
        "label": "VRF",
        "offset": 0,
        "slot": "2",
        "type": "t_contract(ILucksVRF)8951"
      },
      {
        "astId": 11515,
        "contract": "contracts/lucks/LucksHelper.sol:LucksHelper",
        "label": "GROUPS",
        "offset": 0,
        "slot": "3",
        "type": "t_contract(ILucksGroup)8646"
      },
      {
        "astId": 11518,
        "contract": "contracts/lucks/LucksHelper.sol:LucksHelper",
        "label": "STRATEGY",
        "offset": 0,
        "slot": "4",
        "type": "t_contract(ILucksPaymentStrategy)8828"
      },
      {
        "astId": 11521,
        "contract": "contracts/lucks/LucksHelper.sol:LucksHelper",
        "label": "AUTO_CLOSE",
        "offset": 0,
        "slot": "5",
        "type": "t_contract(ILucksAuto)8278"
      },
      {
        "astId": 11524,
        "contract": "contracts/lucks/LucksHelper.sol:LucksHelper",
        "label": "AUTO_DRAW",
        "offset": 0,
        "slot": "6",
        "type": "t_contract(ILucksAuto)8278"
      },
      {
        "astId": 11526,
        "contract": "contracts/lucks/LucksHelper.sol:LucksHelper",
        "label": "feeRecipient",
        "offset": 0,
        "slot": "7",
        "type": "t_address"
      },
      {
        "astId": 11529,
        "contract": "contracts/lucks/LucksHelper.sol:LucksHelper",
        "label": "MAX_PER_JOIN_NUM",
        "offset": 20,
        "slot": "7",
        "type": "t_uint32"
      },
      {
        "astId": 11532,
        "contract": "contracts/lucks/LucksHelper.sol:LucksHelper",
        "label": "DRAW_DELAY_SEC",
        "offset": 24,
        "slot": "7",
        "type": "t_uint32"
      },
      {
        "astId": 11535,
        "contract": "contracts/lucks/LucksHelper.sol:LucksHelper",
        "label": "protocolFee",
        "offset": 0,
        "slot": "8",
        "type": "t_uint256"
      },
      {
        "astId": 11539,
        "contract": "contracts/lucks/LucksHelper.sol:LucksHelper",
        "label": "operators",
        "offset": 0,
        "slot": "9",
        "type": "t_mapping(t_address,t_bool)"
      },
      {
        "astId": 11543,
        "contract": "contracts/lucks/LucksHelper.sol:LucksHelper",
        "label": "acceptTokens",
        "offset": 0,
        "slot": "10",
        "type": "t_mapping(t_address,t_bool)"
      },
      {
        "astId": 11547,
        "contract": "contracts/lucks/LucksHelper.sol:LucksHelper",
        "label": "minTargetAmount",
        "offset": 0,
        "slot": "11",
        "type": "t_mapping(t_address,t_uint256)"
      }
    ],
    "types": {
      "t_address": {
        "encoding": "inplace",
        "label": "address",
        "numberOfBytes": "20"
      },
      "t_bool": {
        "encoding": "inplace",
        "label": "bool",
        "numberOfBytes": "1"
      },
      "t_contract(ILucksAuto)8278": {
        "encoding": "inplace",
        "label": "contract ILucksAuto",
        "numberOfBytes": "20"
      },
      "t_contract(ILucksExecutor)8592": {
        "encoding": "inplace",
        "label": "contract ILucksExecutor",
        "numberOfBytes": "20"
      },
      "t_contract(ILucksGroup)8646": {
        "encoding": "inplace",
        "label": "contract ILucksGroup",
        "numberOfBytes": "20"
      },
      "t_contract(ILucksPaymentStrategy)8828": {
        "encoding": "inplace",
        "label": "contract ILucksPaymentStrategy",
        "numberOfBytes": "20"
      },
      "t_contract(ILucksVRF)8951": {
        "encoding": "inplace",
        "label": "contract ILucksVRF",
        "numberOfBytes": "20"
      },
      "t_mapping(t_address,t_bool)": {
        "encoding": "mapping",
        "key": "t_address",
        "label": "mapping(address => bool)",
        "numberOfBytes": "32",
        "value": "t_bool"
      },
      "t_mapping(t_address,t_uint256)": {
        "encoding": "mapping",
        "key": "t_address",
        "label": "mapping(address => uint256)",
        "numberOfBytes": "32",
        "value": "t_uint256"
      },
      "t_uint256": {
        "encoding": "inplace",
        "label": "uint256",
        "numberOfBytes": "32"
      },
      "t_uint32": {
        "encoding": "inplace",
        "label": "uint32",
        "numberOfBytes": "4"
      }
    }
  }
}