{
  "address": "0x7d70Af9bc4Ffb193d961511f83F892e1Dc26bB95",
  "abi": [
    {
      "inputs": [
        {
          "internalType": "address",
          "name": "_lzEndpoint",
          "type": "address"
        },
        {
          "internalType": "address",
          "name": "_executor",
          "type": "address"
        }
      ],
      "stateMutability": "nonpayable",
      "type": "constructor"
    },
    {
      "anonymous": false,
      "inputs": [
        {
          "indexed": false,
          "internalType": "uint16",
          "name": "_srcChainId",
          "type": "uint16"
        },
        {
          "indexed": false,
          "internalType": "bytes",
          "name": "_srcAddress",
          "type": "bytes"
        },
        {
          "indexed": false,
          "internalType": "uint64",
          "name": "_nonce",
          "type": "uint64"
        },
        {
          "indexed": false,
          "internalType": "bytes",
          "name": "_payload",
          "type": "bytes"
        }
      ],
      "name": "MessageFailed",
      "type": "event"
    },
    {
      "anonymous": false,
      "inputs": [
        {
          "indexed": true,
          "internalType": "address",
          "name": "previousOwner",
          "type": "address"
        },
        {
          "indexed": true,
          "internalType": "address",
          "name": "newOwner",
          "type": "address"
        }
      ],
      "name": "OwnershipTransferred",
      "type": "event"
    },
    {
      "anonymous": false,
      "inputs": [
        {
          "indexed": false,
          "internalType": "uint8",
          "name": "msgType",
          "type": "uint8"
        },
        {
          "indexed": false,
          "internalType": "uint64",
          "name": "nonce",
          "type": "uint64"
        }
      ],
      "name": "SendMsg",
      "type": "event"
    },
    {
      "anonymous": false,
      "inputs": [
        {
          "indexed": false,
          "internalType": "uint16",
          "name": "_srcChainId",
          "type": "uint16"
        },
        {
          "indexed": false,
          "internalType": "bytes",
          "name": "_srcAddress",
          "type": "bytes"
        }
      ],
      "name": "SetTrustedRemote",
      "type": "event"
    },
    {
      "inputs": [],
      "name": "EXECUTOR",
      "outputs": [
        {
          "internalType": "contract ILucksExecutor",
          "name": "",
          "type": "address"
        }
      ],
      "stateMutability": "view",
      "type": "function"
    },
    {
      "inputs": [
        {
          "internalType": "uint16",
          "name": "_dstChainId",
          "type": "uint16"
        },
        {
          "components": [
            {
              "internalType": "address",
              "name": "seller",
              "type": "address"
            },
            {
              "internalType": "uint16",
              "name": "nftChainId",
              "type": "uint16"
            },
            {
              "internalType": "address",
              "name": "nftContract",
              "type": "address"
            },
            {
              "internalType": "uint256[]",
              "name": "tokenIds",
              "type": "uint256[]"
            },
            {
              "internalType": "uint256[]",
              "name": "tokenAmounts",
              "type": "uint256[]"
            },
            {
              "internalType": "address",
              "name": "acceptToken",
              "type": "address"
            },
            {
              "internalType": "enum TaskStatus",
              "name": "status",
              "type": "uint8"
            },
            {
              "internalType": "uint256",
              "name": "startTime",
              "type": "uint256"
            },
            {
              "internalType": "uint256",
              "name": "endTime",
              "type": "uint256"
            },
            {
              "internalType": "uint256",
              "name": "targetAmount",
              "type": "uint256"
            },
            {
              "internalType": "uint256",
              "name": "price",
              "type": "uint256"
            },
            {
              "internalType": "uint16",
              "name": "paymentStrategy",
              "type": "uint16"
            },
            {
              "components": [
                {
                  "internalType": "address",
                  "name": "token",
                  "type": "address"
                },
                {
                  "internalType": "uint256",
                  "name": "amount",
                  "type": "uint256"
                }
              ],
              "internalType": "struct ExclusiveToken",
              "name": "exclusiveToken",
              "type": "tuple"
            },
            {
              "internalType": "uint256",
              "name": "amountCollected",
              "type": "uint256"
            },
            {
              "internalType": "uint256",
              "name": "depositId",
              "type": "uint256"
            }
          ],
          "internalType": "struct TaskItem",
          "name": "item",
          "type": "tuple"
        },
        {
          "components": [
            {
              "internalType": "uint16",
              "name": "chainId",
              "type": "uint16"
            },
            {
              "internalType": "string",
              "name": "title",
              "type": "string"
            },
            {
              "internalType": "string",
              "name": "note",
              "type": "string"
            }
          ],
          "internalType": "struct TaskExt",
          "name": "ext",
          "type": "tuple"
        },
        {
          "components": [
            {
              "internalType": "uint256",
              "name": "dstGasForCall",
              "type": "uint256"
            },
            {
              "internalType": "uint256",
              "name": "dstNativeAmount",
              "type": "uint256"
            },
            {
              "internalType": "bytes",
              "name": "dstNativeAddr",
              "type": "bytes"
            },
            {
              "internalType": "bytes",
              "name": "zroPaymentAddr",
              "type": "bytes"
            }
          ],
          "internalType": "struct lzTxObj",
          "name": "_lzTxParams",
          "type": "tuple"
        }
      ],
      "name": "estimateCreateTaskFee",
      "outputs": [
        {
          "internalType": "uint256",
          "name": "nativeFee",
          "type": "uint256"
        },
        {
          "internalType": "uint256",
          "name": "zroFee",
          "type": "uint256"
        }
      ],
      "stateMutability": "view",
      "type": "function"
    },
    {
      "inputs": [
        {
          "internalType": "uint16",
          "name": "_dstChainId",
          "type": "uint16"
        },
        {
          "internalType": "address payable",
          "name": "_user",
          "type": "address"
        },
        {
          "internalType": "uint256",
          "name": "depositId",
          "type": "uint256"
        },
        {
          "components": [
            {
              "internalType": "uint256",
              "name": "dstGasForCall",
              "type": "uint256"
            },
            {
              "internalType": "uint256",
              "name": "dstNativeAmount",
              "type": "uint256"
            },
            {
              "internalType": "bytes",
              "name": "dstNativeAddr",
              "type": "bytes"
            },
            {
              "internalType": "bytes",
              "name": "zroPaymentAddr",
              "type": "bytes"
            }
          ],
          "internalType": "struct lzTxObj",
          "name": "_lzTxParams",
          "type": "tuple"
        }
      ],
      "name": "estimateWithdrawNFTsFee",
      "outputs": [
        {
          "internalType": "uint256",
          "name": "nativeFee",
          "type": "uint256"
        },
        {
          "internalType": "uint256",
          "name": "zroFee",
          "type": "uint256"
        }
      ],
      "stateMutability": "view",
      "type": "function"
    },
    {
      "inputs": [
        {
          "internalType": "uint16",
          "name": "",
          "type": "uint16"
        },
        {
          "internalType": "bytes",
          "name": "",
          "type": "bytes"
        },
        {
          "internalType": "uint64",
          "name": "",
          "type": "uint64"
        }
      ],
      "name": "failedMessages",
      "outputs": [
        {
          "internalType": "bytes32",
          "name": "",
          "type": "bytes32"
        }
      ],
      "stateMutability": "view",
      "type": "function"
    },
    {
      "inputs": [
        {
          "internalType": "uint16",
          "name": "_srcChainId",
          "type": "uint16"
        },
        {
          "internalType": "bytes",
          "name": "_srcAddress",
          "type": "bytes"
        }
      ],
      "name": "forceResumeReceive",
      "outputs": [],
      "stateMutability": "nonpayable",
      "type": "function"
    },
    {
      "inputs": [
        {
          "internalType": "uint16",
          "name": "",
          "type": "uint16"
        },
        {
          "internalType": "uint8",
          "name": "",
          "type": "uint8"
        }
      ],
      "name": "gasLookup",
      "outputs": [
        {
          "internalType": "uint256",
          "name": "",
          "type": "uint256"
        }
      ],
      "stateMutability": "view",
      "type": "function"
    },
    {
      "inputs": [
        {
          "internalType": "uint16",
          "name": "_version",
          "type": "uint16"
        },
        {
          "internalType": "uint16",
          "name": "_chainId",
          "type": "uint16"
        },
        {
          "internalType": "address",
          "name": "",
          "type": "address"
        },
        {
          "internalType": "uint256",
          "name": "_configType",
          "type": "uint256"
        }
      ],
      "name": "getConfig",
      "outputs": [
        {
          "internalType": "bytes",
          "name": "",
          "type": "bytes"
        }
      ],
      "stateMutability": "view",
      "type": "function"
    },
    {
      "inputs": [
        {
          "internalType": "uint16",
          "name": "_srcChainId",
          "type": "uint16"
        },
        {
          "internalType": "bytes",
          "name": "_srcAddress",
          "type": "bytes"
        }
      ],
      "name": "isTrustedRemote",
      "outputs": [
        {
          "internalType": "bool",
          "name": "",
          "type": "bool"
        }
      ],
      "stateMutability": "view",
      "type": "function"
    },
    {
      "inputs": [],
      "name": "lzEndpoint",
      "outputs": [
        {
          "internalType": "contract ILayerZeroEndpoint",
          "name": "",
          "type": "address"
        }
      ],
      "stateMutability": "view",
      "type": "function"
    },
    {
      "inputs": [
        {
          "internalType": "uint16",
          "name": "_srcChainId",
          "type": "uint16"
        },
        {
          "internalType": "bytes",
          "name": "_srcAddress",
          "type": "bytes"
        },
        {
          "internalType": "uint64",
          "name": "_nonce",
          "type": "uint64"
        },
        {
          "internalType": "bytes",
          "name": "_payload",
          "type": "bytes"
        }
      ],
      "name": "lzReceive",
      "outputs": [],
      "stateMutability": "nonpayable",
      "type": "function"
    },
    {
      "inputs": [
        {
          "internalType": "uint16",
          "name": "_srcChainId",
          "type": "uint16"
        },
        {
          "internalType": "bytes",
          "name": "_srcAddress",
          "type": "bytes"
        },
        {
          "internalType": "uint64",
          "name": "_nonce",
          "type": "uint64"
        },
        {
          "internalType": "bytes",
          "name": "_payload",
          "type": "bytes"
        }
      ],
      "name": "nonblockingLzReceive",
      "outputs": [],
      "stateMutability": "nonpayable",
      "type": "function"
    },
    {
      "inputs": [],
      "name": "owner",
      "outputs": [
        {
          "internalType": "address",
          "name": "",
          "type": "address"
        }
      ],
      "stateMutability": "view",
      "type": "function"
    },
    {
      "inputs": [
        {
          "internalType": "uint16",
          "name": "_dstChainId",
          "type": "uint16"
        },
        {
          "internalType": "uint8",
          "name": "_functionType",
          "type": "uint8"
        },
        {
          "internalType": "string",
          "name": "_note",
          "type": "string"
        },
        {
          "components": [
            {
              "internalType": "uint256",
              "name": "dstGasForCall",
              "type": "uint256"
            },
            {
              "internalType": "uint256",
              "name": "dstNativeAmount",
              "type": "uint256"
            },
            {
              "internalType": "bytes",
              "name": "dstNativeAddr",
              "type": "bytes"
            },
            {
              "internalType": "bytes",
              "name": "zroPaymentAddr",
              "type": "bytes"
            }
          ],
          "internalType": "struct lzTxObj",
          "name": "_lzTxParams",
          "type": "tuple"
        }
      ],
      "name": "quoteLayerZeroFee",
      "outputs": [
        {
          "internalType": "uint256",
          "name": "nativeFee",
          "type": "uint256"
        },
        {
          "internalType": "uint256",
          "name": "zroFee",
          "type": "uint256"
        }
      ],
      "stateMutability": "view",
      "type": "function"
    },
    {
      "inputs": [],
      "name": "renounceOwnership",
      "outputs": [],
      "stateMutability": "nonpayable",
      "type": "function"
    },
    {
      "inputs": [
        {
          "internalType": "uint16",
          "name": "_srcChainId",
          "type": "uint16"
        },
        {
          "internalType": "bytes",
          "name": "_srcAddress",
          "type": "bytes"
        },
        {
          "internalType": "uint64",
          "name": "_nonce",
          "type": "uint64"
        },
        {
          "internalType": "bytes",
          "name": "_payload",
          "type": "bytes"
        }
      ],
      "name": "retryMessage",
      "outputs": [],
      "stateMutability": "payable",
      "type": "function"
    },
    {
      "inputs": [
        {
          "internalType": "uint16",
          "name": "_dstChainId",
          "type": "uint16"
        },
        {
          "internalType": "address payable",
          "name": "_refundAddress",
          "type": "address"
        },
        {
          "components": [
            {
              "internalType": "address",
              "name": "seller",
              "type": "address"
            },
            {
              "internalType": "uint16",
              "name": "nftChainId",
              "type": "uint16"
            },
            {
              "internalType": "address",
              "name": "nftContract",
              "type": "address"
            },
            {
              "internalType": "uint256[]",
              "name": "tokenIds",
              "type": "uint256[]"
            },
            {
              "internalType": "uint256[]",
              "name": "tokenAmounts",
              "type": "uint256[]"
            },
            {
              "internalType": "address",
              "name": "acceptToken",
              "type": "address"
            },
            {
              "internalType": "enum TaskStatus",
              "name": "status",
              "type": "uint8"
            },
            {
              "internalType": "uint256",
              "name": "startTime",
              "type": "uint256"
            },
            {
              "internalType": "uint256",
              "name": "endTime",
              "type": "uint256"
            },
            {
              "internalType": "uint256",
              "name": "targetAmount",
              "type": "uint256"
            },
            {
              "internalType": "uint256",
              "name": "price",
              "type": "uint256"
            },
            {
              "internalType": "uint16",
              "name": "paymentStrategy",
              "type": "uint16"
            },
            {
              "components": [
                {
                  "internalType": "address",
                  "name": "token",
                  "type": "address"
                },
                {
                  "internalType": "uint256",
                  "name": "amount",
                  "type": "uint256"
                }
              ],
              "internalType": "struct ExclusiveToken",
              "name": "exclusiveToken",
              "type": "tuple"
            },
            {
              "internalType": "uint256",
              "name": "amountCollected",
              "type": "uint256"
            },
            {
              "internalType": "uint256",
              "name": "depositId",
              "type": "uint256"
            }
          ],
          "internalType": "struct TaskItem",
          "name": "item",
          "type": "tuple"
        },
        {
          "components": [
            {
              "internalType": "uint16",
              "name": "chainId",
              "type": "uint16"
            },
            {
              "internalType": "string",
              "name": "title",
              "type": "string"
            },
            {
              "internalType": "string",
              "name": "note",
              "type": "string"
            }
          ],
          "internalType": "struct TaskExt",
          "name": "ext",
          "type": "tuple"
        },
        {
          "components": [
            {
              "internalType": "uint256",
              "name": "dstGasForCall",
              "type": "uint256"
            },
            {
              "internalType": "uint256",
              "name": "dstNativeAmount",
              "type": "uint256"
            },
            {
              "internalType": "bytes",
              "name": "dstNativeAddr",
              "type": "bytes"
            },
            {
              "internalType": "bytes",
              "name": "zroPaymentAddr",
              "type": "bytes"
            }
          ],
          "internalType": "struct lzTxObj",
          "name": "_lzTxParams",
          "type": "tuple"
        }
      ],
      "name": "sendCreateTask",
      "outputs": [],
      "stateMutability": "payable",
      "type": "function"
    },
    {
      "inputs": [
        {
          "internalType": "uint16",
          "name": "_dstChainId",
          "type": "uint16"
        },
        {
          "internalType": "address payable",
          "name": "_refundAddress",
          "type": "address"
        },
        {
          "internalType": "address payable",
          "name": "_user",
          "type": "address"
        },
        {
          "internalType": "uint256",
          "name": "depositId",
          "type": "uint256"
        },
        {
          "components": [
            {
              "internalType": "uint256",
              "name": "dstGasForCall",
              "type": "uint256"
            },
            {
              "internalType": "uint256",
              "name": "dstNativeAmount",
              "type": "uint256"
            },
            {
              "internalType": "bytes",
              "name": "dstNativeAddr",
              "type": "bytes"
            },
            {
              "internalType": "bytes",
              "name": "zroPaymentAddr",
              "type": "bytes"
            }
          ],
          "internalType": "struct lzTxObj",
          "name": "_lzTxParams",
          "type": "tuple"
        }
      ],
      "name": "sendWithdrawNFTs",
      "outputs": [],
      "stateMutability": "payable",
      "type": "function"
    },
    {
      "inputs": [
        {
          "internalType": "uint16",
          "name": "_version",
          "type": "uint16"
        },
        {
          "internalType": "uint16",
          "name": "_chainId",
          "type": "uint16"
        },
        {
          "internalType": "uint256",
          "name": "_configType",
          "type": "uint256"
        },
        {
          "internalType": "bytes",
          "name": "_config",
          "type": "bytes"
        }
      ],
      "name": "setConfig",
      "outputs": [],
      "stateMutability": "nonpayable",
      "type": "function"
    },
    {
      "inputs": [
        {
          "internalType": "contract ILucksExecutor",
          "name": "_executor",
          "type": "address"
        }
      ],
      "name": "setExecutor",
      "outputs": [],
      "stateMutability": "nonpayable",
      "type": "function"
    },
    {
      "inputs": [
        {
          "internalType": "uint16",
          "name": "_dstChainId",
          "type": "uint16"
        },
        {
          "internalType": "uint8",
          "name": "_functionType",
          "type": "uint8"
        },
        {
          "internalType": "uint256",
          "name": "_gasAmount",
          "type": "uint256"
        }
      ],
      "name": "setGasAmount",
      "outputs": [],
      "stateMutability": "nonpayable",
      "type": "function"
    },
    {
      "inputs": [
        {
          "internalType": "uint16",
          "name": "_version",
          "type": "uint16"
        }
      ],
      "name": "setReceiveVersion",
      "outputs": [],
      "stateMutability": "nonpayable",
      "type": "function"
    },
    {
      "inputs": [
        {
          "internalType": "uint16",
          "name": "_version",
          "type": "uint16"
        }
      ],
      "name": "setSendVersion",
      "outputs": [],
      "stateMutability": "nonpayable",
      "type": "function"
    },
    {
      "inputs": [
        {
          "internalType": "uint16",
          "name": "_srcChainId",
          "type": "uint16"
        },
        {
          "internalType": "bytes",
          "name": "_srcAddress",
          "type": "bytes"
        }
      ],
      "name": "setTrustedRemote",
      "outputs": [],
      "stateMutability": "nonpayable",
      "type": "function"
    },
    {
      "inputs": [
        {
          "internalType": "address",
          "name": "newOwner",
          "type": "address"
        }
      ],
      "name": "transferOwnership",
      "outputs": [],
      "stateMutability": "nonpayable",
      "type": "function"
    },
    {
      "inputs": [
        {
          "internalType": "uint16",
          "name": "",
          "type": "uint16"
        }
      ],
      "name": "trustedRemoteLookup",
      "outputs": [
        {
          "internalType": "bytes",
          "name": "",
          "type": "bytes"
        }
      ],
      "stateMutability": "view",
      "type": "function"
    },
    {
      "inputs": [],
      "name": "useLayerZeroToken",
      "outputs": [
        {
          "internalType": "bool",
          "name": "",
          "type": "bool"
        }
      ],
      "stateMutability": "view",
      "type": "function"
    }
  ],
  "transactionHash": "0x3530b93a1786928eccd1133506218ad73f77362dff5879807bbe5f740e6d02ab",
  "args": [
    "0x79a63d6d8BBD5c6dfc774dA79bCcD948EAcb53FA",
    "0xF2A09f37aA6FEd4018922Cc9f3ac8f77c8Fb1Cbd"
  ],
  "numDeployments": 1,
  "solcInputHash": "6a82d9fa3af66a98718371396f3249e9",
  "bytecode": "0x60a06040523480156200001157600080fd5b50604051620036c6380380620036c6833981016040819052620000349162000141565b81806200004133620000d4565b60601b6001600160601b031916608052506001600160a01b038116620000ad5760405162461bcd60e51b815260206004820152601e60248201527f4c75636b733a205f6578656375746f722063616e6e6f74206265203078300000604482015260640160405180910390fd5b600480546001600160a01b0319166001600160a01b03929092169190911790555062000179565b600080546001600160a01b038381166001600160a01b0319831681178455604051919092169283917f8be0079c531659141344cd1fd0a4f28419497f9722a3daafe3b4186f6b6457e09190a35050565b80516001600160a01b03811681146200013c57600080fd5b919050565b600080604083850312156200015557600080fd5b620001608362000124565b9150620001706020840162000124565b90509250929050565b60805160601c6134e8620001de600039600081816104cf015281816105a7015281816108560152818161094c01528181610bac01528181610e5e015281816111790152818161159a01528181611a2801528181611e4f015261228001526134e86000f3fe6080604052600436106101a05760003560e01c8063715018a6116100e1578063b353aaa71161008a578063eb8d72b711610064578063eb8d72b714610524578063f2fde38b14610544578063f5ecbdbc14610564578063fc8691081461058457600080fd5b8063b353aaa7146104bd578063cbed8b9c146104f1578063d1deba1f1461051157600080fd5b80638c7ae0fc116100bb5780638c7ae0fc1461044d5780638da5cb5b1461047f578063903d1a94146104aa57600080fd5b8063715018a6146103eb5780637533d788146104005780637cbbc5d21461042d57600080fd5b80631b0899fc1161014e57806342d65a8d1161012857806342d65a8d1461030a5780635b8c41e61461032a578063630dc7cb1461037957806366ad5c8a146103cb57600080fd5b80631b0899fc1461029a5780631c3c0ea8146102ba5780633d8b38f6146102da57600080fd5b806308ee3efb1161017f57806308ee3efb14610232578063107f6e281461026757806310ddb1371461027a57600080fd5b80621d3567146101a557806302422054146101c757806307e0db1714610212575b600080fd5b3480156101b157600080fd5b506101c56101c0366004612aba565b6105a4565b005b3480156101d357600080fd5b506101ff6101e2366004612c80565b600360209081526000928352604080842090915290825290205481565b6040519081526020015b60405180910390f35b34801561021e57600080fd5b506101c561022d366004612864565b6107a3565b34801561023e57600080fd5b5061025261024d36600461299b565b6108c4565b60408051928352602083019190915201610209565b6101c56102753660046128fc565b610a14565b34801561028657600080fd5b506101c5610295366004612864565b610af9565b3480156102a657600080fd5b506102526102b5366004612cb3565b610bf0565b3480156102c657600080fd5b506101c56102d53660046127d9565b610f27565b3480156102e657600080fd5b506102fa6102f5366004612a05565b610fef565b6040519015158152602001610209565b34801561031657600080fd5b506101c5610325366004612a05565b6110bb565b34801561033657600080fd5b506101ff610345366004612a58565b6002602090815260009384526040808520845180860184018051928152908401958401959095209452929052825290205481565b34801561038557600080fd5b506004546103a69073ffffffffffffffffffffffffffffffffffffffff1681565b60405173ffffffffffffffffffffffffffffffffffffffff9091168152602001610209565b3480156103d757600080fd5b506101c56103e6366004612aba565b6111e9565b3480156103f757600080fd5b506101c561128a565b34801561040c57600080fd5b5061042061041b366004612864565b61130d565b6040516102099190612f50565b34801561043957600080fd5b50610252610448366004612b37565b6113a7565b34801561045957600080fd5b506004546102fa9074010000000000000000000000000000000000000000900460ff1681565b34801561048b57600080fd5b5060005473ffffffffffffffffffffffffffffffffffffffff166103a6565b6101c56104b836600461287f565b6113e1565b3480156104c957600080fd5b506103a67f000000000000000000000000000000000000000000000000000000000000000081565b3480156104fd57600080fd5b506101c561050c366004612c11565b6114dc565b6101c561051f366004612aba565b611610565b34801561053057600080fd5b506101c561053f366004612a05565b6117ce565b34801561055057600080fd5b506101c561055f3660046127d9565b6118ae565b34801561057057600080fd5b5061042061057f366004612bc4565b6119de565b34801561059057600080fd5b506101c561059f366004612d09565b611ae2565b337f000000000000000000000000000000000000000000000000000000000000000073ffffffffffffffffffffffffffffffffffffffff1614610648576040517f08c379a000000000000000000000000000000000000000000000000000000000815260206004820152601e60248201527f4c7a4170703a20696e76616c696420656e64706f696e742063616c6c6572000060448201526064015b60405180910390fd5b61ffff841660009081526001602052604081208054610666906133c8565b80601f0160208091040260200160405190810160405280929190818152602001828054610692906133c8565b80156106df5780601f106106b4576101008083540402835291602001916106df565b820191906000526020600020905b8154815290600101906020018083116106c257829003601f168201915b5050505050905080518451148015610704575080805190602001208480519060200120145b610790576040517f08c379a000000000000000000000000000000000000000000000000000000000815260206004820152602660248201527f4c7a4170703a20696e76616c696420736f757263652073656e64696e6720636f60448201527f6e74726163740000000000000000000000000000000000000000000000000000606482015260840161063f565b61079c85858585611c06565b5050505050565b60005473ffffffffffffffffffffffffffffffffffffffff163314610824576040517f08c379a000000000000000000000000000000000000000000000000000000000815260206004820181905260248201527f4f776e61626c653a2063616c6c6572206973206e6f7420746865206f776e6572604482015260640161063f565b6040517f07e0db1700000000000000000000000000000000000000000000000000000000815261ffff821660048201527f000000000000000000000000000000000000000000000000000000000000000073ffffffffffffffffffffffffffffffffffffffff16906307e0db17906024015b600060405180830381600087803b1580156108b057600080fd5b505af115801561079c573d6000803e3d6000fd5b604080516002602082015273ffffffffffffffffffffffffffffffffffffffff85169181019190915260608101839052600090819081906080016040516020818303038152906040529050600061091d88600287611d11565b600480546040517f40a7bb100000000000000000000000000000000000000000000000000000000081529293507f000000000000000000000000000000000000000000000000000000000000000073ffffffffffffffffffffffffffffffffffffffff16926340a7bb10926109b6928d923092899274010000000000000000000000000000000000000000900460ff1691899101612f63565b604080518083038186803b1580156109cd57600080fd5b505afa1580156109e1573d6000803e3d6000fd5b505050506040513d601f19601f82011682018060405250810190610a059190612d45565b93509350505094509492505050565b60045473ffffffffffffffffffffffffffffffffffffffff163314610aba576040517f08c379a0000000000000000000000000000000000000000000000000000000008152602060048201526024808201527f4c75636b733a2063616c6c6572206d757374206265204c75636b73457865637560448201527f746f722e00000000000000000000000000000000000000000000000000000000606482015260840161063f565b600060018484604051602001610ad2939291906130f0565b6040516020818303038152906040529050610af1866001878585611dee565b505050505050565b60005473ffffffffffffffffffffffffffffffffffffffff163314610b7a576040517f08c379a000000000000000000000000000000000000000000000000000000000815260206004820181905260248201527f4f776e61626c653a2063616c6c6572206973206e6f7420746865206f776e6572604482015260640161063f565b6040517f10ddb13700000000000000000000000000000000000000000000000000000000815261ffff821660048201527f000000000000000000000000000000000000000000000000000000000000000073ffffffffffffffffffffffffffffffffffffffff16906310ddb13790602401610896565b60408051602080820183526000808352835160028082526060820186529194859493859391908301908036833701905050905061271081600081518110610c3957610c3961341c565b60200260200101818152505061271081600181518110610c5b57610c5b61341c565b602090810291909101015260ff871660011415610d7f57604080516101e0810182526000808252602080830182905282840182905260608084018690526080840186905260a08401839052600160c085018190524260e08601819052610100860152683635c9adc5dea00000610120860152670de0b6b3a76400006101408601819052610160860182905286518088018852858152808501919091526101808601526101a08501939093526127106101c08501528451908101855282815284518086018652601981527f6e667420636f6c6c656374696f6e206974656d207469746c650000000000000081840152818301528085018b90529351929392610d67929185918591016130f0565b60405160208183030381529060405293505050610e22565b60ff871660021415610dc057604080516002602082015260009181019190915261271060608201526080016040516020818303038152906040529150610e22565b6040517f08c379a000000000000000000000000000000000000000000000000000000000815260206004820181905260248201527f4c75636b733a20756e737570706f727465642066756e6374696f6e2074797065604482015260640161063f565b6000610e2f898988611d11565b600480546040517f40a7bb100000000000000000000000000000000000000000000000000000000081529293507f000000000000000000000000000000000000000000000000000000000000000073ffffffffffffffffffffffffffffffffffffffff16926340a7bb1092610ec8928e9230928a9274010000000000000000000000000000000000000000900460ff1691899101612f63565b604080518083038186803b158015610edf57600080fd5b505afa158015610ef3573d6000803e3d6000fd5b505050506040513d601f19601f82011682018060405250810190610f179190612d45565b9450945050505094509492505050565b60005473ffffffffffffffffffffffffffffffffffffffff163314610fa8576040517f08c379a000000000000000000000000000000000000000000000000000000000815260206004820181905260248201527f4f776e61626c653a2063616c6c6572206973206e6f7420746865206f776e6572604482015260640161063f565b600480547fffffffffffffffffffffffff00000000000000000000000000000000000000001673ffffffffffffffffffffffffffffffffffffffff92909216919091179055565b61ffff831660009081526001602052604081208054829190611010906133c8565b80601f016020809104026020016040519081016040528092919081815260200182805461103c906133c8565b80156110895780601f1061105e57610100808354040283529160200191611089565b820191906000526020600020905b81548152906001019060200180831161106c57829003601f168201915b5050505050905083836040516110a0929190612ecb565b60405180910390208180519060200120149150509392505050565b60005473ffffffffffffffffffffffffffffffffffffffff16331461113c576040517f08c379a000000000000000000000000000000000000000000000000000000000815260206004820181905260248201527f4f776e61626c653a2063616c6c6572206973206e6f7420746865206f776e6572604482015260640161063f565b6040517f42d65a8d00000000000000000000000000000000000000000000000000000000815273ffffffffffffffffffffffffffffffffffffffff7f000000000000000000000000000000000000000000000000000000000000000016906342d65a8d906111b290869086908690600401612fc2565b600060405180830381600087803b1580156111cc57600080fd5b505af11580156111e0573d6000803e3d6000fd5b50505050505050565b333014611278576040517f08c379a000000000000000000000000000000000000000000000000000000000815260206004820152602660248201527f4e6f6e626c6f636b696e674c7a4170703a2063616c6c6572206d75737420626560448201527f204c7a4170700000000000000000000000000000000000000000000000000000606482015260840161063f565b61128484848484611f30565b50505050565b60005473ffffffffffffffffffffffffffffffffffffffff16331461130b576040517f08c379a000000000000000000000000000000000000000000000000000000000815260206004820181905260248201527f4f776e61626c653a2063616c6c6572206973206e6f7420746865206f776e6572604482015260640161063f565b565b60016020526000908152604090208054611326906133c8565b80601f0160208091040260200160405190810160405280929190818152602001828054611352906133c8565b801561139f5780601f106113745761010080835404028352916020019161139f565b820191906000526020600020905b81548152906001019060200180831161138257829003601f168201915b505050505081565b6000806000600186866040516020016113c2939291906130f0565b6040516020818303038152906040529050600061091d88600187611d11565b60045473ffffffffffffffffffffffffffffffffffffffff163314611487576040517f08c379a0000000000000000000000000000000000000000000000000000000008152602060048201526024808201527f4c75636b733a2063616c6c6572206d757374206265204c75636b73457865637560448201527f746f722e00000000000000000000000000000000000000000000000000000000606482015260840161063f565b604080516002602082015273ffffffffffffffffffffffffffffffffffffffff851691810191909152606081018390526000906080016040516020818303038152906040529050610af1866002878585611dee565b60005473ffffffffffffffffffffffffffffffffffffffff16331461155d576040517f08c379a000000000000000000000000000000000000000000000000000000000815260206004820181905260248201527f4f776e61626c653a2063616c6c6572206973206e6f7420746865206f776e6572604482015260640161063f565b6040517fcbed8b9c00000000000000000000000000000000000000000000000000000000815273ffffffffffffffffffffffffffffffffffffffff7f0000000000000000000000000000000000000000000000000000000000000000169063cbed8b9c906115d7908890889088908890889060040161309e565b600060405180830381600087803b1580156115f157600080fd5b505af1158015611605573d6000803e3d6000fd5b505050505050505050565b61ffff84166000908152600260205260408082209051611631908690612edb565b908152604080516020928190038301902067ffffffffffffffff8616600090815292529020549050806116e6576040517f08c379a000000000000000000000000000000000000000000000000000000000815260206004820152602360248201527f4e6f6e626c6f636b696e674c7a4170703a206e6f2073746f726564206d65737360448201527f6167650000000000000000000000000000000000000000000000000000000000606482015260840161063f565b81516020830120811461177b576040517f08c379a000000000000000000000000000000000000000000000000000000000815260206004820152602160248201527f4e6f6e626c6f636b696e674c7a4170703a20696e76616c6964207061796c6f6160448201527f6400000000000000000000000000000000000000000000000000000000000000606482015260840161063f565b61ffff8516600090815260026020526040808220905161179c908790612edb565b908152604080516020928190038301902067ffffffffffffffff87166000908152925290205561079c85858585611f30565b60005473ffffffffffffffffffffffffffffffffffffffff16331461184f576040517f08c379a000000000000000000000000000000000000000000000000000000000815260206004820181905260248201527f4f776e61626c653a2063616c6c6572206973206e6f7420746865206f776e6572604482015260640161063f565b61ffff8316600090815260016020526040902061186d9083836122fb565b507ffa41487ad5d6728f0b19276fa1eddc16558578f5109fc39d2dc33c3230470dab8383836040516118a193929190612fc2565b60405180910390a1505050565b60005473ffffffffffffffffffffffffffffffffffffffff16331461192f576040517f08c379a000000000000000000000000000000000000000000000000000000000815260206004820181905260248201527f4f776e61626c653a2063616c6c6572206973206e6f7420746865206f776e6572604482015260640161063f565b73ffffffffffffffffffffffffffffffffffffffff81166119d2576040517f08c379a000000000000000000000000000000000000000000000000000000000815260206004820152602660248201527f4f776e61626c653a206e6577206f776e657220697320746865207a65726f206160448201527f6464726573730000000000000000000000000000000000000000000000000000606482015260840161063f565b6119db81612055565b50565b6040517ff5ecbdbc00000000000000000000000000000000000000000000000000000000815261ffff808616600483015284166024820152306044820152606481018290526060907f000000000000000000000000000000000000000000000000000000000000000073ffffffffffffffffffffffffffffffffffffffff169063f5ecbdbc9060840160006040518083038186803b158015611a7f57600080fd5b505afa158015611a93573d6000803e3d6000fd5b505050506040513d6000823e601f3d9081017fffffffffffffffffffffffffffffffffffffffffffffffffffffffffffffffe0168201604052611ad991908101906127f6565b95945050505050565b60005473ffffffffffffffffffffffffffffffffffffffff163314611b63576040517f08c379a000000000000000000000000000000000000000000000000000000000815260206004820181905260248201527f4f776e61626c653a2063616c6c6572206973206e6f7420746865206f776e6572604482015260640161063f565b60018260ff1610158015611b7b575060048260ff1611155b611be1576040517f08c379a000000000000000000000000000000000000000000000000000000000815260206004820152601c60248201527f4c75636b733a20696e76616c6964205f66756e6374696f6e5479706500000000604482015260640161063f565b61ffff909216600090815260036020908152604080832060ff90941683529290522055565b6040517f66ad5c8a00000000000000000000000000000000000000000000000000000000815230906366ad5c8a90611c48908790879087908790600401613054565b600060405180830381600087803b158015611c6257600080fd5b505af1925050508015611c73575060015b611284578080519060200120600260008661ffff1661ffff16815260200190815260200160002084604051611ca89190612edb565b90815260408051918290036020908101832067ffffffffffffffff87166000908152915220919091557fe6f254030bcb01ffd20558175c13fcaed6d1520be7becee4c961b65f79243b0d90611d04908690869086908690613054565b60405180910390a1611284565b60408082015160140151825161ffff861660009081526003602090815284822060ff881683529052928320546060938493929091611d4e916120ca565b905060008560200151118015611d79575073ffffffffffffffffffffffffffffffffffffffff821615155b15611d9857611d9181866020015187604001516120dd565b9250611de3565b611de081604080517e01000000000000000000000000000000000000000000000000000000000000602082015260228082019390935281518082039093018352604201905290565b92505b509095945050505050565b6000611dfb868685611d11565b606084015160140151909150611e148784878486612113565b6040517f7a14574800000000000000000000000000000000000000000000000000000000815261ffff881660048201523060248201526000907f000000000000000000000000000000000000000000000000000000000000000073ffffffffffffffffffffffffffffffffffffffff1690637a1457489060440160206040518083038186803b158015611ea657600080fd5b505afa158015611eba573d6000803e3d6000fd5b505050506040513d601f19601f82011682018060405250810190611ede9190612d69565b6040805160ff8a16815267ffffffffffffffff831660208201529192507f8d3ee0df6a4b7e82a7f20a763f1c6826e6176323e655af64f32318827d2112d4910160405180910390a15050505050505050565b6020810151600480546040517fe44cb8e400000000000000000000000000000000000000000000000000000000815273ffffffffffffffffffffffffffffffffffffffff9091169163e44cb8e491611f8c9185918791016130cc565b600060405180830381600087803b158015611fa657600080fd5b505af1925050508015611fb7575060015b61079c578180519060200120600260008761ffff1661ffff16815260200190815260200160002085604051611fec9190612edb565b90815260408051918290036020908101832067ffffffffffffffff88166000908152915220919091557fe6f254030bcb01ffd20558175c13fcaed6d1520be7becee4c961b65f79243b0d90612048908790879087908790613054565b60405180910390a161079c565b6000805473ffffffffffffffffffffffffffffffffffffffff8381167fffffffffffffffffffffffff0000000000000000000000000000000000000000831681178455604051919092169283917f8be0079c531659141344cd1fd0a4f28419497f9722a3daafe3b4186f6b6457e09190a35050565b60006120d6828461335d565b9392505050565b6040516060906002906120fa908290879087908790602001612ef7565b6040516020818303038152906040529150509392505050565b61ffff851660009081526001602052604081208054612131906133c8565b80601f016020809104026020016040519081016040528092919081815260200182805461215d906133c8565b80156121aa5780601f1061217f576101008083540402835291602001916121aa565b820191906000526020600020905b81548152906001019060200180831161218d57829003601f168201915b50505050509050805160001415612243576040517f08c379a000000000000000000000000000000000000000000000000000000000815260206004820152603060248201527f4c7a4170703a2064657374696e6174696f6e20636861696e206973206e6f742060448201527f61207472757374656420736f7572636500000000000000000000000000000000606482015260840161063f565b6040517fc580310000000000000000000000000000000000000000000000000000000000815273ffffffffffffffffffffffffffffffffffffffff7f0000000000000000000000000000000000000000000000000000000000000000169063c58031009034906122c1908a9086908b908b908b908b90600401612fe0565b6000604051808303818588803b1580156122da57600080fd5b505af11580156122ee573d6000803e3d6000fd5b5050505050505050505050565b828054612307906133c8565b90600052602060002090601f016020900481019282612329576000855561238d565b82601f10612360578280017fffffffffffffffffffffffffffffffffffffffffffffffffffffffffffffff0082351617855561238d565b8280016001018555821561238d579182015b8281111561238d578235825591602001919060010190612372565b5061239992915061239d565b5090565b5b80821115612399576000815560010161239e565b80356123bd8161347a565b919050565b600082601f8301126123d357600080fd5b8135602067ffffffffffffffff8211156123ef576123ef61344b565b8160051b6123fe8282016132c8565b83815282810190868401838801850189101561241957600080fd5b600093505b8584101561243c57803583526001939093019291840191840161241e565b50979650505050505050565b60008083601f84011261245a57600080fd5b50813567ffffffffffffffff81111561247257600080fd5b60208301915083602082850101111561248a57600080fd5b9250929050565b600082601f8301126124a257600080fd5b81356124b56124b082613317565b6132c8565b8181528460208386010111156124ca57600080fd5b816020850160208301376000918101602001919091529392505050565b8035600681106123bd57600080fd5b60006040828403121561250857600080fd5b6040516040810181811067ffffffffffffffff8211171561252b5761252b61344b565b604052905080823561253c8161347a565b8152602092830135920191909152919050565b60006060828403121561256157600080fd5b6040516060810167ffffffffffffffff82821081831117156125855761258561344b565b81604052829350612595856127b6565b835260208501359150808211156125ab57600080fd5b6125b786838701612491565b602084015260408501359150808211156125d057600080fd5b506125dd85828601612491565b6040830152505092915050565b600061020082840312156125fd57600080fd5b61260561329e565b9050612610826123b2565b815261261e602083016127b6565b602082015261262f604083016123b2565b6040820152606082013567ffffffffffffffff8082111561264f57600080fd5b61265b858386016123c2565b6060840152608084013591508082111561267457600080fd5b50612681848285016123c2565b60808301525061269360a083016123b2565b60a08201526126a460c083016124e7565b60c082015260e082810135908201526101008083013590820152610120808301359082015261014080830135908201526101606126e28184016127b6565b908201526101806126f5848483016124f6565b81830152506101c0808301356101a08301526101e0830135818301525092915050565b60006080828403121561272a57600080fd5b6040516080810167ffffffffffffffff828210818311171561274e5761274e61344b565b816040528293508435835260208501356020840152604085013591508082111561277757600080fd5b61278386838701612491565b6040840152606085013591508082111561279c57600080fd5b506127a985828601612491565b6060830152505092915050565b803561ffff811681146123bd57600080fd5b803560ff811681146123bd57600080fd5b6000602082840312156127eb57600080fd5b81356120d68161347a565b60006020828403121561280857600080fd5b815167ffffffffffffffff81111561281f57600080fd5b8201601f8101841361283057600080fd5b805161283e6124b082613317565b81815285602083850101111561285357600080fd5b611ad982602083016020860161339c565b60006020828403121561287657600080fd5b6120d6826127b6565b600080600080600060a0868803121561289757600080fd5b6128a0866127b6565b945060208601356128b08161347a565b935060408601356128c08161347a565b925060608601359150608086013567ffffffffffffffff8111156128e357600080fd5b6128ef88828901612718565b9150509295509295909350565b600080600080600060a0868803121561291457600080fd5b61291d866127b6565b9450602086013561292d8161347a565b9350604086013567ffffffffffffffff8082111561294a57600080fd5b61295689838a016125ea565b9450606088013591508082111561296c57600080fd5b61297889838a0161254f565b9350608088013591508082111561298e57600080fd5b506128ef88828901612718565b600080600080608085870312156129b157600080fd5b6129ba856127b6565b935060208501356129ca8161347a565b925060408501359150606085013567ffffffffffffffff8111156129ed57600080fd5b6129f987828801612718565b91505092959194509250565b600080600060408486031215612a1a57600080fd5b612a23846127b6565b9250602084013567ffffffffffffffff811115612a3f57600080fd5b612a4b86828701612448565b9497909650939450505050565b600080600060608486031215612a6d57600080fd5b612a76846127b6565b9250602084013567ffffffffffffffff811115612a9257600080fd5b612a9e86828701612491565b9250506040840135612aaf8161349c565b809150509250925092565b60008060008060808587031215612ad057600080fd5b612ad9856127b6565b9350602085013567ffffffffffffffff80821115612af657600080fd5b612b0288838901612491565b945060408701359150612b148261349c565b90925060608601359080821115612b2a57600080fd5b506129f987828801612491565b60008060008060808587031215612b4d57600080fd5b612b56856127b6565b9350602085013567ffffffffffffffff80821115612b7357600080fd5b612b7f888389016125ea565b94506040870135915080821115612b9557600080fd5b612ba18883890161254f565b93506060870135915080821115612bb757600080fd5b506129f987828801612718565b60008060008060808587031215612bda57600080fd5b612be3856127b6565b9350612bf1602086016127b6565b92506040850135612c018161347a565b9396929550929360600135925050565b600080600080600060808688031215612c2957600080fd5b612c32866127b6565b9450612c40602087016127b6565b935060408601359250606086013567ffffffffffffffff811115612c6357600080fd5b612c6f88828901612448565b969995985093965092949392505050565b60008060408385031215612c9357600080fd5b612c9c836127b6565b9150612caa602084016127c8565b90509250929050565b60008060008060808587031215612cc957600080fd5b612cd2856127b6565b9350612ce0602086016127c8565b9250604085013567ffffffffffffffff80821115612cfd57600080fd5b612ba188838901612491565b600080600060608486031215612d1e57600080fd5b612d27846127b6565b9250612d35602085016127c8565b9150604084013590509250925092565b60008060408385031215612d5857600080fd5b505080516020909101519092909150565b600060208284031215612d7b57600080fd5b81516120d68161349c565b600081518084526020808501945080840160005b83811015612db657815187529582019590820190600101612d9a565b509495945050505050565b8183528181602085013750600060208284010152600060207fffffffffffffffffffffffffffffffffffffffffffffffffffffffffffffffe0601f840116840101905092915050565b60008151808452612e2281602086016020860161339c565b601f017fffffffffffffffffffffffffffffffffffffffffffffffffffffffffffffffe0169290920160200192915050565b60068110612e8b577f4e487b7100000000000000000000000000000000000000000000000000000000600052602160045260246000fd5b9052565b61ffff81511682526000602082015160606020850152612eb26060850182612e0a565b905060408301518482036040860152611ad98282612e0a565b8183823760009101908152919050565b60008251612eed81846020870161339c565b9190910192915050565b7fffff0000000000000000000000000000000000000000000000000000000000008560f01b16815283600282015282602282015260008251612f4081604285016020870161339c565b9190910160420195945050505050565b6020815260006120d66020830184612e0a565b61ffff8616815273ffffffffffffffffffffffffffffffffffffffff8516602082015260a060408201526000612f9c60a0830186612e0a565b84151560608401528281036080840152612fb68185612e0a565b98975050505050505050565b61ffff84168152604060208201526000611ad9604083018486612dc1565b61ffff8716815260c060208201526000612ffd60c0830188612e0a565b828103604084015261300f8188612e0a565b73ffffffffffffffffffffffffffffffffffffffff87811660608601528616608085015283810360a085015290506130478185612e0a565b9998505050505050505050565b61ffff851681526080602082015260006130716080830186612e0a565b67ffffffffffffffff8516604084015282810360608401526130938185612e0a565b979650505050505050565b600061ffff808816835280871660208401525084604083015260806060830152613093608083018486612dc1565b60ff831681526040602082015260006130e86040830184612e0a565b949350505050565b60ff841681526060602082015261312060608201845173ffffffffffffffffffffffffffffffffffffffff169052565b60006020840151613137608084018261ffff169052565b50604084015173ffffffffffffffffffffffffffffffffffffffff1660a0830152606084015161020060c0840152613173610260840182612d86565b905060808501517fffffffffffffffffffffffffffffffffffffffffffffffffffffffffffffffa08483030160e08501526131ae8282612d86565b91505060a08501516101006131da8186018373ffffffffffffffffffffffffffffffffffffffff169052565b60c087015191506101206131f081870184612e54565b60e08801516101408781019190915291880151610160808801919091529088015161018080880191909152918801516101a0808801919091529088015192506101c091906132438388018561ffff169052565b90880151805173ffffffffffffffffffffffffffffffffffffffff166101e0880152602001516102008701528701516102208601528601516102408501525082810360408401526132948185612e8f565b9695505050505050565b6040516101e0810167ffffffffffffffff811182821017156132c2576132c261344b565b60405290565b604051601f82017fffffffffffffffffffffffffffffffffffffffffffffffffffffffffffffffe016810167ffffffffffffffff8111828210171561330f5761330f61344b565b604052919050565b600067ffffffffffffffff8211156133315761333161344b565b50601f017fffffffffffffffffffffffffffffffffffffffffffffffffffffffffffffffe01660200190565b60008219821115613397577f4e487b7100000000000000000000000000000000000000000000000000000000600052601160045260246000fd5b500190565b60005b838110156133b757818101518382015260200161339f565b838111156112845750506000910152565b600181811c908216806133dc57607f821691505b60208210811415613416577f4e487b7100000000000000000000000000000000000000000000000000000000600052602260045260246000fd5b50919050565b7f4e487b7100000000000000000000000000000000000000000000000000000000600052603260045260246000fd5b7f4e487b7100000000000000000000000000000000000000000000000000000000600052604160045260246000fd5b73ffffffffffffffffffffffffffffffffffffffff811681146119db57600080fd5b67ffffffffffffffff811681146119db57600080fdfea2646970667358221220a36c3d2452430add37eb804da477d6a73187985fcab4c1f87a64c509dafb277064736f6c63430008060033",
  "devdoc": {
    "kind": "dev",
    "methods": {
      "owner()": {
        "details": "Returns the address of the current owner."
      },
      "renounceOwnership()": {
        "details": "Leaves the contract without owner. It will not be possible to call `onlyOwner` functions anymore. Can only be called by the current owner. NOTE: Renouncing ownership will leave the contract without an owner, thereby removing any functionality that is only available to the owner."
      },
      "transferOwnership(address)": {
        "details": "Transfers ownership of the contract to a new account (`newOwner`). Can only be called by the current owner."
      }
    },
    "version": 1
  },
  "userdoc": {
    "kind": "user",
    "methods": {
      "setExecutor(address)": {
        "notice": "set operator"
      }
    },
    "version": 1
  },
  "storageLayout": {
    "storage": [
      {
        "astId": 917,
        "contract": "contracts/LucksBridge.sol:LucksBridge",
        "label": "_owner",
        "offset": 0,
        "slot": "0",
        "type": "t_address"
      },
      {
        "astId": 19425,
        "contract": "contracts/LucksBridge.sol:LucksBridge",
        "label": "trustedRemoteLookup",
        "offset": 0,
        "slot": "1",
        "type": "t_mapping(t_uint16,t_bytes_storage)"
      },
      {
        "astId": 19715,
        "contract": "contracts/LucksBridge.sol:LucksBridge",
        "label": "failedMessages",
        "offset": 0,
        "slot": "2",
        "type": "t_mapping(t_uint16,t_mapping(t_bytes_memory_ptr,t_mapping(t_uint64,t_bytes32)))"
      },
      {
        "astId": 5575,
        "contract": "contracts/LucksBridge.sol:LucksBridge",
        "label": "gasLookup",
        "offset": 0,
        "slot": "3",
        "type": "t_mapping(t_uint16,t_mapping(t_uint8,t_uint256))"
      },
      {
        "astId": 5578,
        "contract": "contracts/LucksBridge.sol:LucksBridge",
        "label": "EXECUTOR",
        "offset": 0,
        "slot": "4",
        "type": "t_contract(ILucksExecutor)9953"
      },
      {
        "astId": 5580,
        "contract": "contracts/LucksBridge.sol:LucksBridge",
        "label": "useLayerZeroToken",
        "offset": 20,
        "slot": "4",
        "type": "t_bool"
      }
    ],
    "types": {
      "t_address": {
        "encoding": "inplace",
        "label": "address",
        "numberOfBytes": "20"
      },
      "t_bool": {
        "encoding": "inplace",
        "label": "bool",
        "numberOfBytes": "1"
      },
      "t_bytes32": {
        "encoding": "inplace",
        "label": "bytes32",
        "numberOfBytes": "32"
      },
      "t_bytes_memory_ptr": {
        "encoding": "bytes",
        "label": "bytes",
        "numberOfBytes": "32"
      },
      "t_bytes_storage": {
        "encoding": "bytes",
        "label": "bytes",
        "numberOfBytes": "32"
      },
      "t_contract(ILucksExecutor)9953": {
        "encoding": "inplace",
        "label": "contract ILucksExecutor",
        "numberOfBytes": "20"
      },
      "t_mapping(t_bytes_memory_ptr,t_mapping(t_uint64,t_bytes32))": {
        "encoding": "mapping",
        "key": "t_bytes_memory_ptr",
        "label": "mapping(bytes => mapping(uint64 => bytes32))",
        "numberOfBytes": "32",
        "value": "t_mapping(t_uint64,t_bytes32)"
      },
      "t_mapping(t_uint16,t_bytes_storage)": {
        "encoding": "mapping",
        "key": "t_uint16",
        "label": "mapping(uint16 => bytes)",
        "numberOfBytes": "32",
        "value": "t_bytes_storage"
      },
      "t_mapping(t_uint16,t_mapping(t_bytes_memory_ptr,t_mapping(t_uint64,t_bytes32)))": {
        "encoding": "mapping",
        "key": "t_uint16",
        "label": "mapping(uint16 => mapping(bytes => mapping(uint64 => bytes32)))",
        "numberOfBytes": "32",
        "value": "t_mapping(t_bytes_memory_ptr,t_mapping(t_uint64,t_bytes32))"
      },
      "t_mapping(t_uint16,t_mapping(t_uint8,t_uint256))": {
        "encoding": "mapping",
        "key": "t_uint16",
        "label": "mapping(uint16 => mapping(uint8 => uint256))",
        "numberOfBytes": "32",
        "value": "t_mapping(t_uint8,t_uint256)"
      },
      "t_mapping(t_uint64,t_bytes32)": {
        "encoding": "mapping",
        "key": "t_uint64",
        "label": "mapping(uint64 => bytes32)",
        "numberOfBytes": "32",
        "value": "t_bytes32"
      },
      "t_mapping(t_uint8,t_uint256)": {
        "encoding": "mapping",
        "key": "t_uint8",
        "label": "mapping(uint8 => uint256)",
        "numberOfBytes": "32",
        "value": "t_uint256"
      },
      "t_uint16": {
        "encoding": "inplace",
        "label": "uint16",
        "numberOfBytes": "2"
      },
      "t_uint256": {
        "encoding": "inplace",
        "label": "uint256",
        "numberOfBytes": "32"
      },
      "t_uint64": {
        "encoding": "inplace",
        "label": "uint64",
        "numberOfBytes": "8"
      },
      "t_uint8": {
        "encoding": "inplace",
        "label": "uint8",
        "numberOfBytes": "1"
      }
    }
  }
}