{
  "address": "0x62a954951DBC9EcD731648B0fE3Db6b1F9ae49D9",
  "abi": [
    {
      "inputs": [
        {
          "internalType": "address",
          "name": "_lzEndpoint",
          "type": "address"
        }
      ],
      "stateMutability": "nonpayable",
      "type": "constructor"
    },
    {
      "anonymous": false,
      "inputs": [
        {
          "indexed": true,
          "internalType": "address",
          "name": "owner",
          "type": "address"
        },
        {
          "indexed": true,
          "internalType": "address",
          "name": "spender",
          "type": "address"
        },
        {
          "indexed": false,
          "internalType": "uint256",
          "name": "value",
          "type": "uint256"
        }
      ],
      "name": "Approval",
      "type": "event"
    },
    {
      "anonymous": false,
      "inputs": [
        {
          "indexed": false,
          "internalType": "uint16",
          "name": "_srcChainId",
          "type": "uint16"
        },
        {
          "indexed": false,
          "internalType": "bytes",
          "name": "_srcAddress",
          "type": "bytes"
        },
        {
          "indexed": false,
          "internalType": "uint64",
          "name": "_nonce",
          "type": "uint64"
        },
        {
          "indexed": false,
          "internalType": "bytes",
          "name": "_payload",
          "type": "bytes"
        }
      ],
      "name": "MessageFailed",
      "type": "event"
    },
    {
      "anonymous": false,
      "inputs": [
        {
          "indexed": true,
          "internalType": "address",
          "name": "previousOwner",
          "type": "address"
        },
        {
          "indexed": true,
          "internalType": "address",
          "name": "newOwner",
          "type": "address"
        }
      ],
      "name": "OwnershipTransferred",
      "type": "event"
    },
    {
      "anonymous": false,
      "inputs": [
        {
          "indexed": false,
          "internalType": "address",
          "name": "account",
          "type": "address"
        }
      ],
      "name": "Paused",
      "type": "event"
    },
    {
      "anonymous": false,
      "inputs": [
        {
          "indexed": true,
          "internalType": "uint16",
          "name": "_srcChainId",
          "type": "uint16"
        },
        {
          "indexed": true,
          "internalType": "bytes",
          "name": "_srcAddress",
          "type": "bytes"
        },
        {
          "indexed": true,
          "internalType": "address",
          "name": "_toAddress",
          "type": "address"
        },
        {
          "indexed": false,
          "internalType": "uint256",
          "name": "_amount",
          "type": "uint256"
        },
        {
          "indexed": false,
          "internalType": "uint64",
          "name": "_nonce",
          "type": "uint64"
        }
      ],
      "name": "ReceiveFromChain",
      "type": "event"
    },
    {
      "anonymous": false,
      "inputs": [
        {
          "indexed": true,
          "internalType": "address",
          "name": "_sender",
          "type": "address"
        },
        {
          "indexed": true,
          "internalType": "uint16",
          "name": "_dstChainId",
          "type": "uint16"
        },
        {
          "indexed": true,
          "internalType": "bytes",
          "name": "_toAddress",
          "type": "bytes"
        },
        {
          "indexed": false,
          "internalType": "uint256",
          "name": "_amount",
          "type": "uint256"
        },
        {
          "indexed": false,
          "internalType": "uint64",
          "name": "_nonce",
          "type": "uint64"
        }
      ],
      "name": "SendToChain",
      "type": "event"
    },
    {
      "anonymous": false,
      "inputs": [
        {
          "indexed": false,
          "internalType": "uint16",
          "name": "_srcChainId",
          "type": "uint16"
        },
        {
          "indexed": false,
          "internalType": "bytes",
          "name": "_srcAddress",
          "type": "bytes"
        }
      ],
      "name": "SetTrustedRemote",
      "type": "event"
    },
    {
      "anonymous": false,
      "inputs": [
        {
          "indexed": true,
          "internalType": "address",
          "name": "from",
          "type": "address"
        },
        {
          "indexed": true,
          "internalType": "address",
          "name": "to",
          "type": "address"
        },
        {
          "indexed": false,
          "internalType": "uint256",
          "name": "value",
          "type": "uint256"
        }
      ],
      "name": "Transfer",
      "type": "event"
    },
    {
      "anonymous": false,
      "inputs": [
        {
          "indexed": false,
          "internalType": "address",
          "name": "account",
          "type": "address"
        }
      ],
      "name": "Unpaused",
      "type": "event"
    },
    {
      "inputs": [
        {
          "internalType": "address",
          "name": "owner",
          "type": "address"
        },
        {
          "internalType": "address",
          "name": "spender",
          "type": "address"
        }
      ],
      "name": "allowance",
      "outputs": [
        {
          "internalType": "uint256",
          "name": "",
          "type": "uint256"
        }
      ],
      "stateMutability": "view",
      "type": "function"
    },
    {
      "inputs": [
        {
          "internalType": "address",
          "name": "spender",
          "type": "address"
        },
        {
          "internalType": "uint256",
          "name": "amount",
          "type": "uint256"
        }
      ],
      "name": "approve",
      "outputs": [
        {
          "internalType": "bool",
          "name": "",
          "type": "bool"
        }
      ],
      "stateMutability": "nonpayable",
      "type": "function"
    },
    {
      "inputs": [
        {
          "internalType": "address",
          "name": "account",
          "type": "address"
        }
      ],
      "name": "balanceOf",
      "outputs": [
        {
          "internalType": "uint256",
          "name": "",
          "type": "uint256"
        }
      ],
      "stateMutability": "view",
      "type": "function"
    },
    {
      "inputs": [],
      "name": "circulatingSupply",
      "outputs": [
        {
          "internalType": "uint256",
          "name": "",
          "type": "uint256"
        }
      ],
      "stateMutability": "view",
      "type": "function"
    },
    {
      "inputs": [],
      "name": "decimals",
      "outputs": [
        {
          "internalType": "uint8",
          "name": "",
          "type": "uint8"
        }
      ],
      "stateMutability": "view",
      "type": "function"
    },
    {
      "inputs": [
        {
          "internalType": "address",
          "name": "spender",
          "type": "address"
        },
        {
          "internalType": "uint256",
          "name": "subtractedValue",
          "type": "uint256"
        }
      ],
      "name": "decreaseAllowance",
      "outputs": [
        {
          "internalType": "bool",
          "name": "",
          "type": "bool"
        }
      ],
      "stateMutability": "nonpayable",
      "type": "function"
    },
    {
      "inputs": [
        {
          "internalType": "uint16",
          "name": "_dstChainId",
          "type": "uint16"
        },
        {
          "internalType": "bytes",
          "name": "_toAddress",
          "type": "bytes"
        },
        {
          "internalType": "uint256",
          "name": "_amount",
          "type": "uint256"
        },
        {
          "internalType": "bool",
          "name": "_useZro",
          "type": "bool"
        },
        {
          "internalType": "bytes",
          "name": "_adapterParams",
          "type": "bytes"
        }
      ],
      "name": "estimateSendFee",
      "outputs": [
        {
          "internalType": "uint256",
          "name": "nativeFee",
          "type": "uint256"
        },
        {
          "internalType": "uint256",
          "name": "zroFee",
          "type": "uint256"
        }
      ],
      "stateMutability": "view",
      "type": "function"
    },
    {
      "inputs": [
        {
          "internalType": "uint16",
          "name": "",
          "type": "uint16"
        },
        {
          "internalType": "bytes",
          "name": "",
          "type": "bytes"
        },
        {
          "internalType": "uint64",
          "name": "",
          "type": "uint64"
        }
      ],
      "name": "failedMessages",
      "outputs": [
        {
          "internalType": "bytes32",
          "name": "",
          "type": "bytes32"
        }
      ],
      "stateMutability": "view",
      "type": "function"
    },
    {
      "inputs": [
        {
          "internalType": "uint16",
          "name": "_srcChainId",
          "type": "uint16"
        },
        {
          "internalType": "bytes",
          "name": "_srcAddress",
          "type": "bytes"
        }
      ],
      "name": "forceResumeReceive",
      "outputs": [],
      "stateMutability": "nonpayable",
      "type": "function"
    },
    {
      "inputs": [
        {
          "internalType": "uint16",
          "name": "_version",
          "type": "uint16"
        },
        {
          "internalType": "uint16",
          "name": "_chainId",
          "type": "uint16"
        },
        {
          "internalType": "address",
          "name": "",
          "type": "address"
        },
        {
          "internalType": "uint256",
          "name": "_configType",
          "type": "uint256"
        }
      ],
      "name": "getConfig",
      "outputs": [
        {
          "internalType": "bytes",
          "name": "",
          "type": "bytes"
        }
      ],
      "stateMutability": "view",
      "type": "function"
    },
    {
      "inputs": [
        {
          "internalType": "address",
          "name": "spender",
          "type": "address"
        },
        {
          "internalType": "uint256",
          "name": "addedValue",
          "type": "uint256"
        }
      ],
      "name": "increaseAllowance",
      "outputs": [
        {
          "internalType": "bool",
          "name": "",
          "type": "bool"
        }
      ],
      "stateMutability": "nonpayable",
      "type": "function"
    },
    {
      "inputs": [
        {
          "internalType": "uint16",
          "name": "_srcChainId",
          "type": "uint16"
        },
        {
          "internalType": "bytes",
          "name": "_srcAddress",
          "type": "bytes"
        }
      ],
      "name": "isTrustedRemote",
      "outputs": [
        {
          "internalType": "bool",
          "name": "",
          "type": "bool"
        }
      ],
      "stateMutability": "view",
      "type": "function"
    },
    {
      "inputs": [],
      "name": "lzEndpoint",
      "outputs": [
        {
          "internalType": "contract ILayerZeroEndpoint",
          "name": "",
          "type": "address"
        }
      ],
      "stateMutability": "view",
      "type": "function"
    },
    {
      "inputs": [
        {
          "internalType": "uint16",
          "name": "_srcChainId",
          "type": "uint16"
        },
        {
          "internalType": "bytes",
          "name": "_srcAddress",
          "type": "bytes"
        },
        {
          "internalType": "uint64",
          "name": "_nonce",
          "type": "uint64"
        },
        {
          "internalType": "bytes",
          "name": "_payload",
          "type": "bytes"
        }
      ],
      "name": "lzReceive",
      "outputs": [],
      "stateMutability": "nonpayable",
      "type": "function"
    },
    {
      "inputs": [],
      "name": "name",
      "outputs": [
        {
          "internalType": "string",
          "name": "",
          "type": "string"
        }
      ],
      "stateMutability": "view",
      "type": "function"
    },
    {
      "inputs": [
        {
          "internalType": "uint16",
          "name": "_srcChainId",
          "type": "uint16"
        },
        {
          "internalType": "bytes",
          "name": "_srcAddress",
          "type": "bytes"
        },
        {
          "internalType": "uint64",
          "name": "_nonce",
          "type": "uint64"
        },
        {
          "internalType": "bytes",
          "name": "_payload",
          "type": "bytes"
        }
      ],
      "name": "nonblockingLzReceive",
      "outputs": [],
      "stateMutability": "nonpayable",
      "type": "function"
    },
    {
      "inputs": [],
      "name": "owner",
      "outputs": [
        {
          "internalType": "address",
          "name": "",
          "type": "address"
        }
      ],
      "stateMutability": "view",
      "type": "function"
    },
    {
      "inputs": [
        {
          "internalType": "bool",
          "name": "pause",
          "type": "bool"
        }
      ],
      "name": "pauseSendTokens",
      "outputs": [],
      "stateMutability": "nonpayable",
      "type": "function"
    },
    {
      "inputs": [],
      "name": "paused",
      "outputs": [
        {
          "internalType": "bool",
          "name": "",
          "type": "bool"
        }
      ],
      "stateMutability": "view",
      "type": "function"
    },
    {
      "inputs": [],
      "name": "renounceOwnership",
      "outputs": [],
      "stateMutability": "nonpayable",
      "type": "function"
    },
    {
      "inputs": [
        {
          "internalType": "uint16",
          "name": "_srcChainId",
          "type": "uint16"
        },
        {
          "internalType": "bytes",
          "name": "_srcAddress",
          "type": "bytes"
        },
        {
          "internalType": "uint64",
          "name": "_nonce",
          "type": "uint64"
        },
        {
          "internalType": "bytes",
          "name": "_payload",
          "type": "bytes"
        }
      ],
      "name": "retryMessage",
      "outputs": [],
      "stateMutability": "payable",
      "type": "function"
    },
    {
      "inputs": [
        {
          "internalType": "address",
          "name": "_from",
          "type": "address"
        },
        {
          "internalType": "uint16",
          "name": "_dstChainId",
          "type": "uint16"
        },
        {
          "internalType": "bytes",
          "name": "_toAddress",
          "type": "bytes"
        },
        {
          "internalType": "uint256",
          "name": "_amount",
          "type": "uint256"
        },
        {
          "internalType": "address payable",
          "name": "_refundAddress",
          "type": "address"
        },
        {
          "internalType": "address",
          "name": "_zroPaymentAddress",
          "type": "address"
        },
        {
          "internalType": "bytes",
          "name": "_adapterParams",
          "type": "bytes"
        }
      ],
      "name": "sendFrom",
      "outputs": [],
      "stateMutability": "payable",
      "type": "function"
    },
    {
      "inputs": [
        {
          "internalType": "uint16",
          "name": "_version",
          "type": "uint16"
        },
        {
          "internalType": "uint16",
          "name": "_chainId",
          "type": "uint16"
        },
        {
          "internalType": "uint256",
          "name": "_configType",
          "type": "uint256"
        },
        {
          "internalType": "bytes",
          "name": "_config",
          "type": "bytes"
        }
      ],
      "name": "setConfig",
      "outputs": [],
      "stateMutability": "nonpayable",
      "type": "function"
    },
    {
      "inputs": [
        {
          "internalType": "uint16",
          "name": "_version",
          "type": "uint16"
        }
      ],
      "name": "setReceiveVersion",
      "outputs": [],
      "stateMutability": "nonpayable",
      "type": "function"
    },
    {
      "inputs": [
        {
          "internalType": "uint16",
          "name": "_version",
          "type": "uint16"
        }
      ],
      "name": "setSendVersion",
      "outputs": [],
      "stateMutability": "nonpayable",
      "type": "function"
    },
    {
      "inputs": [
        {
          "internalType": "uint16",
          "name": "_srcChainId",
          "type": "uint16"
        },
        {
          "internalType": "bytes",
          "name": "_srcAddress",
          "type": "bytes"
        }
      ],
      "name": "setTrustedRemote",
      "outputs": [],
      "stateMutability": "nonpayable",
      "type": "function"
    },
    {
      "inputs": [
        {
          "internalType": "bytes4",
          "name": "interfaceId",
          "type": "bytes4"
        }
      ],
      "name": "supportsInterface",
      "outputs": [
        {
          "internalType": "bool",
          "name": "",
          "type": "bool"
        }
      ],
      "stateMutability": "view",
      "type": "function"
    },
    {
      "inputs": [],
      "name": "symbol",
      "outputs": [
        {
          "internalType": "string",
          "name": "",
          "type": "string"
        }
      ],
      "stateMutability": "view",
      "type": "function"
    },
    {
      "inputs": [],
      "name": "totalSupply",
      "outputs": [
        {
          "internalType": "uint256",
          "name": "",
          "type": "uint256"
        }
      ],
      "stateMutability": "view",
      "type": "function"
    },
    {
      "inputs": [
        {
          "internalType": "address",
          "name": "to",
          "type": "address"
        },
        {
          "internalType": "uint256",
          "name": "amount",
          "type": "uint256"
        }
      ],
      "name": "transfer",
      "outputs": [
        {
          "internalType": "bool",
          "name": "",
          "type": "bool"
        }
      ],
      "stateMutability": "nonpayable",
      "type": "function"
    },
    {
      "inputs": [
        {
          "internalType": "address",
          "name": "from",
          "type": "address"
        },
        {
          "internalType": "address",
          "name": "to",
          "type": "address"
        },
        {
          "internalType": "uint256",
          "name": "amount",
          "type": "uint256"
        }
      ],
      "name": "transferFrom",
      "outputs": [
        {
          "internalType": "bool",
          "name": "",
          "type": "bool"
        }
      ],
      "stateMutability": "nonpayable",
      "type": "function"
    },
    {
      "inputs": [
        {
          "internalType": "address",
          "name": "newOwner",
          "type": "address"
        }
      ],
      "name": "transferOwnership",
      "outputs": [],
      "stateMutability": "nonpayable",
      "type": "function"
    },
    {
      "inputs": [
        {
          "internalType": "uint16",
          "name": "",
          "type": "uint16"
        }
      ],
      "name": "trustedRemoteLookup",
      "outputs": [
        {
          "internalType": "bytes",
          "name": "",
          "type": "bytes"
        }
      ],
      "stateMutability": "view",
      "type": "function"
    }
  ],
  "transactionHash": "0x9b431bcae77f33f21c9773be99e1eddec3bb5193ae0259996b25859a6a5a2540",
  "args": [
    "0x79a63d6d8BBD5c6dfc774dA79bCcD948EAcb53FA"
  ],
  "numDeployments": 1,
  "solcInputHash": "6545dfe6cdb03e9544b86c596bfc318a",
  "bytecode": "0x60a06040523480156200001157600080fd5b506040516200380d3803806200380d8339810160408190526200003491620001e6565b6040518060400160405280600d81526020016c27b832b7263ab1b5aa37b5b2b760991b815250604051806040016040528060048152602001634c55434b60e01b8152508282828280806200009762000091620000ec60201b60201c565b620000f0565b60601b6001600160601b03191660805250508151620000be90600690602085019062000140565b508051620000d490600790602084019062000140565b50506008805460ff1916905550620002559350505050565b3390565b600080546001600160a01b038381166001600160a01b0319831681178455604051919092169283917f8be0079c531659141344cd1fd0a4f28419497f9722a3daafe3b4186f6b6457e09190a35050565b8280546200014e9062000218565b90600052602060002090601f016020900481019282620001725760008555620001bd565b82601f106200018d57805160ff1916838001178555620001bd565b82800160010185558215620001bd579182015b82811115620001bd578251825591602001919060010190620001a0565b50620001cb929150620001cf565b5090565b5b80821115620001cb5760008155600101620001d0565b600060208284031215620001f957600080fd5b81516001600160a01b03811681146200021157600080fd5b9392505050565b600181811c908216806200022d57607f821691505b602082108114156200024f57634e487b7160e01b600052602260045260246000fd5b50919050565b60805160601c61355a620002b3600039600081816105a5015281816106d001528181610a9801528181610bd101528181610cbc01528181610f2d015281816113300152818161185401528181612061015261261c015261355a6000f3fe6080604052600436106101fd5760003560e01c806366ad5c8a1161011d578063a9059cbb116100b0578063dd62ed3e1161007f578063f187892211610064578063f18789221461066d578063f2fde38b1461068d578063f5ecbdbc146106ad57600080fd5b8063dd62ed3e146105fa578063eb8d72b71461064d57600080fd5b8063a9059cbb14610573578063b353aaa714610593578063cbed8b9c146105c7578063d1deba1f146105e757600080fd5b80638da5cb5b116100ec5780638da5cb5b146104dd5780639358928b1461052957806395d89b411461053e578063a457c2d71461055357600080fd5b806366ad5c8a1461044557806370a0823114610465578063715018a6146104a85780637533d788146104bd57600080fd5b80632a205e3d1161019557806342d65a8d1161016457806342d65a8d146103ab57806351905636146103cb5780635b8c41e6146103de5780635c975abb1461042d57600080fd5b80632a205e3d1461031a578063313ce5671461034f578063395093511461036b5780633d8b38f61461038b57600080fd5b8063095ea7b3116101d1578063095ea7b31461029b57806310ddb137146102bb57806318160ddd146102db57806323b872dd146102fa57600080fd5b80621d35671461020257806301ffc9a71461022457806306fdde031461025957806307e0db171461027b575b600080fd5b34801561020e57600080fd5b5061022261021d366004612f67565b6106cd565b005b34801561023057600080fd5b5061024461023f366004612d4a565b6108cc565b60405190151581526020015b60405180910390f35b34801561026557600080fd5b5061026e610953565b60405161025091906131ac565b34801561028757600080fd5b50610222610296366004612e08565b6109e5565b3480156102a757600080fd5b506102446102b6366004612d03565b610b06565b3480156102c757600080fd5b506102226102d6366004612e08565b610b1e565b3480156102e757600080fd5b506005545b604051908152602001610250565b34801561030657600080fd5b50610244610315366004612c08565b610c15565b34801561032657600080fd5b5061033a610335366004612e76565b610c39565b60408051928352602083019190915201610250565b34801561035b57600080fd5b5060405160128152602001610250565b34801561037757600080fd5b50610244610386366004612d03565b610d57565b34801561039757600080fd5b506102446103a6366004612e23565b610da3565b3480156103b757600080fd5b506102226103c6366004612e23565b610e6f565b6102226103d9366004612c49565b610f9d565b3480156103ea57600080fd5b506102ec6103f9366004612f05565b6002602090815260009384526040808520845180860184018051928152908401958401959095209452929052825290205481565b34801561043957600080fd5b5060085460ff16610244565b34801561045157600080fd5b50610222610460366004612f67565b610fac565b34801561047157600080fd5b506102ec610480366004612bab565b73ffffffffffffffffffffffffffffffffffffffff1660009081526003602052604090205490565b3480156104b457600080fd5b5061022261104d565b3480156104c957600080fd5b5061026e6104d8366004612e08565b6110da565b3480156104e957600080fd5b5060005473ffffffffffffffffffffffffffffffffffffffff165b60405173ffffffffffffffffffffffffffffffffffffffff9091168152602001610250565b34801561053557600080fd5b506102ec611174565b34801561054a57600080fd5b5061026e611184565b34801561055f57600080fd5b5061024461056e366004612d03565b611193565b34801561057f57600080fd5b5061024461058e366004612d03565b611264565b34801561059f57600080fd5b506105047f000000000000000000000000000000000000000000000000000000000000000081565b3480156105d357600080fd5b506102226105e236600461303d565b611272565b6102226105f5366004612f67565b6113a6565b34801561060657600080fd5b506102ec610615366004612bcf565b73ffffffffffffffffffffffffffffffffffffffff918216600090815260046020908152604080832093909416825291909152205490565b34801561065957600080fd5b50610222610668366004612e23565b611564565b34801561067957600080fd5b50610222610688366004612d2f565b611644565b34801561069957600080fd5b506102226106a8366004612bab565b6116dd565b3480156106b957600080fd5b5061026e6106c8366004612ff0565b61180a565b337f000000000000000000000000000000000000000000000000000000000000000073ffffffffffffffffffffffffffffffffffffffff1614610771576040517f08c379a000000000000000000000000000000000000000000000000000000000815260206004820152601e60248201527f4c7a4170703a20696e76616c696420656e64706f696e742063616c6c6572000060448201526064015b60405180910390fd5b61ffff84166000908152600160205260408120805461078f9061343a565b80601f01602080910402602001604051908101604052809291908181526020018280546107bb9061343a565b80156108085780601f106107dd57610100808354040283529160200191610808565b820191906000526020600020905b8154815290600101906020018083116107eb57829003601f168201915b505050505090508051845114801561082d575080805190602001208480519060200120145b6108b9576040517f08c379a000000000000000000000000000000000000000000000000000000000815260206004820152602660248201527f4c7a4170703a20696e76616c696420736f757263652073656e64696e6720636f60448201527f6e747261637400000000000000000000000000000000000000000000000000006064820152608401610768565b6108c58585858561190e565b5050505050565b60007fffffffff000000000000000000000000000000000000000000000000000000008216158061093e57507fffffffff0000000000000000000000000000000000000000000000000000000082167f36372b0700000000000000000000000000000000000000000000000000000000145b8061094d575061094d82611a19565b92915050565b6060600680546109629061343a565b80601f016020809104026020016040519081016040528092919081815260200182805461098e9061343a565b80156109db5780601f106109b0576101008083540402835291602001916109db565b820191906000526020600020905b8154815290600101906020018083116109be57829003601f168201915b5050505050905090565b60005473ffffffffffffffffffffffffffffffffffffffff163314610a66576040517f08c379a000000000000000000000000000000000000000000000000000000000815260206004820181905260248201527f4f776e61626c653a2063616c6c6572206973206e6f7420746865206f776e65726044820152606401610768565b6040517f07e0db1700000000000000000000000000000000000000000000000000000000815261ffff821660048201527f000000000000000000000000000000000000000000000000000000000000000073ffffffffffffffffffffffffffffffffffffffff16906307e0db17906024015b600060405180830381600087803b158015610af257600080fd5b505af11580156108c5573d6000803e3d6000fd5b600033610b14818585611ab0565b5060019392505050565b60005473ffffffffffffffffffffffffffffffffffffffff163314610b9f576040517f08c379a000000000000000000000000000000000000000000000000000000000815260206004820181905260248201527f4f776e61626c653a2063616c6c6572206973206e6f7420746865206f776e65726044820152606401610768565b6040517f10ddb13700000000000000000000000000000000000000000000000000000000815261ffff821660048201527f000000000000000000000000000000000000000000000000000000000000000073ffffffffffffffffffffffffffffffffffffffff16906310ddb13790602401610ad8565b600033610c23858285611c63565b610c2e858585611d34565b506001949350505050565b60008060008686604051602001610c519291906131bf565b604080517fffffffffffffffffffffffffffffffffffffffffffffffffffffffffffffffe0818403018152908290527f40a7bb10000000000000000000000000000000000000000000000000000000008252915073ffffffffffffffffffffffffffffffffffffffff7f000000000000000000000000000000000000000000000000000000000000000016906340a7bb1090610cf9908b90309086908b908b906004016131e1565b604080518083038186803b158015610d1057600080fd5b505afa158015610d24573d6000803e3d6000fd5b505050506040513d601f19601f82011682018060405250810190610d4891906130ac565b92509250509550959350505050565b33600081815260046020908152604080832073ffffffffffffffffffffffffffffffffffffffff87168452909152812054909190610b149082908690610d9e9087906133df565b611ab0565b61ffff831660009081526001602052604081208054829190610dc49061343a565b80601f0160208091040260200160405190810160405280929190818152602001828054610df09061343a565b8015610e3d5780601f10610e1257610100808354040283529160200191610e3d565b820191906000526020600020905b815481529060010190602001808311610e2057829003601f168201915b505050505090508383604051610e54929190613180565b60405180910390208180519060200120149150509392505050565b60005473ffffffffffffffffffffffffffffffffffffffff163314610ef0576040517f08c379a000000000000000000000000000000000000000000000000000000000815260206004820181905260248201527f4f776e61626c653a2063616c6c6572206973206e6f7420746865206f776e65726044820152606401610768565b6040517f42d65a8d00000000000000000000000000000000000000000000000000000000815273ffffffffffffffffffffffffffffffffffffffff7f000000000000000000000000000000000000000000000000000000000000000016906342d65a8d90610f6690869086908690600401613240565b600060405180830381600087803b158015610f8057600080fd5b505af1158015610f94573d6000803e3d6000fd5b50505050505050565b610f9487878787878787611fe7565b33301461103b576040517f08c379a000000000000000000000000000000000000000000000000000000000815260206004820152602660248201527f4e6f6e626c6f636b696e674c7a4170703a2063616c6c6572206d75737420626560448201527f204c7a41707000000000000000000000000000000000000000000000000000006064820152608401610768565b61104784848484612172565b50505050565b60005473ffffffffffffffffffffffffffffffffffffffff1633146110ce576040517f08c379a000000000000000000000000000000000000000000000000000000000815260206004820181905260248201527f4f776e61626c653a2063616c6c6572206973206e6f7420746865206f776e65726044820152606401610768565b6110d8600061221b565b565b600160205260009081526040902080546110f39061343a565b80601f016020809104026020016040519081016040528092919081815260200182805461111f9061343a565b801561116c5780601f106111415761010080835404028352916020019161116c565b820191906000526020600020905b81548152906001019060200180831161114f57829003601f168201915b505050505081565b600061117f60055490565b905090565b6060600780546109629061343a565b33600081815260046020908152604080832073ffffffffffffffffffffffffffffffffffffffff8716845290915281205490919083811015611257576040517f08c379a000000000000000000000000000000000000000000000000000000000815260206004820152602560248201527f45524332303a2064656372656173656420616c6c6f77616e63652062656c6f7760448201527f207a65726f0000000000000000000000000000000000000000000000000000006064820152608401610768565b610c2e8286868403611ab0565b600033610b14818585611d34565b60005473ffffffffffffffffffffffffffffffffffffffff1633146112f3576040517f08c379a000000000000000000000000000000000000000000000000000000000815260206004820181905260248201527f4f776e61626c653a2063616c6c6572206973206e6f7420746865206f776e65726044820152606401610768565b6040517fcbed8b9c00000000000000000000000000000000000000000000000000000000815273ffffffffffffffffffffffffffffffffffffffff7f0000000000000000000000000000000000000000000000000000000000000000169063cbed8b9c9061136d908890889088908890889060040161331c565b600060405180830381600087803b15801561138757600080fd5b505af115801561139b573d6000803e3d6000fd5b505050505050505050565b61ffff841660009081526002602052604080822090516113c7908690613190565b908152604080516020928190038301902067ffffffffffffffff86166000908152925290205490508061147c576040517f08c379a000000000000000000000000000000000000000000000000000000000815260206004820152602360248201527f4e6f6e626c6f636b696e674c7a4170703a206e6f2073746f726564206d65737360448201527f61676500000000000000000000000000000000000000000000000000000000006064820152608401610768565b815160208301208114611511576040517f08c379a000000000000000000000000000000000000000000000000000000000815260206004820152602160248201527f4e6f6e626c6f636b696e674c7a4170703a20696e76616c6964207061796c6f6160448201527f64000000000000000000000000000000000000000000000000000000000000006064820152608401610768565b61ffff85166000908152600260205260408082209051611532908790613190565b908152604080516020928190038301902067ffffffffffffffff8716600090815292529020556108c585858585612172565b60005473ffffffffffffffffffffffffffffffffffffffff1633146115e5576040517f08c379a000000000000000000000000000000000000000000000000000000000815260206004820181905260248201527f4f776e61626c653a2063616c6c6572206973206e6f7420746865206f776e65726044820152606401610768565b61ffff831660009081526001602052604090206116039083836129e1565b507ffa41487ad5d6728f0b19276fa1eddc16558578f5109fc39d2dc33c3230470dab83838360405161163793929190613240565b60405180910390a1505050565b60005473ffffffffffffffffffffffffffffffffffffffff1633146116c5576040517f08c379a000000000000000000000000000000000000000000000000000000000815260206004820181905260248201527f4f776e61626c653a2063616c6c6572206973206e6f7420746865206f776e65726044820152606401610768565b806116d5576116d2612290565b50565b6116d2612371565b60005473ffffffffffffffffffffffffffffffffffffffff16331461175e576040517f08c379a000000000000000000000000000000000000000000000000000000000815260206004820181905260248201527f4f776e61626c653a2063616c6c6572206973206e6f7420746865206f776e65726044820152606401610768565b73ffffffffffffffffffffffffffffffffffffffff8116611801576040517f08c379a000000000000000000000000000000000000000000000000000000000815260206004820152602660248201527f4f776e61626c653a206e6577206f776e657220697320746865207a65726f206160448201527f64647265737300000000000000000000000000000000000000000000000000006064820152608401610768565b6116d28161221b565b6040517ff5ecbdbc00000000000000000000000000000000000000000000000000000000815261ffff808616600483015284166024820152306044820152606481018290526060907f000000000000000000000000000000000000000000000000000000000000000073ffffffffffffffffffffffffffffffffffffffff169063f5ecbdbc9060840160006040518083038186803b1580156118ab57600080fd5b505afa1580156118bf573d6000803e3d6000fd5b505050506040513d6000823e601f3d9081017fffffffffffffffffffffffffffffffffffffffffffffffffffffffffffffffe01682016040526119059190810190612d8c565b95945050505050565b6040517f66ad5c8a00000000000000000000000000000000000000000000000000000000815230906366ad5c8a906119509087908790879087906004016132d2565b600060405180830381600087803b15801561196a57600080fd5b505af192505050801561197b575060015b611047578080519060200120600260008661ffff1661ffff168152602001908152602001600020846040516119b09190613190565b90815260408051918290036020908101832067ffffffffffffffff87166000908152915220919091557fe6f254030bcb01ffd20558175c13fcaed6d1520be7becee4c961b65f79243b0d90611a0c9086908690869086906132d2565b60405180910390a1611047565b60007fffffffff0000000000000000000000000000000000000000000000000000000082167fe8e89a8000000000000000000000000000000000000000000000000000000000148061094d57507f01ffc9a7000000000000000000000000000000000000000000000000000000007fffffffff0000000000000000000000000000000000000000000000000000000083161461094d565b73ffffffffffffffffffffffffffffffffffffffff8316611b52576040517f08c379a0000000000000000000000000000000000000000000000000000000008152602060048201526024808201527f45524332303a20617070726f76652066726f6d20746865207a65726f2061646460448201527f72657373000000000000000000000000000000000000000000000000000000006064820152608401610768565b73ffffffffffffffffffffffffffffffffffffffff8216611bf5576040517f08c379a000000000000000000000000000000000000000000000000000000000815260206004820152602260248201527f45524332303a20617070726f766520746f20746865207a65726f20616464726560448201527f73730000000000000000000000000000000000000000000000000000000000006064820152608401610768565b73ffffffffffffffffffffffffffffffffffffffff83811660008181526004602090815260408083209487168084529482529182902085905590518481527f8c5be1e5ebec7d5bd14f71427d1e84f3dd0314c0f7b2291e5b200ac8c7c3b925910160405180910390a3505050565b73ffffffffffffffffffffffffffffffffffffffff8381166000908152600460209081526040808320938616835292905220547fffffffffffffffffffffffffffffffffffffffffffffffffffffffffffffffff81146110475781811015611d27576040517f08c379a000000000000000000000000000000000000000000000000000000000815260206004820152601d60248201527f45524332303a20696e73756666696369656e7420616c6c6f77616e63650000006044820152606401610768565b6110478484848403611ab0565b73ffffffffffffffffffffffffffffffffffffffff8316611dd7576040517f08c379a000000000000000000000000000000000000000000000000000000000815260206004820152602560248201527f45524332303a207472616e736665722066726f6d20746865207a65726f20616460448201527f64726573730000000000000000000000000000000000000000000000000000006064820152608401610768565b73ffffffffffffffffffffffffffffffffffffffff8216611e7a576040517f08c379a000000000000000000000000000000000000000000000000000000000815260206004820152602360248201527f45524332303a207472616e7366657220746f20746865207a65726f206164647260448201527f65737300000000000000000000000000000000000000000000000000000000006064820152608401610768565b73ffffffffffffffffffffffffffffffffffffffff831660009081526003602052604090205481811015611f30576040517f08c379a000000000000000000000000000000000000000000000000000000000815260206004820152602660248201527f45524332303a207472616e7366657220616d6f756e742065786365656473206260448201527f616c616e636500000000000000000000000000000000000000000000000000006064820152608401610768565b73ffffffffffffffffffffffffffffffffffffffff808516600090815260036020526040808220858503905591851681529081208054849290611f749084906133df565b925050819055508273ffffffffffffffffffffffffffffffffffffffff168473ffffffffffffffffffffffffffffffffffffffff167fddf252ad1be2c89b69c2b068fc378daa952ba7f163c4a11628f55a4df523b3ef84604051611fda91815260200190565b60405180910390a3611047565b611ff387878787612436565b600085856040516020016120089291906131bf565b604051602081830303815290604052905061202687828686866124af565b6040517f7a14574800000000000000000000000000000000000000000000000000000000815261ffff881660048201523060248201526000907f000000000000000000000000000000000000000000000000000000000000000073ffffffffffffffffffffffffffffffffffffffff1690637a1457489060440160206040518083038186803b1580156120b857600080fd5b505afa1580156120cc573d6000803e3d6000fd5b505050506040513d601f19601f820116820180604052508101906120f091906130d0565b9050866040516121009190613190565b6040805191829003822088835267ffffffffffffffff841660208401529161ffff8b169173ffffffffffffffffffffffffffffffffffffffff8d16917f024797cc77ce15dc717112d54fb1df125fdfd8c81344fb046c5e074427ce1543910160405180910390a4505050505050505050565b600080828060200190518101906121899190612dc1565b6014820151919350915061219e878284612697565b8073ffffffffffffffffffffffffffffffffffffffff16866040516121c39190613190565b6040805191829003822085835267ffffffffffffffff891660208401529161ffff8b16917f64e10c37f404d128982dce114f5d233c14c5c7f6d8db93099e3d99dacb9e27ba910160405180910390a450505050505050565b6000805473ffffffffffffffffffffffffffffffffffffffff8381167fffffffffffffffffffffffff0000000000000000000000000000000000000000831681178455604051919092169283917f8be0079c531659141344cd1fd0a4f28419497f9722a3daafe3b4186f6b6457e09190a35050565b60085460ff166122fc576040517f08c379a000000000000000000000000000000000000000000000000000000000815260206004820152601460248201527f5061757361626c653a206e6f74207061757365640000000000000000000000006044820152606401610768565b600880547fffffffffffffffffffffffffffffffffffffffffffffffffffffffffffffff001690557f5db9ee0a495bf2e6ff9c91a7834c1ba4fdd244a5e8aa4e537bd38aeae4b073aa335b60405173ffffffffffffffffffffffffffffffffffffffff909116815260200160405180910390a1565b60085460ff16156123de576040517f08c379a000000000000000000000000000000000000000000000000000000000815260206004820152601060248201527f5061757361626c653a20706175736564000000000000000000000000000000006044820152606401610768565b600880547fffffffffffffffffffffffffffffffffffffffffffffffffffffffffffffff001660011790557f62e78cea01bee320cd4e420270b5ea74000d11b0c9f74754ebdbfc544b05a2586123473390565b505050565b60085460ff16156124a3576040517f08c379a000000000000000000000000000000000000000000000000000000000815260206004820152601060248201527f5061757361626c653a20706175736564000000000000000000000000000000006044820152606401610768565b611047848484846126a1565b61ffff8516600090815260016020526040812080546124cd9061343a565b80601f01602080910402602001604051908101604052809291908181526020018280546124f99061343a565b80156125465780601f1061251b57610100808354040283529160200191612546565b820191906000526020600020905b81548152906001019060200180831161252957829003601f168201915b505050505090508051600014156125df576040517f08c379a000000000000000000000000000000000000000000000000000000000815260206004820152603060248201527f4c7a4170703a2064657374696e6174696f6e20636861696e206973206e6f742060448201527f61207472757374656420736f75726365000000000000000000000000000000006064820152608401610768565b6040517fc580310000000000000000000000000000000000000000000000000000000000815273ffffffffffffffffffffffffffffffffffffffff7f0000000000000000000000000000000000000000000000000000000000000000169063c580310090349061265d908a9086908b908b908b908b9060040161325e565b6000604051808303818588803b15801561267657600080fd5b505af115801561268a573d6000803e3d6000fd5b5050505050505050505050565b61243182826126d4565b3373ffffffffffffffffffffffffffffffffffffffff851681146126ca576126ca858284611c63565b6108c585836127f4565b73ffffffffffffffffffffffffffffffffffffffff8216612751576040517f08c379a000000000000000000000000000000000000000000000000000000000815260206004820152601f60248201527f45524332303a206d696e7420746f20746865207a65726f2061646472657373006044820152606401610768565b806005600082825461276391906133df565b909155505073ffffffffffffffffffffffffffffffffffffffff82166000908152600360205260408120805483929061279d9084906133df565b909155505060405181815273ffffffffffffffffffffffffffffffffffffffff8316906000907fddf252ad1be2c89b69c2b068fc378daa952ba7f163c4a11628f55a4df523b3ef9060200160405180910390a35050565b73ffffffffffffffffffffffffffffffffffffffff8216612897576040517f08c379a000000000000000000000000000000000000000000000000000000000815260206004820152602160248201527f45524332303a206275726e2066726f6d20746865207a65726f2061646472657360448201527f73000000000000000000000000000000000000000000000000000000000000006064820152608401610768565b73ffffffffffffffffffffffffffffffffffffffff82166000908152600360205260409020548181101561294d576040517f08c379a000000000000000000000000000000000000000000000000000000000815260206004820152602260248201527f45524332303a206275726e20616d6f756e7420657863656564732062616c616e60448201527f63650000000000000000000000000000000000000000000000000000000000006064820152608401610768565b73ffffffffffffffffffffffffffffffffffffffff831660009081526003602052604081208383039055600580548492906129899084906133f7565b909155505060405182815260009073ffffffffffffffffffffffffffffffffffffffff8516907fddf252ad1be2c89b69c2b068fc378daa952ba7f163c4a11628f55a4df523b3ef9060200160405180910390a3505050565b8280546129ed9061343a565b90600052602060002090601f016020900481019282612a0f5760008555612a73565b82601f10612a46578280017fffffffffffffffffffffffffffffffffffffffffffffffffffffffffffffff00823516178555612a73565b82800160010185558215612a73579182015b82811115612a73578235825591602001919060010190612a58565b50612a7f929150612a83565b5090565b5b80821115612a7f5760008155600101612a84565b80358015158114612aa857600080fd5b919050565b60008083601f840112612abf57600080fd5b50813567ffffffffffffffff811115612ad757600080fd5b602083019150836020828501011115612aef57600080fd5b9250929050565b600082601f830112612b0757600080fd5b8135612b1a612b1582613399565b61334a565b818152846020838601011115612b2f57600080fd5b816020850160208301376000918101602001919091529392505050565b600082601f830112612b5d57600080fd5b8151612b6b612b1582613399565b818152846020838601011115612b8057600080fd5b612b9182602083016020870161340e565b949350505050565b803561ffff81168114612aa857600080fd5b600060208284031215612bbd57600080fd5b8135612bc8816134ec565b9392505050565b60008060408385031215612be257600080fd5b8235612bed816134ec565b91506020830135612bfd816134ec565b809150509250929050565b600080600060608486031215612c1d57600080fd5b8335612c28816134ec565b92506020840135612c38816134ec565b929592945050506040919091013590565b600080600080600080600060e0888a031215612c6457600080fd5b8735612c6f816134ec565b9650612c7d60208901612b99565b9550604088013567ffffffffffffffff80821115612c9a57600080fd5b612ca68b838c01612af6565b965060608a0135955060808a01359150612cbf826134ec565b90935060a089013590612cd1826134ec565b90925060c08901359080821115612ce757600080fd5b50612cf48a828b01612af6565b91505092959891949750929550565b60008060408385031215612d1657600080fd5b8235612d21816134ec565b946020939093013593505050565b600060208284031215612d4157600080fd5b612bc882612a98565b600060208284031215612d5c57600080fd5b81357fffffffff0000000000000000000000000000000000000000000000000000000081168114612bc857600080fd5b600060208284031215612d9e57600080fd5b815167ffffffffffffffff811115612db557600080fd5b612b9184828501612b4c565b60008060408385031215612dd457600080fd5b825167ffffffffffffffff811115612deb57600080fd5b612df785828601612b4c565b925050602083015190509250929050565b600060208284031215612e1a57600080fd5b612bc882612b99565b600080600060408486031215612e3857600080fd5b612e4184612b99565b9250602084013567ffffffffffffffff811115612e5d57600080fd5b612e6986828701612aad565b9497909650939450505050565b600080600080600060a08688031215612e8e57600080fd5b612e9786612b99565b9450602086013567ffffffffffffffff80821115612eb457600080fd5b612ec089838a01612af6565b955060408801359450612ed560608901612a98565b93506080880135915080821115612eeb57600080fd5b50612ef888828901612af6565b9150509295509295909350565b600080600060608486031215612f1a57600080fd5b612f2384612b99565b9250602084013567ffffffffffffffff811115612f3f57600080fd5b612f4b86828701612af6565b9250506040840135612f5c8161350e565b809150509250925092565b60008060008060808587031215612f7d57600080fd5b612f8685612b99565b9350602085013567ffffffffffffffff80821115612fa357600080fd5b612faf88838901612af6565b945060408701359150612fc18261350e565b90925060608601359080821115612fd757600080fd5b50612fe487828801612af6565b91505092959194509250565b6000806000806080858703121561300657600080fd5b61300f85612b99565b935061301d60208601612b99565b9250604085013561302d816134ec565b9396929550929360600135925050565b60008060008060006080868803121561305557600080fd5b61305e86612b99565b945061306c60208701612b99565b935060408601359250606086013567ffffffffffffffff81111561308f57600080fd5b61309b88828901612aad565b969995985093965092949392505050565b600080604083850312156130bf57600080fd5b505080516020909101519092909150565b6000602082840312156130e257600080fd5b8151612bc88161350e565b8183528181602085013750600060208284010152600060207fffffffffffffffffffffffffffffffffffffffffffffffffffffffffffffffe0601f840116840101905092915050565b6000815180845261314e81602086016020860161340e565b601f017fffffffffffffffffffffffffffffffffffffffffffffffffffffffffffffffe0169290920160200192915050565b8183823760009101908152919050565b600082516131a281846020870161340e565b9190910192915050565b602081526000612bc86020830184613136565b6040815260006131d26040830185613136565b90508260208301529392505050565b61ffff8616815273ffffffffffffffffffffffffffffffffffffffff8516602082015260a06040820152600061321a60a0830186613136565b841515606084015282810360808401526132348185613136565b98975050505050505050565b61ffff841681526040602082015260006119056040830184866130ed565b61ffff8716815260c06020820152600061327b60c0830188613136565b828103604084015261328d8188613136565b73ffffffffffffffffffffffffffffffffffffffff87811660608601528616608085015283810360a085015290506132c58185613136565b9998505050505050505050565b61ffff851681526080602082015260006132ef6080830186613136565b67ffffffffffffffff8516604084015282810360608401526133118185613136565b979650505050505050565b600061ffff8088168352808716602084015250846040830152608060608301526133116080830184866130ed565b604051601f82017fffffffffffffffffffffffffffffffffffffffffffffffffffffffffffffffe016810167ffffffffffffffff81118282101715613391576133916134bd565b604052919050565b600067ffffffffffffffff8211156133b3576133b36134bd565b50601f017fffffffffffffffffffffffffffffffffffffffffffffffffffffffffffffffe01660200190565b600082198211156133f2576133f261348e565b500190565b6000828210156134095761340961348e565b500390565b60005b83811015613429578181015183820152602001613411565b838111156110475750506000910152565b600181811c9082168061344e57607f821691505b60208210811415613488577f4e487b7100000000000000000000000000000000000000000000000000000000600052602260045260246000fd5b50919050565b7f4e487b7100000000000000000000000000000000000000000000000000000000600052601160045260246000fd5b7f4e487b7100000000000000000000000000000000000000000000000000000000600052604160045260246000fd5b73ffffffffffffffffffffffffffffffffffffffff811681146116d257600080fd5b67ffffffffffffffff811681146116d257600080fdfea26469706673582212202513c57d246e6266b5243218c1a89ceeca722c6633d08ba2fce21f1dacde191064736f6c63430008060033",
  "devdoc": {
    "kind": "dev",
    "methods": {
      "allowance(address,address)": {
        "details": "See {IERC20-allowance}."
      },
      "approve(address,uint256)": {
        "details": "See {IERC20-approve}. NOTE: If `amount` is the maximum `uint256`, the allowance is not updated on `transferFrom`. This is semantically equivalent to an infinite approval. Requirements: - `spender` cannot be the zero address."
      },
      "balanceOf(address)": {
        "details": "See {IERC20-balanceOf}."
      },
      "circulatingSupply()": {
        "details": "returns the circulating amount of tokens on current chain"
      },
      "decimals()": {
        "details": "Returns the number of decimals used to get its user representation. For example, if `decimals` equals `2`, a balance of `505` tokens should be displayed to a user as `5.05` (`505 / 10 ** 2`). Tokens usually opt for a value of 18, imitating the relationship between Ether and Wei. This is the value {ERC20} uses, unless this function is overridden; NOTE: This information is only used for _display_ purposes: it in no way affects any of the arithmetic of the contract, including {IERC20-balanceOf} and {IERC20-transfer}."
      },
      "decreaseAllowance(address,uint256)": {
        "details": "Atomically decreases the allowance granted to `spender` by the caller. This is an alternative to {approve} that can be used as a mitigation for problems described in {IERC20-approve}. Emits an {Approval} event indicating the updated allowance. Requirements: - `spender` cannot be the zero address. - `spender` must have allowance for the caller of at least `subtractedValue`."
      },
      "estimateSendFee(uint16,bytes,uint256,bool,bytes)": {
        "details": "estimate send token `_tokenId` to (`_dstChainId`, `_toAddress`) _dstChainId - L0 defined chain id to send tokens too _toAddress - dynamic bytes array which contains the address to whom you are sending tokens to on the dstChain _amount - amount of the tokens to transfer _useZro - indicates to use zro to pay L0 fees _adapterParam - flexible bytes array to indicate messaging adapter services in L0"
      },
      "increaseAllowance(address,uint256)": {
        "details": "Atomically increases the allowance granted to `spender` by the caller. This is an alternative to {approve} that can be used as a mitigation for problems described in {IERC20-approve}. Emits an {Approval} event indicating the updated allowance. Requirements: - `spender` cannot be the zero address."
      },
      "name()": {
        "details": "Returns the name of the token."
      },
      "owner()": {
        "details": "Returns the address of the current owner."
      },
      "paused()": {
        "details": "Returns true if the contract is paused, and false otherwise."
      },
      "renounceOwnership()": {
        "details": "Leaves the contract without owner. It will not be possible to call `onlyOwner` functions anymore. Can only be called by the current owner. NOTE: Renouncing ownership will leave the contract without an owner, thereby removing any functionality that is only available to the owner."
      },
      "sendFrom(address,uint16,bytes,uint256,address,address,bytes)": {
        "details": "send `_amount` amount of token to (`_dstChainId`, `_toAddress`) from `_from` `_from` the owner of token `_dstChainId` the destination chain identifier `_toAddress` can be any size depending on the `dstChainId`. `_amount` the quantity of tokens in wei `_refundAddress` the address LayerZero refunds if too much message fee is sent `_zroPaymentAddress` set to address(0x0) if not paying in ZRO (LayerZero Token) `_adapterParams` is a flexible bytes array to indicate messaging adapter services"
      },
      "symbol()": {
        "details": "Returns the symbol of the token, usually a shorter version of the name."
      },
      "totalSupply()": {
        "details": "See {IERC20-totalSupply}."
      },
      "transfer(address,uint256)": {
        "details": "See {IERC20-transfer}. Requirements: - `to` cannot be the zero address. - the caller must have a balance of at least `amount`."
      },
      "transferFrom(address,address,uint256)": {
        "details": "See {IERC20-transferFrom}. Emits an {Approval} event indicating the updated allowance. This is not required by the EIP. See the note at the beginning of {ERC20}. NOTE: Does not update the allowance if the current allowance is the maximum `uint256`. Requirements: - `from` and `to` cannot be the zero address. - `from` must have a balance of at least `amount`. - the caller must have allowance for ``from``'s tokens of at least `amount`."
      },
      "transferOwnership(address)": {
        "details": "Transfers ownership of the contract to a new account (`newOwner`). Can only be called by the current owner."
      }
    },
    "version": 1
  },
  "userdoc": {
    "kind": "user",
    "methods": {},
    "version": 1
  },
  "storageLayout": {
    "storage": [
      {
        "astId": 307,
        "contract": "contracts/token/OpenLuckOFT.sol:OpenLuckOFT",
        "label": "_owner",
        "offset": 0,
        "slot": "0",
        "type": "t_address"
      },
      {
        "astId": 18442,
        "contract": "contracts/token/OpenLuckOFT.sol:OpenLuckOFT",
        "label": "trustedRemoteLookup",
        "offset": 0,
        "slot": "1",
        "type": "t_mapping(t_uint16,t_bytes_storage)"
      },
      {
        "astId": 18732,
        "contract": "contracts/token/OpenLuckOFT.sol:OpenLuckOFT",
        "label": "failedMessages",
        "offset": 0,
        "slot": "2",
        "type": "t_mapping(t_uint16,t_mapping(t_bytes_memory_ptr,t_mapping(t_uint64,t_bytes32)))"
      },
      {
        "astId": 1911,
        "contract": "contracts/token/OpenLuckOFT.sol:OpenLuckOFT",
        "label": "_balances",
        "offset": 0,
        "slot": "3",
        "type": "t_mapping(t_address,t_uint256)"
      },
      {
        "astId": 1917,
        "contract": "contracts/token/OpenLuckOFT.sol:OpenLuckOFT",
        "label": "_allowances",
        "offset": 0,
        "slot": "4",
        "type": "t_mapping(t_address,t_mapping(t_address,t_uint256))"
      },
      {
        "astId": 1919,
        "contract": "contracts/token/OpenLuckOFT.sol:OpenLuckOFT",
        "label": "_totalSupply",
        "offset": 0,
        "slot": "5",
        "type": "t_uint256"
      },
      {
        "astId": 1921,
        "contract": "contracts/token/OpenLuckOFT.sol:OpenLuckOFT",
        "label": "_name",
        "offset": 0,
        "slot": "6",
        "type": "t_string_storage"
      },
      {
        "astId": 1923,
        "contract": "contracts/token/OpenLuckOFT.sol:OpenLuckOFT",
        "label": "_symbol",
        "offset": 0,
        "slot": "7",
        "type": "t_string_storage"
      },
      {
        "astId": 422,
        "contract": "contracts/token/OpenLuckOFT.sol:OpenLuckOFT",
        "label": "_paused",
        "offset": 0,
        "slot": "8",
        "type": "t_bool"
      }
    ],
    "types": {
      "t_address": {
        "encoding": "inplace",
        "label": "address",
        "numberOfBytes": "20"
      },
      "t_bool": {
        "encoding": "inplace",
        "label": "bool",
        "numberOfBytes": "1"
      },
      "t_bytes32": {
        "encoding": "inplace",
        "label": "bytes32",
        "numberOfBytes": "32"
      },
      "t_bytes_memory_ptr": {
        "encoding": "bytes",
        "label": "bytes",
        "numberOfBytes": "32"
      },
      "t_bytes_storage": {
        "encoding": "bytes",
        "label": "bytes",
        "numberOfBytes": "32"
      },
      "t_mapping(t_address,t_mapping(t_address,t_uint256))": {
        "encoding": "mapping",
        "key": "t_address",
        "label": "mapping(address => mapping(address => uint256))",
        "numberOfBytes": "32",
        "value": "t_mapping(t_address,t_uint256)"
      },
      "t_mapping(t_address,t_uint256)": {
        "encoding": "mapping",
        "key": "t_address",
        "label": "mapping(address => uint256)",
        "numberOfBytes": "32",
        "value": "t_uint256"
      },
      "t_mapping(t_bytes_memory_ptr,t_mapping(t_uint64,t_bytes32))": {
        "encoding": "mapping",
        "key": "t_bytes_memory_ptr",
        "label": "mapping(bytes => mapping(uint64 => bytes32))",
        "numberOfBytes": "32",
        "value": "t_mapping(t_uint64,t_bytes32)"
      },
      "t_mapping(t_uint16,t_bytes_storage)": {
        "encoding": "mapping",
        "key": "t_uint16",
        "label": "mapping(uint16 => bytes)",
        "numberOfBytes": "32",
        "value": "t_bytes_storage"
      },
      "t_mapping(t_uint16,t_mapping(t_bytes_memory_ptr,t_mapping(t_uint64,t_bytes32)))": {
        "encoding": "mapping",
        "key": "t_uint16",
        "label": "mapping(uint16 => mapping(bytes => mapping(uint64 => bytes32)))",
        "numberOfBytes": "32",
        "value": "t_mapping(t_bytes_memory_ptr,t_mapping(t_uint64,t_bytes32))"
      },
      "t_mapping(t_uint64,t_bytes32)": {
        "encoding": "mapping",
        "key": "t_uint64",
        "label": "mapping(uint64 => bytes32)",
        "numberOfBytes": "32",
        "value": "t_bytes32"
      },
      "t_string_storage": {
        "encoding": "bytes",
        "label": "string",
        "numberOfBytes": "32"
      },
      "t_uint16": {
        "encoding": "inplace",
        "label": "uint16",
        "numberOfBytes": "2"
      },
      "t_uint256": {
        "encoding": "inplace",
        "label": "uint256",
        "numberOfBytes": "32"
      },
      "t_uint64": {
        "encoding": "inplace",
        "label": "uint64",
        "numberOfBytes": "8"
      }
    }
  }
}