{
  "address": "0x0d258df57BfaD1b44d9091Ae6Ae15c0D2bD4e1C8",
  "abi": [
    {
      "inputs": [
        {
          "internalType": "address",
          "name": "_executor",
          "type": "address"
        },
        {
          "internalType": "contract ILucksHelper",
          "name": "_helper",
          "type": "address"
        }
      ],
      "stateMutability": "nonpayable",
      "type": "constructor"
    },
    {
      "anonymous": false,
      "inputs": [
        {
          "indexed": true,
          "internalType": "address",
          "name": "executor",
          "type": "address"
        },
        {
          "indexed": false,
          "internalType": "uint256",
          "name": "depositId",
          "type": "uint256"
        },
        {
          "indexed": true,
          "internalType": "address",
          "name": "user",
          "type": "address"
        },
        {
          "indexed": false,
          "internalType": "address",
          "name": "nft",
          "type": "address"
        },
        {
          "indexed": false,
          "internalType": "uint256[]",
          "name": "tokenIds",
          "type": "uint256[]"
        },
        {
          "indexed": false,
          "internalType": "uint256[]",
          "name": "amounts",
          "type": "uint256[]"
        },
        {
          "indexed": false,
          "internalType": "uint256",
          "name": "endTime",
          "type": "uint256"
        }
      ],
      "name": "Deposit",
      "type": "event"
    },
    {
      "anonymous": false,
      "inputs": [
        {
          "indexed": true,
          "internalType": "address",
          "name": "previousOwner",
          "type": "address"
        },
        {
          "indexed": true,
          "internalType": "address",
          "name": "newOwner",
          "type": "address"
        }
      ],
      "name": "OwnershipTransferred",
      "type": "event"
    },
    {
      "anonymous": false,
      "inputs": [
        {
          "indexed": true,
          "internalType": "address",
          "name": "executor",
          "type": "address"
        },
        {
          "indexed": false,
          "internalType": "uint256",
          "name": "depositId",
          "type": "uint256"
        },
        {
          "indexed": true,
          "internalType": "address",
          "name": "to",
          "type": "address"
        },
        {
          "indexed": false,
          "internalType": "address",
          "name": "nft",
          "type": "address"
        },
        {
          "indexed": false,
          "internalType": "uint256[]",
          "name": "tokenIds",
          "type": "uint256[]"
        },
        {
          "indexed": false,
          "internalType": "uint256[]",
          "name": "amounts",
          "type": "uint256[]"
        }
      ],
      "name": "Redeem",
      "type": "event"
    },
    {
      "anonymous": false,
      "inputs": [
        {
          "indexed": true,
          "internalType": "address",
          "name": "executor",
          "type": "address"
        },
        {
          "indexed": false,
          "internalType": "uint256",
          "name": "depositId",
          "type": "uint256"
        },
        {
          "indexed": true,
          "internalType": "address",
          "name": "to",
          "type": "address"
        },
        {
          "indexed": false,
          "internalType": "address",
          "name": "nft",
          "type": "address"
        },
        {
          "indexed": false,
          "internalType": "uint256[]",
          "name": "tokenIds",
          "type": "uint256[]"
        },
        {
          "indexed": false,
          "internalType": "uint256[]",
          "name": "amounts",
          "type": "uint256[]"
        }
      ],
      "name": "Withdraw",
      "type": "event"
    },
    {
      "inputs": [],
      "name": "HELPER",
      "outputs": [
        {
          "internalType": "contract ILucksHelper",
          "name": "",
          "type": "address"
        }
      ],
      "stateMutability": "view",
      "type": "function"
    },
    {
      "inputs": [
        {
          "internalType": "address",
          "name": "user",
          "type": "address"
        },
        {
          "internalType": "address",
          "name": "nft",
          "type": "address"
        },
        {
          "internalType": "uint256[]",
          "name": "tokenIds",
          "type": "uint256[]"
        },
        {
          "internalType": "uint256[]",
          "name": "amounts",
          "type": "uint256[]"
        },
        {
          "internalType": "uint256",
          "name": "endTime",
          "type": "uint256"
        }
      ],
      "name": "deposit",
      "outputs": [
        {
          "internalType": "uint256",
          "name": "depositId",
          "type": "uint256"
        }
      ],
      "stateMutability": "payable",
      "type": "function"
    },
    {
      "inputs": [
        {
          "internalType": "address",
          "name": "",
          "type": "address"
        },
        {
          "internalType": "uint256",
          "name": "",
          "type": "uint256"
        }
      ],
      "name": "deposits",
      "outputs": [
        {
          "internalType": "address",
          "name": "user",
          "type": "address"
        },
        {
          "internalType": "address",
          "name": "nftContract",
          "type": "address"
        },
        {
          "internalType": "uint256",
          "name": "endTime",
          "type": "uint256"
        }
      ],
      "stateMutability": "view",
      "type": "function"
    },
    {
      "inputs": [
        {
          "internalType": "address",
          "name": "",
          "type": "address"
        }
      ],
      "name": "executors",
      "outputs": [
        {
          "internalType": "bool",
          "name": "",
          "type": "bool"
        }
      ],
      "stateMutability": "view",
      "type": "function"
    },
    {
      "inputs": [],
      "name": "owner",
      "outputs": [
        {
          "internalType": "address",
          "name": "",
          "type": "address"
        }
      ],
      "stateMutability": "view",
      "type": "function"
    },
    {
      "inputs": [
        {
          "internalType": "address",
          "name": "executor",
          "type": "address"
        },
        {
          "internalType": "uint256",
          "name": "depositId",
          "type": "uint256"
        },
        {
          "internalType": "address",
          "name": "to",
          "type": "address"
        }
      ],
      "name": "redeem",
      "outputs": [],
      "stateMutability": "nonpayable",
      "type": "function"
    },
    {
      "inputs": [],
      "name": "renounceOwnership",
      "outputs": [],
      "stateMutability": "nonpayable",
      "type": "function"
    },
    {
      "inputs": [
        {
          "internalType": "address",
          "name": "executor",
          "type": "address"
        }
      ],
      "name": "setExecutor",
      "outputs": [],
      "stateMutability": "nonpayable",
      "type": "function"
    },
    {
      "inputs": [
        {
          "internalType": "address",
          "name": "newOwner",
          "type": "address"
        }
      ],
      "name": "transferOwnership",
      "outputs": [],
      "stateMutability": "nonpayable",
      "type": "function"
    },
    {
      "inputs": [
        {
          "internalType": "uint256",
          "name": "depositId",
          "type": "uint256"
        },
        {
          "internalType": "address",
          "name": "to",
          "type": "address"
        }
      ],
      "name": "withdraw",
      "outputs": [],
      "stateMutability": "nonpayable",
      "type": "function"
    }
  ],
  "transactionHash": "0xf76a95e1779ce3054774e298571d69e417295d73de6efd11f104d22977ddf6a9",
  "args": [
    "0xF2A09f37aA6FEd4018922Cc9f3ac8f77c8Fb1Cbd",
    "0x5865bc83CC1594DCd18550c31f6b05C6F444F18e"
  ],
  "numDeployments": 1,
  "solcInputHash": "dafaf49e15d0a42c80ca08da769d34e6",
  "bytecode": "0x60806040523480156200001157600080fd5b5060405162001da038038062001da08339810160408190526200003491620000d0565b6200003f3362000080565b6001600160a01b039182166000908152600360205260409020805460ff1916600117905560028054919092166001600160a01b031990911617905562000128565b600080546001600160a01b038381166001600160a01b0319831681178455604051919092169283917f8be0079c531659141344cd1fd0a4f28419497f9722a3daafe3b4186f6b6457e09190a35050565b60008060408385031215620000e457600080fd5b8251620000f1816200010f565b602084015190925062000104816200010f565b809150509250929050565b6001600160a01b03811681146200012557600080fd5b50565b611c6880620001386000396000f3fe6080604052600436106100b05760003560e01c80638da5cb5b11610069578063d6d681771161004e578063d6d68177146101de578063f2fde38b14610271578063f551bf201461029157600080fd5b80638da5cb5b146101525780639ac2a0111461019e57600080fd5b8063443cf7871161009a578063443cf787146100f75780635c833bfd1461011d578063715018a61461013d57600080fd5b8062f714ce146100b55780631c3c0ea8146100d7575b600080fd5b3480156100c157600080fd5b506100d56100d0366004611a3b565b6102be565b005b3480156100e357600080fd5b506100d56100f23660046118d9565b610835565b61010a61010536600461191a565b610905565b6040519081526020015b60405180910390f35b34801561012957600080fd5b506100d56101383660046119d7565b610e7c565b34801561014957600080fd5b506100d561156a565b34801561015e57600080fd5b5060005473ffffffffffffffffffffffffffffffffffffffff165b60405173ffffffffffffffffffffffffffffffffffffffff9091168152602001610114565b3480156101aa57600080fd5b506101ce6101b93660046118d9565b60036020526000908152604090205460ff1681565b6040519015158152602001610114565b3480156101ea57600080fd5b5061023e6101f93660046119ab565b6004602081815260009384526040808520909152918352912080546001820154919092015473ffffffffffffffffffffffffffffffffffffffff928316929091169083565b6040805173ffffffffffffffffffffffffffffffffffffffff948516815293909216602084015290820152606001610114565b34801561027d57600080fd5b506100d561028c3660046118d9565b6115f7565b34801561029d57600080fd5b506002546101799073ffffffffffffffffffffffffffffffffffffffff1681565b3360009081526003602052604090205460ff161515600114610341576040517f08c379a000000000000000000000000000000000000000000000000000000000815260206004820152601360248201527f4c75636b733a206f6e6c794578656375746f720000000000000000000000000060448201526064015b60405180910390fd5b3360009081526004602090815260408083208584529091529020600201546103c5576040517f08c379a000000000000000000000000000000000000000000000000000000000815260206004820152601160248201527f496e76616c6964206465706f73697449640000000000000000000000000000006044820152606401610338565b336000908152600460209081526040808320858452825280832060018101546002909101805483518186028101860190945280845273ffffffffffffffffffffffffffffffffffffffff909216949390919083018282801561044657602002820191906000526020600020905b815481526020019060010190808311610432575b50503360009081526004602090815260408083208b84528252808320600301805482518185028101850190935280835297985092969095509193509091508301828280156104b357602002820191906000526020600020905b81548152602001906001019080831161049f575b50503360009081526004602090815260408083208c8452909152812080547fffffffffffffffffffffffff0000000000000000000000000000000000000000908116825560018201805490911690559495509250610517915050600283018261179c565b61052560038301600061179c565b600482016000905550506000600260009054906101000a900473ffffffffffffffffffffffffffffffffffffffff1673ffffffffffffffffffffffffffffffffffffffff166333a948316040518163ffffffff1660e01b815260040160206040518083038186803b15801561059957600080fd5b505afa1580156105ad573d6000803e3d6000fd5b505050506040513d601f19601f820116820180604052508101906105d191906118fd565b905060005b83518110156107c15760008273ffffffffffffffffffffffffffffffffffffffff16635817816886848151811061060f5761060f611bb2565b60200260200101516040518263ffffffff1660e01b815260040161063591815260200190565b60206040518083038186803b15801561064d57600080fd5b505afa158015610661573d6000803e3d6000fd5b505050506040513d601f19601f8201168201806040525081019061068591906118fd565b905073ffffffffffffffffffffffffffffffffffffffff81163014610706576040517f08c379a000000000000000000000000000000000000000000000000000000000815260206004820152601960248201527f50756e6b733a2070726f7879206973206e6f74206f776e6572000000000000006044820152606401610338565b8273ffffffffffffffffffffffffffffffffffffffff16638b72a2ec8887858151811061073557610735611bb2565b60200260200101516040518363ffffffff1660e01b815260040161077b92919073ffffffffffffffffffffffffffffffffffffffff929092168252602082015260400190565b600060405180830381600087803b15801561079557600080fd5b505af11580156107a9573d6000803e3d6000fd5b505050505080806107b990611b52565b9150506105d6565b508473ffffffffffffffffffffffffffffffffffffffff163373ffffffffffffffffffffffffffffffffffffffff167f1aa1975ec78254d9555afd3cb8a24bc7ed7cca61a92954e019b7d07e9c31626a888787876040516108259493929190611aa6565b60405180910390a3505050505050565b60005473ffffffffffffffffffffffffffffffffffffffff1633146108b6576040517f08c379a000000000000000000000000000000000000000000000000000000000815260206004820181905260248201527f4f776e61626c653a2063616c6c6572206973206e6f7420746865206f776e65726044820152606401610338565b73ffffffffffffffffffffffffffffffffffffffff16600090815260036020526040902080547fffffffffffffffffffffffffffffffffffffffffffffffffffffffffffffff00166001179055565b3360009081526003602052604081205460ff161515600114610983576040517f08c379a000000000000000000000000000000000000000000000000000000000815260206004820152601360248201527f4c75636b733a206f6e6c794578656375746f72000000000000000000000000006044820152606401610338565b6002546040517f9aeecea500000000000000000000000000000000000000000000000000000000815273ffffffffffffffffffffffffffffffffffffffff878116600483015290911690639aeecea59060240160206040518083038186803b1580156109ee57600080fd5b505afa158015610a02573d6000803e3d6000fd5b505050506040513d601f19601f82011682018060405250810190610a269190611a19565b610a8c576040517f08c379a000000000000000000000000000000000000000000000000000000000815260206004820152601060248201527f50756e6b733a206e6f742050756e6b73000000000000000000000000000000006044820152606401610338565b600254604080517f33a94831000000000000000000000000000000000000000000000000000000008152905160009273ffffffffffffffffffffffffffffffffffffffff16916333a94831916004808301926020929190829003018186803b158015610af757600080fd5b505afa158015610b0b573d6000803e3d6000fd5b505050506040513d601f19601f82011682018060405250810190610b2f91906118fd565b905060005b8551811015610d145760008273ffffffffffffffffffffffffffffffffffffffff166358178168888481518110610b6d57610b6d611bb2565b60200260200101516040518263ffffffff1660e01b8152600401610b9391815260200190565b60206040518083038186803b158015610bab57600080fd5b505afa158015610bbf573d6000803e3d6000fd5b505050506040513d601f19601f82011682018060405250810190610be391906118fd565b90508873ffffffffffffffffffffffffffffffffffffffff168173ffffffffffffffffffffffffffffffffffffffff1614610c7a576040517f08c379a000000000000000000000000000000000000000000000000000000000815260206004820152601d60248201527f50756e6b733a206e6f74206f776e6572206f662070756e6b496e6465780000006044820152606401610338565b8273ffffffffffffffffffffffffffffffffffffffff16638264fe98888481518110610ca857610ca8611bb2565b60200260200101516040518263ffffffff1660e01b8152600401610cce91815260200190565b600060405180830381600087803b158015610ce857600080fd5b505af1158015610cfc573d6000803e3d6000fd5b50505050508080610d0c90611b52565b915050610b34565b50610d23600180546001019055565b6001546040805160a08101825273ffffffffffffffffffffffffffffffffffffffff808b16825289811660208084019182528385018b8152606085018b9052608085018a905233600090815260048352868120888252835295909520845181549085167fffffffffffffffffffffffff0000000000000000000000000000000000000000918216178255925160018201805491909516931692909217909255925180519496509193610ddb92600285019201906117ba565b5060608201518051610df79160038401916020909101906117ba565b50608082015181600401559050508673ffffffffffffffffffffffffffffffffffffffff163373ffffffffffffffffffffffffffffffffffffffff167f347f2f3ccace771076d0730d10c78c9e198450059b63d2a0fa243110219604248489898989604051610e6a959493929190611af8565b60405180910390a35095945050505050565b60005473ffffffffffffffffffffffffffffffffffffffff163314610efd576040517f08c379a000000000000000000000000000000000000000000000000000000000815260206004820181905260248201527f4f776e61626c653a2063616c6c6572206973206e6f7420746865206f776e65726044820152606401610338565b73ffffffffffffffffffffffffffffffffffffffff83166000908152600460209081526040808320858452909152902060020154610f97576040517f08c379a000000000000000000000000000000000000000000000000000000000815260206004820152601160248201527f496e76616c6964206465706f73697449640000000000000000000000000000006044820152606401610338565b73ffffffffffffffffffffffffffffffffffffffff8316600090815260046020818152604080842086855290915290912001544211611032576040517f08c379a000000000000000000000000000000000000000000000000000000000815260206004820152601260248201527f4e6f742074696d6520746f2072656465656d00000000000000000000000000006044820152606401610338565b73ffffffffffffffffffffffffffffffffffffffff83811660009081526004602090815260408083208684529091529020548116908216146110d0576040517f08c379a000000000000000000000000000000000000000000000000000000000815260206004820152601160248201527f496e76616c69642072656465656d20746f0000000000000000000000000000006044820152606401610338565b73ffffffffffffffffffffffffffffffffffffffff838116600090815260046020908152604080832086845282528083206001810154600290910180548351818602810186019094528084529190951694919283018282801561115257602002820191906000526020600020905b81548152602001906001019080831161113e575b5050505073ffffffffffffffffffffffffffffffffffffffff87166000908152600460209081526040808320898452825280832060030180548251818502810185019093528083529596509294909350908301828280156111d257602002820191906000526020600020905b8154815260200190600101908083116111be575b5050505073ffffffffffffffffffffffffffffffffffffffff881660009081526004602090815260408083208a8452909152812080547fffffffffffffffffffffffff000000000000000000000000000000000000000090811682556001820180549091169055929350905061124b600283018261179c565b61125960038301600061179c565b600482016000905550506000600260009054906101000a900473ffffffffffffffffffffffffffffffffffffffff1673ffffffffffffffffffffffffffffffffffffffff166333a948316040518163ffffffff1660e01b815260040160206040518083038186803b1580156112cd57600080fd5b505afa1580156112e1573d6000803e3d6000fd5b505050506040513d601f19601f8201168201806040525081019061130591906118fd565b905060005b83518110156114f55760008273ffffffffffffffffffffffffffffffffffffffff16635817816886848151811061134357611343611bb2565b60200260200101516040518263ffffffff1660e01b815260040161136991815260200190565b60206040518083038186803b15801561138157600080fd5b505afa158015611395573d6000803e3d6000fd5b505050506040513d601f19601f820116820180604052508101906113b991906118fd565b905073ffffffffffffffffffffffffffffffffffffffff8116301461143a576040517f08c379a000000000000000000000000000000000000000000000000000000000815260206004820152601960248201527f50756e6b733a2070726f7879206973206e6f74206f776e6572000000000000006044820152606401610338565b8273ffffffffffffffffffffffffffffffffffffffff16638b72a2ec8887858151811061146957611469611bb2565b60200260200101516040518363ffffffff1660e01b81526004016114af92919073ffffffffffffffffffffffffffffffffffffffff929092168252602082015260400190565b600060405180830381600087803b1580156114c957600080fd5b505af11580156114dd573d6000803e3d6000fd5b505050505080806114ed90611b52565b91505061130a565b508473ffffffffffffffffffffffffffffffffffffffff163373ffffffffffffffffffffffffffffffffffffffff167f419f05693ec28c30b2a3f2378868ffd6e66384945f6de621f1aef8bb91e30585888787876040516115599493929190611aa6565b60405180910390a350505050505050565b60005473ffffffffffffffffffffffffffffffffffffffff1633146115eb576040517f08c379a000000000000000000000000000000000000000000000000000000000815260206004820181905260248201527f4f776e61626c653a2063616c6c6572206973206e6f7420746865206f776e65726044820152606401610338565b6115f56000611727565b565b60005473ffffffffffffffffffffffffffffffffffffffff163314611678576040517f08c379a000000000000000000000000000000000000000000000000000000000815260206004820181905260248201527f4f776e61626c653a2063616c6c6572206973206e6f7420746865206f776e65726044820152606401610338565b73ffffffffffffffffffffffffffffffffffffffff811661171b576040517f08c379a000000000000000000000000000000000000000000000000000000000815260206004820152602660248201527f4f776e61626c653a206e6577206f776e657220697320746865207a65726f206160448201527f64647265737300000000000000000000000000000000000000000000000000006064820152608401610338565b61172481611727565b50565b6000805473ffffffffffffffffffffffffffffffffffffffff8381167fffffffffffffffffffffffff0000000000000000000000000000000000000000831681178455604051919092169283917f8be0079c531659141344cd1fd0a4f28419497f9722a3daafe3b4186f6b6457e09190a35050565b50805460008255906000526020600020908101906117249190611805565b8280548282559060005260206000209081019282156117f5579160200282015b828111156117f55782518255916020019190600101906117da565b50611801929150611805565b5090565b5b808211156118015760008155600101611806565b600082601f83011261182b57600080fd5b8135602067ffffffffffffffff8083111561184857611848611be1565b8260051b6040517fffffffffffffffffffffffffffffffffffffffffffffffffffffffffffffffe0603f8301168101818110848211171561188b5761188b611be1565b604052848152838101925086840182880185018910156118aa57600080fd5b600092505b858310156118cd5780358452928401926001929092019184016118af565b50979650505050505050565b6000602082840312156118eb57600080fd5b81356118f681611c10565b9392505050565b60006020828403121561190f57600080fd5b81516118f681611c10565b600080600080600060a0868803121561193257600080fd5b853561193d81611c10565b9450602086013561194d81611c10565b9350604086013567ffffffffffffffff8082111561196a57600080fd5b61197689838a0161181a565b9450606088013591508082111561198c57600080fd5b506119998882890161181a565b95989497509295608001359392505050565b600080604083850312156119be57600080fd5b82356119c981611c10565b946020939093013593505050565b6000806000606084860312156119ec57600080fd5b83356119f781611c10565b9250602084013591506040840135611a0e81611c10565b809150509250925092565b600060208284031215611a2b57600080fd5b815180151581146118f657600080fd5b60008060408385031215611a4e57600080fd5b823591506020830135611a6081611c10565b809150509250929050565b600081518084526020808501945080840160005b83811015611a9b57815187529582019590820190600101611a7f565b509495945050505050565b84815273ffffffffffffffffffffffffffffffffffffffff84166020820152608060408201526000611adb6080830185611a6b565b8281036060840152611aed8185611a6b565b979650505050505050565b85815273ffffffffffffffffffffffffffffffffffffffff8516602082015260a060408201526000611b2d60a0830186611a6b565b8281036060840152611b3f8186611a6b565b9150508260808301529695505050505050565b60007fffffffffffffffffffffffffffffffffffffffffffffffffffffffffffffffff821415611bab577f4e487b7100000000000000000000000000000000000000000000000000000000600052601160045260246000fd5b5060010190565b7f4e487b7100000000000000000000000000000000000000000000000000000000600052603260045260246000fd5b7f4e487b7100000000000000000000000000000000000000000000000000000000600052604160045260246000fd5b73ffffffffffffffffffffffffffffffffffffffff8116811461172457600080fdfea2646970667358221220cc7c4d33e9edfee21c375f771810393a1668245bfc0e70a64c3b69c75c19bff164736f6c63430008060033",
  "devdoc": {
    "kind": "dev",
    "methods": {
      "constructor": {
        "params": {
          "_executor": "address"
        }
      },
      "owner()": {
        "details": "Returns the address of the current owner."
      },
      "renounceOwnership()": {
        "details": "Leaves the contract without owner. It will not be possible to call `onlyOwner` functions anymore. Can only be called by the current owner. NOTE: Renouncing ownership will leave the contract without an owner, thereby removing any functionality that is only available to the owner."
      },
      "transferOwnership(address)": {
        "details": "Transfers ownership of the contract to a new account (`newOwner`). Can only be called by the current owner."
      }
    },
    "version": 1
  },
  "userdoc": {
    "kind": "user",
    "methods": {
      "constructor": {
        "notice": "Constructor"
      },
      "redeem(address,uint256,address)": {
        "notice": "for enmergency case for user to redeem in case of cross chain withdraw suck nft, enable to redeem back to seller nft after endTime"
      }
    },
    "version": 1
  },
  "storageLayout": {
    "storage": [
      {
        "astId": 917,
        "contract": "contracts/ProxyCryptoPunks.sol:ProxyCryptoPunks",
        "label": "_owner",
        "offset": 0,
        "slot": "0",
        "type": "t_address"
      },
      {
        "astId": 8192,
        "contract": "contracts/ProxyCryptoPunks.sol:ProxyCryptoPunks",
        "label": "_depositIds",
        "offset": 0,
        "slot": "1",
        "type": "t_struct(Counter)4842_storage"
      },
      {
        "astId": 8195,
        "contract": "contracts/ProxyCryptoPunks.sol:ProxyCryptoPunks",
        "label": "HELPER",
        "offset": 0,
        "slot": "2",
        "type": "t_contract(ILucksHelper)10551"
      },
      {
        "astId": 8199,
        "contract": "contracts/ProxyCryptoPunks.sol:ProxyCryptoPunks",
        "label": "executors",
        "offset": 0,
        "slot": "3",
        "type": "t_mapping(t_address,t_bool)"
      },
      {
        "astId": 8206,
        "contract": "contracts/ProxyCryptoPunks.sol:ProxyCryptoPunks",
        "label": "deposits",
        "offset": 0,
        "slot": "4",
        "type": "t_mapping(t_address,t_mapping(t_uint256,t_struct(DepositNFT)10727_storage))"
      }
    ],
    "types": {
      "t_address": {
        "encoding": "inplace",
        "label": "address",
        "numberOfBytes": "20"
      },
      "t_array(t_uint256)dyn_storage": {
        "base": "t_uint256",
        "encoding": "dynamic_array",
        "label": "uint256[]",
        "numberOfBytes": "32"
      },
      "t_bool": {
        "encoding": "inplace",
        "label": "bool",
        "numberOfBytes": "1"
      },
      "t_contract(ILucksHelper)10551": {
        "encoding": "inplace",
        "label": "contract ILucksHelper",
        "numberOfBytes": "20"
      },
      "t_mapping(t_address,t_bool)": {
        "encoding": "mapping",
        "key": "t_address",
        "label": "mapping(address => bool)",
        "numberOfBytes": "32",
        "value": "t_bool"
      },
      "t_mapping(t_address,t_mapping(t_uint256,t_struct(DepositNFT)10727_storage))": {
        "encoding": "mapping",
        "key": "t_address",
        "label": "mapping(address => mapping(uint256 => struct DepositNFT))",
        "numberOfBytes": "32",
        "value": "t_mapping(t_uint256,t_struct(DepositNFT)10727_storage)"
      },
      "t_mapping(t_uint256,t_struct(DepositNFT)10727_storage)": {
        "encoding": "mapping",
        "key": "t_uint256",
        "label": "mapping(uint256 => struct DepositNFT)",
        "numberOfBytes": "32",
        "value": "t_struct(DepositNFT)10727_storage"
      },
      "t_struct(Counter)4842_storage": {
        "encoding": "inplace",
        "label": "struct Counters.Counter",
        "members": [
          {
            "astId": 4841,
            "contract": "contracts/ProxyCryptoPunks.sol:ProxyCryptoPunks",
            "label": "_value",
            "offset": 0,
            "slot": "0",
            "type": "t_uint256"
          }
        ],
        "numberOfBytes": "32"
      },
      "t_struct(DepositNFT)10727_storage": {
        "encoding": "inplace",
        "label": "struct DepositNFT",
        "members": [
          {
            "astId": 10716,
            "contract": "contracts/ProxyCryptoPunks.sol:ProxyCryptoPunks",
            "label": "user",
            "offset": 0,
            "slot": "0",
            "type": "t_address"
          },
          {
            "astId": 10718,
            "contract": "contracts/ProxyCryptoPunks.sol:ProxyCryptoPunks",
            "label": "nftContract",
            "offset": 0,
            "slot": "1",
            "type": "t_address"
          },
          {
            "astId": 10721,
            "contract": "contracts/ProxyCryptoPunks.sol:ProxyCryptoPunks",
            "label": "tokenIds",
            "offset": 0,
            "slot": "2",
            "type": "t_array(t_uint256)dyn_storage"
          },
          {
            "astId": 10724,
            "contract": "contracts/ProxyCryptoPunks.sol:ProxyCryptoPunks",
            "label": "amounts",
            "offset": 0,
            "slot": "3",
            "type": "t_array(t_uint256)dyn_storage"
          },
          {
            "astId": 10726,
            "contract": "contracts/ProxyCryptoPunks.sol:ProxyCryptoPunks",
            "label": "endTime",
            "offset": 0,
            "slot": "4",
            "type": "t_uint256"
          }
        ],
        "numberOfBytes": "160"
      },
      "t_uint256": {
        "encoding": "inplace",
        "label": "uint256",
        "numberOfBytes": "32"
      }
    }
  }
}