{
  "address": "0x071700178d82a838D6AB1639d97d5DFa2098f76E",
  "abi": [
    {
      "inputs": [
        {
          "internalType": "address[]",
          "name": "_acceptTokens",
          "type": "address[]"
        },
        {
          "internalType": "address",
          "name": "_recipient",
          "type": "address"
        },
        {
          "internalType": "uint256",
          "name": "_fee",
          "type": "uint256"
        },
        {
          "internalType": "contract ILucksExecutor",
          "name": "_executor",
          "type": "address"
        },
        {
          "internalType": "contract ILucksVRF",
          "name": "_vrf",
          "type": "address"
        },
        {
          "internalType": "contract ILucksGroup",
          "name": "_groups",
          "type": "address"
        },
        {
          "internalType": "contract ILucksPaymentStrategy",
          "name": "_strategy",
          "type": "address"
        },
        {
          "internalType": "contract ILucksAuto",
          "name": "_auto_close",
          "type": "address"
        },
        {
          "internalType": "contract ILucksAuto",
          "name": "_auto_draw",
          "type": "address"
        }
      ],
      "stateMutability": "nonpayable",
      "type": "constructor"
    },
    {
      "anonymous": false,
      "inputs": [
        {
          "indexed": true,
          "internalType": "address",
          "name": "previousOwner",
          "type": "address"
        },
        {
          "indexed": true,
          "internalType": "address",
          "name": "newOwner",
          "type": "address"
        }
      ],
      "name": "OwnershipTransferred",
      "type": "event"
    },
    {
      "inputs": [],
      "name": "AUTO_CLOSE",
      "outputs": [
        {
          "internalType": "contract ILucksAuto",
          "name": "",
          "type": "address"
        }
      ],
      "stateMutability": "view",
      "type": "function"
    },
    {
      "inputs": [],
      "name": "AUTO_DRAW",
      "outputs": [
        {
          "internalType": "contract ILucksAuto",
          "name": "",
          "type": "address"
        }
      ],
      "stateMutability": "view",
      "type": "function"
    },
    {
      "inputs": [],
      "name": "DRAW_DELAY_SEC",
      "outputs": [
        {
          "internalType": "uint32",
          "name": "",
          "type": "uint32"
        }
      ],
      "stateMutability": "view",
      "type": "function"
    },
    {
      "inputs": [],
      "name": "EXECUTOR",
      "outputs": [
        {
          "internalType": "contract ILucksExecutor",
          "name": "",
          "type": "address"
        }
      ],
      "stateMutability": "view",
      "type": "function"
    },
    {
      "inputs": [],
      "name": "GROUPS",
      "outputs": [
        {
          "internalType": "contract ILucksGroup",
          "name": "",
          "type": "address"
        }
      ],
      "stateMutability": "view",
      "type": "function"
    },
    {
      "inputs": [],
      "name": "MAX_PER_JOIN_NUM",
      "outputs": [
        {
          "internalType": "uint32",
          "name": "",
          "type": "uint32"
        }
      ],
      "stateMutability": "view",
      "type": "function"
    },
    {
      "inputs": [],
      "name": "PROXY_PUNKS",
      "outputs": [
        {
          "internalType": "contract IProxyNFTStation",
          "name": "",
          "type": "address"
        }
      ],
      "stateMutability": "view",
      "type": "function"
    },
    {
      "inputs": [],
      "name": "PUNKS",
      "outputs": [
        {
          "internalType": "contract IPunks",
          "name": "",
          "type": "address"
        }
      ],
      "stateMutability": "view",
      "type": "function"
    },
    {
      "inputs": [],
      "name": "STRATEGY",
      "outputs": [
        {
          "internalType": "contract ILucksPaymentStrategy",
          "name": "",
          "type": "address"
        }
      ],
      "stateMutability": "view",
      "type": "function"
    },
    {
      "inputs": [],
      "name": "VRF",
      "outputs": [
        {
          "internalType": "contract ILucksVRF",
          "name": "",
          "type": "address"
        }
      ],
      "stateMutability": "view",
      "type": "function"
    },
    {
      "inputs": [
        {
          "internalType": "address",
          "name": "",
          "type": "address"
        }
      ],
      "name": "acceptTokens",
      "outputs": [
        {
          "internalType": "bool",
          "name": "",
          "type": "bool"
        }
      ],
      "stateMutability": "view",
      "type": "function"
    },
    {
      "inputs": [
        {
          "internalType": "address",
          "name": "acceptToken",
          "type": "address"
        }
      ],
      "name": "checkAcceptToken",
      "outputs": [
        {
          "internalType": "bool",
          "name": "",
          "type": "bool"
        }
      ],
      "stateMutability": "view",
      "type": "function"
    },
    {
      "inputs": [
        {
          "internalType": "address",
          "name": "account",
          "type": "address"
        },
        {
          "internalType": "address",
          "name": "token",
          "type": "address"
        },
        {
          "internalType": "uint256",
          "name": "amount",
          "type": "uint256"
        }
      ],
      "name": "checkExclusive",
      "outputs": [
        {
          "internalType": "bool",
          "name": "",
          "type": "bool"
        }
      ],
      "stateMutability": "view",
      "type": "function"
    },
    {
      "inputs": [
        {
          "internalType": "address",
          "name": "user",
          "type": "address"
        },
        {
          "internalType": "uint256",
          "name": "taskId",
          "type": "uint256"
        },
        {
          "internalType": "uint32",
          "name": "num",
          "type": "uint32"
        },
        {
          "internalType": "string",
          "name": "note",
          "type": "string"
        }
      ],
      "name": "checkJoinTask",
      "outputs": [
        {
          "internalType": "bool",
          "name": "",
          "type": "bool"
        }
      ],
      "stateMutability": "view",
      "type": "function"
    },
    {
      "inputs": [
        {
          "internalType": "address",
          "name": "addr",
          "type": "address"
        }
      ],
      "name": "checkNFTContract",
      "outputs": [
        {
          "internalType": "bool",
          "name": "",
          "type": "bool"
        }
      ],
      "stateMutability": "view",
      "type": "function"
    },
    {
      "inputs": [
        {
          "internalType": "address",
          "name": "user",
          "type": "address"
        },
        {
          "components": [
            {
              "internalType": "address",
              "name": "seller",
              "type": "address"
            },
            {
              "internalType": "uint16",
              "name": "nftChainId",
              "type": "uint16"
            },
            {
              "internalType": "address",
              "name": "nftContract",
              "type": "address"
            },
            {
              "internalType": "uint256[]",
              "name": "tokenIds",
              "type": "uint256[]"
            },
            {
              "internalType": "uint256[]",
              "name": "tokenAmounts",
              "type": "uint256[]"
            },
            {
              "internalType": "address",
              "name": "acceptToken",
              "type": "address"
            },
            {
              "internalType": "enum TaskStatus",
              "name": "status",
              "type": "uint8"
            },
            {
              "internalType": "uint256",
              "name": "startTime",
              "type": "uint256"
            },
            {
              "internalType": "uint256",
              "name": "endTime",
              "type": "uint256"
            },
            {
              "internalType": "uint256",
              "name": "targetAmount",
              "type": "uint256"
            },
            {
              "internalType": "uint256",
              "name": "price",
              "type": "uint256"
            },
            {
              "internalType": "uint16",
              "name": "paymentStrategy",
              "type": "uint16"
            },
            {
              "components": [
                {
                  "internalType": "address",
                  "name": "token",
                  "type": "address"
                },
                {
                  "internalType": "uint256",
                  "name": "amount",
                  "type": "uint256"
                }
              ],
              "internalType": "struct ExclusiveToken",
              "name": "exclusiveToken",
              "type": "tuple"
            },
            {
              "internalType": "uint256",
              "name": "amountCollected",
              "type": "uint256"
            },
            {
              "internalType": "uint256",
              "name": "depositId",
              "type": "uint256"
            }
          ],
          "internalType": "struct TaskItem",
          "name": "item",
          "type": "tuple"
        }
      ],
      "name": "checkNewTask",
      "outputs": [
        {
          "internalType": "bool",
          "name": "",
          "type": "bool"
        }
      ],
      "stateMutability": "view",
      "type": "function"
    },
    {
      "inputs": [
        {
          "components": [
            {
              "internalType": "uint16",
              "name": "chainId",
              "type": "uint16"
            },
            {
              "internalType": "string",
              "name": "title",
              "type": "string"
            },
            {
              "internalType": "string",
              "name": "note",
              "type": "string"
            }
          ],
          "internalType": "struct TaskExt",
          "name": "ext",
          "type": "tuple"
        }
      ],
      "name": "checkNewTaskExt",
      "outputs": [
        {
          "internalType": "bool",
          "name": "",
          "type": "bool"
        }
      ],
      "stateMutability": "pure",
      "type": "function"
    },
    {
      "inputs": [
        {
          "components": [
            {
              "internalType": "address",
              "name": "seller",
              "type": "address"
            },
            {
              "internalType": "uint16",
              "name": "nftChainId",
              "type": "uint16"
            },
            {
              "internalType": "address",
              "name": "nftContract",
              "type": "address"
            },
            {
              "internalType": "uint256[]",
              "name": "tokenIds",
              "type": "uint256[]"
            },
            {
              "internalType": "uint256[]",
              "name": "tokenAmounts",
              "type": "uint256[]"
            },
            {
              "internalType": "address",
              "name": "acceptToken",
              "type": "address"
            },
            {
              "internalType": "enum TaskStatus",
              "name": "status",
              "type": "uint8"
            },
            {
              "internalType": "uint256",
              "name": "startTime",
              "type": "uint256"
            },
            {
              "internalType": "uint256",
              "name": "endTime",
              "type": "uint256"
            },
            {
              "internalType": "uint256",
              "name": "targetAmount",
              "type": "uint256"
            },
            {
              "internalType": "uint256",
              "name": "price",
              "type": "uint256"
            },
            {
              "internalType": "uint16",
              "name": "paymentStrategy",
              "type": "uint16"
            },
            {
              "components": [
                {
                  "internalType": "address",
                  "name": "token",
                  "type": "address"
                },
                {
                  "internalType": "uint256",
                  "name": "amount",
                  "type": "uint256"
                }
              ],
              "internalType": "struct ExclusiveToken",
              "name": "exclusiveToken",
              "type": "tuple"
            },
            {
              "internalType": "uint256",
              "name": "amountCollected",
              "type": "uint256"
            },
            {
              "internalType": "uint256",
              "name": "depositId",
              "type": "uint256"
            }
          ],
          "internalType": "struct TaskItem",
          "name": "item",
          "type": "tuple"
        }
      ],
      "name": "checkNewTaskRemote",
      "outputs": [
        {
          "internalType": "bool",
          "name": "",
          "type": "bool"
        }
      ],
      "stateMutability": "view",
      "type": "function"
    },
    {
      "inputs": [
        {
          "internalType": "uint32",
          "name": "num",
          "type": "uint32"
        }
      ],
      "name": "checkPerJoinLimit",
      "outputs": [
        {
          "internalType": "bool",
          "name": "",
          "type": "bool"
        }
      ],
      "stateMutability": "view",
      "type": "function"
    },
    {
      "inputs": [
        {
          "internalType": "address",
          "name": "addr",
          "type": "address"
        },
        {
          "internalType": "address",
          "name": "seller",
          "type": "address"
        },
        {
          "internalType": "uint256[]",
          "name": "tokenIds",
          "type": "uint256[]"
        },
        {
          "internalType": "uint256[]",
          "name": "amounts",
          "type": "uint256[]"
        }
      ],
      "name": "checkTokenListing",
      "outputs": [
        {
          "internalType": "bool",
          "name": "",
          "type": "bool"
        },
        {
          "internalType": "string",
          "name": "",
          "type": "string"
        }
      ],
      "stateMutability": "view",
      "type": "function"
    },
    {
      "inputs": [],
      "name": "feeRecipient",
      "outputs": [
        {
          "internalType": "address",
          "name": "",
          "type": "address"
        }
      ],
      "stateMutability": "view",
      "type": "function"
    },
    {
      "inputs": [],
      "name": "getAutoClose",
      "outputs": [
        {
          "internalType": "contract ILucksAuto",
          "name": "",
          "type": "address"
        }
      ],
      "stateMutability": "view",
      "type": "function"
    },
    {
      "inputs": [],
      "name": "getAutoDraw",
      "outputs": [
        {
          "internalType": "contract ILucksAuto",
          "name": "",
          "type": "address"
        }
      ],
      "stateMutability": "view",
      "type": "function"
    },
    {
      "inputs": [],
      "name": "getDrawDelay",
      "outputs": [
        {
          "internalType": "uint32",
          "name": "",
          "type": "uint32"
        }
      ],
      "stateMutability": "view",
      "type": "function"
    },
    {
      "inputs": [],
      "name": "getGROUPS",
      "outputs": [
        {
          "internalType": "contract ILucksGroup",
          "name": "",
          "type": "address"
        }
      ],
      "stateMutability": "view",
      "type": "function"
    },
    {
      "inputs": [
        {
          "internalType": "address",
          "name": "token",
          "type": "address"
        }
      ],
      "name": "getMinTargetLimit",
      "outputs": [
        {
          "internalType": "uint256",
          "name": "",
          "type": "uint256"
        }
      ],
      "stateMutability": "view",
      "type": "function"
    },
    {
      "inputs": [],
      "name": "getProtocolFee",
      "outputs": [
        {
          "internalType": "uint256",
          "name": "",
          "type": "uint256"
        }
      ],
      "stateMutability": "view",
      "type": "function"
    },
    {
      "inputs": [],
      "name": "getProtocolFeeRecipient",
      "outputs": [
        {
          "internalType": "address",
          "name": "",
          "type": "address"
        }
      ],
      "stateMutability": "view",
      "type": "function"
    },
    {
      "inputs": [],
      "name": "getProxyPunks",
      "outputs": [
        {
          "internalType": "contract IProxyNFTStation",
          "name": "",
          "type": "address"
        }
      ],
      "stateMutability": "view",
      "type": "function"
    },
    {
      "inputs": [],
      "name": "getPunks",
      "outputs": [
        {
          "internalType": "contract IPunks",
          "name": "",
          "type": "address"
        }
      ],
      "stateMutability": "view",
      "type": "function"
    },
    {
      "inputs": [],
      "name": "getSTRATEGY",
      "outputs": [
        {
          "internalType": "contract ILucksPaymentStrategy",
          "name": "",
          "type": "address"
        }
      ],
      "stateMutability": "view",
      "type": "function"
    },
    {
      "inputs": [],
      "name": "getVRF",
      "outputs": [
        {
          "internalType": "contract ILucksVRF",
          "name": "",
          "type": "address"
        }
      ],
      "stateMutability": "view",
      "type": "function"
    },
    {
      "inputs": [
        {
          "internalType": "address",
          "name": "nftContract",
          "type": "address"
        }
      ],
      "name": "isPunks",
      "outputs": [
        {
          "internalType": "bool",
          "name": "",
          "type": "bool"
        }
      ],
      "stateMutability": "view",
      "type": "function"
    },
    {
      "inputs": [
        {
          "internalType": "address",
          "name": "",
          "type": "address"
        }
      ],
      "name": "minTargetAmount",
      "outputs": [
        {
          "internalType": "uint256",
          "name": "",
          "type": "uint256"
        }
      ],
      "stateMutability": "view",
      "type": "function"
    },
    {
      "inputs": [
        {
          "internalType": "address",
          "name": "",
          "type": "address"
        }
      ],
      "name": "operators",
      "outputs": [
        {
          "internalType": "bool",
          "name": "",
          "type": "bool"
        }
      ],
      "stateMutability": "view",
      "type": "function"
    },
    {
      "inputs": [],
      "name": "owner",
      "outputs": [
        {
          "internalType": "address",
          "name": "",
          "type": "address"
        }
      ],
      "stateMutability": "view",
      "type": "function"
    },
    {
      "inputs": [],
      "name": "protocolFee",
      "outputs": [
        {
          "internalType": "uint256",
          "name": "",
          "type": "uint256"
        }
      ],
      "stateMutability": "view",
      "type": "function"
    },
    {
      "inputs": [],
      "name": "renounceOwnership",
      "outputs": [],
      "stateMutability": "nonpayable",
      "type": "function"
    },
    {
      "inputs": [
        {
          "internalType": "address[]",
          "name": "tokens",
          "type": "address[]"
        },
        {
          "internalType": "bool",
          "name": "enable",
          "type": "bool"
        }
      ],
      "name": "setAcceptTokens",
      "outputs": [],
      "stateMutability": "nonpayable",
      "type": "function"
    },
    {
      "inputs": [
        {
          "internalType": "uint32",
          "name": "second",
          "type": "uint32"
        }
      ],
      "name": "setDrawDelay",
      "outputs": [],
      "stateMutability": "nonpayable",
      "type": "function"
    },
    {
      "inputs": [
        {
          "internalType": "contract ILucksExecutor",
          "name": "_executor",
          "type": "address"
        }
      ],
      "name": "setExecutor",
      "outputs": [],
      "stateMutability": "nonpayable",
      "type": "function"
    },
    {
      "inputs": [
        {
          "internalType": "uint32",
          "name": "num",
          "type": "uint32"
        }
      ],
      "name": "setJoinLimitNum",
      "outputs": [],
      "stateMutability": "nonpayable",
      "type": "function"
    },
    {
      "inputs": [
        {
          "internalType": "contract ILucksAuto",
          "name": "_auto_close",
          "type": "address"
        },
        {
          "internalType": "contract ILucksAuto",
          "name": "_auto_draw",
          "type": "address"
        }
      ],
      "name": "setLucksAuto",
      "outputs": [],
      "stateMutability": "nonpayable",
      "type": "function"
    },
    {
      "inputs": [
        {
          "internalType": "contract ILucksGroup",
          "name": "addr",
          "type": "address"
        }
      ],
      "name": "setLucksGroup",
      "outputs": [],
      "stateMutability": "nonpayable",
      "type": "function"
    },
    {
      "inputs": [
        {
          "internalType": "contract ILucksVRF",
          "name": "addr",
          "type": "address"
        }
      ],
      "name": "setLucksVRF",
      "outputs": [],
      "stateMutability": "nonpayable",
      "type": "function"
    },
    {
      "inputs": [
        {
          "internalType": "address[]",
          "name": "tokens",
          "type": "address[]"
        },
        {
          "internalType": "uint256[]",
          "name": "amounts",
          "type": "uint256[]"
        }
      ],
      "name": "setMinTargetAmount",
      "outputs": [],
      "stateMutability": "nonpayable",
      "type": "function"
    },
    {
      "inputs": [
        {
          "internalType": "address",
          "name": "addr",
          "type": "address"
        },
        {
          "internalType": "bool",
          "name": "enable",
          "type": "bool"
        }
      ],
      "name": "setOperator",
      "outputs": [],
      "stateMutability": "nonpayable",
      "type": "function"
    },
    {
      "inputs": [
        {
          "internalType": "contract ILucksPaymentStrategy",
          "name": "addr",
          "type": "address"
        }
      ],
      "name": "setPaymentStrategy",
      "outputs": [],
      "stateMutability": "nonpayable",
      "type": "function"
    },
    {
      "inputs": [
        {
          "internalType": "uint256",
          "name": "fee",
          "type": "uint256"
        }
      ],
      "name": "setProtocolFee",
      "outputs": [],
      "stateMutability": "nonpayable",
      "type": "function"
    },
    {
      "inputs": [
        {
          "internalType": "address",
          "name": "addr",
          "type": "address"
        }
      ],
      "name": "setProtocolFeeRecipient",
      "outputs": [],
      "stateMutability": "nonpayable",
      "type": "function"
    },
    {
      "inputs": [
        {
          "internalType": "contract IPunks",
          "name": "punks",
          "type": "address"
        },
        {
          "internalType": "contract IProxyNFTStation",
          "name": "proxyPunks",
          "type": "address"
        }
      ],
      "name": "setPunks",
      "outputs": [],
      "stateMutability": "nonpayable",
      "type": "function"
    },
    {
      "inputs": [
        {
          "internalType": "address",
          "name": "newOwner",
          "type": "address"
        }
      ],
      "name": "transferOwnership",
      "outputs": [],
      "stateMutability": "nonpayable",
      "type": "function"
    }
  ],
  "transactionHash": "0xe2b0508757e5af884d78e6d79fc7599fd9ba541b2802ba74603cdf15531b4803",
  "args": [
    [
      "0x0000000000000000000000000000000000000000"
    ],
    "0x5b770F460978C456d69bC46463dfda71FEEE60AD",
    200,
    "0x51f57486F8b09Df7b37Ee78821E19d566B8dEd3d",
    "0xA39D630eFE179f65676129b8eEcf605B7b8e909b",
    "0xF71293ef83730Fa0b48668f85981611E111A81Dd",
    "0xAD4F94bcBA9b0a63BBa6Df8B3F8F21580A06B3f5",
    "0x44872da163EDD572fca747c83B0D2BB24f50C8De",
    "0x04cd20a41465C74a1e88c706812430C0adBFd1DF"
  ],
  "numDeployments": 1,
  "solcInputHash": "dafaf49e15d0a42c80ca08da769d34e6",
  "bytecode": "0x608060405260098054600160a01b600160e01b03191664078000027160a41b17905560c8600a553480156200003357600080fd5b5060405162003c5b38038062003c5b833981016040819052620000569162000239565b6200006133620000f0565b600980546001600160a01b03199081166001600160a01b038b811691909117909255600a89905560018054821689841617815560028054831689851617905560038054831688851617905560048054831687851617905560058054831686851617905560068054909216928416929092179055620000e1908a9062000140565b505050505050505050620003fe565b600080546001600160a01b038381166001600160a01b0319831681178455604051919092169283917f8be0079c531659141344cd1fd0a4f28419497f9722a3daafe3b4186f6b6457e09190a35050565b6000546001600160a01b0316331480620001695750336000908152600b602052604090205460ff165b620001a95760405162461bcd60e51b815260206004820152600c60248201526b37b7363ca7b832b930ba37b960a11b604482015260640160405180910390fd5b60005b8251811015620002175781600c6000858481518110620001d057620001d0620003d2565b6020908102919091018101516001600160a01b03168252810191909152604001600020805460ff1916911515919091179055806200020e81620003a8565b915050620001ac565b505050565b80516001600160a01b03811681146200023457600080fd5b919050565b60008060008060008060008060006101208a8c0312156200025957600080fd5b89516001600160401b03808211156200027157600080fd5b818c0191508c601f8301126200028657600080fd5b8151818111156200029b576200029b620003e8565b604051601f19603f8360051b011681018181108482111715620002c257620002c2620003e8565b8060405250809250818152602081019250602084018f60208460051b8701011115620002ed57600080fd5b600094505b828510156200031c5762000306816200021c565b84526001949094019360209384019301620002f2565b509b50620003319250505060208b016200021c565b975060408a015196506200034860608b016200021c565b95506200035860808b016200021c565b94506200036860a08b016200021c565b93506200037860c08b016200021c565b92506200038860e08b016200021c565b9150620003996101008b016200021c565b90509295985092959850929598565b6000600019821415620003cb57634e487b7160e01b600052601160045260246000fd5b5060010190565b634e487b7160e01b600052603260045260246000fd5b634e487b7160e01b600052604160045260246000fd5b61384d806200040e6000396000f3fe608060405234801561001057600080fd5b506004361061034c5760003560e01c80637f994c19116101bd578063b0e21e8a116100f9578063d45d76b3116100a2578063e67aa0d11161007c578063e67aa0d114610899578063e7e46def146108c5578063edd3159d146108d8578063f2fde38b146108f657600080fd5b8063d45d76b314610850578063d48ed1a514610873578063e521cb921461088657600080fd5b8063cb9b4e12116100d3578063cb9b4e12146107fd578063d12c51f814610810578063d3a01b0a1461083057600080fd5b8063b0e21e8a146107c3578063b19e035f146107cc578063c735fd74146107ea57600080fd5b80639571581c116101665780639b7ed979116101405780639b7ed979146107755780639ef4fdd514610788578063a126285b1461079b578063a5a41031146107bb57600080fd5b80639571581c146107315780639861b7b11461074f5780639aeecea51461076257600080fd5b80638a1d2531116101975780638a1d2531146106e25780638da5cb5b146106f557806393f1c9111461071357600080fd5b80637f994c191461066e578063873360d7146106a75780638859e523146106cf57600080fd5b806333a948311161028c578063630dc7cb1161023557806372c8fc0e1161020f57806372c8fc0e1461060a578063770ee87014610628578063787dce3d146106485780637a6bbf181461065b57600080fd5b8063630dc7cb146105c25780636896c5ce146105e2578063715018a61461060257600080fd5b80634690484011610266578063469048401461056f5780634e30dd901461058f578063558a7297146105af57600080fd5b806333a94831146104fa578063350a9e4314610518578063375a32be1461052b57600080fd5b80631a44f03a116102f95780631e07dbb8116102d35780631e07dbb81461048b578063239619751461049e57806330da111a146104bc5780633156a58d146104dc57600080fd5b80631a44f03a146104445780631a88f8fc146104575780631c3c0ea81461047857600080fd5b80631750518c1161032a5780631750518c146103b1578063185025ef146103c457806319af32531461040957600080fd5b806305b84a7d146103515780630990a9821461036657806313e7c9d81461038e575b600080fd5b61036461035f366004612f5f565b610909565b005b610379610374366004613236565b6109d6565b60405190151581526020015b60405180910390f35b61037961039c366004612f5f565b600b6020526000908152604090205460ff1681565b6103796103bf36600461309c565b610a8e565b6004546103e49073ffffffffffffffffffffffffffffffffffffffff1681565b60405173ffffffffffffffffffffffffffffffffffffffff9091168152602001610385565b6009547801000000000000000000000000000000000000000000000000900463ffffffff165b60405163ffffffff9091168152602001610385565b610364610452366004612f5f565b610f0f565b61046a610465366004612f99565b610fd7565b60405161038592919061353c565b610364610486366004612f5f565b6115c1565b6103646104993660046134b6565b61166f565b60055473ffffffffffffffffffffffffffffffffffffffff166103e4565b6007546103e49073ffffffffffffffffffffffffffffffffffffffff1681565b60065473ffffffffffffffffffffffffffffffffffffffff166103e4565b60075473ffffffffffffffffffffffffffffffffffffffff166103e4565b610364610526366004612f5f565b61173f565b610561610539366004612f5f565b73ffffffffffffffffffffffffffffffffffffffff166000908152600d602052604090205490565b604051908152602001610385565b6009546103e49073ffffffffffffffffffffffffffffffffffffffff1681565b6008546103e49073ffffffffffffffffffffffffffffffffffffffff1681565b6103646105bd366004613063565b611807565b6001546103e49073ffffffffffffffffffffffffffffffffffffffff1681565b6005546103e49073ffffffffffffffffffffffffffffffffffffffff1681565b6103646118c4565b60095473ffffffffffffffffffffffffffffffffffffffff166103e4565b610561610636366004612f5f565b600d6020526000908152604090205481565b610364610656366004613484565b611937565b6103646106693660046134b6565b6119a3565b61037961067c366004612f5f565b73ffffffffffffffffffffffffffffffffffffffff166000908152600c602052604090205460ff1690565b60095461042f9074010000000000000000000000000000000000000000900463ffffffff1681565b6103796106dd366004612f5f565b611a77565b6103646106f0366004613208565b611cdb565b60005473ffffffffffffffffffffffffffffffffffffffff166103e4565b60045473ffffffffffffffffffffffffffffffffffffffff166103e4565b60085473ffffffffffffffffffffffffffffffffffffffff166103e4565b61037961075d3660046134b6565b611daf565b610379610770366004612f5f565b611e0c565b610364610783366004613208565b611e65565b610379610796366004613022565b611f39565b6002546103e49073ffffffffffffffffffffffffffffffffffffffff1681565b600a54610561565b610561600a5481565b60035473ffffffffffffffffffffffffffffffffffffffff166103e4565b6103796107f83660046132f0565b612135565b61036461080b3660046131a4565b6122e5565b6003546103e49073ffffffffffffffffffffffffffffffffffffffff1681565b6006546103e49073ffffffffffffffffffffffffffffffffffffffff1681565b61037961085e366004612f5f565b600c6020526000908152604090205460ff1681565b61036461088136600461314a565b6123fd565b610364610894366004612f5f565b612513565b60095461042f907801000000000000000000000000000000000000000000000000900463ffffffff1681565b6103796108d33660046130ec565b6125c1565b60025473ffffffffffffffffffffffffffffffffffffffff166103e4565b610364610904366004612f5f565b612a02565b60005473ffffffffffffffffffffffffffffffffffffffff1633148061093e5750336000908152600b602052604090205460ff165b61098f5760405162461bcd60e51b815260206004820152600c60248201527f6f6e6c794f70657261746f72000000000000000000000000000000000000000060448201526064015b60405180910390fd5b600380547fffffffffffffffffffffffff00000000000000000000000000000000000000001673ffffffffffffffffffffffffffffffffffffffff92909216919091179055565b60006101008260200151511115610a2f5760405162461bcd60e51b815260206004820152601160248201527f496e76616c696420657874207469746c650000000000000000000000000000006044820152606401610986565b6101008260400151511115610a865760405162461bcd60e51b815260206004820152601060248201527f496e76616c696420657874206e6f7465000000000000000000000000000000006044820152606401610986565b506001919050565b805160009073ffffffffffffffffffffffffffffffffffffffff1615801590610ae657508273ffffffffffffffffffffffffffffffffffffffff16826000015173ffffffffffffffffffffffffffffffffffffffff16145b610b325760405162461bcd60e51b815260206004820152601660248201527f496e76616c69642073656c6c65722061646472657373000000000000000000006044820152606401610986565b6000826020015161ffff1611610b8a5760405162461bcd60e51b815260206004820152601260248201527f496e76616c6964206e6674436861696e496400000000000000000000000000006044820152606401610986565b600082606001515111610bdf5760405162461bcd60e51b815260206004820152600e60248201527f456d70747920746f6b656e4964730000000000000000000000000000000000006044820152606401610986565b8161010001514210610c335760405162461bcd60e51b815260206004820152601260248201527f496e76616c69642074696d652072616e676500000000000000000000000000006044820152606401610986565b62014a7842836101000151610c48919061367b565b11610c955760405162461bcd60e51b815260206004820152601260248201527f4475726174696f6e20746f6f2073686f727400000000000000000000000000006044820152606401610986565b6228de8042836101000151610caa919061367b565b10610cf75760405162461bcd60e51b815260206004820152601160248201527f4475726174696f6e20746f6f206c6f6e670000000000000000000000000000006044820152606401610986565b6000826101400151118015610d155750816101200151826101400151105b8015610d335750610140820151610120830151610d3191612afe565b155b610d7f5760405162461bcd60e51b815260206004820152601d60248201527f496e76616c6964207072696365206f7220746172676574416d6f756e740000006044820152606401610986565b6000610d9e836101400151846101200151612b0a90919063ffffffff16565b9050600081118015610db35750620186a08111155b8015610dc75750610dc581600a612afe565b155b610e135760405162461bcd60e51b815260206004820152600b60248201527f496e76616c6964206e756d0000000000000000000000000000000000000000006044820152606401610986565b6101a083015115610e665760405162461bcd60e51b815260206004820152601760248201527f496e76616c696420616d6f756e74436f6c6c65637465640000000000000000006044820152606401610986565b610e738360400151611a77565b610ebf5760405162461bcd60e51b815260206004820152601360248201527f496e76616c6964206e6674436f6e7472616374000000000000000000000000006044820152606401610986565b600080610ede8560400151866000015187606001518860800151610fd7565b91509150818190610f025760405162461bcd60e51b81526004016109869190613557565b5060019695505050505050565b60005473ffffffffffffffffffffffffffffffffffffffff16331480610f445750336000908152600b602052604090205460ff165b610f905760405162461bcd60e51b815260206004820152600c60248201527f6f6e6c794f70657261746f7200000000000000000000000000000000000000006044820152606401610986565b600480547fffffffffffffffffffffffff00000000000000000000000000000000000000001673ffffffffffffffffffffffffffffffffffffffff92909216919091179055565b60006060610fe486611e0c565b156111335760005b845181101561112d57600754855160009173ffffffffffffffffffffffffffffffffffffffff169063581781689088908590811061102c5761102c61376c565b60200260200101516040518263ffffffff1660e01b815260040161105291815260200190565b60206040518083038186803b15801561106a57600080fd5b505afa15801561107e573d6000803e3d6000fd5b505050506040513d601f19601f820116820180604052508101906110a29190612f7c565b90508673ffffffffffffffffffffffffffffffffffffffff168173ffffffffffffffffffffffffffffffffffffffff161461111a5760006040518060400160405280601981526020017f546f6b656e206c6973746564206f72206e6f74206f776e6572000000000000008152509350935050506115b8565b508061112581613692565b915050610fec565b506115a3565b6040517f01ffc9a70000000000000000000000000000000000000000000000000000000081527f80ac58cd00000000000000000000000000000000000000000000000000000000600482015273ffffffffffffffffffffffffffffffffffffffff8716906301ffc9a79060240160206040518083038186803b1580156111b857600080fd5b505afa1580156111cc573d6000803e3d6000fd5b505050506040513d601f19601f820116820180604052508101906111f091906131eb565b156113285760005b845181101561112d578573ffffffffffffffffffffffffffffffffffffffff168773ffffffffffffffffffffffffffffffffffffffff16636352211e8784815181106112465761124661376c565b60200260200101516040518263ffffffff1660e01b815260040161126c91815260200190565b60206040518083038186803b15801561128457600080fd5b505afa158015611298573d6000803e3d6000fd5b505050506040513d601f19601f820116820180604052508101906112bc9190612f7c565b73ffffffffffffffffffffffffffffffffffffffff161461131657505060408051808201909152601981527f546f6b656e206c6973746564206f72206e6f74206f776e6572000000000000006020820152600091506115b8565b8061132081613692565b9150506111f8565b6040517f01ffc9a70000000000000000000000000000000000000000000000000000000081527fd9b67a2600000000000000000000000000000000000000000000000000000000600482015273ffffffffffffffffffffffffffffffffffffffff8716906301ffc9a79060240160206040518083038186803b1580156113ad57600080fd5b505afa1580156113c1573d6000803e3d6000fd5b505050506040513d601f19601f820116820180604052508101906113e591906131eb565b156115a357825184511461143b5760405162461bcd60e51b815260206004820152600f60248201527f496e76616c696420696473206c656e00000000000000000000000000000000006044820152606401610986565b60005b84518110156115a1578381815181106114595761145961376c565b60200260200101518773ffffffffffffffffffffffffffffffffffffffff1662fdd58e8888858151811061148f5761148f61376c565b60200260200101516040518363ffffffff1660e01b81526004016114d592919073ffffffffffffffffffffffffffffffffffffffff929092168252602082015260400190565b60206040518083038186803b1580156114ed57600080fd5b505afa158015611501573d6000803e3d6000fd5b505050506040513d601f19601f82011682018060405250810190611525919061349d565b1015801561154c575060008482815181106115425761154261376c565b6020026020010151115b61158f57505060408051808201909152601981527f496e76616c696420616d6f756e74206f722062616c616e6365000000000000006020820152600091506115b8565b8061159981613692565b91505061143e565b505b50506040805160208101909152600081526001905b94509492505050565b60005473ffffffffffffffffffffffffffffffffffffffff1633146116285760405162461bcd60e51b815260206004820181905260248201527f4f776e61626c653a2063616c6c6572206973206e6f7420746865206f776e65726044820152606401610986565b600180547fffffffffffffffffffffffff00000000000000000000000000000000000000001673ffffffffffffffffffffffffffffffffffffffff92909216919091179055565b60005473ffffffffffffffffffffffffffffffffffffffff163314806116a45750336000908152600b602052604090205460ff165b6116f05760405162461bcd60e51b815260206004820152600c60248201527f6f6e6c794f70657261746f7200000000000000000000000000000000000000006044820152606401610986565b6009805463ffffffff90921674010000000000000000000000000000000000000000027fffffffffffffffff00000000ffffffffffffffffffffffffffffffffffffffff909216919091179055565b60005473ffffffffffffffffffffffffffffffffffffffff163314806117745750336000908152600b602052604090205460ff165b6117c05760405162461bcd60e51b815260206004820152600c60248201527f6f6e6c794f70657261746f7200000000000000000000000000000000000000006044820152606401610986565b600280547fffffffffffffffffffffffff00000000000000000000000000000000000000001673ffffffffffffffffffffffffffffffffffffffff92909216919091179055565b60005473ffffffffffffffffffffffffffffffffffffffff16331461186e5760405162461bcd60e51b815260206004820181905260248201527f4f776e61626c653a2063616c6c6572206973206e6f7420746865206f776e65726044820152606401610986565b73ffffffffffffffffffffffffffffffffffffffff919091166000908152600b6020526040902080547fffffffffffffffffffffffffffffffffffffffffffffffffffffffffffffff0016911515919091179055565b60005473ffffffffffffffffffffffffffffffffffffffff16331461192b5760405162461bcd60e51b815260206004820181905260248201527f4f776e61626c653a2063616c6c6572206973206e6f7420746865206f776e65726044820152606401610986565b6119356000612b16565b565b60005473ffffffffffffffffffffffffffffffffffffffff16331461199e5760405162461bcd60e51b815260206004820181905260248201527f4f776e61626c653a2063616c6c6572206973206e6f7420746865206f776e65726044820152606401610986565b600a55565b60005473ffffffffffffffffffffffffffffffffffffffff163314806119d85750336000908152600b602052604090205460ff165b611a245760405162461bcd60e51b815260206004820152600c60248201527f6f6e6c794f70657261746f7200000000000000000000000000000000000000006044820152606401610986565b6009805463ffffffff9092167801000000000000000000000000000000000000000000000000027fffffffff00000000ffffffffffffffffffffffffffffffffffffffffffffffff909216919091179055565b600073ffffffffffffffffffffffffffffffffffffffff821615801590611ab4575073ffffffffffffffffffffffffffffffffffffffff82163b15155b611b005760405162461bcd60e51b815260206004820152601360248201527f496e76616c6964206e6674436f6e7472616374000000000000000000000000006044820152606401610986565b611b0982611e0c565b80611bcc57506040517f01ffc9a70000000000000000000000000000000000000000000000000000000081527f80ac58cd00000000000000000000000000000000000000000000000000000000600482015273ffffffffffffffffffffffffffffffffffffffff8316906301ffc9a79060240160206040518083038186803b158015611b9457600080fd5b505afa158015611ba8573d6000803e3d6000fd5b505050506040513d601f19601f82011682018060405250810190611bcc91906131eb565b80611c8f57506040517f01ffc9a70000000000000000000000000000000000000000000000000000000081527fd9b67a2600000000000000000000000000000000000000000000000000000000600482015273ffffffffffffffffffffffffffffffffffffffff8316906301ffc9a79060240160206040518083038186803b158015611c5757600080fd5b505afa158015611c6b573d6000803e3d6000fd5b505050506040513d601f19601f82011682018060405250810190611c8f91906131eb565b610a865760405162461bcd60e51b815260206004820152601060248201527f496e76616c696420636f6e7472616374000000000000000000000000000000006044820152606401610986565b60005473ffffffffffffffffffffffffffffffffffffffff16331480611d105750336000908152600b602052604090205460ff165b611d5c5760405162461bcd60e51b815260206004820152600c60248201527f6f6e6c794f70657261746f7200000000000000000000000000000000000000006044820152606401610986565b6007805473ffffffffffffffffffffffffffffffffffffffff9384167fffffffffffffffffffffffff00000000000000000000000000000000000000009182161790915560088054929093169116179055565b60095460009060017401000000000000000000000000000000000000000090910463ffffffff161080611e06575060095463ffffffff74010000000000000000000000000000000000000000909104811690831611155b92915050565b60075460009073ffffffffffffffffffffffffffffffffffffffff8381169116148015611e50575060075473ffffffffffffffffffffffffffffffffffffffff1615155b15611e5d57506001919050565b506000919050565b60005473ffffffffffffffffffffffffffffffffffffffff16331480611e9a5750336000908152600b602052604090205460ff165b611ee65760405162461bcd60e51b815260206004820152600c60248201527f6f6e6c794f70657261746f7200000000000000000000000000000000000000006044820152606401610986565b6005805473ffffffffffffffffffffffffffffffffffffffff9384167fffffffffffffffffffffffff00000000000000000000000000000000000000009182161790915560068054929093169116179055565b60008082118015611f60575073ffffffffffffffffffffffffffffffffffffffff83163b15155b1561212a576040517f01ffc9a70000000000000000000000000000000000000000000000000000000081527f80ac58cd00000000000000000000000000000000000000000000000000000000600482015273ffffffffffffffffffffffffffffffffffffffff8416906301ffc9a79060240160206040518083038186803b158015611fea57600080fd5b505afa158015611ffe573d6000803e3d6000fd5b505050506040513d601f19601f8201168201806040525081019061202291906131eb565b156120d3576040517f70a0823100000000000000000000000000000000000000000000000000000000815273ffffffffffffffffffffffffffffffffffffffff85811660048301528391908516906370a08231906024015b60206040518083038186803b15801561209257600080fd5b505afa1580156120a6573d6000803e3d6000fd5b505050506040513d601f19601f820116820180604052508101906120ca919061349d565b1015905061212e565b6040517f70a0823100000000000000000000000000000000000000000000000000000000815273ffffffffffffffffffffffffffffffffffffffff85811660048301528391908516906370a082319060240161207a565b5060015b9392505050565b6101808101515160009073ffffffffffffffffffffffffffffffffffffffff161580159061216c5750600082610180015160200151115b156121db576101808201515173ffffffffffffffffffffffffffffffffffffffff163b6121db5760405162461bcd60e51b815260206004820152601660248201527f496e76616c6964206578636c7573697665546f6b656e000000000000000000006044820152606401610986565b60a082015173ffffffffffffffffffffffffffffffffffffffff166000908152600c602052604090205460ff166122545760405162461bcd60e51b815260206004820152601760248201527f556e737570706f7274656420616363657074546f6b656e0000000000000000006044820152606401610986565b60a082015173ffffffffffffffffffffffffffffffffffffffff166000908152600d602052604090205480158061229057508083610120015110155b6122dc5760405162461bcd60e51b815260206004820152601060248201527f54617267657420746f6f20736d616c6c000000000000000000000000000000006044820152606401610986565b50600192915050565b60005473ffffffffffffffffffffffffffffffffffffffff1633148061231a5750336000908152600b602052604090205460ff165b6123665760405162461bcd60e51b815260206004820152600c60248201527f6f6e6c794f70657261746f7200000000000000000000000000000000000000006044820152606401610986565b60005b82518110156123f85781600c60008584815181106123895761238961376c565b60209081029190910181015173ffffffffffffffffffffffffffffffffffffffff16825281019190915260400160002080547fffffffffffffffffffffffffffffffffffffffffffffffffffffffffffffff0016911515919091179055806123f081613692565b915050612369565b505050565b60005473ffffffffffffffffffffffffffffffffffffffff163314806124325750336000908152600b602052604090205460ff165b61247e5760405162461bcd60e51b815260206004820152600c60248201527f6f6e6c794f70657261746f7200000000000000000000000000000000000000006044820152606401610986565b60005b82518110156123f85781818151811061249c5761249c61376c565b6020026020010151600d60008584815181106124ba576124ba61376c565b602002602001015173ffffffffffffffffffffffffffffffffffffffff1673ffffffffffffffffffffffffffffffffffffffff16815260200190815260200160002081905550808061250b90613692565b915050612481565b60005473ffffffffffffffffffffffffffffffffffffffff16331461257a5760405162461bcd60e51b815260206004820181905260248201527f4f776e61626c653a2063616c6c6572206973206e6f7420746865206f776e65726044820152606401610986565b600980547fffffffffffffffffffffffff00000000000000000000000000000000000000001673ffffffffffffffffffffffffffffffffffffffff92909216919091179055565b6000610100825111156126165760405162461bcd60e51b815260206004820152600e60248201527f4e6f746520746f6f206c617267650000000000000000000000000000000000006044820152606401610986565b61261f83611daf565b61266b5760405162461bcd60e51b815260206004820152600f60248201527f4f766572206a6f696e206c696d697400000000000000000000000000000000006044820152606401610986565b60008363ffffffff16116126c15760405162461bcd60e51b815260206004820152600b60248201527f496e76616c6964206e756d0000000000000000000000000000000000000000006044820152606401610986565b6001546040517f1d65e77e0000000000000000000000000000000000000000000000000000000081526004810186905260009173ffffffffffffffffffffffffffffffffffffffff1690631d65e77e9060240160006040518083038186803b15801561272c57600080fd5b505afa158015612740573d6000803e3d6000fd5b505050506040513d6000823e601f3d9081017fffffffffffffffffffffffffffffffffffffffffffffffffffffffffffffffe0168201604052612786919081019061332d565b90508573ffffffffffffffffffffffffffffffffffffffff16816000015173ffffffffffffffffffffffffffffffffffffffff1614156128085760405162461bcd60e51b815260206004820152600f60248201527f4e6f7420616c6c6f77206f776e657200000000000000000000000000000000006044820152606401610986565b8060e00151421015801561282157508061010001514211155b61286d5760405162461bcd60e51b815260206004820152601260248201527f496e76616c69642074696d652072616e676500000000000000000000000000006044820152606401610986565b60008160c0015160058111156128855761288561373d565b14806128a6575060018160c0015160058111156128a4576128a461373d565b145b6128f25760405162461bcd60e51b815260206004820152600e60248201527f496e76616c6964207374617475730000000000000000000000000000000000006044820152606401610986565b60006129128563ffffffff16836101400151612b8b90919063ffffffff16565b9050600081116129645760405162461bcd60e51b815260206004820152600e60248201527f496e76616c696420616d6f756e740000000000000000000000000000000000006044820152606401610986565b6101808201515173ffffffffffffffffffffffffffffffffffffffff16158015906129985750600082610180015160200151115b15610f025761018082015180516020909101516129b6918991611f39565b610f025760405162461bcd60e51b815260206004820152601260248201527f4e6f742070617373204558434c555349564500000000000000000000000000006044820152606401610986565b60005473ffffffffffffffffffffffffffffffffffffffff163314612a695760405162461bcd60e51b815260206004820181905260248201527f4f776e61626c653a2063616c6c6572206973206e6f7420746865206f776e65726044820152606401610986565b73ffffffffffffffffffffffffffffffffffffffff8116612af25760405162461bcd60e51b815260206004820152602660248201527f4f776e61626c653a206e6577206f776e657220697320746865207a65726f206160448201527f64647265737300000000000000000000000000000000000000000000000000006064820152608401610986565b612afb81612b16565b50565b600061212e82846136cb565b600061212e828461362a565b6000805473ffffffffffffffffffffffffffffffffffffffff8381167fffffffffffffffffffffffff0000000000000000000000000000000000000000831681178455604051919092169283917f8be0079c531659141344cd1fd0a4f28419497f9722a3daafe3b4186f6b6457e09190a35050565b600061212e828461363e565b8035612ba2816137ca565b919050565b8051612ba2816137ca565b600082601f830112612bc357600080fd5b81356020612bd8612bd383613606565b6135b7565b80838252828201915082860187848660051b8901011115612bf857600080fd5b60005b85811015612c20578135612c0e816137ca565b84529284019290840190600101612bfb565b5090979650505050505050565b600082601f830112612c3e57600080fd5b81356020612c4e612bd383613606565b80838252828201915082860187848660051b8901011115612c6e57600080fd5b60005b85811015612c2057813584529284019290840190600101612c71565b600082601f830112612c9e57600080fd5b81516020612cae612bd383613606565b80838252828201915082860187848660051b8901011115612cce57600080fd5b60005b85811015612c2057815184529284019290840190600101612cd1565b8035612ba2816137fa565b8051612ba2816137fa565b600082601f830112612d1457600080fd5b813567ffffffffffffffff811115612d2e57612d2e61379b565b612d5f60207fffffffffffffffffffffffffffffffffffffffffffffffffffffffffffffffe0601f840116016135b7565b818152846020838601011115612d7457600080fd5b816020850160208301376000918101602001919091529392505050565b600060408284031215612da357600080fd5b612dab61356a565b90508135612db8816137ca565b808252506020820135602082015292915050565b600060408284031215612dde57600080fd5b612de661356a565b90508151612df3816137ca565b808252506020820151602082015292915050565b60006102008284031215612e1a57600080fd5b612e22613593565b9050612e2d82612b97565b8152612e3b60208301612f35565b6020820152612e4c60408301612b97565b6040820152606082013567ffffffffffffffff80821115612e6c57600080fd5b612e7885838601612c2d565b60608401526080840135915080821115612e9157600080fd5b50612e9e84828501612c2d565b608083015250612eb060a08301612b97565b60a0820152612ec160c08301612ced565b60c082015260e08281013590820152610100808301359082015261012080830135908201526101408083013590820152610160612eff818401612f35565b90820152610180612f1284848301612d91565b81830152506101c0808301356101a08301526101e0830135818301525092915050565b8035612ba281613807565b8051612ba281613807565b803563ffffffff81168114612ba257600080fd5b600060208284031215612f7157600080fd5b813561212e816137ca565b600060208284031215612f8e57600080fd5b815161212e816137ca565b60008060008060808587031215612faf57600080fd5b8435612fba816137ca565b93506020850135612fca816137ca565b9250604085013567ffffffffffffffff80821115612fe757600080fd5b612ff388838901612c2d565b9350606087013591508082111561300957600080fd5b5061301687828801612c2d565b91505092959194509250565b60008060006060848603121561303757600080fd5b8335613042816137ca565b92506020840135613052816137ca565b929592945050506040919091013590565b6000806040838503121561307657600080fd5b8235613081816137ca565b91506020830135613091816137ec565b809150509250929050565b600080604083850312156130af57600080fd5b82356130ba816137ca565b9150602083013567ffffffffffffffff8111156130d657600080fd5b6130e285828601612e07565b9150509250929050565b6000806000806080858703121561310257600080fd5b843561310d816137ca565b93506020850135925061312260408601612f4b565b9150606085013567ffffffffffffffff81111561313e57600080fd5b61301687828801612d03565b6000806040838503121561315d57600080fd5b823567ffffffffffffffff8082111561317557600080fd5b61318186838701612bb2565b9350602085013591508082111561319757600080fd5b506130e285828601612c2d565b600080604083850312156131b757600080fd5b823567ffffffffffffffff8111156131ce57600080fd5b6131da85828601612bb2565b9250506020830135613091816137ec565b6000602082840312156131fd57600080fd5b815161212e816137ec565b6000806040838503121561321b57600080fd5b8235613226816137ca565b91506020830135613091816137ca565b60006020828403121561324857600080fd5b813567ffffffffffffffff8082111561326057600080fd5b908301906060828603121561327457600080fd5b60405160608101818110838211171561328f5761328f61379b565b604052823561329d81613807565b81526020830135828111156132b157600080fd5b6132bd87828601612d03565b6020830152506040830135828111156132d557600080fd5b6132e187828601612d03565b60408301525095945050505050565b60006020828403121561330257600080fd5b813567ffffffffffffffff81111561331957600080fd5b61332584828501612e07565b949350505050565b60006020828403121561333f57600080fd5b815167ffffffffffffffff8082111561335757600080fd5b90830190610200828603121561336c57600080fd5b613374613593565b61337d83612ba7565b815261338b60208401612f40565b602082015261339c60408401612ba7565b60408201526060830151828111156133b357600080fd5b6133bf87828601612c8d565b6060830152506080830151828111156133d757600080fd5b6133e387828601612c8d565b6080830152506133f560a08401612ba7565b60a082015261340660c08401612cf8565b60c082015260e083810151908201526101008084015190820152610120808401519082015261014080840151908201526101609150613446828401612f40565b82820152610180915061345b86838501612dcc565b828201526101c09150818301516101a08201526101e08301518282015280935050505092915050565b60006020828403121561349657600080fd5b5035919050565b6000602082840312156134af57600080fd5b5051919050565b6000602082840312156134c857600080fd5b61212e82612f4b565b6000815180845260005b818110156134f7576020818501810151868301820152016134db565b81811115613509576000602083870101525b50601f017fffffffffffffffffffffffffffffffffffffffffffffffffffffffffffffffe0169290920160200192915050565b821515815260406020820152600061332560408301846134d1565b60208152600061212e60208301846134d1565b6040805190810167ffffffffffffffff8111828210171561358d5761358d61379b565b60405290565b6040516101e0810167ffffffffffffffff8111828210171561358d5761358d61379b565b604051601f82017fffffffffffffffffffffffffffffffffffffffffffffffffffffffffffffffe016810167ffffffffffffffff811182821017156135fe576135fe61379b565b604052919050565b600067ffffffffffffffff8211156136205761362061379b565b5060051b60200190565b6000826136395761363961370e565b500490565b6000817fffffffffffffffffffffffffffffffffffffffffffffffffffffffffffffffff0483118215151615613676576136766136df565b500290565b60008282101561368d5761368d6136df565b500390565b60007fffffffffffffffffffffffffffffffffffffffffffffffffffffffffffffffff8214156136c4576136c46136df565b5060010190565b6000826136da576136da61370e565b500690565b7f4e487b7100000000000000000000000000000000000000000000000000000000600052601160045260246000fd5b7f4e487b7100000000000000000000000000000000000000000000000000000000600052601260045260246000fd5b7f4e487b7100000000000000000000000000000000000000000000000000000000600052602160045260246000fd5b7f4e487b7100000000000000000000000000000000000000000000000000000000600052603260045260246000fd5b7f4e487b7100000000000000000000000000000000000000000000000000000000600052604160045260246000fd5b73ffffffffffffffffffffffffffffffffffffffff81168114612afb57600080fd5b8015158114612afb57600080fd5b60068110612afb57600080fd5b61ffff81168114612afb57600080fdfea26469706673582212205f870ad815316fdc880b74f9dc2a27b4016c7adc7593832974b88da2ce5096b064736f6c63430008060033",
  "devdoc": {
    "kind": "dev",
    "methods": {
      "checkAcceptToken(address)": {
        "params": {
          "acceptToken": "token address, blockchain token is address(0)"
        },
        "returns": {
          "_0": "bool"
        }
      },
      "checkTokenListing(address,address,uint256[],uint256[])": {
        "params": {
          "addr": "NFT contract address",
          "amounts": "tokenId amount array (ERC721 can be null)",
          "tokenIds": "tokenId array"
        }
      },
      "getProtocolFee()": {
        "returns": {
          "_0": "fee (200 = 25%, 1,000 = 10%)"
        }
      },
      "owner()": {
        "details": "Returns the address of the current owner."
      },
      "renounceOwnership()": {
        "details": "Leaves the contract without owner. It will not be possible to call `onlyOwner` functions anymore. Can only be called by the current owner. NOTE: Renouncing ownership will leave the contract without an owner, thereby removing any functionality that is only available to the owner."
      },
      "setProtocolFee(uint256)": {
        "params": {
          "fee": "fee (500 = 5%, 1,000 = 10%)"
        }
      },
      "transferOwnership(address)": {
        "details": "Transfers ownership of the contract to a new account (`newOwner`). Can only be called by the current owner."
      }
    },
    "title": "Openluck LucksHelper.",
    "version": 1
  },
  "userdoc": {
    "kind": "user",
    "methods": {
      "checkAcceptToken(address)": {
        "notice": "check acceptToken support"
      },
      "checkNFTContract(address)": {
        "notice": "check nft contract, support erc721 & erc1155"
      },
      "checkNewTask(address,(address,uint16,address,uint256[],uint256[],address,uint8,uint256,uint256,uint256,uint256,uint16,(address,uint256),uint256,uint256))": {
        "notice": "check the new task inputs"
      },
      "checkTokenListing(address,address,uint256[],uint256[])": {
        "notice": "checking seller listing NFTs ownership and balance"
      },
      "getDrawDelay()": {
        "notice": "get Draw Delay second for security"
      },
      "getGROUPS()": {
        "notice": "get ILucksGroup instance  "
      },
      "getProtocolFee()": {
        "notice": "get protocol fee for eache success TaskItem payment, default is 2%"
      },
      "getSTRATEGY()": {
        "notice": "get ILucksPaymentStrategy instance  "
      },
      "getVRF()": {
        "notice": "get ILucksVRF instance  "
      },
      "setAcceptTokens(address[],bool)": {
        "notice": "set the acceptTokens"
      },
      "setDrawDelay(uint32)": {
        "notice": "set Draw Delay for security"
      },
      "setExecutor(address)": {
        "notice": "set operator"
      },
      "setJoinLimitNum(uint32)": {
        "notice": "set the set MAX_PER_JOIN_NUM"
      },
      "setLucksGroup(address)": {
        "notice": "set the LucksGroup"
      },
      "setLucksVRF(address)": {
        "notice": "set the VRF"
      },
      "setOperator(address,bool)": {
        "notice": "set operator"
      },
      "setPaymentStrategy(address)": {
        "notice": "set the PaymentStrategy"
      },
      "setProtocolFee(uint256)": {
        "notice": "set protocol fee for eache success TaskItem payment, default is 5%"
      },
      "setProtocolFeeRecipient(address)": {
        "notice": "set the ProtocolFeeRecipient"
      }
    },
    "notice": "It is the contract for protocol settings",
    "version": 1
  },
  "storageLayout": {
    "storage": [
      {
        "astId": 917,
        "contract": "contracts/lucks/LucksHelper.sol:LucksHelper",
        "label": "_owner",
        "offset": 0,
        "slot": "0",
        "type": "t_address"
      },
      {
        "astId": 12857,
        "contract": "contracts/lucks/LucksHelper.sol:LucksHelper",
        "label": "EXECUTOR",
        "offset": 0,
        "slot": "1",
        "type": "t_contract(ILucksExecutor)10319"
      },
      {
        "astId": 12860,
        "contract": "contracts/lucks/LucksHelper.sol:LucksHelper",
        "label": "VRF",
        "offset": 0,
        "slot": "2",
        "type": "t_contract(ILucksVRF)10691"
      },
      {
        "astId": 12863,
        "contract": "contracts/lucks/LucksHelper.sol:LucksHelper",
        "label": "GROUPS",
        "offset": 0,
        "slot": "3",
        "type": "t_contract(ILucksGroup)10373"
      },
      {
        "astId": 12866,
        "contract": "contracts/lucks/LucksHelper.sol:LucksHelper",
        "label": "STRATEGY",
        "offset": 0,
        "slot": "4",
        "type": "t_contract(ILucksPaymentStrategy)10578"
      },
      {
        "astId": 12869,
        "contract": "contracts/lucks/LucksHelper.sol:LucksHelper",
        "label": "AUTO_CLOSE",
        "offset": 0,
        "slot": "5",
        "type": "t_contract(ILucksAuto)9906"
      },
      {
        "astId": 12872,
        "contract": "contracts/lucks/LucksHelper.sol:LucksHelper",
        "label": "AUTO_DRAW",
        "offset": 0,
        "slot": "6",
        "type": "t_contract(ILucksAuto)9906"
      },
      {
        "astId": 12875,
        "contract": "contracts/lucks/LucksHelper.sol:LucksHelper",
        "label": "PUNKS",
        "offset": 0,
        "slot": "7",
        "type": "t_contract(IPunks)10882"
      },
      {
        "astId": 12878,
        "contract": "contracts/lucks/LucksHelper.sol:LucksHelper",
        "label": "PROXY_PUNKS",
        "offset": 0,
        "slot": "8",
        "type": "t_contract(IProxyNFTStation)10811"
      },
      {
        "astId": 12880,
        "contract": "contracts/lucks/LucksHelper.sol:LucksHelper",
        "label": "feeRecipient",
        "offset": 0,
        "slot": "9",
        "type": "t_address"
      },
      {
        "astId": 12883,
        "contract": "contracts/lucks/LucksHelper.sol:LucksHelper",
        "label": "MAX_PER_JOIN_NUM",
        "offset": 20,
        "slot": "9",
        "type": "t_uint32"
      },
      {
        "astId": 12886,
        "contract": "contracts/lucks/LucksHelper.sol:LucksHelper",
        "label": "DRAW_DELAY_SEC",
        "offset": 24,
        "slot": "9",
        "type": "t_uint32"
      },
      {
        "astId": 12889,
        "contract": "contracts/lucks/LucksHelper.sol:LucksHelper",
        "label": "protocolFee",
        "offset": 0,
        "slot": "10",
        "type": "t_uint256"
      },
      {
        "astId": 12893,
        "contract": "contracts/lucks/LucksHelper.sol:LucksHelper",
        "label": "operators",
        "offset": 0,
        "slot": "11",
        "type": "t_mapping(t_address,t_bool)"
      },
      {
        "astId": 12897,
        "contract": "contracts/lucks/LucksHelper.sol:LucksHelper",
        "label": "acceptTokens",
        "offset": 0,
        "slot": "12",
        "type": "t_mapping(t_address,t_bool)"
      },
      {
        "astId": 12901,
        "contract": "contracts/lucks/LucksHelper.sol:LucksHelper",
        "label": "minTargetAmount",
        "offset": 0,
        "slot": "13",
        "type": "t_mapping(t_address,t_uint256)"
      }
    ],
    "types": {
      "t_address": {
        "encoding": "inplace",
        "label": "address",
        "numberOfBytes": "20"
      },
      "t_bool": {
        "encoding": "inplace",
        "label": "bool",
        "numberOfBytes": "1"
      },
      "t_contract(ILucksAuto)9906": {
        "encoding": "inplace",
        "label": "contract ILucksAuto",
        "numberOfBytes": "20"
      },
      "t_contract(ILucksExecutor)10319": {
        "encoding": "inplace",
        "label": "contract ILucksExecutor",
        "numberOfBytes": "20"
      },
      "t_contract(ILucksGroup)10373": {
        "encoding": "inplace",
        "label": "contract ILucksGroup",
        "numberOfBytes": "20"
      },
      "t_contract(ILucksPaymentStrategy)10578": {
        "encoding": "inplace",
        "label": "contract ILucksPaymentStrategy",
        "numberOfBytes": "20"
      },
      "t_contract(ILucksVRF)10691": {
        "encoding": "inplace",
        "label": "contract ILucksVRF",
        "numberOfBytes": "20"
      },
      "t_contract(IProxyNFTStation)10811": {
        "encoding": "inplace",
        "label": "contract IProxyNFTStation",
        "numberOfBytes": "20"
      },
      "t_contract(IPunks)10882": {
        "encoding": "inplace",
        "label": "contract IPunks",
        "numberOfBytes": "20"
      },
      "t_mapping(t_address,t_bool)": {
        "encoding": "mapping",
        "key": "t_address",
        "label": "mapping(address => bool)",
        "numberOfBytes": "32",
        "value": "t_bool"
      },
      "t_mapping(t_address,t_uint256)": {
        "encoding": "mapping",
        "key": "t_address",
        "label": "mapping(address => uint256)",
        "numberOfBytes": "32",
        "value": "t_uint256"
      },
      "t_uint256": {
        "encoding": "inplace",
        "label": "uint256",
        "numberOfBytes": "32"
      },
      "t_uint32": {
        "encoding": "inplace",
        "label": "uint32",
        "numberOfBytes": "4"
      }
    }
  }
}