{
  "address": "0xd0ab29E798ca1717d040C4FBC27be48CC6BeFC10",
  "abi": [
    {
      "inputs": [
        {
          "internalType": "address",
          "name": "_keeperRegAddr",
          "type": "address"
        },
        {
          "internalType": "contract ILucksExecutor",
          "name": "_executor",
          "type": "address"
        }
      ],
      "stateMutability": "nonpayable",
      "type": "constructor"
    },
    {
      "anonymous": false,
      "inputs": [
        {
          "indexed": false,
          "internalType": "uint256",
          "name": "amountAdded",
          "type": "uint256"
        },
        {
          "indexed": false,
          "internalType": "uint256",
          "name": "newBalance",
          "type": "uint256"
        },
        {
          "indexed": false,
          "internalType": "address",
          "name": "sender",
          "type": "address"
        }
      ],
      "name": "FundsAdded",
      "type": "event"
    },
    {
      "anonymous": false,
      "inputs": [
        {
          "indexed": false,
          "internalType": "uint256",
          "name": "amountWithdrawn",
          "type": "uint256"
        },
        {
          "indexed": false,
          "internalType": "address",
          "name": "payee",
          "type": "address"
        }
      ],
      "name": "FundsWithdrawn",
      "type": "event"
    },
    {
      "anonymous": false,
      "inputs": [
        {
          "indexed": false,
          "internalType": "address",
          "name": "oldAddress",
          "type": "address"
        },
        {
          "indexed": false,
          "internalType": "address",
          "name": "newAddress",
          "type": "address"
        }
      ],
      "name": "KeeperRegistryAddressUpdated",
      "type": "event"
    },
    {
      "anonymous": false,
      "inputs": [
        {
          "indexed": true,
          "internalType": "address",
          "name": "previousOwner",
          "type": "address"
        },
        {
          "indexed": true,
          "internalType": "address",
          "name": "newOwner",
          "type": "address"
        }
      ],
      "name": "OwnershipTransferred",
      "type": "event"
    },
    {
      "anonymous": false,
      "inputs": [
        {
          "indexed": false,
          "internalType": "address",
          "name": "account",
          "type": "address"
        }
      ],
      "name": "Paused",
      "type": "event"
    },
    {
      "anonymous": false,
      "inputs": [
        {
          "indexed": false,
          "internalType": "uint256",
          "name": "taskId",
          "type": "uint256"
        },
        {
          "indexed": false,
          "internalType": "string",
          "name": "reason",
          "type": "string"
        }
      ],
      "name": "RevertInvoke",
      "type": "event"
    },
    {
      "anonymous": false,
      "inputs": [
        {
          "indexed": false,
          "internalType": "address",
          "name": "account",
          "type": "address"
        }
      ],
      "name": "Unpaused",
      "type": "event"
    },
    {
      "inputs": [],
      "name": "BATCH_PERFORM_LIMIT",
      "outputs": [
        {
          "internalType": "uint256",
          "name": "",
          "type": "uint256"
        }
      ],
      "stateMutability": "view",
      "type": "function"
    },
    {
      "inputs": [],
      "name": "DST_GAS_AMOUNT",
      "outputs": [
        {
          "internalType": "uint256",
          "name": "",
          "type": "uint256"
        }
      ],
      "stateMutability": "view",
      "type": "function"
    },
    {
      "inputs": [],
      "name": "EXECUTOR",
      "outputs": [
        {
          "internalType": "contract ILucksExecutor",
          "name": "",
          "type": "address"
        }
      ],
      "stateMutability": "view",
      "type": "function"
    },
    {
      "inputs": [],
      "name": "KEEPER",
      "outputs": [
        {
          "internalType": "address",
          "name": "",
          "type": "address"
        }
      ],
      "stateMutability": "view",
      "type": "function"
    },
    {
      "inputs": [
        {
          "internalType": "uint256",
          "name": "taskId",
          "type": "uint256"
        },
        {
          "internalType": "uint256",
          "name": "endTime",
          "type": "uint256"
        }
      ],
      "name": "addTask",
      "outputs": [],
      "stateMutability": "nonpayable",
      "type": "function"
    },
    {
      "inputs": [
        {
          "internalType": "bytes",
          "name": "",
          "type": "bytes"
        }
      ],
      "name": "checkUpkeep",
      "outputs": [
        {
          "internalType": "bool",
          "name": "upkeepNeeded",
          "type": "bool"
        },
        {
          "internalType": "bytes",
          "name": "performData",
          "type": "bytes"
        }
      ],
      "stateMutability": "view",
      "type": "function"
    },
    {
      "inputs": [],
      "name": "first",
      "outputs": [
        {
          "internalType": "uint256",
          "name": "",
          "type": "uint256"
        }
      ],
      "stateMutability": "view",
      "type": "function"
    },
    {
      "inputs": [
        {
          "internalType": "uint256",
          "name": "taskId",
          "type": "uint256"
        }
      ],
      "name": "get",
      "outputs": [
        {
          "internalType": "uint256",
          "name": "",
          "type": "uint256"
        }
      ],
      "stateMutability": "view",
      "type": "function"
    },
    {
      "inputs": [],
      "name": "getQueueTasks",
      "outputs": [
        {
          "internalType": "uint256[]",
          "name": "",
          "type": "uint256[]"
        }
      ],
      "stateMutability": "view",
      "type": "function"
    },
    {
      "inputs": [],
      "name": "last",
      "outputs": [
        {
          "internalType": "uint256",
          "name": "",
          "type": "uint256"
        }
      ],
      "stateMutability": "view",
      "type": "function"
    },
    {
      "inputs": [
        {
          "internalType": "uint256",
          "name": "taskId",
          "type": "uint256"
        }
      ],
      "name": "next",
      "outputs": [
        {
          "internalType": "uint256",
          "name": "",
          "type": "uint256"
        }
      ],
      "stateMutability": "view",
      "type": "function"
    },
    {
      "inputs": [],
      "name": "owner",
      "outputs": [
        {
          "internalType": "address",
          "name": "",
          "type": "address"
        }
      ],
      "stateMutability": "view",
      "type": "function"
    },
    {
      "inputs": [],
      "name": "pause",
      "outputs": [],
      "stateMutability": "nonpayable",
      "type": "function"
    },
    {
      "inputs": [],
      "name": "paused",
      "outputs": [
        {
          "internalType": "bool",
          "name": "",
          "type": "bool"
        }
      ],
      "stateMutability": "view",
      "type": "function"
    },
    {
      "inputs": [
        {
          "internalType": "bytes",
          "name": "performData",
          "type": "bytes"
        }
      ],
      "name": "performUpkeep",
      "outputs": [],
      "stateMutability": "nonpayable",
      "type": "function"
    },
    {
      "inputs": [
        {
          "internalType": "uint256",
          "name": "taskId",
          "type": "uint256"
        }
      ],
      "name": "prev",
      "outputs": [
        {
          "internalType": "uint256",
          "name": "",
          "type": "uint256"
        }
      ],
      "stateMutability": "view",
      "type": "function"
    },
    {
      "inputs": [
        {
          "internalType": "uint256",
          "name": "taskId",
          "type": "uint256"
        }
      ],
      "name": "removeTask",
      "outputs": [],
      "stateMutability": "nonpayable",
      "type": "function"
    },
    {
      "inputs": [],
      "name": "renounceOwnership",
      "outputs": [],
      "stateMutability": "nonpayable",
      "type": "function"
    },
    {
      "inputs": [
        {
          "internalType": "uint256",
          "name": "num",
          "type": "uint256"
        }
      ],
      "name": "setBatchPerformLimist",
      "outputs": [],
      "stateMutability": "nonpayable",
      "type": "function"
    },
    {
      "inputs": [
        {
          "internalType": "uint256",
          "name": "amount",
          "type": "uint256"
        }
      ],
      "name": "setDstGasAmount",
      "outputs": [],
      "stateMutability": "nonpayable",
      "type": "function"
    },
    {
      "inputs": [
        {
          "internalType": "contract ILucksExecutor",
          "name": "_executor",
          "type": "address"
        }
      ],
      "name": "setExecutor",
      "outputs": [],
      "stateMutability": "nonpayable",
      "type": "function"
    },
    {
      "inputs": [
        {
          "internalType": "address",
          "name": "_keeperRegAddr",
          "type": "address"
        }
      ],
      "name": "setKeeper",
      "outputs": [],
      "stateMutability": "nonpayable",
      "type": "function"
    },
    {
      "inputs": [],
      "name": "size",
      "outputs": [
        {
          "internalType": "uint256",
          "name": "",
          "type": "uint256"
        }
      ],
      "stateMutability": "view",
      "type": "function"
    },
    {
      "inputs": [
        {
          "internalType": "uint256",
          "name": "num",
          "type": "uint256"
        }
      ],
      "name": "top",
      "outputs": [
        {
          "internalType": "uint256[]",
          "name": "",
          "type": "uint256[]"
        }
      ],
      "stateMutability": "view",
      "type": "function"
    },
    {
      "inputs": [
        {
          "internalType": "address",
          "name": "newOwner",
          "type": "address"
        }
      ],
      "name": "transferOwnership",
      "outputs": [],
      "stateMutability": "nonpayable",
      "type": "function"
    },
    {
      "inputs": [],
      "name": "unpause",
      "outputs": [],
      "stateMutability": "nonpayable",
      "type": "function"
    },
    {
      "inputs": [
        {
          "internalType": "uint256",
          "name": "amount",
          "type": "uint256"
        },
        {
          "internalType": "address payable",
          "name": "payee",
          "type": "address"
        }
      ],
      "name": "withdraw",
      "outputs": [],
      "stateMutability": "nonpayable",
      "type": "function"
    },
    {
      "stateMutability": "payable",
      "type": "receive"
    }
  ],
  "transactionHash": "0xd7f241d88396e8451812306963680485fcfb8001f8c2a0a097aec6433e6fe365",
  "args": [
    "0xA3E3026562a3ADAF7A761B10a45217c400a4054A",
    "0x51f57486F8b09Df7b37Ee78821E19d566B8dEd3d"
  ],
  "numDeployments": 1,
  "solcInputHash": "3231d4723280e1af11fe2c5fdc1d2663",
  "bytecode": "0x6080604052600a60055560006006553480156200001b57600080fd5b506040516200211f3803806200211f8339810160408190526200003e91620000dd565b81816200004b336200008d565b6000805460ff60a01b19169055600780546001600160a01b039384166001600160a01b0319918216179091556008805492909316911617905550620001359050565b600080546001600160a01b038381166001600160a01b0319831681178455604051919092169283917f8be0079c531659141344cd1fd0a4f28419497f9722a3daafe3b4186f6b6457e09190a35050565b60008060408385031215620000f157600080fd5b8251620000fe816200011c565b602084015190925062000111816200011c565b809150509250929050565b6001600160a01b03811681146200013257600080fd5b50565b611fda80620001456000396000f3fe6080604052600436106101ae5760003560e01c8063715018a6116100ec578063aa0a31001161008a578063c81c6c7c11610064578063c81c6c7c14610535578063d6ff17a01461054a578063edd004e514610560578063f2fde38b1461058057600080fd5b8063aa0a3100146104df578063b15269a5146104ff578063c30841171461051557600080fd5b8063862a179e116100c6578063862a179e146104425780638da5cb5b1461046f578063949d225d1461049a5780639507d39a146104af57600080fd5b8063715018a6146103f8578063748747e61461040d5780638456cb591461042d57600080fd5b80633df4ddf41161015957806347799da81161013357806347799da8146103285780635c975abb1461033d578063630dc7cb146103785780636e04ff0d146103ca57600080fd5b80633df4ddf4146102de5780633f4ba83a146102f35780634585e33b1461030857600080fd5b80631c3c0ea81161018a5780631c3c0ea81461025a578063313ae5411461027a57806335671214146102b057600080fd5b8062b34ebd146101f8578062f714ce1461021a5780630fbeb0321461023a57600080fd5b366101f35760408051348152476020820152338183015290517fc6f3fb0fec49e4877342d4625d77a632541f55b7aae0f9d0b34c69b3478706dc9181900360600190a1005b600080fd5b34801561020457600080fd5b50610218610213366004611c8a565b6105a0565b005b34801561022657600080fd5b50610218610235366004611c5a565b61066d565b34801561024657600080fd5b50610218610255366004611c41565b6107a4565b34801561026657600080fd5b50610218610275366004611a4c565b61082a565b34801561028657600080fd5b5061029a610295366004611c41565b6108f2565b6040516102a79190611cf6565b60405180910390f35b3480156102bc57600080fd5b506102d06102cb366004611c41565b610905565b6040519081526020016102a7565b3480156102ea57600080fd5b506102d0610912565b3480156102ff57600080fd5b50610218610923565b34801561031457600080fd5b50610218610323366004611b1d565b6109ae565b34801561033457600080fd5b506002546102d0565b34801561034957600080fd5b5060005474010000000000000000000000000000000000000000900460ff1660405190151581526020016102a7565b34801561038457600080fd5b506008546103a59073ffffffffffffffffffffffffffffffffffffffff1681565b60405173ffffffffffffffffffffffffffffffffffffffff90911681526020016102a7565b3480156103d657600080fd5b506103ea6103e5366004611b1d565b610aef565b6040516102a7929190611d3a565b34801561040457600080fd5b50610218610bb5565b34801561041957600080fd5b50610218610428366004611a4c565b610c40565b34801561043957600080fd5b50610218610d7c565b34801561044e57600080fd5b506007546103a59073ffffffffffffffffffffffffffffffffffffffff1681565b34801561047b57600080fd5b5060005473ffffffffffffffffffffffffffffffffffffffff166103a5565b3480156104a657600080fd5b506001546102d0565b3480156104bb57600080fd5b506102d06104ca366004611c41565b60009081526004602052604090206001015490565b3480156104eb57600080fd5b506102186104fa366004611c41565b610e05565b34801561050b57600080fd5b506102d060065481565b34801561052157600080fd5b50610218610530366004611c41565b610ef5565b34801561054157600080fd5b5061029a610fa4565b34801561055657600080fd5b506102d060055481565b34801561056c57600080fd5b506102d061057b366004611c41565b610fbc565b34801561058c57600080fd5b5061021861059b366004611a4c565b610fd0565b60085473ffffffffffffffffffffffffffffffffffffffff163314806105dd575060005473ffffffffffffffffffffffffffffffffffffffff1633145b610648576040517f08c379a000000000000000000000000000000000000000000000000000000000815260206004820152600c60248201527f6f6e6c794578656375746f72000000000000000000000000000000000000000060448201526064015b60405180910390fd5b6000821180156106585750600081115b1561066957610669600183836110fd565b5050565b60005473ffffffffffffffffffffffffffffffffffffffff1633146106ee576040517f08c379a000000000000000000000000000000000000000000000000000000000815260206004820181905260248201527f4f776e61626c653a2063616c6c6572206973206e6f7420746865206f776e6572604482015260640161063f565b73ffffffffffffffffffffffffffffffffffffffff811661070e57600080fd5b6040805183815273ffffffffffffffffffffffffffffffffffffffff831660208201527f6141b54b56b8a52a8c6f5cd2a857f6117b18ffbf4d46bd3106f300a839cbf5ea910160405180910390a160405173ffffffffffffffffffffffffffffffffffffffff82169083156108fc029084906000818181858888f1935050505015801561079f573d6000803e3d6000fd5b505050565b60005473ffffffffffffffffffffffffffffffffffffffff163314610825576040517f08c379a000000000000000000000000000000000000000000000000000000000815260206004820181905260248201527f4f776e61626c653a2063616c6c6572206973206e6f7420746865206f776e6572604482015260640161063f565b600655565b60005473ffffffffffffffffffffffffffffffffffffffff1633146108ab576040517f08c379a000000000000000000000000000000000000000000000000000000000815260206004820181905260248201527f4f776e61626c653a2063616c6c6572206973206e6f7420746865206f776e6572604482015260640161063f565b600880547fffffffffffffffffffffffff00000000000000000000000000000000000000001673ffffffffffffffffffffffffffffffffffffffff92909216919091179055565b60606108ff600183611233565b92915050565b60006108ff600183611316565b600061091e600161134a565b905090565b60005473ffffffffffffffffffffffffffffffffffffffff1633146109a4576040517f08c379a000000000000000000000000000000000000000000000000000000000815260206004820181905260248201527f4f776e61626c653a2063616c6c6572206973206e6f7420746865206f776e6572604482015260640161063f565b6109ac611360565b565b60005474010000000000000000000000000000000000000000900460ff1615610a33576040517f08c379a000000000000000000000000000000000000000000000000000000000815260206004820152601060248201527f5061757361626c653a2070617573656400000000000000000000000000000000604482015260640161063f565b60075473ffffffffffffffffffffffffffffffffffffffff16331480610a70575060005473ffffffffffffffffffffffffffffffffffffffff1633145b610ad6576040517f08c379a000000000000000000000000000000000000000000000000000000000815260206004820152601260248201527f6f6e6c794b656570657252656769737472790000000000000000000000000000604482015260640161063f565b6000610ae482840184611a70565b905061079f81611459565b6000805460609074010000000000000000000000000000000000000000900460ff1615610b78576040517f08c379a000000000000000000000000000000000000000000000000000000000815260206004820152601060248201527f5061757361626c653a2070617573656400000000000000000000000000000000604482015260640161063f565b6000610b82610fa4565b90506000815111925080604051602001610b9c9190611cf6565b6040516020818303038152906040529150509250929050565b60005473ffffffffffffffffffffffffffffffffffffffff163314610c36576040517f08c379a000000000000000000000000000000000000000000000000000000000815260206004820181905260248201527f4f776e61626c653a2063616c6c6572206973206e6f7420746865206f776e6572604482015260640161063f565b6109ac600061162b565b60005473ffffffffffffffffffffffffffffffffffffffff163314610cc1576040517f08c379a000000000000000000000000000000000000000000000000000000000815260206004820181905260248201527f4f776e61626c653a2063616c6c6572206973206e6f7420746865206f776e6572604482015260640161063f565b73ffffffffffffffffffffffffffffffffffffffff8116610ce157600080fd5b6007546040805173ffffffffffffffffffffffffffffffffffffffff928316815291831660208301527fb732223055abcde751d7a24272ffc8a3aa571cb72b443969a4199b7ecd59f8b9910160405180910390a1600780547fffffffffffffffffffffffff00000000000000000000000000000000000000001673ffffffffffffffffffffffffffffffffffffffff92909216919091179055565b60005473ffffffffffffffffffffffffffffffffffffffff163314610dfd576040517f08c379a000000000000000000000000000000000000000000000000000000000815260206004820181905260248201527f4f776e61626c653a2063616c6c6572206973206e6f7420746865206f776e6572604482015260640161063f565b6109ac6116a0565b60005473ffffffffffffffffffffffffffffffffffffffff163314610e86576040517f08c379a000000000000000000000000000000000000000000000000000000000815260206004820181905260248201527f4f776e61626c653a2063616c6c6572206973206e6f7420746865206f776e6572604482015260640161063f565b60008111610ef0576040517f08c379a000000000000000000000000000000000000000000000000000000000815260206004820152601160248201527f496e76616c6964206c696d6974206e756d000000000000000000000000000000604482015260640161063f565b600555565b60085473ffffffffffffffffffffffffffffffffffffffff16331480610f32575060005473ffffffffffffffffffffffffffffffffffffffff1633145b610f98576040517f08c379a000000000000000000000000000000000000000000000000000000000815260206004820152600c60248201527f6f6e6c794578656375746f720000000000000000000000000000000000000000604482015260640161063f565b610fa18161178c565b50565b606061091e600554600161123390919063ffffffff16565b6000818152600360205260408120546108ff565b60005473ffffffffffffffffffffffffffffffffffffffff163314611051576040517f08c379a000000000000000000000000000000000000000000000000000000000815260206004820181905260248201527f4f776e61626c653a2063616c6c6572206973206e6f7420746865206f776e6572604482015260640161063f565b73ffffffffffffffffffffffffffffffffffffffff81166110f4576040517f08c379a000000000000000000000000000000000000000000000000000000000815260206004820152602660248201527f4f776e61626c653a206e6577206f776e657220697320746865207a65726f206160448201527f6464726573730000000000000000000000000000000000000000000000000000606482015260840161063f565b610fa18161162b565b60008211611167576040517f08c379a000000000000000000000000000000000000000000000000000000000815260206004820152600e60248201527f72657175697265206964203e2030000000000000000000000000000000000000604482015260640161063f565b60008281526003840160205260409020600101541561118557505050565b60006111918483611797565b600081815260028681016020908152604080842080549089905588855281852081905581516060810183528981528084018981528184018881528b885260038d0190955292909520945185559051600185015590519290910191909155909150806112025760018501849055611219565b600081815260038601602052604090206002018490555b845485600061122783611ebc565b91905055505050505050565b815460609082111561124457825491505b600182101561126257506040805160008152602081019091526108ff565b60008267ffffffffffffffff81111561127d5761127d611f53565b6040519080825280602002602001820160405280156112a6578160200160208202803683370190505b50905060006112b48561134a565b905060005b8481101561130c5781156112e757818382815181106112da576112da611f24565b6020026020010181815250505b600082815260028701602052604090205491508061130481611ebc565b9150506112b9565b5090949350505050565b6000611322838361193e565b15611341575060008181526003830160205260409020600201546108ff565b50600092915050565b60008080526002820160205260408120546108ff565b60005474010000000000000000000000000000000000000000900460ff166113e4576040517f08c379a000000000000000000000000000000000000000000000000000000000815260206004820152601460248201527f5061757361626c653a206e6f7420706175736564000000000000000000000000604482015260640161063f565b600080547fffffffffffffffffffffff00ffffffffffffffffffffffffffffffffffffffff1690557f5db9ee0a495bf2e6ff9c91a7834c1ba4fdd244a5e8aa4e537bd38aeae4b073aa335b60405173ffffffffffffffffffffffffffffffffffffffff909116815260200160405180910390a1565b600060405180608001604052806006548152602001600081526020016040518060400160405280600281526020017f307800000000000000000000000000000000000000000000000000000000000081525081526020016040518060400160405280600281526020017f3078000000000000000000000000000000000000000000000000000000000000815250815250905060005b825181101561079f57600083828151811061150b5761150b611f24565b6020026020010151905061151e8161178c565b6008546040517fef2d237600000000000000000000000000000000000000000000000000000000815273ffffffffffffffffffffffffffffffffffffffff9091169063ef2d2376906115769084908790600401611d76565b600060405180830381600087803b15801561159057600080fd5b505af19250505080156115a1575060015b611618573d8080156115cf576040519150601f19603f3d011682016040523d82523d6000602084013e6115d4565b606091505b507f8a8daba70101a3ef953fcbe396dcf4370b8204bff0f421bdeaac9867e8fcfe048261160083611968565b60405161160e929190611d5d565b60405180910390a1505b508061162381611ebc565b9150506114ee565b6000805473ffffffffffffffffffffffffffffffffffffffff8381167fffffffffffffffffffffffff0000000000000000000000000000000000000000831681178455604051919092169283917f8be0079c531659141344cd1fd0a4f28419497f9722a3daafe3b4186f6b6457e09190a35050565b60005474010000000000000000000000000000000000000000900460ff1615611725576040517f08c379a000000000000000000000000000000000000000000000000000000000815260206004820152601060248201527f5061757361626c653a2070617573656400000000000000000000000000000000604482015260640161063f565b600080547fffffffffffffffffffffff00ffffffffffffffffffffffffffffffffffffffff16740100000000000000000000000000000000000000001790557f62e78cea01bee320cd4e420270b5ea74000d11b0c9f74754ebdbfc544b05a25861142f3390565b610fa16001826119a2565b6000808211611802576040517f08c379a000000000000000000000000000000000000000000000000000000000815260206004820152601260248201527f7265717569726520746172676574203e20300000000000000000000000000000604482015260640161063f565b8254611810575060006108ff565b6001808401546000818152600386016020526040902090910154808410611839575090506108ff565b60006118448661134a565b600081815260038801602052604090206001015490915080861161186f5760009450505050506108ff565b6000600161187d8584611e3f565b901c90508087106118dc57845b80156118d65761189a8982611316565b90506000811180156118bf5750600081815260038a0160205260409020600101548810155b156118d15795506108ff945050505050565b61188a565b50611930565b825b801561192e57600090815260028901602052604090205480158015906119175750600081815260038a0160205260409020600101548810155b156119295795506108ff945050505050565b6118de565b505b506000979650505050505050565b600080821161194c57600080fd5b5060009081526003919091016020526040902060010154151590565b606060448251101561198857505060408051602081019091526000815290565b600482019150818060200190518101906108ff9190611b8f565b6119ac828261193e565b156106695760006119bd8383611316565b600083815260028501602052604080822054838352912081905590915080156119f757600081815260038501602052604090206002018290555b80611a0457600184018290555b60008381526003850160209081526040808320838155600181018490556002908101849055870190915281208190558454908590611a4183611e87565b919050555050505050565b600060208284031215611a5e57600080fd5b8135611a6981611f82565b9392505050565b60006020808385031215611a8357600080fd5b823567ffffffffffffffff80821115611a9b57600080fd5b818501915085601f830112611aaf57600080fd5b813581811115611ac157611ac1611f53565b8060051b9150611ad2848301611df0565b8181528481019084860184860187018a1015611aed57600080fd5b600095505b83861015611b10578035835260019590950194918601918601611af2565b5098975050505050505050565b60008060208385031215611b3057600080fd5b823567ffffffffffffffff80821115611b4857600080fd5b818501915085601f830112611b5c57600080fd5b813581811115611b6b57600080fd5b866020828501011115611b7d57600080fd5b60209290920196919550909350505050565b600060208284031215611ba157600080fd5b815167ffffffffffffffff80821115611bb957600080fd5b818401915084601f830112611bcd57600080fd5b815181811115611bdf57611bdf611f53565b611c1060207fffffffffffffffffffffffffffffffffffffffffffffffffffffffffffffffe0601f84011601611df0565b9150808252856020828501011115611c2757600080fd5b611c38816020840160208601611e57565b50949350505050565b600060208284031215611c5357600080fd5b5035919050565b60008060408385031215611c6d57600080fd5b823591506020830135611c7f81611f82565b809150509250929050565b60008060408385031215611c9d57600080fd5b50508035926020909101359150565b60008151808452611cc4816020860160208601611e57565b601f017fffffffffffffffffffffffffffffffffffffffffffffffffffffffffffffffe0169290920160200192915050565b6020808252825182820181905260009190848201906040850190845b81811015611d2e57835183529284019291840191600101611d12565b50909695505050505050565b8215158152604060208201526000611d556040830184611cac565b949350505050565b828152604060208201526000611d556040830184611cac565b82815260406020820152815160408201526020820151606082015260006040830151608080840152611dab60c0840182611cac565b905060608401517fffffffffffffffffffffffffffffffffffffffffffffffffffffffffffffffc08483030160a0850152611de68282611cac565b9695505050505050565b604051601f82017fffffffffffffffffffffffffffffffffffffffffffffffffffffffffffffffe016810167ffffffffffffffff81118282101715611e3757611e37611f53565b604052919050565b60008219821115611e5257611e52611ef5565b500190565b60005b83811015611e72578181015183820152602001611e5a565b83811115611e81576000848401525b50505050565b600081611e9657611e96611ef5565b507fffffffffffffffffffffffffffffffffffffffffffffffffffffffffffffffff0190565b60007fffffffffffffffffffffffffffffffffffffffffffffffffffffffffffffffff821415611eee57611eee611ef5565b5060010190565b7f4e487b7100000000000000000000000000000000000000000000000000000000600052601160045260246000fd5b7f4e487b7100000000000000000000000000000000000000000000000000000000600052603260045260246000fd5b7f4e487b7100000000000000000000000000000000000000000000000000000000600052604160045260246000fd5b73ffffffffffffffffffffffffffffffffffffffff81168114610fa157600080fdfea2646970667358221220f40a62b8de5ab14782bf77c64d6580a6f1342adae0f4ea34945605efcc6cf17364736f6c63430008060033",
  "devdoc": {
    "kind": "dev",
    "methods": {
      "constructor": {
        "params": {
          "_executor": "The LucksExecutor contract",
          "_keeperRegAddr": "The address of the keeper registry contract"
        }
      },
      "owner()": {
        "details": "Returns the address of the current owner."
      },
      "paused()": {
        "details": "Returns true if the contract is paused, and false otherwise."
      },
      "performUpkeep(bytes)": {
        "details": "The input to this method should not be trusted, and the caller of the method should not even be restricted to any single registry. Anyone should be able call it, and the input should be validated, there is no guarantee that the data passed in is the performData returned from checkUpkeep. This could happen due to malicious keepers, racing keepers, or simply a state change while the performUpkeep transaction is waiting for confirmation. Always validate the data passed in.",
        "params": {
          "performData": "is the data which was passed back from the checkData simulation. If it is encoded, it can easily be decoded into other types by calling `abi.decode`. This data should not be trusted, and should be validated against the contract's current state."
        }
      },
      "renounceOwnership()": {
        "details": "Leaves the contract without owner. It will not be possible to call `onlyOwner` functions anymore. Can only be called by the current owner. NOTE: Renouncing ownership will leave the contract without an owner, thereby removing any functionality that is only available to the owner."
      },
      "transferOwnership(address)": {
        "details": "Transfers ownership of the contract to a new account (`newOwner`). Can only be called by the current owner."
      },
      "withdraw(uint256,address)": {
        "params": {
          "amount": "The amount of eth (in wei) to withdraw",
          "payee": "The address to pay"
        }
      }
    },
    "version": 1
  },
  "userdoc": {
    "kind": "user",
    "methods": {
      "pause()": {
        "notice": "Pauses the contrac t, which prevents executing performUpkeep"
      },
      "performUpkeep(bytes)": {
        "notice": "method that is actually executed by the keepers, via the registry. The data returned by the checkUpkeep simulation will be passed into this method to actually be executed."
      },
      "setExecutor(address)": {
        "notice": "set operator"
      },
      "setKeeper(address)": {
        "notice": "Sets the keeper registry address"
      },
      "unpause()": {
        "notice": "Unpauses the contract"
      },
      "withdraw(uint256,address)": {
        "notice": "Withdraws the contract balance"
      }
    },
    "version": 1
  },
  "storageLayout": {
    "storage": [
      {
        "astId": 917,
        "contract": "contracts/lucks/LucksAutoCloseTask.sol:LucksAutoCloseTask",
        "label": "_owner",
        "offset": 0,
        "slot": "0",
        "type": "t_address"
      },
      {
        "astId": 1032,
        "contract": "contracts/lucks/LucksAutoCloseTask.sol:LucksAutoCloseTask",
        "label": "_paused",
        "offset": 20,
        "slot": "0",
        "type": "t_bool"
      },
      {
        "astId": 13541,
        "contract": "contracts/lucks/LucksAutoCloseTask.sol:LucksAutoCloseTask",
        "label": "taskList",
        "offset": 0,
        "slot": "1",
        "type": "t_struct(SortedMap)12573_storage"
      },
      {
        "astId": 13544,
        "contract": "contracts/lucks/LucksAutoCloseTask.sol:LucksAutoCloseTask",
        "label": "BATCH_PERFORM_LIMIT",
        "offset": 0,
        "slot": "5",
        "type": "t_uint256"
      },
      {
        "astId": 13547,
        "contract": "contracts/lucks/LucksAutoCloseTask.sol:LucksAutoCloseTask",
        "label": "DST_GAS_AMOUNT",
        "offset": 0,
        "slot": "6",
        "type": "t_uint256"
      },
      {
        "astId": 13549,
        "contract": "contracts/lucks/LucksAutoCloseTask.sol:LucksAutoCloseTask",
        "label": "KEEPER",
        "offset": 0,
        "slot": "7",
        "type": "t_address"
      },
      {
        "astId": 13552,
        "contract": "contracts/lucks/LucksAutoCloseTask.sol:LucksAutoCloseTask",
        "label": "EXECUTOR",
        "offset": 0,
        "slot": "8",
        "type": "t_contract(ILucksExecutor)10077"
      }
    ],
    "types": {
      "t_address": {
        "encoding": "inplace",
        "label": "address",
        "numberOfBytes": "20"
      },
      "t_bool": {
        "encoding": "inplace",
        "label": "bool",
        "numberOfBytes": "1"
      },
      "t_contract(ILucksExecutor)10077": {
        "encoding": "inplace",
        "label": "contract ILucksExecutor",
        "numberOfBytes": "20"
      },
      "t_mapping(t_uint256,t_struct(Item)12553_storage)": {
        "encoding": "mapping",
        "key": "t_uint256",
        "label": "mapping(uint256 => struct SortedLinkMap.Item)",
        "numberOfBytes": "32",
        "value": "t_struct(Item)12553_storage"
      },
      "t_mapping(t_uint256,t_uint256)": {
        "encoding": "mapping",
        "key": "t_uint256",
        "label": "mapping(uint256 => uint256)",
        "numberOfBytes": "32",
        "value": "t_uint256"
      },
      "t_struct(Item)12553_storage": {
        "encoding": "inplace",
        "label": "struct SortedLinkMap.Item",
        "members": [
          {
            "astId": 12548,
            "contract": "contracts/lucks/LucksAutoCloseTask.sol:LucksAutoCloseTask",
            "label": "id",
            "offset": 0,
            "slot": "0",
            "type": "t_uint256"
          },
          {
            "astId": 12550,
            "contract": "contracts/lucks/LucksAutoCloseTask.sol:LucksAutoCloseTask",
            "label": "value",
            "offset": 0,
            "slot": "1",
            "type": "t_uint256"
          },
          {
            "astId": 12552,
            "contract": "contracts/lucks/LucksAutoCloseTask.sol:LucksAutoCloseTask",
            "label": "leftId",
            "offset": 0,
            "slot": "2",
            "type": "t_uint256"
          }
        ],
        "numberOfBytes": "96"
      },
      "t_struct(SortedMap)12573_storage": {
        "encoding": "inplace",
        "label": "struct SortedLinkMap.SortedMap",
        "members": [
          {
            "astId": 12561,
            "contract": "contracts/lucks/LucksAutoCloseTask.sol:LucksAutoCloseTask",
            "label": "count",
            "offset": 0,
            "slot": "0",
            "type": "t_uint256"
          },
          {
            "astId": 12563,
            "contract": "contracts/lucks/LucksAutoCloseTask.sol:LucksAutoCloseTask",
            "label": "maxId",
            "offset": 0,
            "slot": "1",
            "type": "t_uint256"
          },
          {
            "astId": 12567,
            "contract": "contracts/lucks/LucksAutoCloseTask.sol:LucksAutoCloseTask",
            "label": "keys",
            "offset": 0,
            "slot": "2",
            "type": "t_mapping(t_uint256,t_uint256)"
          },
          {
            "astId": 12572,
            "contract": "contracts/lucks/LucksAutoCloseTask.sol:LucksAutoCloseTask",
            "label": "nodes",
            "offset": 0,
            "slot": "3",
            "type": "t_mapping(t_uint256,t_struct(Item)12553_storage)"
          }
        ],
        "numberOfBytes": "128"
      },
      "t_uint256": {
        "encoding": "inplace",
        "label": "uint256",
        "numberOfBytes": "32"
      }
    }
  }
}