{
  "address": "0x41933a13Fb756A8382115c065782f4362002945d",
  "abi": [
    {
      "inputs": [
        {
          "internalType": "address[]",
          "name": "_acceptTokens",
          "type": "address[]"
        },
        {
          "internalType": "address",
          "name": "_recipient",
          "type": "address"
        },
        {
          "internalType": "uint256",
          "name": "_fee",
          "type": "uint256"
        },
        {
          "internalType": "contract ILucksExecutor",
          "name": "_executor",
          "type": "address"
        },
        {
          "internalType": "contract ILucksVRF",
          "name": "_vrf",
          "type": "address"
        },
        {
          "internalType": "contract ILucksGroup",
          "name": "_groups",
          "type": "address"
        },
        {
          "internalType": "contract ILucksPaymentStrategy",
          "name": "_strategy",
          "type": "address"
        },
        {
          "internalType": "contract ILucksAuto",
          "name": "_auto_close",
          "type": "address"
        },
        {
          "internalType": "contract ILucksAuto",
          "name": "_auto_draw",
          "type": "address"
        }
      ],
      "stateMutability": "nonpayable",
      "type": "constructor"
    },
    {
      "anonymous": false,
      "inputs": [
        {
          "indexed": true,
          "internalType": "address",
          "name": "previousOwner",
          "type": "address"
        },
        {
          "indexed": true,
          "internalType": "address",
          "name": "newOwner",
          "type": "address"
        }
      ],
      "name": "OwnershipTransferred",
      "type": "event"
    },
    {
      "inputs": [],
      "name": "AUTO_CLOSE",
      "outputs": [
        {
          "internalType": "contract ILucksAuto",
          "name": "",
          "type": "address"
        }
      ],
      "stateMutability": "view",
      "type": "function"
    },
    {
      "inputs": [],
      "name": "AUTO_DRAW",
      "outputs": [
        {
          "internalType": "contract ILucksAuto",
          "name": "",
          "type": "address"
        }
      ],
      "stateMutability": "view",
      "type": "function"
    },
    {
      "inputs": [],
      "name": "DRAW_DELAY_SEC",
      "outputs": [
        {
          "internalType": "uint32",
          "name": "",
          "type": "uint32"
        }
      ],
      "stateMutability": "view",
      "type": "function"
    },
    {
      "inputs": [],
      "name": "EXECUTOR",
      "outputs": [
        {
          "internalType": "contract ILucksExecutor",
          "name": "",
          "type": "address"
        }
      ],
      "stateMutability": "view",
      "type": "function"
    },
    {
      "inputs": [],
      "name": "GROUPS",
      "outputs": [
        {
          "internalType": "contract ILucksGroup",
          "name": "",
          "type": "address"
        }
      ],
      "stateMutability": "view",
      "type": "function"
    },
    {
      "inputs": [],
      "name": "MAX_PER_JOIN_NUM",
      "outputs": [
        {
          "internalType": "uint32",
          "name": "",
          "type": "uint32"
        }
      ],
      "stateMutability": "view",
      "type": "function"
    },
    {
      "inputs": [],
      "name": "STRATEGY",
      "outputs": [
        {
          "internalType": "contract ILucksPaymentStrategy",
          "name": "",
          "type": "address"
        }
      ],
      "stateMutability": "view",
      "type": "function"
    },
    {
      "inputs": [],
      "name": "VRF",
      "outputs": [
        {
          "internalType": "contract ILucksVRF",
          "name": "",
          "type": "address"
        }
      ],
      "stateMutability": "view",
      "type": "function"
    },
    {
      "inputs": [
        {
          "internalType": "address",
          "name": "",
          "type": "address"
        }
      ],
      "name": "acceptTokens",
      "outputs": [
        {
          "internalType": "bool",
          "name": "",
          "type": "bool"
        }
      ],
      "stateMutability": "view",
      "type": "function"
    },
    {
      "inputs": [
        {
          "internalType": "address",
          "name": "acceptToken",
          "type": "address"
        }
      ],
      "name": "checkAcceptToken",
      "outputs": [
        {
          "internalType": "bool",
          "name": "",
          "type": "bool"
        }
      ],
      "stateMutability": "view",
      "type": "function"
    },
    {
      "inputs": [
        {
          "internalType": "address",
          "name": "account",
          "type": "address"
        },
        {
          "internalType": "address",
          "name": "token",
          "type": "address"
        },
        {
          "internalType": "uint256",
          "name": "amount",
          "type": "uint256"
        }
      ],
      "name": "checkExclusive",
      "outputs": [
        {
          "internalType": "bool",
          "name": "",
          "type": "bool"
        }
      ],
      "stateMutability": "view",
      "type": "function"
    },
    {
      "inputs": [
        {
          "internalType": "address",
          "name": "user",
          "type": "address"
        },
        {
          "internalType": "uint256",
          "name": "taskId",
          "type": "uint256"
        },
        {
          "internalType": "uint32",
          "name": "num",
          "type": "uint32"
        },
        {
          "internalType": "string",
          "name": "note",
          "type": "string"
        }
      ],
      "name": "checkJoinTask",
      "outputs": [
        {
          "internalType": "bool",
          "name": "",
          "type": "bool"
        }
      ],
      "stateMutability": "view",
      "type": "function"
    },
    {
      "inputs": [
        {
          "internalType": "address",
          "name": "addr",
          "type": "address"
        }
      ],
      "name": "checkNFTContract",
      "outputs": [
        {
          "internalType": "bool",
          "name": "",
          "type": "bool"
        }
      ],
      "stateMutability": "view",
      "type": "function"
    },
    {
      "inputs": [
        {
          "internalType": "address",
          "name": "user",
          "type": "address"
        },
        {
          "components": [
            {
              "internalType": "address",
              "name": "seller",
              "type": "address"
            },
            {
              "internalType": "uint16",
              "name": "nftChainId",
              "type": "uint16"
            },
            {
              "internalType": "address",
              "name": "nftContract",
              "type": "address"
            },
            {
              "internalType": "uint256[]",
              "name": "tokenIds",
              "type": "uint256[]"
            },
            {
              "internalType": "uint256[]",
              "name": "tokenAmounts",
              "type": "uint256[]"
            },
            {
              "internalType": "address",
              "name": "acceptToken",
              "type": "address"
            },
            {
              "internalType": "enum TaskStatus",
              "name": "status",
              "type": "uint8"
            },
            {
              "internalType": "uint256",
              "name": "startTime",
              "type": "uint256"
            },
            {
              "internalType": "uint256",
              "name": "endTime",
              "type": "uint256"
            },
            {
              "internalType": "uint256",
              "name": "targetAmount",
              "type": "uint256"
            },
            {
              "internalType": "uint256",
              "name": "price",
              "type": "uint256"
            },
            {
              "internalType": "uint16",
              "name": "paymentStrategy",
              "type": "uint16"
            },
            {
              "components": [
                {
                  "internalType": "address",
                  "name": "token",
                  "type": "address"
                },
                {
                  "internalType": "uint256",
                  "name": "amount",
                  "type": "uint256"
                }
              ],
              "internalType": "struct ExclusiveToken",
              "name": "exclusiveToken",
              "type": "tuple"
            },
            {
              "internalType": "uint256",
              "name": "amountCollected",
              "type": "uint256"
            },
            {
              "internalType": "uint256",
              "name": "depositId",
              "type": "uint256"
            }
          ],
          "internalType": "struct TaskItem",
          "name": "item",
          "type": "tuple"
        }
      ],
      "name": "checkNewTask",
      "outputs": [
        {
          "internalType": "bool",
          "name": "",
          "type": "bool"
        }
      ],
      "stateMutability": "view",
      "type": "function"
    },
    {
      "inputs": [
        {
          "components": [
            {
              "internalType": "uint16",
              "name": "chainId",
              "type": "uint16"
            },
            {
              "internalType": "string",
              "name": "title",
              "type": "string"
            },
            {
              "internalType": "string",
              "name": "note",
              "type": "string"
            }
          ],
          "internalType": "struct TaskExt",
          "name": "ext",
          "type": "tuple"
        }
      ],
      "name": "checkNewTaskExt",
      "outputs": [
        {
          "internalType": "bool",
          "name": "",
          "type": "bool"
        }
      ],
      "stateMutability": "pure",
      "type": "function"
    },
    {
      "inputs": [
        {
          "components": [
            {
              "internalType": "address",
              "name": "seller",
              "type": "address"
            },
            {
              "internalType": "uint16",
              "name": "nftChainId",
              "type": "uint16"
            },
            {
              "internalType": "address",
              "name": "nftContract",
              "type": "address"
            },
            {
              "internalType": "uint256[]",
              "name": "tokenIds",
              "type": "uint256[]"
            },
            {
              "internalType": "uint256[]",
              "name": "tokenAmounts",
              "type": "uint256[]"
            },
            {
              "internalType": "address",
              "name": "acceptToken",
              "type": "address"
            },
            {
              "internalType": "enum TaskStatus",
              "name": "status",
              "type": "uint8"
            },
            {
              "internalType": "uint256",
              "name": "startTime",
              "type": "uint256"
            },
            {
              "internalType": "uint256",
              "name": "endTime",
              "type": "uint256"
            },
            {
              "internalType": "uint256",
              "name": "targetAmount",
              "type": "uint256"
            },
            {
              "internalType": "uint256",
              "name": "price",
              "type": "uint256"
            },
            {
              "internalType": "uint16",
              "name": "paymentStrategy",
              "type": "uint16"
            },
            {
              "components": [
                {
                  "internalType": "address",
                  "name": "token",
                  "type": "address"
                },
                {
                  "internalType": "uint256",
                  "name": "amount",
                  "type": "uint256"
                }
              ],
              "internalType": "struct ExclusiveToken",
              "name": "exclusiveToken",
              "type": "tuple"
            },
            {
              "internalType": "uint256",
              "name": "amountCollected",
              "type": "uint256"
            },
            {
              "internalType": "uint256",
              "name": "depositId",
              "type": "uint256"
            }
          ],
          "internalType": "struct TaskItem",
          "name": "item",
          "type": "tuple"
        }
      ],
      "name": "checkNewTaskRemote",
      "outputs": [
        {
          "internalType": "bool",
          "name": "",
          "type": "bool"
        }
      ],
      "stateMutability": "view",
      "type": "function"
    },
    {
      "inputs": [
        {
          "internalType": "uint32",
          "name": "num",
          "type": "uint32"
        }
      ],
      "name": "checkPerJoinLimit",
      "outputs": [
        {
          "internalType": "bool",
          "name": "",
          "type": "bool"
        }
      ],
      "stateMutability": "view",
      "type": "function"
    },
    {
      "inputs": [
        {
          "internalType": "address",
          "name": "addr",
          "type": "address"
        },
        {
          "internalType": "address",
          "name": "seller",
          "type": "address"
        },
        {
          "internalType": "uint256[]",
          "name": "tokenIds",
          "type": "uint256[]"
        },
        {
          "internalType": "uint256[]",
          "name": "amounts",
          "type": "uint256[]"
        }
      ],
      "name": "checkTokenListing",
      "outputs": [
        {
          "internalType": "bool",
          "name": "",
          "type": "bool"
        },
        {
          "internalType": "string",
          "name": "",
          "type": "string"
        }
      ],
      "stateMutability": "view",
      "type": "function"
    },
    {
      "inputs": [],
      "name": "feeRecipient",
      "outputs": [
        {
          "internalType": "address",
          "name": "",
          "type": "address"
        }
      ],
      "stateMutability": "view",
      "type": "function"
    },
    {
      "inputs": [],
      "name": "getAutoClose",
      "outputs": [
        {
          "internalType": "contract ILucksAuto",
          "name": "",
          "type": "address"
        }
      ],
      "stateMutability": "view",
      "type": "function"
    },
    {
      "inputs": [],
      "name": "getAutoDraw",
      "outputs": [
        {
          "internalType": "contract ILucksAuto",
          "name": "",
          "type": "address"
        }
      ],
      "stateMutability": "view",
      "type": "function"
    },
    {
      "inputs": [],
      "name": "getDrawDelay",
      "outputs": [
        {
          "internalType": "uint32",
          "name": "",
          "type": "uint32"
        }
      ],
      "stateMutability": "view",
      "type": "function"
    },
    {
      "inputs": [],
      "name": "getGROUPS",
      "outputs": [
        {
          "internalType": "contract ILucksGroup",
          "name": "",
          "type": "address"
        }
      ],
      "stateMutability": "view",
      "type": "function"
    },
    {
      "inputs": [
        {
          "internalType": "address",
          "name": "token",
          "type": "address"
        }
      ],
      "name": "getMinTargetLimit",
      "outputs": [
        {
          "internalType": "uint256",
          "name": "",
          "type": "uint256"
        }
      ],
      "stateMutability": "view",
      "type": "function"
    },
    {
      "inputs": [],
      "name": "getProtocolFee",
      "outputs": [
        {
          "internalType": "uint256",
          "name": "",
          "type": "uint256"
        }
      ],
      "stateMutability": "view",
      "type": "function"
    },
    {
      "inputs": [],
      "name": "getProtocolFeeRecipient",
      "outputs": [
        {
          "internalType": "address",
          "name": "",
          "type": "address"
        }
      ],
      "stateMutability": "view",
      "type": "function"
    },
    {
      "inputs": [],
      "name": "getSTRATEGY",
      "outputs": [
        {
          "internalType": "contract ILucksPaymentStrategy",
          "name": "",
          "type": "address"
        }
      ],
      "stateMutability": "view",
      "type": "function"
    },
    {
      "inputs": [],
      "name": "getVRF",
      "outputs": [
        {
          "internalType": "contract ILucksVRF",
          "name": "",
          "type": "address"
        }
      ],
      "stateMutability": "view",
      "type": "function"
    },
    {
      "inputs": [
        {
          "internalType": "address",
          "name": "",
          "type": "address"
        }
      ],
      "name": "minTargetAmount",
      "outputs": [
        {
          "internalType": "uint256",
          "name": "",
          "type": "uint256"
        }
      ],
      "stateMutability": "view",
      "type": "function"
    },
    {
      "inputs": [
        {
          "internalType": "address",
          "name": "",
          "type": "address"
        }
      ],
      "name": "operators",
      "outputs": [
        {
          "internalType": "bool",
          "name": "",
          "type": "bool"
        }
      ],
      "stateMutability": "view",
      "type": "function"
    },
    {
      "inputs": [],
      "name": "owner",
      "outputs": [
        {
          "internalType": "address",
          "name": "",
          "type": "address"
        }
      ],
      "stateMutability": "view",
      "type": "function"
    },
    {
      "inputs": [],
      "name": "protocolFee",
      "outputs": [
        {
          "internalType": "uint256",
          "name": "",
          "type": "uint256"
        }
      ],
      "stateMutability": "view",
      "type": "function"
    },
    {
      "inputs": [],
      "name": "renounceOwnership",
      "outputs": [],
      "stateMutability": "nonpayable",
      "type": "function"
    },
    {
      "inputs": [
        {
          "internalType": "address[]",
          "name": "tokens",
          "type": "address[]"
        },
        {
          "internalType": "bool",
          "name": "enable",
          "type": "bool"
        }
      ],
      "name": "setAcceptTokens",
      "outputs": [],
      "stateMutability": "nonpayable",
      "type": "function"
    },
    {
      "inputs": [
        {
          "internalType": "uint32",
          "name": "second",
          "type": "uint32"
        }
      ],
      "name": "setDrawDelay",
      "outputs": [],
      "stateMutability": "nonpayable",
      "type": "function"
    },
    {
      "inputs": [
        {
          "internalType": "contract ILucksExecutor",
          "name": "_executor",
          "type": "address"
        }
      ],
      "name": "setExecutor",
      "outputs": [],
      "stateMutability": "nonpayable",
      "type": "function"
    },
    {
      "inputs": [
        {
          "internalType": "uint32",
          "name": "num",
          "type": "uint32"
        }
      ],
      "name": "setJoinLimitNum",
      "outputs": [],
      "stateMutability": "nonpayable",
      "type": "function"
    },
    {
      "inputs": [
        {
          "internalType": "contract ILucksAuto",
          "name": "_auto_close",
          "type": "address"
        },
        {
          "internalType": "contract ILucksAuto",
          "name": "_auto_draw",
          "type": "address"
        }
      ],
      "name": "setLucksAuto",
      "outputs": [],
      "stateMutability": "nonpayable",
      "type": "function"
    },
    {
      "inputs": [
        {
          "internalType": "contract ILucksGroup",
          "name": "addr",
          "type": "address"
        }
      ],
      "name": "setLucksGroup",
      "outputs": [],
      "stateMutability": "nonpayable",
      "type": "function"
    },
    {
      "inputs": [
        {
          "internalType": "contract ILucksVRF",
          "name": "addr",
          "type": "address"
        }
      ],
      "name": "setLucksVRF",
      "outputs": [],
      "stateMutability": "nonpayable",
      "type": "function"
    },
    {
      "inputs": [
        {
          "internalType": "address[]",
          "name": "tokens",
          "type": "address[]"
        },
        {
          "internalType": "uint256[]",
          "name": "amounts",
          "type": "uint256[]"
        }
      ],
      "name": "setMinTargetAmount",
      "outputs": [],
      "stateMutability": "nonpayable",
      "type": "function"
    },
    {
      "inputs": [
        {
          "internalType": "address",
          "name": "addr",
          "type": "address"
        },
        {
          "internalType": "bool",
          "name": "enable",
          "type": "bool"
        }
      ],
      "name": "setOperator",
      "outputs": [],
      "stateMutability": "nonpayable",
      "type": "function"
    },
    {
      "inputs": [
        {
          "internalType": "contract ILucksPaymentStrategy",
          "name": "addr",
          "type": "address"
        }
      ],
      "name": "setPaymentStrategy",
      "outputs": [],
      "stateMutability": "nonpayable",
      "type": "function"
    },
    {
      "inputs": [
        {
          "internalType": "uint256",
          "name": "fee",
          "type": "uint256"
        }
      ],
      "name": "setProtocolFee",
      "outputs": [],
      "stateMutability": "nonpayable",
      "type": "function"
    },
    {
      "inputs": [
        {
          "internalType": "address",
          "name": "addr",
          "type": "address"
        }
      ],
      "name": "setProtocolFeeRecipient",
      "outputs": [],
      "stateMutability": "nonpayable",
      "type": "function"
    },
    {
      "inputs": [
        {
          "internalType": "address",
          "name": "newOwner",
          "type": "address"
        }
      ],
      "name": "transferOwnership",
      "outputs": [],
      "stateMutability": "nonpayable",
      "type": "function"
    }
  ],
  "transactionHash": "0xba7177f31e6aac8fc353d55a659b1743281ee1017f0f315e664e534c4316048c",
  "args": [
    [
      "0x0000000000000000000000000000000000000000"
    ],
    "0x5b770F460978C456d69bC46463dfda71FEEE60AD",
    200,
    "0x314a051Fe16Cd23043F4Dd38940C4A62e6e87faC",
    "0xb0FEbA79F5f676333982Dc05874507e3DD015791",
    "0xd7Ff5C1Cd8707f10FD34daD677f8B103AA79DdC3",
    "0x38D34217e86576F58f410cff9E69f8364AcEF9e7",
    "0xd4FDF1787D7cd9293C8B45C597256645fBDe8Ce6",
    "0xdfA87153Ce26976Aa05bE0acD98c632f871A3106"
  ],
  "numDeployments": 1,
  "solcInputHash": "19d40a0b84454310c92d15580633cae2",
  "bytecode": "0x608060405260078054600160a01b600160e01b03191664078000027160a41b17905560c86008553480156200003357600080fd5b50604051620038eb380380620038eb833981016040819052620000569162000239565b6200006133620000f0565b600780546001600160a01b03199081166001600160a01b038b811691909117909255600889905560018054821689841617815560028054831689851617905560038054831688851617905560048054831687851617905560058054831686851617905560068054909216928416929092179055620000e1908a9062000140565b505050505050505050620003fe565b600080546001600160a01b038381166001600160a01b0319831681178455604051919092169283917f8be0079c531659141344cd1fd0a4f28419497f9722a3daafe3b4186f6b6457e09190a35050565b6000546001600160a01b03163314806200016957503360009081526009602052604090205460ff165b620001a95760405162461bcd60e51b815260206004820152600c60248201526b37b7363ca7b832b930ba37b960a11b604482015260640160405180910390fd5b60005b8251811015620002175781600a6000858481518110620001d057620001d0620003d2565b6020908102919091018101516001600160a01b03168252810191909152604001600020805460ff1916911515919091179055806200020e81620003a8565b915050620001ac565b505050565b80516001600160a01b03811681146200023457600080fd5b919050565b60008060008060008060008060006101208a8c0312156200025957600080fd5b89516001600160401b03808211156200027157600080fd5b818c0191508c601f8301126200028657600080fd5b8151818111156200029b576200029b620003e8565b604051601f19603f8360051b011681018181108482111715620002c257620002c2620003e8565b8060405250809250818152602081019250602084018f60208460051b8701011115620002ed57600080fd5b600094505b828510156200031c5762000306816200021c565b84526001949094019360209384019301620002f2565b509b50620003319250505060208b016200021c565b975060408a015196506200034860608b016200021c565b95506200035860808b016200021c565b94506200036860a08b016200021c565b93506200037860c08b016200021c565b92506200038860e08b016200021c565b9150620003996101008b016200021c565b90509295985092959850929598565b6000600019821415620003cb57634e487b7160e01b600052601160045260246000fd5b5060010190565b634e487b7160e01b600052603260045260246000fd5b634e487b7160e01b600052604160045260246000fd5b6134dd806200040e6000396000f3fe608060405234801561001057600080fd5b506004361061030a5760003560e01c80637f994c191161019c578063b19e035f116100ee578063d48ed1a511610097578063e7e46def11610071578063e7e46def146107e1578063edd3159d146107f4578063f2fde38b1461081257600080fd5b8063d48ed1a51461078f578063e521cb92146107a2578063e67aa0d1146107b557600080fd5b8063d12c51f8116100c8578063d12c51f81461072c578063d3a01b0a1461074c578063d45d76b31461076c57600080fd5b8063b19e035f146106e8578063c735fd7414610706578063cb9b4e121461071957600080fd5b80639861b7b111610150578063a126285b1161012a578063a126285b146106b7578063a5a41031146106d7578063b0e21e8a146106df57600080fd5b80639861b7b11461067e5780639b7ed979146106915780639ef4fdd5146106a457600080fd5b80638859e523116101815780638859e5231461062f5780638da5cb5b1461064257806393f1c9111461066057600080fd5b80637f994c19146105ce578063873360d71461060757600080fd5b80633156a58d116102605780636896c5ce11610209578063770ee870116101e3578063770ee87014610588578063787dce3d146105a85780637a6bbf18146105bb57600080fd5b80636896c5ce14610542578063715018a61461056257806372c8fc0e1461056a57600080fd5b8063469048401161023a57806346904840146104ef578063558a72971461050f578063630dc7cb1461052257600080fd5b80633156a58d1461047a578063350a9e4314610498578063375a32be146104ab57600080fd5b806319af3253116102c25780631c3c0ea81161029c5780631c3c0ea8146104365780631e07dbb814610449578063239619751461045c57600080fd5b806319af3253146103c75780631a44f03a146104025780631a88f8fc1461041557600080fd5b806313e7c9d8116102f357806313e7c9d81461034c5780631750518c1461036f578063185025ef1461038257600080fd5b806305b84a7d1461030f5780630990a98214610324575b600080fd5b61032261031d366004612bef565b610825565b005b610337610332366004612ec6565b6108f2565b60405190151581526020015b60405180910390f35b61033761035a366004612bef565b60096020526000908152604090205460ff1681565b61033761037d366004612d2c565b6109aa565b6004546103a29073ffffffffffffffffffffffffffffffffffffffff1681565b60405173ffffffffffffffffffffffffffffffffffffffff9091168152602001610343565b6007547801000000000000000000000000000000000000000000000000900463ffffffff165b60405163ffffffff9091168152602001610343565b610322610410366004612bef565b610e2b565b610428610423366004612c29565b610ef3565b6040516103439291906131cc565b610322610444366004612bef565b61138d565b610322610457366004613146565b61143b565b60055473ffffffffffffffffffffffffffffffffffffffff166103a2565b60065473ffffffffffffffffffffffffffffffffffffffff166103a2565b6103226104a6366004612bef565b61150b565b6104e16104b9366004612bef565b73ffffffffffffffffffffffffffffffffffffffff166000908152600b602052604090205490565b604051908152602001610343565b6007546103a29073ffffffffffffffffffffffffffffffffffffffff1681565b61032261051d366004612cf3565b6115d3565b6001546103a29073ffffffffffffffffffffffffffffffffffffffff1681565b6005546103a29073ffffffffffffffffffffffffffffffffffffffff1681565b610322611690565b60075473ffffffffffffffffffffffffffffffffffffffff166103a2565b6104e1610596366004612bef565b600b6020526000908152604090205481565b6103226105b6366004613114565b611703565b6103226105c9366004613146565b61176f565b6103376105dc366004612bef565b73ffffffffffffffffffffffffffffffffffffffff166000908152600a602052604090205460ff1690565b6007546103ed9074010000000000000000000000000000000000000000900463ffffffff1681565b61033761063d366004612bef565b611843565b60005473ffffffffffffffffffffffffffffffffffffffff166103a2565b60045473ffffffffffffffffffffffffffffffffffffffff166103a2565b61033761068c366004613146565b611a98565b61032261069f366004612e98565b611af5565b6103376106b2366004612cb2565b611bc9565b6002546103a29073ffffffffffffffffffffffffffffffffffffffff1681565b6008546104e1565b6104e160085481565b60035473ffffffffffffffffffffffffffffffffffffffff166103a2565b610337610714366004612f80565b611dc5565b610322610727366004612e34565b611f75565b6003546103a29073ffffffffffffffffffffffffffffffffffffffff1681565b6006546103a29073ffffffffffffffffffffffffffffffffffffffff1681565b61033761077a366004612bef565b600a6020526000908152604090205460ff1681565b61032261079d366004612dda565b61208d565b6103226107b0366004612bef565b6121a3565b6007546103ed907801000000000000000000000000000000000000000000000000900463ffffffff1681565b6103376107ef366004612d7c565b612251565b60025473ffffffffffffffffffffffffffffffffffffffff166103a2565b610322610820366004612bef565b612692565b60005473ffffffffffffffffffffffffffffffffffffffff1633148061085a57503360009081526009602052604090205460ff165b6108ab5760405162461bcd60e51b815260206004820152600c60248201527f6f6e6c794f70657261746f72000000000000000000000000000000000000000060448201526064015b60405180910390fd5b600380547fffffffffffffffffffffffff00000000000000000000000000000000000000001673ffffffffffffffffffffffffffffffffffffffff92909216919091179055565b6000610100826020015151111561094b5760405162461bcd60e51b815260206004820152601160248201527f496e76616c696420657874207469746c6500000000000000000000000000000060448201526064016108a2565b61010082604001515111156109a25760405162461bcd60e51b815260206004820152601060248201527f496e76616c696420657874206e6f74650000000000000000000000000000000060448201526064016108a2565b506001919050565b805160009073ffffffffffffffffffffffffffffffffffffffff1615801590610a0257508273ffffffffffffffffffffffffffffffffffffffff16826000015173ffffffffffffffffffffffffffffffffffffffff16145b610a4e5760405162461bcd60e51b815260206004820152601660248201527f496e76616c69642073656c6c657220616464726573730000000000000000000060448201526064016108a2565b6000826020015161ffff1611610aa65760405162461bcd60e51b815260206004820152601260248201527f496e76616c6964206e6674436861696e4964000000000000000000000000000060448201526064016108a2565b600082606001515111610afb5760405162461bcd60e51b815260206004820152600e60248201527f456d70747920746f6b656e49647300000000000000000000000000000000000060448201526064016108a2565b8161010001514210610b4f5760405162461bcd60e51b815260206004820152601260248201527f496e76616c69642074696d652072616e6765000000000000000000000000000060448201526064016108a2565b62014a7842836101000151610b64919061330b565b11610bb15760405162461bcd60e51b815260206004820152601260248201527f4475726174696f6e20746f6f2073686f7274000000000000000000000000000060448201526064016108a2565b6228de8042836101000151610bc6919061330b565b10610c135760405162461bcd60e51b815260206004820152601160248201527f4475726174696f6e20746f6f206c6f6e6700000000000000000000000000000060448201526064016108a2565b6000826101400151118015610c315750816101200151826101400151105b8015610c4f5750610140820151610120830151610c4d9161278e565b155b610c9b5760405162461bcd60e51b815260206004820152601d60248201527f496e76616c6964207072696365206f7220746172676574416d6f756e7400000060448201526064016108a2565b6000610cba83610140015184610120015161279a90919063ffffffff16565b9050600081118015610ccf5750620186a08111155b8015610ce35750610ce181600a61278e565b155b610d2f5760405162461bcd60e51b815260206004820152600b60248201527f496e76616c6964206e756d00000000000000000000000000000000000000000060448201526064016108a2565b6101a083015115610d825760405162461bcd60e51b815260206004820152601760248201527f496e76616c696420616d6f756e74436f6c6c656374656400000000000000000060448201526064016108a2565b610d8f8360400151611843565b610ddb5760405162461bcd60e51b815260206004820152601360248201527f496e76616c6964206e6674436f6e74726163740000000000000000000000000060448201526064016108a2565b600080610dfa8560400151866000015187606001518860800151610ef3565b91509150818190610e1e5760405162461bcd60e51b81526004016108a291906131e7565b5060019695505050505050565b60005473ffffffffffffffffffffffffffffffffffffffff16331480610e6057503360009081526009602052604090205460ff165b610eac5760405162461bcd60e51b815260206004820152600c60248201527f6f6e6c794f70657261746f72000000000000000000000000000000000000000060448201526064016108a2565b600480547fffffffffffffffffffffffff00000000000000000000000000000000000000001673ffffffffffffffffffffffffffffffffffffffff92909216919091179055565b6040517f01ffc9a70000000000000000000000000000000000000000000000000000000081527f80ac58cd00000000000000000000000000000000000000000000000000000000600482015260009060609073ffffffffffffffffffffffffffffffffffffffff8716906301ffc9a79060240160206040518083038186803b158015610f7e57600080fd5b505afa158015610f92573d6000803e3d6000fd5b505050506040513d601f19601f82011682018060405250810190610fb69190612e7b565b156110f45760005b84518110156110ee578573ffffffffffffffffffffffffffffffffffffffff168773ffffffffffffffffffffffffffffffffffffffff16636352211e87848151811061100c5761100c6133fc565b60200260200101516040518263ffffffff1660e01b815260040161103291815260200190565b60206040518083038186803b15801561104a57600080fd5b505afa15801561105e573d6000803e3d6000fd5b505050506040513d601f19601f820116820180604052508101906110829190612c0c565b73ffffffffffffffffffffffffffffffffffffffff16146110dc57505060408051808201909152601981527f546f6b656e206c6973746564206f72206e6f74206f776e657200000000000000602082015260009150611384565b806110e681613322565b915050610fbe565b5061136f565b6040517f01ffc9a70000000000000000000000000000000000000000000000000000000081527fd9b67a2600000000000000000000000000000000000000000000000000000000600482015273ffffffffffffffffffffffffffffffffffffffff8716906301ffc9a79060240160206040518083038186803b15801561117957600080fd5b505afa15801561118d573d6000803e3d6000fd5b505050506040513d601f19601f820116820180604052508101906111b19190612e7b565b1561136f5782518451146112075760405162461bcd60e51b815260206004820152600f60248201527f496e76616c696420696473206c656e000000000000000000000000000000000060448201526064016108a2565b60005b845181101561136d57838181518110611225576112256133fc565b60200260200101518773ffffffffffffffffffffffffffffffffffffffff1662fdd58e8888858151811061125b5761125b6133fc565b60200260200101516040518363ffffffff1660e01b81526004016112a192919073ffffffffffffffffffffffffffffffffffffffff929092168252602082015260400190565b60206040518083038186803b1580156112b957600080fd5b505afa1580156112cd573d6000803e3d6000fd5b505050506040513d601f19601f820116820180604052508101906112f1919061312d565b101580156113185750600084828151811061130e5761130e6133fc565b6020026020010151115b61135b57505060408051808201909152601981527f496e76616c696420616d6f756e74206f722062616c616e636500000000000000602082015260009150611384565b8061136581613322565b91505061120a565b505b50506040805160208101909152600081526001905b94509492505050565b60005473ffffffffffffffffffffffffffffffffffffffff1633146113f45760405162461bcd60e51b815260206004820181905260248201527f4f776e61626c653a2063616c6c6572206973206e6f7420746865206f776e657260448201526064016108a2565b600180547fffffffffffffffffffffffff00000000000000000000000000000000000000001673ffffffffffffffffffffffffffffffffffffffff92909216919091179055565b60005473ffffffffffffffffffffffffffffffffffffffff1633148061147057503360009081526009602052604090205460ff165b6114bc5760405162461bcd60e51b815260206004820152600c60248201527f6f6e6c794f70657261746f72000000000000000000000000000000000000000060448201526064016108a2565b6007805463ffffffff90921674010000000000000000000000000000000000000000027fffffffffffffffff00000000ffffffffffffffffffffffffffffffffffffffff909216919091179055565b60005473ffffffffffffffffffffffffffffffffffffffff1633148061154057503360009081526009602052604090205460ff165b61158c5760405162461bcd60e51b815260206004820152600c60248201527f6f6e6c794f70657261746f72000000000000000000000000000000000000000060448201526064016108a2565b600280547fffffffffffffffffffffffff00000000000000000000000000000000000000001673ffffffffffffffffffffffffffffffffffffffff92909216919091179055565b60005473ffffffffffffffffffffffffffffffffffffffff16331461163a5760405162461bcd60e51b815260206004820181905260248201527f4f776e61626c653a2063616c6c6572206973206e6f7420746865206f776e657260448201526064016108a2565b73ffffffffffffffffffffffffffffffffffffffff91909116600090815260096020526040902080547fffffffffffffffffffffffffffffffffffffffffffffffffffffffffffffff0016911515919091179055565b60005473ffffffffffffffffffffffffffffffffffffffff1633146116f75760405162461bcd60e51b815260206004820181905260248201527f4f776e61626c653a2063616c6c6572206973206e6f7420746865206f776e657260448201526064016108a2565b61170160006127a6565b565b60005473ffffffffffffffffffffffffffffffffffffffff16331461176a5760405162461bcd60e51b815260206004820181905260248201527f4f776e61626c653a2063616c6c6572206973206e6f7420746865206f776e657260448201526064016108a2565b600855565b60005473ffffffffffffffffffffffffffffffffffffffff163314806117a457503360009081526009602052604090205460ff165b6117f05760405162461bcd60e51b815260206004820152600c60248201527f6f6e6c794f70657261746f72000000000000000000000000000000000000000060448201526064016108a2565b6007805463ffffffff9092167801000000000000000000000000000000000000000000000000027fffffffff00000000ffffffffffffffffffffffffffffffffffffffffffffffff909216919091179055565b600073ffffffffffffffffffffffffffffffffffffffff821615801590611880575073ffffffffffffffffffffffffffffffffffffffff82163b15155b6118cc5760405162461bcd60e51b815260206004820152601360248201527f496e76616c6964206e6674436f6e74726163740000000000000000000000000060448201526064016108a2565b6040517f01ffc9a70000000000000000000000000000000000000000000000000000000081527f80ac58cd00000000000000000000000000000000000000000000000000000000600482015273ffffffffffffffffffffffffffffffffffffffff8316906301ffc9a79060240160206040518083038186803b15801561195157600080fd5b505afa158015611965573d6000803e3d6000fd5b505050506040513d601f19601f820116820180604052508101906119899190612e7b565b80611a4c57506040517f01ffc9a70000000000000000000000000000000000000000000000000000000081527fd9b67a2600000000000000000000000000000000000000000000000000000000600482015273ffffffffffffffffffffffffffffffffffffffff8316906301ffc9a79060240160206040518083038186803b158015611a1457600080fd5b505afa158015611a28573d6000803e3d6000fd5b505050506040513d601f19601f82011682018060405250810190611a4c9190612e7b565b6109a25760405162461bcd60e51b815260206004820152601060248201527f496e76616c696420636f6e74726163740000000000000000000000000000000060448201526064016108a2565b60075460009060017401000000000000000000000000000000000000000090910463ffffffff161080611aef575060075463ffffffff74010000000000000000000000000000000000000000909104811690831611155b92915050565b60005473ffffffffffffffffffffffffffffffffffffffff16331480611b2a57503360009081526009602052604090205460ff165b611b765760405162461bcd60e51b815260206004820152600c60248201527f6f6e6c794f70657261746f72000000000000000000000000000000000000000060448201526064016108a2565b6005805473ffffffffffffffffffffffffffffffffffffffff9384167fffffffffffffffffffffffff00000000000000000000000000000000000000009182161790915560068054929093169116179055565b60008082118015611bf0575073ffffffffffffffffffffffffffffffffffffffff83163b15155b15611dba576040517f01ffc9a70000000000000000000000000000000000000000000000000000000081527f80ac58cd00000000000000000000000000000000000000000000000000000000600482015273ffffffffffffffffffffffffffffffffffffffff8416906301ffc9a79060240160206040518083038186803b158015611c7a57600080fd5b505afa158015611c8e573d6000803e3d6000fd5b505050506040513d601f19601f82011682018060405250810190611cb29190612e7b565b15611d63576040517f70a0823100000000000000000000000000000000000000000000000000000000815273ffffffffffffffffffffffffffffffffffffffff85811660048301528391908516906370a08231906024015b60206040518083038186803b158015611d2257600080fd5b505afa158015611d36573d6000803e3d6000fd5b505050506040513d601f19601f82011682018060405250810190611d5a919061312d565b10159050611dbe565b6040517f70a0823100000000000000000000000000000000000000000000000000000000815273ffffffffffffffffffffffffffffffffffffffff85811660048301528391908516906370a0823190602401611d0a565b5060015b9392505050565b6101808101515160009073ffffffffffffffffffffffffffffffffffffffff1615801590611dfc5750600082610180015160200151115b15611e6b576101808201515173ffffffffffffffffffffffffffffffffffffffff163b611e6b5760405162461bcd60e51b815260206004820152601660248201527f496e76616c6964206578636c7573697665546f6b656e0000000000000000000060448201526064016108a2565b60a082015173ffffffffffffffffffffffffffffffffffffffff166000908152600a602052604090205460ff16611ee45760405162461bcd60e51b815260206004820152601760248201527f556e737570706f7274656420616363657074546f6b656e00000000000000000060448201526064016108a2565b60a082015173ffffffffffffffffffffffffffffffffffffffff166000908152600b6020526040902054801580611f2057508083610120015110155b611f6c5760405162461bcd60e51b815260206004820152601060248201527f54617267657420746f6f20736d616c6c0000000000000000000000000000000060448201526064016108a2565b50600192915050565b60005473ffffffffffffffffffffffffffffffffffffffff16331480611faa57503360009081526009602052604090205460ff165b611ff65760405162461bcd60e51b815260206004820152600c60248201527f6f6e6c794f70657261746f72000000000000000000000000000000000000000060448201526064016108a2565b60005b82518110156120885781600a6000858481518110612019576120196133fc565b60209081029190910181015173ffffffffffffffffffffffffffffffffffffffff16825281019190915260400160002080547fffffffffffffffffffffffffffffffffffffffffffffffffffffffffffffff00169115159190911790558061208081613322565b915050611ff9565b505050565b60005473ffffffffffffffffffffffffffffffffffffffff163314806120c257503360009081526009602052604090205460ff165b61210e5760405162461bcd60e51b815260206004820152600c60248201527f6f6e6c794f70657261746f72000000000000000000000000000000000000000060448201526064016108a2565b60005b82518110156120885781818151811061212c5761212c6133fc565b6020026020010151600b600085848151811061214a5761214a6133fc565b602002602001015173ffffffffffffffffffffffffffffffffffffffff1673ffffffffffffffffffffffffffffffffffffffff16815260200190815260200160002081905550808061219b90613322565b915050612111565b60005473ffffffffffffffffffffffffffffffffffffffff16331461220a5760405162461bcd60e51b815260206004820181905260248201527f4f776e61626c653a2063616c6c6572206973206e6f7420746865206f776e657260448201526064016108a2565b600780547fffffffffffffffffffffffff00000000000000000000000000000000000000001673ffffffffffffffffffffffffffffffffffffffff92909216919091179055565b6000610100825111156122a65760405162461bcd60e51b815260206004820152600e60248201527f4e6f746520746f6f206c6172676500000000000000000000000000000000000060448201526064016108a2565b6122af83611a98565b6122fb5760405162461bcd60e51b815260206004820152600f60248201527f4f766572206a6f696e206c696d6974000000000000000000000000000000000060448201526064016108a2565b60008363ffffffff16116123515760405162461bcd60e51b815260206004820152600b60248201527f496e76616c6964206e756d00000000000000000000000000000000000000000060448201526064016108a2565b6001546040517f1d65e77e0000000000000000000000000000000000000000000000000000000081526004810186905260009173ffffffffffffffffffffffffffffffffffffffff1690631d65e77e9060240160006040518083038186803b1580156123bc57600080fd5b505afa1580156123d0573d6000803e3d6000fd5b505050506040513d6000823e601f3d9081017fffffffffffffffffffffffffffffffffffffffffffffffffffffffffffffffe01682016040526124169190810190612fbd565b90508573ffffffffffffffffffffffffffffffffffffffff16816000015173ffffffffffffffffffffffffffffffffffffffff1614156124985760405162461bcd60e51b815260206004820152600f60248201527f4e6f7420616c6c6f77206f776e6572000000000000000000000000000000000060448201526064016108a2565b8060e0015142101580156124b157508061010001514211155b6124fd5760405162461bcd60e51b815260206004820152601260248201527f496e76616c69642074696d652072616e6765000000000000000000000000000060448201526064016108a2565b60008160c001516005811115612515576125156133cd565b1480612536575060018160c001516005811115612534576125346133cd565b145b6125825760405162461bcd60e51b815260206004820152600e60248201527f496e76616c69642073746174757300000000000000000000000000000000000060448201526064016108a2565b60006125a28563ffffffff1683610140015161281b90919063ffffffff16565b9050600081116125f45760405162461bcd60e51b815260206004820152600e60248201527f496e76616c696420616d6f756e7400000000000000000000000000000000000060448201526064016108a2565b6101808201515173ffffffffffffffffffffffffffffffffffffffff16158015906126285750600082610180015160200151115b15610e1e576101808201518051602090910151612646918991611bc9565b610e1e5760405162461bcd60e51b815260206004820152601260248201527f4e6f742070617373204558434c5553495645000000000000000000000000000060448201526064016108a2565b60005473ffffffffffffffffffffffffffffffffffffffff1633146126f95760405162461bcd60e51b815260206004820181905260248201527f4f776e61626c653a2063616c6c6572206973206e6f7420746865206f776e657260448201526064016108a2565b73ffffffffffffffffffffffffffffffffffffffff81166127825760405162461bcd60e51b815260206004820152602660248201527f4f776e61626c653a206e6577206f776e657220697320746865207a65726f206160448201527f646472657373000000000000000000000000000000000000000000000000000060648201526084016108a2565b61278b816127a6565b50565b6000611dbe828461335b565b6000611dbe82846132ba565b6000805473ffffffffffffffffffffffffffffffffffffffff8381167fffffffffffffffffffffffff0000000000000000000000000000000000000000831681178455604051919092169283917f8be0079c531659141344cd1fd0a4f28419497f9722a3daafe3b4186f6b6457e09190a35050565b6000611dbe82846132ce565b80356128328161345a565b919050565b80516128328161345a565b600082601f83011261285357600080fd5b8135602061286861286383613296565b613247565b80838252828201915082860187848660051b890101111561288857600080fd5b60005b858110156128b057813561289e8161345a565b8452928401929084019060010161288b565b5090979650505050505050565b600082601f8301126128ce57600080fd5b813560206128de61286383613296565b80838252828201915082860187848660051b89010111156128fe57600080fd5b60005b858110156128b057813584529284019290840190600101612901565b600082601f83011261292e57600080fd5b8151602061293e61286383613296565b80838252828201915082860187848660051b890101111561295e57600080fd5b60005b858110156128b057815184529284019290840190600101612961565b80356128328161348a565b80516128328161348a565b600082601f8301126129a457600080fd5b813567ffffffffffffffff8111156129be576129be61342b565b6129ef60207fffffffffffffffffffffffffffffffffffffffffffffffffffffffffffffffe0601f84011601613247565b818152846020838601011115612a0457600080fd5b816020850160208301376000918101602001919091529392505050565b600060408284031215612a3357600080fd5b612a3b6131fa565b90508135612a488161345a565b808252506020820135602082015292915050565b600060408284031215612a6e57600080fd5b612a766131fa565b90508151612a838161345a565b808252506020820151602082015292915050565b60006102008284031215612aaa57600080fd5b612ab2613223565b9050612abd82612827565b8152612acb60208301612bc5565b6020820152612adc60408301612827565b6040820152606082013567ffffffffffffffff80821115612afc57600080fd5b612b08858386016128bd565b60608401526080840135915080821115612b2157600080fd5b50612b2e848285016128bd565b608083015250612b4060a08301612827565b60a0820152612b5160c0830161297d565b60c082015260e08281013590820152610100808301359082015261012080830135908201526101408083013590820152610160612b8f818401612bc5565b90820152610180612ba284848301612a21565b81830152506101c0808301356101a08301526101e0830135818301525092915050565b803561283281613497565b805161283281613497565b803563ffffffff8116811461283257600080fd5b600060208284031215612c0157600080fd5b8135611dbe8161345a565b600060208284031215612c1e57600080fd5b8151611dbe8161345a565b60008060008060808587031215612c3f57600080fd5b8435612c4a8161345a565b93506020850135612c5a8161345a565b9250604085013567ffffffffffffffff80821115612c7757600080fd5b612c83888389016128bd565b93506060870135915080821115612c9957600080fd5b50612ca6878288016128bd565b91505092959194509250565b600080600060608486031215612cc757600080fd5b8335612cd28161345a565b92506020840135612ce28161345a565b929592945050506040919091013590565b60008060408385031215612d0657600080fd5b8235612d118161345a565b91506020830135612d218161347c565b809150509250929050565b60008060408385031215612d3f57600080fd5b8235612d4a8161345a565b9150602083013567ffffffffffffffff811115612d6657600080fd5b612d7285828601612a97565b9150509250929050565b60008060008060808587031215612d9257600080fd5b8435612d9d8161345a565b935060208501359250612db260408601612bdb565b9150606085013567ffffffffffffffff811115612dce57600080fd5b612ca687828801612993565b60008060408385031215612ded57600080fd5b823567ffffffffffffffff80821115612e0557600080fd5b612e1186838701612842565b93506020850135915080821115612e2757600080fd5b50612d72858286016128bd565b60008060408385031215612e4757600080fd5b823567ffffffffffffffff811115612e5e57600080fd5b612e6a85828601612842565b9250506020830135612d218161347c565b600060208284031215612e8d57600080fd5b8151611dbe8161347c565b60008060408385031215612eab57600080fd5b8235612eb68161345a565b91506020830135612d218161345a565b600060208284031215612ed857600080fd5b813567ffffffffffffffff80821115612ef057600080fd5b9083019060608286031215612f0457600080fd5b604051606081018181108382111715612f1f57612f1f61342b565b6040528235612f2d81613497565b8152602083013582811115612f4157600080fd5b612f4d87828601612993565b602083015250604083013582811115612f6557600080fd5b612f7187828601612993565b60408301525095945050505050565b600060208284031215612f9257600080fd5b813567ffffffffffffffff811115612fa957600080fd5b612fb584828501612a97565b949350505050565b600060208284031215612fcf57600080fd5b815167ffffffffffffffff80821115612fe757600080fd5b908301906102008286031215612ffc57600080fd5b613004613223565b61300d83612837565b815261301b60208401612bd0565b602082015261302c60408401612837565b604082015260608301518281111561304357600080fd5b61304f8782860161291d565b60608301525060808301518281111561306757600080fd5b6130738782860161291d565b60808301525061308560a08401612837565b60a082015261309660c08401612988565b60c082015260e0838101519082015261010080840151908201526101208084015190820152610140808401519082015261016091506130d6828401612bd0565b8282015261018091506130eb86838501612a5c565b828201526101c09150818301516101a08201526101e08301518282015280935050505092915050565b60006020828403121561312657600080fd5b5035919050565b60006020828403121561313f57600080fd5b5051919050565b60006020828403121561315857600080fd5b611dbe82612bdb565b6000815180845260005b818110156131875760208185018101518683018201520161316b565b81811115613199576000602083870101525b50601f017fffffffffffffffffffffffffffffffffffffffffffffffffffffffffffffffe0169290920160200192915050565b8215158152604060208201526000612fb56040830184613161565b602081526000611dbe6020830184613161565b6040805190810167ffffffffffffffff8111828210171561321d5761321d61342b565b60405290565b6040516101e0810167ffffffffffffffff8111828210171561321d5761321d61342b565b604051601f82017fffffffffffffffffffffffffffffffffffffffffffffffffffffffffffffffe016810167ffffffffffffffff8111828210171561328e5761328e61342b565b604052919050565b600067ffffffffffffffff8211156132b0576132b061342b565b5060051b60200190565b6000826132c9576132c961339e565b500490565b6000817fffffffffffffffffffffffffffffffffffffffffffffffffffffffffffffffff04831182151516156133065761330661336f565b500290565b60008282101561331d5761331d61336f565b500390565b60007fffffffffffffffffffffffffffffffffffffffffffffffffffffffffffffffff8214156133545761335461336f565b5060010190565b60008261336a5761336a61339e565b500690565b7f4e487b7100000000000000000000000000000000000000000000000000000000600052601160045260246000fd5b7f4e487b7100000000000000000000000000000000000000000000000000000000600052601260045260246000fd5b7f4e487b7100000000000000000000000000000000000000000000000000000000600052602160045260246000fd5b7f4e487b7100000000000000000000000000000000000000000000000000000000600052603260045260246000fd5b7f4e487b7100000000000000000000000000000000000000000000000000000000600052604160045260246000fd5b73ffffffffffffffffffffffffffffffffffffffff8116811461278b57600080fd5b801515811461278b57600080fd5b6006811061278b57600080fd5b61ffff8116811461278b57600080fdfea26469706673582212208820ffa8ecbb869952ae68c3b0aa2b3a66f300aa85b1f2eb559fe28a094a3f3d64736f6c63430008060033",
  "devdoc": {
    "kind": "dev",
    "methods": {
      "checkAcceptToken(address)": {
        "params": {
          "acceptToken": "token address, blockchain token is address(0)"
        },
        "returns": {
          "_0": "bool"
        }
      },
      "checkTokenListing(address,address,uint256[],uint256[])": {
        "params": {
          "addr": "NFT contract address",
          "amounts": "tokenId amount array (ERC721 can be null)",
          "tokenIds": "tokenId array"
        }
      },
      "getProtocolFee()": {
        "returns": {
          "_0": "fee (200 = 25%, 1,000 = 10%)"
        }
      },
      "owner()": {
        "details": "Returns the address of the current owner."
      },
      "renounceOwnership()": {
        "details": "Leaves the contract without owner. It will not be possible to call `onlyOwner` functions anymore. Can only be called by the current owner. NOTE: Renouncing ownership will leave the contract without an owner, thereby removing any functionality that is only available to the owner."
      },
      "setProtocolFee(uint256)": {
        "params": {
          "fee": "fee (500 = 5%, 1,000 = 10%)"
        }
      },
      "transferOwnership(address)": {
        "details": "Transfers ownership of the contract to a new account (`newOwner`). Can only be called by the current owner."
      }
    },
    "title": "Openluck LucksHelper.",
    "version": 1
  },
  "userdoc": {
    "kind": "user",
    "methods": {
      "checkAcceptToken(address)": {
        "notice": "check acceptToken support"
      },
      "checkNFTContract(address)": {
        "notice": "check nft contract, support erc721 & erc1155"
      },
      "checkNewTask(address,(address,uint16,address,uint256[],uint256[],address,uint8,uint256,uint256,uint256,uint256,uint16,(address,uint256),uint256,uint256))": {
        "notice": "check the new task inputs"
      },
      "checkTokenListing(address,address,uint256[],uint256[])": {
        "notice": "checking seller listing NFTs ownership and balance"
      },
      "getDrawDelay()": {
        "notice": "get Draw Delay second for security"
      },
      "getGROUPS()": {
        "notice": "get ILucksGroup instance  "
      },
      "getProtocolFee()": {
        "notice": "get protocol fee for eache success TaskItem payment, default is 2%"
      },
      "getSTRATEGY()": {
        "notice": "get ILucksPaymentStrategy instance  "
      },
      "getVRF()": {
        "notice": "get ILucksVRF instance  "
      },
      "setAcceptTokens(address[],bool)": {
        "notice": "set the acceptTokens"
      },
      "setDrawDelay(uint32)": {
        "notice": "set Draw Delay for security"
      },
      "setExecutor(address)": {
        "notice": "set operator"
      },
      "setJoinLimitNum(uint32)": {
        "notice": "set the set MAX_PER_JOIN_NUM"
      },
      "setLucksGroup(address)": {
        "notice": "set the LucksGroup"
      },
      "setLucksVRF(address)": {
        "notice": "set the VRF"
      },
      "setOperator(address,bool)": {
        "notice": "set operator"
      },
      "setPaymentStrategy(address)": {
        "notice": "set the PaymentStrategy"
      },
      "setProtocolFee(uint256)": {
        "notice": "set protocol fee for eache success TaskItem payment, default is 5%"
      },
      "setProtocolFeeRecipient(address)": {
        "notice": "set the ProtocolFeeRecipient"
      }
    },
    "notice": "It is the contract for protocol settings",
    "version": 1
  },
  "storageLayout": {
    "storage": [
      {
        "astId": 917,
        "contract": "contracts/lucks/LucksHelper.sol:LucksHelper",
        "label": "_owner",
        "offset": 0,
        "slot": "0",
        "type": "t_address"
      },
      {
        "astId": 14335,
        "contract": "contracts/lucks/LucksHelper.sol:LucksHelper",
        "label": "EXECUTOR",
        "offset": 0,
        "slot": "1",
        "type": "t_contract(ILucksExecutor)9847"
      },
      {
        "astId": 14338,
        "contract": "contracts/lucks/LucksHelper.sol:LucksHelper",
        "label": "VRF",
        "offset": 0,
        "slot": "2",
        "type": "t_contract(ILucksVRF)10196"
      },
      {
        "astId": 14341,
        "contract": "contracts/lucks/LucksHelper.sol:LucksHelper",
        "label": "GROUPS",
        "offset": 0,
        "slot": "3",
        "type": "t_contract(ILucksGroup)9901"
      },
      {
        "astId": 14344,
        "contract": "contracts/lucks/LucksHelper.sol:LucksHelper",
        "label": "STRATEGY",
        "offset": 0,
        "slot": "4",
        "type": "t_contract(ILucksPaymentStrategy)10083"
      },
      {
        "astId": 14347,
        "contract": "contracts/lucks/LucksHelper.sol:LucksHelper",
        "label": "AUTO_CLOSE",
        "offset": 0,
        "slot": "5",
        "type": "t_contract(ILucksAuto)9483"
      },
      {
        "astId": 14350,
        "contract": "contracts/lucks/LucksHelper.sol:LucksHelper",
        "label": "AUTO_DRAW",
        "offset": 0,
        "slot": "6",
        "type": "t_contract(ILucksAuto)9483"
      },
      {
        "astId": 14352,
        "contract": "contracts/lucks/LucksHelper.sol:LucksHelper",
        "label": "feeRecipient",
        "offset": 0,
        "slot": "7",
        "type": "t_address"
      },
      {
        "astId": 14355,
        "contract": "contracts/lucks/LucksHelper.sol:LucksHelper",
        "label": "MAX_PER_JOIN_NUM",
        "offset": 20,
        "slot": "7",
        "type": "t_uint32"
      },
      {
        "astId": 14358,
        "contract": "contracts/lucks/LucksHelper.sol:LucksHelper",
        "label": "DRAW_DELAY_SEC",
        "offset": 24,
        "slot": "7",
        "type": "t_uint32"
      },
      {
        "astId": 14361,
        "contract": "contracts/lucks/LucksHelper.sol:LucksHelper",
        "label": "protocolFee",
        "offset": 0,
        "slot": "8",
        "type": "t_uint256"
      },
      {
        "astId": 14365,
        "contract": "contracts/lucks/LucksHelper.sol:LucksHelper",
        "label": "operators",
        "offset": 0,
        "slot": "9",
        "type": "t_mapping(t_address,t_bool)"
      },
      {
        "astId": 14369,
        "contract": "contracts/lucks/LucksHelper.sol:LucksHelper",
        "label": "acceptTokens",
        "offset": 0,
        "slot": "10",
        "type": "t_mapping(t_address,t_bool)"
      },
      {
        "astId": 14373,
        "contract": "contracts/lucks/LucksHelper.sol:LucksHelper",
        "label": "minTargetAmount",
        "offset": 0,
        "slot": "11",
        "type": "t_mapping(t_address,t_uint256)"
      }
    ],
    "types": {
      "t_address": {
        "encoding": "inplace",
        "label": "address",
        "numberOfBytes": "20"
      },
      "t_bool": {
        "encoding": "inplace",
        "label": "bool",
        "numberOfBytes": "1"
      },
      "t_contract(ILucksAuto)9483": {
        "encoding": "inplace",
        "label": "contract ILucksAuto",
        "numberOfBytes": "20"
      },
      "t_contract(ILucksExecutor)9847": {
        "encoding": "inplace",
        "label": "contract ILucksExecutor",
        "numberOfBytes": "20"
      },
      "t_contract(ILucksGroup)9901": {
        "encoding": "inplace",
        "label": "contract ILucksGroup",
        "numberOfBytes": "20"
      },
      "t_contract(ILucksPaymentStrategy)10083": {
        "encoding": "inplace",
        "label": "contract ILucksPaymentStrategy",
        "numberOfBytes": "20"
      },
      "t_contract(ILucksVRF)10196": {
        "encoding": "inplace",
        "label": "contract ILucksVRF",
        "numberOfBytes": "20"
      },
      "t_mapping(t_address,t_bool)": {
        "encoding": "mapping",
        "key": "t_address",
        "label": "mapping(address => bool)",
        "numberOfBytes": "32",
        "value": "t_bool"
      },
      "t_mapping(t_address,t_uint256)": {
        "encoding": "mapping",
        "key": "t_address",
        "label": "mapping(address => uint256)",
        "numberOfBytes": "32",
        "value": "t_uint256"
      },
      "t_uint256": {
        "encoding": "inplace",
        "label": "uint256",
        "numberOfBytes": "32"
      },
      "t_uint32": {
        "encoding": "inplace",
        "label": "uint32",
        "numberOfBytes": "4"
      }
    }
  }
}