{
  "address": "0xF71293ef83730Fa0b48668f85981611E111A81Dd",
  "abi": [
    {
      "inputs": [
        {
          "internalType": "address",
          "name": "_executor",
          "type": "address"
        },
        {
          "internalType": "uint32",
          "name": "_maxSeat",
          "type": "uint32"
        }
      ],
      "stateMutability": "nonpayable",
      "type": "constructor"
    },
    {
      "anonymous": false,
      "inputs": [
        {
          "indexed": false,
          "internalType": "address",
          "name": "user",
          "type": "address"
        },
        {
          "indexed": false,
          "internalType": "uint256",
          "name": "taskId",
          "type": "uint256"
        },
        {
          "indexed": false,
          "internalType": "uint256",
          "name": "groupId",
          "type": "uint256"
        },
        {
          "indexed": false,
          "internalType": "uint16",
          "name": "seat",
          "type": "uint16"
        }
      ],
      "name": "CreateGroup",
      "type": "event"
    },
    {
      "anonymous": false,
      "inputs": [
        {
          "indexed": false,
          "internalType": "address",
          "name": "user",
          "type": "address"
        },
        {
          "indexed": false,
          "internalType": "uint256",
          "name": "taskId",
          "type": "uint256"
        },
        {
          "indexed": false,
          "internalType": "uint256",
          "name": "groupId",
          "type": "uint256"
        }
      ],
      "name": "JoinGroup",
      "type": "event"
    },
    {
      "anonymous": false,
      "inputs": [
        {
          "indexed": true,
          "internalType": "address",
          "name": "previousOwner",
          "type": "address"
        },
        {
          "indexed": true,
          "internalType": "address",
          "name": "newOwner",
          "type": "address"
        }
      ],
      "name": "OwnershipTransferred",
      "type": "event"
    },
    {
      "inputs": [],
      "name": "EXECUTOR",
      "outputs": [
        {
          "internalType": "contract ILucksExecutor",
          "name": "",
          "type": "address"
        }
      ],
      "stateMutability": "view",
      "type": "function"
    },
    {
      "inputs": [],
      "name": "MAX_SEAT",
      "outputs": [
        {
          "internalType": "uint32",
          "name": "",
          "type": "uint32"
        }
      ],
      "stateMutability": "view",
      "type": "function"
    },
    {
      "inputs": [
        {
          "internalType": "uint256",
          "name": "taskId",
          "type": "uint256"
        },
        {
          "internalType": "uint16",
          "name": "seat",
          "type": "uint16"
        }
      ],
      "name": "createGroup",
      "outputs": [],
      "stateMutability": "nonpayable",
      "type": "function"
    },
    {
      "inputs": [
        {
          "internalType": "uint256",
          "name": "taskId",
          "type": "uint256"
        },
        {
          "internalType": "address",
          "name": "user",
          "type": "address"
        }
      ],
      "name": "getGroupUsers",
      "outputs": [
        {
          "internalType": "address[]",
          "name": "",
          "type": "address[]"
        }
      ],
      "stateMutability": "view",
      "type": "function"
    },
    {
      "inputs": [
        {
          "internalType": "uint256",
          "name": "",
          "type": "uint256"
        }
      ],
      "name": "groupIds",
      "outputs": [
        {
          "internalType": "uint256",
          "name": "",
          "type": "uint256"
        }
      ],
      "stateMutability": "view",
      "type": "function"
    },
    {
      "inputs": [
        {
          "internalType": "uint256",
          "name": "",
          "type": "uint256"
        },
        {
          "internalType": "uint256",
          "name": "",
          "type": "uint256"
        }
      ],
      "name": "groupSeat",
      "outputs": [
        {
          "internalType": "uint16",
          "name": "",
          "type": "uint16"
        }
      ],
      "stateMutability": "view",
      "type": "function"
    },
    {
      "inputs": [
        {
          "internalType": "uint256",
          "name": "",
          "type": "uint256"
        },
        {
          "internalType": "uint256",
          "name": "",
          "type": "uint256"
        },
        {
          "internalType": "uint256",
          "name": "",
          "type": "uint256"
        }
      ],
      "name": "groups",
      "outputs": [
        {
          "internalType": "address",
          "name": "",
          "type": "address"
        }
      ],
      "stateMutability": "view",
      "type": "function"
    },
    {
      "inputs": [
        {
          "internalType": "uint256",
          "name": "taskId",
          "type": "uint256"
        },
        {
          "internalType": "uint256",
          "name": "groupId",
          "type": "uint256"
        },
        {
          "internalType": "uint16",
          "name": "seat",
          "type": "uint16"
        }
      ],
      "name": "joinGroup",
      "outputs": [],
      "stateMutability": "nonpayable",
      "type": "function"
    },
    {
      "inputs": [],
      "name": "owner",
      "outputs": [
        {
          "internalType": "address",
          "name": "",
          "type": "address"
        }
      ],
      "stateMutability": "view",
      "type": "function"
    },
    {
      "inputs": [],
      "name": "renounceOwnership",
      "outputs": [],
      "stateMutability": "nonpayable",
      "type": "function"
    },
    {
      "inputs": [
        {
          "internalType": "contract ILucksExecutor",
          "name": "_executor",
          "type": "address"
        }
      ],
      "name": "setExecutor",
      "outputs": [],
      "stateMutability": "nonpayable",
      "type": "function"
    },
    {
      "inputs": [
        {
          "internalType": "address",
          "name": "newOwner",
          "type": "address"
        }
      ],
      "name": "transferOwnership",
      "outputs": [],
      "stateMutability": "nonpayable",
      "type": "function"
    },
    {
      "inputs": [
        {
          "internalType": "address",
          "name": "",
          "type": "address"
        },
        {
          "internalType": "uint256",
          "name": "",
          "type": "uint256"
        }
      ],
      "name": "userGroups",
      "outputs": [
        {
          "internalType": "uint256",
          "name": "",
          "type": "uint256"
        }
      ],
      "stateMutability": "view",
      "type": "function"
    }
  ],
  "transactionHash": "0x43f4464024b59eaf200042a4b10d862032440e34237146bd9060e500a27bc458",
  "args": [
    "0x314a051Fe16Cd23043F4Dd38940C4A62e6e87faC",
    10
  ],
  "numDeployments": 1,
  "solcInputHash": "f9d7730f5d0306f217e16898eef50083",
  "bytecode": "0x60806040526001805463ffffffff60a01b1916600560a11b17905534801561002657600080fd5b50604051611756380380611756833981016040819052610045916100d3565b61004e33610083565b6001805463ffffffff909216600160a01b026001600160c01b03199092166001600160a01b0390931692909217179055610122565b600080546001600160a01b038381166001600160a01b0319831681178455604051919092169283917f8be0079c531659141344cd1fd0a4f28419497f9722a3daafe3b4186f6b6457e09190a35050565b600080604083850312156100e657600080fd5b82516001600160a01b03811681146100fd57600080fd5b602084015190925063ffffffff8116811461011757600080fd5b809150509250929050565b611625806101316000396000f3fe608060405234801561001057600080fd5b50600436106100df5760003560e01c806360a9e0971161008c57806376e5066e1161006657806376e5066e1461021a5780638da5cb5b1461025c578063dead6c1e1461027a578063f2fde38b1461029a57600080fd5b806360a9e097146101c7578063630dc7cb146101f2578063715018a61461021257600080fd5b80632d027f75116100bd5780632d027f751461014e57806338c1cdb2146101615780634093d7a11461019957600080fd5b806313cedac8146100e457806317a0a232146101265780631c3c0ea81461013b575b600080fd5b60015461010c9074010000000000000000000000000000000000000000900463ffffffff1681565b60405163ffffffff90911681526020015b60405180910390f35b610139610134366004611437565b6102ad565b005b610139610149366004611200565b610839565b61013961015c3660046113f0565b610901565b61017461016f366004611470565b610910565b60405173ffffffffffffffffffffffffffffffffffffffff909116815260200161011d565b6101b96101a73660046113a7565b60026020526000908152604090205481565b60405190815260200161011d565b6101b96101d5366004611224565b600460209081526000928352604080842090915290825290205481565b6001546101749073ffffffffffffffffffffffffffffffffffffffff1681565b610139610962565b610249610228366004611415565b600560209081526000928352604080842090915290825290205461ffff1681565b60405161ffff909116815260200161011d565b60005473ffffffffffffffffffffffffffffffffffffffff16610174565b61028d6102883660046113c0565b6109ef565b60405161011d919061149c565b6101396102a8366004611200565b610a99565b3382158015906102cb57506000848152600260205260409020548311155b610336576040517f08c379a000000000000000000000000000000000000000000000000000000000815260206004820152600f60248201527f496e76616c69642067726f75704964000000000000000000000000000000000060448201526064015b60405180910390fd5b60015474010000000000000000000000000000000000000000900463ffffffff1661ffff831611156103c4576040517f08c379a000000000000000000000000000000000000000000000000000000000815260206004820152600c60248201527f496e76616c696420736561740000000000000000000000000000000000000000604482015260640161032d565b73ffffffffffffffffffffffffffffffffffffffff811660009081526004602090815260408083208784529091529020541561045c576040517f08c379a000000000000000000000000000000000000000000000000000000000815260206004820152601460248201527f416c7265616479206a6f696e20612067726f7570000000000000000000000000604482015260640161032d565b60015473ffffffffffffffffffffffffffffffffffffffff166104db576040517f08c379a000000000000000000000000000000000000000000000000000000000815260206004820152601060248201527f4558454355544f52206e6f742073657400000000000000000000000000000000604482015260640161032d565b6001546040517f1d65e77e0000000000000000000000000000000000000000000000000000000081526004810186905260009173ffffffffffffffffffffffffffffffffffffffff1690631d65e77e9060240160006040518083038186803b15801561054657600080fd5b505afa15801561055a573d6000803e3d6000fd5b505050506040513d6000823e601f3d9081017fffffffffffffffffffffffffffffffffffffffffffffffffffffffffffffffe01682016040526105a09190810190611250565b9050806101000151421115610611576040517f08c379a000000000000000000000000000000000000000000000000000000000815260206004820152601260248201527f496e76616c69642074696d652072616e67650000000000000000000000000000604482015260640161032d565b60008160c0015160058111156106295761062961155f565b148061064a575060018160c0015160058111156106485761064861155f565b145b6106b0576040517f08c379a000000000000000000000000000000000000000000000000000000000815260206004820152600e60248201527f496e76616c696420737461747573000000000000000000000000000000000000604482015260640161032d565b60015460008681526003602090815260408083208884529091529020547401000000000000000000000000000000000000000090910463ffffffff1611156107b3576000858152600360209081526040808320878452825280832080546001810182559084528284200180547fffffffffffffffffffffffff00000000000000000000000000000000000000001673ffffffffffffffffffffffffffffffffffffffff871690811790915580845260048352818420898552835292819020879055805192835290820187905281018590527f9ded7a3449a7d51e28eafa621e5ed2137c3aa3778b53065e2d07bf5078893edc9060600160405180910390a1610832565b60018361ffff1611156107d0576107cb828685610bc9565b610832565b6040517f08c379a000000000000000000000000000000000000000000000000000000000815260206004820152600b60248201527f4578636565642073656174000000000000000000000000000000000000000000604482015260640161032d565b5050505050565b60005473ffffffffffffffffffffffffffffffffffffffff1633146108ba576040517f08c379a000000000000000000000000000000000000000000000000000000000815260206004820181905260248201527f4f776e61626c653a2063616c6c6572206973206e6f7420746865206f776e6572604482015260640161032d565b600180547fffffffffffffffffffffffff00000000000000000000000000000000000000001673ffffffffffffffffffffffffffffffffffffffff92909216919091179055565b61090c338383610bc9565b5050565b6003602052826000526040600020602052816000526040600020818154811061093857600080fd5b60009182526020909120015473ffffffffffffffffffffffffffffffffffffffff16925083915050565b60005473ffffffffffffffffffffffffffffffffffffffff1633146109e3576040517f08c379a000000000000000000000000000000000000000000000000000000000815260206004820181905260248201527f4f776e61626c653a2063616c6c6572206973206e6f7420746865206f776e6572604482015260640161032d565b6109ed6000611047565b565b600082815260036020908152604080832073ffffffffffffffffffffffffffffffffffffffff85168452600483528184208685528352818420548452825291829020805483518184028101840190945280845260609392830182828015610a8c57602002820191906000526020600020905b815473ffffffffffffffffffffffffffffffffffffffff168152600190910190602001808311610a61575b5050505050905092915050565b60005473ffffffffffffffffffffffffffffffffffffffff163314610b1a576040517f08c379a000000000000000000000000000000000000000000000000000000000815260206004820181905260248201527f4f776e61626c653a2063616c6c6572206973206e6f7420746865206f776e6572604482015260640161032d565b73ffffffffffffffffffffffffffffffffffffffff8116610bbd576040517f08c379a000000000000000000000000000000000000000000000000000000000815260206004820152602660248201527f4f776e61626c653a206e6577206f776e657220697320746865207a65726f206160448201527f6464726573730000000000000000000000000000000000000000000000000000606482015260840161032d565b610bc681611047565b50565b60015474010000000000000000000000000000000000000000900463ffffffff1661ffff821611801590610c01575060018161ffff16115b610c67576040517f08c379a000000000000000000000000000000000000000000000000000000000815260206004820152600c60248201527f496e76616c696420736561740000000000000000000000000000000000000000604482015260640161032d565b73ffffffffffffffffffffffffffffffffffffffff8316600090815260046020908152604080832085845290915290205415610cff576040517f08c379a000000000000000000000000000000000000000000000000000000000815260206004820152601460248201527f416c7265616479206a6f696e20612067726f7570000000000000000000000000604482015260640161032d565b60015473ffffffffffffffffffffffffffffffffffffffff16610d7e576040517f08c379a000000000000000000000000000000000000000000000000000000000815260206004820152601060248201527f4558454355544f52206e6f742073657400000000000000000000000000000000604482015260640161032d565b6001546040517f1d65e77e0000000000000000000000000000000000000000000000000000000081526004810184905260009173ffffffffffffffffffffffffffffffffffffffff1690631d65e77e9060240160006040518083038186803b158015610de957600080fd5b505afa158015610dfd573d6000803e3d6000fd5b505050506040513d6000823e601f3d9081017fffffffffffffffffffffffffffffffffffffffffffffffffffffffffffffffe0168201604052610e439190810190611250565b9050806101000151421115610eb4576040517f08c379a000000000000000000000000000000000000000000000000000000000815260206004820152601260248201527f496e76616c69642074696d652072616e67650000000000000000000000000000604482015260640161032d565b60008160c001516005811115610ecc57610ecc61155f565b1480610eed575060018160c001516005811115610eeb57610eeb61155f565b145b610f53576040517f08c379a000000000000000000000000000000000000000000000000000000000815260206004820152600e60248201527f496e76616c696420737461747573000000000000000000000000000000000000604482015260640161032d565b600083815260026020526040812054610f6d906001611520565b600085815260026020908152604080832084905560038252808320848452825280832080546001810182559084528284200180547fffffffffffffffffffffffff00000000000000000000000000000000000000001673ffffffffffffffffffffffffffffffffffffffff8b16908117909155808452600483528184208985528352928190208490558051928352908201879052810182905261ffff851660608201529091507f5c23ecf7d35b727b39000e452236d77f421afe8aa28e32d120085c0b3a8f16b69060800160405180910390a15050505050565b6000805473ffffffffffffffffffffffffffffffffffffffff8381167fffffffffffffffffffffffff0000000000000000000000000000000000000000831681178455604051919092169283917f8be0079c531659141344cd1fd0a4f28419497f9722a3daafe3b4186f6b6457e09190a35050565b80516110c7816115bd565b919050565b600082601f8301126110dd57600080fd5b8151602067ffffffffffffffff808311156110fa576110fa61158e565b8260051b6040517fffffffffffffffffffffffffffffffffffffffffffffffffffffffffffffffe0603f8301168101818110848211171561113d5761113d61158e565b6040528481528381019250868401828801850189101561115c57600080fd5b600092505b8583101561117f578051845292840192600192909201918401611161565b50979650505050505050565b8051600681106110c757600080fd5b6000604082840312156111ac57600080fd5b6040516040810181811067ffffffffffffffff821117156111cf576111cf61158e565b806040525080915082516111e2816115bd565b8152602092830151920191909152919050565b80516110c7816115df565b60006020828403121561121257600080fd5b813561121d816115bd565b9392505050565b6000806040838503121561123757600080fd5b8235611242816115bd565b946020939093013593505050565b60006020828403121561126257600080fd5b815167ffffffffffffffff8082111561127a57600080fd5b90830190610200828603121561128f57600080fd5b6112976114f6565b6112a0836110bc565b81526112ae602084016111f5565b60208201526112bf604084016110bc565b60408201526060830151828111156112d657600080fd5b6112e2878286016110cc565b6060830152506080830151828111156112fa57600080fd5b611306878286016110cc565b60808301525061131860a084016110bc565b60a082015261132960c0840161118b565b60c082015260e0838101519082015261010080840151908201526101208084015190820152610140808401519082015261016091506113698284016111f5565b82820152610180915061137e8683850161119a565b828201526101c09150818301516101a08201526101e08301518282015280935050505092915050565b6000602082840312156113b957600080fd5b5035919050565b600080604083850312156113d357600080fd5b8235915060208301356113e5816115bd565b809150509250929050565b6000806040838503121561140357600080fd5b8235915060208301356113e5816115df565b6000806040838503121561142857600080fd5b50508035926020909101359150565b60008060006060848603121561144c57600080fd5b83359250602084013591506040840135611465816115df565b809150509250925092565b60008060006060848603121561148557600080fd5b505081359360208301359350604090920135919050565b6020808252825182820181905260009190848201906040850190845b818110156114ea57835173ffffffffffffffffffffffffffffffffffffffff16835292840192918401916001016114b8565b50909695505050505050565b6040516101e0810167ffffffffffffffff8111828210171561151a5761151a61158e565b60405290565b6000821982111561155a577f4e487b7100000000000000000000000000000000000000000000000000000000600052601160045260246000fd5b500190565b7f4e487b7100000000000000000000000000000000000000000000000000000000600052602160045260246000fd5b7f4e487b7100000000000000000000000000000000000000000000000000000000600052604160045260246000fd5b73ffffffffffffffffffffffffffffffffffffffff81168114610bc657600080fd5b61ffff81168114610bc657600080fdfea26469706673582212202391ed7f9d1fa36088fdaab671682208f962eba012dc319b4e625d50b83d47fe64736f6c63430008060033",
  "devdoc": {
    "kind": "dev",
    "methods": {
      "owner()": {
        "details": "Returns the address of the current owner."
      },
      "renounceOwnership()": {
        "details": "Leaves the contract without owner. It will not be possible to call `onlyOwner` functions anymore. Can only be called by the current owner. NOTE: Renouncing ownership will leave the contract without an owner, thereby removing any functionality that is only available to the owner."
      },
      "transferOwnership(address)": {
        "details": "Transfers ownership of the contract to a new account (`newOwner`). Can only be called by the current owner."
      }
    },
    "title": "Openluck LucksGroup",
    "version": 1
  },
  "userdoc": {
    "kind": "user",
    "methods": {
      "setExecutor(address)": {
        "notice": "set operator"
      }
    },
    "notice": "It is the contract for LucksGroup",
    "version": 1
  },
  "storageLayout": {
    "storage": [
      {
        "astId": 917,
        "contract": "contracts/lucks/LucksGroup.sol:LucksGroup",
        "label": "_owner",
        "offset": 0,
        "slot": "0",
        "type": "t_address"
      },
      {
        "astId": 13978,
        "contract": "contracts/lucks/LucksGroup.sol:LucksGroup",
        "label": "EXECUTOR",
        "offset": 0,
        "slot": "1",
        "type": "t_contract(ILucksExecutor)9861"
      },
      {
        "astId": 13981,
        "contract": "contracts/lucks/LucksGroup.sol:LucksGroup",
        "label": "MAX_SEAT",
        "offset": 20,
        "slot": "1",
        "type": "t_uint32"
      },
      {
        "astId": 13985,
        "contract": "contracts/lucks/LucksGroup.sol:LucksGroup",
        "label": "groupIds",
        "offset": 0,
        "slot": "2",
        "type": "t_mapping(t_uint256,t_uint256)"
      },
      {
        "astId": 13992,
        "contract": "contracts/lucks/LucksGroup.sol:LucksGroup",
        "label": "groups",
        "offset": 0,
        "slot": "3",
        "type": "t_mapping(t_uint256,t_mapping(t_uint256,t_array(t_address)dyn_storage))"
      },
      {
        "astId": 13998,
        "contract": "contracts/lucks/LucksGroup.sol:LucksGroup",
        "label": "userGroups",
        "offset": 0,
        "slot": "4",
        "type": "t_mapping(t_address,t_mapping(t_uint256,t_uint256))"
      },
      {
        "astId": 14004,
        "contract": "contracts/lucks/LucksGroup.sol:LucksGroup",
        "label": "groupSeat",
        "offset": 0,
        "slot": "5",
        "type": "t_mapping(t_uint256,t_mapping(t_uint256,t_uint16))"
      }
    ],
    "types": {
      "t_address": {
        "encoding": "inplace",
        "label": "address",
        "numberOfBytes": "20"
      },
      "t_array(t_address)dyn_storage": {
        "base": "t_address",
        "encoding": "dynamic_array",
        "label": "address[]",
        "numberOfBytes": "32"
      },
      "t_contract(ILucksExecutor)9861": {
        "encoding": "inplace",
        "label": "contract ILucksExecutor",
        "numberOfBytes": "20"
      },
      "t_mapping(t_address,t_mapping(t_uint256,t_uint256))": {
        "encoding": "mapping",
        "key": "t_address",
        "label": "mapping(address => mapping(uint256 => uint256))",
        "numberOfBytes": "32",
        "value": "t_mapping(t_uint256,t_uint256)"
      },
      "t_mapping(t_uint256,t_array(t_address)dyn_storage)": {
        "encoding": "mapping",
        "key": "t_uint256",
        "label": "mapping(uint256 => address[])",
        "numberOfBytes": "32",
        "value": "t_array(t_address)dyn_storage"
      },
      "t_mapping(t_uint256,t_mapping(t_uint256,t_array(t_address)dyn_storage))": {
        "encoding": "mapping",
        "key": "t_uint256",
        "label": "mapping(uint256 => mapping(uint256 => address[]))",
        "numberOfBytes": "32",
        "value": "t_mapping(t_uint256,t_array(t_address)dyn_storage)"
      },
      "t_mapping(t_uint256,t_mapping(t_uint256,t_uint16))": {
        "encoding": "mapping",
        "key": "t_uint256",
        "label": "mapping(uint256 => mapping(uint256 => uint16))",
        "numberOfBytes": "32",
        "value": "t_mapping(t_uint256,t_uint16)"
      },
      "t_mapping(t_uint256,t_uint16)": {
        "encoding": "mapping",
        "key": "t_uint256",
        "label": "mapping(uint256 => uint16)",
        "numberOfBytes": "32",
        "value": "t_uint16"
      },
      "t_mapping(t_uint256,t_uint256)": {
        "encoding": "mapping",
        "key": "t_uint256",
        "label": "mapping(uint256 => uint256)",
        "numberOfBytes": "32",
        "value": "t_uint256"
      },
      "t_uint16": {
        "encoding": "inplace",
        "label": "uint16",
        "numberOfBytes": "2"
      },
      "t_uint256": {
        "encoding": "inplace",
        "label": "uint256",
        "numberOfBytes": "32"
      },
      "t_uint32": {
        "encoding": "inplace",
        "label": "uint32",
        "numberOfBytes": "4"
      }
    }
  }
}