{
  "address": "0x9DE8332C133d56BEDf6723824eE4Dee05819d54c",
  "abi": [
    {
      "inputs": [
        {
          "internalType": "address",
          "name": "_keeperRegAddr",
          "type": "address"
        },
        {
          "internalType": "contract ILucksExecutor",
          "name": "_executor",
          "type": "address"
        }
      ],
      "stateMutability": "nonpayable",
      "type": "constructor"
    },
    {
      "anonymous": false,
      "inputs": [
        {
          "indexed": false,
          "internalType": "uint256",
          "name": "amountAdded",
          "type": "uint256"
        },
        {
          "indexed": false,
          "internalType": "uint256",
          "name": "newBalance",
          "type": "uint256"
        },
        {
          "indexed": false,
          "internalType": "address",
          "name": "sender",
          "type": "address"
        }
      ],
      "name": "FundsAdded",
      "type": "event"
    },
    {
      "anonymous": false,
      "inputs": [
        {
          "indexed": false,
          "internalType": "uint256",
          "name": "amountWithdrawn",
          "type": "uint256"
        },
        {
          "indexed": false,
          "internalType": "address",
          "name": "payee",
          "type": "address"
        }
      ],
      "name": "FundsWithdrawn",
      "type": "event"
    },
    {
      "anonymous": false,
      "inputs": [
        {
          "indexed": false,
          "internalType": "address",
          "name": "oldAddress",
          "type": "address"
        },
        {
          "indexed": false,
          "internalType": "address",
          "name": "newAddress",
          "type": "address"
        }
      ],
      "name": "KeeperRegistryAddressUpdated",
      "type": "event"
    },
    {
      "anonymous": false,
      "inputs": [
        {
          "indexed": false,
          "internalType": "uint256",
          "name": "oldMinWaitPeriod",
          "type": "uint256"
        },
        {
          "indexed": false,
          "internalType": "uint256",
          "name": "newMinWaitPeriod",
          "type": "uint256"
        }
      ],
      "name": "MinWaitPeriodUpdated",
      "type": "event"
    },
    {
      "anonymous": false,
      "inputs": [
        {
          "indexed": true,
          "internalType": "address",
          "name": "previousOwner",
          "type": "address"
        },
        {
          "indexed": true,
          "internalType": "address",
          "name": "newOwner",
          "type": "address"
        }
      ],
      "name": "OwnershipTransferred",
      "type": "event"
    },
    {
      "anonymous": false,
      "inputs": [
        {
          "indexed": false,
          "internalType": "address",
          "name": "account",
          "type": "address"
        }
      ],
      "name": "Paused",
      "type": "event"
    },
    {
      "anonymous": false,
      "inputs": [
        {
          "indexed": false,
          "internalType": "uint256",
          "name": "taskId",
          "type": "uint256"
        },
        {
          "indexed": false,
          "internalType": "bytes",
          "name": "reason",
          "type": "bytes"
        }
      ],
      "name": "RevertInvoke",
      "type": "event"
    },
    {
      "anonymous": false,
      "inputs": [
        {
          "indexed": false,
          "internalType": "address",
          "name": "account",
          "type": "address"
        }
      ],
      "name": "Unpaused",
      "type": "event"
    },
    {
      "inputs": [],
      "name": "BATCH_PERFORM_LIMIT",
      "outputs": [
        {
          "internalType": "uint256",
          "name": "",
          "type": "uint256"
        }
      ],
      "stateMutability": "view",
      "type": "function"
    },
    {
      "inputs": [],
      "name": "DST_GAS_AMOUNT",
      "outputs": [
        {
          "internalType": "uint256",
          "name": "",
          "type": "uint256"
        }
      ],
      "stateMutability": "view",
      "type": "function"
    },
    {
      "inputs": [],
      "name": "KEEPER",
      "outputs": [
        {
          "internalType": "address",
          "name": "",
          "type": "address"
        }
      ],
      "stateMutability": "view",
      "type": "function"
    },
    {
      "inputs": [],
      "name": "WAIT_PERIOD_SEC",
      "outputs": [
        {
          "internalType": "uint256",
          "name": "",
          "type": "uint256"
        }
      ],
      "stateMutability": "view",
      "type": "function"
    },
    {
      "inputs": [
        {
          "internalType": "uint256",
          "name": "taskId",
          "type": "uint256"
        },
        {
          "internalType": "uint256",
          "name": "endTime",
          "type": "uint256"
        }
      ],
      "name": "addTask",
      "outputs": [],
      "stateMutability": "nonpayable",
      "type": "function"
    },
    {
      "inputs": [
        {
          "internalType": "bytes",
          "name": "",
          "type": "bytes"
        }
      ],
      "name": "checkUpkeep",
      "outputs": [
        {
          "internalType": "bool",
          "name": "upkeepNeeded",
          "type": "bool"
        },
        {
          "internalType": "bytes",
          "name": "performData",
          "type": "bytes"
        }
      ],
      "stateMutability": "view",
      "type": "function"
    },
    {
      "inputs": [],
      "name": "executor",
      "outputs": [
        {
          "internalType": "contract ILucksExecutor",
          "name": "",
          "type": "address"
        }
      ],
      "stateMutability": "view",
      "type": "function"
    },
    {
      "inputs": [],
      "name": "getQueueTasks",
      "outputs": [
        {
          "internalType": "uint256[]",
          "name": "",
          "type": "uint256[]"
        }
      ],
      "stateMutability": "view",
      "type": "function"
    },
    {
      "inputs": [],
      "name": "owner",
      "outputs": [
        {
          "internalType": "address",
          "name": "",
          "type": "address"
        }
      ],
      "stateMutability": "view",
      "type": "function"
    },
    {
      "inputs": [],
      "name": "pause",
      "outputs": [],
      "stateMutability": "nonpayable",
      "type": "function"
    },
    {
      "inputs": [],
      "name": "paused",
      "outputs": [
        {
          "internalType": "bool",
          "name": "",
          "type": "bool"
        }
      ],
      "stateMutability": "view",
      "type": "function"
    },
    {
      "inputs": [
        {
          "internalType": "bytes",
          "name": "performData",
          "type": "bytes"
        }
      ],
      "name": "performUpkeep",
      "outputs": [],
      "stateMutability": "nonpayable",
      "type": "function"
    },
    {
      "inputs": [
        {
          "internalType": "uint256",
          "name": "taskId",
          "type": "uint256"
        }
      ],
      "name": "removeTask",
      "outputs": [],
      "stateMutability": "nonpayable",
      "type": "function"
    },
    {
      "inputs": [],
      "name": "renounceOwnership",
      "outputs": [],
      "stateMutability": "nonpayable",
      "type": "function"
    },
    {
      "inputs": [
        {
          "internalType": "uint256",
          "name": "num",
          "type": "uint256"
        }
      ],
      "name": "setBatchPerformLimist",
      "outputs": [],
      "stateMutability": "nonpayable",
      "type": "function"
    },
    {
      "inputs": [
        {
          "internalType": "uint256",
          "name": "amount",
          "type": "uint256"
        }
      ],
      "name": "setDstGasAmount",
      "outputs": [],
      "stateMutability": "nonpayable",
      "type": "function"
    },
    {
      "inputs": [
        {
          "internalType": "address",
          "name": "_keeperRegAddr",
          "type": "address"
        }
      ],
      "name": "setKeeper",
      "outputs": [],
      "stateMutability": "nonpayable",
      "type": "function"
    },
    {
      "inputs": [
        {
          "internalType": "uint256",
          "name": "second",
          "type": "uint256"
        }
      ],
      "name": "setWaitPeriod",
      "outputs": [],
      "stateMutability": "nonpayable",
      "type": "function"
    },
    {
      "inputs": [
        {
          "internalType": "uint256",
          "name": "",
          "type": "uint256"
        }
      ],
      "name": "taskIds",
      "outputs": [
        {
          "internalType": "uint256",
          "name": "",
          "type": "uint256"
        }
      ],
      "stateMutability": "view",
      "type": "function"
    },
    {
      "inputs": [
        {
          "internalType": "uint256",
          "name": "",
          "type": "uint256"
        }
      ],
      "name": "taskQuene",
      "outputs": [
        {
          "internalType": "uint256",
          "name": "endTime",
          "type": "uint256"
        },
        {
          "internalType": "uint256",
          "name": "lastTimestamp",
          "type": "uint256"
        }
      ],
      "stateMutability": "view",
      "type": "function"
    },
    {
      "inputs": [
        {
          "internalType": "address",
          "name": "newOwner",
          "type": "address"
        }
      ],
      "name": "transferOwnership",
      "outputs": [],
      "stateMutability": "nonpayable",
      "type": "function"
    },
    {
      "inputs": [],
      "name": "unpause",
      "outputs": [],
      "stateMutability": "nonpayable",
      "type": "function"
    },
    {
      "inputs": [
        {
          "internalType": "uint256",
          "name": "amount",
          "type": "uint256"
        },
        {
          "internalType": "address payable",
          "name": "payee",
          "type": "address"
        }
      ],
      "name": "withdraw",
      "outputs": [],
      "stateMutability": "nonpayable",
      "type": "function"
    },
    {
      "stateMutability": "payable",
      "type": "receive"
    }
  ],
  "transactionHash": "0x23dba64bbb5c6be80cf0cb3eaf70dfbb4c820e76ac2e43bca2eb4fb838e38ae1",
  "args": [
    "0xA3E3026562a3ADAF7A761B10a45217c400a4054A",
    "0x486eB7D45626FDae26DE504fc24244F297290D1B"
  ],
  "numDeployments": 1,
  "solcInputHash": "c901f1a063d05d2c0029f9800f4d2c88",
  "bytecode": "0x6080604052603c600155600a60025560006003553480156200002057600080fd5b5060405162001c3f38038062001c3f8339810160408190526200004391620000dd565b6200004e336200008d565b6000805460ff60a01b19169055600480546001600160a01b039384166001600160a01b0319918216179091556005805492909316911617905562000135565b600080546001600160a01b038381166001600160a01b0319831681178455604051919092169283917f8be0079c531659141344cd1fd0a4f28419497f9722a3daafe3b4186f6b6457e09190a35050565b60008060408385031215620000f157600080fd5b8251620000fe816200011c565b602084015190925062000111816200011c565b809150509250929050565b6001600160a01b03811681146200013257600080fd5b50565b611afa80620001456000396000f3fe6080604052600436106101825760003560e01c8063748747e6116100d6578063b15269a51161007f578063c81c6c7c11610059578063c81c6c7c146104c8578063d6ff17a0146104ea578063f2fde38b1461050057600080fd5b8063b15269a514610465578063c30841171461047b578063c34c08e51461049b57600080fd5b80638da5cb5b116100b05780638da5cb5b146104045780639c38995c1461042f578063aa0a31001461044557600080fd5b8063748747e61461037d5780638456cb591461039d578063862a179e146103b257600080fd5b80634585e33b116101385780636e04ff0d116101125780636e04ff0d146102f1578063715018a61461031f57806371ceacf21461033457600080fd5b80634585e33b1461027657806347662b38146102965780635c975abb146102b657600080fd5b80630fbeb032116101695780630fbeb0321461020e57806339118d251461022e5780633f4ba83a1461026157600080fd5b8062b34ebd146101cc578062f714ce146101ee57600080fd5b366101c75760408051348152476020820152338183015290517fc6f3fb0fec49e4877342d4625d77a632541f55b7aae0f9d0b34c69b3478706dc9181900360600190a1005b600080fd5b3480156101d857600080fd5b506101ec6101e7366004611849565b610520565b005b3480156101fa57600080fd5b506101ec610209366004611819565b610625565b34801561021a57600080fd5b506101ec610229366004611800565b61075c565b34801561023a57600080fd5b5061024e610249366004611800565b6107e2565b6040519081526020015b60405180910390f35b34801561026d57600080fd5b506101ec610803565b34801561028257600080fd5b506101ec61029136600461178e565b61088e565b3480156102a257600080fd5b506101ec6102b1366004611800565b6109cf565b3480156102c257600080fd5b5060005474010000000000000000000000000000000000000000900460ff166040519015158152602001610258565b3480156102fd57600080fd5b5061031161030c36600461178e565b610a55565b60405161025892919061191a565b34801561032b57600080fd5b506101ec610b1b565b34801561034057600080fd5b5061036861034f366004611800565b6007602052600090815260409020805460019091015482565b60408051928352602083019190915201610258565b34801561038957600080fd5b506101ec610398366004611687565b610ba6565b3480156103a957600080fd5b506101ec610ce2565b3480156103be57600080fd5b506004546103df9073ffffffffffffffffffffffffffffffffffffffff1681565b60405173ffffffffffffffffffffffffffffffffffffffff9091168152602001610258565b34801561041057600080fd5b5060005473ffffffffffffffffffffffffffffffffffffffff166103df565b34801561043b57600080fd5b5061024e60015481565b34801561045157600080fd5b506101ec610460366004611800565b610d6b565b34801561047157600080fd5b5061024e60035481565b34801561048757600080fd5b506101ec610496366004611800565b610e5b565b3480156104a757600080fd5b506005546103df9073ffffffffffffffffffffffffffffffffffffffff1681565b3480156104d457600080fd5b506104dd610f0a565b60405161025891906118d6565b3480156104f657600080fd5b5061024e60025481565b34801561050c57600080fd5b506101ec61051b366004611687565b61103d565b60055473ffffffffffffffffffffffffffffffffffffffff1633148061055d575060005473ffffffffffffffffffffffffffffffffffffffff1633145b6105c8576040517f08c379a000000000000000000000000000000000000000000000000000000000815260206004820152600c60248201527f6f6e6c794578656375746f72000000000000000000000000000000000000000060448201526064015b60405180910390fd5b60408051808201825291825260006020808401828152858352600790915291812092518355905160019283015560068054928301815590527ff652222313e28459528d920b65115c16c04f3efc82aaedc97be59f3f377c0d3f0155565b60005473ffffffffffffffffffffffffffffffffffffffff1633146106a6576040517f08c379a000000000000000000000000000000000000000000000000000000000815260206004820181905260248201527f4f776e61626c653a2063616c6c6572206973206e6f7420746865206f776e657260448201526064016105bf565b73ffffffffffffffffffffffffffffffffffffffff81166106c657600080fd5b6040805183815273ffffffffffffffffffffffffffffffffffffffff831660208201527f6141b54b56b8a52a8c6f5cd2a857f6117b18ffbf4d46bd3106f300a839cbf5ea910160405180910390a160405173ffffffffffffffffffffffffffffffffffffffff82169083156108fc029084906000818181858888f19350505050158015610757573d6000803e3d6000fd5b505050565b60005473ffffffffffffffffffffffffffffffffffffffff1633146107dd576040517f08c379a000000000000000000000000000000000000000000000000000000000815260206004820181905260248201527f4f776e61626c653a2063616c6c6572206973206e6f7420746865206f776e657260448201526064016105bf565b600355565b600681815481106107f257600080fd5b600091825260209091200154905081565b60005473ffffffffffffffffffffffffffffffffffffffff163314610884576040517f08c379a000000000000000000000000000000000000000000000000000000000815260206004820181905260248201527f4f776e61626c653a2063616c6c6572206973206e6f7420746865206f776e657260448201526064016105bf565b61088c61116a565b565b60005474010000000000000000000000000000000000000000900460ff1615610913576040517f08c379a000000000000000000000000000000000000000000000000000000000815260206004820152601060248201527f5061757361626c653a207061757365640000000000000000000000000000000060448201526064016105bf565b60045473ffffffffffffffffffffffffffffffffffffffff16331480610950575060005473ffffffffffffffffffffffffffffffffffffffff1633145b6109b6576040517f08c379a000000000000000000000000000000000000000000000000000000000815260206004820152601260248201527f6f6e6c794b65657065725265676973747279000000000000000000000000000060448201526064016105bf565b60006109c4828401846116ab565b905061075781611263565b60005473ffffffffffffffffffffffffffffffffffffffff163314610a50576040517f08c379a000000000000000000000000000000000000000000000000000000000815260206004820181905260248201527f4f776e61626c653a2063616c6c6572206973206e6f7420746865206f776e657260448201526064016105bf565b600155565b6000805460609074010000000000000000000000000000000000000000900460ff1615610ade576040517f08c379a000000000000000000000000000000000000000000000000000000000815260206004820152601060248201527f5061757361626c653a207061757365640000000000000000000000000000000060448201526064016105bf565b6000610ae8610f0a565b90506000815111925080604051602001610b0291906118d6565b6040516020818303038152906040529150509250929050565b60005473ffffffffffffffffffffffffffffffffffffffff163314610b9c576040517f08c379a000000000000000000000000000000000000000000000000000000000815260206004820181905260248201527f4f776e61626c653a2063616c6c6572206973206e6f7420746865206f776e657260448201526064016105bf565b61088c600061140d565b60005473ffffffffffffffffffffffffffffffffffffffff163314610c27576040517f08c379a000000000000000000000000000000000000000000000000000000000815260206004820181905260248201527f4f776e61626c653a2063616c6c6572206973206e6f7420746865206f776e657260448201526064016105bf565b73ffffffffffffffffffffffffffffffffffffffff8116610c4757600080fd5b6004546040805173ffffffffffffffffffffffffffffffffffffffff928316815291831660208301527fb732223055abcde751d7a24272ffc8a3aa571cb72b443969a4199b7ecd59f8b9910160405180910390a1600480547fffffffffffffffffffffffff00000000000000000000000000000000000000001673ffffffffffffffffffffffffffffffffffffffff92909216919091179055565b60005473ffffffffffffffffffffffffffffffffffffffff163314610d63576040517f08c379a000000000000000000000000000000000000000000000000000000000815260206004820181905260248201527f4f776e61626c653a2063616c6c6572206973206e6f7420746865206f776e657260448201526064016105bf565b61088c611482565b60005473ffffffffffffffffffffffffffffffffffffffff163314610dec576040517f08c379a000000000000000000000000000000000000000000000000000000000815260206004820181905260248201527f4f776e61626c653a2063616c6c6572206973206e6f7420746865206f776e657260448201526064016105bf565b60008111610e56576040517f08c379a000000000000000000000000000000000000000000000000000000000815260206004820152601160248201527f496e76616c6964206c696d6974206e756d00000000000000000000000000000060448201526064016105bf565b600255565b60055473ffffffffffffffffffffffffffffffffffffffff16331480610e98575060005473ffffffffffffffffffffffffffffffffffffffff1633145b610efe576040517f08c379a000000000000000000000000000000000000000000000000000000000815260206004820152600c60248201527f6f6e6c794578656375746f72000000000000000000000000000000000000000060448201526064016105bf565b610f078161156e565b50565b6060600060025467ffffffffffffffff811115610f2957610f29611a73565b604051908082528060200260200182016040528015610f52578160200160208202803683370190505b5090506000805b60065481101561102957600060068281548110610f7857610f78611a44565b90600052602060002001549050600254831015611016576000818152600760205260409020544210801590610fe557506000818152600760205260409020600101541580610fe55750600180546000838152600760205260409020909101544291610fe291611995565b11155b156110165780848481518110610ffd57610ffd611a44565b602090810291909101015282611012816119ad565b9350505b5080611021816119ad565b915050610f59565b506002548114611037578082525b50919050565b60005473ffffffffffffffffffffffffffffffffffffffff1633146110be576040517f08c379a000000000000000000000000000000000000000000000000000000000815260206004820181905260248201527f4f776e61626c653a2063616c6c6572206973206e6f7420746865206f776e657260448201526064016105bf565b73ffffffffffffffffffffffffffffffffffffffff8116611161576040517f08c379a000000000000000000000000000000000000000000000000000000000815260206004820152602660248201527f4f776e61626c653a206e6577206f776e657220697320746865207a65726f206160448201527f646472657373000000000000000000000000000000000000000000000000000060648201526084016105bf565b610f078161140d565b60005474010000000000000000000000000000000000000000900460ff166111ee576040517f08c379a000000000000000000000000000000000000000000000000000000000815260206004820152601460248201527f5061757361626c653a206e6f742070617573656400000000000000000000000060448201526064016105bf565b600080547fffffffffffffffffffffff00ffffffffffffffffffffffffffffffffffffffff1690557f5db9ee0a495bf2e6ff9c91a7834c1ba4fdd244a5e8aa4e537bd38aeae4b073aa335b60405173ffffffffffffffffffffffffffffffffffffffff909116815260200160405180910390a1565b600060405180606001604052806003548152602001600081526020016040518060400160405280600281526020017f3078000000000000000000000000000000000000000000000000000000000000815250815250905060005b82518110156107575760008382815181106112da576112da611a44565b602090810291909101810151600081815260079092526040918290204260019091015560055491517fba25acfe00000000000000000000000000000000000000000000000000000000815290925073ffffffffffffffffffffffffffffffffffffffff9091169063ba25acfe906113579084908790600401611956565b600060405180830381600087803b15801561137157600080fd5b505af1925050508015611382575060015b6113f1573d8080156113b0576040519150601f19603f3d011682016040523d82523d6000602084013e6113b5565b606091505b507f1e636779d1e9049055334d85cd9ecc858646d430080ac176057b6e43eaad421a82826040516113e792919061193d565b60405180910390a1505b6113fa8161156e565b5080611405816119ad565b9150506112bd565b6000805473ffffffffffffffffffffffffffffffffffffffff8381167fffffffffffffffffffffffff0000000000000000000000000000000000000000831681178455604051919092169283917f8be0079c531659141344cd1fd0a4f28419497f9722a3daafe3b4186f6b6457e09190a35050565b60005474010000000000000000000000000000000000000000900460ff1615611507576040517f08c379a000000000000000000000000000000000000000000000000000000000815260206004820152601060248201527f5061757361626c653a207061757365640000000000000000000000000000000060448201526064016105bf565b600080547fffffffffffffffffffffff00ffffffffffffffffffffffffffffffffffffffff16740100000000000000000000000000000000000000001790557f62e78cea01bee320cd4e420270b5ea74000d11b0c9f74754ebdbfc544b05a2586112393390565b60008181526007602052604081208181556001015561158c81611590565b5050565b6000805b6006548110156115e75782600682815481106115b2576115b2611a44565b906000526020600020015414156115d5576115cc816115f0565b50600192915050565b806115df816119ad565b915050611594565b50600092915050565b6006546115fe826001611995565b101561165d576006611611826001611995565b8154811061162157611621611a44565b90600052602060002001546006828154811061163f5761163f611a44565b60009182526020909120015580611655816119ad565b9150506115f0565b600680548061166e5761166e611a15565b6001900381819060005260206000200160009055905550565b60006020828403121561169957600080fd5b81356116a481611aa2565b9392505050565b600060208083850312156116be57600080fd5b823567ffffffffffffffff808211156116d657600080fd5b818501915085601f8301126116ea57600080fd5b8135818111156116fc576116fc611a73565b8060051b6040517fffffffffffffffffffffffffffffffffffffffffffffffffffffffffffffffe0603f8301168101818110858211171561173f5761173f611a73565b604052828152858101935084860182860187018a101561175e57600080fd5b600095505b83861015611781578035855260019590950194938601938601611763565b5098975050505050505050565b600080602083850312156117a157600080fd5b823567ffffffffffffffff808211156117b957600080fd5b818501915085601f8301126117cd57600080fd5b8135818111156117dc57600080fd5b8660208285010111156117ee57600080fd5b60209290920196919550909350505050565b60006020828403121561181257600080fd5b5035919050565b6000806040838503121561182c57600080fd5b82359150602083013561183e81611aa2565b809150509250929050565b6000806040838503121561185c57600080fd5b50508035926020909101359150565b6000815180845260005b8181101561189157602081850181015186830182015201611875565b818111156118a3576000602083870101525b50601f017fffffffffffffffffffffffffffffffffffffffffffffffffffffffffffffffe0169290920160200192915050565b6020808252825182820181905260009190848201906040850190845b8181101561190e578351835292840192918401916001016118f2565b50909695505050505050565b8215158152604060208201526000611935604083018461186b565b949350505050565b828152604060208201526000611935604083018461186b565b828152604060208201528151604082015260208201516060820152600060408301516060608084015261198c60a084018261186b565b95945050505050565b600082198211156119a8576119a86119e6565b500190565b60007fffffffffffffffffffffffffffffffffffffffffffffffffffffffffffffffff8214156119df576119df6119e6565b5060010190565b7f4e487b7100000000000000000000000000000000000000000000000000000000600052601160045260246000fd5b7f4e487b7100000000000000000000000000000000000000000000000000000000600052603160045260246000fd5b7f4e487b7100000000000000000000000000000000000000000000000000000000600052603260045260246000fd5b7f4e487b7100000000000000000000000000000000000000000000000000000000600052604160045260246000fd5b73ffffffffffffffffffffffffffffffffffffffff81168114610f0757600080fdfea2646970667358221220d53e120122a38e1eb65c35d7f5db1138e76aa9e4c83f371762562f3f8877db7864736f6c63430008060033",
  "devdoc": {
    "kind": "dev",
    "methods": {
      "constructor": {
        "params": {
          "_executor": "The LucksExecutor contract",
          "_keeperRegAddr": "The address of the keeper registry contract"
        }
      },
      "owner()": {
        "details": "Returns the address of the current owner."
      },
      "paused()": {
        "details": "Returns true if the contract is paused, and false otherwise."
      },
      "performUpkeep(bytes)": {
        "details": "The input to this method should not be trusted, and the caller of the method should not even be restricted to any single registry. Anyone should be able call it, and the input should be validated, there is no guarantee that the data passed in is the performData returned from checkUpkeep. This could happen due to malicious keepers, racing keepers, or simply a state change while the performUpkeep transaction is waiting for confirmation. Always validate the data passed in.",
        "params": {
          "performData": "is the data which was passed back from the checkData simulation. If it is encoded, it can easily be decoded into other types by calling `abi.decode`. This data should not be trusted, and should be validated against the contract's current state."
        }
      },
      "renounceOwnership()": {
        "details": "Leaves the contract without owner. It will not be possible to call `onlyOwner` functions anymore. Can only be called by the current owner. NOTE: Renouncing ownership will leave the contract without an owner, thereby removing any functionality that is only available to the owner."
      },
      "transferOwnership(address)": {
        "details": "Transfers ownership of the contract to a new account (`newOwner`). Can only be called by the current owner."
      },
      "withdraw(uint256,address)": {
        "params": {
          "amount": "The amount of eth (in wei) to withdraw",
          "payee": "The address to pay"
        }
      }
    },
    "version": 1
  },
  "userdoc": {
    "kind": "user",
    "methods": {
      "pause()": {
        "notice": "Pauses the contract, which prevents executing performUpkeep"
      },
      "performUpkeep(bytes)": {
        "notice": "method that is actually executed by the keepers, via the registry. The data returned by the checkUpkeep simulation will be passed into this method to actually be executed."
      },
      "setKeeper(address)": {
        "notice": "Sets the keeper registry address"
      },
      "unpause()": {
        "notice": "Unpauses the contract"
      },
      "withdraw(uint256,address)": {
        "notice": "Withdraws the contract balance"
      }
    },
    "version": 1
  },
  "storageLayout": {
    "storage": [
      {
        "astId": 307,
        "contract": "contracts/lucks/LucksAutoCloseTask.sol:LucksAutoCloseTask",
        "label": "_owner",
        "offset": 0,
        "slot": "0",
        "type": "t_address"
      },
      {
        "astId": 422,
        "contract": "contracts/lucks/LucksAutoCloseTask.sol:LucksAutoCloseTask",
        "label": "_paused",
        "offset": 20,
        "slot": "0",
        "type": "t_bool"
      },
      {
        "astId": 9883,
        "contract": "contracts/lucks/LucksAutoCloseTask.sol:LucksAutoCloseTask",
        "label": "WAIT_PERIOD_SEC",
        "offset": 0,
        "slot": "1",
        "type": "t_uint256"
      },
      {
        "astId": 9886,
        "contract": "contracts/lucks/LucksAutoCloseTask.sol:LucksAutoCloseTask",
        "label": "BATCH_PERFORM_LIMIT",
        "offset": 0,
        "slot": "2",
        "type": "t_uint256"
      },
      {
        "astId": 9889,
        "contract": "contracts/lucks/LucksAutoCloseTask.sol:LucksAutoCloseTask",
        "label": "DST_GAS_AMOUNT",
        "offset": 0,
        "slot": "3",
        "type": "t_uint256"
      },
      {
        "astId": 9891,
        "contract": "contracts/lucks/LucksAutoCloseTask.sol:LucksAutoCloseTask",
        "label": "KEEPER",
        "offset": 0,
        "slot": "4",
        "type": "t_address"
      },
      {
        "astId": 9894,
        "contract": "contracts/lucks/LucksAutoCloseTask.sol:LucksAutoCloseTask",
        "label": "executor",
        "offset": 0,
        "slot": "5",
        "type": "t_contract(ILucksExecutor)8592"
      },
      {
        "astId": 9897,
        "contract": "contracts/lucks/LucksAutoCloseTask.sol:LucksAutoCloseTask",
        "label": "taskIds",
        "offset": 0,
        "slot": "6",
        "type": "t_array(t_uint256)dyn_storage"
      },
      {
        "astId": 9902,
        "contract": "contracts/lucks/LucksAutoCloseTask.sol:LucksAutoCloseTask",
        "label": "taskQuene",
        "offset": 0,
        "slot": "7",
        "type": "t_mapping(t_uint256,t_struct(Task)8227_storage)"
      }
    ],
    "types": {
      "t_address": {
        "encoding": "inplace",
        "label": "address",
        "numberOfBytes": "20"
      },
      "t_array(t_uint256)dyn_storage": {
        "base": "t_uint256",
        "encoding": "dynamic_array",
        "label": "uint256[]",
        "numberOfBytes": "32"
      },
      "t_bool": {
        "encoding": "inplace",
        "label": "bool",
        "numberOfBytes": "1"
      },
      "t_contract(ILucksExecutor)8592": {
        "encoding": "inplace",
        "label": "contract ILucksExecutor",
        "numberOfBytes": "20"
      },
      "t_mapping(t_uint256,t_struct(Task)8227_storage)": {
        "encoding": "mapping",
        "key": "t_uint256",
        "label": "mapping(uint256 => struct Task)",
        "numberOfBytes": "32",
        "value": "t_struct(Task)8227_storage"
      },
      "t_struct(Task)8227_storage": {
        "encoding": "inplace",
        "label": "struct Task",
        "members": [
          {
            "astId": 8224,
            "contract": "contracts/lucks/LucksAutoCloseTask.sol:LucksAutoCloseTask",
            "label": "endTime",
            "offset": 0,
            "slot": "0",
            "type": "t_uint256"
          },
          {
            "astId": 8226,
            "contract": "contracts/lucks/LucksAutoCloseTask.sol:LucksAutoCloseTask",
            "label": "lastTimestamp",
            "offset": 0,
            "slot": "1",
            "type": "t_uint256"
          }
        ],
        "numberOfBytes": "64"
      },
      "t_uint256": {
        "encoding": "inplace",
        "label": "uint256",
        "numberOfBytes": "32"
      }
    }
  }
}