{
  "address": "0x71f25Bde6474c88a4c8E13b68811b29354635CFC",
  "abi": [
    {
      "inputs": [
        {
          "internalType": "address",
          "name": "_executor",
          "type": "address"
        },
        {
          "internalType": "contract ILucksGroup",
          "name": "_groups",
          "type": "address"
        }
      ],
      "stateMutability": "nonpayable",
      "type": "constructor"
    },
    {
      "inputs": [],
      "name": "EXECUTOR",
      "outputs": [
        {
          "internalType": "contract ILucksExecutor",
          "name": "",
          "type": "address"
        }
      ],
      "stateMutability": "view",
      "type": "function"
    },
    {
      "inputs": [],
      "name": "GROUPS",
      "outputs": [
        {
          "internalType": "contract ILucksGroup",
          "name": "",
          "type": "address"
        }
      ],
      "stateMutability": "view",
      "type": "function"
    },
    {
      "inputs": [
        {
          "internalType": "uint16",
          "name": "strategyId",
          "type": "uint16"
        }
      ],
      "name": "getShareRate",
      "outputs": [
        {
          "internalType": "uint32",
          "name": "",
          "type": "uint32"
        }
      ],
      "stateMutability": "pure",
      "type": "function"
    },
    {
      "inputs": [
        {
          "internalType": "uint16",
          "name": "strategyId",
          "type": "uint16"
        },
        {
          "internalType": "address",
          "name": "winner",
          "type": "address"
        },
        {
          "internalType": "uint256",
          "name": "taskId",
          "type": "uint256"
        }
      ],
      "name": "viewPaymentShares",
      "outputs": [
        {
          "internalType": "uint256",
          "name": "",
          "type": "uint256"
        },
        {
          "internalType": "uint256[]",
          "name": "",
          "type": "uint256[]"
        },
        {
          "internalType": "address[]",
          "name": "",
          "type": "address[]"
        }
      ],
      "stateMutability": "view",
      "type": "function"
    }
  ],
  "transactionHash": "0x33c94a12d1a8b871f867552a5dc257f2943def684959f39158494847f89e1b6c",
  "args": [
    "0x486eB7D45626FDae26DE504fc24244F297290D1B",
    "0x811ad7ce0077E26b09FF476258eF6F815c8FccFB"
  ],
  "numDeployments": 1,
  "solcInputHash": "c901f1a063d05d2c0029f9800f4d2c88",
  "bytecode": "0x608060405234801561001057600080fd5b5060405161071738038061071783398101604081905261002f91610060565b600080546001600160a01b039384166001600160a01b031991821617909155600180549290931691161790556100b2565b6000806040838503121561007357600080fd5b825161007e8161009a565b602084015190925061008f8161009a565b809150509250929050565b6001600160a01b03811681146100af57600080fd5b50565b610656806100c16000396000f3fe608060405234801561001057600080fd5b506004361061004c5760003560e01c80631a7c07fe14610051578063630dc7cb1461007e57806374a0a251146100c3578063d12c51f8146100e5575b600080fd5b61006461005f366004610405565b610105565b60405163ffffffff90911681526020015b60405180910390f35b60005461009e9073ffffffffffffffffffffffffffffffffffffffff1681565b60405173ffffffffffffffffffffffffffffffffffffffff9091168152602001610075565b6100d66100d1366004610427565b610156565b60405161007593929190610466565b60015461009e9073ffffffffffffffffffffffffffffffffffffffff1681565b60008161ffff166001141561011d57506103e8919050565b8161ffff166002141561013357506107d0919050565b8161ffff16600314156101495750610bb8919050565b506000919050565b919050565b6000606080600061016687610105565b905060608063ffffffff8316156102e7576001546040517fdead6c1e0000000000000000000000000000000000000000000000000000000081526004810189905273ffffffffffffffffffffffffffffffffffffffff8a811660248301529091169063dead6c1e9060440160006040518083038186803b1580156101e957600080fd5b505afa1580156101fd573d6000803e3d6000fd5b505050506040513d6000823e601f3d9081017fffffffffffffffffffffffffffffffffffffffffffffffffffffffffffffffe0168201604052610243919081019061031b565b90506001815111156102e757805167ffffffffffffffff811115610269576102696105cc565b604051908082528060200260200182016040528015610292578160200160208202803683370190505b509150600081516127106102a69190610502565b905060005b82518110156102e457818482815181106102c7576102c761059d565b6020908102919091010152806102dc8161053d565b9150506102ab565b50505b63ffffffff90921694509250905093509350939050565b8051610151816105fb565b803561ffff8116811461015157600080fd5b6000602080838503121561032e57600080fd5b825167ffffffffffffffff8082111561034657600080fd5b818501915085601f83011261035a57600080fd5b81518181111561036c5761036c6105cc565b8060051b6040517fffffffffffffffffffffffffffffffffffffffffffffffffffffffffffffffe0603f830116810181811085821117156103af576103af6105cc565b604052828152858101935084860182860187018a10156103ce57600080fd5b600095505b838610156103f8576103e4816102fe565b8552600195909501949386019386016103d3565b5098975050505050505050565b60006020828403121561041757600080fd5b61042082610309565b9392505050565b60008060006060848603121561043c57600080fd5b61044584610309565b92506020840135610455816105fb565b929592945050506040919091013590565b6000606082018583526020606081850152818651808452608086019150828801935060005b818110156104a75784518352938301939183019160010161048b565b50508481036040860152855180825290820192508186019060005b818110156104f457825173ffffffffffffffffffffffffffffffffffffffff16855293830193918301916001016104c2565b509298975050505050505050565b600082610538577f4e487b7100000000000000000000000000000000000000000000000000000000600052601260045260246000fd5b500490565b60007fffffffffffffffffffffffffffffffffffffffffffffffffffffffffffffffff821415610596577f4e487b7100000000000000000000000000000000000000000000000000000000600052601160045260246000fd5b5060010190565b7f4e487b7100000000000000000000000000000000000000000000000000000000600052603260045260246000fd5b7f4e487b7100000000000000000000000000000000000000000000000000000000600052604160045260246000fd5b73ffffffffffffffffffffffffffffffffffffffff8116811461061d57600080fd5b5056fea264697066735822122049ea0c864c21563ded2500355f044bf10be6d35d81148c0306ca813bcf42bff064736f6c63430008060033",
  "devdoc": {
    "kind": "dev",
    "methods": {},
    "title": "Openluck LucksPaymentStrategy",
    "version": 1
  },
  "userdoc": {
    "kind": "user",
    "methods": {},
    "notice": "It is the contract for PaymentStrategy",
    "version": 1
  },
  "storageLayout": {
    "storage": [
      {
        "astId": 12553,
        "contract": "contracts/lucks/LucksPaymentStrategy.sol:LucksPaymentStrategy",
        "label": "EXECUTOR",
        "offset": 0,
        "slot": "0",
        "type": "t_contract(ILucksExecutor)8592"
      },
      {
        "astId": 12556,
        "contract": "contracts/lucks/LucksPaymentStrategy.sol:LucksPaymentStrategy",
        "label": "GROUPS",
        "offset": 0,
        "slot": "1",
        "type": "t_contract(ILucksGroup)8646"
      }
    ],
    "types": {
      "t_contract(ILucksExecutor)8592": {
        "encoding": "inplace",
        "label": "contract ILucksExecutor",
        "numberOfBytes": "20"
      },
      "t_contract(ILucksGroup)8646": {
        "encoding": "inplace",
        "label": "contract ILucksGroup",
        "numberOfBytes": "20"
      }
    }
  }
}