{
  "address": "0x7BAaEc219101E4D01385D96Cd0B93a3D8B45E27c",
  "abi": [
    {
      "inputs": [
        {
          "internalType": "string",
          "name": "_name",
          "type": "string"
        },
        {
          "internalType": "string",
          "name": "_symbol",
          "type": "string"
        },
        {
          "internalType": "address",
          "name": "_endpoint",
          "type": "address"
        },
        {
          "internalType": "uint16",
          "name": "_mainEndpointId",
          "type": "uint16"
        },
        {
          "internalType": "uint256",
          "name": "_initialSupplyOnMainEndpoint",
          "type": "uint256"
        }
      ],
      "stateMutability": "nonpayable",
      "type": "constructor"
    },
    {
      "anonymous": false,
      "inputs": [
        {
          "indexed": true,
          "internalType": "address",
          "name": "owner",
          "type": "address"
        },
        {
          "indexed": true,
          "internalType": "address",
          "name": "spender",
          "type": "address"
        },
        {
          "indexed": false,
          "internalType": "uint256",
          "name": "value",
          "type": "uint256"
        }
      ],
      "name": "Approval",
      "type": "event"
    },
    {
      "anonymous": false,
      "inputs": [
        {
          "indexed": true,
          "internalType": "address",
          "name": "previousOwner",
          "type": "address"
        },
        {
          "indexed": true,
          "internalType": "address",
          "name": "newOwner",
          "type": "address"
        }
      ],
      "name": "OwnershipTransferred",
      "type": "event"
    },
    {
      "anonymous": false,
      "inputs": [
        {
          "indexed": false,
          "internalType": "bool",
          "name": "isPaused",
          "type": "bool"
        }
      ],
      "name": "Paused",
      "type": "event"
    },
    {
      "anonymous": false,
      "inputs": [
        {
          "indexed": false,
          "internalType": "uint16",
          "name": "srcChainId",
          "type": "uint16"
        },
        {
          "indexed": false,
          "internalType": "address",
          "name": "toAddress",
          "type": "address"
        },
        {
          "indexed": false,
          "internalType": "uint256",
          "name": "qty",
          "type": "uint256"
        },
        {
          "indexed": false,
          "internalType": "uint64",
          "name": "nonce",
          "type": "uint64"
        }
      ],
      "name": "ReceiveFromChain",
      "type": "event"
    },
    {
      "anonymous": false,
      "inputs": [
        {
          "indexed": false,
          "internalType": "uint16",
          "name": "srcChainId",
          "type": "uint16"
        },
        {
          "indexed": false,
          "internalType": "bytes",
          "name": "toAddress",
          "type": "bytes"
        },
        {
          "indexed": false,
          "internalType": "uint256",
          "name": "qty",
          "type": "uint256"
        },
        {
          "indexed": false,
          "internalType": "uint64",
          "name": "nonce",
          "type": "uint64"
        }
      ],
      "name": "SendToChain",
      "type": "event"
    },
    {
      "anonymous": false,
      "inputs": [
        {
          "indexed": true,
          "internalType": "address",
          "name": "from",
          "type": "address"
        },
        {
          "indexed": true,
          "internalType": "address",
          "name": "to",
          "type": "address"
        },
        {
          "indexed": false,
          "internalType": "uint256",
          "name": "value",
          "type": "uint256"
        }
      ],
      "name": "Transfer",
      "type": "event"
    },
    {
      "inputs": [
        {
          "internalType": "address",
          "name": "owner",
          "type": "address"
        },
        {
          "internalType": "address",
          "name": "spender",
          "type": "address"
        }
      ],
      "name": "allowance",
      "outputs": [
        {
          "internalType": "uint256",
          "name": "",
          "type": "uint256"
        }
      ],
      "stateMutability": "view",
      "type": "function"
    },
    {
      "inputs": [
        {
          "internalType": "address",
          "name": "spender",
          "type": "address"
        },
        {
          "internalType": "uint256",
          "name": "amount",
          "type": "uint256"
        }
      ],
      "name": "approve",
      "outputs": [
        {
          "internalType": "bool",
          "name": "",
          "type": "bool"
        }
      ],
      "stateMutability": "nonpayable",
      "type": "function"
    },
    {
      "inputs": [
        {
          "internalType": "address",
          "name": "account",
          "type": "address"
        }
      ],
      "name": "balanceOf",
      "outputs": [
        {
          "internalType": "uint256",
          "name": "",
          "type": "uint256"
        }
      ],
      "stateMutability": "view",
      "type": "function"
    },
    {
      "inputs": [],
      "name": "chainId",
      "outputs": [
        {
          "internalType": "uint16",
          "name": "",
          "type": "uint16"
        }
      ],
      "stateMutability": "view",
      "type": "function"
    },
    {
      "inputs": [],
      "name": "decimals",
      "outputs": [
        {
          "internalType": "uint8",
          "name": "",
          "type": "uint8"
        }
      ],
      "stateMutability": "view",
      "type": "function"
    },
    {
      "inputs": [
        {
          "internalType": "address",
          "name": "spender",
          "type": "address"
        },
        {
          "internalType": "uint256",
          "name": "subtractedValue",
          "type": "uint256"
        }
      ],
      "name": "decreaseAllowance",
      "outputs": [
        {
          "internalType": "bool",
          "name": "",
          "type": "bool"
        }
      ],
      "stateMutability": "nonpayable",
      "type": "function"
    },
    {
      "inputs": [],
      "name": "endpoint",
      "outputs": [
        {
          "internalType": "contract ILayerZeroEndpoint",
          "name": "",
          "type": "address"
        }
      ],
      "stateMutability": "view",
      "type": "function"
    },
    {
      "inputs": [
        {
          "internalType": "uint16",
          "name": "_dstChainId",
          "type": "uint16"
        },
        {
          "internalType": "bytes",
          "name": "_toAddress",
          "type": "bytes"
        },
        {
          "internalType": "bool",
          "name": "_useZro",
          "type": "bool"
        },
        {
          "internalType": "bytes",
          "name": "_txParameters",
          "type": "bytes"
        }
      ],
      "name": "estimateSendTokensFee",
      "outputs": [
        {
          "internalType": "uint256",
          "name": "nativeFee",
          "type": "uint256"
        },
        {
          "internalType": "uint256",
          "name": "zroFee",
          "type": "uint256"
        }
      ],
      "stateMutability": "view",
      "type": "function"
    },
    {
      "inputs": [
        {
          "internalType": "uint16",
          "name": "_srcChainId",
          "type": "uint16"
        },
        {
          "internalType": "bytes",
          "name": "_srcAddress",
          "type": "bytes"
        }
      ],
      "name": "forceResumeReceive",
      "outputs": [],
      "stateMutability": "nonpayable",
      "type": "function"
    },
    {
      "inputs": [
        {
          "internalType": "address",
          "name": "spender",
          "type": "address"
        },
        {
          "internalType": "uint256",
          "name": "addedValue",
          "type": "uint256"
        }
      ],
      "name": "increaseAllowance",
      "outputs": [
        {
          "internalType": "bool",
          "name": "",
          "type": "bool"
        }
      ],
      "stateMutability": "nonpayable",
      "type": "function"
    },
    {
      "inputs": [],
      "name": "isMain",
      "outputs": [
        {
          "internalType": "bool",
          "name": "",
          "type": "bool"
        }
      ],
      "stateMutability": "view",
      "type": "function"
    },
    {
      "inputs": [
        {
          "internalType": "uint16",
          "name": "_srcChainId",
          "type": "uint16"
        },
        {
          "internalType": "bytes",
          "name": "_fromAddress",
          "type": "bytes"
        },
        {
          "internalType": "uint64",
          "name": "_nonce",
          "type": "uint64"
        },
        {
          "internalType": "bytes",
          "name": "_payload",
          "type": "bytes"
        }
      ],
      "name": "lzReceive",
      "outputs": [],
      "stateMutability": "nonpayable",
      "type": "function"
    },
    {
      "inputs": [],
      "name": "name",
      "outputs": [
        {
          "internalType": "string",
          "name": "",
          "type": "string"
        }
      ],
      "stateMutability": "view",
      "type": "function"
    },
    {
      "inputs": [],
      "name": "owner",
      "outputs": [
        {
          "internalType": "address",
          "name": "",
          "type": "address"
        }
      ],
      "stateMutability": "view",
      "type": "function"
    },
    {
      "inputs": [
        {
          "internalType": "bool",
          "name": "_pause",
          "type": "bool"
        }
      ],
      "name": "pauseSendTokens",
      "outputs": [],
      "stateMutability": "nonpayable",
      "type": "function"
    },
    {
      "inputs": [],
      "name": "paused",
      "outputs": [
        {
          "internalType": "bool",
          "name": "",
          "type": "bool"
        }
      ],
      "stateMutability": "view",
      "type": "function"
    },
    {
      "inputs": [],
      "name": "renounceOwnership",
      "outputs": [],
      "stateMutability": "nonpayable",
      "type": "function"
    },
    {
      "inputs": [
        {
          "internalType": "uint16",
          "name": "_dstChainId",
          "type": "uint16"
        },
        {
          "internalType": "bytes",
          "name": "_to",
          "type": "bytes"
        },
        {
          "internalType": "uint256",
          "name": "_qty",
          "type": "uint256"
        },
        {
          "internalType": "address",
          "name": "_zroPaymentAddress",
          "type": "address"
        },
        {
          "internalType": "bytes",
          "name": "_adapterParam",
          "type": "bytes"
        }
      ],
      "name": "sendTokens",
      "outputs": [],
      "stateMutability": "payable",
      "type": "function"
    },
    {
      "inputs": [
        {
          "internalType": "uint16",
          "name": "_version",
          "type": "uint16"
        },
        {
          "internalType": "uint16",
          "name": "_chainId",
          "type": "uint16"
        },
        {
          "internalType": "uint256",
          "name": "_configType",
          "type": "uint256"
        },
        {
          "internalType": "bytes",
          "name": "_config",
          "type": "bytes"
        }
      ],
      "name": "setConfig",
      "outputs": [],
      "stateMutability": "nonpayable",
      "type": "function"
    },
    {
      "inputs": [
        {
          "internalType": "uint16",
          "name": "_version",
          "type": "uint16"
        }
      ],
      "name": "setReceiveVersion",
      "outputs": [],
      "stateMutability": "nonpayable",
      "type": "function"
    },
    {
      "inputs": [
        {
          "internalType": "uint16",
          "name": "_version",
          "type": "uint16"
        }
      ],
      "name": "setSendVersion",
      "outputs": [],
      "stateMutability": "nonpayable",
      "type": "function"
    },
    {
      "inputs": [
        {
          "internalType": "uint16",
          "name": "_chainId",
          "type": "uint16"
        },
        {
          "internalType": "bytes",
          "name": "_destinationContractAddress",
          "type": "bytes"
        }
      ],
      "name": "setTrustedSource",
      "outputs": [],
      "stateMutability": "nonpayable",
      "type": "function"
    },
    {
      "inputs": [],
      "name": "symbol",
      "outputs": [
        {
          "internalType": "string",
          "name": "",
          "type": "string"
        }
      ],
      "stateMutability": "view",
      "type": "function"
    },
    {
      "inputs": [],
      "name": "totalSupply",
      "outputs": [
        {
          "internalType": "uint256",
          "name": "",
          "type": "uint256"
        }
      ],
      "stateMutability": "view",
      "type": "function"
    },
    {
      "inputs": [
        {
          "internalType": "address",
          "name": "to",
          "type": "address"
        },
        {
          "internalType": "uint256",
          "name": "amount",
          "type": "uint256"
        }
      ],
      "name": "transfer",
      "outputs": [
        {
          "internalType": "bool",
          "name": "",
          "type": "bool"
        }
      ],
      "stateMutability": "nonpayable",
      "type": "function"
    },
    {
      "inputs": [
        {
          "internalType": "address",
          "name": "from",
          "type": "address"
        },
        {
          "internalType": "address",
          "name": "to",
          "type": "address"
        },
        {
          "internalType": "uint256",
          "name": "amount",
          "type": "uint256"
        }
      ],
      "name": "transferFrom",
      "outputs": [
        {
          "internalType": "bool",
          "name": "",
          "type": "bool"
        }
      ],
      "stateMutability": "nonpayable",
      "type": "function"
    },
    {
      "inputs": [
        {
          "internalType": "address",
          "name": "newOwner",
          "type": "address"
        }
      ],
      "name": "transferOwnership",
      "outputs": [],
      "stateMutability": "nonpayable",
      "type": "function"
    },
    {
      "inputs": [
        {
          "internalType": "uint16",
          "name": "",
          "type": "uint16"
        }
      ],
      "name": "trustedSourceLookup",
      "outputs": [
        {
          "internalType": "bytes",
          "name": "",
          "type": "bytes"
        }
      ],
      "stateMutability": "view",
      "type": "function"
    }
  ],
  "transactionHash": "0x8154c5a0dc653a22ce27c3aabc702303589485a3d2fa941a3771befdefa1cf14",
  "args": [
    "OpenLuckToken",
    "LUCK",
    "0x6Fcb97553D41516Cb228ac03FdC8B9a0a9df04A1",
    10002,
    "1000000000000000000000000000"
  ],
  "numDeployments": 1,
  "solcInputHash": "c901f1a063d05d2c0029f9800f4d2c88",
  "bytecode": "0x60a06040523480156200001157600080fd5b5060405162003157380380620031578339810160408190526200003491620003fa565b8484848484848481600390805190602001906200005392919062000285565b5080516200006990600490602084019062000285565b50505062000086620000806200014760201b60201c565b6200014b565b8161ffff16836001600160a01b0316633408e4706040518163ffffffff1660e01b815260040160206040518083038186803b158015620000c557600080fd5b505afa158015620000da573d6000803e3d6000fd5b505050506040513d601f19601f82011682018060405250810190620001009190620004a2565b61ffff16141562000127576200011733826200019d565b6007805461ff0019166101001790555b505060601b6001600160601b031916608052506200054195505050505050565b3390565b600580546001600160a01b038381166001600160a01b0319831681179093556040519116919082907f8be0079c531659141344cd1fd0a4f28419497f9722a3daafe3b4186f6b6457e090600090a35050565b6001600160a01b038216620001f85760405162461bcd60e51b815260206004820152601f60248201527f45524332303a206d696e7420746f20746865207a65726f206164647265737300604482015260640160405180910390fd5b80600260008282546200020c9190620004c7565b90915550506001600160a01b038216600090815260208190526040812080548392906200023b908490620004c7565b90915550506040518181526001600160a01b038316906000907fddf252ad1be2c89b69c2b068fc378daa952ba7f163c4a11628f55a4df523b3ef9060200160405180910390a35050565b8280546200029390620004ee565b90600052602060002090601f016020900481019282620002b7576000855562000302565b82601f10620002d257805160ff191683800117855562000302565b8280016001018555821562000302579182015b8281111562000302578251825591602001919060010190620002e5565b506200031092915062000314565b5090565b5b8082111562000310576000815560010162000315565b600082601f8301126200033d57600080fd5b81516001600160401b03808211156200035a576200035a6200052b565b604051601f8301601f19908116603f011681019082821181831017156200038557620003856200052b565b81604052838152602092508683858801011115620003a257600080fd5b600091505b83821015620003c65785820183015181830184015290820190620003a7565b83821115620003d85760008385830101525b9695505050505050565b805161ffff81168114620003f557600080fd5b919050565b600080600080600060a086880312156200041357600080fd5b85516001600160401b03808211156200042b57600080fd5b6200043989838a016200032b565b965060208801519150808211156200045057600080fd5b506200045f888289016200032b565b604088015190955090506001600160a01b03811681146200047f57600080fd5b92506200048f60608701620003e2565b9150608086015190509295509295909350565b600060208284031215620004b557600080fd5b620004c082620003e2565b9392505050565b60008219821115620004e957634e487b7160e01b600052601160045260246000fd5b500190565b600181811c908216806200050357607f821691505b602082108114156200052557634e487b7160e01b600052602260045260246000fd5b50919050565b634e487b7160e01b600052604160045260246000fd5b60805160601c612bb86200059f60003960008181610387015281816105f80152818161091301528181610a5301528181610b4101528181610d3101528181610ddd01528181610fc40152818161116401526113a20152612bb86000f3fe6080604052600436106101b65760003560e01c8063604269d1116100ec578063a457c2d71161008a578063d73f057e11610064578063d73f057e1461052d578063dd62ed3e1461054d578063f1878922146105a0578063f2fde38b146105c057600080fd5b8063a457c2d7146104cd578063a9059cbb146104ed578063cbed8b9c1461050d57600080fd5b806381c986ee116100c657806381c986ee146104455780638da5cb5b1461046557806395d89b41146104905780639a8a0592146104a557600080fd5b8063604269d1146103ce57806370a08231146103ed578063715018a61461043057600080fd5b806327b7bbaa116101595780633950935111610133578063395093511461031b57806342d65a8d1461033b5780635c975abb1461035b5780635e280f111461037557600080fd5b806327b7bbaa146102b75780632e15238c146102ec578063313ce567146102ff57600080fd5b8063095ea7b311610195578063095ea7b31461022857806310ddb1371461025857806318160ddd1461027857806323b872dd1461029757600080fd5b80621d3567146101bb57806306fdde03146101dd57806307e0db1714610208575b600080fd5b3480156101c757600080fd5b506101db6101d63660046124df565b6105e0565b005b3480156101e957600080fd5b506101f26107ce565b6040516101ff919061278c565b60405180910390f35b34801561021457600080fd5b506101db61022336600461231a565b610860565b34801561023457600080fd5b50610248610243366004612254565b610988565b60405190151581526020016101ff565b34801561026457600080fd5b506101db61027336600461231a565b6109a0565b34801561028457600080fd5b506002545b6040519081526020016101ff565b3480156102a357600080fd5b506102486102b2366004612218565b610a97565b3480156102c357600080fd5b506102d76102d23660046123a9565b610abb565b604080519283526020830191909152016101ff565b6101db6102fa36600461243f565b610bdf565b34801561030b57600080fd5b50604051601281526020016101ff565b34801561032757600080fd5b50610248610336366004612254565b610eba565b34801561034757600080fd5b506101db610356366004612354565b610f06565b34801561036757600080fd5b506007546102489060ff1681565b34801561038157600080fd5b506103a97f000000000000000000000000000000000000000000000000000000000000000081565b60405173ffffffffffffffffffffffffffffffffffffffff90911681526020016101ff565b3480156103da57600080fd5b5060075461024890610100900460ff1681565b3480156103f957600080fd5b506102896104083660046121c3565b73ffffffffffffffffffffffffffffffffffffffff1660009081526020819052604090205490565b34801561043c57600080fd5b506101db611034565b34801561045157600080fd5b506101f261046036600461231a565b6110b7565b34801561047157600080fd5b5060055473ffffffffffffffffffffffffffffffffffffffff166103a9565b34801561049c57600080fd5b506101f2611151565b3480156104b157600080fd5b506104ba611160565b60405161ffff90911681526020016101ff565b3480156104d957600080fd5b506102486104e8366004612254565b611205565b3480156104f957600080fd5b50610248610508366004612254565b6112d6565b34801561051957600080fd5b506101db61052836600461256a565b6112e4565b34801561053957600080fd5b506101db610548366004612354565b611418565b34801561055957600080fd5b506102896105683660046121e5565b73ffffffffffffffffffffffffffffffffffffffff918216600090815260016020908152604080832093909416825291909152205490565b3480156105ac57600080fd5b506101db6105bb36600461227e565b61156a565b3480156105cc57600080fd5b506101db6105db3660046121c3565b611650565b3373ffffffffffffffffffffffffffffffffffffffff7f0000000000000000000000000000000000000000000000000000000000000000161461062257600080fd5b61ffff84166000908152600660205260409020805461064090612aaa565b9050835114801561067f575061ffff841660009081526006602052604090819020905161066d91906126b1565b60405180910390208380519060200120145b61070f576040517f08c379a0000000000000000000000000000000000000000000000000000000008152602060048201526024808201527f4f46543a20696e76616c696420736f757263652073656e64696e6720636f6e7460448201527f726163740000000000000000000000000000000000000000000000000000000060648201526084015b60405180910390fd5b600080828060200190518101906107269190612299565b6014820151919350915060075460ff61010090910416156107515761074c308284611780565b61075b565b61075b8183611a33565b6040805161ffff8916815273ffffffffffffffffffffffffffffffffffffffff8316602082015290810183905267ffffffffffffffff861660608201527fd4d39d20f72eabd06c301e516d54653dfc9116de62c1d54bf1cb48cf3b42a7db9060800160405180910390a150505050505050565b6060600380546107dd90612aaa565b80601f016020809104026020016040519081016040528092919081815260200182805461080990612aaa565b80156108565780601f1061082b57610100808354040283529160200191610856565b820191906000526020600020905b81548152906001019060200180831161083957829003601f168201915b5050505050905090565b60055473ffffffffffffffffffffffffffffffffffffffff1633146108e1576040517f08c379a000000000000000000000000000000000000000000000000000000000815260206004820181905260248201527f4f776e61626c653a2063616c6c6572206973206e6f7420746865206f776e65726044820152606401610706565b6040517f07e0db1700000000000000000000000000000000000000000000000000000000815261ffff821660048201527f000000000000000000000000000000000000000000000000000000000000000073ffffffffffffffffffffffffffffffffffffffff16906307e0db17906024015b600060405180830381600087803b15801561096d57600080fd5b505af1158015610981573d6000803e3d6000fd5b5050505050565b600033610996818585611b53565b5060019392505050565b60055473ffffffffffffffffffffffffffffffffffffffff163314610a21576040517f08c379a000000000000000000000000000000000000000000000000000000000815260206004820181905260248201527f4f776e61626c653a2063616c6c6572206973206e6f7420746865206f776e65726044820152606401610706565b6040517f10ddb13700000000000000000000000000000000000000000000000000000000815261ffff821660048201527f000000000000000000000000000000000000000000000000000000000000000073ffffffffffffffffffffffffffffffffffffffff16906310ddb13790602401610953565b600033610aa5858285611d07565b610ab0858585611780565b506001949350505050565b600080600087876001604051602001610ad693929190612741565b604080517fffffffffffffffffffffffffffffffffffffffffffffffffffffffffffffffe0818403018152908290527f40a7bb10000000000000000000000000000000000000000000000000000000008252915073ffffffffffffffffffffffffffffffffffffffff7f000000000000000000000000000000000000000000000000000000000000000016906340a7bb1090610b80908c90309086908c908c908c9060040161279f565b604080518083038186803b158015610b9757600080fd5b505afa158015610bab573d6000803e3d6000fd5b505050506040513d601f19601f82011682018060405250810190610bcf91906125dd565b9250925050965096945050505050565b60075460ff1615610c72576040517f08c379a000000000000000000000000000000000000000000000000000000000815260206004820152602560248201527f4f46543a2073656e64546f6b656e7328292069732063757272656e746c79207060448201527f61757365640000000000000000000000000000000000000000000000000000006064820152608401610706565b600754610100900460ff1615610c9257610c8d333086611780565b610c9c565b610c9c3385611dd8565b6000868686604051602001610cb393929190612768565b604080517fffffffffffffffffffffffffffffffffffffffffffffffffffffffffffffffe081840301815282825261ffff8b1660009081526006602052919091207fc580310000000000000000000000000000000000000000000000000000000000835290925073ffffffffffffffffffffffffffffffffffffffff7f0000000000000000000000000000000000000000000000000000000000000000169163c5803100913491610d72918d91879033908c908c908c90600401612867565b6000604051808303818588803b158015610d8b57600080fd5b505af1158015610d9f573d6000803e3d6000fd5b50506040517f7a14574800000000000000000000000000000000000000000000000000000000815261ffff8c166004820152306024820152600093507f000000000000000000000000000000000000000000000000000000000000000073ffffffffffffffffffffffffffffffffffffffff169250637a145748915060440160206040518083038186803b158015610e3657600080fd5b505afa158015610e4a573d6000803e3d6000fd5b505050506040513d601f19601f82011682018060405250810190610e6e9190612601565b90507fef1c12e81f50500a9877e43d6690ac985d26149831e5b1aacc13c404acbca0778989898985604051610ea7959493929190612827565b60405180910390a1505050505050505050565b33600081815260016020908152604080832073ffffffffffffffffffffffffffffffffffffffff871684529091528120549091906109969082908690610f01908790612a4f565b611b53565b60055473ffffffffffffffffffffffffffffffffffffffff163314610f87576040517f08c379a000000000000000000000000000000000000000000000000000000000815260206004820181905260248201527f4f776e61626c653a2063616c6c6572206973206e6f7420746865206f776e65726044820152606401610706565b6040517f42d65a8d00000000000000000000000000000000000000000000000000000000815273ffffffffffffffffffffffffffffffffffffffff7f000000000000000000000000000000000000000000000000000000000000000016906342d65a8d90610ffd90869086908690600401612800565b600060405180830381600087803b15801561101757600080fd5b505af115801561102b573d6000803e3d6000fd5b50505050505050565b60055473ffffffffffffffffffffffffffffffffffffffff1633146110b5576040517f08c379a000000000000000000000000000000000000000000000000000000000815260206004820181905260248201527f4f776e61626c653a2063616c6c6572206973206e6f7420746865206f776e65726044820152606401610706565b565b600660205260009081526040902080546110d090612aaa565b80601f01602080910402602001604051908101604052809291908181526020018280546110fc90612aaa565b80156111495780601f1061111e57610100808354040283529160200191611149565b820191906000526020600020905b81548152906001019060200180831161112c57829003601f168201915b505050505081565b6060600480546107dd90612aaa565b60007f000000000000000000000000000000000000000000000000000000000000000073ffffffffffffffffffffffffffffffffffffffff16633408e4706040518163ffffffff1660e01b815260040160206040518083038186803b1580156111c857600080fd5b505afa1580156111dc573d6000803e3d6000fd5b505050506040513d601f19601f820116820180604052508101906112009190612337565b905090565b33600081815260016020908152604080832073ffffffffffffffffffffffffffffffffffffffff87168452909152812054909190838110156112c9576040517f08c379a000000000000000000000000000000000000000000000000000000000815260206004820152602560248201527f45524332303a2064656372656173656420616c6c6f77616e63652062656c6f7760448201527f207a65726f0000000000000000000000000000000000000000000000000000006064820152608401610706565b610ab08286868403611b53565b600033610996818585611780565b60055473ffffffffffffffffffffffffffffffffffffffff163314611365576040517f08c379a000000000000000000000000000000000000000000000000000000000815260206004820181905260248201527f4f776e61626c653a2063616c6c6572206973206e6f7420746865206f776e65726044820152606401610706565b6040517fcbed8b9c00000000000000000000000000000000000000000000000000000000815273ffffffffffffffffffffffffffffffffffffffff7f0000000000000000000000000000000000000000000000000000000000000000169063cbed8b9c906113df9088908890889088908890600401612981565b600060405180830381600087803b1580156113f957600080fd5b505af115801561140d573d6000803e3d6000fd5b505050505050505050565b60055473ffffffffffffffffffffffffffffffffffffffff163314611499576040517f08c379a000000000000000000000000000000000000000000000000000000000815260206004820181905260248201527f4f776e61626c653a2063616c6c6572206973206e6f7420746865206f776e65726044820152606401610706565b61ffff8316600090815260066020526040902080546114b790612aaa565b159050611546576040517f08c379a000000000000000000000000000000000000000000000000000000000815260206004820152603860248201527f54686520736f7572636520616464726573732068617320616c7265616479206260448201527f65656e2073657420666f722074686520636861696e49642100000000000000006064820152608401610706565b61ffff83166000908152600660205260409020611564908383612034565b50505050565b60055473ffffffffffffffffffffffffffffffffffffffff1633146115eb576040517f08c379a000000000000000000000000000000000000000000000000000000000815260206004820181905260248201527f4f776e61626c653a2063616c6c6572206973206e6f7420746865206f776e65726044820152606401610706565b600780547fffffffffffffffffffffffffffffffffffffffffffffffffffffffffffffff00168215159081179091556040519081527f0e2fb031ee032dc02d8011dc50b816eb450cf856abd8261680dac74f72165bd29060200160405180910390a150565b60055473ffffffffffffffffffffffffffffffffffffffff1633146116d1576040517f08c379a000000000000000000000000000000000000000000000000000000000815260206004820181905260248201527f4f776e61626c653a2063616c6c6572206973206e6f7420746865206f776e65726044820152606401610706565b73ffffffffffffffffffffffffffffffffffffffff8116611774576040517f08c379a000000000000000000000000000000000000000000000000000000000815260206004820152602660248201527f4f776e61626c653a206e6577206f776e657220697320746865207a65726f206160448201527f64647265737300000000000000000000000000000000000000000000000000006064820152608401610706565b61177d81611fbd565b50565b73ffffffffffffffffffffffffffffffffffffffff8316611823576040517f08c379a000000000000000000000000000000000000000000000000000000000815260206004820152602560248201527f45524332303a207472616e736665722066726f6d20746865207a65726f20616460448201527f64726573730000000000000000000000000000000000000000000000000000006064820152608401610706565b73ffffffffffffffffffffffffffffffffffffffff82166118c6576040517f08c379a000000000000000000000000000000000000000000000000000000000815260206004820152602360248201527f45524332303a207472616e7366657220746f20746865207a65726f206164647260448201527f65737300000000000000000000000000000000000000000000000000000000006064820152608401610706565b73ffffffffffffffffffffffffffffffffffffffff83166000908152602081905260409020548181101561197c576040517f08c379a000000000000000000000000000000000000000000000000000000000815260206004820152602660248201527f45524332303a207472616e7366657220616d6f756e742065786365656473206260448201527f616c616e636500000000000000000000000000000000000000000000000000006064820152608401610706565b73ffffffffffffffffffffffffffffffffffffffff8085166000908152602081905260408082208585039055918516815290812080548492906119c0908490612a4f565b925050819055508273ffffffffffffffffffffffffffffffffffffffff168473ffffffffffffffffffffffffffffffffffffffff167fddf252ad1be2c89b69c2b068fc378daa952ba7f163c4a11628f55a4df523b3ef84604051611a2691815260200190565b60405180910390a3611564565b73ffffffffffffffffffffffffffffffffffffffff8216611ab0576040517f08c379a000000000000000000000000000000000000000000000000000000000815260206004820152601f60248201527f45524332303a206d696e7420746f20746865207a65726f2061646472657373006044820152606401610706565b8060026000828254611ac29190612a4f565b909155505073ffffffffffffffffffffffffffffffffffffffff821660009081526020819052604081208054839290611afc908490612a4f565b909155505060405181815273ffffffffffffffffffffffffffffffffffffffff8316906000907fddf252ad1be2c89b69c2b068fc378daa952ba7f163c4a11628f55a4df523b3ef9060200160405180910390a35050565b73ffffffffffffffffffffffffffffffffffffffff8316611bf5576040517f08c379a0000000000000000000000000000000000000000000000000000000008152602060048201526024808201527f45524332303a20617070726f76652066726f6d20746865207a65726f2061646460448201527f72657373000000000000000000000000000000000000000000000000000000006064820152608401610706565b73ffffffffffffffffffffffffffffffffffffffff8216611c98576040517f08c379a000000000000000000000000000000000000000000000000000000000815260206004820152602260248201527f45524332303a20617070726f766520746f20746865207a65726f20616464726560448201527f73730000000000000000000000000000000000000000000000000000000000006064820152608401610706565b73ffffffffffffffffffffffffffffffffffffffff83811660008181526001602090815260408083209487168084529482529182902085905590518481527f8c5be1e5ebec7d5bd14f71427d1e84f3dd0314c0f7b2291e5b200ac8c7c3b92591015b60405180910390a3505050565b73ffffffffffffffffffffffffffffffffffffffff8381166000908152600160209081526040808320938616835292905220547fffffffffffffffffffffffffffffffffffffffffffffffffffffffffffffffff81146115645781811015611dcb576040517f08c379a000000000000000000000000000000000000000000000000000000000815260206004820152601d60248201527f45524332303a20696e73756666696369656e7420616c6c6f77616e63650000006044820152606401610706565b6115648484848403611b53565b73ffffffffffffffffffffffffffffffffffffffff8216611e7b576040517f08c379a000000000000000000000000000000000000000000000000000000000815260206004820152602160248201527f45524332303a206275726e2066726f6d20746865207a65726f2061646472657360448201527f73000000000000000000000000000000000000000000000000000000000000006064820152608401610706565b73ffffffffffffffffffffffffffffffffffffffff821660009081526020819052604090205481811015611f31576040517f08c379a000000000000000000000000000000000000000000000000000000000815260206004820152602260248201527f45524332303a206275726e20616d6f756e7420657863656564732062616c616e60448201527f63650000000000000000000000000000000000000000000000000000000000006064820152608401610706565b73ffffffffffffffffffffffffffffffffffffffff83166000908152602081905260408120838303905560028054849290611f6d908490612a67565b909155505060405182815260009073ffffffffffffffffffffffffffffffffffffffff8516907fddf252ad1be2c89b69c2b068fc378daa952ba7f163c4a11628f55a4df523b3ef90602001611cfa565b6005805473ffffffffffffffffffffffffffffffffffffffff8381167fffffffffffffffffffffffff0000000000000000000000000000000000000000831681179093556040519116919082907f8be0079c531659141344cd1fd0a4f28419497f9722a3daafe3b4186f6b6457e090600090a35050565b82805461204090612aaa565b90600052602060002090601f01602090048101928261206257600085556120c6565b82601f10612099578280017fffffffffffffffffffffffffffffffffffffffffffffffffffffffffffffff008235161785556120c6565b828001600101855582156120c6579182015b828111156120c65782358255916020019190600101906120ab565b506120d29291506120d6565b5090565b5b808211156120d257600081556001016120d7565b803573ffffffffffffffffffffffffffffffffffffffff8116811461210f57600080fd5b919050565b8035801515811461210f57600080fd5b60008083601f84011261213657600080fd5b50813567ffffffffffffffff81111561214e57600080fd5b60208301915083602082850101111561216657600080fd5b9250929050565b600082601f83011261217e57600080fd5b813561219161218c82612a09565b6129ba565b8181528460208386010111156121a657600080fd5b816020850160208301376000918101602001919091529392505050565b6000602082840312156121d557600080fd5b6121de826120eb565b9392505050565b600080604083850312156121f857600080fd5b612201836120eb565b915061220f602084016120eb565b90509250929050565b60008060006060848603121561222d57600080fd5b612236846120eb565b9250612244602085016120eb565b9150604084013590509250925092565b6000806040838503121561226757600080fd5b612270836120eb565b946020939093013593505050565b60006020828403121561229057600080fd5b6121de82612114565b600080604083850312156122ac57600080fd5b825167ffffffffffffffff8111156122c357600080fd5b8301601f810185136122d457600080fd5b80516122e261218c82612a09565b8181528660208385010111156122f757600080fd5b612308826020830160208601612a7e565b60209590950151949694955050505050565b60006020828403121561232c57600080fd5b81356121de81612b5c565b60006020828403121561234957600080fd5b81516121de81612b5c565b60008060006040848603121561236957600080fd5b833561237481612b5c565b9250602084013567ffffffffffffffff81111561239057600080fd5b61239c86828701612124565b9497909650939450505050565b600080600080600080608087890312156123c257600080fd5b86356123cd81612b5c565b9550602087013567ffffffffffffffff808211156123ea57600080fd5b6123f68a838b01612124565b909750955085915061240a60408a01612114565b9450606089013591508082111561242057600080fd5b5061242d89828a01612124565b979a9699509497509295939492505050565b600080600080600080600060a0888a03121561245a57600080fd5b873561246581612b5c565b9650602088013567ffffffffffffffff8082111561248257600080fd5b61248e8b838c01612124565b909850965060408a013595508691506124a960608b016120eb565b945060808a01359150808211156124bf57600080fd5b506124cc8a828b01612124565b989b979a50959850939692959293505050565b600080600080608085870312156124f557600080fd5b843561250081612b5c565b9350602085013567ffffffffffffffff8082111561251d57600080fd5b6125298883890161216d565b94506040870135915061253b82612b6c565b9092506060860135908082111561255157600080fd5b5061255e8782880161216d565b91505092959194509250565b60008060008060006080868803121561258257600080fd5b853561258d81612b5c565b9450602086013561259d81612b5c565b935060408601359250606086013567ffffffffffffffff8111156125c057600080fd5b6125cc88828901612124565b969995985093965092949392505050565b600080604083850312156125f057600080fd5b505080516020909101519092909150565b60006020828403121561261357600080fd5b81516121de81612b6c565b8183528181602085013750600060208284010152600060207fffffffffffffffffffffffffffffffffffffffffffffffffffffffffffffffe0601f840116840101905092915050565b6000815180845261267f816020860160208601612a7e565b601f017fffffffffffffffffffffffffffffffffffffffffffffffffffffffffffffffe0169290920160200192915050565b60008083546126bf81612aaa565b600182811680156126d7576001811461270657612735565b7fffffffffffffffffffffffffffffffffffffffffffffffffffffffffffffff00841687528287019450612735565b8760005260208060002060005b8581101561272c5781548a820152908401908201612713565b50505082870194505b50929695505050505050565b60408152600061275560408301858761261e565b905060ff83166020830152949350505050565b60408152600061277c60408301858761261e565b9050826020830152949350505050565b6020815260006121de6020830184612667565b61ffff8716815273ffffffffffffffffffffffffffffffffffffffff8616602082015260a0604082015260006127d860a0830187612667565b851515606084015282810360808401526127f381858761261e565b9998505050505050505050565b61ffff8416815260406020820152600061281e60408301848661261e565b95945050505050565b61ffff8616815260806020820152600061284560808301868861261e565b905083604083015267ffffffffffffffff831660608301529695505050505050565b61ffff881681526000602060c0818401526000895461288581612aaa565b8060c087015260e06001808416600081146128a757600181146128da57612908565b7fffffffffffffffffffffffffffffffffffffffffffffffffffffffffffffff008516838a015261010089019550612908565b8e6000528660002060005b858110156129005781548b82018601529083019088016128e5565b8a0184019650505b5050505050838103604085015261291f818a612667565b915050612944606084018873ffffffffffffffffffffffffffffffffffffffff169052565b73ffffffffffffffffffffffffffffffffffffffff8616608084015282810360a084015261297381858761261e565b9a9950505050505050505050565b600061ffff8088168352808716602084015250846040830152608060608301526129af60808301848661261e565b979650505050505050565b604051601f82017fffffffffffffffffffffffffffffffffffffffffffffffffffffffffffffffe016810167ffffffffffffffff81118282101715612a0157612a01612b2d565b604052919050565b600067ffffffffffffffff821115612a2357612a23612b2d565b50601f017fffffffffffffffffffffffffffffffffffffffffffffffffffffffffffffffe01660200190565b60008219821115612a6257612a62612afe565b500190565b600082821015612a7957612a79612afe565b500390565b60005b83811015612a99578181015183820152602001612a81565b838111156115645750506000910152565b600181811c90821680612abe57607f821691505b60208210811415612af8577f4e487b7100000000000000000000000000000000000000000000000000000000600052602260045260246000fd5b50919050565b7f4e487b7100000000000000000000000000000000000000000000000000000000600052601160045260246000fd5b7f4e487b7100000000000000000000000000000000000000000000000000000000600052604160045260246000fd5b61ffff8116811461177d57600080fd5b67ffffffffffffffff8116811461177d57600080fdfea2646970667358221220cc4eed393462b7c97e868c2d6b8b4372c6e2e6baac591ea3263599af3924e05064736f6c63430008060033",
  "devdoc": {
    "kind": "dev",
    "methods": {
      "allowance(address,address)": {
        "details": "See {IERC20-allowance}."
      },
      "approve(address,uint256)": {
        "details": "See {IERC20-approve}. NOTE: If `amount` is the maximum `uint256`, the allowance is not updated on `transferFrom`. This is semantically equivalent to an infinite approval. Requirements: - `spender` cannot be the zero address."
      },
      "balanceOf(address)": {
        "details": "See {IERC20-balanceOf}."
      },
      "decimals()": {
        "details": "Returns the number of decimals used to get its user representation. For example, if `decimals` equals `2`, a balance of `505` tokens should be displayed to a user as `5.05` (`505 / 10 ** 2`). Tokens usually opt for a value of 18, imitating the relationship between Ether and Wei. This is the value {ERC20} uses, unless this function is overridden; NOTE: This information is only used for _display_ purposes: it in no way affects any of the arithmetic of the contract, including {IERC20-balanceOf} and {IERC20-transfer}."
      },
      "decreaseAllowance(address,uint256)": {
        "details": "Atomically decreases the allowance granted to `spender` by the caller. This is an alternative to {approve} that can be used as a mitigation for problems described in {IERC20-approve}. Emits an {Approval} event indicating the updated allowance. Requirements: - `spender` cannot be the zero address. - `spender` must have allowance for the caller of at least `subtractedValue`."
      },
      "increaseAllowance(address,uint256)": {
        "details": "Atomically increases the allowance granted to `spender` by the caller. This is an alternative to {approve} that can be used as a mitigation for problems described in {IERC20-approve}. Emits an {Approval} event indicating the updated allowance. Requirements: - `spender` cannot be the zero address."
      },
      "name()": {
        "details": "Returns the name of the token."
      },
      "owner()": {
        "details": "Returns the address of the current owner."
      },
      "renounceOwnership()": {
        "details": "Leaves the contract without owner. It will not be possible to call `onlyOwner` functions anymore. Can only be called by the current owner. NOTE: Renouncing ownership will leave the contract without an owner, thereby removing any functionality that is only available to the owner."
      },
      "symbol()": {
        "details": "Returns the symbol of the token, usually a shorter version of the name."
      },
      "totalSupply()": {
        "details": "See {IERC20-totalSupply}."
      },
      "transfer(address,uint256)": {
        "details": "See {IERC20-transfer}. Requirements: - `to` cannot be the zero address. - the caller must have a balance of at least `amount`."
      },
      "transferFrom(address,address,uint256)": {
        "details": "See {IERC20-transferFrom}. Emits an {Approval} event indicating the updated allowance. This is not required by the EIP. See the note at the beginning of {ERC20}. NOTE: Does not update the allowance if the current allowance is the maximum `uint256`. Requirements: - `from` and `to` cannot be the zero address. - `from` must have a balance of at least `amount`. - the caller must have allowance for ``from``'s tokens of at least `amount`."
      },
      "transferOwnership(address)": {
        "details": "Transfers ownership of the contract to a new account (`newOwner`). Can only be called by the current owner."
      }
    },
    "version": 1
  },
  "userdoc": {
    "kind": "user",
    "methods": {},
    "version": 1
  },
  "storageLayout": {
    "storage": [
      {
        "astId": 1911,
        "contract": "contracts/OpenLuckToken.sol:OpenLuckToken",
        "label": "_balances",
        "offset": 0,
        "slot": "0",
        "type": "t_mapping(t_address,t_uint256)"
      },
      {
        "astId": 1917,
        "contract": "contracts/OpenLuckToken.sol:OpenLuckToken",
        "label": "_allowances",
        "offset": 0,
        "slot": "1",
        "type": "t_mapping(t_address,t_mapping(t_address,t_uint256))"
      },
      {
        "astId": 1919,
        "contract": "contracts/OpenLuckToken.sol:OpenLuckToken",
        "label": "_totalSupply",
        "offset": 0,
        "slot": "2",
        "type": "t_uint256"
      },
      {
        "astId": 1921,
        "contract": "contracts/OpenLuckToken.sol:OpenLuckToken",
        "label": "_name",
        "offset": 0,
        "slot": "3",
        "type": "t_string_storage"
      },
      {
        "astId": 1923,
        "contract": "contracts/OpenLuckToken.sol:OpenLuckToken",
        "label": "_symbol",
        "offset": 0,
        "slot": "4",
        "type": "t_string_storage"
      },
      {
        "astId": 307,
        "contract": "contracts/OpenLuckToken.sol:OpenLuckToken",
        "label": "_owner",
        "offset": 0,
        "slot": "5",
        "type": "t_address"
      },
      {
        "astId": 9434,
        "contract": "contracts/OpenLuckToken.sol:OpenLuckToken",
        "label": "trustedSourceLookup",
        "offset": 0,
        "slot": "6",
        "type": "t_mapping(t_uint16,t_bytes_storage)"
      },
      {
        "astId": 9436,
        "contract": "contracts/OpenLuckToken.sol:OpenLuckToken",
        "label": "paused",
        "offset": 0,
        "slot": "7",
        "type": "t_bool"
      },
      {
        "astId": 9438,
        "contract": "contracts/OpenLuckToken.sol:OpenLuckToken",
        "label": "isMain",
        "offset": 1,
        "slot": "7",
        "type": "t_bool"
      }
    ],
    "types": {
      "t_address": {
        "encoding": "inplace",
        "label": "address",
        "numberOfBytes": "20"
      },
      "t_bool": {
        "encoding": "inplace",
        "label": "bool",
        "numberOfBytes": "1"
      },
      "t_bytes_storage": {
        "encoding": "bytes",
        "label": "bytes",
        "numberOfBytes": "32"
      },
      "t_mapping(t_address,t_mapping(t_address,t_uint256))": {
        "encoding": "mapping",
        "key": "t_address",
        "label": "mapping(address => mapping(address => uint256))",
        "numberOfBytes": "32",
        "value": "t_mapping(t_address,t_uint256)"
      },
      "t_mapping(t_address,t_uint256)": {
        "encoding": "mapping",
        "key": "t_address",
        "label": "mapping(address => uint256)",
        "numberOfBytes": "32",
        "value": "t_uint256"
      },
      "t_mapping(t_uint16,t_bytes_storage)": {
        "encoding": "mapping",
        "key": "t_uint16",
        "label": "mapping(uint16 => bytes)",
        "numberOfBytes": "32",
        "value": "t_bytes_storage"
      },
      "t_string_storage": {
        "encoding": "bytes",
        "label": "string",
        "numberOfBytes": "32"
      },
      "t_uint16": {
        "encoding": "inplace",
        "label": "uint16",
        "numberOfBytes": "2"
      },
      "t_uint256": {
        "encoding": "inplace",
        "label": "uint256",
        "numberOfBytes": "32"
      }
    }
  }
}