{
  "address": "0x628FA3d319Bb07Ee4499dc094D6f3c2a9dF48896",
  "abi": [
    {
      "inputs": [
        {
          "internalType": "address",
          "name": "_executor",
          "type": "address"
        },
        {
          "internalType": "contract ILucksGroup",
          "name": "_groups",
          "type": "address"
        }
      ],
      "stateMutability": "nonpayable",
      "type": "constructor"
    },
    {
      "anonymous": false,
      "inputs": [
        {
          "indexed": true,
          "internalType": "address",
          "name": "previousOwner",
          "type": "address"
        },
        {
          "indexed": true,
          "internalType": "address",
          "name": "newOwner",
          "type": "address"
        }
      ],
      "name": "OwnershipTransferred",
      "type": "event"
    },
    {
      "inputs": [],
      "name": "EXECUTOR",
      "outputs": [
        {
          "internalType": "contract ILucksExecutor",
          "name": "",
          "type": "address"
        }
      ],
      "stateMutability": "view",
      "type": "function"
    },
    {
      "inputs": [],
      "name": "GROUPS",
      "outputs": [
        {
          "internalType": "contract ILucksGroup",
          "name": "",
          "type": "address"
        }
      ],
      "stateMutability": "view",
      "type": "function"
    },
    {
      "inputs": [
        {
          "internalType": "uint16",
          "name": "strategyId",
          "type": "uint16"
        }
      ],
      "name": "getShareRate",
      "outputs": [
        {
          "internalType": "uint32",
          "name": "",
          "type": "uint32"
        }
      ],
      "stateMutability": "pure",
      "type": "function"
    },
    {
      "inputs": [],
      "name": "owner",
      "outputs": [
        {
          "internalType": "address",
          "name": "",
          "type": "address"
        }
      ],
      "stateMutability": "view",
      "type": "function"
    },
    {
      "inputs": [],
      "name": "renounceOwnership",
      "outputs": [],
      "stateMutability": "nonpayable",
      "type": "function"
    },
    {
      "inputs": [
        {
          "internalType": "contract ILucksExecutor",
          "name": "_executor",
          "type": "address"
        }
      ],
      "name": "setExecutor",
      "outputs": [],
      "stateMutability": "nonpayable",
      "type": "function"
    },
    {
      "inputs": [
        {
          "internalType": "contract ILucksGroup",
          "name": "_group",
          "type": "address"
        }
      ],
      "name": "setLucksGroup",
      "outputs": [],
      "stateMutability": "nonpayable",
      "type": "function"
    },
    {
      "inputs": [
        {
          "internalType": "address",
          "name": "newOwner",
          "type": "address"
        }
      ],
      "name": "transferOwnership",
      "outputs": [],
      "stateMutability": "nonpayable",
      "type": "function"
    },
    {
      "inputs": [
        {
          "internalType": "uint16",
          "name": "strategyId",
          "type": "uint16"
        },
        {
          "internalType": "address",
          "name": "winner",
          "type": "address"
        },
        {
          "internalType": "uint256",
          "name": "taskId",
          "type": "uint256"
        }
      ],
      "name": "viewPaymentShares",
      "outputs": [
        {
          "internalType": "uint256",
          "name": "",
          "type": "uint256"
        },
        {
          "internalType": "uint256[]",
          "name": "",
          "type": "uint256[]"
        },
        {
          "internalType": "address[]",
          "name": "",
          "type": "address[]"
        }
      ],
      "stateMutability": "view",
      "type": "function"
    }
  ],
  "transactionHash": "0x1ee1e3c1cb9039a580eb6f57886e67e5aad6eb6b23d98b09ffa4f0c5e967f084",
  "args": [
    "0x897be0747988558c507aF3fd1e07d55c74EfadE8",
    "0x14f50cA151DEBA66526Fc2854E4E5fFe4866e788"
  ],
  "numDeployments": 1,
  "solcInputHash": "a366705d5343df8a750697e3fbefe33f",
  "bytecode": "0x608060405234801561001057600080fd5b506040516108f73803806108f783398101604081905261002f916100b9565b61003833610069565b600180546001600160a01b039384166001600160a01b0319918216179091556002805492909316911617905561010b565b600080546001600160a01b038381166001600160a01b0319831681178455604051919092169283917f8be0079c531659141344cd1fd0a4f28419497f9722a3daafe3b4186f6b6457e09190a35050565b600080604083850312156100cc57600080fd5b82516100d7816100f3565b60208401519092506100e8816100f3565b809150509250929050565b6001600160a01b038116811461010857600080fd5b50565b6107dd8061011a6000396000f3fe608060405234801561001057600080fd5b50600436106100935760003560e01c8063715018a611610066578063715018a61461011857806374a0a251146101205780638da5cb5b14610142578063d12c51f814610153578063f2fde38b1461016657600080fd5b806305b84a7d146100985780631a7c07fe146100ad5780631c3c0ea8146100da578063630dc7cb146100ed575b600080fd5b6100ab6100a636600461050d565b610179565b005b6100c06100bb3660046105fd565b6101ce565b60405163ffffffff90911681526020015b60405180910390f35b6100ab6100e836600461050d565b61021f565b600154610100906001600160a01b031681565b6040516001600160a01b0390911681526020016100d1565b6100ab61026b565b61013361012e366004610618565b6102a1565b6040516100d19392919061068c565b6000546001600160a01b0316610100565b600254610100906001600160a01b031681565b6100ab61017436600461050d565b610405565b6000546001600160a01b031633146101ac5760405162461bcd60e51b81526004016101a390610657565b60405180910390fd5b600280546001600160a01b0319166001600160a01b0392909216919091179055565b60008161ffff16600114156101e657506103e8919050565b8161ffff16600214156101fc57506107d0919050565b8161ffff16600314156102125750610bb8919050565b506000919050565b919050565b6000546001600160a01b031633146102495760405162461bcd60e51b81526004016101a390610657565b600180546001600160a01b0319166001600160a01b0392909216919091179055565b6000546001600160a01b031633146102955760405162461bcd60e51b81526004016101a390610657565b61029f60006104a0565b565b600060608060006102b1876101ce565b905060608063ffffffff8316156103ee57600254604051636f56b60f60e11b8152600481018990526001600160a01b038a811660248301529091169063dead6c1e9060440160006040518083038186803b15801561030e57600080fd5b505afa158015610322573d6000803e3d6000fd5b505050506040513d6000823e601f3d908101601f1916820160405261034a9190810190610531565b90506001815111156103ee57805167ffffffffffffffff8111156103705761037061077c565b604051908082528060200260200182016040528015610399578160200160208202803683370190505b509150600081516127106103ad919061071b565b905060005b82518110156103eb57818482815181106103ce576103ce610766565b6020908102919091010152806103e38161073d565b9150506103b2565b50505b63ffffffff90921694509250905093509350939050565b6000546001600160a01b0316331461042f5760405162461bcd60e51b81526004016101a390610657565b6001600160a01b0381166104945760405162461bcd60e51b815260206004820152602660248201527f4f776e61626c653a206e6577206f776e657220697320746865207a65726f206160448201526564647265737360d01b60648201526084016101a3565b61049d816104a0565b50565b600080546001600160a01b038381166001600160a01b0319831681178455604051919092169283917f8be0079c531659141344cd1fd0a4f28419497f9722a3daafe3b4186f6b6457e09190a35050565b805161021a81610792565b803561ffff8116811461021a57600080fd5b60006020828403121561051f57600080fd5b813561052a81610792565b9392505050565b6000602080838503121561054457600080fd5b825167ffffffffffffffff8082111561055c57600080fd5b818501915085601f83011261057057600080fd5b8151818111156105825761058261077c565b8060051b604051601f19603f830116810181811085821117156105a7576105a761077c565b604052828152858101935084860182860187018a10156105c657600080fd5b600095505b838610156105f0576105dc816104f0565b8552600195909501949386019386016105cb565b5098975050505050505050565b60006020828403121561060f57600080fd5b61052a826104fb565b60008060006060848603121561062d57600080fd5b610636846104fb565b9250602084013561064681610792565b929592945050506040919091013590565b6020808252818101527f4f776e61626c653a2063616c6c6572206973206e6f7420746865206f776e6572604082015260600190565b6000606082018583526020606081850152818651808452608086019150828801935060005b818110156106cd578451835293830193918301916001016106b1565b50508481036040860152855180825290820192508186019060005b8181101561070d5782516001600160a01b0316855293830193918301916001016106e8565b509298975050505050505050565b60008261073857634e487b7160e01b600052601260045260246000fd5b500490565b600060001982141561075f57634e487b7160e01b600052601160045260246000fd5b5060010190565b634e487b7160e01b600052603260045260246000fd5b634e487b7160e01b600052604160045260246000fd5b6001600160a01b038116811461049d57600080fdfea2646970667358221220fa8d9976c8680ea5ab936a9b67841b9202e75784254385a53d66cd4eb1530cd764736f6c63430008060033",
  "devdoc": {
    "kind": "dev",
    "methods": {
      "owner()": {
        "details": "Returns the address of the current owner."
      },
      "renounceOwnership()": {
        "details": "Leaves the contract without owner. It will not be possible to call `onlyOwner` functions anymore. Can only be called by the current owner. NOTE: Renouncing ownership will leave the contract without an owner, thereby removing any functionality that is only available to the owner."
      },
      "transferOwnership(address)": {
        "details": "Transfers ownership of the contract to a new account (`newOwner`). Can only be called by the current owner."
      }
    },
    "title": "Openluck LucksPaymentStrategy",
    "version": 1
  },
  "userdoc": {
    "kind": "user",
    "methods": {},
    "notice": "It is the contract for PaymentStrategy",
    "version": 1
  },
  "storageLayout": {
    "storage": [
      {
        "astId": 917,
        "contract": "contracts/lucks/LucksPaymentStrategy.sol:LucksPaymentStrategy",
        "label": "_owner",
        "offset": 0,
        "slot": "0",
        "type": "t_address"
      },
      {
        "astId": 15111,
        "contract": "contracts/lucks/LucksPaymentStrategy.sol:LucksPaymentStrategy",
        "label": "EXECUTOR",
        "offset": 0,
        "slot": "1",
        "type": "t_contract(ILucksExecutor)10554"
      },
      {
        "astId": 15114,
        "contract": "contracts/lucks/LucksPaymentStrategy.sol:LucksPaymentStrategy",
        "label": "GROUPS",
        "offset": 0,
        "slot": "2",
        "type": "t_contract(ILucksGroup)10608"
      }
    ],
    "types": {
      "t_address": {
        "encoding": "inplace",
        "label": "address",
        "numberOfBytes": "20"
      },
      "t_contract(ILucksExecutor)10554": {
        "encoding": "inplace",
        "label": "contract ILucksExecutor",
        "numberOfBytes": "20"
      },
      "t_contract(ILucksGroup)10608": {
        "encoding": "inplace",
        "label": "contract ILucksGroup",
        "numberOfBytes": "20"
      }
    }
  }
}