{
  "address": "0x7B3a23f69f5548E7eEFb57F613027c4252f52366",
  "abi": [
    {
      "inputs": [
        {
          "internalType": "address",
          "name": "_keeperRegAddr",
          "type": "address"
        },
        {
          "internalType": "contract ILucksExecutor",
          "name": "_executor",
          "type": "address"
        }
      ],
      "stateMutability": "nonpayable",
      "type": "constructor"
    },
    {
      "anonymous": false,
      "inputs": [
        {
          "indexed": false,
          "internalType": "uint256",
          "name": "amountAdded",
          "type": "uint256"
        },
        {
          "indexed": false,
          "internalType": "uint256",
          "name": "newBalance",
          "type": "uint256"
        },
        {
          "indexed": false,
          "internalType": "address",
          "name": "sender",
          "type": "address"
        }
      ],
      "name": "FundsAdded",
      "type": "event"
    },
    {
      "anonymous": false,
      "inputs": [
        {
          "indexed": false,
          "internalType": "uint256",
          "name": "amountWithdrawn",
          "type": "uint256"
        },
        {
          "indexed": false,
          "internalType": "address",
          "name": "payee",
          "type": "address"
        }
      ],
      "name": "FundsWithdrawn",
      "type": "event"
    },
    {
      "anonymous": false,
      "inputs": [
        {
          "indexed": false,
          "internalType": "address",
          "name": "oldAddress",
          "type": "address"
        },
        {
          "indexed": false,
          "internalType": "address",
          "name": "newAddress",
          "type": "address"
        }
      ],
      "name": "KeeperRegistryAddressUpdated",
      "type": "event"
    },
    {
      "anonymous": false,
      "inputs": [
        {
          "indexed": true,
          "internalType": "address",
          "name": "previousOwner",
          "type": "address"
        },
        {
          "indexed": true,
          "internalType": "address",
          "name": "newOwner",
          "type": "address"
        }
      ],
      "name": "OwnershipTransferred",
      "type": "event"
    },
    {
      "anonymous": false,
      "inputs": [
        {
          "indexed": false,
          "internalType": "address",
          "name": "account",
          "type": "address"
        }
      ],
      "name": "Paused",
      "type": "event"
    },
    {
      "anonymous": false,
      "inputs": [
        {
          "indexed": false,
          "internalType": "uint256",
          "name": "taskId",
          "type": "uint256"
        },
        {
          "indexed": false,
          "internalType": "string",
          "name": "reason",
          "type": "string"
        }
      ],
      "name": "RevertInvoke",
      "type": "event"
    },
    {
      "anonymous": false,
      "inputs": [
        {
          "indexed": false,
          "internalType": "address",
          "name": "account",
          "type": "address"
        }
      ],
      "name": "Unpaused",
      "type": "event"
    },
    {
      "inputs": [],
      "name": "BATCH_PERFORM_LIMIT",
      "outputs": [
        {
          "internalType": "uint256",
          "name": "",
          "type": "uint256"
        }
      ],
      "stateMutability": "view",
      "type": "function"
    },
    {
      "inputs": [],
      "name": "DST_GAS_AMOUNT",
      "outputs": [
        {
          "internalType": "uint256",
          "name": "",
          "type": "uint256"
        }
      ],
      "stateMutability": "view",
      "type": "function"
    },
    {
      "inputs": [],
      "name": "EXECUTOR",
      "outputs": [
        {
          "internalType": "contract ILucksExecutor",
          "name": "",
          "type": "address"
        }
      ],
      "stateMutability": "view",
      "type": "function"
    },
    {
      "inputs": [],
      "name": "KEEPER",
      "outputs": [
        {
          "internalType": "address",
          "name": "",
          "type": "address"
        }
      ],
      "stateMutability": "view",
      "type": "function"
    },
    {
      "inputs": [
        {
          "internalType": "uint256",
          "name": "taskId",
          "type": "uint256"
        },
        {
          "internalType": "uint256",
          "name": "endTime",
          "type": "uint256"
        }
      ],
      "name": "addTask",
      "outputs": [],
      "stateMutability": "nonpayable",
      "type": "function"
    },
    {
      "inputs": [
        {
          "internalType": "uint256[]",
          "name": "taskIds",
          "type": "uint256[]"
        },
        {
          "internalType": "uint256[]",
          "name": "endTimes",
          "type": "uint256[]"
        }
      ],
      "name": "addTasks",
      "outputs": [],
      "stateMutability": "nonpayable",
      "type": "function"
    },
    {
      "inputs": [
        {
          "internalType": "bytes",
          "name": "",
          "type": "bytes"
        }
      ],
      "name": "checkUpkeep",
      "outputs": [
        {
          "internalType": "bool",
          "name": "upkeepNeeded",
          "type": "bool"
        },
        {
          "internalType": "bytes",
          "name": "performData",
          "type": "bytes"
        }
      ],
      "stateMutability": "view",
      "type": "function"
    },
    {
      "inputs": [],
      "name": "first",
      "outputs": [
        {
          "internalType": "uint256",
          "name": "",
          "type": "uint256"
        }
      ],
      "stateMutability": "view",
      "type": "function"
    },
    {
      "inputs": [
        {
          "internalType": "uint256",
          "name": "taskId",
          "type": "uint256"
        }
      ],
      "name": "get",
      "outputs": [
        {
          "internalType": "uint256",
          "name": "",
          "type": "uint256"
        }
      ],
      "stateMutability": "view",
      "type": "function"
    },
    {
      "inputs": [],
      "name": "getQueueTasks",
      "outputs": [
        {
          "internalType": "uint256[]",
          "name": "",
          "type": "uint256[]"
        }
      ],
      "stateMutability": "view",
      "type": "function"
    },
    {
      "inputs": [],
      "name": "last",
      "outputs": [
        {
          "internalType": "uint256",
          "name": "",
          "type": "uint256"
        }
      ],
      "stateMutability": "view",
      "type": "function"
    },
    {
      "inputs": [
        {
          "internalType": "uint256",
          "name": "taskId",
          "type": "uint256"
        }
      ],
      "name": "next",
      "outputs": [
        {
          "internalType": "uint256",
          "name": "",
          "type": "uint256"
        }
      ],
      "stateMutability": "view",
      "type": "function"
    },
    {
      "inputs": [],
      "name": "owner",
      "outputs": [
        {
          "internalType": "address",
          "name": "",
          "type": "address"
        }
      ],
      "stateMutability": "view",
      "type": "function"
    },
    {
      "inputs": [],
      "name": "pause",
      "outputs": [],
      "stateMutability": "nonpayable",
      "type": "function"
    },
    {
      "inputs": [],
      "name": "paused",
      "outputs": [
        {
          "internalType": "bool",
          "name": "",
          "type": "bool"
        }
      ],
      "stateMutability": "view",
      "type": "function"
    },
    {
      "inputs": [
        {
          "internalType": "bytes",
          "name": "performData",
          "type": "bytes"
        }
      ],
      "name": "performUpkeep",
      "outputs": [],
      "stateMutability": "nonpayable",
      "type": "function"
    },
    {
      "inputs": [
        {
          "internalType": "uint256",
          "name": "taskId",
          "type": "uint256"
        }
      ],
      "name": "prev",
      "outputs": [
        {
          "internalType": "uint256",
          "name": "",
          "type": "uint256"
        }
      ],
      "stateMutability": "view",
      "type": "function"
    },
    {
      "inputs": [
        {
          "internalType": "uint256",
          "name": "taskId",
          "type": "uint256"
        }
      ],
      "name": "removeTask",
      "outputs": [],
      "stateMutability": "nonpayable",
      "type": "function"
    },
    {
      "inputs": [],
      "name": "renounceOwnership",
      "outputs": [],
      "stateMutability": "nonpayable",
      "type": "function"
    },
    {
      "inputs": [
        {
          "internalType": "uint256",
          "name": "num",
          "type": "uint256"
        }
      ],
      "name": "setBatchPerformLimist",
      "outputs": [],
      "stateMutability": "nonpayable",
      "type": "function"
    },
    {
      "inputs": [
        {
          "internalType": "uint256",
          "name": "amount",
          "type": "uint256"
        }
      ],
      "name": "setDstGasAmount",
      "outputs": [],
      "stateMutability": "nonpayable",
      "type": "function"
    },
    {
      "inputs": [
        {
          "internalType": "contract ILucksExecutor",
          "name": "_executor",
          "type": "address"
        }
      ],
      "name": "setExecutor",
      "outputs": [],
      "stateMutability": "nonpayable",
      "type": "function"
    },
    {
      "inputs": [
        {
          "internalType": "address",
          "name": "_keeperRegAddr",
          "type": "address"
        }
      ],
      "name": "setKeeper",
      "outputs": [],
      "stateMutability": "nonpayable",
      "type": "function"
    },
    {
      "inputs": [],
      "name": "size",
      "outputs": [
        {
          "internalType": "uint256",
          "name": "",
          "type": "uint256"
        }
      ],
      "stateMutability": "view",
      "type": "function"
    },
    {
      "inputs": [
        {
          "internalType": "uint256",
          "name": "num",
          "type": "uint256"
        }
      ],
      "name": "top",
      "outputs": [
        {
          "internalType": "uint256[]",
          "name": "",
          "type": "uint256[]"
        }
      ],
      "stateMutability": "view",
      "type": "function"
    },
    {
      "inputs": [
        {
          "internalType": "address",
          "name": "newOwner",
          "type": "address"
        }
      ],
      "name": "transferOwnership",
      "outputs": [],
      "stateMutability": "nonpayable",
      "type": "function"
    },
    {
      "inputs": [],
      "name": "unpause",
      "outputs": [],
      "stateMutability": "nonpayable",
      "type": "function"
    },
    {
      "inputs": [
        {
          "internalType": "uint256",
          "name": "amount",
          "type": "uint256"
        },
        {
          "internalType": "address payable",
          "name": "payee",
          "type": "address"
        }
      ],
      "name": "withdraw",
      "outputs": [],
      "stateMutability": "nonpayable",
      "type": "function"
    },
    {
      "stateMutability": "payable",
      "type": "receive"
    }
  ],
  "transactionHash": "0x25a0b6cf71c0f689b24f3c56ceeb83387effdf65af257042e30280958a9e1a66",
  "args": [
    "0x7b3EC232b08BD7b4b3305BE0C044D907B2DF960B",
    "0x897be0747988558c507aF3fd1e07d55c74EfadE8"
  ],
  "numDeployments": 1,
  "solcInputHash": "a366705d5343df8a750697e3fbefe33f",
  "bytecode": "0x60806040526005805560006006553480156200001a57600080fd5b5060405162001b8d38038062001b8d8339810160408190526200003d91620000dc565b81816200004a336200008c565b6000805460ff60a01b19169055600780546001600160a01b039384166001600160a01b0319918216179091556008805492909316911617905550620001349050565b600080546001600160a01b038381166001600160a01b0319831681178455604051919092169283917f8be0079c531659141344cd1fd0a4f28419497f9722a3daafe3b4186f6b6457e09190a35050565b60008060408385031215620000f057600080fd5b8251620000fd816200011b565b602084015190925062000110816200011b565b809150509250929050565b6001600160a01b03811681146200013157600080fd5b50565b611a4980620001446000396000f3fe6080604052600436106101b95760003560e01c8063715018a6116100ec578063aa0a31001161008a578063c81c6c7c11610064578063c81c6c7c1461051b578063d6ff17a014610530578063edd004e514610546578063f2fde38b1461056657600080fd5b8063aa0a3100146104c5578063b15269a5146104e5578063c3084117146104fb57600080fd5b8063862a179e116100c6578063862a179e146104425780638da5cb5b14610462578063949d225d146104805780639507d39a1461049557600080fd5b8063715018a6146103f8578063748747e61461040d5780638456cb591461042d57600080fd5b80633df4ddf41161015957806347799da81161013357806347799da8146103535780635c975abb14610368578063630dc7cb146103925780636e04ff0d146103ca57600080fd5b80633df4ddf4146103095780633f4ba83a1461031e5780634585e33b1461033357600080fd5b80631c3c0ea8116101955780631c3c0ea814610265578063257baa3a14610285578063313ae541146102a557806335671214146102db57600080fd5b8062b34ebd14610203578062f714ce146102255780630fbeb0321461024557600080fd5b366101fe5760408051348152476020820152338183015290517fc6f3fb0fec49e4877342d4625d77a632541f55b7aae0f9d0b34c69b3478706dc9181900360600190a1005b600080fd5b34801561020f57600080fd5b5061022361021e36600461176a565b610586565b005b34801561023157600080fd5b5061022361024036600461173a565b6105f3565b34801561025157600080fd5b50610223610260366004611721565b6106ac565b34801561027157600080fd5b50610223610280366004611556565b6106db565b34801561029157600080fd5b506102236102a03660046115b7565b610727565b3480156102b157600080fd5b506102c56102c0366004611721565b61085f565b6040516102d291906117b8565b60405180910390f35b3480156102e757600080fd5b506102fb6102f6366004611721565b610872565b6040519081526020016102d2565b34801561031557600080fd5b506102fb61087f565b34801561032a57600080fd5b50610223610890565b34801561033f57600080fd5b5061022361034e36600461161b565b6108c4565b34801561035f57600080fd5b506002546102fb565b34801561037457600080fd5b50600054600160a01b900460ff1660405190151581526020016102d2565b34801561039e57600080fd5b506008546103b2906001600160a01b031681565b6040516001600160a01b0390911681526020016102d2565b3480156103d657600080fd5b506103ea6103e536600461161b565b61096b565b6040516102d29291906117fc565b34801561040457600080fd5b506102236109d6565b34801561041957600080fd5b50610223610428366004611556565b610a0a565b34801561043957600080fd5b50610223610ab0565b34801561044e57600080fd5b506007546103b2906001600160a01b031681565b34801561046e57600080fd5b506000546001600160a01b03166103b2565b34801561048c57600080fd5b506001546102fb565b3480156104a157600080fd5b506102fb6104b0366004611721565b60009081526004602052604090206001015490565b3480156104d157600080fd5b506102236104e0366004611721565b610ae2565b3480156104f157600080fd5b506102fb60065481565b34801561050757600080fd5b50610223610516366004611721565b610b55565b34801561052757600080fd5b506102c5610ba0565b34801561053c57600080fd5b506102fb60055481565b34801561055257600080fd5b506102fb610561366004611721565b610c87565b34801561057257600080fd5b50610223610581366004611556565b610c9b565b6008546001600160a01b03163314806105a957506000546001600160a01b031633145b6105ce5760405162461bcd60e51b81526004016105c590611817565b60405180910390fd5b6000821180156105de5750600081115b156105ef576105ef60018383610d33565b5050565b6000546001600160a01b0316331461061d5760405162461bcd60e51b81526004016105c590611867565b6001600160a01b03811661063057600080fd5b604080518381526001600160a01b03831660208201527f6141b54b56b8a52a8c6f5cd2a857f6117b18ffbf4d46bd3106f300a839cbf5ea910160405180910390a16040516001600160a01b0382169083156108fc029084906000818181858888f193505050501580156106a7573d6000803e3d6000fd5b505050565b6000546001600160a01b031633146106d65760405162461bcd60e51b81526004016105c590611867565b600655565b6000546001600160a01b031633146107055760405162461bcd60e51b81526004016105c590611867565b600880546001600160a01b0319166001600160a01b0392909216919091179055565b6008546001600160a01b031633148061074a57506000546001600160a01b031633145b6107665760405162461bcd60e51b81526004016105c590611817565b60008251118015610778575080518251145b6107b25760405162461bcd60e51b815260206004820152600b60248201526a24b73b30b634b2103632b760a91b60448201526064016105c5565b60005b82518110156106a75760008382815181106107d2576107d26119d2565b6020026020010151118015610800575060008282815181106107f6576107f66119d2565b6020026020010151115b1561084d5761084d83828151811061081a5761081a6119d2565b6020026020010151838381518110610834576108346119d2565b60200260200101516001610d339092919063ffffffff16565b80610857816119a1565b9150506107b5565b606061086c600183610e40565b92915050565b600061086c600183610f23565b600061088b6001610f57565b905090565b6000546001600160a01b031633146108ba5760405162461bcd60e51b81526004016105c590611867565b6108c2610f6d565b565b600054600160a01b900460ff16156108ee5760405162461bcd60e51b81526004016105c59061183d565b6007546001600160a01b031633148061091157506000546001600160a01b031633145b6109525760405162461bcd60e51b81526020600482015260126024820152716f6e6c794b6565706572526567697374727960701b60448201526064016105c5565b60006109608284018461157a565b90506106a78161100a565b60008054606090600160a01b900460ff16156109995760405162461bcd60e51b81526004016105c59061183d565b60006109a3610ba0565b905060008151119250806040516020016109bd91906117b8565b6040516020818303038152906040529150509250929050565b6000546001600160a01b03163314610a005760405162461bcd60e51b81526004016105c590611867565b6108c26000611180565b6000546001600160a01b03163314610a345760405162461bcd60e51b81526004016105c590611867565b6001600160a01b038116610a4757600080fd5b600754604080516001600160a01b03928316815291831660208301527fb732223055abcde751d7a24272ffc8a3aa571cb72b443969a4199b7ecd59f8b9910160405180910390a1600780546001600160a01b0319166001600160a01b0392909216919091179055565b6000546001600160a01b03163314610ada5760405162461bcd60e51b81526004016105c590611867565b6108c26111d0565b6000546001600160a01b03163314610b0c5760405162461bcd60e51b81526004016105c590611867565b60008111610b505760405162461bcd60e51b8152602060048201526011602482015270496e76616c6964206c696d6974206e756d60781b60448201526064016105c5565b600555565b6008546001600160a01b0316331480610b7857506000546001600160a01b031633145b610b945760405162461bcd60e51b81526004016105c590611817565b610b9d81611235565b50565b6060600060055467ffffffffffffffff811115610bbf57610bbf6119e8565b604051908082528060200260200182016040528015610be8578160200160208202803683370190505b509050600080610bf86001610f57565b90505b600081118015610c0c575060055482105b15610c72576000818152600460205260409020600101544210610c595780838381518110610c3c57610c3c6119d2565b602090810291909101015281610c51816119a1565b925050610c5e565b610c72565b600090815260036020526040902054610bfb565b6005548214610c7f578183525b509092915050565b60008181526003602052604081205461086c565b6000546001600160a01b03163314610cc55760405162461bcd60e51b81526004016105c590611867565b6001600160a01b038116610d2a5760405162461bcd60e51b815260206004820152602660248201527f4f776e61626c653a206e6577206f776e657220697320746865207a65726f206160448201526564647265737360d01b60648201526084016105c5565b610b9d81611180565b60008211610d745760405162461bcd60e51b815260206004820152600e60248201526d072657175697265206964203e20360941b60448201526064016105c5565b600082815260038401602052604090206001015415610d9257505050565b6000610d9e8483611240565b600081815260028681016020908152604080842080549089905588855281852081905581516060810183528981528084018981528184018881528b885260038d019095529290952094518555905160018501559051929091019190915590915080610e0f5760018501849055610e26565b600081815260038601602052604090206002018490555b8454856000610e34836119a1565b91905055505050505050565b8154606090821115610e5157825491505b6001821015610e6f575060408051600081526020810190915261086c565b60008267ffffffffffffffff811115610e8a57610e8a6119e8565b604051908082528060200260200182016040528015610eb3578160200160208202803683370190505b5090506000610ec185610f57565b905060005b84811015610f19578115610ef45781838281518110610ee757610ee76119d2565b6020026020010181815250505b6000828152600287016020526040902054915080610f11816119a1565b915050610ec6565b5090949350505050565b6000610f2f83836113c2565b15610f4e5750600081815260038301602052604090206002015461086c565b50600092915050565b600080805260028201602052604081205461086c565b600054600160a01b900460ff16610fbd5760405162461bcd60e51b815260206004820152601460248201527314185d5cd8589b194e881b9bdd081c185d5cd95960621b60448201526064016105c5565b6000805460ff60a01b191690557f5db9ee0a495bf2e6ff9c91a7834c1ba4fdd244a5e8aa4e537bd38aeae4b073aa335b6040516001600160a01b03909116815260200160405180910390a1565b6000604051806080016040528060065481526020016000815260200160405180604001604052806002815260200161060f60f31b815250815260200160405180604001604052806002815260200161060f60f31b815250815250905060005b82518110156106a7576000838281518110611086576110866119d2565b6020026020010151905061109981611235565b60085460405163779691bb60e11b81526001600160a01b039091169063ef2d2376906110cb90849087906004016118b5565b600060405180830381600087803b1580156110e557600080fd5b505af19250505080156110f6575060015b61116d573d808015611124576040519150601f19603f3d011682016040523d82523d6000602084013e611129565b606091505b507f8a8daba70101a3ef953fcbe396dcf4370b8204bff0f421bdeaac9867e8fcfe0482611155836113ec565b60405161116392919061189c565b60405180910390a1505b5080611178816119a1565b915050611069565b600080546001600160a01b038381166001600160a01b0319831681178455604051919092169283917f8be0079c531659141344cd1fd0a4f28419497f9722a3daafe3b4186f6b6457e09190a35050565b600054600160a01b900460ff16156111fa5760405162461bcd60e51b81526004016105c59061183d565b6000805460ff60a01b1916600160a01b1790557f62e78cea01bee320cd4e420270b5ea74000d11b0c9f74754ebdbfc544b05a258610fed3390565b610b9d600182611426565b60008082116112865760405162461bcd60e51b815260206004820152601260248201527107265717569726520746172676574203e20360741b60448201526064016105c5565b82546112945750600061086c565b60018084015460008181526003860160205260409020909101548084106112bd5750905061086c565b60006112c886610f57565b60008181526003880160205260409020600101549091508086116112f357600094505050505061086c565b600060016113018584611942565b901c905080871061136057845b801561135a5761131e8982610f23565b90506000811180156113435750600081815260038a0160205260409020600101548810155b1561135557955061086c945050505050565b61130e565b506113b4565b825b80156113b2576000908152600289016020526040902054801580159061139b5750600081815260038a0160205260409020600101548810155b156113ad57955061086c945050505050565b611362565b505b506000979650505050505050565b60008082116113d057600080fd5b5060009081526003919091016020526040902060010154151590565b606060448251101561140c57505060408051602081019091526000815290565b6004820191508180602001905181019061086c919061168d565b61143082826113c2565b156105ef5760006114418383610f23565b6000838152600285016020526040808220548383529120819055909150801561147b57600081815260038501602052604090206002018290555b8061148857600184018290555b600083815260038501602090815260408083208381556001810184905560029081018490558701909152812081905584549085906114c58361198a565b919050555050505050565b600082601f8301126114e157600080fd5b8135602067ffffffffffffffff8211156114fd576114fd6119e8565b8160051b61150c828201611911565b83815282810190868401838801850189101561152757600080fd5b600093505b8584101561154a57803583526001939093019291840191840161152c565b50979650505050505050565b60006020828403121561156857600080fd5b8135611573816119fe565b9392505050565b60006020828403121561158c57600080fd5b813567ffffffffffffffff8111156115a357600080fd5b6115af848285016114d0565b949350505050565b600080604083850312156115ca57600080fd5b823567ffffffffffffffff808211156115e257600080fd5b6115ee868387016114d0565b9350602085013591508082111561160457600080fd5b50611611858286016114d0565b9150509250929050565b6000806020838503121561162e57600080fd5b823567ffffffffffffffff8082111561164657600080fd5b818501915085601f83011261165a57600080fd5b81358181111561166957600080fd5b86602082850101111561167b57600080fd5b60209290920196919550909350505050565b60006020828403121561169f57600080fd5b815167ffffffffffffffff808211156116b757600080fd5b818401915084601f8301126116cb57600080fd5b8151818111156116dd576116dd6119e8565b6116f0601f8201601f1916602001611911565b915080825285602082850101111561170757600080fd5b61171881602084016020860161195a565b50949350505050565b60006020828403121561173357600080fd5b5035919050565b6000806040838503121561174d57600080fd5b82359150602083013561175f816119fe565b809150509250929050565b6000806040838503121561177d57600080fd5b50508035926020909101359150565b600081518084526117a481602086016020860161195a565b601f01601f19169290920160200192915050565b6020808252825182820181905260009190848201906040850190845b818110156117f0578351835292840192918401916001016117d4565b50909695505050505050565b82151581526040602082015260006115af604083018461178c565b6020808252600c908201526b37b7363ca2bc32b1baba37b960a11b604082015260600190565b60208082526010908201526f14185d5cd8589b194e881c185d5cd95960821b604082015260600190565b6020808252818101527f4f776e61626c653a2063616c6c6572206973206e6f7420746865206f776e6572604082015260600190565b8281526040602082015260006115af604083018461178c565b828152604060208201528151604082015260208201516060820152600060408301516080808401526118ea60c084018261178c565b90506060840151603f198483030160a0850152611907828261178c565b9695505050505050565b604051601f8201601f1916810167ffffffffffffffff8111828210171561193a5761193a6119e8565b604052919050565b60008219821115611955576119556119bc565b500190565b60005b8381101561197557818101518382015260200161195d565b83811115611984576000848401525b50505050565b600081611999576119996119bc565b506000190190565b60006000198214156119b5576119b56119bc565b5060010190565b634e487b7160e01b600052601160045260246000fd5b634e487b7160e01b600052603260045260246000fd5b634e487b7160e01b600052604160045260246000fd5b6001600160a01b0381168114610b9d57600080fdfea2646970667358221220718fb1520da8ac836becb2b74f5e4cd9d060534a4e8156d9178f133cc15fd14864736f6c63430008060033",
  "devdoc": {
    "kind": "dev",
    "methods": {
      "constructor": {
        "params": {
          "_executor": "The LucksExecutor contract",
          "_keeperRegAddr": "The address of the keeper registry contract"
        }
      },
      "owner()": {
        "details": "Returns the address of the current owner."
      },
      "paused()": {
        "details": "Returns true if the contract is paused, and false otherwise."
      },
      "performUpkeep(bytes)": {
        "details": "The input to this method should not be trusted, and the caller of the method should not even be restricted to any single registry. Anyone should be able call it, and the input should be validated, there is no guarantee that the data passed in is the performData returned from checkUpkeep. This could happen due to malicious keepers, racing keepers, or simply a state change while the performUpkeep transaction is waiting for confirmation. Always validate the data passed in.",
        "params": {
          "performData": "is the data which was passed back from the checkData simulation. If it is encoded, it can easily be decoded into other types by calling `abi.decode`. This data should not be trusted, and should be validated against the contract's current state."
        }
      },
      "renounceOwnership()": {
        "details": "Leaves the contract without owner. It will not be possible to call `onlyOwner` functions anymore. Can only be called by the current owner. NOTE: Renouncing ownership will leave the contract without an owner, thereby removing any functionality that is only available to the owner."
      },
      "transferOwnership(address)": {
        "details": "Transfers ownership of the contract to a new account (`newOwner`). Can only be called by the current owner."
      },
      "withdraw(uint256,address)": {
        "params": {
          "amount": "The amount of eth (in wei) to withdraw",
          "payee": "The address to pay"
        }
      }
    },
    "version": 1
  },
  "userdoc": {
    "kind": "user",
    "methods": {
      "pause()": {
        "notice": "Pauses the contrac t, which prevents executing performUpkeep"
      },
      "performUpkeep(bytes)": {
        "notice": "method that is actually executed by the keepers, via the registry. The data returned by the checkUpkeep simulation will be passed into this method to actually be executed."
      },
      "setExecutor(address)": {
        "notice": "set operator"
      },
      "setKeeper(address)": {
        "notice": "Sets the keeper registry address"
      },
      "unpause()": {
        "notice": "Unpauses the contract"
      },
      "withdraw(uint256,address)": {
        "notice": "Withdraws the contract balance"
      }
    },
    "version": 1
  },
  "storageLayout": {
    "storage": [
      {
        "astId": 917,
        "contract": "contracts/lucks/LucksAutoCloseTask.sol:LucksAutoCloseTask",
        "label": "_owner",
        "offset": 0,
        "slot": "0",
        "type": "t_address"
      },
      {
        "astId": 1032,
        "contract": "contracts/lucks/LucksAutoCloseTask.sol:LucksAutoCloseTask",
        "label": "_paused",
        "offset": 20,
        "slot": "0",
        "type": "t_bool"
      },
      {
        "astId": 12951,
        "contract": "contracts/lucks/LucksAutoCloseTask.sol:LucksAutoCloseTask",
        "label": "taskList",
        "offset": 0,
        "slot": "1",
        "type": "t_struct(SortedMap)11957_storage"
      },
      {
        "astId": 12954,
        "contract": "contracts/lucks/LucksAutoCloseTask.sol:LucksAutoCloseTask",
        "label": "BATCH_PERFORM_LIMIT",
        "offset": 0,
        "slot": "5",
        "type": "t_uint256"
      },
      {
        "astId": 12957,
        "contract": "contracts/lucks/LucksAutoCloseTask.sol:LucksAutoCloseTask",
        "label": "DST_GAS_AMOUNT",
        "offset": 0,
        "slot": "6",
        "type": "t_uint256"
      },
      {
        "astId": 12959,
        "contract": "contracts/lucks/LucksAutoCloseTask.sol:LucksAutoCloseTask",
        "label": "KEEPER",
        "offset": 0,
        "slot": "7",
        "type": "t_address"
      },
      {
        "astId": 12962,
        "contract": "contracts/lucks/LucksAutoCloseTask.sol:LucksAutoCloseTask",
        "label": "EXECUTOR",
        "offset": 0,
        "slot": "8",
        "type": "t_contract(ILucksExecutor)10554"
      }
    ],
    "types": {
      "t_address": {
        "encoding": "inplace",
        "label": "address",
        "numberOfBytes": "20"
      },
      "t_bool": {
        "encoding": "inplace",
        "label": "bool",
        "numberOfBytes": "1"
      },
      "t_contract(ILucksExecutor)10554": {
        "encoding": "inplace",
        "label": "contract ILucksExecutor",
        "numberOfBytes": "20"
      },
      "t_mapping(t_uint256,t_struct(Item)11937_storage)": {
        "encoding": "mapping",
        "key": "t_uint256",
        "label": "mapping(uint256 => struct SortedLinkMap.Item)",
        "numberOfBytes": "32",
        "value": "t_struct(Item)11937_storage"
      },
      "t_mapping(t_uint256,t_uint256)": {
        "encoding": "mapping",
        "key": "t_uint256",
        "label": "mapping(uint256 => uint256)",
        "numberOfBytes": "32",
        "value": "t_uint256"
      },
      "t_struct(Item)11937_storage": {
        "encoding": "inplace",
        "label": "struct SortedLinkMap.Item",
        "members": [
          {
            "astId": 11932,
            "contract": "contracts/lucks/LucksAutoCloseTask.sol:LucksAutoCloseTask",
            "label": "id",
            "offset": 0,
            "slot": "0",
            "type": "t_uint256"
          },
          {
            "astId": 11934,
            "contract": "contracts/lucks/LucksAutoCloseTask.sol:LucksAutoCloseTask",
            "label": "value",
            "offset": 0,
            "slot": "1",
            "type": "t_uint256"
          },
          {
            "astId": 11936,
            "contract": "contracts/lucks/LucksAutoCloseTask.sol:LucksAutoCloseTask",
            "label": "leftId",
            "offset": 0,
            "slot": "2",
            "type": "t_uint256"
          }
        ],
        "numberOfBytes": "96"
      },
      "t_struct(SortedMap)11957_storage": {
        "encoding": "inplace",
        "label": "struct SortedLinkMap.SortedMap",
        "members": [
          {
            "astId": 11945,
            "contract": "contracts/lucks/LucksAutoCloseTask.sol:LucksAutoCloseTask",
            "label": "count",
            "offset": 0,
            "slot": "0",
            "type": "t_uint256"
          },
          {
            "astId": 11947,
            "contract": "contracts/lucks/LucksAutoCloseTask.sol:LucksAutoCloseTask",
            "label": "maxId",
            "offset": 0,
            "slot": "1",
            "type": "t_uint256"
          },
          {
            "astId": 11951,
            "contract": "contracts/lucks/LucksAutoCloseTask.sol:LucksAutoCloseTask",
            "label": "keys",
            "offset": 0,
            "slot": "2",
            "type": "t_mapping(t_uint256,t_uint256)"
          },
          {
            "astId": 11956,
            "contract": "contracts/lucks/LucksAutoCloseTask.sol:LucksAutoCloseTask",
            "label": "nodes",
            "offset": 0,
            "slot": "3",
            "type": "t_mapping(t_uint256,t_struct(Item)11937_storage)"
          }
        ],
        "numberOfBytes": "128"
      },
      "t_uint256": {
        "encoding": "inplace",
        "label": "uint256",
        "numberOfBytes": "32"
      }
    }
  }
}