{
  "address": "0x91a1D49B7306EB2e16C81DB9E64BD53dFaba8834",
  "abi": [
    {
      "inputs": [
        {
          "internalType": "uint64",
          "name": "_subscriptionId",
          "type": "uint64"
        },
        {
          "internalType": "address",
          "name": "_vrfCoordinator",
          "type": "address"
        },
        {
          "internalType": "address",
          "name": "_link",
          "type": "address"
        },
        {
          "internalType": "bytes32",
          "name": "_keyHash",
          "type": "bytes32"
        },
        {
          "internalType": "address",
          "name": "_executor",
          "type": "address"
        }
      ],
      "stateMutability": "nonpayable",
      "type": "constructor"
    },
    {
      "inputs": [
        {
          "internalType": "address",
          "name": "have",
          "type": "address"
        },
        {
          "internalType": "address",
          "name": "want",
          "type": "address"
        }
      ],
      "name": "OnlyCoordinatorCanFulfill",
      "type": "error"
    },
    {
      "anonymous": false,
      "inputs": [
        {
          "indexed": true,
          "internalType": "address",
          "name": "previousOwner",
          "type": "address"
        },
        {
          "indexed": true,
          "internalType": "address",
          "name": "newOwner",
          "type": "address"
        }
      ],
      "name": "OwnershipTransferred",
      "type": "event"
    },
    {
      "anonymous": false,
      "inputs": [
        {
          "indexed": false,
          "internalType": "uint256",
          "name": "taskId",
          "type": "uint256"
        },
        {
          "indexed": false,
          "internalType": "uint256",
          "name": "max",
          "type": "uint256"
        },
        {
          "indexed": false,
          "internalType": "uint256",
          "name": "requestId",
          "type": "uint256"
        }
      ],
      "name": "ReqRandomNumber",
      "type": "event"
    },
    {
      "anonymous": false,
      "inputs": [
        {
          "indexed": false,
          "internalType": "uint256",
          "name": "taskId",
          "type": "uint256"
        },
        {
          "indexed": false,
          "internalType": "uint256",
          "name": "requestId",
          "type": "uint256"
        },
        {
          "indexed": false,
          "internalType": "uint256",
          "name": "randomness",
          "type": "uint256"
        },
        {
          "indexed": false,
          "internalType": "uint32",
          "name": "number",
          "type": "uint32"
        }
      ],
      "name": "RspRandomNumber",
      "type": "event"
    },
    {
      "inputs": [],
      "name": "EXECUTOR",
      "outputs": [
        {
          "internalType": "address",
          "name": "",
          "type": "address"
        }
      ],
      "stateMutability": "view",
      "type": "function"
    },
    {
      "inputs": [],
      "name": "callbackGasLimit",
      "outputs": [
        {
          "internalType": "uint32",
          "name": "",
          "type": "uint32"
        }
      ],
      "stateMutability": "view",
      "type": "function"
    },
    {
      "inputs": [
        {
          "internalType": "uint256",
          "name": "taskId",
          "type": "uint256"
        },
        {
          "internalType": "uint256",
          "name": "seed",
          "type": "uint256"
        }
      ],
      "name": "callbackRandomWords",
      "outputs": [],
      "stateMutability": "nonpayable",
      "type": "function"
    },
    {
      "inputs": [],
      "name": "keyHash",
      "outputs": [
        {
          "internalType": "bytes32",
          "name": "",
          "type": "bytes32"
        }
      ],
      "stateMutability": "view",
      "type": "function"
    },
    {
      "inputs": [],
      "name": "link",
      "outputs": [
        {
          "internalType": "address",
          "name": "",
          "type": "address"
        }
      ],
      "stateMutability": "view",
      "type": "function"
    },
    {
      "inputs": [],
      "name": "owner",
      "outputs": [
        {
          "internalType": "address",
          "name": "",
          "type": "address"
        }
      ],
      "stateMutability": "view",
      "type": "function"
    },
    {
      "inputs": [
        {
          "internalType": "uint256",
          "name": "",
          "type": "uint256"
        }
      ],
      "name": "randomResults",
      "outputs": [
        {
          "internalType": "uint32",
          "name": "",
          "type": "uint32"
        }
      ],
      "stateMutability": "view",
      "type": "function"
    },
    {
      "inputs": [
        {
          "internalType": "uint256",
          "name": "requestId",
          "type": "uint256"
        },
        {
          "internalType": "uint256[]",
          "name": "randomWords",
          "type": "uint256[]"
        }
      ],
      "name": "rawFulfillRandomWords",
      "outputs": [],
      "stateMutability": "nonpayable",
      "type": "function"
    },
    {
      "inputs": [],
      "name": "renounceOwnership",
      "outputs": [],
      "stateMutability": "nonpayable",
      "type": "function"
    },
    {
      "inputs": [
        {
          "internalType": "uint256",
          "name": "taskId",
          "type": "uint256"
        },
        {
          "internalType": "uint256",
          "name": "max",
          "type": "uint256"
        }
      ],
      "name": "reqRandomNumber",
      "outputs": [],
      "stateMutability": "nonpayable",
      "type": "function"
    },
    {
      "inputs": [
        {
          "internalType": "uint256",
          "name": "",
          "type": "uint256"
        }
      ],
      "name": "requestToMaxNum",
      "outputs": [
        {
          "internalType": "uint256",
          "name": "",
          "type": "uint256"
        }
      ],
      "stateMutability": "view",
      "type": "function"
    },
    {
      "inputs": [
        {
          "internalType": "uint256",
          "name": "",
          "type": "uint256"
        }
      ],
      "name": "requestToTaskId",
      "outputs": [
        {
          "internalType": "uint256",
          "name": "",
          "type": "uint256"
        }
      ],
      "stateMutability": "view",
      "type": "function"
    },
    {
      "inputs": [
        {
          "internalType": "address",
          "name": "_executor",
          "type": "address"
        }
      ],
      "name": "setExecutor",
      "outputs": [],
      "stateMutability": "nonpayable",
      "type": "function"
    },
    {
      "inputs": [
        {
          "internalType": "bytes32",
          "name": "_keyHash",
          "type": "bytes32"
        }
      ],
      "name": "setKeyHash",
      "outputs": [],
      "stateMutability": "nonpayable",
      "type": "function"
    },
    {
      "inputs": [
        {
          "internalType": "uint16",
          "name": "num",
          "type": "uint16"
        }
      ],
      "name": "setReqConfirmations",
      "outputs": [],
      "stateMutability": "nonpayable",
      "type": "function"
    },
    {
      "inputs": [
        {
          "internalType": "uint256",
          "name": "",
          "type": "uint256"
        }
      ],
      "name": "taskToRequestId",
      "outputs": [
        {
          "internalType": "uint256",
          "name": "",
          "type": "uint256"
        }
      ],
      "stateMutability": "view",
      "type": "function"
    },
    {
      "inputs": [
        {
          "internalType": "address",
          "name": "newOwner",
          "type": "address"
        }
      ],
      "name": "transferOwnership",
      "outputs": [],
      "stateMutability": "nonpayable",
      "type": "function"
    },
    {
      "inputs": [
        {
          "internalType": "uint256",
          "name": "taskId",
          "type": "uint256"
        }
      ],
      "name": "viewRandomResult",
      "outputs": [
        {
          "internalType": "uint32",
          "name": "",
          "type": "uint32"
        }
      ],
      "stateMutability": "view",
      "type": "function"
    },
    {
      "inputs": [],
      "name": "vrfCoordinator",
      "outputs": [
        {
          "internalType": "address",
          "name": "",
          "type": "address"
        }
      ],
      "stateMutability": "view",
      "type": "function"
    }
  ],
  "transactionHash": "0xeea0740d3b1393bff703d0901f8b0de873dcff318e2ddcbbbf856c4bc0dbfb1c",
  "args": [
    1226,
    "0x7a1BaC17Ccc5b313516C5E16fb24f7659aA5ebed",
    "0x326C977E6efc84E512bB9C30f76E30c160eD06FB",
    "0x4b09e658ed251bcafeebbc69400383d49f344ace09b9576fe248bb02c003fe9f",
    "0x897be0747988558c507aF3fd1e07d55c74EfadE8"
  ],
  "numDeployments": 1,
  "solcInputHash": "ba7b0f1e5ca42b8642fc7cfca7a1e343",
  "bytecode": "0x60a06040526006805465ffffffffffff19166403000186a017905534801561002657600080fd5b50604051610ef7380380610ef7833981016040819052610045916101c1565b606084901b6001600160601b03191660805261006033610155565b6000856001600160401b0316116100bd5760405162461bcd60e51b815260206004820152601660248201527f496e76616c696420737562736372697074696f6e496400000000000000000000604482015260640160405180910390fd5b60028054600380546001600160a01b039788166001600160a01b03199182168117909255600480549789169782168817905560059590955560018054861690911790556001600160401b03909616600160a01b02929092166001600160e01b03199095169490941790911790556006805492909116660100000000000002600160301b600160d01b031990921691909117905561022d565b600080546001600160a01b038381166001600160a01b0319831681178455604051919092169283917f8be0079c531659141344cd1fd0a4f28419497f9722a3daafe3b4186f6b6457e09190a35050565b80516001600160a01b03811681146101bc57600080fd5b919050565b600080600080600060a086880312156101d957600080fd5b85516001600160401b03811681146101f057600080fd5b94506101fe602087016101a5565b935061020c604087016101a5565b925060608601519150610221608087016101a5565b90509295509295909350565b60805160601c610ca5610252600039600081816106bb01526106fd0152610ca56000f3fe608060405234801561001057600080fd5b50600436106101215760003560e01c806351312afe116100ad5780639854471011610071578063985447101461029f578063a3e56fa8146102b2578063bcadffd0146102c5578063f2fde38b146102d8578063f9a5d00d146102eb57600080fd5b806351312afe1461024357806361728f3914610263578063630dc7cb1461026c578063715018a6146102865780638da5cb5b1461028e57600080fd5b80631fe543e3116100f45780631fe543e314610191578063219be114146101a457806324f74697146101df5780632fa2cb4e146101ef578063463fb8c61461021d57600080fd5b806319c01989146101265780631bc5f5071461013b5780631c3c0ea81461014e5780631c4695f414610161575b600080fd5b610139610134366004610b66565b61030b565b005b610139610149366004610b66565b610507565b61013961015c366004610a0f565b610657565b600454610174906001600160a01b031681565b6040516001600160a01b0390911681526020015b60405180910390f35b61013961019f366004610a95565b6106b0565b6101ca6101b2366004610a3f565b60076020526000908152604090205463ffffffff1681565b60405163ffffffff9091168152602001610188565b6006546101ca9063ffffffff1681565b61020f6101fd366004610a3f565b600a6020526000908152604090205481565b604051908152602001610188565b6101ca61022b366004610a3f565b60009081526007602052604090205463ffffffff1690565b61020f610251366004610a3f565b60086020526000908152604090205481565b61020f60055481565b60065461017490600160301b90046001600160a01b031681565b610139610738565b6000546001600160a01b0316610174565b6101396102ad366004610a3f565b61076e565b600354610174906001600160a01b031681565b6101396102d3366004610a58565b61079d565b6101396102e6366004610a0f565b6107eb565b61020f6102f9366004610a3f565b60096020526000908152604090205481565b600654600160301b90046001600160a01b031633146103715760405162461bcd60e51b815260206004820152601e60248201527f4f6e6c79204c75636b732063616e2072657152616e646f6d4e756d626572000060448201526064015b60405180910390fd5b600081116103b55760405162461bcd60e51b8152602060048201526011602482015270125b9d985b1a59081b585e081a5b9c1d5d607a1b6044820152606401610368565b6000828152600a6020526040902054156103cd575050565b600180546005546002546006546040516305d3b1d360e41b81526004810193909352600160a01b90910467ffffffffffffffff166024830152640100000000810461ffff16604483015263ffffffff16606482015260848101929092526000916001600160a01b0390911690635d3b1d309060a401602060405180830381600087803b15801561045c57600080fd5b505af1158015610470573d6000803e3d6000fd5b505050506040513d601f19601f820116820180604052508101906104949190610a7c565b600081815260086020908152604080832087905560098252808320869055868352600a82529182902083905581518681529081018590529081018290529091507f3f13685560bd8b2517f69ad10b1e2367cc13dc8df09b982ad90e1119c6337c9f906060015b60405180910390a1505050565b6000546001600160a01b031633146105315760405162461bcd60e51b815260040161036890610b88565b6000828152600a602052604081205460065490919061055c90640100000000900461ffff1643610bf4565b4043446105694287610bd5565b6105739190610bd5565b61057d9190610bd5565b6105879190610bd5565b60405160200161059991815260200190565b60408051601f198184030181529181528151602092830120600085815260099093529120549091506105cb9082610c0b565b6105d6906001610bbd565b6000858152600760208181526040808420805463ffffffff191663ffffffff96909616958617905560088252928390205491815282518881529081019190915290810183905260608101919091527f80bb76aef7e4ff2d1394b73868c9a3d09c1dddeff2c0c0c1d2567da7f4cd787e9060800160405180910390a150505050565b6000546001600160a01b031633146106815760405162461bcd60e51b815260040161036890610b88565b600680546001600160a01b03909216600160301b026601000000000000600160d01b0319909216919091179055565b336001600160a01b037f0000000000000000000000000000000000000000000000000000000000000000161461072a5760405163073e64fd60e21b81523360048201526001600160a01b037f0000000000000000000000000000000000000000000000000000000000000000166024820152604401610368565b6107348282610886565b5050565b6000546001600160a01b031633146107625760405162461bcd60e51b815260040161036890610b88565b61076c60006109bf565b565b6000546001600160a01b031633146107985760405162461bcd60e51b815260040161036890610b88565b600555565b6000546001600160a01b031633146107c75760405162461bcd60e51b815260040161036890610b88565b6006805461ffff9092166401000000000265ffff0000000019909216919091179055565b6000546001600160a01b031633146108155760405162461bcd60e51b815260040161036890610b88565b6001600160a01b03811661087a5760405162461bcd60e51b815260206004820152602660248201527f4f776e61626c653a206e6577206f776e657220697320746865207a65726f206160448201526564647265737360d01b6064820152608401610368565b610883816109bf565b50565b600082815260086020526040902054806108e25760405162461bcd60e51b815260206004820152601960248201527f57726f6e67207461736b4964206f7220726571756573744964000000000000006044820152606401610368565b60008381526009602052604081205483519091849161090357610903610c43565b60200260200101516109159190610c0b565b610920906001610bbd565b6000828152600760205260408120805463ffffffff191663ffffffff939093169290921790915582517f80bb76aef7e4ff2d1394b73868c9a3d09c1dddeff2c0c0c1d2567da7f4cd787e9183918691869161097d5761097d610c43565b602090810291909101810151600086815260078352604090819020548151958652928501939093529183019190915263ffffffff1660608201526080016104fa565b600080546001600160a01b038381166001600160a01b0319831681178455604051919092169283917f8be0079c531659141344cd1fd0a4f28419497f9722a3daafe3b4186f6b6457e09190a35050565b600060208284031215610a2157600080fd5b81356001600160a01b0381168114610a3857600080fd5b9392505050565b600060208284031215610a5157600080fd5b5035919050565b600060208284031215610a6a57600080fd5b813561ffff81168114610a3857600080fd5b600060208284031215610a8e57600080fd5b5051919050565b60008060408385031215610aa857600080fd5b8235915060208084013567ffffffffffffffff80821115610ac857600080fd5b818601915086601f830112610adc57600080fd5b813581811115610aee57610aee610c59565b8060051b604051601f19603f83011681018181108582111715610b1357610b13610c59565b604052828152858101935084860182860187018b1015610b3257600080fd5b600095505b83861015610b55578035855260019590950194938601938601610b37565b508096505050505050509250929050565b60008060408385031215610b7957600080fd5b50508035926020909101359150565b6020808252818101527f4f776e61626c653a2063616c6c6572206973206e6f7420746865206f776e6572604082015260600190565b60008219821115610bd057610bd0610c2d565b500190565b6000816000190483118215151615610bef57610bef610c2d565b500290565b600082821015610c0657610c06610c2d565b500390565b600082610c2857634e487b7160e01b600052601260045260246000fd5b500690565b634e487b7160e01b600052601160045260246000fd5b634e487b7160e01b600052603260045260246000fd5b634e487b7160e01b600052604160045260246000fdfea2646970667358221220910b3ae7a7416a496027330da26fee1fd68147af18451787c7a6fb45170cee1564736f6c63430008060033",
  "devdoc": {
    "kind": "dev",
    "methods": {
      "owner()": {
        "details": "Returns the address of the current owner."
      },
      "renounceOwnership()": {
        "details": "Leaves the contract without owner. It will not be possible to call `onlyOwner` functions anymore. Can only be called by the current owner. NOTE: Renouncing ownership will leave the contract without an owner, thereby removing any functionality that is only available to the owner."
      },
      "reqRandomNumber(uint256,uint256)": {
        "params": {
          "max": ": max provided by the LucksExecutor (lastTicketId)"
        }
      },
      "setExecutor(address)": {
        "params": {
          "_executor": ": address of the PancakeSwap crowdluck"
        }
      },
      "setKeyHash(bytes32)": {
        "params": {
          "_keyHash": ": new keyHash"
        }
      },
      "setReqConfirmations(uint16)": {
        "params": {
          "num": ": num"
        }
      },
      "transferOwnership(address)": {
        "details": "Transfers ownership of the contract to a new account (`newOwner`). Can only be called by the current owner."
      }
    },
    "title": "Openluck VRF",
    "version": 1
  },
  "userdoc": {
    "kind": "user",
    "methods": {
      "callbackRandomWords(uint256,uint256)": {
        "notice": "Callback for enmergency case"
      },
      "reqRandomNumber(uint256,uint256)": {
        "notice": "Request randomness from a user-provided max"
      },
      "setExecutor(address)": {
        "notice": "Set the address for the Lucks"
      },
      "setKeyHash(bytes32)": {
        "notice": "Change the keyHash"
      },
      "setReqConfirmations(uint16)": {
        "notice": "Change the requestConfirmations"
      },
      "viewRandomResult(uint256)": {
        "notice": "View random result"
      }
    },
    "notice": "It is the contract for Randomness Number Generation",
    "version": 1
  },
  "storageLayout": {
    "storage": [
      {
        "astId": 917,
        "contract": "contracts/lucks/LucksVRF.sol:LucksVRF",
        "label": "_owner",
        "offset": 0,
        "slot": "0",
        "type": "t_address"
      },
      {
        "astId": 15406,
        "contract": "contracts/lucks/LucksVRF.sol:LucksVRF",
        "label": "COORDINATOR",
        "offset": 0,
        "slot": "1",
        "type": "t_contract(VRFCoordinatorV2Interface)299"
      },
      {
        "astId": 15409,
        "contract": "contracts/lucks/LucksVRF.sol:LucksVRF",
        "label": "LINKTOKEN",
        "offset": 0,
        "slot": "2",
        "type": "t_contract(LinkTokenInterface)210"
      },
      {
        "astId": 15411,
        "contract": "contracts/lucks/LucksVRF.sol:LucksVRF",
        "label": "s_subscriptionId",
        "offset": 20,
        "slot": "2",
        "type": "t_uint64"
      },
      {
        "astId": 15413,
        "contract": "contracts/lucks/LucksVRF.sol:LucksVRF",
        "label": "vrfCoordinator",
        "offset": 0,
        "slot": "3",
        "type": "t_address"
      },
      {
        "astId": 15415,
        "contract": "contracts/lucks/LucksVRF.sol:LucksVRF",
        "label": "link",
        "offset": 0,
        "slot": "4",
        "type": "t_address"
      },
      {
        "astId": 15417,
        "contract": "contracts/lucks/LucksVRF.sol:LucksVRF",
        "label": "keyHash",
        "offset": 0,
        "slot": "5",
        "type": "t_bytes32"
      },
      {
        "astId": 15420,
        "contract": "contracts/lucks/LucksVRF.sol:LucksVRF",
        "label": "callbackGasLimit",
        "offset": 0,
        "slot": "6",
        "type": "t_uint32"
      },
      {
        "astId": 15423,
        "contract": "contracts/lucks/LucksVRF.sol:LucksVRF",
        "label": "requestConfirmations",
        "offset": 4,
        "slot": "6",
        "type": "t_uint16"
      },
      {
        "astId": 15425,
        "contract": "contracts/lucks/LucksVRF.sol:LucksVRF",
        "label": "EXECUTOR",
        "offset": 6,
        "slot": "6",
        "type": "t_address"
      },
      {
        "astId": 15429,
        "contract": "contracts/lucks/LucksVRF.sol:LucksVRF",
        "label": "randomResults",
        "offset": 0,
        "slot": "7",
        "type": "t_mapping(t_uint256,t_uint32)"
      },
      {
        "astId": 15433,
        "contract": "contracts/lucks/LucksVRF.sol:LucksVRF",
        "label": "requestToTaskId",
        "offset": 0,
        "slot": "8",
        "type": "t_mapping(t_uint256,t_uint256)"
      },
      {
        "astId": 15437,
        "contract": "contracts/lucks/LucksVRF.sol:LucksVRF",
        "label": "requestToMaxNum",
        "offset": 0,
        "slot": "9",
        "type": "t_mapping(t_uint256,t_uint256)"
      },
      {
        "astId": 15441,
        "contract": "contracts/lucks/LucksVRF.sol:LucksVRF",
        "label": "taskToRequestId",
        "offset": 0,
        "slot": "10",
        "type": "t_mapping(t_uint256,t_uint256)"
      }
    ],
    "types": {
      "t_address": {
        "encoding": "inplace",
        "label": "address",
        "numberOfBytes": "20"
      },
      "t_bytes32": {
        "encoding": "inplace",
        "label": "bytes32",
        "numberOfBytes": "32"
      },
      "t_contract(LinkTokenInterface)210": {
        "encoding": "inplace",
        "label": "contract LinkTokenInterface",
        "numberOfBytes": "20"
      },
      "t_contract(VRFCoordinatorV2Interface)299": {
        "encoding": "inplace",
        "label": "contract VRFCoordinatorV2Interface",
        "numberOfBytes": "20"
      },
      "t_mapping(t_uint256,t_uint256)": {
        "encoding": "mapping",
        "key": "t_uint256",
        "label": "mapping(uint256 => uint256)",
        "numberOfBytes": "32",
        "value": "t_uint256"
      },
      "t_mapping(t_uint256,t_uint32)": {
        "encoding": "mapping",
        "key": "t_uint256",
        "label": "mapping(uint256 => uint32)",
        "numberOfBytes": "32",
        "value": "t_uint32"
      },
      "t_uint16": {
        "encoding": "inplace",
        "label": "uint16",
        "numberOfBytes": "2"
      },
      "t_uint256": {
        "encoding": "inplace",
        "label": "uint256",
        "numberOfBytes": "32"
      },
      "t_uint32": {
        "encoding": "inplace",
        "label": "uint32",
        "numberOfBytes": "4"
      },
      "t_uint64": {
        "encoding": "inplace",
        "label": "uint64",
        "numberOfBytes": "8"
      }
    }
  }
}