{
  "address": "0x9CCB4a547Cd8c6309185eAAaaD9Bab8EBD70e305",
  "abi": [
    {
      "anonymous": false,
      "inputs": [
        {
          "indexed": true,
          "internalType": "address",
          "name": "src",
          "type": "address"
        },
        {
          "indexed": true,
          "internalType": "address",
          "name": "guy",
          "type": "address"
        },
        {
          "indexed": false,
          "internalType": "uint256",
          "name": "wad",
          "type": "uint256"
        }
      ],
      "name": "Approval",
      "type": "event"
    },
    {
      "anonymous": false,
      "inputs": [
        {
          "indexed": true,
          "internalType": "address",
          "name": "dst",
          "type": "address"
        },
        {
          "indexed": false,
          "internalType": "uint256",
          "name": "wad",
          "type": "uint256"
        }
      ],
      "name": "Deposit",
      "type": "event"
    },
    {
      "anonymous": false,
      "inputs": [
        {
          "indexed": true,
          "internalType": "address",
          "name": "src",
          "type": "address"
        },
        {
          "indexed": true,
          "internalType": "address",
          "name": "dst",
          "type": "address"
        },
        {
          "indexed": false,
          "internalType": "uint256",
          "name": "wad",
          "type": "uint256"
        }
      ],
      "name": "Transfer",
      "type": "event"
    },
    {
      "anonymous": false,
      "inputs": [
        {
          "indexed": true,
          "internalType": "address",
          "name": "src",
          "type": "address"
        },
        {
          "indexed": false,
          "internalType": "uint256",
          "name": "wad",
          "type": "uint256"
        }
      ],
      "name": "Withdrawal",
      "type": "event"
    },
    {
      "inputs": [
        {
          "internalType": "address",
          "name": "",
          "type": "address"
        },
        {
          "internalType": "address",
          "name": "",
          "type": "address"
        }
      ],
      "name": "allowance",
      "outputs": [
        {
          "internalType": "uint256",
          "name": "",
          "type": "uint256"
        }
      ],
      "stateMutability": "view",
      "type": "function"
    },
    {
      "inputs": [
        {
          "internalType": "address",
          "name": "guy",
          "type": "address"
        },
        {
          "internalType": "uint256",
          "name": "wad",
          "type": "uint256"
        }
      ],
      "name": "approve",
      "outputs": [
        {
          "internalType": "bool",
          "name": "",
          "type": "bool"
        }
      ],
      "stateMutability": "nonpayable",
      "type": "function"
    },
    {
      "inputs": [
        {
          "internalType": "address",
          "name": "",
          "type": "address"
        }
      ],
      "name": "balanceOf",
      "outputs": [
        {
          "internalType": "uint256",
          "name": "",
          "type": "uint256"
        }
      ],
      "stateMutability": "view",
      "type": "function"
    },
    {
      "inputs": [],
      "name": "decimals",
      "outputs": [
        {
          "internalType": "uint8",
          "name": "",
          "type": "uint8"
        }
      ],
      "stateMutability": "view",
      "type": "function"
    },
    {
      "inputs": [],
      "name": "deposit",
      "outputs": [],
      "stateMutability": "payable",
      "type": "function"
    },
    {
      "inputs": [
        {
          "internalType": "address",
          "name": "to",
          "type": "address"
        },
        {
          "internalType": "uint256",
          "name": "amount",
          "type": "uint256"
        }
      ],
      "name": "mint",
      "outputs": [],
      "stateMutability": "nonpayable",
      "type": "function"
    },
    {
      "inputs": [],
      "name": "name",
      "outputs": [
        {
          "internalType": "string",
          "name": "",
          "type": "string"
        }
      ],
      "stateMutability": "view",
      "type": "function"
    },
    {
      "inputs": [],
      "name": "symbol",
      "outputs": [
        {
          "internalType": "string",
          "name": "",
          "type": "string"
        }
      ],
      "stateMutability": "view",
      "type": "function"
    },
    {
      "inputs": [],
      "name": "totalSupply",
      "outputs": [
        {
          "internalType": "uint256",
          "name": "",
          "type": "uint256"
        }
      ],
      "stateMutability": "view",
      "type": "function"
    },
    {
      "inputs": [
        {
          "internalType": "address",
          "name": "dst",
          "type": "address"
        },
        {
          "internalType": "uint256",
          "name": "wad",
          "type": "uint256"
        }
      ],
      "name": "transfer",
      "outputs": [
        {
          "internalType": "bool",
          "name": "",
          "type": "bool"
        }
      ],
      "stateMutability": "nonpayable",
      "type": "function"
    },
    {
      "inputs": [
        {
          "internalType": "address",
          "name": "src",
          "type": "address"
        },
        {
          "internalType": "address",
          "name": "dst",
          "type": "address"
        },
        {
          "internalType": "uint256",
          "name": "wad",
          "type": "uint256"
        }
      ],
      "name": "transferFrom",
      "outputs": [
        {
          "internalType": "bool",
          "name": "",
          "type": "bool"
        }
      ],
      "stateMutability": "nonpayable",
      "type": "function"
    },
    {
      "inputs": [
        {
          "internalType": "uint256",
          "name": "wad",
          "type": "uint256"
        }
      ],
      "name": "withdraw",
      "outputs": [],
      "stateMutability": "nonpayable",
      "type": "function"
    },
    {
      "stateMutability": "payable",
      "type": "receive"
    }
  ],
  "transactionHash": "0x2559b2362f4251fdd5425e61f741ab6a0bc77e456b146b3ee9d10386e677faa9",
  "args": [],
  "numDeployments": 1,
  "solcInputHash": "f2c087d00e29fe84f33b3e947ae542e6",
  "bytecode": "0x60c0604052600b60808190526a0aee4c2e0e0cac8408aa8960ab1b60a090815261002c9160009190610078565b50604080518082019091526004808252630ae8aa8960e31b602090920191825261005891600191610078565b506002805460ff1916601217905534801561007257600080fd5b5061014c565b82805461008490610111565b90600052602060002090601f0160209004810192826100a657600085556100ec565b82601f106100bf57805160ff19168380011785556100ec565b828001600101855582156100ec579182015b828111156100ec5782518255916020019190600101906100d1565b506100f89291506100fc565b5090565b5b808211156100f857600081556001016100fd565b600181811c9082168061012557607f821691505b6020821081141561014657634e487b7160e01b600052602260045260246000fd5b50919050565b6108d08061015b6000396000f3fe6080604052600436106100ab5760003560e01c806340c10f191161006457806340c10f19146101a357806370a08231146101c357806395d89b41146101f0578063a9059cbb14610205578063d0e30db014610225578063dd62ed3e1461022d57600080fd5b806306fdde03146100bf578063095ea7b3146100ea57806318160ddd1461011a57806323b872dd146101375780632e1a7d4d14610157578063313ce5671461017757600080fd5b366100ba576100b8610265565b005b600080fd5b3480156100cb57600080fd5b506100d46102c0565b6040516100e191906107c5565b60405180910390f35b3480156100f657600080fd5b5061010a610105366004610782565b61034e565b60405190151581526020016100e1565b34801561012657600080fd5b50475b6040519081526020016100e1565b34801561014357600080fd5b5061010a610152366004610746565b6103ba565b34801561016357600080fd5b506100b86101723660046107ac565b61053b565b34801561018357600080fd5b506002546101919060ff1681565b60405160ff90911681526020016100e1565b3480156101af57600080fd5b506100b86101be366004610782565b6105e1565b3480156101cf57600080fd5b506101296101de3660046106f8565b60036020526000908152604090205481565b3480156101fc57600080fd5b506100d46105ef565b34801561021157600080fd5b5061010a610220366004610782565b6105fc565b6100b8610265565b34801561023957600080fd5b50610129610248366004610713565b600460209081526000928352604080842090915290825290205481565b336000908152600360205260408120805434929061028490849061081a565b909155505060405134815233907fe1fffcc4923d04b559f4d29a8bfc6cda04eb5b0d3c460751c2402c5c5cc9109c9060200160405180910390a2565b600080546102cd90610849565b80601f01602080910402602001604051908101604052809291908181526020018280546102f990610849565b80156103465780601f1061031b57610100808354040283529160200191610346565b820191906000526020600020905b81548152906001019060200180831161032957829003601f168201915b505050505081565b3360008181526004602090815260408083206001600160a01b038716808552925280832085905551919290917f8c5be1e5ebec7d5bd14f71427d1e84f3dd0314c0f7b2291e5b200ac8c7c3b925906103a99086815260200190565b60405180910390a350600192915050565b6001600160a01b0383166000908152600360205260408120548211156103df57600080fd5b6001600160a01b038416331480159061041a57506001600160a01b038416600090815260046020908152604080832033845290915290205415155b15610488576001600160a01b038416600090815260046020908152604080832033845290915290205482111561044f57600080fd5b6001600160a01b038416600090815260046020908152604080832033845290915281208054849290610482908490610832565b90915550505b6001600160a01b038416600090815260036020526040812080548492906104b0908490610832565b90915550506001600160a01b038316600090815260036020526040812080548492906104dd90849061081a565b92505081905550826001600160a01b0316846001600160a01b03167fddf252ad1be2c89b69c2b068fc378daa952ba7f163c4a11628f55a4df523b3ef8460405161052991815260200190565b60405180910390a35060019392505050565b3360009081526003602052604090205481111561055757600080fd5b3360009081526003602052604081208054839290610576908490610832565b9091555050604051339082156108fc029083906000818181858888f193505050501580156105a8573d6000803e3d6000fd5b5060405181815233907f7fcf532c15f0a6db0bd6d0e038bea71d30d808c7d98cb3bf7268a95bf5081b659060200160405180910390a250565b6105eb8282610610565b5050565b600180546102cd90610849565b60006106093384846103ba565b9392505050565b6001600160a01b03821661066a5760405162461bcd60e51b815260206004820152601f60248201527f45524332303a206d696e7420746f20746865207a65726f206164647265737300604482015260640160405180910390fd5b6001600160a01b0382166000908152600360205260408120805483929061069290849061081a565b90915550506040518181526001600160a01b038316906000907fddf252ad1be2c89b69c2b068fc378daa952ba7f163c4a11628f55a4df523b3ef9060200160405180910390a35050565b80356001600160a01b03811681146106f357600080fd5b919050565b60006020828403121561070a57600080fd5b610609826106dc565b6000806040838503121561072657600080fd5b61072f836106dc565b915061073d602084016106dc565b90509250929050565b60008060006060848603121561075b57600080fd5b610764846106dc565b9250610772602085016106dc565b9150604084013590509250925092565b6000806040838503121561079557600080fd5b61079e836106dc565b946020939093013593505050565b6000602082840312156107be57600080fd5b5035919050565b600060208083528351808285015260005b818110156107f2578581018301518582016040015282016107d6565b81811115610804576000604083870101525b50601f01601f1916929092016040019392505050565b6000821982111561082d5761082d610884565b500190565b60008282101561084457610844610884565b500390565b600181811c9082168061085d57607f821691505b6020821081141561087e57634e487b7160e01b600052602260045260246000fd5b50919050565b634e487b7160e01b600052601160045260246000fdfea26469706673582212208991e0b30495c680c89f5f1995ad40886749dfb22139a77bbd18e01d2e0d7a6c64736f6c63430008060033",
  "devdoc": {
    "kind": "dev",
    "methods": {},
    "version": 1
  },
  "userdoc": {
    "kind": "user",
    "methods": {},
    "version": 1
  },
  "storageLayout": {
    "storage": [
      {
        "astId": 4,
        "contract": "contracts/tests/TokenWETH.sol:TokenWETH",
        "label": "name",
        "offset": 0,
        "slot": "0",
        "type": "t_string_storage"
      },
      {
        "astId": 7,
        "contract": "contracts/tests/TokenWETH.sol:TokenWETH",
        "label": "symbol",
        "offset": 0,
        "slot": "1",
        "type": "t_string_storage"
      },
      {
        "astId": 10,
        "contract": "contracts/tests/TokenWETH.sol:TokenWETH",
        "label": "decimals",
        "offset": 0,
        "slot": "2",
        "type": "t_uint8"
      },
      {
        "astId": 42,
        "contract": "contracts/tests/TokenWETH.sol:TokenWETH",
        "label": "balanceOf",
        "offset": 0,
        "slot": "3",
        "type": "t_mapping(t_address,t_uint256)"
      },
      {
        "astId": 48,
        "contract": "contracts/tests/TokenWETH.sol:TokenWETH",
        "label": "allowance",
        "offset": 0,
        "slot": "4",
        "type": "t_mapping(t_address,t_mapping(t_address,t_uint256))"
      }
    ],
    "types": {
      "t_address": {
        "encoding": "inplace",
        "label": "address",
        "numberOfBytes": "20"
      },
      "t_mapping(t_address,t_mapping(t_address,t_uint256))": {
        "encoding": "mapping",
        "key": "t_address",
        "label": "mapping(address => mapping(address => uint256))",
        "numberOfBytes": "32",
        "value": "t_mapping(t_address,t_uint256)"
      },
      "t_mapping(t_address,t_uint256)": {
        "encoding": "mapping",
        "key": "t_address",
        "label": "mapping(address => uint256)",
        "numberOfBytes": "32",
        "value": "t_uint256"
      },
      "t_string_storage": {
        "encoding": "bytes",
        "label": "string",
        "numberOfBytes": "32"
      },
      "t_uint256": {
        "encoding": "inplace",
        "label": "uint256",
        "numberOfBytes": "32"
      },
      "t_uint8": {
        "encoding": "inplace",
        "label": "uint8",
        "numberOfBytes": "1"
      }
    }
  }
}