{
  "address": "0x96d08df204d0077bE431819b83D5A2164fbcEaC9",
  "abi": [
    {
      "inputs": [
        {
          "internalType": "uint64",
          "name": "_subscriptionId",
          "type": "uint64"
        },
        {
          "internalType": "address",
          "name": "_vrfCoordinator",
          "type": "address"
        },
        {
          "internalType": "address",
          "name": "_link",
          "type": "address"
        },
        {
          "internalType": "bytes32",
          "name": "_keyHash",
          "type": "bytes32"
        },
        {
          "internalType": "contract ILucksExecutor",
          "name": "_executor",
          "type": "address"
        }
      ],
      "stateMutability": "nonpayable",
      "type": "constructor"
    },
    {
      "inputs": [
        {
          "internalType": "address",
          "name": "have",
          "type": "address"
        },
        {
          "internalType": "address",
          "name": "want",
          "type": "address"
        }
      ],
      "name": "OnlyCoordinatorCanFulfill",
      "type": "error"
    },
    {
      "anonymous": false,
      "inputs": [
        {
          "indexed": true,
          "internalType": "address",
          "name": "previousOwner",
          "type": "address"
        },
        {
          "indexed": true,
          "internalType": "address",
          "name": "newOwner",
          "type": "address"
        }
      ],
      "name": "OwnershipTransferred",
      "type": "event"
    },
    {
      "anonymous": false,
      "inputs": [
        {
          "indexed": false,
          "internalType": "uint256",
          "name": "taskId",
          "type": "uint256"
        },
        {
          "indexed": false,
          "internalType": "uint256",
          "name": "max",
          "type": "uint256"
        },
        {
          "indexed": false,
          "internalType": "uint256",
          "name": "requestId",
          "type": "uint256"
        }
      ],
      "name": "ReqRandomNumber",
      "type": "event"
    },
    {
      "anonymous": false,
      "inputs": [
        {
          "indexed": false,
          "internalType": "uint256",
          "name": "taskId",
          "type": "uint256"
        },
        {
          "indexed": false,
          "internalType": "uint256",
          "name": "requestId",
          "type": "uint256"
        },
        {
          "indexed": false,
          "internalType": "uint256",
          "name": "randomness",
          "type": "uint256"
        },
        {
          "indexed": false,
          "internalType": "uint32",
          "name": "number",
          "type": "uint32"
        },
        {
          "indexed": false,
          "internalType": "bool",
          "name": "autoPickWinner",
          "type": "bool"
        }
      ],
      "name": "RspRandomNumber",
      "type": "event"
    },
    {
      "anonymous": false,
      "inputs": [
        {
          "indexed": false,
          "internalType": "uint256",
          "name": "taskId",
          "type": "uint256"
        },
        {
          "indexed": false,
          "internalType": "bool",
          "name": "state",
          "type": "bool"
        },
        {
          "indexed": false,
          "internalType": "bytes",
          "name": "reason",
          "type": "bytes"
        }
      ],
      "name": "RspToPickWinner",
      "type": "event"
    },
    {
      "inputs": [],
      "name": "autoPickWinner",
      "outputs": [
        {
          "internalType": "bool",
          "name": "",
          "type": "bool"
        }
      ],
      "stateMutability": "view",
      "type": "function"
    },
    {
      "inputs": [
        {
          "internalType": "uint256",
          "name": "taskId",
          "type": "uint256"
        },
        {
          "internalType": "uint256",
          "name": "seed",
          "type": "uint256"
        }
      ],
      "name": "callbackRandomWords",
      "outputs": [],
      "stateMutability": "nonpayable",
      "type": "function"
    },
    {
      "inputs": [
        {
          "internalType": "uint256",
          "name": "taskId",
          "type": "uint256"
        },
        {
          "internalType": "uint32",
          "name": "number",
          "type": "uint32"
        }
      ],
      "name": "callbackTestRandomWords",
      "outputs": [],
      "stateMutability": "nonpayable",
      "type": "function"
    },
    {
      "inputs": [],
      "name": "executor",
      "outputs": [
        {
          "internalType": "contract ILucksExecutor",
          "name": "",
          "type": "address"
        }
      ],
      "stateMutability": "view",
      "type": "function"
    },
    {
      "inputs": [],
      "name": "owner",
      "outputs": [
        {
          "internalType": "address",
          "name": "",
          "type": "address"
        }
      ],
      "stateMutability": "view",
      "type": "function"
    },
    {
      "inputs": [
        {
          "internalType": "uint256",
          "name": "",
          "type": "uint256"
        }
      ],
      "name": "randomResults",
      "outputs": [
        {
          "internalType": "uint32",
          "name": "",
          "type": "uint32"
        }
      ],
      "stateMutability": "view",
      "type": "function"
    },
    {
      "inputs": [
        {
          "internalType": "uint256",
          "name": "requestId",
          "type": "uint256"
        },
        {
          "internalType": "uint256[]",
          "name": "randomWords",
          "type": "uint256[]"
        }
      ],
      "name": "rawFulfillRandomWords",
      "outputs": [],
      "stateMutability": "nonpayable",
      "type": "function"
    },
    {
      "inputs": [],
      "name": "renounceOwnership",
      "outputs": [],
      "stateMutability": "nonpayable",
      "type": "function"
    },
    {
      "inputs": [
        {
          "internalType": "uint256",
          "name": "taskId",
          "type": "uint256"
        },
        {
          "internalType": "uint256",
          "name": "max",
          "type": "uint256"
        }
      ],
      "name": "reqRandomNumber",
      "outputs": [],
      "stateMutability": "nonpayable",
      "type": "function"
    },
    {
      "inputs": [
        {
          "internalType": "uint256",
          "name": "",
          "type": "uint256"
        }
      ],
      "name": "requestToMaxNum",
      "outputs": [
        {
          "internalType": "uint256",
          "name": "",
          "type": "uint256"
        }
      ],
      "stateMutability": "view",
      "type": "function"
    },
    {
      "inputs": [
        {
          "internalType": "uint256",
          "name": "",
          "type": "uint256"
        }
      ],
      "name": "requestToTaskId",
      "outputs": [
        {
          "internalType": "uint256",
          "name": "",
          "type": "uint256"
        }
      ],
      "stateMutability": "view",
      "type": "function"
    },
    {
      "inputs": [
        {
          "internalType": "bool",
          "name": "_enable",
          "type": "bool"
        }
      ],
      "name": "setAutoPickWinner",
      "outputs": [],
      "stateMutability": "nonpayable",
      "type": "function"
    },
    {
      "inputs": [
        {
          "internalType": "bytes32",
          "name": "_keyHash",
          "type": "bytes32"
        }
      ],
      "name": "setKeyHash",
      "outputs": [],
      "stateMutability": "nonpayable",
      "type": "function"
    },
    {
      "inputs": [
        {
          "internalType": "contract ILucksExecutor",
          "name": "_executor",
          "type": "address"
        }
      ],
      "name": "setLucksAddress",
      "outputs": [],
      "stateMutability": "nonpayable",
      "type": "function"
    },
    {
      "inputs": [
        {
          "internalType": "uint16",
          "name": "num",
          "type": "uint16"
        }
      ],
      "name": "setReqConfirmations",
      "outputs": [],
      "stateMutability": "nonpayable",
      "type": "function"
    },
    {
      "inputs": [
        {
          "internalType": "address",
          "name": "newOwner",
          "type": "address"
        }
      ],
      "name": "transferOwnership",
      "outputs": [],
      "stateMutability": "nonpayable",
      "type": "function"
    },
    {
      "inputs": [
        {
          "internalType": "uint256",
          "name": "taskId",
          "type": "uint256"
        }
      ],
      "name": "viewRandomResult",
      "outputs": [
        {
          "internalType": "uint32",
          "name": "",
          "type": "uint32"
        }
      ],
      "stateMutability": "view",
      "type": "function"
    }
  ],
  "transactionHash": "0x1bda5c22f966ef8b275837694bf595b6d12e8bacb076ffa272d69b228bca6985",
  "args": [
    1,
    "0x0000000000000000000000000000000000000000",
    "0x0000000000000000000000000000000000000000",
    "0xd89b2bf150e3b9e13446986e571fb9cab24b13cea0a43ea20a6049a85cc807cc",
    "0xc81Fd4516eC753e080F157D963163416C06Df749"
  ],
  "numDeployments": 1,
  "solcInputHash": "8956957e783b697bdeaf4cbd844767f6",
  "bytecode": "0x60a0604052600480546001600160a01b0319908116736168499c0cffcacd319c818142124b7a15e857ab17909155600580549091167301be23585060835e02b77ef475b0cc51aa1e07091790557fd89b2bf150e3b9e13446986e571fb9cab24b13cea0a43ea20a6049a85cc807cc600655600780547a0100000000000000000000000000000000000000000003000186a065ffffffffffff60ff60d01b0119909116179055348015620000b157600080fd5b5060405162001a6d38038062001a6d833981016040819052620000d491620001cc565b606084901b6001600160601b031916608052620000f1336200017c565b600380546001600160401b03909616600160a01b02600160a01b600160e01b031990961695909517909455600480546001600160a01b039485166001600160a01b0319918216179091556005805493851693909116929092179091556006556007805492909116660100000000000002600160301b600160d01b031990921691909117905562000264565b600080546001600160a01b038381166001600160a01b0319831681178455604051919092169283917f8be0079c531659141344cd1fd0a4f28419497f9722a3daafe3b4186f6b6457e09190a35050565b600080600080600060a08688031215620001e557600080fd5b85516001600160401b0381168114620001fd57600080fd5b602087015190955062000210816200024b565b604087015190945062000223816200024b565b6060870151608088015191945092506200023d816200024b565b809150509295509295909350565b6001600160a01b03811681146200026157600080fd5b50565b60805160601c6117e36200028a600039600081816108d6015261093e01526117e36000f3fe608060405234801561001057600080fd5b506004361061011b5760003560e01c80637a574a6f116100b2578063ae3e67c411610081578063c34c08e511610066578063c34c08e5146102d0578063f2fde38b146102fa578063f9a5d00d1461030d57600080fd5b8063ae3e67c4146102aa578063bcadffd0146102bd57600080fd5b80637a574a6f1461020a5780638da5cb5b1461021d57806393ebc5b11461025c578063985447101461029757600080fd5b80634225a3ea116100ee5780634225a3ea1461019b578063463fb8c6146101ae57806351312afe146101d4578063715018a61461020257600080fd5b806319c01989146101205780631bc5f507146101355780631fe543e314610148578063219be1141461015b575b600080fd5b61013361012e366004611564565b61032d565b005b610133610143366004611564565b61057d565b610133610156366004611475565b6108be565b610181610169366004611438565b60086020526000908152604090205463ffffffff1681565b60405163ffffffff90911681526020015b60405180910390f35b6101336101a9366004611586565b610979565b6101816101bc366004611438565b60009081526008602052604090205463ffffffff1690565b6101f46101e2366004611438565b60096020526000908152604090205481565b604051908152602001610192565b610133610c0c565b610133610218366004611416565b610c99565b60005473ffffffffffffffffffffffffffffffffffffffff165b60405173ffffffffffffffffffffffffffffffffffffffff9091168152602001610192565b600754610287907a010000000000000000000000000000000000000000000000000000900460ff1681565b6040519015158152602001610192565b6101336102a5366004611438565b610d6a565b6101336102b83660046113f2565b610df0565b6101336102cb366004611451565b610ec2565b600754610237906601000000000000900473ffffffffffffffffffffffffffffffffffffffff1681565b6101336103083660046113f2565b610f80565b6101f461031b366004611438565b600a6020526000908152604090205481565b60005473ffffffffffffffffffffffffffffffffffffffff1633148061037457506007546601000000000000900473ffffffffffffffffffffffffffffffffffffffff1633145b6103df576040517f08c379a000000000000000000000000000000000000000000000000000000000815260206004820152601e60248201527f4f6e6c79204c75636b732063616e2072657152616e646f6d4e756d626572000060448201526064015b60405180910390fd5b60008111610449576040517f08c379a000000000000000000000000000000000000000000000000000000000815260206004820152601160248201527f496e76616c6964206d617820696e70757400000000000000000000000000000060448201526064016103d6565b6000828152600b602052604090205415610461575050565b61046f600180546001019055565b600061047a60015490565b600654600354604080516020808201859052338284015267ffffffffffffffff74010000000000000000000000000000000000000000909404841660608301529285166080808301919091528251808303909101815260a08201835280519084012060c082019490945260e0808201949094528151808203909401845261010081018083528451948401949094206000818152600985528381208a9055600a8552838120899055898152600b909452919092208190559186905261012081018590526101408101829052919250907f3f13685560bd8b2517f69ad10b1e2367cc13dc8df09b982ad90e1119c6337c9f90610160015b60405180910390a150505050565b60005473ffffffffffffffffffffffffffffffffffffffff1633146105fe576040517f08c379a000000000000000000000000000000000000000000000000000000000815260206004820181905260248201527f4f776e61626c653a2063616c6c6572206973206e6f7420746865206f776e657260448201526064016103d6565b6000828152600b602052604081205460075490919061062990640100000000900461ffff16436116ac565b404344610636428761166f565b610640919061166f565b61064a919061166f565b610654919061166f565b60405160200161066691815260200190565b604080517fffffffffffffffffffffffffffffffffffffffffffffffffffffffffffffffe081840301815291815281516020928301206000858152600a9093529120549091506106b690826116c3565b6106c1906001611657565b600085815260086020526040902080547fffffffffffffffffffffffffffffffffffffffffffffffffffffffff000000001663ffffffff929092169190911790556007547a010000000000000000000000000000000000000000000000000000900460ff16801561075357506007546601000000000000900473ffffffffffffffffffffffffffffffffffffffff1615155b1561083957600760069054906101000a900473ffffffffffffffffffffffffffffffffffffffff1673ffffffffffffffffffffffffffffffffffffffff16634403968785604051806060016040528060008152602001600081526020016040518060400160405280600281526020017f30780000000000000000000000000000000000000000000000000000000000008152508152506040518363ffffffff1660e01b81526004016108069291906115bf565b600060405180830381600087803b15801561082057600080fd5b505af1158015610834573d6000803e3d6000fd5b505050505b60008481526008602090815260409182902054600754835188815292830186905292820184905263ffffffff1660608201527a01000000000000000000000000000000000000000000000000000090910460ff16151560808201527ff32cd93dc0a33c0dd303a798a66d386788465f65dc8dea5a7c322978e95787ab9060a00161056f565b3373ffffffffffffffffffffffffffffffffffffffff7f0000000000000000000000000000000000000000000000000000000000000000161461096b576040517f1cf993f400000000000000000000000000000000000000000000000000000000815233600482015273ffffffffffffffffffffffffffffffffffffffff7f00000000000000000000000000000000000000000000000000000000000000001660248201526044016103d6565b61097582826110b0565b5050565b60005473ffffffffffffffffffffffffffffffffffffffff1633146109fa576040517f08c379a000000000000000000000000000000000000000000000000000000000815260206004820181905260248201527f4f776e61626c653a2063616c6c6572206973206e6f7420746865206f776e657260448201526064016103d6565b6000828152600b6020908152604080832054600890925290912080547fffffffffffffffffffffffffffffffffffffffffffffffffffffffff000000001663ffffffff84161790556007547a010000000000000000000000000000000000000000000000000000900460ff168015610a9357506007546601000000000000900473ffffffffffffffffffffffffffffffffffffffff1615155b15610b7957600760069054906101000a900473ffffffffffffffffffffffffffffffffffffffff1673ffffffffffffffffffffffffffffffffffffffff16634403968784604051806060016040528060008152602001600081526020016040518060400160405280600281526020017f30780000000000000000000000000000000000000000000000000000000000008152508152506040518363ffffffff1660e01b8152600401610b469291906115bf565b600060405180830381600087803b158015610b6057600080fd5b505af1158015610b74573d6000803e3d6000fd5b505050505b60008381526008602090815260409182902054600754835187815292830185905263ffffffff80871694840194909452921660608201527a01000000000000000000000000000000000000000000000000000090910460ff16151560808201527ff32cd93dc0a33c0dd303a798a66d386788465f65dc8dea5a7c322978e95787ab9060a0015b60405180910390a1505050565b60005473ffffffffffffffffffffffffffffffffffffffff163314610c8d576040517f08c379a000000000000000000000000000000000000000000000000000000000815260206004820181905260248201527f4f776e61626c653a2063616c6c6572206973206e6f7420746865206f776e657260448201526064016103d6565b610c97600061137d565b565b60005473ffffffffffffffffffffffffffffffffffffffff163314610d1a576040517f08c379a000000000000000000000000000000000000000000000000000000000815260206004820181905260248201527f4f776e61626c653a2063616c6c6572206973206e6f7420746865206f776e657260448201526064016103d6565b600780549115157a010000000000000000000000000000000000000000000000000000027fffffffffff00ffffffffffffffffffffffffffffffffffffffffffffffffffff909216919091179055565b60005473ffffffffffffffffffffffffffffffffffffffff163314610deb576040517f08c379a000000000000000000000000000000000000000000000000000000000815260206004820181905260248201527f4f776e61626c653a2063616c6c6572206973206e6f7420746865206f776e657260448201526064016103d6565b600655565b60005473ffffffffffffffffffffffffffffffffffffffff163314610e71576040517f08c379a000000000000000000000000000000000000000000000000000000000815260206004820181905260248201527f4f776e61626c653a2063616c6c6572206973206e6f7420746865206f776e657260448201526064016103d6565b6007805473ffffffffffffffffffffffffffffffffffffffff9092166601000000000000027fffffffffffff0000000000000000000000000000000000000000ffffffffffff909216919091179055565b60005473ffffffffffffffffffffffffffffffffffffffff163314610f43576040517f08c379a000000000000000000000000000000000000000000000000000000000815260206004820181905260248201527f4f776e61626c653a2063616c6c6572206973206e6f7420746865206f776e657260448201526064016103d6565b6007805461ffff909216640100000000027fffffffffffffffffffffffffffffffffffffffffffffffffffff0000ffffffff909216919091179055565b60005473ffffffffffffffffffffffffffffffffffffffff163314611001576040517f08c379a000000000000000000000000000000000000000000000000000000000815260206004820181905260248201527f4f776e61626c653a2063616c6c6572206973206e6f7420746865206f776e657260448201526064016103d6565b73ffffffffffffffffffffffffffffffffffffffff81166110a4576040517f08c379a000000000000000000000000000000000000000000000000000000000815260206004820152602660248201527f4f776e61626c653a206e6577206f776e657220697320746865207a65726f206160448201527f646472657373000000000000000000000000000000000000000000000000000060648201526084016103d6565b6110ad8161137d565b50565b60008281526009602052604090205480611126576040517f08c379a000000000000000000000000000000000000000000000000000000000815260206004820152601960248201527f57726f6e67207461736b4964206f72207265717565737449640000000000000060448201526064016103d6565b6000838152600a60205260408120548351909184916111475761114761172d565b602002602001015161115991906116c3565b611164906001611657565b600082815260086020526040902080547fffffffffffffffffffffffffffffffffffffffffffffffffffffffff000000001663ffffffff929092169190911790556007547a010000000000000000000000000000000000000000000000000000900460ff1680156111f657506007546601000000000000900473ffffffffffffffffffffffffffffffffffffffff1615155b156112dc57600760069054906101000a900473ffffffffffffffffffffffffffffffffffffffff1673ffffffffffffffffffffffffffffffffffffffff16634403968782604051806060016040528060008152602001600081526020016040518060400160405280600281526020017f30780000000000000000000000000000000000000000000000000000000000008152508152506040518363ffffffff1660e01b81526004016112a99291906115bf565b600060405180830381600087803b1580156112c357600080fd5b505af11580156112d7573d6000803e3d6000fd5b505050505b7ff32cd93dc0a33c0dd303a798a66d386788465f65dc8dea5a7c322978e95787ab8184846000815181106113125761131261172d565b6020908102919091018101516000868152600883526040908190205460075482519687529386019490945284015263ffffffff90911660608301527a010000000000000000000000000000000000000000000000000000900460ff161515608082015260a001610bff565b6000805473ffffffffffffffffffffffffffffffffffffffff8381167fffffffffffffffffffffffff0000000000000000000000000000000000000000831681178455604051919092169283917f8be0079c531659141344cd1fd0a4f28419497f9722a3daafe3b4186f6b6457e09190a35050565b60006020828403121561140457600080fd5b813561140f8161178b565b9392505050565b60006020828403121561142857600080fd5b8135801515811461140f57600080fd5b60006020828403121561144a57600080fd5b5035919050565b60006020828403121561146357600080fd5b813561ffff8116811461140f57600080fd5b6000806040838503121561148857600080fd5b8235915060208084013567ffffffffffffffff808211156114a857600080fd5b818601915086601f8301126114bc57600080fd5b8135818111156114ce576114ce61175c565b8060051b6040517fffffffffffffffffffffffffffffffffffffffffffffffffffffffffffffffe0603f830116810181811085821117156115115761151161175c565b604052828152858101935084860182860187018b101561153057600080fd5b600095505b83861015611553578035855260019590950194938601938601611535565b508096505050505050509250929050565b6000806040838503121561157757600080fd5b50508035926020909101359150565b6000806040838503121561159957600080fd5b82359150602083013563ffffffff811681146115b457600080fd5b809150509250929050565b828152600060206040818401528351604084015280840151606084015260408401516060608085015280518060a086015260005b8181101561160f5782810184015186820160c0015283016115f3565b8181111561162157600060c083880101525b50601f017fffffffffffffffffffffffffffffffffffffffffffffffffffffffffffffffe0169390930160c00195945050505050565b6000821982111561166a5761166a6116fe565b500190565b6000817fffffffffffffffffffffffffffffffffffffffffffffffffffffffffffffffff04831182151516156116a7576116a76116fe565b500290565b6000828210156116be576116be6116fe565b500390565b6000826116f9577f4e487b7100000000000000000000000000000000000000000000000000000000600052601260045260246000fd5b500690565b7f4e487b7100000000000000000000000000000000000000000000000000000000600052601160045260246000fd5b7f4e487b7100000000000000000000000000000000000000000000000000000000600052603260045260246000fd5b7f4e487b7100000000000000000000000000000000000000000000000000000000600052604160045260246000fd5b73ffffffffffffffffffffffffffffffffffffffff811681146110ad57600080fdfea2646970667358221220c9033f7b92658e4d4a5205538d5aabae6e9110c9f8c3be7edb2c491e82aad45364736f6c63430008060033",
  "devdoc": {
    "kind": "dev",
    "methods": {
      "owner()": {
        "details": "Returns the address of the current owner."
      },
      "renounceOwnership()": {
        "details": "Leaves the contract without owner. It will not be possible to call `onlyOwner` functions anymore. Can only be called by the current owner. NOTE: Renouncing ownership will leave the contract without an owner, thereby removing any functionality that is only available to the owner."
      },
      "reqRandomNumber(uint256,uint256)": {
        "params": {
          "max": ": max provided by the LucksExecutor (lastTicketId)"
        }
      },
      "setAutoPickWinner(bool)": {
        "params": {
          "_enable": ": true or false"
        }
      },
      "setKeyHash(bytes32)": {
        "params": {
          "_keyHash": ": new keyHash"
        }
      },
      "setLucksAddress(address)": {
        "params": {
          "_executor": ": address of the PancakeSwap crowdluck"
        }
      },
      "setReqConfirmations(uint16)": {
        "params": {
          "num": ": num"
        }
      },
      "transferOwnership(address)": {
        "details": "Transfers ownership of the contract to a new account (`newOwner`). Can only be called by the current owner."
      }
    },
    "version": 1
  },
  "userdoc": {
    "kind": "user",
    "methods": {
      "callbackRandomWords(uint256,uint256)": {
        "notice": "Callback for test & enmergency case"
      },
      "callbackTestRandomWords(uint256,uint32)": {
        "notice": "Callback for test & enmergency case"
      },
      "reqRandomNumber(uint256,uint256)": {
        "notice": "Request randomness from a user-provided max"
      },
      "setAutoPickWinner(bool)": {
        "notice": "Change AutoPickWinner"
      },
      "setKeyHash(bytes32)": {
        "notice": "Change the keyHash"
      },
      "setLucksAddress(address)": {
        "notice": "Set the address for the Lucks"
      },
      "setReqConfirmations(uint16)": {
        "notice": "Change the requestConfirmations"
      },
      "viewRandomResult(uint256)": {
        "notice": "View random result"
      }
    },
    "version": 1
  },
  "storageLayout": {
    "storage": [
      {
        "astId": 307,
        "contract": "contracts/tests/LocalLucksVRF.sol:LocalLucksVRF",
        "label": "_owner",
        "offset": 0,
        "slot": "0",
        "type": "t_address"
      },
      {
        "astId": 13984,
        "contract": "contracts/tests/LocalLucksVRF.sol:LocalLucksVRF",
        "label": "currentNonce",
        "offset": 0,
        "slot": "1",
        "type": "t_struct(Counter)4187_storage"
      },
      {
        "astId": 13987,
        "contract": "contracts/tests/LocalLucksVRF.sol:LocalLucksVRF",
        "label": "COORDINATOR",
        "offset": 0,
        "slot": "2",
        "type": "t_contract(VRFCoordinatorV2Interface)299"
      },
      {
        "astId": 13990,
        "contract": "contracts/tests/LocalLucksVRF.sol:LocalLucksVRF",
        "label": "LINKTOKEN",
        "offset": 0,
        "slot": "3",
        "type": "t_contract(LinkTokenInterface)210"
      },
      {
        "astId": 13992,
        "contract": "contracts/tests/LocalLucksVRF.sol:LocalLucksVRF",
        "label": "s_subscriptionId",
        "offset": 20,
        "slot": "3",
        "type": "t_uint64"
      },
      {
        "astId": 13995,
        "contract": "contracts/tests/LocalLucksVRF.sol:LocalLucksVRF",
        "label": "vrfCoordinator",
        "offset": 0,
        "slot": "4",
        "type": "t_address"
      },
      {
        "astId": 13998,
        "contract": "contracts/tests/LocalLucksVRF.sol:LocalLucksVRF",
        "label": "link",
        "offset": 0,
        "slot": "5",
        "type": "t_address"
      },
      {
        "astId": 14001,
        "contract": "contracts/tests/LocalLucksVRF.sol:LocalLucksVRF",
        "label": "keyHash",
        "offset": 0,
        "slot": "6",
        "type": "t_bytes32"
      },
      {
        "astId": 14004,
        "contract": "contracts/tests/LocalLucksVRF.sol:LocalLucksVRF",
        "label": "callbackGasLimit",
        "offset": 0,
        "slot": "7",
        "type": "t_uint32"
      },
      {
        "astId": 14007,
        "contract": "contracts/tests/LocalLucksVRF.sol:LocalLucksVRF",
        "label": "requestConfirmations",
        "offset": 4,
        "slot": "7",
        "type": "t_uint16"
      },
      {
        "astId": 14010,
        "contract": "contracts/tests/LocalLucksVRF.sol:LocalLucksVRF",
        "label": "executor",
        "offset": 6,
        "slot": "7",
        "type": "t_contract(ILucksExecutor)8592"
      },
      {
        "astId": 14013,
        "contract": "contracts/tests/LocalLucksVRF.sol:LocalLucksVRF",
        "label": "autoPickWinner",
        "offset": 26,
        "slot": "7",
        "type": "t_bool"
      },
      {
        "astId": 14017,
        "contract": "contracts/tests/LocalLucksVRF.sol:LocalLucksVRF",
        "label": "randomResults",
        "offset": 0,
        "slot": "8",
        "type": "t_mapping(t_uint256,t_uint32)"
      },
      {
        "astId": 14021,
        "contract": "contracts/tests/LocalLucksVRF.sol:LocalLucksVRF",
        "label": "requestToTaskId",
        "offset": 0,
        "slot": "9",
        "type": "t_mapping(t_uint256,t_uint256)"
      },
      {
        "astId": 14025,
        "contract": "contracts/tests/LocalLucksVRF.sol:LocalLucksVRF",
        "label": "requestToMaxNum",
        "offset": 0,
        "slot": "10",
        "type": "t_mapping(t_uint256,t_uint256)"
      },
      {
        "astId": 14029,
        "contract": "contracts/tests/LocalLucksVRF.sol:LocalLucksVRF",
        "label": "taskToRequestId",
        "offset": 0,
        "slot": "11",
        "type": "t_mapping(t_uint256,t_uint256)"
      }
    ],
    "types": {
      "t_address": {
        "encoding": "inplace",
        "label": "address",
        "numberOfBytes": "20"
      },
      "t_bool": {
        "encoding": "inplace",
        "label": "bool",
        "numberOfBytes": "1"
      },
      "t_bytes32": {
        "encoding": "inplace",
        "label": "bytes32",
        "numberOfBytes": "32"
      },
      "t_contract(ILucksExecutor)8592": {
        "encoding": "inplace",
        "label": "contract ILucksExecutor",
        "numberOfBytes": "20"
      },
      "t_contract(LinkTokenInterface)210": {
        "encoding": "inplace",
        "label": "contract LinkTokenInterface",
        "numberOfBytes": "20"
      },
      "t_contract(VRFCoordinatorV2Interface)299": {
        "encoding": "inplace",
        "label": "contract VRFCoordinatorV2Interface",
        "numberOfBytes": "20"
      },
      "t_mapping(t_uint256,t_uint256)": {
        "encoding": "mapping",
        "key": "t_uint256",
        "label": "mapping(uint256 => uint256)",
        "numberOfBytes": "32",
        "value": "t_uint256"
      },
      "t_mapping(t_uint256,t_uint32)": {
        "encoding": "mapping",
        "key": "t_uint256",
        "label": "mapping(uint256 => uint32)",
        "numberOfBytes": "32",
        "value": "t_uint32"
      },
      "t_struct(Counter)4187_storage": {
        "encoding": "inplace",
        "label": "struct Counters.Counter",
        "members": [
          {
            "astId": 4186,
            "contract": "contracts/tests/LocalLucksVRF.sol:LocalLucksVRF",
            "label": "_value",
            "offset": 0,
            "slot": "0",
            "type": "t_uint256"
          }
        ],
        "numberOfBytes": "32"
      },
      "t_uint16": {
        "encoding": "inplace",
        "label": "uint16",
        "numberOfBytes": "2"
      },
      "t_uint256": {
        "encoding": "inplace",
        "label": "uint256",
        "numberOfBytes": "32"
      },
      "t_uint32": {
        "encoding": "inplace",
        "label": "uint32",
        "numberOfBytes": "4"
      },
      "t_uint64": {
        "encoding": "inplace",
        "label": "uint64",
        "numberOfBytes": "8"
      }
    }
  }
}