{
  "address": "0x68fC9153E475A0b4a4f1C2809D19676d971EBA65",
  "abi": [
    {
      "inputs": [
        {
          "internalType": "uint64",
          "name": "_subscriptionId",
          "type": "uint64"
        },
        {
          "internalType": "address",
          "name": "_vrfCoordinator",
          "type": "address"
        },
        {
          "internalType": "address",
          "name": "_link",
          "type": "address"
        },
        {
          "internalType": "bytes32",
          "name": "_keyHash",
          "type": "bytes32"
        },
        {
          "internalType": "contract ILucksExecutor",
          "name": "_executor",
          "type": "address"
        }
      ],
      "stateMutability": "nonpayable",
      "type": "constructor"
    },
    {
      "inputs": [
        {
          "internalType": "address",
          "name": "have",
          "type": "address"
        },
        {
          "internalType": "address",
          "name": "want",
          "type": "address"
        }
      ],
      "name": "OnlyCoordinatorCanFulfill",
      "type": "error"
    },
    {
      "anonymous": false,
      "inputs": [
        {
          "indexed": true,
          "internalType": "address",
          "name": "previousOwner",
          "type": "address"
        },
        {
          "indexed": true,
          "internalType": "address",
          "name": "newOwner",
          "type": "address"
        }
      ],
      "name": "OwnershipTransferred",
      "type": "event"
    },
    {
      "anonymous": false,
      "inputs": [
        {
          "indexed": false,
          "internalType": "uint256",
          "name": "taskId",
          "type": "uint256"
        },
        {
          "indexed": false,
          "internalType": "uint256",
          "name": "max",
          "type": "uint256"
        },
        {
          "indexed": false,
          "internalType": "uint256",
          "name": "requestId",
          "type": "uint256"
        }
      ],
      "name": "ReqRandomNumber",
      "type": "event"
    },
    {
      "anonymous": false,
      "inputs": [
        {
          "indexed": false,
          "internalType": "uint256",
          "name": "taskId",
          "type": "uint256"
        },
        {
          "indexed": false,
          "internalType": "uint256",
          "name": "requestId",
          "type": "uint256"
        },
        {
          "indexed": false,
          "internalType": "uint256",
          "name": "randomness",
          "type": "uint256"
        },
        {
          "indexed": false,
          "internalType": "uint32",
          "name": "number",
          "type": "uint32"
        },
        {
          "indexed": false,
          "internalType": "bool",
          "name": "autoPickWinner",
          "type": "bool"
        }
      ],
      "name": "RspRandomNumber",
      "type": "event"
    },
    {
      "anonymous": false,
      "inputs": [
        {
          "indexed": false,
          "internalType": "uint256",
          "name": "taskId",
          "type": "uint256"
        },
        {
          "indexed": false,
          "internalType": "bool",
          "name": "state",
          "type": "bool"
        },
        {
          "indexed": false,
          "internalType": "bytes",
          "name": "reason",
          "type": "bytes"
        }
      ],
      "name": "RspToPickWinner",
      "type": "event"
    },
    {
      "inputs": [],
      "name": "autoPickWinner",
      "outputs": [
        {
          "internalType": "bool",
          "name": "",
          "type": "bool"
        }
      ],
      "stateMutability": "view",
      "type": "function"
    },
    {
      "inputs": [
        {
          "internalType": "uint256",
          "name": "taskId",
          "type": "uint256"
        },
        {
          "internalType": "uint256",
          "name": "seed",
          "type": "uint256"
        }
      ],
      "name": "callbackRandomWords",
      "outputs": [],
      "stateMutability": "nonpayable",
      "type": "function"
    },
    {
      "inputs": [],
      "name": "executor",
      "outputs": [
        {
          "internalType": "contract ILucksExecutor",
          "name": "",
          "type": "address"
        }
      ],
      "stateMutability": "view",
      "type": "function"
    },
    {
      "inputs": [],
      "name": "owner",
      "outputs": [
        {
          "internalType": "address",
          "name": "",
          "type": "address"
        }
      ],
      "stateMutability": "view",
      "type": "function"
    },
    {
      "inputs": [
        {
          "internalType": "uint256",
          "name": "",
          "type": "uint256"
        }
      ],
      "name": "randomResults",
      "outputs": [
        {
          "internalType": "uint32",
          "name": "",
          "type": "uint32"
        }
      ],
      "stateMutability": "view",
      "type": "function"
    },
    {
      "inputs": [
        {
          "internalType": "uint256",
          "name": "requestId",
          "type": "uint256"
        },
        {
          "internalType": "uint256[]",
          "name": "randomWords",
          "type": "uint256[]"
        }
      ],
      "name": "rawFulfillRandomWords",
      "outputs": [],
      "stateMutability": "nonpayable",
      "type": "function"
    },
    {
      "inputs": [],
      "name": "renounceOwnership",
      "outputs": [],
      "stateMutability": "nonpayable",
      "type": "function"
    },
    {
      "inputs": [
        {
          "internalType": "uint256",
          "name": "taskId",
          "type": "uint256"
        },
        {
          "internalType": "uint256",
          "name": "max",
          "type": "uint256"
        }
      ],
      "name": "reqRandomNumber",
      "outputs": [],
      "stateMutability": "nonpayable",
      "type": "function"
    },
    {
      "inputs": [
        {
          "internalType": "uint256",
          "name": "",
          "type": "uint256"
        }
      ],
      "name": "requestToMaxNum",
      "outputs": [
        {
          "internalType": "uint256",
          "name": "",
          "type": "uint256"
        }
      ],
      "stateMutability": "view",
      "type": "function"
    },
    {
      "inputs": [
        {
          "internalType": "uint256",
          "name": "",
          "type": "uint256"
        }
      ],
      "name": "requestToTaskId",
      "outputs": [
        {
          "internalType": "uint256",
          "name": "",
          "type": "uint256"
        }
      ],
      "stateMutability": "view",
      "type": "function"
    },
    {
      "inputs": [
        {
          "internalType": "bool",
          "name": "_enable",
          "type": "bool"
        }
      ],
      "name": "setAutoPickWinner",
      "outputs": [],
      "stateMutability": "nonpayable",
      "type": "function"
    },
    {
      "inputs": [
        {
          "internalType": "contract ILucksExecutor",
          "name": "_executor",
          "type": "address"
        }
      ],
      "name": "setExecutorAddress",
      "outputs": [],
      "stateMutability": "nonpayable",
      "type": "function"
    },
    {
      "inputs": [
        {
          "internalType": "bytes32",
          "name": "_keyHash",
          "type": "bytes32"
        }
      ],
      "name": "setKeyHash",
      "outputs": [],
      "stateMutability": "nonpayable",
      "type": "function"
    },
    {
      "inputs": [
        {
          "internalType": "uint16",
          "name": "num",
          "type": "uint16"
        }
      ],
      "name": "setReqConfirmations",
      "outputs": [],
      "stateMutability": "nonpayable",
      "type": "function"
    },
    {
      "inputs": [
        {
          "internalType": "uint256",
          "name": "",
          "type": "uint256"
        }
      ],
      "name": "taskToRequestId",
      "outputs": [
        {
          "internalType": "uint256",
          "name": "",
          "type": "uint256"
        }
      ],
      "stateMutability": "view",
      "type": "function"
    },
    {
      "inputs": [
        {
          "internalType": "address",
          "name": "newOwner",
          "type": "address"
        }
      ],
      "name": "transferOwnership",
      "outputs": [],
      "stateMutability": "nonpayable",
      "type": "function"
    },
    {
      "inputs": [
        {
          "internalType": "uint256",
          "name": "taskId",
          "type": "uint256"
        }
      ],
      "name": "viewRandomResult",
      "outputs": [
        {
          "internalType": "uint32",
          "name": "",
          "type": "uint32"
        }
      ],
      "stateMutability": "view",
      "type": "function"
    }
  ],
  "transactionHash": "0xd6ea4389ec64ed9b2bde461eaab892daa0324327686760ed02e6ac8549efe71d",
  "args": [
    1,
    "0x0000000000000000000000000000000000000000",
    "0x0000000000000000000000000000000000000000",
    "0xd4bb89654db74673a187bd804519e65e3f71a52bc55f11da7601a13dcf505314",
    "0xc81Fd4516eC753e080F157D963163416C06Df749"
  ],
  "numDeployments": 1,
  "solcInputHash": "8956957e783b697bdeaf4cbd844767f6",
  "bytecode": "0x60a0604052600380546001600160a01b0319908116736168499c0cffcacd319c818142124b7a15e857ab17909155600480549091167301be23585060835e02b77ef475b0cc51aa1e07091790557fd89b2bf150e3b9e13446986e571fb9cab24b13cea0a43ea20a6049a85cc807cc6005556006805465ffffffffffff60ff60d01b0119166403000186a01790553480156200009957600080fd5b506040516200199f3803806200199f833981016040819052620000bc91620001c2565b606084901b6001600160601b031916608052620000d93362000172565b60028054600380546001600160a01b039788166001600160a01b03199182168117909255600480549789169782168817905560059590955560018054861690911790556001600160401b03909616600160a01b02929092166001600160e01b03199095169490941790911790556006805492909116660100000000000002600160301b600160d01b03199092169190911790556200025a565b600080546001600160a01b038381166001600160a01b0319831681178455604051919092169283917f8be0079c531659141344cd1fd0a4f28419497f9722a3daafe3b4186f6b6457e09190a35050565b600080600080600060a08688031215620001db57600080fd5b85516001600160401b0381168114620001f357600080fd5b6020870151909550620002068162000241565b6040870151909450620002198162000241565b606087015160808801519194509250620002338162000241565b809150509295509295909350565b6001600160a01b03811681146200025757600080fd5b50565b60805160601c61171f62000280600039600081816109dd0152610a45015261171f6000f3fe608060405234801561001057600080fd5b506004361061011b5760003560e01c80637a574a6f116100b2578063bcadffd011610081578063c34c08e511610066578063c34c08e5146102dd578063f2fde38b14610307578063f9a5d00d1461031a57600080fd5b8063bcadffd0146102b7578063c2513f11146102ca57600080fd5b80637a574a6f146102175780638da5cb5b1461022a57806393ebc5b11461026957806398544710146102a457600080fd5b80632fa2cb4e116100ee5780632fa2cb4e1461019b578063463fb8c6146101c957806351312afe146101ef578063715018a61461020f57600080fd5b806319c01989146101205780631bc5f507146101355780631fe543e314610148578063219be1141461015b575b600080fd5b61013361012e3660046114a6565b61033a565b005b6101336101433660046114a6565b6105bd565b6101336101563660046113b7565b6109c5565b610181610169366004611361565b60076020526000908152604090205463ffffffff1681565b60405163ffffffff90911681526020015b60405180910390f35b6101bb6101a9366004611361565b600a6020526000908152604090205481565b604051908152602001610192565b6101816101d7366004611361565b60009081526007602052604090205463ffffffff1690565b6101bb6101fd366004611361565b60086020526000908152604090205481565b610133610a80565b61013361022536600461133f565b610b0d565b60005473ffffffffffffffffffffffffffffffffffffffff165b60405173ffffffffffffffffffffffffffffffffffffffff9091168152602001610192565b600654610294907a010000000000000000000000000000000000000000000000000000900460ff1681565b6040519015158152602001610192565b6101336102b2366004611361565b610bde565b6101336102c536600461137a565b610c64565b6101336102d836600461131b565b610d22565b600654610244906601000000000000900473ffffffffffffffffffffffffffffffffffffffff1681565b61013361031536600461131b565b610df4565b6101bb610328366004611361565b60096020526000908152604090205481565b6006546601000000000000900473ffffffffffffffffffffffffffffffffffffffff1633146103ca576040517f08c379a000000000000000000000000000000000000000000000000000000000815260206004820152601e60248201527f4f6e6c79204c75636b732063616e2072657152616e646f6d4e756d626572000060448201526064015b60405180910390fd5b60008111610434576040517f08c379a000000000000000000000000000000000000000000000000000000000815260206004820152601160248201527f496e76616c6964206d617820696e70757400000000000000000000000000000060448201526064016103c1565b6000828152600a60205260409020541561044c575050565b600180546005546002546006546040517f5d3b1d3000000000000000000000000000000000000000000000000000000000815260048101939093527401000000000000000000000000000000000000000090910467ffffffffffffffff166024830152640100000000810461ffff16604483015263ffffffff166064820152608481019290925260009173ffffffffffffffffffffffffffffffffffffffff90911690635d3b1d309060a401602060405180830381600087803b15801561051257600080fd5b505af1158015610526573d6000803e3d6000fd5b505050506040513d601f19601f8201168201806040525081019061054a919061139e565b600081815260086020908152604080832087905560098252808320869055868352600a82529182902083905581518681529081018590529081018290529091507f3f13685560bd8b2517f69ad10b1e2367cc13dc8df09b982ad90e1119c6337c9f906060015b60405180910390a1505050565b60005473ffffffffffffffffffffffffffffffffffffffff16331461063e576040517f08c379a000000000000000000000000000000000000000000000000000000000815260206004820181905260248201527f4f776e61626c653a2063616c6c6572206973206e6f7420746865206f776e657260448201526064016103c1565b6000828152600a602052604081205460065490919061066990640100000000900461ffff16436115e8565b40434461067642876115ab565b61068091906115ab565b61068a91906115ab565b61069491906115ab565b6040516020016106a691815260200190565b604080517fffffffffffffffffffffffffffffffffffffffffffffffffffffffffffffffe08184030181529181528151602092830120600085815260099093529120549091506106f690826115ff565b610701906001611593565b600085815260076020526040902080547fffffffffffffffffffffffffffffffffffffffffffffffffffffffff000000001663ffffffff929092169190911790556006547a010000000000000000000000000000000000000000000000000000900460ff16801561079357506006546601000000000000900473ffffffffffffffffffffffffffffffffffffffff1615155b1561092e5760068054906101000a900473ffffffffffffffffffffffffffffffffffffffff1673ffffffffffffffffffffffffffffffffffffffff16634403968785604051806060016040528060008152602001600081526020016040518060400160405280600281526020017f30780000000000000000000000000000000000000000000000000000000000008152508152506040518363ffffffff1660e01b815260040161084492919061155d565b600060405180830381600087803b15801561085e57600080fd5b505af192505050801561086f575060015b6108e5573d80801561089d576040519150601f19603f3d011682016040523d82523d6000602084013e6108a2565b606091505b507f632e4e56974f42b94d2489bd9b1e3d89d1bbdcfb11e6a666f25b4595a1d9415c856000836040516108d793929190611533565b60405180910390a15061092e565b6040805185815260016020820152606081830181905260009082015290517f632e4e56974f42b94d2489bd9b1e3d89d1bbdcfb11e6a666f25b4595a1d9415c9181900360800190a15b60008481526008602090815260408083205460078352928190205460065482518981529384019490945290820184905263ffffffff1660608201527a01000000000000000000000000000000000000000000000000000090910460ff16151560808201527ff32cd93dc0a33c0dd303a798a66d386788465f65dc8dea5a7c322978e95787ab9060a00160405180910390a150505050565b3373ffffffffffffffffffffffffffffffffffffffff7f00000000000000000000000000000000000000000000000000000000000000001614610a72576040517f1cf993f400000000000000000000000000000000000000000000000000000000815233600482015273ffffffffffffffffffffffffffffffffffffffff7f00000000000000000000000000000000000000000000000000000000000000001660248201526044016103c1565b610a7c8282610f24565b5050565b60005473ffffffffffffffffffffffffffffffffffffffff163314610b01576040517f08c379a000000000000000000000000000000000000000000000000000000000815260206004820181905260248201527f4f776e61626c653a2063616c6c6572206973206e6f7420746865206f776e657260448201526064016103c1565b610b0b60006112a6565b565b60005473ffffffffffffffffffffffffffffffffffffffff163314610b8e576040517f08c379a000000000000000000000000000000000000000000000000000000000815260206004820181905260248201527f4f776e61626c653a2063616c6c6572206973206e6f7420746865206f776e657260448201526064016103c1565b600680549115157a010000000000000000000000000000000000000000000000000000027fffffffffff00ffffffffffffffffffffffffffffffffffffffffffffffffffff909216919091179055565b60005473ffffffffffffffffffffffffffffffffffffffff163314610c5f576040517f08c379a000000000000000000000000000000000000000000000000000000000815260206004820181905260248201527f4f776e61626c653a2063616c6c6572206973206e6f7420746865206f776e657260448201526064016103c1565b600555565b60005473ffffffffffffffffffffffffffffffffffffffff163314610ce5576040517f08c379a000000000000000000000000000000000000000000000000000000000815260206004820181905260248201527f4f776e61626c653a2063616c6c6572206973206e6f7420746865206f776e657260448201526064016103c1565b6006805461ffff909216640100000000027fffffffffffffffffffffffffffffffffffffffffffffffffffff0000ffffffff909216919091179055565b60005473ffffffffffffffffffffffffffffffffffffffff163314610da3576040517f08c379a000000000000000000000000000000000000000000000000000000000815260206004820181905260248201527f4f776e61626c653a2063616c6c6572206973206e6f7420746865206f776e657260448201526064016103c1565b6006805473ffffffffffffffffffffffffffffffffffffffff9092166601000000000000027fffffffffffff0000000000000000000000000000000000000000ffffffffffff909216919091179055565b60005473ffffffffffffffffffffffffffffffffffffffff163314610e75576040517f08c379a000000000000000000000000000000000000000000000000000000000815260206004820181905260248201527f4f776e61626c653a2063616c6c6572206973206e6f7420746865206f776e657260448201526064016103c1565b73ffffffffffffffffffffffffffffffffffffffff8116610f18576040517f08c379a000000000000000000000000000000000000000000000000000000000815260206004820152602660248201527f4f776e61626c653a206e6577206f776e657220697320746865207a65726f206160448201527f646472657373000000000000000000000000000000000000000000000000000060648201526084016103c1565b610f21816112a6565b50565b60008281526008602052604090205480610f9a576040517f08c379a000000000000000000000000000000000000000000000000000000000815260206004820152601960248201527f57726f6e67207461736b4964206f72207265717565737449640000000000000060448201526064016103c1565b600083815260096020526040812054835190918491610fbb57610fbb611669565b6020026020010151610fcd91906115ff565b610fd8906001611593565b600082815260076020526040902080547fffffffffffffffffffffffffffffffffffffffffffffffffffffffff000000001663ffffffff929092169190911790556006547a010000000000000000000000000000000000000000000000000000900460ff16801561106a57506006546601000000000000900473ffffffffffffffffffffffffffffffffffffffff1615155b156112055760068054906101000a900473ffffffffffffffffffffffffffffffffffffffff1673ffffffffffffffffffffffffffffffffffffffff16634403968782604051806060016040528060008152602001600081526020016040518060400160405280600281526020017f30780000000000000000000000000000000000000000000000000000000000008152508152506040518363ffffffff1660e01b815260040161111b92919061155d565b600060405180830381600087803b15801561113557600080fd5b505af1925050508015611146575060015b6111bc573d808015611174576040519150601f19603f3d011682016040523d82523d6000602084013e611179565b606091505b507f632e4e56974f42b94d2489bd9b1e3d89d1bbdcfb11e6a666f25b4595a1d9415c826000836040516111ae93929190611533565b60405180910390a150611205565b6040805182815260016020820152606081830181905260009082015290517f632e4e56974f42b94d2489bd9b1e3d89d1bbdcfb11e6a666f25b4595a1d9415c9181900360800190a15b7ff32cd93dc0a33c0dd303a798a66d386788465f65dc8dea5a7c322978e95787ab81848460008151811061123b5761123b611669565b6020908102919091018101516000868152600783526040908190205460065482519687529386019490945284015263ffffffff90911660608301527a010000000000000000000000000000000000000000000000000000900460ff161515608082015260a0016105b0565b6000805473ffffffffffffffffffffffffffffffffffffffff8381167fffffffffffffffffffffffff0000000000000000000000000000000000000000831681178455604051919092169283917f8be0079c531659141344cd1fd0a4f28419497f9722a3daafe3b4186f6b6457e09190a35050565b60006020828403121561132d57600080fd5b8135611338816116c7565b9392505050565b60006020828403121561135157600080fd5b8135801515811461133857600080fd5b60006020828403121561137357600080fd5b5035919050565b60006020828403121561138c57600080fd5b813561ffff8116811461133857600080fd5b6000602082840312156113b057600080fd5b5051919050565b600080604083850312156113ca57600080fd5b8235915060208084013567ffffffffffffffff808211156113ea57600080fd5b818601915086601f8301126113fe57600080fd5b81358181111561141057611410611698565b8060051b6040517fffffffffffffffffffffffffffffffffffffffffffffffffffffffffffffffe0603f8301168101818110858211171561145357611453611698565b604052828152858101935084860182860187018b101561147257600080fd5b600095505b83861015611495578035855260019590950194938601938601611477565b508096505050505050509250929050565b600080604083850312156114b957600080fd5b50508035926020909101359150565b6000815180845260005b818110156114ee576020818501810151868301820152016114d2565b81811115611500576000602083870101525b50601f017fffffffffffffffffffffffffffffffffffffffffffffffffffffffffffffffe0169290920160200192915050565b838152821515602082015260606040820152600061155460608301846114c8565b95945050505050565b828152604060208201528151604082015260208201516060820152600060408301516060608084015261155460a08401826114c8565b600082198211156115a6576115a661163a565b500190565b6000817fffffffffffffffffffffffffffffffffffffffffffffffffffffffffffffffff04831182151516156115e3576115e361163a565b500290565b6000828210156115fa576115fa61163a565b500390565b600082611635577f4e487b7100000000000000000000000000000000000000000000000000000000600052601260045260246000fd5b500690565b7f4e487b7100000000000000000000000000000000000000000000000000000000600052601160045260246000fd5b7f4e487b7100000000000000000000000000000000000000000000000000000000600052603260045260246000fd5b7f4e487b7100000000000000000000000000000000000000000000000000000000600052604160045260246000fd5b73ffffffffffffffffffffffffffffffffffffffff81168114610f2157600080fdfea2646970667358221220f00d99ab590ce74a2a42d5dd43d4423c169864f164b4623f60b65ecb37abf72664736f6c63430008060033",
  "devdoc": {
    "kind": "dev",
    "methods": {
      "owner()": {
        "details": "Returns the address of the current owner."
      },
      "renounceOwnership()": {
        "details": "Leaves the contract without owner. It will not be possible to call `onlyOwner` functions anymore. Can only be called by the current owner. NOTE: Renouncing ownership will leave the contract without an owner, thereby removing any functionality that is only available to the owner."
      },
      "reqRandomNumber(uint256,uint256)": {
        "params": {
          "max": ": max provided by the LucksExecutor (lastTicketId)"
        }
      },
      "setAutoPickWinner(bool)": {
        "params": {
          "_enable": ": true or false"
        }
      },
      "setExecutorAddress(address)": {
        "params": {
          "_executor": ": address of the PancakeSwap crowdluck"
        }
      },
      "setKeyHash(bytes32)": {
        "params": {
          "_keyHash": ": new keyHash"
        }
      },
      "setReqConfirmations(uint16)": {
        "params": {
          "num": ": num"
        }
      },
      "transferOwnership(address)": {
        "details": "Transfers ownership of the contract to a new account (`newOwner`). Can only be called by the current owner."
      }
    },
    "title": "Openluck VRF",
    "version": 1
  },
  "userdoc": {
    "kind": "user",
    "methods": {
      "callbackRandomWords(uint256,uint256)": {
        "notice": "Callback for enmergency case"
      },
      "reqRandomNumber(uint256,uint256)": {
        "notice": "Request randomness from a user-provided max"
      },
      "setAutoPickWinner(bool)": {
        "notice": "Change AutoPickWinner"
      },
      "setExecutorAddress(address)": {
        "notice": "Set the address for the Lucks"
      },
      "setKeyHash(bytes32)": {
        "notice": "Change the keyHash"
      },
      "setReqConfirmations(uint16)": {
        "notice": "Change the requestConfirmations"
      },
      "viewRandomResult(uint256)": {
        "notice": "View random result"
      }
    },
    "notice": "It is the contract for Randomness Number Generation",
    "version": 1
  },
  "storageLayout": {
    "storage": [
      {
        "astId": 307,
        "contract": "contracts/lucks/LucksVRF.sol:LucksVRF",
        "label": "_owner",
        "offset": 0,
        "slot": "0",
        "type": "t_address"
      },
      {
        "astId": 12873,
        "contract": "contracts/lucks/LucksVRF.sol:LucksVRF",
        "label": "COORDINATOR",
        "offset": 0,
        "slot": "1",
        "type": "t_contract(VRFCoordinatorV2Interface)299"
      },
      {
        "astId": 12876,
        "contract": "contracts/lucks/LucksVRF.sol:LucksVRF",
        "label": "LINKTOKEN",
        "offset": 0,
        "slot": "2",
        "type": "t_contract(LinkTokenInterface)210"
      },
      {
        "astId": 12878,
        "contract": "contracts/lucks/LucksVRF.sol:LucksVRF",
        "label": "s_subscriptionId",
        "offset": 20,
        "slot": "2",
        "type": "t_uint64"
      },
      {
        "astId": 12881,
        "contract": "contracts/lucks/LucksVRF.sol:LucksVRF",
        "label": "vrfCoordinator",
        "offset": 0,
        "slot": "3",
        "type": "t_address"
      },
      {
        "astId": 12884,
        "contract": "contracts/lucks/LucksVRF.sol:LucksVRF",
        "label": "link",
        "offset": 0,
        "slot": "4",
        "type": "t_address"
      },
      {
        "astId": 12887,
        "contract": "contracts/lucks/LucksVRF.sol:LucksVRF",
        "label": "keyHash",
        "offset": 0,
        "slot": "5",
        "type": "t_bytes32"
      },
      {
        "astId": 12890,
        "contract": "contracts/lucks/LucksVRF.sol:LucksVRF",
        "label": "callbackGasLimit",
        "offset": 0,
        "slot": "6",
        "type": "t_uint32"
      },
      {
        "astId": 12893,
        "contract": "contracts/lucks/LucksVRF.sol:LucksVRF",
        "label": "requestConfirmations",
        "offset": 4,
        "slot": "6",
        "type": "t_uint16"
      },
      {
        "astId": 12896,
        "contract": "contracts/lucks/LucksVRF.sol:LucksVRF",
        "label": "executor",
        "offset": 6,
        "slot": "6",
        "type": "t_contract(ILucksExecutor)8592"
      },
      {
        "astId": 12899,
        "contract": "contracts/lucks/LucksVRF.sol:LucksVRF",
        "label": "autoPickWinner",
        "offset": 26,
        "slot": "6",
        "type": "t_bool"
      },
      {
        "astId": 12903,
        "contract": "contracts/lucks/LucksVRF.sol:LucksVRF",
        "label": "randomResults",
        "offset": 0,
        "slot": "7",
        "type": "t_mapping(t_uint256,t_uint32)"
      },
      {
        "astId": 12907,
        "contract": "contracts/lucks/LucksVRF.sol:LucksVRF",
        "label": "requestToTaskId",
        "offset": 0,
        "slot": "8",
        "type": "t_mapping(t_uint256,t_uint256)"
      },
      {
        "astId": 12911,
        "contract": "contracts/lucks/LucksVRF.sol:LucksVRF",
        "label": "requestToMaxNum",
        "offset": 0,
        "slot": "9",
        "type": "t_mapping(t_uint256,t_uint256)"
      },
      {
        "astId": 12915,
        "contract": "contracts/lucks/LucksVRF.sol:LucksVRF",
        "label": "taskToRequestId",
        "offset": 0,
        "slot": "10",
        "type": "t_mapping(t_uint256,t_uint256)"
      }
    ],
    "types": {
      "t_address": {
        "encoding": "inplace",
        "label": "address",
        "numberOfBytes": "20"
      },
      "t_bool": {
        "encoding": "inplace",
        "label": "bool",
        "numberOfBytes": "1"
      },
      "t_bytes32": {
        "encoding": "inplace",
        "label": "bytes32",
        "numberOfBytes": "32"
      },
      "t_contract(ILucksExecutor)8592": {
        "encoding": "inplace",
        "label": "contract ILucksExecutor",
        "numberOfBytes": "20"
      },
      "t_contract(LinkTokenInterface)210": {
        "encoding": "inplace",
        "label": "contract LinkTokenInterface",
        "numberOfBytes": "20"
      },
      "t_contract(VRFCoordinatorV2Interface)299": {
        "encoding": "inplace",
        "label": "contract VRFCoordinatorV2Interface",
        "numberOfBytes": "20"
      },
      "t_mapping(t_uint256,t_uint256)": {
        "encoding": "mapping",
        "key": "t_uint256",
        "label": "mapping(uint256 => uint256)",
        "numberOfBytes": "32",
        "value": "t_uint256"
      },
      "t_mapping(t_uint256,t_uint32)": {
        "encoding": "mapping",
        "key": "t_uint256",
        "label": "mapping(uint256 => uint32)",
        "numberOfBytes": "32",
        "value": "t_uint32"
      },
      "t_uint16": {
        "encoding": "inplace",
        "label": "uint16",
        "numberOfBytes": "2"
      },
      "t_uint256": {
        "encoding": "inplace",
        "label": "uint256",
        "numberOfBytes": "32"
      },
      "t_uint32": {
        "encoding": "inplace",
        "label": "uint32",
        "numberOfBytes": "4"
      },
      "t_uint64": {
        "encoding": "inplace",
        "label": "uint64",
        "numberOfBytes": "8"
      }
    }
  }
}