{
  "address": "0x40431d6bB6EF4defb6093d628b8BFa29c06A0198",
  "abi": [
    {
      "inputs": [
        {
          "internalType": "address",
          "name": "_keeperRegAddr",
          "type": "address"
        },
        {
          "internalType": "contract ILucksExecutor",
          "name": "_executor",
          "type": "address"
        }
      ],
      "stateMutability": "nonpayable",
      "type": "constructor"
    },
    {
      "anonymous": false,
      "inputs": [
        {
          "indexed": false,
          "internalType": "uint256",
          "name": "amountAdded",
          "type": "uint256"
        },
        {
          "indexed": false,
          "internalType": "uint256",
          "name": "newBalance",
          "type": "uint256"
        },
        {
          "indexed": false,
          "internalType": "address",
          "name": "sender",
          "type": "address"
        }
      ],
      "name": "FundsAdded",
      "type": "event"
    },
    {
      "anonymous": false,
      "inputs": [
        {
          "indexed": false,
          "internalType": "uint256",
          "name": "amountWithdrawn",
          "type": "uint256"
        },
        {
          "indexed": false,
          "internalType": "address",
          "name": "payee",
          "type": "address"
        }
      ],
      "name": "FundsWithdrawn",
      "type": "event"
    },
    {
      "anonymous": false,
      "inputs": [
        {
          "indexed": false,
          "internalType": "address",
          "name": "oldAddress",
          "type": "address"
        },
        {
          "indexed": false,
          "internalType": "address",
          "name": "newAddress",
          "type": "address"
        }
      ],
      "name": "KeeperRegistryAddressUpdated",
      "type": "event"
    },
    {
      "anonymous": false,
      "inputs": [
        {
          "indexed": false,
          "internalType": "uint256",
          "name": "oldMinWaitPeriod",
          "type": "uint256"
        },
        {
          "indexed": false,
          "internalType": "uint256",
          "name": "newMinWaitPeriod",
          "type": "uint256"
        }
      ],
      "name": "MinWaitPeriodUpdated",
      "type": "event"
    },
    {
      "anonymous": false,
      "inputs": [
        {
          "indexed": true,
          "internalType": "address",
          "name": "previousOwner",
          "type": "address"
        },
        {
          "indexed": true,
          "internalType": "address",
          "name": "newOwner",
          "type": "address"
        }
      ],
      "name": "OwnershipTransferred",
      "type": "event"
    },
    {
      "anonymous": false,
      "inputs": [
        {
          "indexed": false,
          "internalType": "address",
          "name": "account",
          "type": "address"
        }
      ],
      "name": "Paused",
      "type": "event"
    },
    {
      "anonymous": false,
      "inputs": [
        {
          "indexed": false,
          "internalType": "uint256",
          "name": "taskId",
          "type": "uint256"
        },
        {
          "indexed": false,
          "internalType": "bytes",
          "name": "reason",
          "type": "bytes"
        }
      ],
      "name": "RevertInvoke",
      "type": "event"
    },
    {
      "anonymous": false,
      "inputs": [
        {
          "indexed": false,
          "internalType": "address",
          "name": "account",
          "type": "address"
        }
      ],
      "name": "Unpaused",
      "type": "event"
    },
    {
      "inputs": [],
      "name": "BATCH_PERFORM_LIMIT",
      "outputs": [
        {
          "internalType": "uint256",
          "name": "",
          "type": "uint256"
        }
      ],
      "stateMutability": "view",
      "type": "function"
    },
    {
      "inputs": [],
      "name": "DST_GAS_AMOUNT",
      "outputs": [
        {
          "internalType": "uint256",
          "name": "",
          "type": "uint256"
        }
      ],
      "stateMutability": "view",
      "type": "function"
    },
    {
      "inputs": [],
      "name": "KEEPER",
      "outputs": [
        {
          "internalType": "address",
          "name": "",
          "type": "address"
        }
      ],
      "stateMutability": "view",
      "type": "function"
    },
    {
      "inputs": [
        {
          "internalType": "uint256",
          "name": "taskId",
          "type": "uint256"
        },
        {
          "internalType": "uint256",
          "name": "endTime",
          "type": "uint256"
        }
      ],
      "name": "addTask",
      "outputs": [],
      "stateMutability": "nonpayable",
      "type": "function"
    },
    {
      "inputs": [
        {
          "internalType": "bytes",
          "name": "",
          "type": "bytes"
        }
      ],
      "name": "checkUpkeep",
      "outputs": [
        {
          "internalType": "bool",
          "name": "upkeepNeeded",
          "type": "bool"
        },
        {
          "internalType": "bytes",
          "name": "performData",
          "type": "bytes"
        }
      ],
      "stateMutability": "view",
      "type": "function"
    },
    {
      "inputs": [],
      "name": "executor",
      "outputs": [
        {
          "internalType": "contract ILucksExecutor",
          "name": "",
          "type": "address"
        }
      ],
      "stateMutability": "view",
      "type": "function"
    },
    {
      "inputs": [],
      "name": "first",
      "outputs": [
        {
          "internalType": "uint256",
          "name": "",
          "type": "uint256"
        }
      ],
      "stateMutability": "view",
      "type": "function"
    },
    {
      "inputs": [
        {
          "internalType": "uint256",
          "name": "taskId",
          "type": "uint256"
        }
      ],
      "name": "get",
      "outputs": [
        {
          "internalType": "uint256",
          "name": "",
          "type": "uint256"
        }
      ],
      "stateMutability": "view",
      "type": "function"
    },
    {
      "inputs": [],
      "name": "getQueueTasks",
      "outputs": [
        {
          "internalType": "uint256[]",
          "name": "",
          "type": "uint256[]"
        }
      ],
      "stateMutability": "view",
      "type": "function"
    },
    {
      "inputs": [
        {
          "internalType": "uint256",
          "name": "taskId",
          "type": "uint256"
        }
      ],
      "name": "next",
      "outputs": [
        {
          "internalType": "uint256",
          "name": "",
          "type": "uint256"
        }
      ],
      "stateMutability": "view",
      "type": "function"
    },
    {
      "inputs": [],
      "name": "owner",
      "outputs": [
        {
          "internalType": "address",
          "name": "",
          "type": "address"
        }
      ],
      "stateMutability": "view",
      "type": "function"
    },
    {
      "inputs": [],
      "name": "pause",
      "outputs": [],
      "stateMutability": "nonpayable",
      "type": "function"
    },
    {
      "inputs": [],
      "name": "paused",
      "outputs": [
        {
          "internalType": "bool",
          "name": "",
          "type": "bool"
        }
      ],
      "stateMutability": "view",
      "type": "function"
    },
    {
      "inputs": [
        {
          "internalType": "bytes",
          "name": "performData",
          "type": "bytes"
        }
      ],
      "name": "performUpkeep",
      "outputs": [],
      "stateMutability": "nonpayable",
      "type": "function"
    },
    {
      "inputs": [
        {
          "internalType": "uint256",
          "name": "taskId",
          "type": "uint256"
        }
      ],
      "name": "removeTask",
      "outputs": [],
      "stateMutability": "nonpayable",
      "type": "function"
    },
    {
      "inputs": [],
      "name": "renounceOwnership",
      "outputs": [],
      "stateMutability": "nonpayable",
      "type": "function"
    },
    {
      "inputs": [
        {
          "internalType": "uint256",
          "name": "num",
          "type": "uint256"
        }
      ],
      "name": "setBatchPerformLimist",
      "outputs": [],
      "stateMutability": "nonpayable",
      "type": "function"
    },
    {
      "inputs": [
        {
          "internalType": "uint256",
          "name": "amount",
          "type": "uint256"
        }
      ],
      "name": "setDstGasAmount",
      "outputs": [],
      "stateMutability": "nonpayable",
      "type": "function"
    },
    {
      "inputs": [
        {
          "internalType": "contract ILucksExecutor",
          "name": "_executor",
          "type": "address"
        }
      ],
      "name": "setExecutor",
      "outputs": [],
      "stateMutability": "nonpayable",
      "type": "function"
    },
    {
      "inputs": [
        {
          "internalType": "address",
          "name": "_keeperRegAddr",
          "type": "address"
        }
      ],
      "name": "setKeeper",
      "outputs": [],
      "stateMutability": "nonpayable",
      "type": "function"
    },
    {
      "inputs": [],
      "name": "size",
      "outputs": [
        {
          "internalType": "uint256",
          "name": "",
          "type": "uint256"
        }
      ],
      "stateMutability": "view",
      "type": "function"
    },
    {
      "inputs": [
        {
          "internalType": "address",
          "name": "newOwner",
          "type": "address"
        }
      ],
      "name": "transferOwnership",
      "outputs": [],
      "stateMutability": "nonpayable",
      "type": "function"
    },
    {
      "inputs": [],
      "name": "unpause",
      "outputs": [],
      "stateMutability": "nonpayable",
      "type": "function"
    },
    {
      "inputs": [
        {
          "internalType": "uint256",
          "name": "amount",
          "type": "uint256"
        },
        {
          "internalType": "address payable",
          "name": "payee",
          "type": "address"
        }
      ],
      "name": "withdraw",
      "outputs": [],
      "stateMutability": "nonpayable",
      "type": "function"
    },
    {
      "stateMutability": "payable",
      "type": "receive"
    }
  ],
  "transactionHash": "0x70d778c731249e30f1625afe45c0e8e26efde7241f2c2700c45533fc4e7aa1bb",
  "args": [
    "0x0000000000000000000000000000000000000000",
    "0x0C2Ee72fb44036039fEF429Dd067cA46483B66dD"
  ],
  "numDeployments": 1,
  "solcInputHash": "177ed0f2b9f34374598af4314d3fc464",
  "bytecode": "0x6080604052600a60075560006008553480156200001b57600080fd5b5060405162001f4138038062001f418339810160408190526200003e91620000d8565b620000493362000088565b6000805460ff60a01b19169055600980546001600160a01b039384166001600160a01b031991821617909155600a805492909316911617905562000130565b600080546001600160a01b038381166001600160a01b0319831681178455604051919092169283917f8be0079c531659141344cd1fd0a4f28419497f9722a3daafe3b4186f6b6457e09190a35050565b60008060408385031215620000ec57600080fd5b8251620000f98162000117565b60208401519092506200010c8162000117565b809150509250929050565b6001600160a01b03811681146200012d57600080fd5b50565b611e0180620001406000396000f3fe60806040526004361061018d5760003560e01c8063862a179e116100d6578063c30841171161007f578063d6ff17a011610059578063d6ff17a0146104d0578063edd004e5146104e6578063f2fde38b1461050657600080fd5b8063c308411714610461578063c34c08e514610481578063c81c6c7c146104ae57600080fd5b80639507d39a116100b05780639507d39a146103fb578063aa0a31001461042b578063b15269a51461044b57600080fd5b8063862a179e146103695780638da5cb5b146103bb578063949d225d146103e657600080fd5b80634585e33b11610138578063715018a611610112578063715018a61461031f578063748747e6146103345780638456cb591461035457600080fd5b80634585e33b146102965780635c975abb146102b65780636e04ff0d146102f157600080fd5b80631c3c0ea8116101695780631c3c0ea8146102395780633df4ddf4146102595780633f4ba83a1461028157600080fd5b8062b34ebd146101d7578062f714ce146101f95780630fbeb0321461021957600080fd5b366101d25760408051348152476020820152338183015290517fc6f3fb0fec49e4877342d4625d77a632541f55b7aae0f9d0b34c69b3478706dc9181900360600190a1005b600080fd5b3480156101e357600080fd5b506101f76101f2366004611b0f565b610526565b005b34801561020557600080fd5b506101f7610214366004611adf565b6105f3565b34801561022557600080fd5b506101f7610234366004611ac6565b61072a565b34801561024557600080fd5b506101f761025436600461194d565b6107b0565b34801561026557600080fd5b5061026e610878565b6040519081526020015b60405180910390f35b34801561028d57600080fd5b506101f7610889565b3480156102a257600080fd5b506101f76102b1366004611a54565b610914565b3480156102c257600080fd5b5060005474010000000000000000000000000000000000000000900460ff166040519015158152602001610278565b3480156102fd57600080fd5b5061031161030c366004611a54565b610a55565b604051610278929190611be0565b34801561032b57600080fd5b506101f7610b1b565b34801561034057600080fd5b506101f761034f36600461194d565b610ba6565b34801561036057600080fd5b506101f7610ce2565b34801561037557600080fd5b506009546103969073ffffffffffffffffffffffffffffffffffffffff1681565b60405173ffffffffffffffffffffffffffffffffffffffff9091168152602001610278565b3480156103c757600080fd5b5060005473ffffffffffffffffffffffffffffffffffffffff16610396565b3480156103f257600080fd5b5060015461026e565b34801561040757600080fd5b5061026e610416366004611ac6565b60009081526006602052604090206001015490565b34801561043757600080fd5b506101f7610446366004611ac6565b610d6b565b34801561045757600080fd5b5061026e60085481565b34801561046d57600080fd5b506101f761047c366004611ac6565b610e5b565b34801561048d57600080fd5b50600a546103969073ffffffffffffffffffffffffffffffffffffffff1681565b3480156104ba57600080fd5b506104c3610f0a565b6040516102789190611b9c565b3480156104dc57600080fd5b5061026e60075481565b3480156104f257600080fd5b5061026e610501366004611ac6565b610ff1565b34801561051257600080fd5b506101f761052136600461194d565b611007565b600a5473ffffffffffffffffffffffffffffffffffffffff16331480610563575060005473ffffffffffffffffffffffffffffffffffffffff1633145b6105ce576040517f08c379a000000000000000000000000000000000000000000000000000000000815260206004820152600c60248201527f6f6e6c794578656375746f72000000000000000000000000000000000000000060448201526064015b60405180910390fd5b6000821180156105de5750600081115b156105ef576105ef60018383611134565b5050565b60005473ffffffffffffffffffffffffffffffffffffffff163314610674576040517f08c379a000000000000000000000000000000000000000000000000000000000815260206004820181905260248201527f4f776e61626c653a2063616c6c6572206973206e6f7420746865206f776e657260448201526064016105c5565b73ffffffffffffffffffffffffffffffffffffffff811661069457600080fd5b6040805183815273ffffffffffffffffffffffffffffffffffffffff831660208201527f6141b54b56b8a52a8c6f5cd2a857f6117b18ffbf4d46bd3106f300a839cbf5ea910160405180910390a160405173ffffffffffffffffffffffffffffffffffffffff82169083156108fc029084906000818181858888f19350505050158015610725573d6000803e3d6000fd5b505050565b60005473ffffffffffffffffffffffffffffffffffffffff1633146107ab576040517f08c379a000000000000000000000000000000000000000000000000000000000815260206004820181905260248201527f4f776e61626c653a2063616c6c6572206973206e6f7420746865206f776e657260448201526064016105c5565b600855565b60005473ffffffffffffffffffffffffffffffffffffffff163314610831576040517f08c379a000000000000000000000000000000000000000000000000000000000815260206004820181905260248201527f4f776e61626c653a2063616c6c6572206973206e6f7420746865206f776e657260448201526064016105c5565b600a80547fffffffffffffffffffffffff00000000000000000000000000000000000000001673ffffffffffffffffffffffffffffffffffffffff92909216919091179055565b60006108846001611278565b905090565b60005473ffffffffffffffffffffffffffffffffffffffff16331461090a576040517f08c379a000000000000000000000000000000000000000000000000000000000815260206004820181905260248201527f4f776e61626c653a2063616c6c6572206973206e6f7420746865206f776e657260448201526064016105c5565b61091261128e565b565b60005474010000000000000000000000000000000000000000900460ff1615610999576040517f08c379a000000000000000000000000000000000000000000000000000000000815260206004820152601060248201527f5061757361626c653a207061757365640000000000000000000000000000000060448201526064016105c5565b60095473ffffffffffffffffffffffffffffffffffffffff163314806109d6575060005473ffffffffffffffffffffffffffffffffffffffff1633145b610a3c576040517f08c379a000000000000000000000000000000000000000000000000000000000815260206004820152601260248201527f6f6e6c794b65657065725265676973747279000000000000000000000000000060448201526064016105c5565b6000610a4a82840184611971565b905061072581611387565b6000805460609074010000000000000000000000000000000000000000900460ff1615610ade576040517f08c379a000000000000000000000000000000000000000000000000000000000815260206004820152601060248201527f5061757361626c653a207061757365640000000000000000000000000000000060448201526064016105c5565b6000610ae8610f0a565b90506000815111925080604051602001610b029190611b9c565b6040516020818303038152906040529150509250929050565b60005473ffffffffffffffffffffffffffffffffffffffff163314610b9c576040517f08c379a000000000000000000000000000000000000000000000000000000000815260206004820181905260248201527f4f776e61626c653a2063616c6c6572206973206e6f7420746865206f776e657260448201526064016105c5565b6109126000611551565b60005473ffffffffffffffffffffffffffffffffffffffff163314610c27576040517f08c379a000000000000000000000000000000000000000000000000000000000815260206004820181905260248201527f4f776e61626c653a2063616c6c6572206973206e6f7420746865206f776e657260448201526064016105c5565b73ffffffffffffffffffffffffffffffffffffffff8116610c4757600080fd5b6009546040805173ffffffffffffffffffffffffffffffffffffffff928316815291831660208301527fb732223055abcde751d7a24272ffc8a3aa571cb72b443969a4199b7ecd59f8b9910160405180910390a1600980547fffffffffffffffffffffffff00000000000000000000000000000000000000001673ffffffffffffffffffffffffffffffffffffffff92909216919091179055565b60005473ffffffffffffffffffffffffffffffffffffffff163314610d63576040517f08c379a000000000000000000000000000000000000000000000000000000000815260206004820181905260248201527f4f776e61626c653a2063616c6c6572206973206e6f7420746865206f776e657260448201526064016105c5565b6109126115c6565b60005473ffffffffffffffffffffffffffffffffffffffff163314610dec576040517f08c379a000000000000000000000000000000000000000000000000000000000815260206004820181905260248201527f4f776e61626c653a2063616c6c6572206973206e6f7420746865206f776e657260448201526064016105c5565b60008111610e56576040517f08c379a000000000000000000000000000000000000000000000000000000000815260206004820152601160248201527f496e76616c6964206c696d6974206e756d00000000000000000000000000000060448201526064016105c5565b600755565b600a5473ffffffffffffffffffffffffffffffffffffffff16331480610e98575060005473ffffffffffffffffffffffffffffffffffffffff1633145b610efe576040517f08c379a000000000000000000000000000000000000000000000000000000000815260206004820152600c60248201527f6f6e6c794578656375746f72000000000000000000000000000000000000000060448201526064016105c5565b610f07816116b2565b50565b6060600060075467ffffffffffffffff811115610f2957610f29611d7a565b604051908082528060200260200182016040528015610f52578160200160208202803683370190505b509050600080610f626001611278565b90505b600081118015610f76575060075482105b15610fdc576000818152600660205260409020600101544210610fc35780838381518110610fa657610fa6611d4b565b602090810291909101015281610fbb81611ce3565b925050610fc8565b610fdc565b600090815260056020526040902054610f65565b6007548214610fe9578183525b509092915050565b6000818152600560205260408120545b92915050565b60005473ffffffffffffffffffffffffffffffffffffffff163314611088576040517f08c379a000000000000000000000000000000000000000000000000000000000815260206004820181905260248201527f4f776e61626c653a2063616c6c6572206973206e6f7420746865206f776e657260448201526064016105c5565b73ffffffffffffffffffffffffffffffffffffffff811661112b576040517f08c379a000000000000000000000000000000000000000000000000000000000815260206004820152602660248201527f4f776e61626c653a206e6577206f776e657220697320746865207a65726f206160448201527f646472657373000000000000000000000000000000000000000000000000000060648201526084016105c5565b610f0781611551565b6000821161119e576040517f08c379a000000000000000000000000000000000000000000000000000000000815260206004820152600e60248201527f72657175697265206964203e203000000000000000000000000000000000000060448201526064016105c5565b6000828152600584016020526040902060010154156111bc57505050565b60006111c884836116bd565b6000818152600486016020908152604080832080549088905587845281842081905581516060810183528881528084018881528184018781528a875260058c019095529290942093518455905160018401559051600290920191909155909150806112475760018501849055600385018290556002850183905561125e565b600081815260058601602052604090206002018490555b845485600061126c83611ce3565b91905055505050505050565b6000808052600482016020526040812054611001565b60005474010000000000000000000000000000000000000000900460ff16611312576040517f08c379a000000000000000000000000000000000000000000000000000000000815260206004820152601460248201527f5061757361626c653a206e6f742070617573656400000000000000000000000060448201526064016105c5565b600080547fffffffffffffffffffffff00ffffffffffffffffffffffffffffffffffffffff1690557f5db9ee0a495bf2e6ff9c91a7834c1ba4fdd244a5e8aa4e537bd38aeae4b073aa335b60405173ffffffffffffffffffffffffffffffffffffffff909116815260200160405180910390a1565b600060405180608001604052806008548152602001600081526020016040518060400160405280600281526020017f307800000000000000000000000000000000000000000000000000000000000081525081526020016040518060400160405280600281526020017f3078000000000000000000000000000000000000000000000000000000000000815250815250905060005b825181101561072557600083828151811061143957611439611d4b565b6020026020010151905061144c816116b2565b600a546040517fef2d237600000000000000000000000000000000000000000000000000000000815273ffffffffffffffffffffffffffffffffffffffff9091169063ef2d2376906114a49084908790600401611c1c565b600060405180830381600087803b1580156114be57600080fd5b505af19250505080156114cf575060015b61153e573d8080156114fd576040519150601f19603f3d011682016040523d82523d6000602084013e611502565b606091505b507f1e636779d1e9049055334d85cd9ecc858646d430080ac176057b6e43eaad421a8282604051611534929190611c03565b60405180910390a1505b508061154981611ce3565b91505061141c565b6000805473ffffffffffffffffffffffffffffffffffffffff8381167fffffffffffffffffffffffff0000000000000000000000000000000000000000831681178455604051919092169283917f8be0079c531659141344cd1fd0a4f28419497f9722a3daafe3b4186f6b6457e09190a35050565b60005474010000000000000000000000000000000000000000900460ff161561164b576040517f08c379a000000000000000000000000000000000000000000000000000000000815260206004820152601060248201527f5061757361626c653a207061757365640000000000000000000000000000000060448201526064016105c5565b600080547fffffffffffffffffffffff00ffffffffffffffffffffffffffffffffffffffff16740100000000000000000000000000000000000000001790557f62e78cea01bee320cd4e420270b5ea74000d11b0c9f74754ebdbfc544b05a25861135d3390565b610f07600182611854565b6000808211611728576040517f08c379a000000000000000000000000000000000000000000000000000000000815260206004820152601260248201527f7265717569726520746172676574203e2030000000000000000000000000000060448201526064016105c5565b825461173657506000611001565b6001830154600284015480841061174f57509050611001565b600061175a86611278565b6000818152600588016020526040902060010154909150808611611785576000945050505050611001565b600060016117938584611c96565b901c90508087106117f257845b80156117ec576117b089826118ef565b90506000811180156117d55750600081815260058a0160205260409020600101548810155b156117e7579550611001945050505050565b6117a0565b50611846565b825b8015611844576000908152600489016020526040902054801580159061182d5750600081815260058a0160205260409020600101548810155b1561183f579550611001945050505050565b6117f4565b505b506000979650505050505050565b61185e8282611923565b156105ef57600081815260058301602090815260408083208381556001810184905560020183905560048501909152812081905561189c83836118ef565b600083815260048501602052604080822054838352912081905590915080156118d657600081815260058501602052604090206002018290555b83548460006118e483611cae565b919050555050505050565b60006118fb8383611923565b1561191a57506000818152600583016020526040902060020154611001565b50600092915050565b600080821161193157600080fd5b5060009081526005919091016020526040902060010154151590565b60006020828403121561195f57600080fd5b813561196a81611da9565b9392505050565b6000602080838503121561198457600080fd5b823567ffffffffffffffff8082111561199c57600080fd5b818501915085601f8301126119b057600080fd5b8135818111156119c2576119c2611d7a565b8060051b6040517fffffffffffffffffffffffffffffffffffffffffffffffffffffffffffffffe0603f83011681018181108582111715611a0557611a05611d7a565b604052828152858101935084860182860187018a1015611a2457600080fd5b600095505b83861015611a47578035855260019590950194938601938601611a29565b5098975050505050505050565b60008060208385031215611a6757600080fd5b823567ffffffffffffffff80821115611a7f57600080fd5b818501915085601f830112611a9357600080fd5b813581811115611aa257600080fd5b866020828501011115611ab457600080fd5b60209290920196919550909350505050565b600060208284031215611ad857600080fd5b5035919050565b60008060408385031215611af257600080fd5b823591506020830135611b0481611da9565b809150509250929050565b60008060408385031215611b2257600080fd5b50508035926020909101359150565b6000815180845260005b81811015611b5757602081850181015186830182015201611b3b565b81811115611b69576000602083870101525b50601f017fffffffffffffffffffffffffffffffffffffffffffffffffffffffffffffffe0169290920160200192915050565b6020808252825182820181905260009190848201906040850190845b81811015611bd457835183529284019291840191600101611bb8565b50909695505050505050565b8215158152604060208201526000611bfb6040830184611b31565b949350505050565b828152604060208201526000611bfb6040830184611b31565b82815260406020820152815160408201526020820151606082015260006040830151608080840152611c5160c0840182611b31565b905060608401517fffffffffffffffffffffffffffffffffffffffffffffffffffffffffffffffc08483030160a0850152611c8c8282611b31565b9695505050505050565b60008219821115611ca957611ca9611d1c565b500190565b600081611cbd57611cbd611d1c565b507fffffffffffffffffffffffffffffffffffffffffffffffffffffffffffffffff0190565b60007fffffffffffffffffffffffffffffffffffffffffffffffffffffffffffffffff821415611d1557611d15611d1c565b5060010190565b7f4e487b7100000000000000000000000000000000000000000000000000000000600052601160045260246000fd5b7f4e487b7100000000000000000000000000000000000000000000000000000000600052603260045260246000fd5b7f4e487b7100000000000000000000000000000000000000000000000000000000600052604160045260246000fd5b73ffffffffffffffffffffffffffffffffffffffff81168114610f0757600080fdfea26469706673582212207f54e7df3691e220ad0d8091c7c5df66f9cc02c7e06fed587e26d42e7044106e64736f6c63430008060033",
  "devdoc": {
    "kind": "dev",
    "methods": {
      "constructor": {
        "params": {
          "_executor": "The LucksExecutor contract",
          "_keeperRegAddr": "The address of the keeper registry contract"
        }
      },
      "owner()": {
        "details": "Returns the address of the current owner."
      },
      "paused()": {
        "details": "Returns true if the contract is paused, and false otherwise."
      },
      "performUpkeep(bytes)": {
        "details": "The input to this method should not be trusted, and the caller of the method should not even be restricted to any single registry. Anyone should be able call it, and the input should be validated, there is no guarantee that the data passed in is the performData returned from checkUpkeep. This could happen due to malicious keepers, racing keepers, or simply a state change while the performUpkeep transaction is waiting for confirmation. Always validate the data passed in.",
        "params": {
          "performData": "is the data which was passed back from the checkData simulation. If it is encoded, it can easily be decoded into other types by calling `abi.decode`. This data should not be trusted, and should be validated against the contract's current state."
        }
      },
      "renounceOwnership()": {
        "details": "Leaves the contract without owner. It will not be possible to call `onlyOwner` functions anymore. Can only be called by the current owner. NOTE: Renouncing ownership will leave the contract without an owner, thereby removing any functionality that is only available to the owner."
      },
      "transferOwnership(address)": {
        "details": "Transfers ownership of the contract to a new account (`newOwner`). Can only be called by the current owner."
      },
      "withdraw(uint256,address)": {
        "params": {
          "amount": "The amount of eth (in wei) to withdraw",
          "payee": "The address to pay"
        }
      }
    },
    "version": 1
  },
  "userdoc": {
    "kind": "user",
    "methods": {
      "pause()": {
        "notice": "Pauses the contract, which prevents executing performUpkeep"
      },
      "performUpkeep(bytes)": {
        "notice": "method that is actually executed by the keepers, via the registry. The data returned by the checkUpkeep simulation will be passed into this method to actually be executed."
      },
      "setExecutor(address)": {
        "notice": "set operator"
      },
      "setKeeper(address)": {
        "notice": "Sets the keeper registry address"
      },
      "unpause()": {
        "notice": "Unpauses the contract"
      },
      "withdraw(uint256,address)": {
        "notice": "Withdraws the contract balance"
      }
    },
    "version": 1
  },
  "storageLayout": {
    "storage": [
      {
        "astId": 917,
        "contract": "contracts/lucks/LucksAutoCloseTask.sol:LucksAutoCloseTask",
        "label": "_owner",
        "offset": 0,
        "slot": "0",
        "type": "t_address"
      },
      {
        "astId": 1032,
        "contract": "contracts/lucks/LucksAutoCloseTask.sol:LucksAutoCloseTask",
        "label": "_paused",
        "offset": 20,
        "slot": "0",
        "type": "t_bool"
      },
      {
        "astId": 12816,
        "contract": "contracts/lucks/LucksAutoCloseTask.sol:LucksAutoCloseTask",
        "label": "taskList",
        "offset": 0,
        "slot": "1",
        "type": "t_struct(SortedMap)12334_storage"
      },
      {
        "astId": 12819,
        "contract": "contracts/lucks/LucksAutoCloseTask.sol:LucksAutoCloseTask",
        "label": "BATCH_PERFORM_LIMIT",
        "offset": 0,
        "slot": "7",
        "type": "t_uint256"
      },
      {
        "astId": 12822,
        "contract": "contracts/lucks/LucksAutoCloseTask.sol:LucksAutoCloseTask",
        "label": "DST_GAS_AMOUNT",
        "offset": 0,
        "slot": "8",
        "type": "t_uint256"
      },
      {
        "astId": 12824,
        "contract": "contracts/lucks/LucksAutoCloseTask.sol:LucksAutoCloseTask",
        "label": "KEEPER",
        "offset": 0,
        "slot": "9",
        "type": "t_address"
      },
      {
        "astId": 12827,
        "contract": "contracts/lucks/LucksAutoCloseTask.sol:LucksAutoCloseTask",
        "label": "executor",
        "offset": 0,
        "slot": "10",
        "type": "t_contract(ILucksExecutor)9853"
      }
    ],
    "types": {
      "t_address": {
        "encoding": "inplace",
        "label": "address",
        "numberOfBytes": "20"
      },
      "t_bool": {
        "encoding": "inplace",
        "label": "bool",
        "numberOfBytes": "1"
      },
      "t_contract(ILucksExecutor)9853": {
        "encoding": "inplace",
        "label": "contract ILucksExecutor",
        "numberOfBytes": "20"
      },
      "t_mapping(t_uint256,t_struct(Item)12313_storage)": {
        "encoding": "mapping",
        "key": "t_uint256",
        "label": "mapping(uint256 => struct SortedLinkMap.Item)",
        "numberOfBytes": "32",
        "value": "t_struct(Item)12313_storage"
      },
      "t_mapping(t_uint256,t_uint256)": {
        "encoding": "mapping",
        "key": "t_uint256",
        "label": "mapping(uint256 => uint256)",
        "numberOfBytes": "32",
        "value": "t_uint256"
      },
      "t_struct(Item)12313_storage": {
        "encoding": "inplace",
        "label": "struct SortedLinkMap.Item",
        "members": [
          {
            "astId": 12308,
            "contract": "contracts/lucks/LucksAutoCloseTask.sol:LucksAutoCloseTask",
            "label": "id",
            "offset": 0,
            "slot": "0",
            "type": "t_uint256"
          },
          {
            "astId": 12310,
            "contract": "contracts/lucks/LucksAutoCloseTask.sol:LucksAutoCloseTask",
            "label": "value",
            "offset": 0,
            "slot": "1",
            "type": "t_uint256"
          },
          {
            "astId": 12312,
            "contract": "contracts/lucks/LucksAutoCloseTask.sol:LucksAutoCloseTask",
            "label": "leftId",
            "offset": 0,
            "slot": "2",
            "type": "t_uint256"
          }
        ],
        "numberOfBytes": "96"
      },
      "t_struct(SortedMap)12334_storage": {
        "encoding": "inplace",
        "label": "struct SortedLinkMap.SortedMap",
        "members": [
          {
            "astId": 12321,
            "contract": "contracts/lucks/LucksAutoCloseTask.sol:LucksAutoCloseTask",
            "label": "count",
            "offset": 0,
            "slot": "0",
            "type": "t_uint256"
          },
          {
            "astId": 12324,
            "contract": "contracts/lucks/LucksAutoCloseTask.sol:LucksAutoCloseTask",
            "label": "max",
            "offset": 0,
            "slot": "1",
            "type": "t_struct(Item)12313_storage"
          },
          {
            "astId": 12328,
            "contract": "contracts/lucks/LucksAutoCloseTask.sol:LucksAutoCloseTask",
            "label": "keys",
            "offset": 0,
            "slot": "4",
            "type": "t_mapping(t_uint256,t_uint256)"
          },
          {
            "astId": 12333,
            "contract": "contracts/lucks/LucksAutoCloseTask.sol:LucksAutoCloseTask",
            "label": "nodes",
            "offset": 0,
            "slot": "5",
            "type": "t_mapping(t_uint256,t_struct(Item)12313_storage)"
          }
        ],
        "numberOfBytes": "192"
      },
      "t_uint256": {
        "encoding": "inplace",
        "label": "uint256",
        "numberOfBytes": "32"
      }
    }
  }
}