{
  "address": "0x59177187D5d2cefcE8EfF03734Cf4063d2212D1F",
  "abi": [
    {
      "inputs": [
        {
          "internalType": "address",
          "name": "_keeperRegAddr",
          "type": "address"
        },
        {
          "internalType": "contract ILucksExecutor",
          "name": "_executor",
          "type": "address"
        },
        {
          "internalType": "contract ILucksBridge",
          "name": "_bridge",
          "type": "address"
        },
        {
          "internalType": "uint16",
          "name": "_lzChainId",
          "type": "uint16"
        }
      ],
      "stateMutability": "nonpayable",
      "type": "constructor"
    },
    {
      "anonymous": false,
      "inputs": [
        {
          "indexed": false,
          "internalType": "uint256",
          "name": "amountAdded",
          "type": "uint256"
        },
        {
          "indexed": false,
          "internalType": "uint256",
          "name": "newBalance",
          "type": "uint256"
        },
        {
          "indexed": false,
          "internalType": "address",
          "name": "sender",
          "type": "address"
        }
      ],
      "name": "FundsAdded",
      "type": "event"
    },
    {
      "anonymous": false,
      "inputs": [
        {
          "indexed": false,
          "internalType": "uint256",
          "name": "amountWithdrawn",
          "type": "uint256"
        },
        {
          "indexed": false,
          "internalType": "address",
          "name": "payee",
          "type": "address"
        }
      ],
      "name": "FundsWithdrawn",
      "type": "event"
    },
    {
      "anonymous": false,
      "inputs": [
        {
          "indexed": false,
          "internalType": "address",
          "name": "oldAddress",
          "type": "address"
        },
        {
          "indexed": false,
          "internalType": "address",
          "name": "newAddress",
          "type": "address"
        }
      ],
      "name": "KeeperRegistryAddressUpdated",
      "type": "event"
    },
    {
      "anonymous": false,
      "inputs": [
        {
          "indexed": false,
          "internalType": "uint256",
          "name": "oldMinWaitPeriod",
          "type": "uint256"
        },
        {
          "indexed": false,
          "internalType": "uint256",
          "name": "newMinWaitPeriod",
          "type": "uint256"
        }
      ],
      "name": "MinWaitPeriodUpdated",
      "type": "event"
    },
    {
      "anonymous": false,
      "inputs": [
        {
          "indexed": true,
          "internalType": "address",
          "name": "previousOwner",
          "type": "address"
        },
        {
          "indexed": true,
          "internalType": "address",
          "name": "newOwner",
          "type": "address"
        }
      ],
      "name": "OwnershipTransferred",
      "type": "event"
    },
    {
      "anonymous": false,
      "inputs": [
        {
          "indexed": false,
          "internalType": "address",
          "name": "account",
          "type": "address"
        }
      ],
      "name": "Paused",
      "type": "event"
    },
    {
      "anonymous": false,
      "inputs": [
        {
          "indexed": false,
          "internalType": "uint256",
          "name": "taskId",
          "type": "uint256"
        },
        {
          "indexed": false,
          "internalType": "bytes",
          "name": "reason",
          "type": "bytes"
        }
      ],
      "name": "RevertInvoke",
      "type": "event"
    },
    {
      "anonymous": false,
      "inputs": [
        {
          "indexed": false,
          "internalType": "address",
          "name": "account",
          "type": "address"
        }
      ],
      "name": "Unpaused",
      "type": "event"
    },
    {
      "inputs": [],
      "name": "BATCH_PERFORM_LIMIT",
      "outputs": [
        {
          "internalType": "uint256",
          "name": "",
          "type": "uint256"
        }
      ],
      "stateMutability": "view",
      "type": "function"
    },
    {
      "inputs": [],
      "name": "BRIDGE",
      "outputs": [
        {
          "internalType": "contract ILucksBridge",
          "name": "",
          "type": "address"
        }
      ],
      "stateMutability": "view",
      "type": "function"
    },
    {
      "inputs": [],
      "name": "DST_GAS_AMOUNT",
      "outputs": [
        {
          "internalType": "uint256",
          "name": "",
          "type": "uint256"
        }
      ],
      "stateMutability": "view",
      "type": "function"
    },
    {
      "inputs": [],
      "name": "EXECUTOR",
      "outputs": [
        {
          "internalType": "contract ILucksExecutor",
          "name": "",
          "type": "address"
        }
      ],
      "stateMutability": "view",
      "type": "function"
    },
    {
      "inputs": [],
      "name": "KEEPER",
      "outputs": [
        {
          "internalType": "address",
          "name": "",
          "type": "address"
        }
      ],
      "stateMutability": "view",
      "type": "function"
    },
    {
      "inputs": [
        {
          "internalType": "uint256",
          "name": "taskId",
          "type": "uint256"
        },
        {
          "internalType": "uint256",
          "name": "endTime",
          "type": "uint256"
        }
      ],
      "name": "addTask",
      "outputs": [],
      "stateMutability": "nonpayable",
      "type": "function"
    },
    {
      "inputs": [
        {
          "internalType": "bytes",
          "name": "",
          "type": "bytes"
        }
      ],
      "name": "checkUpkeep",
      "outputs": [
        {
          "internalType": "bool",
          "name": "upkeepNeeded",
          "type": "bool"
        },
        {
          "internalType": "bytes",
          "name": "performData",
          "type": "bytes"
        }
      ],
      "stateMutability": "view",
      "type": "function"
    },
    {
      "inputs": [],
      "name": "first",
      "outputs": [
        {
          "internalType": "uint256",
          "name": "",
          "type": "uint256"
        }
      ],
      "stateMutability": "view",
      "type": "function"
    },
    {
      "inputs": [
        {
          "internalType": "uint256",
          "name": "taskId",
          "type": "uint256"
        }
      ],
      "name": "get",
      "outputs": [
        {
          "internalType": "uint256",
          "name": "",
          "type": "uint256"
        }
      ],
      "stateMutability": "view",
      "type": "function"
    },
    {
      "inputs": [],
      "name": "getQueueTasks",
      "outputs": [
        {
          "internalType": "uint256[]",
          "name": "",
          "type": "uint256[]"
        }
      ],
      "stateMutability": "view",
      "type": "function"
    },
    {
      "inputs": [],
      "name": "last",
      "outputs": [
        {
          "internalType": "uint256",
          "name": "",
          "type": "uint256"
        }
      ],
      "stateMutability": "view",
      "type": "function"
    },
    {
      "inputs": [],
      "name": "lzChainId",
      "outputs": [
        {
          "internalType": "uint16",
          "name": "",
          "type": "uint16"
        }
      ],
      "stateMutability": "view",
      "type": "function"
    },
    {
      "inputs": [
        {
          "internalType": "uint256",
          "name": "taskId",
          "type": "uint256"
        }
      ],
      "name": "next",
      "outputs": [
        {
          "internalType": "uint256",
          "name": "",
          "type": "uint256"
        }
      ],
      "stateMutability": "view",
      "type": "function"
    },
    {
      "inputs": [],
      "name": "owner",
      "outputs": [
        {
          "internalType": "address",
          "name": "",
          "type": "address"
        }
      ],
      "stateMutability": "view",
      "type": "function"
    },
    {
      "inputs": [],
      "name": "pause",
      "outputs": [],
      "stateMutability": "nonpayable",
      "type": "function"
    },
    {
      "inputs": [],
      "name": "paused",
      "outputs": [
        {
          "internalType": "bool",
          "name": "",
          "type": "bool"
        }
      ],
      "stateMutability": "view",
      "type": "function"
    },
    {
      "inputs": [
        {
          "internalType": "bytes",
          "name": "performData",
          "type": "bytes"
        }
      ],
      "name": "performUpkeep",
      "outputs": [],
      "stateMutability": "nonpayable",
      "type": "function"
    },
    {
      "inputs": [
        {
          "internalType": "uint256",
          "name": "taskId",
          "type": "uint256"
        }
      ],
      "name": "prev",
      "outputs": [
        {
          "internalType": "uint256",
          "name": "",
          "type": "uint256"
        }
      ],
      "stateMutability": "view",
      "type": "function"
    },
    {
      "inputs": [
        {
          "internalType": "uint256",
          "name": "taskId",
          "type": "uint256"
        }
      ],
      "name": "removeTask",
      "outputs": [],
      "stateMutability": "nonpayable",
      "type": "function"
    },
    {
      "inputs": [],
      "name": "renounceOwnership",
      "outputs": [],
      "stateMutability": "nonpayable",
      "type": "function"
    },
    {
      "inputs": [
        {
          "internalType": "uint256",
          "name": "num",
          "type": "uint256"
        }
      ],
      "name": "setBatchPerformLimist",
      "outputs": [],
      "stateMutability": "nonpayable",
      "type": "function"
    },
    {
      "inputs": [
        {
          "internalType": "contract ILucksBridge",
          "name": "_bridge",
          "type": "address"
        }
      ],
      "name": "setBridge",
      "outputs": [],
      "stateMutability": "nonpayable",
      "type": "function"
    },
    {
      "inputs": [
        {
          "internalType": "uint256",
          "name": "amount",
          "type": "uint256"
        }
      ],
      "name": "setDstGasAmount",
      "outputs": [],
      "stateMutability": "nonpayable",
      "type": "function"
    },
    {
      "inputs": [
        {
          "internalType": "contract ILucksExecutor",
          "name": "_executor",
          "type": "address"
        }
      ],
      "name": "setExecutor",
      "outputs": [],
      "stateMutability": "nonpayable",
      "type": "function"
    },
    {
      "inputs": [
        {
          "internalType": "address",
          "name": "_keeperRegAddr",
          "type": "address"
        }
      ],
      "name": "setKeeper",
      "outputs": [],
      "stateMutability": "nonpayable",
      "type": "function"
    },
    {
      "inputs": [],
      "name": "size",
      "outputs": [
        {
          "internalType": "uint256",
          "name": "",
          "type": "uint256"
        }
      ],
      "stateMutability": "view",
      "type": "function"
    },
    {
      "inputs": [
        {
          "internalType": "address",
          "name": "newOwner",
          "type": "address"
        }
      ],
      "name": "transferOwnership",
      "outputs": [],
      "stateMutability": "nonpayable",
      "type": "function"
    },
    {
      "inputs": [],
      "name": "unpause",
      "outputs": [],
      "stateMutability": "nonpayable",
      "type": "function"
    },
    {
      "inputs": [
        {
          "internalType": "uint256",
          "name": "amount",
          "type": "uint256"
        },
        {
          "internalType": "address payable",
          "name": "payee",
          "type": "address"
        }
      ],
      "name": "withdraw",
      "outputs": [],
      "stateMutability": "nonpayable",
      "type": "function"
    },
    {
      "stateMutability": "payable",
      "type": "receive"
    }
  ],
  "transactionHash": "0xfc806e2444668bb615f109034bbed96f590a5abe88956afe07d6a95d605b6699",
  "args": [
    "0x0000000000000000000000000000000000000000",
    "0x686746214BCc37b7D4935B098C4899031C288fFd",
    "0x2916C077cbcb0c72786C7BdbE95Ee1d97Ffd289b",
    2
  ],
  "numDeployments": 1,
  "solcInputHash": "b7f9ee096decec3821bbec675df5e6b2",
  "bytecode": "0x60a0604052600a600555620864706006553480156200001d57600080fd5b50604051620026c9380380620026c98339810160408190526200004091620000fb565b6200004b33620000ab565b6000805460ff60a01b19169055600780546001600160a01b03199081166001600160a01b039687161790915560088054821694861694909417909355600980549093169190931617905560f01b6001600160f01b03191660805262000182565b600080546001600160a01b038381166001600160a01b0319831681178455604051919092169283917f8be0079c531659141344cd1fd0a4f28419497f9722a3daafe3b4186f6b6457e09190a35050565b600080600080608085870312156200011257600080fd5b84516200011f8162000169565b6020860151909450620001328162000169565b6040860151909350620001458162000169565b606086015190925061ffff811681146200015e57600080fd5b939692955090935050565b6001600160a01b03811681146200017f57600080fd5b50565b60805160f01c612521620001a8600039600081816104b1015261171801526125216000f3fe6080604052600436106101c45760003560e01c80638456cb59116100f7578063aa0a310011610095578063d6ff17a011610064578063d6ff17a0146105a3578063edd004e5146105b9578063ee9a31a2146105d9578063f2fde38b1461060657600080fd5b8063aa0a31001461052b578063b15269a51461054b578063c308411714610561578063c81c6c7c1461058157600080fd5b80638dd14802116100d15780638dd148021461047f578063917c41561461049f578063949d225d146104e65780639507d39a146104fb57600080fd5b80638456cb5914610412578063862a179e146104275780638da5cb5b1461045457600080fd5b80634585e33b11610164578063630dc7cb1161013e578063630dc7cb1461035d5780636e04ff0d146103af578063715018a6146103dd578063748747e6146103f257600080fd5b80634585e33b146102ed57806347799da81461030d5780635c975abb1461032257600080fd5b80631c3c0ea8116101a05780631c3c0ea81461027057806335671214146102905780633df4ddf4146102c35780633f4ba83a146102d857600080fd5b8062b34ebd1461020e578062f714ce146102305780630fbeb0321461025057600080fd5b366102095760408051348152476020820152338183015290517fc6f3fb0fec49e4877342d4625d77a632541f55b7aae0f9d0b34c69b3478706dc9181900360600190a1005b600080fd5b34801561021a57600080fd5b5061022e610229366004612150565b610626565b005b34801561023c57600080fd5b5061022e61024b366004612120565b6106f3565b34801561025c57600080fd5b5061022e61026b366004612107565b61082a565b34801561027c57600080fd5b5061022e61028b366004611e82565b6108b0565b34801561029c57600080fd5b506102b06102ab366004612107565b610978565b6040519081526020015b60405180910390f35b3480156102cf57600080fd5b506102b061098b565b3480156102e457600080fd5b5061022e61099c565b3480156102f957600080fd5b5061022e610308366004611f3e565b610a27565b34801561031957600080fd5b506002546102b0565b34801561032e57600080fd5b5060005474010000000000000000000000000000000000000000900460ff1660405190151581526020016102ba565b34801561036957600080fd5b5060085461038a9073ffffffffffffffffffffffffffffffffffffffff1681565b60405173ffffffffffffffffffffffffffffffffffffffff90911681526020016102ba565b3480156103bb57600080fd5b506103cf6103ca366004611f3e565b610b68565b6040516102ba929190612290565b3480156103e957600080fd5b5061022e610c2e565b3480156103fe57600080fd5b5061022e61040d366004611e82565b610cb9565b34801561041e57600080fd5b5061022e610df5565b34801561043357600080fd5b5060075461038a9073ffffffffffffffffffffffffffffffffffffffff1681565b34801561046057600080fd5b5060005473ffffffffffffffffffffffffffffffffffffffff1661038a565b34801561048b57600080fd5b5061022e61049a366004611e82565b610e7e565b3480156104ab57600080fd5b506104d37f000000000000000000000000000000000000000000000000000000000000000081565b60405161ffff90911681526020016102ba565b3480156104f257600080fd5b506001546102b0565b34801561050757600080fd5b506102b0610516366004612107565b60009081526004602052604090206001015490565b34801561053757600080fd5b5061022e610546366004612107565b610f46565b34801561055757600080fd5b506102b060065481565b34801561056d57600080fd5b5061022e61057c366004612107565b611036565b34801561058d57600080fd5b506105966110e5565b6040516102ba919061224c565b3480156105af57600080fd5b506102b060055481565b3480156105c557600080fd5b506102b06105d4366004612107565b6111cc565b3480156105e557600080fd5b5060095461038a9073ffffffffffffffffffffffffffffffffffffffff1681565b34801561061257600080fd5b5061022e610621366004611e82565b6111e0565b60085473ffffffffffffffffffffffffffffffffffffffff16331480610663575060005473ffffffffffffffffffffffffffffffffffffffff1633145b6106ce576040517f08c379a000000000000000000000000000000000000000000000000000000000815260206004820152600c60248201527f6f6e6c794578656375746f72000000000000000000000000000000000000000060448201526064015b60405180910390fd5b6000821180156106de5750600081115b156106ef576106ef6001838361130d565b5050565b60005473ffffffffffffffffffffffffffffffffffffffff163314610774576040517f08c379a000000000000000000000000000000000000000000000000000000000815260206004820181905260248201527f4f776e61626c653a2063616c6c6572206973206e6f7420746865206f776e657260448201526064016106c5565b73ffffffffffffffffffffffffffffffffffffffff811661079457600080fd5b6040805183815273ffffffffffffffffffffffffffffffffffffffff831660208201527f6141b54b56b8a52a8c6f5cd2a857f6117b18ffbf4d46bd3106f300a839cbf5ea910160405180910390a160405173ffffffffffffffffffffffffffffffffffffffff82169083156108fc029084906000818181858888f19350505050158015610825573d6000803e3d6000fd5b505050565b60005473ffffffffffffffffffffffffffffffffffffffff1633146108ab576040517f08c379a000000000000000000000000000000000000000000000000000000000815260206004820181905260248201527f4f776e61626c653a2063616c6c6572206973206e6f7420746865206f776e657260448201526064016106c5565b600655565b60005473ffffffffffffffffffffffffffffffffffffffff163314610931576040517f08c379a000000000000000000000000000000000000000000000000000000000815260206004820181905260248201527f4f776e61626c653a2063616c6c6572206973206e6f7420746865206f776e657260448201526064016106c5565b600880547fffffffffffffffffffffffff00000000000000000000000000000000000000001673ffffffffffffffffffffffffffffffffffffffff92909216919091179055565b6000610985600183611443565b92915050565b60006109976001611477565b905090565b60005473ffffffffffffffffffffffffffffffffffffffff163314610a1d576040517f08c379a000000000000000000000000000000000000000000000000000000000815260206004820181905260248201527f4f776e61626c653a2063616c6c6572206973206e6f7420746865206f776e657260448201526064016106c5565b610a2561148d565b565b60005474010000000000000000000000000000000000000000900460ff1615610aac576040517f08c379a000000000000000000000000000000000000000000000000000000000815260206004820152601060248201527f5061757361626c653a207061757365640000000000000000000000000000000060448201526064016106c5565b60075473ffffffffffffffffffffffffffffffffffffffff16331480610ae9575060005473ffffffffffffffffffffffffffffffffffffffff1633145b610b4f576040517f08c379a000000000000000000000000000000000000000000000000000000000815260206004820152601260248201527f6f6e6c794b65657065725265676973747279000000000000000000000000000060448201526064016106c5565b6000610b5d82840184611ea6565b905061082581611586565b6000805460609074010000000000000000000000000000000000000000900460ff1615610bf1576040517f08c379a000000000000000000000000000000000000000000000000000000000815260206004820152601060248201527f5061757361626c653a207061757365640000000000000000000000000000000060448201526064016106c5565b6000610bfb6110e5565b90506000815111925080604051602001610c15919061224c565b6040516020818303038152906040529150509250929050565b60005473ffffffffffffffffffffffffffffffffffffffff163314610caf576040517f08c379a000000000000000000000000000000000000000000000000000000000815260206004820181905260248201527f4f776e61626c653a2063616c6c6572206973206e6f7420746865206f776e657260448201526064016106c5565b610a25600061199d565b60005473ffffffffffffffffffffffffffffffffffffffff163314610d3a576040517f08c379a000000000000000000000000000000000000000000000000000000000815260206004820181905260248201527f4f776e61626c653a2063616c6c6572206973206e6f7420746865206f776e657260448201526064016106c5565b73ffffffffffffffffffffffffffffffffffffffff8116610d5a57600080fd5b6007546040805173ffffffffffffffffffffffffffffffffffffffff928316815291831660208301527fb732223055abcde751d7a24272ffc8a3aa571cb72b443969a4199b7ecd59f8b9910160405180910390a1600780547fffffffffffffffffffffffff00000000000000000000000000000000000000001673ffffffffffffffffffffffffffffffffffffffff92909216919091179055565b60005473ffffffffffffffffffffffffffffffffffffffff163314610e76576040517f08c379a000000000000000000000000000000000000000000000000000000000815260206004820181905260248201527f4f776e61626c653a2063616c6c6572206973206e6f7420746865206f776e657260448201526064016106c5565b610a25611a12565b60005473ffffffffffffffffffffffffffffffffffffffff163314610eff576040517f08c379a000000000000000000000000000000000000000000000000000000000815260206004820181905260248201527f4f776e61626c653a2063616c6c6572206973206e6f7420746865206f776e657260448201526064016106c5565b600980547fffffffffffffffffffffffff00000000000000000000000000000000000000001673ffffffffffffffffffffffffffffffffffffffff92909216919091179055565b60005473ffffffffffffffffffffffffffffffffffffffff163314610fc7576040517f08c379a000000000000000000000000000000000000000000000000000000000815260206004820181905260248201527f4f776e61626c653a2063616c6c6572206973206e6f7420746865206f776e657260448201526064016106c5565b60008111611031576040517f08c379a000000000000000000000000000000000000000000000000000000000815260206004820152601160248201527f496e76616c6964206c696d6974206e756d00000000000000000000000000000060448201526064016106c5565b600555565b60085473ffffffffffffffffffffffffffffffffffffffff16331480611073575060005473ffffffffffffffffffffffffffffffffffffffff1633145b6110d9576040517f08c379a000000000000000000000000000000000000000000000000000000000815260206004820152600c60248201527f6f6e6c794578656375746f72000000000000000000000000000000000000000060448201526064016106c5565b6110e281611afe565b50565b6060600060055467ffffffffffffffff8111156111045761110461249a565b60405190808252806020026020018201604052801561112d578160200160208202803683370190505b50905060008061113d6001611477565b90505b600081118015611151575060055482105b156111b757600081815260046020526040902060010154421061119e57808383815181106111815761118161246b565b60209081029190910101528161119681612403565b9250506111a3565b6111b7565b600090815260036020526040902054611140565b60055482146111c4578183525b509092915050565b600081815260036020526040812054610985565b60005473ffffffffffffffffffffffffffffffffffffffff163314611261576040517f08c379a000000000000000000000000000000000000000000000000000000000815260206004820181905260248201527f4f776e61626c653a2063616c6c6572206973206e6f7420746865206f776e657260448201526064016106c5565b73ffffffffffffffffffffffffffffffffffffffff8116611304576040517f08c379a000000000000000000000000000000000000000000000000000000000815260206004820152602660248201527f4f776e61626c653a206e6577206f776e657220697320746865207a65726f206160448201527f646472657373000000000000000000000000000000000000000000000000000060648201526084016106c5565b6110e28161199d565b60008211611377576040517f08c379a000000000000000000000000000000000000000000000000000000000815260206004820152600e60248201527f72657175697265206964203e203000000000000000000000000000000000000060448201526064016106c5565b60008281526003840160205260409020600101541561139557505050565b60006113a18483611b09565b600081815260028681016020908152604080842080549089905588855281852081905581516060810183528981528084018981528184018881528b885260038d0190955292909520945185559051600185015590519290910191909155909150806114125760018501849055611429565b600081815260038601602052604090206002018490555b845485600061143783612403565b91905055505050505050565b600061144f8383611cb0565b1561146e57506000818152600383016020526040902060020154610985565b50600092915050565b6000808052600282016020526040812054610985565b60005474010000000000000000000000000000000000000000900460ff16611511576040517f08c379a000000000000000000000000000000000000000000000000000000000815260206004820152601460248201527f5061757361626c653a206e6f742070617573656400000000000000000000000060448201526064016106c5565b600080547fffffffffffffffffffffff00ffffffffffffffffffffffffffffffffffffffff1690557f5db9ee0a495bf2e6ff9c91a7834c1ba4fdd244a5e8aa4e537bd38aeae4b073aa335b60405173ffffffffffffffffffffffffffffffffffffffff909116815260200160405180910390a1565b600060405180608001604052806006548152602001600081526020016040518060400160405280600281526020017f307800000000000000000000000000000000000000000000000000000000000081525081526020016040518060400160405280600281526020017f3078000000000000000000000000000000000000000000000000000000000000815250815250905060005b82518110156108255760008382815181106116385761163861246b565b6020026020010151905061164b81611afe565b6008546040517f1d65e77e00000000000000000000000000000000000000000000000000000000815260048101839052600091829173ffffffffffffffffffffffffffffffffffffffff90911690631d65e77e9060240160006040518083038186803b1580156116ba57600080fd5b505afa1580156116ce573d6000803e3d6000fd5b505050506040513d6000823e601f3d9081017fffffffffffffffffffffffffffffffffffffffffffffffffffffffffffffffe01682016040526117149190810190611fb0565b90507f000000000000000000000000000000000000000000000000000000000000000061ffff16816020015161ffff16146118185760095473ffffffffffffffffffffffffffffffffffffffff16156118185760095460208201516040517f1b0899fc00000000000000000000000000000000000000000000000000000000815273ffffffffffffffffffffffffffffffffffffffff90921691631b0899fc916117c5916002908a906004016122b3565b604080518083038186803b1580156117dc57600080fd5b505afa1580156117f0573d6000803e3d6000fd5b505050506040513d601f19601f820116820180604052508101906118149190612172565b5091505b81471015611893577f1e636779d1e9049055334d85cd9ecc858646d430080ac176057b6e43eaad421a836040516118869181526040602082018190526019908201527f4175746f447261773a206e6f7420656e6f756768206665657300000000000000606082015260800190565b60405180910390a1611987565b6008546040517fe47af09a00000000000000000000000000000000000000000000000000000000815273ffffffffffffffffffffffffffffffffffffffff9091169063e47af09a9084906118ed9087908a90600401612300565b6000604051808303818588803b15801561190657600080fd5b505af193505050508015611918575060015b611987573d808015611946576040519150601f19603f3d011682016040523d82523d6000602084013e61194b565b606091505b507f1e636779d1e9049055334d85cd9ecc858646d430080ac176057b6e43eaad421a848260405161197d9291906122e7565b60405180910390a1505b505050808061199590612403565b91505061161b565b6000805473ffffffffffffffffffffffffffffffffffffffff8381167fffffffffffffffffffffffff0000000000000000000000000000000000000000831681178455604051919092169283917f8be0079c531659141344cd1fd0a4f28419497f9722a3daafe3b4186f6b6457e09190a35050565b60005474010000000000000000000000000000000000000000900460ff1615611a97576040517f08c379a000000000000000000000000000000000000000000000000000000000815260206004820152601060248201527f5061757361626c653a207061757365640000000000000000000000000000000060448201526064016106c5565b600080547fffffffffffffffffffffff00ffffffffffffffffffffffffffffffffffffffff16740100000000000000000000000000000000000000001790557f62e78cea01bee320cd4e420270b5ea74000d11b0c9f74754ebdbfc544b05a25861155c3390565b6110e2600182611cda565b6000808211611b74576040517f08c379a000000000000000000000000000000000000000000000000000000000815260206004820152601260248201527f7265717569726520746172676574203e2030000000000000000000000000000060448201526064016106c5565b8254611b8257506000610985565b6001808401546000818152600386016020526040902090910154808410611bab57509050610985565b6000611bb686611477565b6000818152600388016020526040902060010154909150808611611be1576000945050505050610985565b60006001611bef85846123b6565b901c9050808710611c4e57845b8015611c4857611c0c8982611443565b9050600081118015611c315750600081815260038a0160205260409020600101548810155b15611c43579550610985945050505050565b611bfc565b50611ca2565b825b8015611ca05760009081526002890160205260409020548015801590611c895750600081815260038a0160205260409020600101548810155b15611c9b579550610985945050505050565b611c50565b505b506000979650505050505050565b6000808211611cbe57600080fd5b5060009081526003919091016020526040902060010154151590565b611ce48282611cb0565b156106ef576000611cf58383611443565b60008381526002850160205260408082205483835291208190559091508015611d2f57600081815260038501602052604090206002018290555b80611d3c57600184018290555b60008381526003850160209081526040808320838155600181018490556002908101849055870190915281208190558454908590611d79836123ce565b919050555050505050565b8051611d8f816124c9565b919050565b600082601f830112611da557600080fd5b81516020611dba611db583612392565b612343565b80838252828201915082860187848660051b8901011115611dda57600080fd5b60005b85811015611df957815184529284019290840190600101611ddd565b5090979650505050505050565b805160068110611d8f57600080fd5b600060408284031215611e2757600080fd5b6040516040810181811067ffffffffffffffff82111715611e4a57611e4a61249a565b80604052508091508251611e5d816124c9565b8152602092830151920191909152919050565b805161ffff81168114611d8f57600080fd5b600060208284031215611e9457600080fd5b8135611e9f816124c9565b9392505050565b60006020808385031215611eb957600080fd5b823567ffffffffffffffff811115611ed057600080fd5b8301601f81018513611ee157600080fd5b8035611eef611db582612392565b80828252848201915084840188868560051b8701011115611f0f57600080fd5b600094505b83851015611f32578035835260019490940193918501918501611f14565b50979650505050505050565b60008060208385031215611f5157600080fd5b823567ffffffffffffffff80821115611f6957600080fd5b818501915085601f830112611f7d57600080fd5b813581811115611f8c57600080fd5b866020828501011115611f9e57600080fd5b60209290920196919550909350505050565b600060208284031215611fc257600080fd5b815167ffffffffffffffff80821115611fda57600080fd5b908301906102008286031215611fef57600080fd5b611ff7612319565b61200083611d84565b815261200e60208401611e70565b602082015261201f60408401611d84565b604082015260608301518281111561203657600080fd5b61204287828601611d94565b60608301525060808301518281111561205a57600080fd5b61206687828601611d94565b60808301525061207860a08401611d84565b60a082015261208960c08401611e06565b60c082015260e0838101519082015261010080840151908201526101208084015190820152610140808401519082015261016091506120c9828401611e70565b8282015261018091506120de86838501611e15565b828201526101c09150818301516101a08201526101e08301518282015280935050505092915050565b60006020828403121561211957600080fd5b5035919050565b6000806040838503121561213357600080fd5b823591506020830135612145816124c9565b809150509250929050565b6000806040838503121561216357600080fd5b50508035926020909101359150565b6000806040838503121561218557600080fd5b505080516020909101519092909150565b6000815180845260005b818110156121bc576020818501810151868301820152016121a0565b818111156121ce576000602083870101525b50601f017fffffffffffffffffffffffffffffffffffffffffffffffffffffffffffffffe0169290920160200192915050565b8051825260208101516020830152600060408201516080604085015261222a6080850182612196565b9050606083015184820360608601526122438282612196565b95945050505050565b6020808252825182820181905260009190848201906040850190845b8181101561228457835183529284019291840191600101612268565b50909695505050505050565b82151581526040602082015260006122ab6040830184612196565b949350505050565b61ffff8416815260ff83166020820152608060408201526000608082015260a06060820152600061224360a0830184612201565b8281526040602082015260006122ab6040830184612196565b8281526040602082015260006122ab6040830184612201565b6040516101e0810167ffffffffffffffff8111828210171561233d5761233d61249a565b60405290565b604051601f82017fffffffffffffffffffffffffffffffffffffffffffffffffffffffffffffffe016810167ffffffffffffffff8111828210171561238a5761238a61249a565b604052919050565b600067ffffffffffffffff8211156123ac576123ac61249a565b5060051b60200190565b600082198211156123c9576123c961243c565b500190565b6000816123dd576123dd61243c565b507fffffffffffffffffffffffffffffffffffffffffffffffffffffffffffffffff0190565b60007fffffffffffffffffffffffffffffffffffffffffffffffffffffffffffffffff8214156124355761243561243c565b5060010190565b7f4e487b7100000000000000000000000000000000000000000000000000000000600052601160045260246000fd5b7f4e487b7100000000000000000000000000000000000000000000000000000000600052603260045260246000fd5b7f4e487b7100000000000000000000000000000000000000000000000000000000600052604160045260246000fd5b73ffffffffffffffffffffffffffffffffffffffff811681146110e257600080fdfea26469706673582212200dc346dd52b50ddae9f4450e758b99d2de6db32d54fa100ab10f6299f6c3f23b64736f6c63430008060033",
  "devdoc": {
    "kind": "dev",
    "methods": {
      "constructor": {
        "params": {
          "_bridge": "The LucksBridge contract",
          "_executor": "The LucksExecutor contract",
          "_keeperRegAddr": "The address of the keeper registry contract"
        }
      },
      "owner()": {
        "details": "Returns the address of the current owner."
      },
      "paused()": {
        "details": "Returns true if the contract is paused, and false otherwise."
      },
      "performUpkeep(bytes)": {
        "details": "The input to this method should not be trusted, and the caller of the method should not even be restricted to any single registry. Anyone should be able call it, and the input should be validated, there is no guarantee that the data passed in is the performData returned from checkUpkeep. This could happen due to malicious keepers, racing keepers, or simply a state change while the performUpkeep transaction is waiting for confirmation. Always validate the data passed in.",
        "params": {
          "performData": "is the data which was passed back from the checkData simulation. If it is encoded, it can easily be decoded into other types by calling `abi.decode`. This data should not be trusted, and should be validated against the contract's current state."
        }
      },
      "renounceOwnership()": {
        "details": "Leaves the contract without owner. It will not be possible to call `onlyOwner` functions anymore. Can only be called by the current owner. NOTE: Renouncing ownership will leave the contract without an owner, thereby removing any functionality that is only available to the owner."
      },
      "transferOwnership(address)": {
        "details": "Transfers ownership of the contract to a new account (`newOwner`). Can only be called by the current owner."
      },
      "withdraw(uint256,address)": {
        "params": {
          "amount": "The amount of eth (in wei) to withdraw",
          "payee": "The address to pay"
        }
      }
    },
    "version": 1
  },
  "userdoc": {
    "kind": "user",
    "methods": {
      "pause()": {
        "notice": "Pauses the contract, which prevents executing performUpkeep"
      },
      "performUpkeep(bytes)": {
        "notice": "method that is actually executed by the keepers, via the registry. The data returned by the checkUpkeep simulation will be passed into this method to actually be executed."
      },
      "setBridge(address)": {
        "notice": "set BRIDGE"
      },
      "setExecutor(address)": {
        "notice": "set operator"
      },
      "setKeeper(address)": {
        "notice": "Sets the keeper registry address"
      },
      "unpause()": {
        "notice": "Unpauses the contract"
      },
      "withdraw(uint256,address)": {
        "notice": "Withdraws the contract balance"
      }
    },
    "version": 1
  },
  "storageLayout": {
    "storage": [
      {
        "astId": 917,
        "contract": "contracts/lucks/LucksAutoDrawTask.sol:LucksAutoDrawTask",
        "label": "_owner",
        "offset": 0,
        "slot": "0",
        "type": "t_address"
      },
      {
        "astId": 1032,
        "contract": "contracts/lucks/LucksAutoDrawTask.sol:LucksAutoDrawTask",
        "label": "_paused",
        "offset": 20,
        "slot": "0",
        "type": "t_bool"
      },
      {
        "astId": 13620,
        "contract": "contracts/lucks/LucksAutoDrawTask.sol:LucksAutoDrawTask",
        "label": "taskList",
        "offset": 0,
        "slot": "1",
        "type": "t_struct(SortedMap)12579_storage"
      },
      {
        "astId": 13623,
        "contract": "contracts/lucks/LucksAutoDrawTask.sol:LucksAutoDrawTask",
        "label": "BATCH_PERFORM_LIMIT",
        "offset": 0,
        "slot": "5",
        "type": "t_uint256"
      },
      {
        "astId": 13626,
        "contract": "contracts/lucks/LucksAutoDrawTask.sol:LucksAutoDrawTask",
        "label": "DST_GAS_AMOUNT",
        "offset": 0,
        "slot": "6",
        "type": "t_uint256"
      },
      {
        "astId": 13630,
        "contract": "contracts/lucks/LucksAutoDrawTask.sol:LucksAutoDrawTask",
        "label": "KEEPER",
        "offset": 0,
        "slot": "7",
        "type": "t_address"
      },
      {
        "astId": 13633,
        "contract": "contracts/lucks/LucksAutoDrawTask.sol:LucksAutoDrawTask",
        "label": "EXECUTOR",
        "offset": 0,
        "slot": "8",
        "type": "t_contract(ILucksExecutor)10083"
      },
      {
        "astId": 13636,
        "contract": "contracts/lucks/LucksAutoDrawTask.sol:LucksAutoDrawTask",
        "label": "BRIDGE",
        "offset": 0,
        "slot": "9",
        "type": "t_contract(ILucksBridge)9788"
      }
    ],
    "types": {
      "t_address": {
        "encoding": "inplace",
        "label": "address",
        "numberOfBytes": "20"
      },
      "t_bool": {
        "encoding": "inplace",
        "label": "bool",
        "numberOfBytes": "1"
      },
      "t_contract(ILucksBridge)9788": {
        "encoding": "inplace",
        "label": "contract ILucksBridge",
        "numberOfBytes": "20"
      },
      "t_contract(ILucksExecutor)10083": {
        "encoding": "inplace",
        "label": "contract ILucksExecutor",
        "numberOfBytes": "20"
      },
      "t_mapping(t_uint256,t_struct(Item)12559_storage)": {
        "encoding": "mapping",
        "key": "t_uint256",
        "label": "mapping(uint256 => struct SortedLinkMap.Item)",
        "numberOfBytes": "32",
        "value": "t_struct(Item)12559_storage"
      },
      "t_mapping(t_uint256,t_uint256)": {
        "encoding": "mapping",
        "key": "t_uint256",
        "label": "mapping(uint256 => uint256)",
        "numberOfBytes": "32",
        "value": "t_uint256"
      },
      "t_struct(Item)12559_storage": {
        "encoding": "inplace",
        "label": "struct SortedLinkMap.Item",
        "members": [
          {
            "astId": 12554,
            "contract": "contracts/lucks/LucksAutoDrawTask.sol:LucksAutoDrawTask",
            "label": "id",
            "offset": 0,
            "slot": "0",
            "type": "t_uint256"
          },
          {
            "astId": 12556,
            "contract": "contracts/lucks/LucksAutoDrawTask.sol:LucksAutoDrawTask",
            "label": "value",
            "offset": 0,
            "slot": "1",
            "type": "t_uint256"
          },
          {
            "astId": 12558,
            "contract": "contracts/lucks/LucksAutoDrawTask.sol:LucksAutoDrawTask",
            "label": "leftId",
            "offset": 0,
            "slot": "2",
            "type": "t_uint256"
          }
        ],
        "numberOfBytes": "96"
      },
      "t_struct(SortedMap)12579_storage": {
        "encoding": "inplace",
        "label": "struct SortedLinkMap.SortedMap",
        "members": [
          {
            "astId": 12567,
            "contract": "contracts/lucks/LucksAutoDrawTask.sol:LucksAutoDrawTask",
            "label": "count",
            "offset": 0,
            "slot": "0",
            "type": "t_uint256"
          },
          {
            "astId": 12569,
            "contract": "contracts/lucks/LucksAutoDrawTask.sol:LucksAutoDrawTask",
            "label": "maxId",
            "offset": 0,
            "slot": "1",
            "type": "t_uint256"
          },
          {
            "astId": 12573,
            "contract": "contracts/lucks/LucksAutoDrawTask.sol:LucksAutoDrawTask",
            "label": "keys",
            "offset": 0,
            "slot": "2",
            "type": "t_mapping(t_uint256,t_uint256)"
          },
          {
            "astId": 12578,
            "contract": "contracts/lucks/LucksAutoDrawTask.sol:LucksAutoDrawTask",
            "label": "nodes",
            "offset": 0,
            "slot": "3",
            "type": "t_mapping(t_uint256,t_struct(Item)12559_storage)"
          }
        ],
        "numberOfBytes": "128"
      },
      "t_uint256": {
        "encoding": "inplace",
        "label": "uint256",
        "numberOfBytes": "32"
      }
    }
  }
}