{
  "address": "0xb0A3EFeaA5655D1E89b8DdBf5C9BBFe7a38E2e1A",
  "abi": [
    {
      "inputs": [
        {
          "internalType": "uint64",
          "name": "_subscriptionId",
          "type": "uint64"
        },
        {
          "internalType": "address",
          "name": "_vrfCoordinator",
          "type": "address"
        },
        {
          "internalType": "address",
          "name": "_link",
          "type": "address"
        },
        {
          "internalType": "bytes32",
          "name": "_keyHash",
          "type": "bytes32"
        },
        {
          "internalType": "address",
          "name": "_executor",
          "type": "address"
        }
      ],
      "stateMutability": "nonpayable",
      "type": "constructor"
    },
    {
      "inputs": [
        {
          "internalType": "address",
          "name": "have",
          "type": "address"
        },
        {
          "internalType": "address",
          "name": "want",
          "type": "address"
        }
      ],
      "name": "OnlyCoordinatorCanFulfill",
      "type": "error"
    },
    {
      "anonymous": false,
      "inputs": [
        {
          "indexed": true,
          "internalType": "address",
          "name": "previousOwner",
          "type": "address"
        },
        {
          "indexed": true,
          "internalType": "address",
          "name": "newOwner",
          "type": "address"
        }
      ],
      "name": "OwnershipTransferred",
      "type": "event"
    },
    {
      "anonymous": false,
      "inputs": [
        {
          "indexed": false,
          "internalType": "uint256",
          "name": "taskId",
          "type": "uint256"
        },
        {
          "indexed": false,
          "internalType": "uint256",
          "name": "max",
          "type": "uint256"
        },
        {
          "indexed": false,
          "internalType": "uint256",
          "name": "requestId",
          "type": "uint256"
        }
      ],
      "name": "ReqRandomNumber",
      "type": "event"
    },
    {
      "anonymous": false,
      "inputs": [
        {
          "indexed": false,
          "internalType": "uint256",
          "name": "taskId",
          "type": "uint256"
        },
        {
          "indexed": false,
          "internalType": "uint256",
          "name": "requestId",
          "type": "uint256"
        },
        {
          "indexed": false,
          "internalType": "uint256",
          "name": "randomness",
          "type": "uint256"
        },
        {
          "indexed": false,
          "internalType": "uint32",
          "name": "number",
          "type": "uint32"
        }
      ],
      "name": "RspRandomNumber",
      "type": "event"
    },
    {
      "inputs": [],
      "name": "EXECUTOR",
      "outputs": [
        {
          "internalType": "address",
          "name": "",
          "type": "address"
        }
      ],
      "stateMutability": "view",
      "type": "function"
    },
    {
      "inputs": [
        {
          "internalType": "uint256",
          "name": "taskId",
          "type": "uint256"
        },
        {
          "internalType": "uint256",
          "name": "seed",
          "type": "uint256"
        }
      ],
      "name": "callbackRandomWords",
      "outputs": [],
      "stateMutability": "nonpayable",
      "type": "function"
    },
    {
      "inputs": [],
      "name": "owner",
      "outputs": [
        {
          "internalType": "address",
          "name": "",
          "type": "address"
        }
      ],
      "stateMutability": "view",
      "type": "function"
    },
    {
      "inputs": [
        {
          "internalType": "uint256",
          "name": "",
          "type": "uint256"
        }
      ],
      "name": "randomResults",
      "outputs": [
        {
          "internalType": "uint32",
          "name": "",
          "type": "uint32"
        }
      ],
      "stateMutability": "view",
      "type": "function"
    },
    {
      "inputs": [
        {
          "internalType": "uint256",
          "name": "requestId",
          "type": "uint256"
        },
        {
          "internalType": "uint256[]",
          "name": "randomWords",
          "type": "uint256[]"
        }
      ],
      "name": "rawFulfillRandomWords",
      "outputs": [],
      "stateMutability": "nonpayable",
      "type": "function"
    },
    {
      "inputs": [],
      "name": "renounceOwnership",
      "outputs": [],
      "stateMutability": "nonpayable",
      "type": "function"
    },
    {
      "inputs": [
        {
          "internalType": "uint256",
          "name": "taskId",
          "type": "uint256"
        },
        {
          "internalType": "uint256",
          "name": "max",
          "type": "uint256"
        }
      ],
      "name": "reqRandomNumber",
      "outputs": [],
      "stateMutability": "nonpayable",
      "type": "function"
    },
    {
      "inputs": [
        {
          "internalType": "uint256",
          "name": "",
          "type": "uint256"
        }
      ],
      "name": "requestToMaxNum",
      "outputs": [
        {
          "internalType": "uint256",
          "name": "",
          "type": "uint256"
        }
      ],
      "stateMutability": "view",
      "type": "function"
    },
    {
      "inputs": [
        {
          "internalType": "uint256",
          "name": "",
          "type": "uint256"
        }
      ],
      "name": "requestToTaskId",
      "outputs": [
        {
          "internalType": "uint256",
          "name": "",
          "type": "uint256"
        }
      ],
      "stateMutability": "view",
      "type": "function"
    },
    {
      "inputs": [
        {
          "internalType": "address",
          "name": "_executor",
          "type": "address"
        }
      ],
      "name": "setExecutor",
      "outputs": [],
      "stateMutability": "nonpayable",
      "type": "function"
    },
    {
      "inputs": [
        {
          "internalType": "bytes32",
          "name": "_keyHash",
          "type": "bytes32"
        }
      ],
      "name": "setKeyHash",
      "outputs": [],
      "stateMutability": "nonpayable",
      "type": "function"
    },
    {
      "inputs": [
        {
          "internalType": "uint16",
          "name": "num",
          "type": "uint16"
        }
      ],
      "name": "setReqConfirmations",
      "outputs": [],
      "stateMutability": "nonpayable",
      "type": "function"
    },
    {
      "inputs": [
        {
          "internalType": "uint256",
          "name": "",
          "type": "uint256"
        }
      ],
      "name": "taskToRequestId",
      "outputs": [
        {
          "internalType": "uint256",
          "name": "",
          "type": "uint256"
        }
      ],
      "stateMutability": "view",
      "type": "function"
    },
    {
      "inputs": [
        {
          "internalType": "address",
          "name": "newOwner",
          "type": "address"
        }
      ],
      "name": "transferOwnership",
      "outputs": [],
      "stateMutability": "nonpayable",
      "type": "function"
    },
    {
      "inputs": [
        {
          "internalType": "uint256",
          "name": "taskId",
          "type": "uint256"
        }
      ],
      "name": "viewRandomResult",
      "outputs": [
        {
          "internalType": "uint32",
          "name": "",
          "type": "uint32"
        }
      ],
      "stateMutability": "view",
      "type": "function"
    }
  ],
  "transactionHash": "0xf37df75592d09dcba053eba352382c3db231b9d01193fc0a9f4c086f0c292555",
  "args": [
    1,
    "0x0000000000000000000000000000000000000000",
    "0x0000000000000000000000000000000000000000",
    "0xd4bb89654db74673a187bd804519e65e3f71a52bc55f11da7601a13dcf505314",
    "0x686746214BCc37b7D4935B098C4899031C288fFd"
  ],
  "numDeployments": 1,
  "solcInputHash": "1a9c64e66e0f1071b3b5090c79ef260f",
  "bytecode": "0x60a0604052600380546001600160a01b0319908116736168499c0cffcacd319c818142124b7a15e857ab17909155600480549091167301be23585060835e02b77ef475b0cc51aa1e07091790557fd89b2bf150e3b9e13446986e571fb9cab24b13cea0a43ea20a6049a85cc807cc600555600680546403000186a065ffffffffffff199091161790553480156200009557600080fd5b506040516200132138038062001321833981016040819052620000b891620001db565b606084901b6001600160601b031916608052620000d5336200016e565b60028054600380546001600160a01b039788166001600160a01b03199182168117909255600480549789169782168817905560059590955560018054861690911790556001600160401b03909616600160a01b02929092166001600160e01b03199095169490941790911790556006805492909116660100000000000002600160301b600160d01b03199092169190911790556200024f565b600080546001600160a01b038381166001600160a01b0319831681178455604051919092169283917f8be0079c531659141344cd1fd0a4f28419497f9722a3daafe3b4186f6b6457e09190a35050565b80516001600160a01b0381168114620001d657600080fd5b919050565b600080600080600060a08688031215620001f457600080fd5b85516001600160401b03811681146200020c57600080fd5b94506200021c60208701620001be565b93506200022c60408701620001be565b9250606086015191506200024360808701620001be565b90509295509295909350565b60805160601c6110ac6200027560003960008181610817015261087f01526110ac6000f3fe608060405234801561001057600080fd5b50600436106100f55760003560e01c806351312afe1161009757806398544710116100665780639854471014610271578063bcadffd014610284578063f2fde38b14610297578063f9a5d00d146102aa57600080fd5b806351312afe146101dc578063630dc7cb146101fc578063715018a61461024b5780638da5cb5b1461025357600080fd5b80631fe543e3116100d35780631fe543e314610135578063219be114146101485780632fa2cb4e14610188578063463fb8c6146101b657600080fd5b806319c01989146100fa5780631bc5f5071461010f5780631c3c0ea814610122575b600080fd5b61010d610108366004610f20565b6102ca565b005b61010d61011d366004610f20565b61054d565b61010d610130366004610d9e565b61072d565b61010d610143366004610e31565b6107ff565b61016e610156366004610ddb565b60076020526000908152604090205463ffffffff1681565b60405163ffffffff90911681526020015b60405180910390f35b6101a8610196366004610ddb565b600a6020526000908152604090205481565b60405190815260200161017f565b61016e6101c4366004610ddb565b60009081526007602052604090205463ffffffff1690565b6101a86101ea366004610ddb565b60086020526000908152604090205481565b600654610226906601000000000000900473ffffffffffffffffffffffffffffffffffffffff1681565b60405173ffffffffffffffffffffffffffffffffffffffff909116815260200161017f565b61010d6108ba565b60005473ffffffffffffffffffffffffffffffffffffffff16610226565b61010d61027f366004610ddb565b610947565b61010d610292366004610df4565b6109cd565b61010d6102a5366004610d9e565b610a8b565b6101a86102b8366004610ddb565b60096020526000908152604090205481565b6006546601000000000000900473ffffffffffffffffffffffffffffffffffffffff16331461035a576040517f08c379a000000000000000000000000000000000000000000000000000000000815260206004820152601e60248201527f4f6e6c79204c75636b732063616e2072657152616e646f6d4e756d626572000060448201526064015b60405180910390fd5b600081116103c4576040517f08c379a000000000000000000000000000000000000000000000000000000000815260206004820152601160248201527f496e76616c6964206d617820696e7075740000000000000000000000000000006044820152606401610351565b6000828152600a6020526040902054156103dc575050565b600180546005546002546006546040517f5d3b1d3000000000000000000000000000000000000000000000000000000000815260048101939093527401000000000000000000000000000000000000000090910467ffffffffffffffff166024830152640100000000810461ffff16604483015263ffffffff166064820152608481019290925260009173ffffffffffffffffffffffffffffffffffffffff90911690635d3b1d309060a401602060405180830381600087803b1580156104a257600080fd5b505af11580156104b6573d6000803e3d6000fd5b505050506040513d601f19601f820116820180604052508101906104da9190610e18565b600081815260086020908152604080832087905560098252808320869055868352600a82529182902083905581518681529081018590529081018290529091507f3f13685560bd8b2517f69ad10b1e2367cc13dc8df09b982ad90e1119c6337c9f906060015b60405180910390a1505050565b60005473ffffffffffffffffffffffffffffffffffffffff1633146105ce576040517f08c379a000000000000000000000000000000000000000000000000000000000815260206004820181905260248201527f4f776e61626c653a2063616c6c6572206973206e6f7420746865206f776e65726044820152606401610351565b6000828152600a60205260408120546006549091906105f990640100000000900461ffff1643610f97565b4043446106064287610f5a565b6106109190610f5a565b61061a9190610f5a565b6106249190610f5a565b60405160200161063691815260200190565b604080517fffffffffffffffffffffffffffffffffffffffffffffffffffffffffffffffe08184030181529181528151602092830120600085815260099093529120549091506106869082610fae565b610691906001610f42565b600085815260076020818152604080842080547fffffffffffffffffffffffffffffffffffffffffffffffffffffffff000000001663ffffffff96909616958617905560088252928390205491815282518881529081019190915290810183905260608101919091527f80bb76aef7e4ff2d1394b73868c9a3d09c1dddeff2c0c0c1d2567da7f4cd787e9060800160405180910390a150505050565b60005473ffffffffffffffffffffffffffffffffffffffff1633146107ae576040517f08c379a000000000000000000000000000000000000000000000000000000000815260206004820181905260248201527f4f776e61626c653a2063616c6c6572206973206e6f7420746865206f776e65726044820152606401610351565b6006805473ffffffffffffffffffffffffffffffffffffffff9092166601000000000000027fffffffffffff0000000000000000000000000000000000000000ffffffffffff909216919091179055565b3373ffffffffffffffffffffffffffffffffffffffff7f000000000000000000000000000000000000000000000000000000000000000016146108ac576040517f1cf993f400000000000000000000000000000000000000000000000000000000815233600482015273ffffffffffffffffffffffffffffffffffffffff7f0000000000000000000000000000000000000000000000000000000000000000166024820152604401610351565b6108b68282610bbb565b5050565b60005473ffffffffffffffffffffffffffffffffffffffff16331461093b576040517f08c379a000000000000000000000000000000000000000000000000000000000815260206004820181905260248201527f4f776e61626c653a2063616c6c6572206973206e6f7420746865206f776e65726044820152606401610351565b6109456000610d29565b565b60005473ffffffffffffffffffffffffffffffffffffffff1633146109c8576040517f08c379a000000000000000000000000000000000000000000000000000000000815260206004820181905260248201527f4f776e61626c653a2063616c6c6572206973206e6f7420746865206f776e65726044820152606401610351565b600555565b60005473ffffffffffffffffffffffffffffffffffffffff163314610a4e576040517f08c379a000000000000000000000000000000000000000000000000000000000815260206004820181905260248201527f4f776e61626c653a2063616c6c6572206973206e6f7420746865206f776e65726044820152606401610351565b6006805461ffff909216640100000000027fffffffffffffffffffffffffffffffffffffffffffffffffffff0000ffffffff909216919091179055565b60005473ffffffffffffffffffffffffffffffffffffffff163314610b0c576040517f08c379a000000000000000000000000000000000000000000000000000000000815260206004820181905260248201527f4f776e61626c653a2063616c6c6572206973206e6f7420746865206f776e65726044820152606401610351565b73ffffffffffffffffffffffffffffffffffffffff8116610baf576040517f08c379a000000000000000000000000000000000000000000000000000000000815260206004820152602660248201527f4f776e61626c653a206e6577206f776e657220697320746865207a65726f206160448201527f64647265737300000000000000000000000000000000000000000000000000006064820152608401610351565b610bb881610d29565b50565b60008281526008602052604090205480610c31576040517f08c379a000000000000000000000000000000000000000000000000000000000815260206004820152601960248201527f57726f6e67207461736b4964206f7220726571756573744964000000000000006044820152606401610351565b600083815260096020526040812054835190918491610c5257610c52611018565b6020026020010151610c649190610fae565b610c6f906001610f42565b600082815260076020526040812080547fffffffffffffffffffffffffffffffffffffffffffffffffffffffff000000001663ffffffff939093169290921790915582517f80bb76aef7e4ff2d1394b73868c9a3d09c1dddeff2c0c0c1d2567da7f4cd787e91839186918691610ce757610ce7611018565b602090810291909101810151600086815260078352604090819020548151958652928501939093529183019190915263ffffffff166060820152608001610540565b6000805473ffffffffffffffffffffffffffffffffffffffff8381167fffffffffffffffffffffffff0000000000000000000000000000000000000000831681178455604051919092169283917f8be0079c531659141344cd1fd0a4f28419497f9722a3daafe3b4186f6b6457e09190a35050565b600060208284031215610db057600080fd5b813573ffffffffffffffffffffffffffffffffffffffff81168114610dd457600080fd5b9392505050565b600060208284031215610ded57600080fd5b5035919050565b600060208284031215610e0657600080fd5b813561ffff81168114610dd457600080fd5b600060208284031215610e2a57600080fd5b5051919050565b60008060408385031215610e4457600080fd5b8235915060208084013567ffffffffffffffff80821115610e6457600080fd5b818601915086601f830112610e7857600080fd5b813581811115610e8a57610e8a611047565b8060051b6040517fffffffffffffffffffffffffffffffffffffffffffffffffffffffffffffffe0603f83011681018181108582111715610ecd57610ecd611047565b604052828152858101935084860182860187018b1015610eec57600080fd5b600095505b83861015610f0f578035855260019590950194938601938601610ef1565b508096505050505050509250929050565b60008060408385031215610f3357600080fd5b50508035926020909101359150565b60008219821115610f5557610f55610fe9565b500190565b6000817fffffffffffffffffffffffffffffffffffffffffffffffffffffffffffffffff0483118215151615610f9257610f92610fe9565b500290565b600082821015610fa957610fa9610fe9565b500390565b600082610fe4577f4e487b7100000000000000000000000000000000000000000000000000000000600052601260045260246000fd5b500690565b7f4e487b7100000000000000000000000000000000000000000000000000000000600052601160045260246000fd5b7f4e487b7100000000000000000000000000000000000000000000000000000000600052603260045260246000fd5b7f4e487b7100000000000000000000000000000000000000000000000000000000600052604160045260246000fdfea2646970667358221220f2ca350b232dad4183e168b25b47eace59efd67c4cc22c60f0d1d865e0387f8464736f6c63430008060033",
  "devdoc": {
    "kind": "dev",
    "methods": {
      "owner()": {
        "details": "Returns the address of the current owner."
      },
      "renounceOwnership()": {
        "details": "Leaves the contract without owner. It will not be possible to call `onlyOwner` functions anymore. Can only be called by the current owner. NOTE: Renouncing ownership will leave the contract without an owner, thereby removing any functionality that is only available to the owner."
      },
      "reqRandomNumber(uint256,uint256)": {
        "params": {
          "max": ": max provided by the LucksExecutor (lastTicketId)"
        }
      },
      "setExecutor(address)": {
        "params": {
          "_executor": ": address of the PancakeSwap crowdluck"
        }
      },
      "setKeyHash(bytes32)": {
        "params": {
          "_keyHash": ": new keyHash"
        }
      },
      "setReqConfirmations(uint16)": {
        "params": {
          "num": ": num"
        }
      },
      "transferOwnership(address)": {
        "details": "Transfers ownership of the contract to a new account (`newOwner`). Can only be called by the current owner."
      }
    },
    "title": "Openluck VRF",
    "version": 1
  },
  "userdoc": {
    "kind": "user",
    "methods": {
      "callbackRandomWords(uint256,uint256)": {
        "notice": "Callback for enmergency case"
      },
      "reqRandomNumber(uint256,uint256)": {
        "notice": "Request randomness from a user-provided max"
      },
      "setExecutor(address)": {
        "notice": "Set the address for the Lucks"
      },
      "setKeyHash(bytes32)": {
        "notice": "Change the keyHash"
      },
      "setReqConfirmations(uint16)": {
        "notice": "Change the requestConfirmations"
      },
      "viewRandomResult(uint256)": {
        "notice": "View random result"
      }
    },
    "notice": "It is the contract for Randomness Number Generation",
    "version": 1
  },
  "storageLayout": {
    "storage": [
      {
        "astId": 917,
        "contract": "contracts/lucks/LucksVRF.sol:LucksVRF",
        "label": "_owner",
        "offset": 0,
        "slot": "0",
        "type": "t_address"
      },
      {
        "astId": 16066,
        "contract": "contracts/lucks/LucksVRF.sol:LucksVRF",
        "label": "COORDINATOR",
        "offset": 0,
        "slot": "1",
        "type": "t_contract(VRFCoordinatorV2Interface)299"
      },
      {
        "astId": 16069,
        "contract": "contracts/lucks/LucksVRF.sol:LucksVRF",
        "label": "LINKTOKEN",
        "offset": 0,
        "slot": "2",
        "type": "t_contract(LinkTokenInterface)210"
      },
      {
        "astId": 16071,
        "contract": "contracts/lucks/LucksVRF.sol:LucksVRF",
        "label": "s_subscriptionId",
        "offset": 20,
        "slot": "2",
        "type": "t_uint64"
      },
      {
        "astId": 16074,
        "contract": "contracts/lucks/LucksVRF.sol:LucksVRF",
        "label": "vrfCoordinator",
        "offset": 0,
        "slot": "3",
        "type": "t_address"
      },
      {
        "astId": 16077,
        "contract": "contracts/lucks/LucksVRF.sol:LucksVRF",
        "label": "link",
        "offset": 0,
        "slot": "4",
        "type": "t_address"
      },
      {
        "astId": 16080,
        "contract": "contracts/lucks/LucksVRF.sol:LucksVRF",
        "label": "keyHash",
        "offset": 0,
        "slot": "5",
        "type": "t_bytes32"
      },
      {
        "astId": 16083,
        "contract": "contracts/lucks/LucksVRF.sol:LucksVRF",
        "label": "callbackGasLimit",
        "offset": 0,
        "slot": "6",
        "type": "t_uint32"
      },
      {
        "astId": 16086,
        "contract": "contracts/lucks/LucksVRF.sol:LucksVRF",
        "label": "requestConfirmations",
        "offset": 4,
        "slot": "6",
        "type": "t_uint16"
      },
      {
        "astId": 16088,
        "contract": "contracts/lucks/LucksVRF.sol:LucksVRF",
        "label": "EXECUTOR",
        "offset": 6,
        "slot": "6",
        "type": "t_address"
      },
      {
        "astId": 16092,
        "contract": "contracts/lucks/LucksVRF.sol:LucksVRF",
        "label": "randomResults",
        "offset": 0,
        "slot": "7",
        "type": "t_mapping(t_uint256,t_uint32)"
      },
      {
        "astId": 16096,
        "contract": "contracts/lucks/LucksVRF.sol:LucksVRF",
        "label": "requestToTaskId",
        "offset": 0,
        "slot": "8",
        "type": "t_mapping(t_uint256,t_uint256)"
      },
      {
        "astId": 16100,
        "contract": "contracts/lucks/LucksVRF.sol:LucksVRF",
        "label": "requestToMaxNum",
        "offset": 0,
        "slot": "9",
        "type": "t_mapping(t_uint256,t_uint256)"
      },
      {
        "astId": 16104,
        "contract": "contracts/lucks/LucksVRF.sol:LucksVRF",
        "label": "taskToRequestId",
        "offset": 0,
        "slot": "10",
        "type": "t_mapping(t_uint256,t_uint256)"
      }
    ],
    "types": {
      "t_address": {
        "encoding": "inplace",
        "label": "address",
        "numberOfBytes": "20"
      },
      "t_bytes32": {
        "encoding": "inplace",
        "label": "bytes32",
        "numberOfBytes": "32"
      },
      "t_contract(LinkTokenInterface)210": {
        "encoding": "inplace",
        "label": "contract LinkTokenInterface",
        "numberOfBytes": "20"
      },
      "t_contract(VRFCoordinatorV2Interface)299": {
        "encoding": "inplace",
        "label": "contract VRFCoordinatorV2Interface",
        "numberOfBytes": "20"
      },
      "t_mapping(t_uint256,t_uint256)": {
        "encoding": "mapping",
        "key": "t_uint256",
        "label": "mapping(uint256 => uint256)",
        "numberOfBytes": "32",
        "value": "t_uint256"
      },
      "t_mapping(t_uint256,t_uint32)": {
        "encoding": "mapping",
        "key": "t_uint256",
        "label": "mapping(uint256 => uint32)",
        "numberOfBytes": "32",
        "value": "t_uint32"
      },
      "t_uint16": {
        "encoding": "inplace",
        "label": "uint16",
        "numberOfBytes": "2"
      },
      "t_uint256": {
        "encoding": "inplace",
        "label": "uint256",
        "numberOfBytes": "32"
      },
      "t_uint32": {
        "encoding": "inplace",
        "label": "uint32",
        "numberOfBytes": "4"
      },
      "t_uint64": {
        "encoding": "inplace",
        "label": "uint64",
        "numberOfBytes": "8"
      }
    }
  }
}