{
  "address": "0xBC38e7E4d02E35F2a93F1B814782Fd01f6606efc",
  "abi": [
    {
      "inputs": [
        {
          "internalType": "address",
          "name": "_executor",
          "type": "address"
        },
        {
          "internalType": "uint32",
          "name": "_maxSeat",
          "type": "uint32"
        }
      ],
      "stateMutability": "nonpayable",
      "type": "constructor"
    },
    {
      "anonymous": false,
      "inputs": [
        {
          "indexed": false,
          "internalType": "address",
          "name": "user",
          "type": "address"
        },
        {
          "indexed": false,
          "internalType": "uint256",
          "name": "taskId",
          "type": "uint256"
        },
        {
          "indexed": false,
          "internalType": "uint256",
          "name": "groupId",
          "type": "uint256"
        },
        {
          "indexed": false,
          "internalType": "uint16",
          "name": "seat",
          "type": "uint16"
        }
      ],
      "name": "CreateGroup",
      "type": "event"
    },
    {
      "anonymous": false,
      "inputs": [
        {
          "indexed": false,
          "internalType": "address",
          "name": "user",
          "type": "address"
        },
        {
          "indexed": false,
          "internalType": "uint256",
          "name": "taskId",
          "type": "uint256"
        },
        {
          "indexed": false,
          "internalType": "uint256",
          "name": "groupId",
          "type": "uint256"
        }
      ],
      "name": "JoinGroup",
      "type": "event"
    },
    {
      "inputs": [],
      "name": "EXECUTOR",
      "outputs": [
        {
          "internalType": "contract ILucksExecutor",
          "name": "",
          "type": "address"
        }
      ],
      "stateMutability": "view",
      "type": "function"
    },
    {
      "inputs": [],
      "name": "MAX_SEAT",
      "outputs": [
        {
          "internalType": "uint32",
          "name": "",
          "type": "uint32"
        }
      ],
      "stateMutability": "view",
      "type": "function"
    },
    {
      "inputs": [
        {
          "internalType": "uint256",
          "name": "taskId",
          "type": "uint256"
        },
        {
          "internalType": "uint16",
          "name": "seat",
          "type": "uint16"
        }
      ],
      "name": "createGroup",
      "outputs": [],
      "stateMutability": "nonpayable",
      "type": "function"
    },
    {
      "inputs": [
        {
          "internalType": "uint256",
          "name": "taskId",
          "type": "uint256"
        },
        {
          "internalType": "address",
          "name": "user",
          "type": "address"
        }
      ],
      "name": "getGroupUsers",
      "outputs": [
        {
          "internalType": "address[]",
          "name": "",
          "type": "address[]"
        }
      ],
      "stateMutability": "view",
      "type": "function"
    },
    {
      "inputs": [
        {
          "internalType": "uint256",
          "name": "",
          "type": "uint256"
        }
      ],
      "name": "groupIds",
      "outputs": [
        {
          "internalType": "uint256",
          "name": "",
          "type": "uint256"
        }
      ],
      "stateMutability": "view",
      "type": "function"
    },
    {
      "inputs": [
        {
          "internalType": "uint256",
          "name": "",
          "type": "uint256"
        },
        {
          "internalType": "uint256",
          "name": "",
          "type": "uint256"
        }
      ],
      "name": "groupSeat",
      "outputs": [
        {
          "internalType": "uint16",
          "name": "",
          "type": "uint16"
        }
      ],
      "stateMutability": "view",
      "type": "function"
    },
    {
      "inputs": [
        {
          "internalType": "uint256",
          "name": "",
          "type": "uint256"
        },
        {
          "internalType": "uint256",
          "name": "",
          "type": "uint256"
        },
        {
          "internalType": "uint256",
          "name": "",
          "type": "uint256"
        }
      ],
      "name": "groups",
      "outputs": [
        {
          "internalType": "address",
          "name": "",
          "type": "address"
        }
      ],
      "stateMutability": "view",
      "type": "function"
    },
    {
      "inputs": [
        {
          "internalType": "uint256",
          "name": "taskId",
          "type": "uint256"
        },
        {
          "internalType": "uint256",
          "name": "groupId",
          "type": "uint256"
        },
        {
          "internalType": "uint16",
          "name": "seat",
          "type": "uint16"
        }
      ],
      "name": "joinGroup",
      "outputs": [],
      "stateMutability": "nonpayable",
      "type": "function"
    },
    {
      "inputs": [
        {
          "internalType": "address",
          "name": "",
          "type": "address"
        },
        {
          "internalType": "uint256",
          "name": "",
          "type": "uint256"
        }
      ],
      "name": "userGroups",
      "outputs": [
        {
          "internalType": "uint256",
          "name": "",
          "type": "uint256"
        }
      ],
      "stateMutability": "view",
      "type": "function"
    }
  ],
  "transactionHash": "0xb3ae47ecab4a0d477955ccc75eae6bf6ba42d5c47c903fa531068f4872f0a685",
  "args": [
    "0x0C2Ee72fb44036039fEF429Dd067cA46483B66dD",
    10
  ],
  "numDeployments": 1,
  "solcInputHash": "177ed0f2b9f34374598af4314d3fc464",
  "bytecode": "0x60806040526000805463ffffffff60a01b1916600560a11b17905534801561002657600080fd5b506040516113593803806113598339810160408190526100459161007a565b6000805463ffffffff909216600160a01b026001600160c01b03199092166001600160a01b03909316929092171790556100c9565b6000806040838503121561008d57600080fd5b82516001600160a01b03811681146100a457600080fd5b602084015190925063ffffffff811681146100be57600080fd5b809150509250929050565b611281806100d86000396000f3fe608060405234801561001057600080fd5b50600436106100a35760003560e01c80634093d7a111610076578063630dc7cb1161005b578063630dc7cb146101a357806376e5066e146101c3578063dead6c1e1461020557600080fd5b80634093d7a11461014a57806360a9e0971461017857600080fd5b806313cedac8146100a857806317a0a232146100ea5780632d027f75146100ff57806338c1cdb214610112575b600080fd5b6000546100d09074010000000000000000000000000000000000000000900463ffffffff1681565b60405163ffffffff90911681526020015b60405180910390f35b6100fd6100f8366004611090565b610225565b005b6100fd61010d366004611049565b6107b1565b6101256101203660046110c9565b6107c0565b60405173ffffffffffffffffffffffffffffffffffffffff90911681526020016100e1565b61016a610158366004611000565b60016020526000908152604090205481565b6040519081526020016100e1565b61016a610186366004610e7d565b600360209081526000928352604080842090915290825290205481565b6000546101259073ffffffffffffffffffffffffffffffffffffffff1681565b6101f26101d136600461106e565b600460209081526000928352604080842090915290825290205461ffff1681565b60405161ffff90911681526020016100e1565b610218610213366004611019565b610812565b6040516100e191906110f5565b33821580159061024357506000848152600160205260409020548311155b6102ae576040517f08c379a000000000000000000000000000000000000000000000000000000000815260206004820152600f60248201527f496e76616c69642067726f75704964000000000000000000000000000000000060448201526064015b60405180910390fd5b60005474010000000000000000000000000000000000000000900463ffffffff1661ffff8316111561033c576040517f08c379a000000000000000000000000000000000000000000000000000000000815260206004820152600c60248201527f496e76616c69642073656174000000000000000000000000000000000000000060448201526064016102a5565b73ffffffffffffffffffffffffffffffffffffffff81166000908152600360209081526040808320878452909152902054156103d4576040517f08c379a000000000000000000000000000000000000000000000000000000000815260206004820152601460248201527f416c7265616479206a6f696e20612067726f757000000000000000000000000060448201526064016102a5565b60005473ffffffffffffffffffffffffffffffffffffffff16610453576040517f08c379a000000000000000000000000000000000000000000000000000000000815260206004820152601060248201527f4558454355544f52206e6f74207365740000000000000000000000000000000060448201526064016102a5565b600080546040517f1d65e77e0000000000000000000000000000000000000000000000000000000081526004810187905273ffffffffffffffffffffffffffffffffffffffff90911690631d65e77e9060240160006040518083038186803b1580156104be57600080fd5b505afa1580156104d2573d6000803e3d6000fd5b505050506040513d6000823e601f3d9081017fffffffffffffffffffffffffffffffffffffffffffffffffffffffffffffffe01682016040526105189190810190610ea9565b9050806101000151421115610589576040517f08c379a000000000000000000000000000000000000000000000000000000000815260206004820152601260248201527f496e76616c69642074696d652072616e6765000000000000000000000000000060448201526064016102a5565b60008160c0015160058111156105a1576105a16111b8565b14806105c2575060018160c0015160058111156105c0576105c06111b8565b145b610628576040517f08c379a000000000000000000000000000000000000000000000000000000000815260206004820152600e60248201527f496e76616c69642073746174757300000000000000000000000000000000000060448201526064016102a5565b60008054868252600260209081526040808420888552909152909120547401000000000000000000000000000000000000000090910463ffffffff16111561072b576000858152600260209081526040808320878452825280832080546001810182559084528284200180547fffffffffffffffffffffffff00000000000000000000000000000000000000001673ffffffffffffffffffffffffffffffffffffffff871690811790915580845260038352818420898552835292819020879055805192835290820187905281018590527f9ded7a3449a7d51e28eafa621e5ed2137c3aa3778b53065e2d07bf5078893edc9060600160405180910390a16107aa565b60018361ffff161115610748576107438286856108bc565b6107aa565b6040517f08c379a000000000000000000000000000000000000000000000000000000000815260206004820152600b60248201527f457863656564207365617400000000000000000000000000000000000000000060448201526064016102a5565b5050505050565b6107bc3383836108bc565b5050565b600260205282600052604060002060205281600052604060002081815481106107e857600080fd5b60009182526020909120015473ffffffffffffffffffffffffffffffffffffffff16925083915050565b600082815260026020908152604080832073ffffffffffffffffffffffffffffffffffffffff851684526003835281842086855283528184205484528252918290208054835181840281018401909452808452606093928301828280156108af57602002820191906000526020600020905b815473ffffffffffffffffffffffffffffffffffffffff168152600190910190602001808311610884575b5050505050905092915050565b60005474010000000000000000000000000000000000000000900463ffffffff1661ffff8216118015906108f4575060018161ffff16115b61095a576040517f08c379a000000000000000000000000000000000000000000000000000000000815260206004820152600c60248201527f496e76616c69642073656174000000000000000000000000000000000000000060448201526064016102a5565b73ffffffffffffffffffffffffffffffffffffffff83166000908152600360209081526040808320858452909152902054156109f2576040517f08c379a000000000000000000000000000000000000000000000000000000000815260206004820152601460248201527f416c7265616479206a6f696e20612067726f757000000000000000000000000060448201526064016102a5565b60005473ffffffffffffffffffffffffffffffffffffffff16610a71576040517f08c379a000000000000000000000000000000000000000000000000000000000815260206004820152601060248201527f4558454355544f52206e6f74207365740000000000000000000000000000000060448201526064016102a5565b600080546040517f1d65e77e0000000000000000000000000000000000000000000000000000000081526004810185905273ffffffffffffffffffffffffffffffffffffffff90911690631d65e77e9060240160006040518083038186803b158015610adc57600080fd5b505afa158015610af0573d6000803e3d6000fd5b505050506040513d6000823e601f3d9081017fffffffffffffffffffffffffffffffffffffffffffffffffffffffffffffffe0168201604052610b369190810190610ea9565b9050806101000151421115610ba7576040517f08c379a000000000000000000000000000000000000000000000000000000000815260206004820152601260248201527f496e76616c69642074696d652072616e6765000000000000000000000000000060448201526064016102a5565b60008160c001516005811115610bbf57610bbf6111b8565b1480610be0575060018160c001516005811115610bde57610bde6111b8565b145b610c46576040517f08c379a000000000000000000000000000000000000000000000000000000000815260206004820152600e60248201527f496e76616c69642073746174757300000000000000000000000000000000000060448201526064016102a5565b6000838152600160208190526040822054610c6091611179565b600085815260016020818152604080842085905560028252808420858552825280842080549384018155845281842090920180547fffffffffffffffffffffffff00000000000000000000000000000000000000001673ffffffffffffffffffffffffffffffffffffffff8b169081179091558084526003825282842089855282529282902084905581519283528201879052810182905261ffff851660608201529091507f5c23ecf7d35b727b39000e452236d77f421afe8aa28e32d120085c0b3a8f16b69060800160405180910390a15050505050565b8051610d4481611216565b919050565b600082601f830112610d5a57600080fd5b8151602067ffffffffffffffff80831115610d7757610d776111e7565b8260051b6040517fffffffffffffffffffffffffffffffffffffffffffffffffffffffffffffffe0603f83011681018181108482111715610dba57610dba6111e7565b60405284815283810192508684018288018501891015610dd957600080fd5b600092505b85831015610dfc578051845292840192600192909201918401610dde565b50979650505050505050565b805160068110610d4457600080fd5b600060408284031215610e2957600080fd5b6040516040810181811067ffffffffffffffff82111715610e4c57610e4c6111e7565b80604052508091508251610e5f81611216565b8152602092830151920191909152919050565b8051610d448161123b565b60008060408385031215610e9057600080fd5b8235610e9b81611216565b946020939093013593505050565b600060208284031215610ebb57600080fd5b815167ffffffffffffffff80821115610ed357600080fd5b908301906102008286031215610ee857600080fd5b610ef061114f565b610ef983610d39565b8152610f0760208401610e72565b6020820152610f1860408401610d39565b6040820152606083015182811115610f2f57600080fd5b610f3b87828601610d49565b606083015250608083015182811115610f5357600080fd5b610f5f87828601610d49565b608083015250610f7160a08401610d39565b60a0820152610f8260c08401610e08565b60c082015260e083810151908201526101008084015190820152610120808401519082015261014080840151908201526101609150610fc2828401610e72565b828201526101809150610fd786838501610e17565b828201526101c09150818301516101a08201526101e08301518282015280935050505092915050565b60006020828403121561101257600080fd5b5035919050565b6000806040838503121561102c57600080fd5b82359150602083013561103e81611216565b809150509250929050565b6000806040838503121561105c57600080fd5b82359150602083013561103e8161123b565b6000806040838503121561108157600080fd5b50508035926020909101359150565b6000806000606084860312156110a557600080fd5b833592506020840135915060408401356110be8161123b565b809150509250925092565b6000806000606084860312156110de57600080fd5b505081359360208301359350604090920135919050565b6020808252825182820181905260009190848201906040850190845b8181101561114357835173ffffffffffffffffffffffffffffffffffffffff1683529284019291840191600101611111565b50909695505050505050565b6040516101e0810167ffffffffffffffff81118282101715611173576111736111e7565b60405290565b600082198211156111b3577f4e487b7100000000000000000000000000000000000000000000000000000000600052601160045260246000fd5b500190565b7f4e487b7100000000000000000000000000000000000000000000000000000000600052602160045260246000fd5b7f4e487b7100000000000000000000000000000000000000000000000000000000600052604160045260246000fd5b73ffffffffffffffffffffffffffffffffffffffff8116811461123857600080fd5b50565b61ffff8116811461123857600080fdfea2646970667358221220a57bf78fd207e51874d06e9c785b8ea26b7a7a4d9c4311533a130827c4b32d8864736f6c63430008060033",
  "devdoc": {
    "kind": "dev",
    "methods": {},
    "title": "Openluck LucksGroup",
    "version": 1
  },
  "userdoc": {
    "kind": "user",
    "methods": {},
    "notice": "It is the contract for LucksGroup",
    "version": 1
  },
  "storageLayout": {
    "storage": [
      {
        "astId": 13967,
        "contract": "contracts/lucks/LucksGroup.sol:LucksGroup",
        "label": "EXECUTOR",
        "offset": 0,
        "slot": "0",
        "type": "t_contract(ILucksExecutor)9853"
      },
      {
        "astId": 13970,
        "contract": "contracts/lucks/LucksGroup.sol:LucksGroup",
        "label": "MAX_SEAT",
        "offset": 20,
        "slot": "0",
        "type": "t_uint32"
      },
      {
        "astId": 13974,
        "contract": "contracts/lucks/LucksGroup.sol:LucksGroup",
        "label": "groupIds",
        "offset": 0,
        "slot": "1",
        "type": "t_mapping(t_uint256,t_uint256)"
      },
      {
        "astId": 13981,
        "contract": "contracts/lucks/LucksGroup.sol:LucksGroup",
        "label": "groups",
        "offset": 0,
        "slot": "2",
        "type": "t_mapping(t_uint256,t_mapping(t_uint256,t_array(t_address)dyn_storage))"
      },
      {
        "astId": 13987,
        "contract": "contracts/lucks/LucksGroup.sol:LucksGroup",
        "label": "userGroups",
        "offset": 0,
        "slot": "3",
        "type": "t_mapping(t_address,t_mapping(t_uint256,t_uint256))"
      },
      {
        "astId": 13993,
        "contract": "contracts/lucks/LucksGroup.sol:LucksGroup",
        "label": "groupSeat",
        "offset": 0,
        "slot": "4",
        "type": "t_mapping(t_uint256,t_mapping(t_uint256,t_uint16))"
      }
    ],
    "types": {
      "t_address": {
        "encoding": "inplace",
        "label": "address",
        "numberOfBytes": "20"
      },
      "t_array(t_address)dyn_storage": {
        "base": "t_address",
        "encoding": "dynamic_array",
        "label": "address[]",
        "numberOfBytes": "32"
      },
      "t_contract(ILucksExecutor)9853": {
        "encoding": "inplace",
        "label": "contract ILucksExecutor",
        "numberOfBytes": "20"
      },
      "t_mapping(t_address,t_mapping(t_uint256,t_uint256))": {
        "encoding": "mapping",
        "key": "t_address",
        "label": "mapping(address => mapping(uint256 => uint256))",
        "numberOfBytes": "32",
        "value": "t_mapping(t_uint256,t_uint256)"
      },
      "t_mapping(t_uint256,t_array(t_address)dyn_storage)": {
        "encoding": "mapping",
        "key": "t_uint256",
        "label": "mapping(uint256 => address[])",
        "numberOfBytes": "32",
        "value": "t_array(t_address)dyn_storage"
      },
      "t_mapping(t_uint256,t_mapping(t_uint256,t_array(t_address)dyn_storage))": {
        "encoding": "mapping",
        "key": "t_uint256",
        "label": "mapping(uint256 => mapping(uint256 => address[]))",
        "numberOfBytes": "32",
        "value": "t_mapping(t_uint256,t_array(t_address)dyn_storage)"
      },
      "t_mapping(t_uint256,t_mapping(t_uint256,t_uint16))": {
        "encoding": "mapping",
        "key": "t_uint256",
        "label": "mapping(uint256 => mapping(uint256 => uint16))",
        "numberOfBytes": "32",
        "value": "t_mapping(t_uint256,t_uint16)"
      },
      "t_mapping(t_uint256,t_uint16)": {
        "encoding": "mapping",
        "key": "t_uint256",
        "label": "mapping(uint256 => uint16)",
        "numberOfBytes": "32",
        "value": "t_uint16"
      },
      "t_mapping(t_uint256,t_uint256)": {
        "encoding": "mapping",
        "key": "t_uint256",
        "label": "mapping(uint256 => uint256)",
        "numberOfBytes": "32",
        "value": "t_uint256"
      },
      "t_uint16": {
        "encoding": "inplace",
        "label": "uint16",
        "numberOfBytes": "2"
      },
      "t_uint256": {
        "encoding": "inplace",
        "label": "uint256",
        "numberOfBytes": "32"
      },
      "t_uint32": {
        "encoding": "inplace",
        "label": "uint32",
        "numberOfBytes": "4"
      }
    }
  }
}