{
  "address": "0xcc1FB729A18Fa04703E3985852F62AAdD7041121",
  "abi": [
    {
      "inputs": [
        {
          "internalType": "uint16",
          "name": "_chainId",
          "type": "uint16"
        }
      ],
      "stateMutability": "nonpayable",
      "type": "constructor"
    },
    {
      "anonymous": false,
      "inputs": [
        {
          "indexed": false,
          "internalType": "uint16",
          "name": "srcChainId",
          "type": "uint16"
        },
        {
          "indexed": false,
          "internalType": "bytes",
          "name": "srcAddress",
          "type": "bytes"
        },
        {
          "indexed": false,
          "internalType": "uint64",
          "name": "nonce",
          "type": "uint64"
        },
        {
          "indexed": false,
          "internalType": "address",
          "name": "dstAddress",
          "type": "address"
        }
      ],
      "name": "PayloadCleared",
      "type": "event"
    },
    {
      "anonymous": false,
      "inputs": [
        {
          "indexed": false,
          "internalType": "uint16",
          "name": "srcChainId",
          "type": "uint16"
        },
        {
          "indexed": false,
          "internalType": "bytes",
          "name": "srcAddress",
          "type": "bytes"
        },
        {
          "indexed": false,
          "internalType": "address",
          "name": "dstAddress",
          "type": "address"
        },
        {
          "indexed": false,
          "internalType": "uint64",
          "name": "nonce",
          "type": "uint64"
        },
        {
          "indexed": false,
          "internalType": "bytes",
          "name": "payload",
          "type": "bytes"
        },
        {
          "indexed": false,
          "internalType": "bytes",
          "name": "reason",
          "type": "bytes"
        }
      ],
      "name": "PayloadStored",
      "type": "event"
    },
    {
      "anonymous": false,
      "inputs": [
        {
          "indexed": false,
          "internalType": "uint16",
          "name": "chainId",
          "type": "uint16"
        },
        {
          "indexed": false,
          "internalType": "bytes",
          "name": "srcAddress",
          "type": "bytes"
        }
      ],
      "name": "UaForceResumeReceive",
      "type": "event"
    },
    {
      "inputs": [
        {
          "internalType": "address",
          "name": "_a",
          "type": "address"
        }
      ],
      "name": "addrToPackedBytes",
      "outputs": [
        {
          "internalType": "bytes",
          "name": "",
          "type": "bytes"
        }
      ],
      "stateMutability": "pure",
      "type": "function"
    },
    {
      "inputs": [],
      "name": "blockNextMsg",
      "outputs": [],
      "stateMutability": "nonpayable",
      "type": "function"
    },
    {
      "inputs": [
        {
          "internalType": "uint16",
          "name": "",
          "type": "uint16"
        },
        {
          "internalType": "address",
          "name": "",
          "type": "address"
        },
        {
          "internalType": "bytes",
          "name": "_payload",
          "type": "bytes"
        },
        {
          "internalType": "bool",
          "name": "",
          "type": "bool"
        },
        {
          "internalType": "bytes",
          "name": "",
          "type": "bytes"
        }
      ],
      "name": "estimateFees",
      "outputs": [
        {
          "internalType": "uint256",
          "name": "_nativeFee",
          "type": "uint256"
        },
        {
          "internalType": "uint256",
          "name": "_zroFee",
          "type": "uint256"
        }
      ],
      "stateMutability": "view",
      "type": "function"
    },
    {
      "inputs": [
        {
          "internalType": "uint16",
          "name": "_srcChainId",
          "type": "uint16"
        },
        {
          "internalType": "bytes",
          "name": "_srcAddress",
          "type": "bytes"
        }
      ],
      "name": "forceResumeReceive",
      "outputs": [],
      "stateMutability": "nonpayable",
      "type": "function"
    },
    {
      "inputs": [],
      "name": "getChainId",
      "outputs": [
        {
          "internalType": "uint16",
          "name": "",
          "type": "uint16"
        }
      ],
      "stateMutability": "view",
      "type": "function"
    },
    {
      "inputs": [
        {
          "internalType": "uint16",
          "name": "",
          "type": "uint16"
        },
        {
          "internalType": "uint16",
          "name": "",
          "type": "uint16"
        },
        {
          "internalType": "address",
          "name": "",
          "type": "address"
        },
        {
          "internalType": "uint256",
          "name": "",
          "type": "uint256"
        }
      ],
      "name": "getConfig",
      "outputs": [
        {
          "internalType": "bytes",
          "name": "",
          "type": "bytes"
        }
      ],
      "stateMutability": "pure",
      "type": "function"
    },
    {
      "inputs": [
        {
          "internalType": "uint16",
          "name": "_chainID",
          "type": "uint16"
        },
        {
          "internalType": "bytes",
          "name": "_srcAddress",
          "type": "bytes"
        }
      ],
      "name": "getInboundNonce",
      "outputs": [
        {
          "internalType": "uint64",
          "name": "",
          "type": "uint64"
        }
      ],
      "stateMutability": "view",
      "type": "function"
    },
    {
      "inputs": [
        {
          "internalType": "uint16",
          "name": "_srcChainId",
          "type": "uint16"
        },
        {
          "internalType": "bytes",
          "name": "_srcAddress",
          "type": "bytes"
        }
      ],
      "name": "getLengthOfQueue",
      "outputs": [
        {
          "internalType": "uint256",
          "name": "",
          "type": "uint256"
        }
      ],
      "stateMutability": "view",
      "type": "function"
    },
    {
      "inputs": [
        {
          "internalType": "uint16",
          "name": "_chainID",
          "type": "uint16"
        },
        {
          "internalType": "address",
          "name": "_srcAddress",
          "type": "address"
        }
      ],
      "name": "getOutboundNonce",
      "outputs": [
        {
          "internalType": "uint64",
          "name": "",
          "type": "uint64"
        }
      ],
      "stateMutability": "view",
      "type": "function"
    },
    {
      "inputs": [
        {
          "internalType": "address",
          "name": "",
          "type": "address"
        }
      ],
      "name": "getReceiveLibraryAddress",
      "outputs": [
        {
          "internalType": "address",
          "name": "",
          "type": "address"
        }
      ],
      "stateMutability": "view",
      "type": "function"
    },
    {
      "inputs": [
        {
          "internalType": "address",
          "name": "",
          "type": "address"
        }
      ],
      "name": "getReceiveVersion",
      "outputs": [
        {
          "internalType": "uint16",
          "name": "",
          "type": "uint16"
        }
      ],
      "stateMutability": "pure",
      "type": "function"
    },
    {
      "inputs": [
        {
          "internalType": "address",
          "name": "",
          "type": "address"
        }
      ],
      "name": "getSendLibraryAddress",
      "outputs": [
        {
          "internalType": "address",
          "name": "",
          "type": "address"
        }
      ],
      "stateMutability": "view",
      "type": "function"
    },
    {
      "inputs": [
        {
          "internalType": "address",
          "name": "",
          "type": "address"
        }
      ],
      "name": "getSendVersion",
      "outputs": [
        {
          "internalType": "uint16",
          "name": "",
          "type": "uint16"
        }
      ],
      "stateMutability": "pure",
      "type": "function"
    },
    {
      "inputs": [
        {
          "internalType": "uint16",
          "name": "_srcChainId",
          "type": "uint16"
        },
        {
          "internalType": "bytes",
          "name": "_srcAddress",
          "type": "bytes"
        }
      ],
      "name": "hasStoredPayload",
      "outputs": [
        {
          "internalType": "bool",
          "name": "",
          "type": "bool"
        }
      ],
      "stateMutability": "view",
      "type": "function"
    },
    {
      "inputs": [
        {
          "internalType": "uint16",
          "name": "",
          "type": "uint16"
        },
        {
          "internalType": "bytes",
          "name": "",
          "type": "bytes"
        }
      ],
      "name": "inboundNonce",
      "outputs": [
        {
          "internalType": "uint64",
          "name": "",
          "type": "uint64"
        }
      ],
      "stateMutability": "view",
      "type": "function"
    },
    {
      "inputs": [],
      "name": "isReceivingPayload",
      "outputs": [
        {
          "internalType": "bool",
          "name": "",
          "type": "bool"
        }
      ],
      "stateMutability": "pure",
      "type": "function"
    },
    {
      "inputs": [],
      "name": "isSendingPayload",
      "outputs": [
        {
          "internalType": "bool",
          "name": "",
          "type": "bool"
        }
      ],
      "stateMutability": "pure",
      "type": "function"
    },
    {
      "inputs": [
        {
          "internalType": "address",
          "name": "",
          "type": "address"
        }
      ],
      "name": "lzEndpointLookup",
      "outputs": [
        {
          "internalType": "address",
          "name": "",
          "type": "address"
        }
      ],
      "stateMutability": "view",
      "type": "function"
    },
    {
      "inputs": [],
      "name": "mockBlockConfirmations",
      "outputs": [
        {
          "internalType": "uint256",
          "name": "",
          "type": "uint256"
        }
      ],
      "stateMutability": "view",
      "type": "function"
    },
    {
      "inputs": [],
      "name": "mockChainId",
      "outputs": [
        {
          "internalType": "uint16",
          "name": "",
          "type": "uint16"
        }
      ],
      "stateMutability": "view",
      "type": "function"
    },
    {
      "inputs": [],
      "name": "mockLayerZeroVersion",
      "outputs": [
        {
          "internalType": "uint16",
          "name": "",
          "type": "uint16"
        }
      ],
      "stateMutability": "view",
      "type": "function"
    },
    {
      "inputs": [],
      "name": "mockLibraryVersion",
      "outputs": [
        {
          "internalType": "uint16",
          "name": "",
          "type": "uint16"
        }
      ],
      "stateMutability": "view",
      "type": "function"
    },
    {
      "inputs": [],
      "name": "mockOracle",
      "outputs": [
        {
          "internalType": "address payable",
          "name": "",
          "type": "address"
        }
      ],
      "stateMutability": "view",
      "type": "function"
    },
    {
      "inputs": [],
      "name": "mockRelayer",
      "outputs": [
        {
          "internalType": "address payable",
          "name": "",
          "type": "address"
        }
      ],
      "stateMutability": "view",
      "type": "function"
    },
    {
      "inputs": [],
      "name": "mockStaticNativeFee",
      "outputs": [
        {
          "internalType": "uint256",
          "name": "",
          "type": "uint256"
        }
      ],
      "stateMutability": "view",
      "type": "function"
    },
    {
      "inputs": [
        {
          "internalType": "uint16",
          "name": "",
          "type": "uint16"
        },
        {
          "internalType": "bytes",
          "name": "",
          "type": "bytes"
        },
        {
          "internalType": "uint256",
          "name": "",
          "type": "uint256"
        }
      ],
      "name": "msgsToDeliver",
      "outputs": [
        {
          "internalType": "address",
          "name": "dstAddress",
          "type": "address"
        },
        {
          "internalType": "uint64",
          "name": "nonce",
          "type": "uint64"
        },
        {
          "internalType": "bytes",
          "name": "payload",
          "type": "bytes"
        }
      ],
      "stateMutability": "view",
      "type": "function"
    },
    {
      "inputs": [],
      "name": "nativeFee",
      "outputs": [
        {
          "internalType": "uint256",
          "name": "",
          "type": "uint256"
        }
      ],
      "stateMutability": "view",
      "type": "function"
    },
    {
      "inputs": [
        {
          "internalType": "uint16",
          "name": "",
          "type": "uint16"
        },
        {
          "internalType": "address",
          "name": "",
          "type": "address"
        }
      ],
      "name": "outboundNonce",
      "outputs": [
        {
          "internalType": "uint64",
          "name": "",
          "type": "uint64"
        }
      ],
      "stateMutability": "view",
      "type": "function"
    },
    {
      "inputs": [
        {
          "internalType": "bytes",
          "name": "_b",
          "type": "bytes"
        }
      ],
      "name": "packedBytesToAddr",
      "outputs": [
        {
          "internalType": "address",
          "name": "",
          "type": "address"
        }
      ],
      "stateMutability": "pure",
      "type": "function"
    },
    {
      "inputs": [
        {
          "internalType": "uint16",
          "name": "_srcChainId",
          "type": "uint16"
        },
        {
          "internalType": "bytes",
          "name": "_srcAddress",
          "type": "bytes"
        },
        {
          "internalType": "address",
          "name": "_dstAddress",
          "type": "address"
        },
        {
          "internalType": "uint64",
          "name": "_nonce",
          "type": "uint64"
        },
        {
          "internalType": "uint256",
          "name": "",
          "type": "uint256"
        },
        {
          "internalType": "bytes",
          "name": "_payload",
          "type": "bytes"
        }
      ],
      "name": "receivePayload",
      "outputs": [],
      "stateMutability": "nonpayable",
      "type": "function"
    },
    {
      "inputs": [
        {
          "internalType": "uint16",
          "name": "_srcChainId",
          "type": "uint16"
        },
        {
          "internalType": "bytes",
          "name": "_srcAddress",
          "type": "bytes"
        },
        {
          "internalType": "bytes",
          "name": "_payload",
          "type": "bytes"
        }
      ],
      "name": "retryPayload",
      "outputs": [],
      "stateMutability": "nonpayable",
      "type": "function"
    },
    {
      "inputs": [
        {
          "internalType": "uint16",
          "name": "_chainId",
          "type": "uint16"
        },
        {
          "internalType": "bytes",
          "name": "_destination",
          "type": "bytes"
        },
        {
          "internalType": "bytes",
          "name": "_payload",
          "type": "bytes"
        },
        {
          "internalType": "address payable",
          "name": "",
          "type": "address"
        },
        {
          "internalType": "address",
          "name": "",
          "type": "address"
        },
        {
          "internalType": "bytes",
          "name": "_adapterParams",
          "type": "bytes"
        }
      ],
      "name": "send",
      "outputs": [],
      "stateMutability": "payable",
      "type": "function"
    },
    {
      "inputs": [
        {
          "internalType": "uint16",
          "name": "",
          "type": "uint16"
        },
        {
          "internalType": "uint16",
          "name": "",
          "type": "uint16"
        },
        {
          "internalType": "uint256",
          "name": "",
          "type": "uint256"
        },
        {
          "internalType": "bytes",
          "name": "",
          "type": "bytes"
        }
      ],
      "name": "setConfig",
      "outputs": [],
      "stateMutability": "nonpayable",
      "type": "function"
    },
    {
      "inputs": [
        {
          "internalType": "address",
          "name": "destAddr",
          "type": "address"
        },
        {
          "internalType": "address",
          "name": "lzEndpointAddr",
          "type": "address"
        }
      ],
      "name": "setDestLzEndpoint",
      "outputs": [],
      "stateMutability": "nonpayable",
      "type": "function"
    },
    {
      "inputs": [
        {
          "internalType": "uint256",
          "name": "_nativeFee",
          "type": "uint256"
        },
        {
          "internalType": "uint256",
          "name": "_zroFee",
          "type": "uint256"
        }
      ],
      "name": "setEstimatedFees",
      "outputs": [],
      "stateMutability": "nonpayable",
      "type": "function"
    },
    {
      "inputs": [
        {
          "internalType": "uint16",
          "name": "",
          "type": "uint16"
        }
      ],
      "name": "setReceiveVersion",
      "outputs": [],
      "stateMutability": "nonpayable",
      "type": "function"
    },
    {
      "inputs": [
        {
          "internalType": "uint16",
          "name": "",
          "type": "uint16"
        }
      ],
      "name": "setSendVersion",
      "outputs": [],
      "stateMutability": "nonpayable",
      "type": "function"
    },
    {
      "inputs": [
        {
          "internalType": "uint16",
          "name": "",
          "type": "uint16"
        },
        {
          "internalType": "bytes",
          "name": "",
          "type": "bytes"
        }
      ],
      "name": "storedPayload",
      "outputs": [
        {
          "internalType": "uint64",
          "name": "payloadLength",
          "type": "uint64"
        },
        {
          "internalType": "address",
          "name": "dstAddress",
          "type": "address"
        },
        {
          "internalType": "bytes32",
          "name": "payloadHash",
          "type": "bytes32"
        }
      ],
      "stateMutability": "view",
      "type": "function"
    },
    {
      "inputs": [],
      "name": "zroFee",
      "outputs": [
        {
          "internalType": "uint256",
          "name": "",
          "type": "uint256"
        }
      ],
      "stateMutability": "view",
      "type": "function"
    }
  ],
  "transactionHash": "0x797269f9decb68515897e7aeba4bdd33dca05073aa91888003159b9b35ca4a5c",
  "args": [
    2
  ],
  "numDeployments": 1,
  "solcInputHash": "177ed0f2b9f34374598af4314d3fc464",
  "bytecode": "0x60806040523480156200001157600080fd5b50604051620029ba380380620029ba833981016040819052620000349162000061565b602a60055560068054600161ffff19918216811790925581541661ffff929092169190911790556200008e565b6000602082840312156200007457600080fd5b815161ffff811681146200008757600080fd5b9392505050565b61291c806200009e6000396000f3fe6080604052600436106102a05760003560e01c8063996f79c01161016e578063ca066b35116100cb578063db14f3051161007f578063e97a448a11610064578063e97a448a14610862578063f5ecbdbc14610938578063fdc07c701461096a57600080fd5b8063db14f30514610907578063e961a9521461092257600080fd5b8063d23104f1116100b0578063d23104f114610897578063da1a7c9a146102f8578063dab31277146108d457600080fd5b8063ca066b3514610862578063cbed8b9c1461087657600080fd5b8063b208649911610122578063c2fa481311610107578063c2fa4813146107ec578063c58031001461080c578063c81b383a1461081f57600080fd5b8063b20864991461073c578063c08f15a11461077e57600080fd5b8063aaff5f1611610153578063aaff5f16146106eb578063af406aa51461070b578063b12107701461072157600080fd5b8063996f79c0146106d55780639c729da11461050f57600080fd5b806340a7bb101161021c57806371ba2fd6116101d05780637a145748116101b55780637a145748146105e95780637f6df8e6146106625780639924d33b1461068257600080fd5b806371ba2fd61461050f57806376a386dc1461052f57600080fd5b80634f055b04116102015780634f055b04146104515780635952c4ec1461047e5780635b301135146104a257600080fd5b806340a7bb10146103fc57806342d65a8d1461043157600080fd5b80630eaf6ea61161027357806312a9ee6b1161025857806312a9ee6b1461038e5780632646af08146103bd5780633408e470146103e357600080fd5b80630eaf6ea61461035e57806310ddb137146102d857600080fd5b806305bc710f146102a557806307e0db17146102d8578063096568f6146102f857806309eddf5414610319575b600080fd5b3480156102b157600080fd5b506004546102c09061ffff1681565b60405161ffff90911681526020015b60405180910390f35b3480156102e457600080fd5b506102f66102f3366004611f1d565b50565b005b34801561030457600080fd5b506102c0610313366004611e7e565b50600190565b34801561032557600080fd5b50610339610334366004611edb565b61098a565b60405173ffffffffffffffffffffffffffffffffffffffff90911681526020016102cf565b34801561036a57600080fd5b5061037e610379366004611ff5565b6109c5565b60405190151581526020016102cf565b34801561039a57600080fd5b506103ae6103a936600461229c565b610a0a565b6040516102cf9392919061248e565b3480156103c957600080fd5b506102f66103d83660046123a8565b600791909155600855565b3480156103ef57600080fd5b5060015461ffff166102c0565b34801561040857600080fd5b5061041c610417366004611f54565b610b26565b604080519283526020830191909152016102cf565b34801561043d57600080fd5b506102f661044c366004611ff5565b610b49565b34801561045d57600080fd5b506002546103399073ffffffffffffffffffffffffffffffffffffffff1681565b34801561048a57600080fd5b5061049460035481565b6040519081526020016102cf565b3480156104ae57600080fd5b506105026104bd366004611e7e565b6040805160609290921b7fffffffffffffffffffffffffffffffffffffffff000000000000000000000000166020830152805180830360140181526034909201905290565b6040516102cf91906124d6565b34801561051b57600080fd5b5061033961052a366004611e7e565b503090565b34801561053b57600080fd5b506105ae61054a36600461224e565b600c60209081526000928352604090922081518083018401805192815290840192909301919091209152805460019091015467ffffffffffffffff82169168010000000000000000900473ffffffffffffffffffffffffffffffffffffffff169083565b6040805167ffffffffffffffff909416845273ffffffffffffffffffffffffffffffffffffffff9092166020840152908201526060016102cf565b3480156105f557600080fd5b50610649610604366004611f38565b61ffff82166000908152600b6020908152604080832073ffffffffffffffffffffffffffffffffffffffff8516845290915290205467ffffffffffffffff1692915050565b60405167ffffffffffffffff90911681526020016102cf565b34801561066e57600080fd5b5061049461067d366004611ff5565b610cee565b34801561068e57600080fd5b5061064961069d36600461224e565b600a602090815260009283526040909220815180830184018051928152908401929093019190912091525467ffffffffffffffff1681565b3480156106e157600080fd5b5061049460075481565b3480156106f757600080fd5b506102f6610706366004612100565b610d2a565b34801561071757600080fd5b5061049460085481565b34801561072d57600080fd5b506006546102c09061ffff1681565b34801561074857600080fd5b50610649610757366004611f38565b600b60209081526000928352604080842090915290825290205467ffffffffffffffff1681565b34801561078a57600080fd5b506102f6610799366004611ea2565b73ffffffffffffffffffffffffffffffffffffffff918216600090815260208190526040902080547fffffffffffffffffffffffff00000000000000000000000000000000000000001691909216179055565b3480156107f857600080fd5b506102f6610807366004612048565b610fc6565b6102f661081a366004612181565b6116f7565b34801561082b57600080fd5b5061033961083a366004611e7e565b60006020819052908152604090205473ffffffffffffffffffffffffffffffffffffffff1681565b34801561086e57600080fd5b50600061037e565b34801561088257600080fd5b506102f6610891366004612340565b50505050565b3480156108a357600080fd5b506102f6600980547fffffffffffffffffffffffffffffffffffffffffffffffffffffffffffffff00166001179055565b3480156108e057600080fd5b506001546103399062010000900473ffffffffffffffffffffffffffffffffffffffff1681565b34801561091357600080fd5b506001546102c09061ffff1681565b34801561092e57600080fd5b5061049460055481565b34801561094457600080fd5b506105026109533660046122f3565b604080516020810190915260008152949350505050565b34801561097657600080fd5b50610649610985366004611ff5565b61198a565b600080604051600284016002860382377ffffffffffffffffffffffffffffffffffffffffffffffffffffffffffffffff60151949350505050565b61ffff83166000908152600c602052604080822090518291906109eb908690869061247e565b9081526040519081900360200190206001015415159150509392505050565b600d6020908152600084815260409020835180850183018051928152908301928501929092209152805482908110610a4157600080fd5b60009182526020909120600290910201805460018201805473ffffffffffffffffffffffffffffffffffffffff831696507401000000000000000000000000000000000000000090920467ffffffffffffffff169450919250610aa390612753565b80601f0160208091040260200160405190810160405280929190818152602001828054610acf90612753565b8015610b1c5780601f10610af157610100808354040283529160200191610b1c565b820191906000526020600020905b815481529060010190602001808311610aff57829003601f168201915b5050505050905083565b6000808451600754610b3891906126ff565b915060085490509550959350505050565b61ffff83166000908152600c60205260408082209051610b6c908590859061247e565b9081526040519081900360200190206001810154909150610bee576040517f08c379a000000000000000000000000000000000000000000000000000000000815260206004820152601c60248201527f4c617965725a65726f3a206e6f2073746f726564207061796c6f61640000000060448201526064015b60405180910390fd5b805468010000000000000000900473ffffffffffffffffffffffffffffffffffffffff163314610c7a576040517f08c379a000000000000000000000000000000000000000000000000000000000815260206004820152601960248201527f4c617965725a65726f3a20696e76616c69642063616c6c6572000000000000006044820152606401610be5565b80547fffffffff00000000000000000000000000000000000000000000000000000000168155600060018201556040517f23d2684f396e92a6e2ff2d16f98e6fea00d50cb27a64b531bc0748f730211f9890610cdb908690869086906124e9565b60405180910390a16108918484846119d0565b61ffff83166000908152600d60205260408082209051610d11908590859061247e565b9081526040519081900360200190205490509392505050565b61ffff85166000908152600c60205260408082209051610d4d908790879061247e565b9081526040519081900360200190206001810154909150610dca576040517f08c379a000000000000000000000000000000000000000000000000000000000815260206004820152601c60248201527f4c617965725a65726f3a206e6f2073746f726564207061796c6f6164000000006044820152606401610be5565b805467ffffffffffffffff1682148015610dfe575080600101548383604051610df492919061247e565b6040518091039020145b610e64576040517f08c379a000000000000000000000000000000000000000000000000000000000815260206004820152601a60248201527f4c617965725a65726f3a20696e76616c6964207061796c6f61640000000000006044820152606401610be5565b80547fffffffff000000000000000000000000000000000000000000000000000000008116825560006001830181905561ffff88168152600a602052604080822090516801000000000000000090930473ffffffffffffffffffffffffffffffffffffffff1692610ed8908990899061247e565b908152604051908190036020018120547e1d356700000000000000000000000000000000000000000000000000000000825267ffffffffffffffff16915073ffffffffffffffffffffffffffffffffffffffff831690621d356790610f4b908b908b908b9087908c908c906004016125dd565b600060405180830381600087803b158015610f6557600080fd5b505af1158015610f79573d6000803e3d6000fd5b505050507f612434f39581c8e7d99746c9c20c6eb0ce8c0eb99f007c5719d620841370957d8888888486604051610fb4959493929190612587565b60405180910390a15050505050505050565b61ffff88166000908152600c60205260408082209051610fe9908a908a9061247e565b90815260200160405180910390209050600a60008a61ffff1661ffff168152602001908152602001600020888860405161102492919061247e565b908152604051908190036020019020805460009061104b9067ffffffffffffffff166127e0565b91906101000a81548167ffffffffffffffff021916908367ffffffffffffffff160217905567ffffffffffffffff168567ffffffffffffffff16146110ec576040517f08c379a000000000000000000000000000000000000000000000000000000000815260206004820152601660248201527f4c617965725a65726f3a2077726f6e67206e6f6e6365000000000000000000006044820152606401610be5565b6001810154156114e25761ffff89166000908152600d60205260408082209051611119908b908b9061247e565b90815260200160405180910390209050600060405180606001604052808973ffffffffffffffffffffffffffffffffffffffff1681526020018867ffffffffffffffff16815260200186868080601f0160208091040260200160405190810160405280939291908181526020018383808284376000920191909152505050915250825490915015611435578154600181810184556000848152602090819020845160029094020180548286015167ffffffffffffffff1674010000000000000000000000000000000000000000027fffffffff0000000000000000000000000000000000000000000000000000000090911673ffffffffffffffffffffffffffffffffffffffff909516949094179390931783556040840151805185949361124693908501920190611c29565b50505060005b825461125a9060019061273c565b81101561137c5782818154811061127357611273612866565b90600052602060002090600202018382600161128f91906126e7565b8154811061129f5761129f612866565b600091825260209091208254600290920201805473ffffffffffffffffffffffffffffffffffffffff9092167fffffffffffffffffffffffff000000000000000000000000000000000000000083168117825583547fffffffff0000000000000000000000000000000000000000000000000000000090931617740100000000000000000000000000000000000000009283900467ffffffffffffffff16909202919091178155600180830180549183019161135a90612753565b611365929190611cad565b509050508080611374906127a7565b91505061124c565b50808260008154811061139157611391612866565b6000918252602091829020835160029092020180548484015167ffffffffffffffff1674010000000000000000000000000000000000000000027fffffffff0000000000000000000000000000000000000000000000000000000090911673ffffffffffffffffffffffffffffffffffffffff9093169290921791909117815560408301518051919261142c92600185019290910190611c29565b509050506114db565b8154600181810184556000848152602090819020845160029094020180548286015167ffffffffffffffff1674010000000000000000000000000000000000000000027fffffffff0000000000000000000000000000000000000000000000000000000090911673ffffffffffffffffffffffffffffffffffffffff90951694909417939093178355604084015180518594936114d793908501920190611c29565b5050505b50506116ec565b60095460ff161561165f5760405180606001604052808484905067ffffffffffffffff1681526020018773ffffffffffffffffffffffffffffffffffffffff168152602001848460405161153792919061247e565b604080519182900390912090915261ffff8b166000908152600c6020528190209051611566908b908b9061247e565b908152604080519182900360209081018320845181548684015173ffffffffffffffffffffffffffffffffffffffff1668010000000000000000027fffffffff0000000000000000000000000000000000000000000000000000000090911667ffffffffffffffff909216919091171781559382015160019094019390935591810182526000815290517f0f9e4d95b62f08222d612b5ab92039cd8fbbbea550a95e8df9f927436bbdf5db9161162a918c918c918c918c918c918b918b9190612507565b60405180910390a1600980547fffffffffffffffffffffffffffffffffffffffffffffffffffffffffffffff001690556116ec565b6040517e1d356700000000000000000000000000000000000000000000000000000000815273ffffffffffffffffffffffffffffffffffffffff871690621d3567906116b9908c908c908c908b908a908a906004016125dd565b600060405180830381600087803b1580156116d357600080fd5b505af11580156116e7573d6000803e3d6000fd5b505050505b505050505050505050565b6000611703888861098a565b73ffffffffffffffffffffffffffffffffffffffff80821660009081526020819052604090205491925016806117bb576040517f08c379a000000000000000000000000000000000000000000000000000000000815260206004820152603760248201527f4c617965725a65726f4d6f636b3a2064657374696e6174696f6e204c6179657260448201527f5a65726f20456e64706f696e74206e6f7420666f756e640000000000000000006064820152608401610be5565b6007546117c99087906126ff565b341015611858576040517f08c379a000000000000000000000000000000000000000000000000000000000815260206004820152602960248201527f4c617965725a65726f4d6f636b3a206e6f7420656e6f756768206e617469766560448201527f20666f72206665657300000000000000000000000000000000000000000000006064820152608401610be5565b61ffff8a166000908152600b6020908152604080832033845290915281208054829061188d9067ffffffffffffffff166127e0565b825467ffffffffffffffff8281166101009490940a9384029302191691909117909155604080517fffffffffffffffffffffffffffffffffffffffff0000000000000000000000003360601b1660208201528151601481830301815260349091019091529091508273ffffffffffffffffffffffffffffffffffffffff1663c2fa4813600160009054906101000a900461ffff1683878660008f8f6040518863ffffffff1660e01b815260040161194a9796959493929190612677565b600060405180830381600087803b15801561196457600080fd5b505af1158015611978573d6000803e3d6000fd5b50505050505050505050505050505050565b61ffff83166000908152600a602052604080822090516119ad908590859061247e565b9081526040519081900360200190205467ffffffffffffffff1690509392505050565b61ffff83166000908152600d602052604080822090516119f3908590859061247e565b908152602001604051809103902090505b8054156108915780546000908290611a1e9060019061273c565b81548110611a2e57611a2e612866565b6000918252602091829020604080516060810182526002909302909101805473ffffffffffffffffffffffffffffffffffffffff8116845267ffffffffffffffff74010000000000000000000000000000000000000000909104169383019390935260018301805492939291840191611aa690612753565b80601f0160208091040260200160405190810160405280929190818152602001828054611ad290612753565b8015611b1f5780601f10611af457610100808354040283529160200191611b1f565b820191906000526020600020905b815481529060010190602001808311611b0257829003601f168201915b5050505050815250509050806000015173ffffffffffffffffffffffffffffffffffffffff16621d3567868686856020015186604001516040518663ffffffff1660e01b8152600401611b7695949392919061262b565b600060405180830381600087803b158015611b9057600080fd5b505af1158015611ba4573d6000803e3d6000fd5b5050505081805480611bb857611bb8612837565b60008281526020812060027fffffffffffffffffffffffffffffffffffffffffffffffffffffffffffffffff9093019283020180547fffffffff0000000000000000000000000000000000000000000000000000000016815590611c1f6001830182611d28565b5050905550611a04565b828054611c3590612753565b90600052602060002090601f016020900481019282611c575760008555611c9d565b82601f10611c7057805160ff1916838001178555611c9d565b82800160010185558215611c9d579182015b82811115611c9d578251825591602001919060010190611c82565b50611ca9929150611d5e565b5090565b828054611cb990612753565b90600052602060002090601f016020900481019282611cdb5760008555611c9d565b82601f10611cec5780548555611c9d565b82800160010185558215611c9d57600052602060002091601f016020900482015b82811115611c9d578254825591600101919060010190611d0d565b508054611d3490612753565b6000825580601f10611d44575050565b601f0160209004906000526020600020908101906102f391905b5b80821115611ca95760008155600101611d5f565b60008083601f840112611d8557600080fd5b50813567ffffffffffffffff811115611d9d57600080fd5b602083019150836020828501011115611db557600080fd5b9250929050565b600082601f830112611dcd57600080fd5b813567ffffffffffffffff80821115611de857611de8612895565b604051601f83017fffffffffffffffffffffffffffffffffffffffffffffffffffffffffffffffe0908116603f01168101908282118183101715611e2e57611e2e612895565b81604052838152866020858801011115611e4757600080fd5b836020870160208301376000602085830101528094505050505092915050565b803561ffff81168114611e7957600080fd5b919050565b600060208284031215611e9057600080fd5b8135611e9b816128c4565b9392505050565b60008060408385031215611eb557600080fd5b8235611ec0816128c4565b91506020830135611ed0816128c4565b809150509250929050565b60008060208385031215611eee57600080fd5b823567ffffffffffffffff811115611f0557600080fd5b611f1185828601611d73565b90969095509350505050565b600060208284031215611f2f57600080fd5b611e9b82611e67565b60008060408385031215611f4b57600080fd5b611ec083611e67565b600080600080600060a08688031215611f6c57600080fd5b611f7586611e67565b94506020860135611f85816128c4565b9350604086013567ffffffffffffffff80821115611fa257600080fd5b611fae89838a01611dbc565b9450606088013591508115158214611fc557600080fd5b90925060808701359080821115611fdb57600080fd5b50611fe888828901611dbc565b9150509295509295909350565b60008060006040848603121561200a57600080fd5b61201384611e67565b9250602084013567ffffffffffffffff81111561202f57600080fd5b61203b86828701611d73565b9497909650939450505050565b60008060008060008060008060c0898b03121561206457600080fd5b61206d89611e67565b9750602089013567ffffffffffffffff8082111561208a57600080fd5b6120968c838d01611d73565b909950975060408b013591506120ab826128c4565b90955060608a01359080821682146120c257600080fd5b90945060808a0135935060a08a013590808211156120df57600080fd5b506120ec8b828c01611d73565b999c989b5096995094979396929594505050565b60008060008060006060868803121561211857600080fd5b61212186611e67565b9450602086013567ffffffffffffffff8082111561213e57600080fd5b61214a89838a01611d73565b9096509450604088013591508082111561216357600080fd5b5061217088828901611d73565b969995985093965092949392505050565b60008060008060008060008060c0898b03121561219d57600080fd5b6121a689611e67565b9750602089013567ffffffffffffffff808211156121c357600080fd5b6121cf8c838d01611d73565b909950975060408b01359150808211156121e857600080fd5b6121f48c838d01611d73565b909750955060608b01359150612209826128c4565b90935060808a01359061221b826128c4565b90925060a08a0135908082111561223157600080fd5b5061223e8b828c01611dbc565b9150509295985092959890939650565b6000806040838503121561226157600080fd5b61226a83611e67565b9150602083013567ffffffffffffffff81111561228657600080fd5b61229285828601611dbc565b9150509250929050565b6000806000606084860312156122b157600080fd5b6122ba84611e67565b9250602084013567ffffffffffffffff8111156122d657600080fd5b6122e286828701611dbc565b925050604084013590509250925092565b6000806000806080858703121561230957600080fd5b61231285611e67565b935061232060208601611e67565b92506040850135612330816128c4565b9396929550929360600135925050565b6000806000806080858703121561235657600080fd5b61235f85611e67565b935061236d60208601611e67565b925060408501359150606085013567ffffffffffffffff81111561239057600080fd5b61239c87828801611dbc565b91505092959194509250565b600080604083850312156123bb57600080fd5b50508035926020909101359150565b8183528181602085013750600060208284010152600060207fffffffffffffffffffffffffffffffffffffffffffffffffffffffffffffffe0601f840116840101905092915050565b6000815180845260005b818110156124395760208185018101518683018201520161241d565b8181111561244b576000602083870101525b50601f017fffffffffffffffffffffffffffffffffffffffffffffffffffffffffffffffe0169290920160200192915050565b8183823760009101908152919050565b73ffffffffffffffffffffffffffffffffffffffff8416815267ffffffffffffffff831660208201526060604082015260006124cd6060830184612413565b95945050505050565b602081526000611e9b6020830184612413565b61ffff841681526040602082015260006124cd6040830184866123ca565b61ffff8916815260c06020820152600061252560c08301898b6123ca565b73ffffffffffffffffffffffffffffffffffffffff8816604084015267ffffffffffffffff8716606084015282810360808401526125648186886123ca565b905082810360a08401526125788185612413565b9b9a5050505050505050505050565b61ffff861681526080602082015260006125a56080830186886123ca565b905067ffffffffffffffff8416604083015273ffffffffffffffffffffffffffffffffffffffff831660608301529695505050505050565b61ffff871681526080602082015260006125fb6080830187896123ca565b67ffffffffffffffff86166040840152828103606084015261261e8185876123ca565b9998505050505050505050565b61ffff861681526080602082015260006126496080830186886123ca565b67ffffffffffffffff85166040840152828103606084015261266b8185612413565b98975050505050505050565b61ffff8816815260c06020820152600061269460c0830189612413565b73ffffffffffffffffffffffffffffffffffffffff8816604084015267ffffffffffffffff8716606084015285608084015282810360a08401526126d98185876123ca565b9a9950505050505050505050565b600082198211156126fa576126fa612808565b500190565b6000817fffffffffffffffffffffffffffffffffffffffffffffffffffffffffffffffff048311821515161561273757612737612808565b500290565b60008282101561274e5761274e612808565b500390565b600181811c9082168061276757607f821691505b602082108114156127a1577f4e487b7100000000000000000000000000000000000000000000000000000000600052602260045260246000fd5b50919050565b60007fffffffffffffffffffffffffffffffffffffffffffffffffffffffffffffffff8214156127d9576127d9612808565b5060010190565b600067ffffffffffffffff808316818114156127fe576127fe612808565b6001019392505050565b7f4e487b7100000000000000000000000000000000000000000000000000000000600052601160045260246000fd5b7f4e487b7100000000000000000000000000000000000000000000000000000000600052603160045260246000fd5b7f4e487b7100000000000000000000000000000000000000000000000000000000600052603260045260246000fd5b7f4e487b7100000000000000000000000000000000000000000000000000000000600052604160045260246000fd5b73ffffffffffffffffffffffffffffffffffffffff811681146102f357600080fdfea26469706673582212209cf6ef67ebb3c0861060cbb913b80bbe6d7eeb3a24deeda9f374b83629af932d64736f6c63430008060033",
  "devdoc": {
    "kind": "dev",
    "methods": {},
    "version": 1
  },
  "userdoc": {
    "kind": "user",
    "methods": {},
    "version": 1
  },
  "storageLayout": {
    "storage": [
      {
        "astId": 16105,
        "contract": "contracts/mocks/LZEndpointMock.sol:LZEndpointMock",
        "label": "lzEndpointLookup",
        "offset": 0,
        "slot": "0",
        "type": "t_mapping(t_address,t_address)"
      },
      {
        "astId": 16107,
        "contract": "contracts/mocks/LZEndpointMock.sol:LZEndpointMock",
        "label": "mockChainId",
        "offset": 0,
        "slot": "1",
        "type": "t_uint16"
      },
      {
        "astId": 16109,
        "contract": "contracts/mocks/LZEndpointMock.sol:LZEndpointMock",
        "label": "mockOracle",
        "offset": 2,
        "slot": "1",
        "type": "t_address_payable"
      },
      {
        "astId": 16111,
        "contract": "contracts/mocks/LZEndpointMock.sol:LZEndpointMock",
        "label": "mockRelayer",
        "offset": 0,
        "slot": "2",
        "type": "t_address_payable"
      },
      {
        "astId": 16113,
        "contract": "contracts/mocks/LZEndpointMock.sol:LZEndpointMock",
        "label": "mockBlockConfirmations",
        "offset": 0,
        "slot": "3",
        "type": "t_uint256"
      },
      {
        "astId": 16115,
        "contract": "contracts/mocks/LZEndpointMock.sol:LZEndpointMock",
        "label": "mockLibraryVersion",
        "offset": 0,
        "slot": "4",
        "type": "t_uint16"
      },
      {
        "astId": 16117,
        "contract": "contracts/mocks/LZEndpointMock.sol:LZEndpointMock",
        "label": "mockStaticNativeFee",
        "offset": 0,
        "slot": "5",
        "type": "t_uint256"
      },
      {
        "astId": 16119,
        "contract": "contracts/mocks/LZEndpointMock.sol:LZEndpointMock",
        "label": "mockLayerZeroVersion",
        "offset": 0,
        "slot": "6",
        "type": "t_uint16"
      },
      {
        "astId": 16121,
        "contract": "contracts/mocks/LZEndpointMock.sol:LZEndpointMock",
        "label": "nativeFee",
        "offset": 0,
        "slot": "7",
        "type": "t_uint256"
      },
      {
        "astId": 16123,
        "contract": "contracts/mocks/LZEndpointMock.sol:LZEndpointMock",
        "label": "zroFee",
        "offset": 0,
        "slot": "8",
        "type": "t_uint256"
      },
      {
        "astId": 16125,
        "contract": "contracts/mocks/LZEndpointMock.sol:LZEndpointMock",
        "label": "nextMsgBLocked",
        "offset": 0,
        "slot": "9",
        "type": "t_bool"
      },
      {
        "astId": 16145,
        "contract": "contracts/mocks/LZEndpointMock.sol:LZEndpointMock",
        "label": "inboundNonce",
        "offset": 0,
        "slot": "10",
        "type": "t_mapping(t_uint16,t_mapping(t_bytes_memory_ptr,t_uint64))"
      },
      {
        "astId": 16151,
        "contract": "contracts/mocks/LZEndpointMock.sol:LZEndpointMock",
        "label": "outboundNonce",
        "offset": 0,
        "slot": "11",
        "type": "t_mapping(t_uint16,t_mapping(t_address,t_uint64))"
      },
      {
        "astId": 16158,
        "contract": "contracts/mocks/LZEndpointMock.sol:LZEndpointMock",
        "label": "storedPayload",
        "offset": 0,
        "slot": "12",
        "type": "t_mapping(t_uint16,t_mapping(t_bytes_memory_ptr,t_struct(StoredPayload)16132_storage))"
      },
      {
        "astId": 16166,
        "contract": "contracts/mocks/LZEndpointMock.sol:LZEndpointMock",
        "label": "msgsToDeliver",
        "offset": 0,
        "slot": "13",
        "type": "t_mapping(t_uint16,t_mapping(t_bytes_memory_ptr,t_array(t_struct(QueuedPayload)16139_storage)dyn_storage))"
      }
    ],
    "types": {
      "t_address": {
        "encoding": "inplace",
        "label": "address",
        "numberOfBytes": "20"
      },
      "t_address_payable": {
        "encoding": "inplace",
        "label": "address payable",
        "numberOfBytes": "20"
      },
      "t_array(t_struct(QueuedPayload)16139_storage)dyn_storage": {
        "base": "t_struct(QueuedPayload)16139_storage",
        "encoding": "dynamic_array",
        "label": "struct LZEndpointMock.QueuedPayload[]",
        "numberOfBytes": "32"
      },
      "t_bool": {
        "encoding": "inplace",
        "label": "bool",
        "numberOfBytes": "1"
      },
      "t_bytes32": {
        "encoding": "inplace",
        "label": "bytes32",
        "numberOfBytes": "32"
      },
      "t_bytes_memory_ptr": {
        "encoding": "bytes",
        "label": "bytes",
        "numberOfBytes": "32"
      },
      "t_bytes_storage": {
        "encoding": "bytes",
        "label": "bytes",
        "numberOfBytes": "32"
      },
      "t_mapping(t_address,t_address)": {
        "encoding": "mapping",
        "key": "t_address",
        "label": "mapping(address => address)",
        "numberOfBytes": "32",
        "value": "t_address"
      },
      "t_mapping(t_address,t_uint64)": {
        "encoding": "mapping",
        "key": "t_address",
        "label": "mapping(address => uint64)",
        "numberOfBytes": "32",
        "value": "t_uint64"
      },
      "t_mapping(t_bytes_memory_ptr,t_array(t_struct(QueuedPayload)16139_storage)dyn_storage)": {
        "encoding": "mapping",
        "key": "t_bytes_memory_ptr",
        "label": "mapping(bytes => struct LZEndpointMock.QueuedPayload[])",
        "numberOfBytes": "32",
        "value": "t_array(t_struct(QueuedPayload)16139_storage)dyn_storage"
      },
      "t_mapping(t_bytes_memory_ptr,t_struct(StoredPayload)16132_storage)": {
        "encoding": "mapping",
        "key": "t_bytes_memory_ptr",
        "label": "mapping(bytes => struct LZEndpointMock.StoredPayload)",
        "numberOfBytes": "32",
        "value": "t_struct(StoredPayload)16132_storage"
      },
      "t_mapping(t_bytes_memory_ptr,t_uint64)": {
        "encoding": "mapping",
        "key": "t_bytes_memory_ptr",
        "label": "mapping(bytes => uint64)",
        "numberOfBytes": "32",
        "value": "t_uint64"
      },
      "t_mapping(t_uint16,t_mapping(t_address,t_uint64))": {
        "encoding": "mapping",
        "key": "t_uint16",
        "label": "mapping(uint16 => mapping(address => uint64))",
        "numberOfBytes": "32",
        "value": "t_mapping(t_address,t_uint64)"
      },
      "t_mapping(t_uint16,t_mapping(t_bytes_memory_ptr,t_array(t_struct(QueuedPayload)16139_storage)dyn_storage))": {
        "encoding": "mapping",
        "key": "t_uint16",
        "label": "mapping(uint16 => mapping(bytes => struct LZEndpointMock.QueuedPayload[]))",
        "numberOfBytes": "32",
        "value": "t_mapping(t_bytes_memory_ptr,t_array(t_struct(QueuedPayload)16139_storage)dyn_storage)"
      },
      "t_mapping(t_uint16,t_mapping(t_bytes_memory_ptr,t_struct(StoredPayload)16132_storage))": {
        "encoding": "mapping",
        "key": "t_uint16",
        "label": "mapping(uint16 => mapping(bytes => struct LZEndpointMock.StoredPayload))",
        "numberOfBytes": "32",
        "value": "t_mapping(t_bytes_memory_ptr,t_struct(StoredPayload)16132_storage)"
      },
      "t_mapping(t_uint16,t_mapping(t_bytes_memory_ptr,t_uint64))": {
        "encoding": "mapping",
        "key": "t_uint16",
        "label": "mapping(uint16 => mapping(bytes => uint64))",
        "numberOfBytes": "32",
        "value": "t_mapping(t_bytes_memory_ptr,t_uint64)"
      },
      "t_struct(QueuedPayload)16139_storage": {
        "encoding": "inplace",
        "label": "struct LZEndpointMock.QueuedPayload",
        "members": [
          {
            "astId": 16134,
            "contract": "contracts/mocks/LZEndpointMock.sol:LZEndpointMock",
            "label": "dstAddress",
            "offset": 0,
            "slot": "0",
            "type": "t_address"
          },
          {
            "astId": 16136,
            "contract": "contracts/mocks/LZEndpointMock.sol:LZEndpointMock",
            "label": "nonce",
            "offset": 20,
            "slot": "0",
            "type": "t_uint64"
          },
          {
            "astId": 16138,
            "contract": "contracts/mocks/LZEndpointMock.sol:LZEndpointMock",
            "label": "payload",
            "offset": 0,
            "slot": "1",
            "type": "t_bytes_storage"
          }
        ],
        "numberOfBytes": "64"
      },
      "t_struct(StoredPayload)16132_storage": {
        "encoding": "inplace",
        "label": "struct LZEndpointMock.StoredPayload",
        "members": [
          {
            "astId": 16127,
            "contract": "contracts/mocks/LZEndpointMock.sol:LZEndpointMock",
            "label": "payloadLength",
            "offset": 0,
            "slot": "0",
            "type": "t_uint64"
          },
          {
            "astId": 16129,
            "contract": "contracts/mocks/LZEndpointMock.sol:LZEndpointMock",
            "label": "dstAddress",
            "offset": 8,
            "slot": "0",
            "type": "t_address"
          },
          {
            "astId": 16131,
            "contract": "contracts/mocks/LZEndpointMock.sol:LZEndpointMock",
            "label": "payloadHash",
            "offset": 0,
            "slot": "1",
            "type": "t_bytes32"
          }
        ],
        "numberOfBytes": "64"
      },
      "t_uint16": {
        "encoding": "inplace",
        "label": "uint16",
        "numberOfBytes": "2"
      },
      "t_uint256": {
        "encoding": "inplace",
        "label": "uint256",
        "numberOfBytes": "32"
      },
      "t_uint64": {
        "encoding": "inplace",
        "label": "uint64",
        "numberOfBytes": "8"
      }
    }
  }
}