{
  "address": "0x6042215365C509126deB3B226E5be79F5fEB44ef",
  "abi": [
    {
      "inputs": [
        {
          "internalType": "uint16",
          "name": "_chainId",
          "type": "uint16"
        }
      ],
      "stateMutability": "nonpayable",
      "type": "constructor"
    },
    {
      "anonymous": false,
      "inputs": [
        {
          "indexed": false,
          "internalType": "uint16",
          "name": "srcChainId",
          "type": "uint16"
        },
        {
          "indexed": false,
          "internalType": "bytes",
          "name": "srcAddress",
          "type": "bytes"
        }
      ],
      "name": "ForceResumeReceive",
      "type": "event"
    },
    {
      "anonymous": false,
      "inputs": [
        {
          "indexed": false,
          "internalType": "address",
          "name": "destAddr",
          "type": "address"
        },
        {
          "indexed": false,
          "internalType": "uint16",
          "name": "_chainId",
          "type": "uint16"
        }
      ],
      "name": "ReceiveAndForward",
      "type": "event"
    },
    {
      "anonymous": false,
      "inputs": [
        {
          "indexed": false,
          "internalType": "address",
          "name": "destAddr",
          "type": "address"
        },
        {
          "indexed": false,
          "internalType": "uint16",
          "name": "_chainId",
          "type": "uint16"
        }
      ],
      "name": "SendTo",
      "type": "event"
    },
    {
      "anonymous": false,
      "inputs": [
        {
          "indexed": false,
          "internalType": "uint16",
          "name": "version",
          "type": "uint16"
        },
        {
          "indexed": false,
          "internalType": "uint16",
          "name": "chainId",
          "type": "uint16"
        },
        {
          "indexed": false,
          "internalType": "uint256",
          "name": "configType",
          "type": "uint256"
        },
        {
          "indexed": false,
          "internalType": "bytes",
          "name": "config",
          "type": "bytes"
        }
      ],
      "name": "SetConfig",
      "type": "event"
    },
    {
      "inputs": [
        {
          "internalType": "address",
          "name": "_a",
          "type": "address"
        }
      ],
      "name": "addrToPackedBytes",
      "outputs": [
        {
          "internalType": "bytes",
          "name": "",
          "type": "bytes"
        }
      ],
      "stateMutability": "pure",
      "type": "function"
    },
    {
      "inputs": [
        {
          "internalType": "uint16",
          "name": "",
          "type": "uint16"
        },
        {
          "internalType": "address",
          "name": "",
          "type": "address"
        },
        {
          "internalType": "bytes",
          "name": "",
          "type": "bytes"
        },
        {
          "internalType": "bool",
          "name": "",
          "type": "bool"
        },
        {
          "internalType": "bytes",
          "name": "",
          "type": "bytes"
        }
      ],
      "name": "estimateFees",
      "outputs": [
        {
          "internalType": "uint256",
          "name": "",
          "type": "uint256"
        },
        {
          "internalType": "uint256",
          "name": "",
          "type": "uint256"
        }
      ],
      "stateMutability": "view",
      "type": "function"
    },
    {
      "inputs": [
        {
          "internalType": "uint16",
          "name": "_srcChainId",
          "type": "uint16"
        },
        {
          "internalType": "bytes",
          "name": "_srcAddress",
          "type": "bytes"
        }
      ],
      "name": "forceResumeReceive",
      "outputs": [],
      "stateMutability": "nonpayable",
      "type": "function"
    },
    {
      "inputs": [],
      "name": "getChainId",
      "outputs": [
        {
          "internalType": "uint16",
          "name": "",
          "type": "uint16"
        }
      ],
      "stateMutability": "view",
      "type": "function"
    },
    {
      "inputs": [
        {
          "internalType": "uint16",
          "name": "",
          "type": "uint16"
        },
        {
          "internalType": "uint16",
          "name": "",
          "type": "uint16"
        },
        {
          "internalType": "address",
          "name": "",
          "type": "address"
        },
        {
          "internalType": "uint256",
          "name": "",
          "type": "uint256"
        }
      ],
      "name": "getConfig",
      "outputs": [
        {
          "internalType": "bytes",
          "name": "",
          "type": "bytes"
        }
      ],
      "stateMutability": "pure",
      "type": "function"
    },
    {
      "inputs": [
        {
          "internalType": "uint16",
          "name": "_chainID",
          "type": "uint16"
        },
        {
          "internalType": "bytes",
          "name": "_srcAddress",
          "type": "bytes"
        }
      ],
      "name": "getInboundNonce",
      "outputs": [
        {
          "internalType": "uint64",
          "name": "",
          "type": "uint64"
        }
      ],
      "stateMutability": "view",
      "type": "function"
    },
    {
      "inputs": [
        {
          "internalType": "uint16",
          "name": "_chainID",
          "type": "uint16"
        },
        {
          "internalType": "address",
          "name": "_srcAddress",
          "type": "address"
        }
      ],
      "name": "getOutboundNonce",
      "outputs": [
        {
          "internalType": "uint64",
          "name": "",
          "type": "uint64"
        }
      ],
      "stateMutability": "view",
      "type": "function"
    },
    {
      "inputs": [
        {
          "internalType": "address",
          "name": "",
          "type": "address"
        }
      ],
      "name": "getReceiveLibraryAddress",
      "outputs": [
        {
          "internalType": "address",
          "name": "",
          "type": "address"
        }
      ],
      "stateMutability": "view",
      "type": "function"
    },
    {
      "inputs": [
        {
          "internalType": "address",
          "name": "",
          "type": "address"
        }
      ],
      "name": "getReceiveVersion",
      "outputs": [
        {
          "internalType": "uint16",
          "name": "",
          "type": "uint16"
        }
      ],
      "stateMutability": "pure",
      "type": "function"
    },
    {
      "inputs": [
        {
          "internalType": "address",
          "name": "",
          "type": "address"
        }
      ],
      "name": "getSendLibraryAddress",
      "outputs": [
        {
          "internalType": "address",
          "name": "",
          "type": "address"
        }
      ],
      "stateMutability": "view",
      "type": "function"
    },
    {
      "inputs": [
        {
          "internalType": "address",
          "name": "",
          "type": "address"
        }
      ],
      "name": "getSendVersion",
      "outputs": [
        {
          "internalType": "uint16",
          "name": "",
          "type": "uint16"
        }
      ],
      "stateMutability": "pure",
      "type": "function"
    },
    {
      "inputs": [
        {
          "internalType": "uint16",
          "name": "",
          "type": "uint16"
        },
        {
          "internalType": "bytes",
          "name": "",
          "type": "bytes"
        }
      ],
      "name": "hasStoredPayload",
      "outputs": [
        {
          "internalType": "bool",
          "name": "",
          "type": "bool"
        }
      ],
      "stateMutability": "pure",
      "type": "function"
    },
    {
      "inputs": [
        {
          "internalType": "uint16",
          "name": "",
          "type": "uint16"
        },
        {
          "internalType": "bytes",
          "name": "",
          "type": "bytes"
        }
      ],
      "name": "inboundNonce",
      "outputs": [
        {
          "internalType": "uint64",
          "name": "",
          "type": "uint64"
        }
      ],
      "stateMutability": "view",
      "type": "function"
    },
    {
      "inputs": [],
      "name": "isReceivingPayload",
      "outputs": [
        {
          "internalType": "bool",
          "name": "",
          "type": "bool"
        }
      ],
      "stateMutability": "pure",
      "type": "function"
    },
    {
      "inputs": [],
      "name": "isSendingPayload",
      "outputs": [
        {
          "internalType": "bool",
          "name": "",
          "type": "bool"
        }
      ],
      "stateMutability": "pure",
      "type": "function"
    },
    {
      "inputs": [
        {
          "internalType": "address",
          "name": "",
          "type": "address"
        }
      ],
      "name": "lzEndpointLookup",
      "outputs": [
        {
          "internalType": "address",
          "name": "",
          "type": "address"
        }
      ],
      "stateMutability": "view",
      "type": "function"
    },
    {
      "inputs": [],
      "name": "mockBlockConfirmations",
      "outputs": [
        {
          "internalType": "uint256",
          "name": "",
          "type": "uint256"
        }
      ],
      "stateMutability": "view",
      "type": "function"
    },
    {
      "inputs": [],
      "name": "mockChainId",
      "outputs": [
        {
          "internalType": "uint16",
          "name": "",
          "type": "uint16"
        }
      ],
      "stateMutability": "view",
      "type": "function"
    },
    {
      "inputs": [],
      "name": "mockLayerZeroVersion",
      "outputs": [
        {
          "internalType": "uint16",
          "name": "",
          "type": "uint16"
        }
      ],
      "stateMutability": "view",
      "type": "function"
    },
    {
      "inputs": [],
      "name": "mockLibraryVersion",
      "outputs": [
        {
          "internalType": "uint16",
          "name": "",
          "type": "uint16"
        }
      ],
      "stateMutability": "view",
      "type": "function"
    },
    {
      "inputs": [],
      "name": "mockOracle",
      "outputs": [
        {
          "internalType": "address payable",
          "name": "",
          "type": "address"
        }
      ],
      "stateMutability": "view",
      "type": "function"
    },
    {
      "inputs": [],
      "name": "mockReceiveVersion",
      "outputs": [
        {
          "internalType": "uint16",
          "name": "",
          "type": "uint16"
        }
      ],
      "stateMutability": "view",
      "type": "function"
    },
    {
      "inputs": [],
      "name": "mockRelayer",
      "outputs": [
        {
          "internalType": "address payable",
          "name": "",
          "type": "address"
        }
      ],
      "stateMutability": "view",
      "type": "function"
    },
    {
      "inputs": [],
      "name": "mockSendVersion",
      "outputs": [
        {
          "internalType": "uint16",
          "name": "",
          "type": "uint16"
        }
      ],
      "stateMutability": "view",
      "type": "function"
    },
    {
      "inputs": [],
      "name": "mockStaticNativeFee",
      "outputs": [
        {
          "internalType": "uint256",
          "name": "",
          "type": "uint256"
        }
      ],
      "stateMutability": "view",
      "type": "function"
    },
    {
      "inputs": [
        {
          "internalType": "uint16",
          "name": "",
          "type": "uint16"
        },
        {
          "internalType": "address",
          "name": "",
          "type": "address"
        }
      ],
      "name": "outboundNonce",
      "outputs": [
        {
          "internalType": "uint64",
          "name": "",
          "type": "uint64"
        }
      ],
      "stateMutability": "view",
      "type": "function"
    },
    {
      "inputs": [
        {
          "internalType": "bytes",
          "name": "_b",
          "type": "bytes"
        }
      ],
      "name": "packedBytesToAddr",
      "outputs": [
        {
          "internalType": "address",
          "name": "",
          "type": "address"
        }
      ],
      "stateMutability": "pure",
      "type": "function"
    },
    {
      "inputs": [
        {
          "internalType": "address",
          "name": "_destAddr",
          "type": "address"
        },
        {
          "internalType": "uint16",
          "name": "_srcChainId",
          "type": "uint16"
        },
        {
          "internalType": "bytes",
          "name": "_srcAddress",
          "type": "bytes"
        },
        {
          "internalType": "uint64",
          "name": "_nonce",
          "type": "uint64"
        },
        {
          "internalType": "bytes",
          "name": "_payload",
          "type": "bytes"
        }
      ],
      "name": "receiveAndForward",
      "outputs": [],
      "stateMutability": "nonpayable",
      "type": "function"
    },
    {
      "inputs": [
        {
          "internalType": "uint16",
          "name": "_srcChainId",
          "type": "uint16"
        },
        {
          "internalType": "bytes",
          "name": "_srcAddress",
          "type": "bytes"
        },
        {
          "internalType": "address",
          "name": "_dstAddress",
          "type": "address"
        },
        {
          "internalType": "uint64",
          "name": "_nonce",
          "type": "uint64"
        },
        {
          "internalType": "uint256",
          "name": "_gasLimit",
          "type": "uint256"
        },
        {
          "internalType": "bytes",
          "name": "_payload",
          "type": "bytes"
        }
      ],
      "name": "receivePayload",
      "outputs": [],
      "stateMutability": "nonpayable",
      "type": "function"
    },
    {
      "inputs": [
        {
          "internalType": "uint16",
          "name": "_srcChainId",
          "type": "uint16"
        },
        {
          "internalType": "bytes",
          "name": "_srcAddress",
          "type": "bytes"
        },
        {
          "internalType": "bytes",
          "name": "_payload",
          "type": "bytes"
        }
      ],
      "name": "retryPayload",
      "outputs": [],
      "stateMutability": "pure",
      "type": "function"
    },
    {
      "inputs": [
        {
          "internalType": "uint16",
          "name": "_chainId",
          "type": "uint16"
        },
        {
          "internalType": "bytes",
          "name": "_destination",
          "type": "bytes"
        },
        {
          "internalType": "bytes",
          "name": "_payload",
          "type": "bytes"
        },
        {
          "internalType": "address payable",
          "name": "",
          "type": "address"
        },
        {
          "internalType": "address",
          "name": "",
          "type": "address"
        },
        {
          "internalType": "bytes",
          "name": "dstGas",
          "type": "bytes"
        }
      ],
      "name": "send",
      "outputs": [],
      "stateMutability": "payable",
      "type": "function"
    },
    {
      "inputs": [
        {
          "internalType": "uint16",
          "name": "_version",
          "type": "uint16"
        },
        {
          "internalType": "uint16",
          "name": "_chainId",
          "type": "uint16"
        },
        {
          "internalType": "uint256",
          "name": "_configType",
          "type": "uint256"
        },
        {
          "internalType": "bytes",
          "name": "_config",
          "type": "bytes"
        }
      ],
      "name": "setConfig",
      "outputs": [],
      "stateMutability": "nonpayable",
      "type": "function"
    },
    {
      "inputs": [
        {
          "internalType": "address",
          "name": "destAddr",
          "type": "address"
        },
        {
          "internalType": "address",
          "name": "lzEndpointAddr",
          "type": "address"
        }
      ],
      "name": "setDestLzEndpoint",
      "outputs": [],
      "stateMutability": "nonpayable",
      "type": "function"
    },
    {
      "inputs": [
        {
          "internalType": "uint16",
          "name": "_version",
          "type": "uint16"
        }
      ],
      "name": "setReceiveVersion",
      "outputs": [],
      "stateMutability": "nonpayable",
      "type": "function"
    },
    {
      "inputs": [
        {
          "internalType": "uint16",
          "name": "_version",
          "type": "uint16"
        }
      ],
      "name": "setSendVersion",
      "outputs": [],
      "stateMutability": "nonpayable",
      "type": "function"
    }
  ],
  "transactionHash": "0x95753279c64968230a80f50ba62bcbd997ea31a42cd87aa757914a3709a3a202",
  "args": [
    2
  ],
  "numDeployments": 1,
  "solcInputHash": "8956957e783b697bdeaf4cbd844767f6",
  "bytecode": "0x608060405234801561001057600080fd5b506040516118cd3803806118cd83398101604081905261002f9161005b565b602a60055560068054600161ffff19918216811790925581541661ffff92909216919091179055610086565b60006020828403121561006d57600080fd5b815161ffff8116811461007f57600080fd5b9392505050565b611838806100956000396000f3fe6080604052600436106102345760003560e01c80639c729da111610138578063cbed8b9c116100b0578063df6ffbe91161007f578063e97a448a11610064578063e97a448a14610786578063f5ecbdbc1461083e578063fdc07c701461087057600080fd5b8063df6ffbe914610808578063e961a9521461082857600080fd5b8063cbed8b9c1461079a578063da1a7c9a146102c6578063dab31277146107ba578063db14f305146107ed57600080fd5b8063c08f15a111610107578063c5803100116100ec578063c580310014610730578063c81b383a14610743578063ca066b351461078657600080fd5b8063c08f15a11461069d578063c2fa48131461070b57600080fd5b80639c729da114610532578063aaff5f161461061e578063b121077014610640578063b20864991461065b57600080fd5b806340a7bb10116101cb5780635b3011351161019a57806371ba2fd61161017f57806371ba2fd6146105325780637a145748146105525780639924d33b146105cb57600080fd5b80635b301135146104a45780636e8c61581461051157600080fd5b806340a7bb10146103f257806342d65a8d146104335780634f055b04146104535780635952c4ec1461048057600080fd5b80630eaf6ea6116102075780630eaf6ea61461032c57806310ddb137146103605780632ef25ea7146103b65780633408e470146103d957600080fd5b806305bc710f1461023957806307e0db171461026c578063096568f6146102c657806309eddf54146102e7575b600080fd5b34801561024557600080fd5b506004546102549061ffff1681565b60405161ffff90911681526020015b60405180910390f35b34801561027857600080fd5b506102c4610287366004611114565b6006805461ffff909216640100000000027fffffffffffffffffffffffffffffffffffffffffffffffffffff0000ffffffff909216919091179055565b005b3480156102d257600080fd5b506102546102e1366004610fdd565b50600190565b3480156102f357600080fd5b506103076103023660046110d2565b610890565b60405173ffffffffffffffffffffffffffffffffffffffff9091168152602001610263565b34801561033857600080fd5b506103506103473660046111f8565b60019392505050565b6040519015158152602001610263565b34801561036c57600080fd5b506102c461037b366004611114565b6006805461ffff90921662010000027fffffffffffffffffffffffffffffffffffffffffffffffffffffffff0000ffff909216919091179055565b3480156103c257600080fd5b5060065461025490640100000000900461ffff1681565b3480156103e557600080fd5b5060015461ffff16610254565b3480156103fe57600080fd5b5061041e61040d36600461114b565b600554600097509795505050505050565b60408051928352602083019190915201610263565b34801561043f57600080fd5b506102c461044e3660046111f8565b6108cb565b34801561045f57600080fd5b506002546103079073ffffffffffffffffffffffffffffffffffffffff1681565b34801561048c57600080fd5b5061049660035481565b604051908152602001610263565b3480156104b057600080fd5b506105046104bf366004610fdd565b6040805160609290921b7fffffffffffffffffffffffffffffffffffffffff000000000000000000000000166020830152805180830360140181526034909201905290565b6040516102639190611674565b34801561051d57600080fd5b506006546102549062010000900461ffff1681565b34801561053e57600080fd5b5061030761054d366004610fdd565b503090565b34801561055e57600080fd5b506105b261056d36600461112f565b61ffff8216600090815260086020908152604080832073ffffffffffffffffffffffffffffffffffffffff8516845290915290205467ffffffffffffffff1692915050565b60405167ffffffffffffffff9091168152602001610263565b3480156105d757600080fd5b506105b26105e6366004611449565b6007602090815260009283526040909220815180830184018051928152908401929093019190912091525467ffffffffffffffff1681565b34801561062a57600080fd5b506102c46106393660046112fb565b5050505050565b34801561064c57600080fd5b506006546102549061ffff1681565b34801561066757600080fd5b506105b261067636600461112f565b600860209081526000928352604080842090915290825290205467ffffffffffffffff1681565b3480156106a957600080fd5b506102c46106b8366004611001565b73ffffffffffffffffffffffffffffffffffffffff918216600090815260208190526040902080547fffffffffffffffffffffffff00000000000000000000000000000000000000001691909216179055565b34801561071757600080fd5b506102c461072636600461124b565b5050505050505050565b6102c461073e36600461137c565b61090b565b34801561074f57600080fd5b5061030761075e366004610fdd565b60006020819052908152604090205473ffffffffffffffffffffffffffffffffffffffff1681565b34801561079257600080fd5b506000610350565b3480156107a657600080fd5b506102c46107b53660046114e4565b610d50565b3480156107c657600080fd5b506001546103079062010000900473ffffffffffffffffffffffffffffffffffffffff1681565b3480156107f957600080fd5b506001546102549061ffff1681565b34801561081457600080fd5b506102c461082336600461103a565b610d93565b34801561083457600080fd5b5061049660055481565b34801561084a57600080fd5b50610504610859366004611497565b604080516020810190915260008152949350505050565b34801561087c57600080fd5b506105b261088b3660046111f8565b610e74565b600080604051600284016002860382377ffffffffffffffffffffffffffffffffffffffffffffffffffffffffffffffff60151949350505050565b7f2514d58bc984f8563a7898bbee3c5e55ce79da869880e45dee5d34e012d4cb908383836040516108fe93929190611687565b60405180910390a1505050565b60006109178888610890565b73ffffffffffffffffffffffffffffffffffffffff80821660009081526020819052604090205491925016806109d4576040517f08c379a000000000000000000000000000000000000000000000000000000000815260206004820152603760248201527f4c617965725a65726f4d6f636b3a2064657374696e6174696f6e204c6179657260448201527f5a65726f20456e64706f696e74206e6f7420666f756e6400000000000000000060648201526084015b60405180910390fd5b61ffff8a166000908152600860209081526040808320338452909152812080548290610a099067ffffffffffffffff1661175f565b91906101000a81548167ffffffffffffffff021916908367ffffffffffffffff1602179055905060008060428601519150605686015190508073ffffffffffffffffffffffffffffffffffffffff167390f79bf6eb2c4f870365e785982e1f101e93b90673ffffffffffffffffffffffffffffffffffffffff161415610b5657816101c514610af4576040517f08c379a000000000000000000000000000000000000000000000000000000000815260206004820152600d60248201527f47617320696e636f72726563740000000000000000000000000000000000000060448201526064016109cb565b6040517f08c379a000000000000000000000000000000000000000000000000000000000815260206004820152601560248201527f4e6174697665476173506172616d7320636865636b000000000000000000000060448201526064016109cb565b5050604080513360601b7fffffffffffffffffffffffffffffffffffffffff00000000000000000000000016602082015281518082036014018152603490910190915260009061ffff8d1660009081526007602090815260409182902091517fffffffffffffffffffffffffffffffffffffffff0000000000000000000000003360601b16918101919091529192508391603401604080517fffffffffffffffffffffffffffffffffffffffffffffffffffffffffffffffe081840301815290829052610c22916115ef565b908152604080516020928190038301812080547fffffffffffffffffffffffffffffffffffffffffffffffff00000000000000001667ffffffffffffffff959095169490941790935560015473ffffffffffffffffffffffffffffffffffffffff8816845261ffff16918301919091527fd9e5f22653b8f8c34c2b8f3e0963772a80dd5b03fcf78f5782f6ced3e11282f4910160405180910390a18273ffffffffffffffffffffffffffffffffffffffff1663df6ffbe985600160009054906101000a900461ffff1684868e8e6040518763ffffffff1660e01b8152600401610d109695949392919061160b565b600060405180830381600087803b158015610d2a57600080fd5b505af1158015610d3e573d6000803e3d6000fd5b50505050505050505050505050505050565b7fd9d5727079da3cec229a1d8fc369b10d1067711929cde4789beee46c1cce115984848484604051610d8594939291906116f8565b60405180910390a150505050565b6040805173ffffffffffffffffffffffffffffffffffffffff8716815261ffff861660208201527f66151896f63ead260e323ed398985178579ce37512e6889ec95e3aa9a9efe56f910160405180910390a16040517e1d356700000000000000000000000000000000000000000000000000000000815273ffffffffffffffffffffffffffffffffffffffff861690621d356790610e3b9087908790879087906004016116ae565b600060405180830381600087803b158015610e5557600080fd5b505af1158015610e69573d6000803e3d6000fd5b505050505050505050565b61ffff83166000908152600760205260408082209051610e9790859085906115df565b9081526040519081900360200190205467ffffffffffffffff1690509392505050565b60008083601f840112610ecc57600080fd5b50813567ffffffffffffffff811115610ee457600080fd5b602083019150836020828501011115610efc57600080fd5b9250929050565b600082601f830112610f1457600080fd5b813567ffffffffffffffff80821115610f2f57610f2f6117ae565b604051601f83017fffffffffffffffffffffffffffffffffffffffffffffffffffffffffffffffe0908116603f01168101908282118183101715610f7557610f756117ae565b81604052838152866020858801011115610f8e57600080fd5b836020870160208301376000602085830101528094505050505092915050565b803561ffff81168114610fc057600080fd5b919050565b803567ffffffffffffffff81168114610fc057600080fd5b600060208284031215610fef57600080fd5b8135610ffa816117dd565b9392505050565b6000806040838503121561101457600080fd5b823561101f816117dd565b9150602083013561102f816117dd565b809150509250929050565b600080600080600060a0868803121561105257600080fd5b853561105d816117dd565b945061106b60208701610fae565b9350604086013567ffffffffffffffff8082111561108857600080fd5b61109489838a01610f03565b94506110a260608901610fc5565b935060808801359150808211156110b857600080fd5b506110c588828901610f03565b9150509295509295909350565b600080602083850312156110e557600080fd5b823567ffffffffffffffff8111156110fc57600080fd5b61110885828601610eba565b90969095509350505050565b60006020828403121561112657600080fd5b610ffa82610fae565b6000806040838503121561114257600080fd5b61101f83610fae565b600080600080600080600060a0888a03121561116657600080fd5b61116f88610fae565b9650602088013561117f816117dd565b9550604088013567ffffffffffffffff8082111561119c57600080fd5b6111a88b838c01610eba565b909750955060608a0135915081151582146111c257600080fd5b909350608089013590808211156111d857600080fd5b506111e58a828b01610eba565b989b979a50959850939692959293505050565b60008060006040848603121561120d57600080fd5b61121684610fae565b9250602084013567ffffffffffffffff81111561123257600080fd5b61123e86828701610eba565b9497909650939450505050565b60008060008060008060008060c0898b03121561126757600080fd5b61127089610fae565b9750602089013567ffffffffffffffff8082111561128d57600080fd5b6112998c838d01610eba565b909950975060408b013591506112ae826117dd565b8196506112bd60608c01610fc5565b955060808b0135945060a08b01359150808211156112da57600080fd5b506112e78b828c01610eba565b999c989b5096995094979396929594505050565b60008060008060006060868803121561131357600080fd5b61131c86610fae565b9450602086013567ffffffffffffffff8082111561133957600080fd5b61134589838a01610eba565b9096509450604088013591508082111561135e57600080fd5b5061136b88828901610eba565b969995985093965092949392505050565b60008060008060008060008060c0898b03121561139857600080fd5b6113a189610fae565b9750602089013567ffffffffffffffff808211156113be57600080fd5b6113ca8c838d01610eba565b909950975060408b01359150808211156113e357600080fd5b6113ef8c838d01610eba565b909750955060608b01359150611404826117dd565b90935060808a013590611416826117dd565b90925060a08a0135908082111561142c57600080fd5b506114398b828c01610f03565b9150509295985092959890939650565b6000806040838503121561145c57600080fd5b61146583610fae565b9150602083013567ffffffffffffffff81111561148157600080fd5b61148d85828601610f03565b9150509250929050565b600080600080608085870312156114ad57600080fd5b6114b685610fae565b93506114c460208601610fae565b925060408501356114d4816117dd565b9396929550929360600135925050565b600080600080608085870312156114fa57600080fd5b61150385610fae565b935061151160208601610fae565b925060408501359150606085013567ffffffffffffffff81111561153457600080fd5b61154087828801610f03565b91505092959194509250565b8183528181602085013750600060208284010152600060207fffffffffffffffffffffffffffffffffffffffffffffffffffffffffffffffe0601f840116840101905092915050565b600081518084526115ad81602086016020860161172f565b601f017fffffffffffffffffffffffffffffffffffffffffffffffffffffffffffffffe0169290920160200192915050565b8183823760009101908152919050565b6000825161160181846020870161172f565b9190910192915050565b73ffffffffffffffffffffffffffffffffffffffff8716815261ffff8616602082015260a06040820152600061164460a0830187611595565b67ffffffffffffffff86166060840152828103608084015261166781858761154c565b9998505050505050505050565b602081526000610ffa6020830184611595565b61ffff841681526040602082015260006116a560408301848661154c565b95945050505050565b61ffff851681526080602082015260006116cb6080830186611595565b67ffffffffffffffff8516604084015282810360608401526116ed8185611595565b979650505050505050565b600061ffff8087168352808616602084015250836040830152608060608301526117256080830184611595565b9695505050505050565b60005b8381101561174a578181015183820152602001611732565b83811115611759576000848401525b50505050565b600067ffffffffffffffff808316818114156117a4577f4e487b7100000000000000000000000000000000000000000000000000000000600052601160045260246000fd5b6001019392505050565b7f4e487b7100000000000000000000000000000000000000000000000000000000600052604160045260246000fd5b73ffffffffffffffffffffffffffffffffffffffff811681146117ff57600080fd5b5056fea2646970667358221220ff226c0d1c02d4c8cecb4cc0016d37ce47e5c243d7942e11906660ed4f2eb93964736f6c63430008060033",
  "devdoc": {
    "kind": "dev",
    "methods": {},
    "version": 1
  },
  "userdoc": {
    "kind": "user",
    "methods": {},
    "version": 1
  },
  "storageLayout": {
    "storage": [
      {
        "astId": 13336,
        "contract": "contracts/mocks/LZEndpointMock.sol:LZEndpointMock",
        "label": "lzEndpointLookup",
        "offset": 0,
        "slot": "0",
        "type": "t_mapping(t_address,t_address)"
      },
      {
        "astId": 13338,
        "contract": "contracts/mocks/LZEndpointMock.sol:LZEndpointMock",
        "label": "mockChainId",
        "offset": 0,
        "slot": "1",
        "type": "t_uint16"
      },
      {
        "astId": 13340,
        "contract": "contracts/mocks/LZEndpointMock.sol:LZEndpointMock",
        "label": "mockOracle",
        "offset": 2,
        "slot": "1",
        "type": "t_address_payable"
      },
      {
        "astId": 13342,
        "contract": "contracts/mocks/LZEndpointMock.sol:LZEndpointMock",
        "label": "mockRelayer",
        "offset": 0,
        "slot": "2",
        "type": "t_address_payable"
      },
      {
        "astId": 13344,
        "contract": "contracts/mocks/LZEndpointMock.sol:LZEndpointMock",
        "label": "mockBlockConfirmations",
        "offset": 0,
        "slot": "3",
        "type": "t_uint256"
      },
      {
        "astId": 13346,
        "contract": "contracts/mocks/LZEndpointMock.sol:LZEndpointMock",
        "label": "mockLibraryVersion",
        "offset": 0,
        "slot": "4",
        "type": "t_uint16"
      },
      {
        "astId": 13348,
        "contract": "contracts/mocks/LZEndpointMock.sol:LZEndpointMock",
        "label": "mockStaticNativeFee",
        "offset": 0,
        "slot": "5",
        "type": "t_uint256"
      },
      {
        "astId": 13350,
        "contract": "contracts/mocks/LZEndpointMock.sol:LZEndpointMock",
        "label": "mockLayerZeroVersion",
        "offset": 0,
        "slot": "6",
        "type": "t_uint16"
      },
      {
        "astId": 13352,
        "contract": "contracts/mocks/LZEndpointMock.sol:LZEndpointMock",
        "label": "mockReceiveVersion",
        "offset": 2,
        "slot": "6",
        "type": "t_uint16"
      },
      {
        "astId": 13354,
        "contract": "contracts/mocks/LZEndpointMock.sol:LZEndpointMock",
        "label": "mockSendVersion",
        "offset": 4,
        "slot": "6",
        "type": "t_uint16"
      },
      {
        "astId": 13360,
        "contract": "contracts/mocks/LZEndpointMock.sol:LZEndpointMock",
        "label": "inboundNonce",
        "offset": 0,
        "slot": "7",
        "type": "t_mapping(t_uint16,t_mapping(t_bytes_memory_ptr,t_uint64))"
      },
      {
        "astId": 13366,
        "contract": "contracts/mocks/LZEndpointMock.sol:LZEndpointMock",
        "label": "outboundNonce",
        "offset": 0,
        "slot": "8",
        "type": "t_mapping(t_uint16,t_mapping(t_address,t_uint64))"
      }
    ],
    "types": {
      "t_address": {
        "encoding": "inplace",
        "label": "address",
        "numberOfBytes": "20"
      },
      "t_address_payable": {
        "encoding": "inplace",
        "label": "address payable",
        "numberOfBytes": "20"
      },
      "t_bytes_memory_ptr": {
        "encoding": "bytes",
        "label": "bytes",
        "numberOfBytes": "32"
      },
      "t_mapping(t_address,t_address)": {
        "encoding": "mapping",
        "key": "t_address",
        "label": "mapping(address => address)",
        "numberOfBytes": "32",
        "value": "t_address"
      },
      "t_mapping(t_address,t_uint64)": {
        "encoding": "mapping",
        "key": "t_address",
        "label": "mapping(address => uint64)",
        "numberOfBytes": "32",
        "value": "t_uint64"
      },
      "t_mapping(t_bytes_memory_ptr,t_uint64)": {
        "encoding": "mapping",
        "key": "t_bytes_memory_ptr",
        "label": "mapping(bytes => uint64)",
        "numberOfBytes": "32",
        "value": "t_uint64"
      },
      "t_mapping(t_uint16,t_mapping(t_address,t_uint64))": {
        "encoding": "mapping",
        "key": "t_uint16",
        "label": "mapping(uint16 => mapping(address => uint64))",
        "numberOfBytes": "32",
        "value": "t_mapping(t_address,t_uint64)"
      },
      "t_mapping(t_uint16,t_mapping(t_bytes_memory_ptr,t_uint64))": {
        "encoding": "mapping",
        "key": "t_uint16",
        "label": "mapping(uint16 => mapping(bytes => uint64))",
        "numberOfBytes": "32",
        "value": "t_mapping(t_bytes_memory_ptr,t_uint64)"
      },
      "t_uint16": {
        "encoding": "inplace",
        "label": "uint16",
        "numberOfBytes": "2"
      },
      "t_uint256": {
        "encoding": "inplace",
        "label": "uint256",
        "numberOfBytes": "32"
      },
      "t_uint64": {
        "encoding": "inplace",
        "label": "uint64",
        "numberOfBytes": "8"
      }
    }
  }
}