{
  "address": "0x014f92c9585e1A9B10005b9a9f53b7f5BfD72E33",
  "abi": [
    {
      "inputs": [
        {
          "internalType": "address",
          "name": "_executor",
          "type": "address"
        }
      ],
      "stateMutability": "nonpayable",
      "type": "constructor"
    },
    {
      "anonymous": false,
      "inputs": [
        {
          "indexed": true,
          "internalType": "address",
          "name": "executor",
          "type": "address"
        },
        {
          "indexed": false,
          "internalType": "uint256",
          "name": "depositId",
          "type": "uint256"
        },
        {
          "indexed": true,
          "internalType": "address",
          "name": "user",
          "type": "address"
        },
        {
          "indexed": false,
          "internalType": "address",
          "name": "nft",
          "type": "address"
        },
        {
          "indexed": false,
          "internalType": "uint256[]",
          "name": "tokenIds",
          "type": "uint256[]"
        },
        {
          "indexed": false,
          "internalType": "uint256[]",
          "name": "amounts",
          "type": "uint256[]"
        },
        {
          "indexed": false,
          "internalType": "uint256",
          "name": "endTime",
          "type": "uint256"
        }
      ],
      "name": "Deposit",
      "type": "event"
    },
    {
      "anonymous": false,
      "inputs": [
        {
          "indexed": true,
          "internalType": "address",
          "name": "previousOwner",
          "type": "address"
        },
        {
          "indexed": true,
          "internalType": "address",
          "name": "newOwner",
          "type": "address"
        }
      ],
      "name": "OwnershipTransferred",
      "type": "event"
    },
    {
      "anonymous": false,
      "inputs": [
        {
          "indexed": true,
          "internalType": "address",
          "name": "executor",
          "type": "address"
        },
        {
          "indexed": false,
          "internalType": "uint256",
          "name": "depositId",
          "type": "uint256"
        },
        {
          "indexed": true,
          "internalType": "address",
          "name": "to",
          "type": "address"
        },
        {
          "indexed": false,
          "internalType": "address",
          "name": "nft",
          "type": "address"
        },
        {
          "indexed": false,
          "internalType": "uint256[]",
          "name": "tokenIds",
          "type": "uint256[]"
        },
        {
          "indexed": false,
          "internalType": "uint256[]",
          "name": "amounts",
          "type": "uint256[]"
        }
      ],
      "name": "Redeem",
      "type": "event"
    },
    {
      "anonymous": false,
      "inputs": [
        {
          "indexed": true,
          "internalType": "address",
          "name": "executor",
          "type": "address"
        },
        {
          "indexed": false,
          "internalType": "uint256",
          "name": "depositId",
          "type": "uint256"
        },
        {
          "indexed": true,
          "internalType": "address",
          "name": "to",
          "type": "address"
        },
        {
          "indexed": false,
          "internalType": "address",
          "name": "nft",
          "type": "address"
        },
        {
          "indexed": false,
          "internalType": "uint256[]",
          "name": "tokenIds",
          "type": "uint256[]"
        },
        {
          "indexed": false,
          "internalType": "uint256[]",
          "name": "amounts",
          "type": "uint256[]"
        }
      ],
      "name": "Withdraw",
      "type": "event"
    },
    {
      "inputs": [],
      "name": "ID_ERC1155",
      "outputs": [
        {
          "internalType": "bytes4",
          "name": "",
          "type": "bytes4"
        }
      ],
      "stateMutability": "view",
      "type": "function"
    },
    {
      "inputs": [],
      "name": "ID_ERC721",
      "outputs": [
        {
          "internalType": "bytes4",
          "name": "",
          "type": "bytes4"
        }
      ],
      "stateMutability": "view",
      "type": "function"
    },
    {
      "inputs": [
        {
          "internalType": "address",
          "name": "user",
          "type": "address"
        },
        {
          "internalType": "address",
          "name": "nft",
          "type": "address"
        },
        {
          "internalType": "uint256[]",
          "name": "tokenIds",
          "type": "uint256[]"
        },
        {
          "internalType": "uint256[]",
          "name": "amounts",
          "type": "uint256[]"
        },
        {
          "internalType": "uint256",
          "name": "endTime",
          "type": "uint256"
        }
      ],
      "name": "deposit",
      "outputs": [
        {
          "internalType": "uint256",
          "name": "depositId",
          "type": "uint256"
        }
      ],
      "stateMutability": "payable",
      "type": "function"
    },
    {
      "inputs": [
        {
          "internalType": "address",
          "name": "",
          "type": "address"
        },
        {
          "internalType": "uint256",
          "name": "",
          "type": "uint256"
        }
      ],
      "name": "deposits",
      "outputs": [
        {
          "internalType": "address",
          "name": "user",
          "type": "address"
        },
        {
          "internalType": "address",
          "name": "nftContract",
          "type": "address"
        },
        {
          "internalType": "uint256",
          "name": "endTime",
          "type": "uint256"
        }
      ],
      "stateMutability": "view",
      "type": "function"
    },
    {
      "inputs": [
        {
          "internalType": "address",
          "name": "",
          "type": "address"
        }
      ],
      "name": "executors",
      "outputs": [
        {
          "internalType": "bool",
          "name": "",
          "type": "bool"
        }
      ],
      "stateMutability": "view",
      "type": "function"
    },
    {
      "inputs": [
        {
          "internalType": "address",
          "name": "executor",
          "type": "address"
        },
        {
          "internalType": "uint256",
          "name": "depositId",
          "type": "uint256"
        }
      ],
      "name": "getNFT",
      "outputs": [
        {
          "components": [
            {
              "internalType": "address",
              "name": "user",
              "type": "address"
            },
            {
              "internalType": "address",
              "name": "nftContract",
              "type": "address"
            },
            {
              "internalType": "uint256[]",
              "name": "tokenIds",
              "type": "uint256[]"
            },
            {
              "internalType": "uint256[]",
              "name": "amounts",
              "type": "uint256[]"
            },
            {
              "internalType": "uint256",
              "name": "endTime",
              "type": "uint256"
            }
          ],
          "internalType": "struct DepositNFT",
          "name": "",
          "type": "tuple"
        }
      ],
      "stateMutability": "view",
      "type": "function"
    },
    {
      "inputs": [
        {
          "internalType": "address",
          "name": "",
          "type": "address"
        },
        {
          "internalType": "address",
          "name": "",
          "type": "address"
        },
        {
          "internalType": "uint256[]",
          "name": "",
          "type": "uint256[]"
        },
        {
          "internalType": "uint256[]",
          "name": "",
          "type": "uint256[]"
        },
        {
          "internalType": "bytes",
          "name": "",
          "type": "bytes"
        }
      ],
      "name": "onERC1155BatchReceived",
      "outputs": [
        {
          "internalType": "bytes4",
          "name": "",
          "type": "bytes4"
        }
      ],
      "stateMutability": "nonpayable",
      "type": "function"
    },
    {
      "inputs": [
        {
          "internalType": "address",
          "name": "",
          "type": "address"
        },
        {
          "internalType": "address",
          "name": "",
          "type": "address"
        },
        {
          "internalType": "uint256",
          "name": "",
          "type": "uint256"
        },
        {
          "internalType": "uint256",
          "name": "",
          "type": "uint256"
        },
        {
          "internalType": "bytes",
          "name": "",
          "type": "bytes"
        }
      ],
      "name": "onERC1155Received",
      "outputs": [
        {
          "internalType": "bytes4",
          "name": "",
          "type": "bytes4"
        }
      ],
      "stateMutability": "nonpayable",
      "type": "function"
    },
    {
      "inputs": [
        {
          "internalType": "address",
          "name": "",
          "type": "address"
        },
        {
          "internalType": "address",
          "name": "",
          "type": "address"
        },
        {
          "internalType": "uint256",
          "name": "",
          "type": "uint256"
        },
        {
          "internalType": "bytes",
          "name": "",
          "type": "bytes"
        }
      ],
      "name": "onERC721Received",
      "outputs": [
        {
          "internalType": "bytes4",
          "name": "",
          "type": "bytes4"
        }
      ],
      "stateMutability": "nonpayable",
      "type": "function"
    },
    {
      "inputs": [],
      "name": "owner",
      "outputs": [
        {
          "internalType": "address",
          "name": "",
          "type": "address"
        }
      ],
      "stateMutability": "view",
      "type": "function"
    },
    {
      "inputs": [
        {
          "internalType": "address",
          "name": "executor",
          "type": "address"
        },
        {
          "internalType": "uint256",
          "name": "depositId",
          "type": "uint256"
        },
        {
          "internalType": "address",
          "name": "to",
          "type": "address"
        }
      ],
      "name": "redeem",
      "outputs": [],
      "stateMutability": "nonpayable",
      "type": "function"
    },
    {
      "inputs": [],
      "name": "renounceOwnership",
      "outputs": [],
      "stateMutability": "nonpayable",
      "type": "function"
    },
    {
      "inputs": [
        {
          "internalType": "address",
          "name": "executor",
          "type": "address"
        }
      ],
      "name": "setExecutor",
      "outputs": [],
      "stateMutability": "nonpayable",
      "type": "function"
    },
    {
      "inputs": [
        {
          "internalType": "bytes4",
          "name": "interfaceId",
          "type": "bytes4"
        }
      ],
      "name": "supportsInterface",
      "outputs": [
        {
          "internalType": "bool",
          "name": "",
          "type": "bool"
        }
      ],
      "stateMutability": "view",
      "type": "function"
    },
    {
      "inputs": [
        {
          "internalType": "address",
          "name": "newOwner",
          "type": "address"
        }
      ],
      "name": "transferOwnership",
      "outputs": [],
      "stateMutability": "nonpayable",
      "type": "function"
    },
    {
      "inputs": [
        {
          "internalType": "uint256",
          "name": "depositId",
          "type": "uint256"
        },
        {
          "internalType": "address",
          "name": "to",
          "type": "address"
        }
      ],
      "name": "withdraw",
      "outputs": [],
      "stateMutability": "nonpayable",
      "type": "function"
    }
  ],
  "transactionHash": "0xe2a39d3a7680c2d07465afc9d71617db5e1b9e33f88edfc5fd5e3d46a2aedd51",
  "args": [
    "0x686746214BCc37b7D4935B098C4899031C288fFd"
  ],
  "numDeployments": 1,
  "solcInputHash": "ebe9685cad90cf13094170ca99fb6d7a",
  "bytecode": "0x608060405234801561001057600080fd5b506040516118de3803806118de83398101604081905261002f916100af565b6100383361005f565b6001600160a01b03166000908152600260205260409020805460ff191660011790556100df565b600080546001600160a01b038381166001600160a01b0319831681178455604051919092169283917f8be0079c531659141344cd1fd0a4f28419497f9722a3daafe3b4186f6b6457e09190a35050565b6000602082840312156100c157600080fd5b81516001600160a01b03811681146100d857600080fd5b9392505050565b6117f0806100ee6000396000f3fe6080604052600436106100f25760003560e01c80638da5cb5b1161008a578063bc197c8111610059578063bc197c81146102c3578063d6d68177146102ef578063f23a6e6114610369578063f2fde38b1461039557600080fd5b80638da5cb5b146102355780638fa68c131461025d5780639ac2a01114610278578063a70354ed146102a857600080fd5b80632207bdcf116100c65780632207bdcf146101b2578063443cf787146101df5780635c833bfd14610200578063715018a61461022057600080fd5b8062f714ce146100f757806301ffc9a714610119578063150b7a021461014e5780631c3c0ea814610192575b600080fd5b34801561010357600080fd5b50610117610112366004611537565b6103b5565b005b34801561012557600080fd5b5061013961013436600461150d565b61061b565b60405190151581526020015b60405180910390f35b34801561015a57600080fd5b506101796101693660046113b8565b630a85bd0160e11b949350505050565b6040516001600160e01b03199091168152602001610145565b34801561019e57600080fd5b506101176101ad36600461125f565b610652565b3480156101be57600080fd5b506101d26101cd366004611485565b6106a0565b604051610145919061162e565b6101f26101ed36600461132b565b6107de565b604051908152602001610145565b34801561020c57600080fd5b5061011761021b3660046114af565b61096c565b34801561022c57600080fd5b50610117610c8b565b34801561024157600080fd5b506000546040516001600160a01b039091168152602001610145565b34801561026957600080fd5b506101796380ac58cd60e01b81565b34801561028457600080fd5b5061013961029336600461125f565b60026020526000908152604090205460ff1681565b3480156102b457600080fd5b50610179636cdb3d1360e11b81565b3480156102cf57600080fd5b506101796102de366004611281565b63bc197c8160e01b95945050505050565b3480156102fb57600080fd5b5061034361030a366004611485565b60036020908152600092835260408084209091529082529020805460018201546004909201546001600160a01b03918216929091169083565b604080516001600160a01b03948516815293909216602084015290820152606001610145565b34801561037557600080fd5b50610179610384366004611420565b63f23a6e6160e01b95945050505050565b3480156103a157600080fd5b506101176103b036600461125f565b610cc1565b3360009081526002602052604090205460ff1615156001146104145760405162461bcd60e51b8152602060048201526013602482015272263ab1b5b99d1037b7363ca2bc32b1baba37b960691b60448201526064015b60405180910390fd5b3360009081526003602090815260408083208584529091529020600201546104725760405162461bcd60e51b8152602060048201526011602482015270125b9d985b1a590819195c1bdcda5d1259607a1b604482015260640161040b565b33600090815260036020908152604080832085845282528083206001810154600290910180548351818602810186019094528084526001600160a01b0390921694939091908301828280156104e657602002820191906000526020600020905b8154815260200190600101908083116104d2575b50503360009081526003602081815260408084208c8552825280842090920180548351818402810184019094528084529798509296919550919350915083018282801561055257602002820191906000526020600020905b81548152602001906001019080831161053e575b50503360009081526003602090815260408083208c8452909152812080546001600160a01b031990811682556001820180549091169055949550925061059e91505060028301826110cf565b6105ac6003830160006110cf565b600482016000905550506105c38330868585610d5c565b836001600160a01b0316336001600160a01b03167f1aa1975ec78254d9555afd3cb8a24bc7ed7cca61a92954e019b7d07e9c31626a8786868660405161060c949392919061169e565b60405180910390a35050505050565b60006001600160e01b03198216630271189760e51b148061064c57506301ffc9a760e01b6001600160e01b03198316145b92915050565b6000546001600160a01b0316331461067c5760405162461bcd60e51b815260040161040b906115f9565b6001600160a01b03166000908152600260205260409020805460ff19166001179055565b6106e46040518060a0016040528060006001600160a01b0316815260200160006001600160a01b031681526020016060815260200160608152602001600081525090565b6001600160a01b038084166000908152600360209081526040808320868452825291829020825160a0810184528154851681526001820154909416848301526002810180548451818502810185018652818152929486019383018282801561076b57602002820191906000526020600020905b815481526020019060010190808311610757575b50505050508152602001600382018054806020026020016040519081016040528092919081815260200182805480156107c357602002820191906000526020600020905b8154815260200190600101908083116107af575b50505050508152602001600482015481525050905092915050565b3360009081526002602052604081205460ff1615156001146108385760405162461bcd60e51b8152602060048201526013602482015272263ab1b5b99d1037b7363ca2bc32b1baba37b960691b604482015260640161040b565b6108458587308787610d5c565b610853600180546001019055565b6001546040805160a0810182526001600160a01b03808a16825288811660208084019182528385018a8152606085018a90526080850189905233600090815260038352868120888252835295909520845181549085166001600160a01b03199182161782559251600182018054919095169316929092179092559251805194955091936108e692600285019201906110ed565b50606082015180516109029160038401916020909101906110ed565b5060808201518160040155905050856001600160a01b0316336001600160a01b03167f347f2f3ccace771076d0730d10c78c9e198450059b63d2a0fa24311021960424838888888860405161095b9594939291906116e5565b60405180910390a395945050505050565b6000546001600160a01b031633146109965760405162461bcd60e51b815260040161040b906115f9565b6001600160a01b03831660009081526003602090815260408083208584529091529020600201546109fd5760405162461bcd60e51b8152602060048201526011602482015270125b9d985b1a590819195c1bdcda5d1259607a1b604482015260640161040b565b6001600160a01b03831660009081526003602090815260408083208584529091529020600401544211610a675760405162461bcd60e51b81526020600482015260126024820152714e6f742074696d6520746f2072656465656d60701b604482015260640161040b565b6001600160a01b038381166000908152600360209081526040808320868452909152902054811690821614610ad25760405162461bcd60e51b8152602060048201526011602482015270496e76616c69642072656465656d20746f60781b604482015260640161040b565b6001600160a01b038381166000908152600360209081526040808320868452825280832060018101546002909101805483518186028101860190945280845291909516949192830182828015610b4757602002820191906000526020600020905b815481526020019060010190808311610b33575b505050506001600160a01b03871660009081526003602081815260408084208a8552825280842090920180548351818402810184019094528084529596509294919350830182828015610bb957602002820191906000526020600020905b815481526020019060010190808311610ba5575b505050506001600160a01b03881660009081526003602090815260408083208a8452909152812080546001600160a01b0319908116825560018201805490911690559293509050610c0d60028301826110cf565b610c1b6003830160006110cf565b60048201600090555050610c328330868585610d5c565b836001600160a01b0316336001600160a01b03167f419f05693ec28c30b2a3f2378868ffd6e66384945f6de621f1aef8bb91e3058587868686604051610c7b949392919061169e565b60405180910390a3505050505050565b6000546001600160a01b03163314610cb55760405162461bcd60e51b815260040161040b906115f9565b610cbf600061107f565b565b6000546001600160a01b03163314610ceb5760405162461bcd60e51b815260040161040b906115f9565b6001600160a01b038116610d505760405162461bcd60e51b815260206004820152602660248201527f4f776e61626c653a206e6577206f776e657220697320746865207a65726f206160448201526564647265737360d01b606482015260840161040b565b610d598161107f565b50565b836001600160a01b0316856001600160a01b031614158015610d905750826001600160a01b0316846001600160a01b031614155b610dce5760405162461bcd60e51b815260206004820152600f60248201526e496e76616c6964206164647265737360881b604482015260640161040b565b6040516301ffc9a760e01b81526380ac58cd60e01b60048201526001600160a01b038616906301ffc9a79060240160206040518083038186803b158015610e1457600080fd5b505afa158015610e28573d6000803e3d6000fd5b505050506040513d601f19601f82011682018060405250810190610e4c91906114eb565b15610f0b5760005b8251811015610f0557856001600160a01b03166323b872dd8686868581518110610e8057610e8061178e565b60209081029190910101516040516001600160e01b031960e086901b1681526001600160a01b0393841660048201529290911660248301526044820152606401600060405180830381600087803b158015610eda57600080fd5b505af1158015610eee573d6000803e3d6000fd5b505050508080610efd90611765565b915050610e54565b50611078565b6040516301ffc9a760e01b8152636cdb3d1360e11b60048201526001600160a01b038616906301ffc9a79060240160206040518083038186803b158015610f5157600080fd5b505afa158015610f65573d6000803e3d6000fd5b505050506040513d601f19601f82011682018060405250810190610f8991906114eb565b15611040578051825114610fd75760405162461bcd60e51b8152602060048201526015602482015274496e76616c696420696473202620616d6f756e747360581b604482015260640161040b565b604051631759616b60e11b81526001600160a01b03861690632eb2c2d69061100990879087908790879060040161159e565b600060405180830381600087803b15801561102357600080fd5b505af1158015611037573d6000803e3d6000fd5b50505050611078565b60405162461bcd60e51b815260206004820152600d60248201526c155b9cdd5c1c1bdc9d08139195609a1b604482015260640161040b565b5050505050565b600080546001600160a01b038381166001600160a01b0319831681178455604051919092169283917f8be0079c531659141344cd1fd0a4f28419497f9722a3daafe3b4186f6b6457e09190a35050565b5080546000825590600052602060002090810190610d599190611138565b828054828255906000526020600020908101928215611128579160200282015b8281111561112857825182559160200191906001019061110d565b50611134929150611138565b5090565b5b808211156111345760008155600101611139565b80356001600160a01b038116811461116457600080fd5b919050565b600082601f83011261117a57600080fd5b8135602067ffffffffffffffff821115611196576111966117a4565b8160051b6111a5828201611734565b8381528281019086840183880185018910156111c057600080fd5b600093505b858410156111e35780358352600193909301929184019184016111c5565b50979650505050505050565b600082601f83011261120057600080fd5b813567ffffffffffffffff81111561121a5761121a6117a4565b61122d601f8201601f1916602001611734565b81815284602083860101111561124257600080fd5b816020850160208301376000918101602001919091529392505050565b60006020828403121561127157600080fd5b61127a8261114d565b9392505050565b600080600080600060a0868803121561129957600080fd5b6112a28661114d565b94506112b06020870161114d565b9350604086013567ffffffffffffffff808211156112cd57600080fd5b6112d989838a01611169565b945060608801359150808211156112ef57600080fd5b6112fb89838a01611169565b9350608088013591508082111561131157600080fd5b5061131e888289016111ef565b9150509295509295909350565b600080600080600060a0868803121561134357600080fd5b61134c8661114d565b945061135a6020870161114d565b9350604086013567ffffffffffffffff8082111561137757600080fd5b61138389838a01611169565b9450606088013591508082111561139957600080fd5b506113a688828901611169565b95989497509295608001359392505050565b600080600080608085870312156113ce57600080fd5b6113d78561114d565b93506113e56020860161114d565b925060408501359150606085013567ffffffffffffffff81111561140857600080fd5b611414878288016111ef565b91505092959194509250565b600080600080600060a0868803121561143857600080fd5b6114418661114d565b945061144f6020870161114d565b93506040860135925060608601359150608086013567ffffffffffffffff81111561147957600080fd5b61131e888289016111ef565b6000806040838503121561149857600080fd5b6114a18361114d565b946020939093013593505050565b6000806000606084860312156114c457600080fd5b6114cd8461114d565b9250602084013591506114e26040850161114d565b90509250925092565b6000602082840312156114fd57600080fd5b8151801515811461127a57600080fd5b60006020828403121561151f57600080fd5b81356001600160e01b03198116811461127a57600080fd5b6000806040838503121561154a57600080fd5b8235915061155a6020840161114d565b90509250929050565b600081518084526020808501945080840160005b8381101561159357815187529582019590820190600101611577565b509495945050505050565b6001600160a01b0385811682528416602082015260a0604082018190526000906115ca90830185611563565b82810360608401526115dc8185611563565b838103608090940193909352505060008152602001949350505050565b6020808252818101527f4f776e61626c653a2063616c6c6572206973206e6f7420746865206f776e6572604082015260600190565b60208152600060018060a01b0380845116602084015280602085015116604084015250604083015160a0606084015261166a60c0840182611563565b90506060840151601f198483030160808501526116878282611563565b915050608084015160a08401528091505092915050565b8481526001600160a01b03841660208201526080604082018190526000906116c890830185611563565b82810360608401526116da8185611563565b979650505050505050565b8581526001600160a01b038516602082015260a06040820181905260009061170f90830186611563565b82810360608401526117218186611563565b9150508260808301529695505050505050565b604051601f8201601f1916810167ffffffffffffffff8111828210171561175d5761175d6117a4565b604052919050565b600060001982141561178757634e487b7160e01b600052601160045260246000fd5b5060010190565b634e487b7160e01b600052603260045260246000fd5b634e487b7160e01b600052604160045260246000fdfea2646970667358221220303fcf23baa05183f38d1f81076590aeba7609b794f482d7c9e43b7ac818ca2164736f6c63430008060033",
  "devdoc": {
    "kind": "dev",
    "methods": {
      "constructor": {
        "params": {
          "_executor": "address"
        }
      },
      "onERC721Received(address,address,uint256,bytes)": {
        "details": "See {IERC721Receiver-onERC721Received}. Always returns `IERC721Receiver.onERC721Received.selector`."
      },
      "owner()": {
        "details": "Returns the address of the current owner."
      },
      "renounceOwnership()": {
        "details": "Leaves the contract without owner. It will not be possible to call `onlyOwner` functions anymore. Can only be called by the current owner. NOTE: Renouncing ownership will leave the contract without an owner, thereby removing any functionality that is only available to the owner."
      },
      "supportsInterface(bytes4)": {
        "details": "See {IERC165-supportsInterface}."
      },
      "transferOwnership(address)": {
        "details": "Transfers ownership of the contract to a new account (`newOwner`). Can only be called by the current owner."
      }
    },
    "version": 1
  },
  "userdoc": {
    "kind": "user",
    "methods": {
      "constructor": {
        "notice": "Constructor"
      },
      "redeem(address,uint256,address)": {
        "notice": "for enmergency case for user to redeem in case of cross chain withdraw suck nft, enable to redeem back to seller nft after endTime"
      },
      "setExecutor(address)": {
        "notice": "set operator"
      }
    },
    "version": 1
  },
  "storageLayout": {
    "storage": [
      {
        "astId": 917,
        "contract": "contracts/ProxyNFTStation.sol:ProxyNFTStation",
        "label": "_owner",
        "offset": 0,
        "slot": "0",
        "type": "t_address"
      },
      {
        "astId": 8805,
        "contract": "contracts/ProxyNFTStation.sol:ProxyNFTStation",
        "label": "_depositIds",
        "offset": 0,
        "slot": "1",
        "type": "t_struct(Counter)5211_storage"
      },
      {
        "astId": 8815,
        "contract": "contracts/ProxyNFTStation.sol:ProxyNFTStation",
        "label": "executors",
        "offset": 0,
        "slot": "2",
        "type": "t_mapping(t_address,t_bool)"
      },
      {
        "astId": 8822,
        "contract": "contracts/ProxyNFTStation.sol:ProxyNFTStation",
        "label": "deposits",
        "offset": 0,
        "slot": "3",
        "type": "t_mapping(t_address,t_mapping(t_uint256,t_struct(DepositNFT)10875_storage))"
      }
    ],
    "types": {
      "t_address": {
        "encoding": "inplace",
        "label": "address",
        "numberOfBytes": "20"
      },
      "t_array(t_uint256)dyn_storage": {
        "base": "t_uint256",
        "encoding": "dynamic_array",
        "label": "uint256[]",
        "numberOfBytes": "32"
      },
      "t_bool": {
        "encoding": "inplace",
        "label": "bool",
        "numberOfBytes": "1"
      },
      "t_mapping(t_address,t_bool)": {
        "encoding": "mapping",
        "key": "t_address",
        "label": "mapping(address => bool)",
        "numberOfBytes": "32",
        "value": "t_bool"
      },
      "t_mapping(t_address,t_mapping(t_uint256,t_struct(DepositNFT)10875_storage))": {
        "encoding": "mapping",
        "key": "t_address",
        "label": "mapping(address => mapping(uint256 => struct DepositNFT))",
        "numberOfBytes": "32",
        "value": "t_mapping(t_uint256,t_struct(DepositNFT)10875_storage)"
      },
      "t_mapping(t_uint256,t_struct(DepositNFT)10875_storage)": {
        "encoding": "mapping",
        "key": "t_uint256",
        "label": "mapping(uint256 => struct DepositNFT)",
        "numberOfBytes": "32",
        "value": "t_struct(DepositNFT)10875_storage"
      },
      "t_struct(Counter)5211_storage": {
        "encoding": "inplace",
        "label": "struct Counters.Counter",
        "members": [
          {
            "astId": 5210,
            "contract": "contracts/ProxyNFTStation.sol:ProxyNFTStation",
            "label": "_value",
            "offset": 0,
            "slot": "0",
            "type": "t_uint256"
          }
        ],
        "numberOfBytes": "32"
      },
      "t_struct(DepositNFT)10875_storage": {
        "encoding": "inplace",
        "label": "struct DepositNFT",
        "members": [
          {
            "astId": 10864,
            "contract": "contracts/ProxyNFTStation.sol:ProxyNFTStation",
            "label": "user",
            "offset": 0,
            "slot": "0",
            "type": "t_address"
          },
          {
            "astId": 10866,
            "contract": "contracts/ProxyNFTStation.sol:ProxyNFTStation",
            "label": "nftContract",
            "offset": 0,
            "slot": "1",
            "type": "t_address"
          },
          {
            "astId": 10869,
            "contract": "contracts/ProxyNFTStation.sol:ProxyNFTStation",
            "label": "tokenIds",
            "offset": 0,
            "slot": "2",
            "type": "t_array(t_uint256)dyn_storage"
          },
          {
            "astId": 10872,
            "contract": "contracts/ProxyNFTStation.sol:ProxyNFTStation",
            "label": "amounts",
            "offset": 0,
            "slot": "3",
            "type": "t_array(t_uint256)dyn_storage"
          },
          {
            "astId": 10874,
            "contract": "contracts/ProxyNFTStation.sol:ProxyNFTStation",
            "label": "endTime",
            "offset": 0,
            "slot": "4",
            "type": "t_uint256"
          }
        ],
        "numberOfBytes": "160"
      },
      "t_uint256": {
        "encoding": "inplace",
        "label": "uint256",
        "numberOfBytes": "32"
      }
    }
  }
}