{
  "address": "0xAd0aE8CdDC21b0b161E303dcf206612Af588EcB1",
  "abi": [
    {
      "inputs": [
        {
          "internalType": "address",
          "name": "_executor",
          "type": "address"
        }
      ],
      "stateMutability": "nonpayable",
      "type": "constructor"
    },
    {
      "anonymous": false,
      "inputs": [
        {
          "indexed": false,
          "internalType": "uint256",
          "name": "depositId",
          "type": "uint256"
        },
        {
          "indexed": true,
          "internalType": "address",
          "name": "user",
          "type": "address"
        },
        {
          "indexed": false,
          "internalType": "address",
          "name": "nft",
          "type": "address"
        },
        {
          "indexed": false,
          "internalType": "uint256[]",
          "name": "tokenIds",
          "type": "uint256[]"
        },
        {
          "indexed": false,
          "internalType": "uint256[]",
          "name": "amounts",
          "type": "uint256[]"
        },
        {
          "indexed": false,
          "internalType": "uint256",
          "name": "endTime",
          "type": "uint256"
        }
      ],
      "name": "Deposit",
      "type": "event"
    },
    {
      "anonymous": false,
      "inputs": [
        {
          "indexed": true,
          "internalType": "address",
          "name": "previousOwner",
          "type": "address"
        },
        {
          "indexed": true,
          "internalType": "address",
          "name": "newOwner",
          "type": "address"
        }
      ],
      "name": "OwnershipTransferred",
      "type": "event"
    },
    {
      "anonymous": false,
      "inputs": [
        {
          "indexed": false,
          "internalType": "uint256",
          "name": "depositId",
          "type": "uint256"
        },
        {
          "indexed": true,
          "internalType": "address",
          "name": "to",
          "type": "address"
        },
        {
          "indexed": false,
          "internalType": "address",
          "name": "nft",
          "type": "address"
        },
        {
          "indexed": false,
          "internalType": "uint256[]",
          "name": "tokenIds",
          "type": "uint256[]"
        },
        {
          "indexed": false,
          "internalType": "uint256[]",
          "name": "amounts",
          "type": "uint256[]"
        }
      ],
      "name": "Redeem",
      "type": "event"
    },
    {
      "anonymous": false,
      "inputs": [
        {
          "indexed": false,
          "internalType": "uint256",
          "name": "depositId",
          "type": "uint256"
        },
        {
          "indexed": true,
          "internalType": "address",
          "name": "to",
          "type": "address"
        },
        {
          "indexed": false,
          "internalType": "address",
          "name": "nft",
          "type": "address"
        },
        {
          "indexed": false,
          "internalType": "uint256[]",
          "name": "tokenIds",
          "type": "uint256[]"
        },
        {
          "indexed": false,
          "internalType": "uint256[]",
          "name": "amounts",
          "type": "uint256[]"
        }
      ],
      "name": "Withdraw",
      "type": "event"
    },
    {
      "inputs": [],
      "name": "DELAY_REDEEM_SEC",
      "outputs": [
        {
          "internalType": "uint256",
          "name": "",
          "type": "uint256"
        }
      ],
      "stateMutability": "view",
      "type": "function"
    },
    {
      "inputs": [],
      "name": "ID_ERC1155",
      "outputs": [
        {
          "internalType": "bytes4",
          "name": "",
          "type": "bytes4"
        }
      ],
      "stateMutability": "view",
      "type": "function"
    },
    {
      "inputs": [],
      "name": "ID_ERC721",
      "outputs": [
        {
          "internalType": "bytes4",
          "name": "",
          "type": "bytes4"
        }
      ],
      "stateMutability": "view",
      "type": "function"
    },
    {
      "inputs": [
        {
          "internalType": "address",
          "name": "user",
          "type": "address"
        },
        {
          "internalType": "address",
          "name": "nft",
          "type": "address"
        },
        {
          "internalType": "uint256[]",
          "name": "tokenIds",
          "type": "uint256[]"
        },
        {
          "internalType": "uint256[]",
          "name": "amounts",
          "type": "uint256[]"
        },
        {
          "internalType": "uint256",
          "name": "endTime",
          "type": "uint256"
        }
      ],
      "name": "deposit",
      "outputs": [
        {
          "internalType": "uint256",
          "name": "depositId",
          "type": "uint256"
        }
      ],
      "stateMutability": "payable",
      "type": "function"
    },
    {
      "inputs": [
        {
          "internalType": "uint256",
          "name": "",
          "type": "uint256"
        }
      ],
      "name": "deposits",
      "outputs": [
        {
          "internalType": "address",
          "name": "user",
          "type": "address"
        },
        {
          "internalType": "address",
          "name": "nftContract",
          "type": "address"
        },
        {
          "internalType": "uint256",
          "name": "endTime",
          "type": "uint256"
        }
      ],
      "stateMutability": "view",
      "type": "function"
    },
    {
      "inputs": [],
      "name": "executor",
      "outputs": [
        {
          "internalType": "address",
          "name": "",
          "type": "address"
        }
      ],
      "stateMutability": "view",
      "type": "function"
    },
    {
      "inputs": [
        {
          "internalType": "address",
          "name": "",
          "type": "address"
        },
        {
          "internalType": "address",
          "name": "",
          "type": "address"
        },
        {
          "internalType": "uint256[]",
          "name": "",
          "type": "uint256[]"
        },
        {
          "internalType": "uint256[]",
          "name": "",
          "type": "uint256[]"
        },
        {
          "internalType": "bytes",
          "name": "",
          "type": "bytes"
        }
      ],
      "name": "onERC1155BatchReceived",
      "outputs": [
        {
          "internalType": "bytes4",
          "name": "",
          "type": "bytes4"
        }
      ],
      "stateMutability": "nonpayable",
      "type": "function"
    },
    {
      "inputs": [
        {
          "internalType": "address",
          "name": "",
          "type": "address"
        },
        {
          "internalType": "address",
          "name": "",
          "type": "address"
        },
        {
          "internalType": "uint256",
          "name": "",
          "type": "uint256"
        },
        {
          "internalType": "uint256",
          "name": "",
          "type": "uint256"
        },
        {
          "internalType": "bytes",
          "name": "",
          "type": "bytes"
        }
      ],
      "name": "onERC1155Received",
      "outputs": [
        {
          "internalType": "bytes4",
          "name": "",
          "type": "bytes4"
        }
      ],
      "stateMutability": "nonpayable",
      "type": "function"
    },
    {
      "inputs": [
        {
          "internalType": "address",
          "name": "",
          "type": "address"
        },
        {
          "internalType": "address",
          "name": "",
          "type": "address"
        },
        {
          "internalType": "uint256",
          "name": "",
          "type": "uint256"
        },
        {
          "internalType": "bytes",
          "name": "",
          "type": "bytes"
        }
      ],
      "name": "onERC721Received",
      "outputs": [
        {
          "internalType": "bytes4",
          "name": "",
          "type": "bytes4"
        }
      ],
      "stateMutability": "nonpayable",
      "type": "function"
    },
    {
      "inputs": [],
      "name": "owner",
      "outputs": [
        {
          "internalType": "address",
          "name": "",
          "type": "address"
        }
      ],
      "stateMutability": "view",
      "type": "function"
    },
    {
      "inputs": [
        {
          "internalType": "uint256",
          "name": "depositId",
          "type": "uint256"
        },
        {
          "internalType": "address",
          "name": "to",
          "type": "address"
        }
      ],
      "name": "redeem",
      "outputs": [],
      "stateMutability": "nonpayable",
      "type": "function"
    },
    {
      "inputs": [],
      "name": "renounceOwnership",
      "outputs": [],
      "stateMutability": "nonpayable",
      "type": "function"
    },
    {
      "inputs": [
        {
          "internalType": "uint256",
          "name": "second",
          "type": "uint256"
        }
      ],
      "name": "setRedeemDelay",
      "outputs": [],
      "stateMutability": "nonpayable",
      "type": "function"
    },
    {
      "inputs": [
        {
          "internalType": "bytes4",
          "name": "interfaceId",
          "type": "bytes4"
        }
      ],
      "name": "supportsInterface",
      "outputs": [
        {
          "internalType": "bool",
          "name": "",
          "type": "bool"
        }
      ],
      "stateMutability": "view",
      "type": "function"
    },
    {
      "inputs": [
        {
          "internalType": "address",
          "name": "newOwner",
          "type": "address"
        }
      ],
      "name": "transferOwnership",
      "outputs": [],
      "stateMutability": "nonpayable",
      "type": "function"
    },
    {
      "inputs": [
        {
          "internalType": "uint256",
          "name": "depositId",
          "type": "uint256"
        },
        {
          "internalType": "address",
          "name": "to",
          "type": "address"
        }
      ],
      "name": "withdraw",
      "outputs": [],
      "stateMutability": "nonpayable",
      "type": "function"
    }
  ],
  "transactionHash": "0x413666353c0eecc713ac57a24d547c574dd385845ed01e2c61c9264dc48a7fd6",
  "args": [
    "0xc81Fd4516eC753e080F157D963163416C06Df749"
  ],
  "numDeployments": 1,
  "solcInputHash": "8956957e783b697bdeaf4cbd844767f6",
  "bytecode": "0x60a06040526202a30060025534801561001757600080fd5b5060405162001c8138038062001c81833981016040819052610038916100a6565b61004133610056565b60601b6001600160601b0319166080526100d6565b600080546001600160a01b038381166001600160a01b0319831681178455604051919092169283917f8be0079c531659141344cd1fd0a4f28419497f9722a3daafe3b4186f6b6457e09190a35050565b6000602082840312156100b857600080fd5b81516001600160a01b03811681146100cf57600080fd5b9392505050565b60805160601c611b7e62000103600039600081816103e30152818161048201526108170152611b7e6000f3fe6080604052600436106100f25760003560e01c80638da5cb5b1161008a578063bc197c8111610059578063bc197c811461038c578063c34c08e5146103d1578063f23a6e6114610405578063f2fde38b1461044a57600080fd5b80638da5cb5b1461024f5780638fa68c131461029b578063a70354ed146102cf578063b02c43d01461030357600080fd5b8063668282a0116100c6578063668282a0146101e45780636854ce7614610204578063715018a61461021a5780637bde82f21461022f57600080fd5b8062f714ce146100f757806301ffc9a714610119578063150b7a021461014e578063443cf787146101c3575b600080fd5b34801561010357600080fd5b506101176101123660046118a0565b61046a565b005b34801561012557600080fd5b50610139610134366004611845565b610764565b60405190151581526020015b60405180910390f35b34801561015a57600080fd5b50610192610169366004611756565b7f150b7a0200000000000000000000000000000000000000000000000000000000949350505050565b6040517fffffffff000000000000000000000000000000000000000000000000000000009091168152602001610145565b6101d66101d13660046116c9565b6107fd565b604051908152602001610145565b3480156101f057600080fd5b506101176101ff366004611887565b610a16565b34801561021057600080fd5b506101d660025481565b34801561022657600080fd5b50610117610a9c565b34801561023b57600080fd5b5061011761024a3660046118a0565b610b29565b34801561025b57600080fd5b5060005473ffffffffffffffffffffffffffffffffffffffff165b60405173ffffffffffffffffffffffffffffffffffffffff9091168152602001610145565b3480156102a757600080fd5b506101927f80ac58cd0000000000000000000000000000000000000000000000000000000081565b3480156102db57600080fd5b506101927fd9b67a260000000000000000000000000000000000000000000000000000000081565b34801561030f57600080fd5b5061035961031e366004611887565b60036020526000908152604090208054600182015460049092015473ffffffffffffffffffffffffffffffffffffffff918216929091169083565b6040805173ffffffffffffffffffffffffffffffffffffffff948516815293909216602084015290820152606001610145565b34801561039857600080fd5b506101926103a736600461161f565b7fbc197c810000000000000000000000000000000000000000000000000000000095945050505050565b3480156103dd57600080fd5b506102767f000000000000000000000000000000000000000000000000000000000000000081565b34801561041157600080fd5b506101926104203660046117be565b7ff23a6e610000000000000000000000000000000000000000000000000000000095945050505050565b34801561045657600080fd5b506101176104653660046115fd565b610e62565b3373ffffffffffffffffffffffffffffffffffffffff7f00000000000000000000000000000000000000000000000000000000000000001614610533576040517f08c379a0000000000000000000000000000000000000000000000000000000008152602060048201526024808201527f4c75636b733a2063616c6c6572206d757374206265204c75636b73457865637560448201527f746f722e0000000000000000000000000000000000000000000000000000000060648201526084015b60405180910390fd5b6000828152600360205260409020600201546105ab576040517f08c379a000000000000000000000000000000000000000000000000000000000815260206004820152601160248201527f496e76616c6964206465706f7369744964000000000000000000000000000000604482015260640161052a565b600082815260036020908152604080832060018101546002909101805483518186028101860190945280845273ffffffffffffffffffffffffffffffffffffffff909216949390919083018282801561062357602002820191906000526020600020905b81548152602001906001019080831161060f575b5050505050905060006003600086815260200190815260200160002060030180548060200260200160405190810160405280929190818152602001828054801561068c57602002820191906000526020600020905b815481526020019060010190808311610678575b505050600088815260036020526040812080547fffffffffffffffffffffffff00000000000000000000000000000000000000009081168255600182018054909116905593945091506106e490506002830182611442565b6106f2600383016000611442565b600482016000905550506107098330868585610f92565b8373ffffffffffffffffffffffffffffffffffffffff167f476e7cc7ff8d9949a3c1a2f03a33f534343265d427b6094e9f885868286a936686858585604051610755949392919061196f565b60405180910390a25050505050565b60007fffffffff0000000000000000000000000000000000000000000000000000000082167f4e2312e00000000000000000000000000000000000000000000000000000000014806107f757507f01ffc9a7000000000000000000000000000000000000000000000000000000007fffffffff000000000000000000000000000000000000000000000000000000008316145b92915050565b60003373ffffffffffffffffffffffffffffffffffffffff7f000000000000000000000000000000000000000000000000000000000000000016146108c3576040517f08c379a0000000000000000000000000000000000000000000000000000000008152602060048201526024808201527f4c75636b733a2063616c6c6572206d757374206265204c75636b73457865637560448201527f746f722e00000000000000000000000000000000000000000000000000000000606482015260840161052a565b6108d08587308787610f92565b6108de600180546001019055565b6001546040805160a08101825273ffffffffffffffffffffffffffffffffffffffff808a16825288811660208084019182528385018a8152606085018a90526080850189905260008781526003835295909520845181549085167fffffffffffffffffffffffff000000000000000000000000000000000000000091821617825592516001820180549190951693169290921790925592518051949550919361098d9260028501920190611460565b50606082015180516109a9916003840191602090910190611460565b50608082015181600401559050508573ffffffffffffffffffffffffffffffffffffffff167fb0eef79b06d0d8bafb324b046beb0e34e3cdb8c758d430884f908afee4e6a9bc8287878787604051610a059594939291906119c1565b60405180910390a295945050505050565b60005473ffffffffffffffffffffffffffffffffffffffff163314610a97576040517f08c379a000000000000000000000000000000000000000000000000000000000815260206004820181905260248201527f4f776e61626c653a2063616c6c6572206973206e6f7420746865206f776e6572604482015260640161052a565b600255565b60005473ffffffffffffffffffffffffffffffffffffffff163314610b1d576040517f08c379a000000000000000000000000000000000000000000000000000000000815260206004820181905260248201527f4f776e61626c653a2063616c6c6572206973206e6f7420746865206f776e6572604482015260640161052a565b610b2760006113cd565b565b600082815260036020526040902060020154610ba1576040517f08c379a000000000000000000000000000000000000000000000000000000000815260206004820152601160248201527f496e76616c6964206465706f7369744964000000000000000000000000000000604482015260640161052a565b600254600083815260036020526040902060040154610bc09190611a6a565b4211610c28576040517f08c379a000000000000000000000000000000000000000000000000000000000815260206004820152601260248201527f4e6f742074696d6520746f2072656465656d0000000000000000000000000000604482015260640161052a565b60008281526003602052604090205473ffffffffffffffffffffffffffffffffffffffff828116911614610cb8576040517f08c379a000000000000000000000000000000000000000000000000000000000815260206004820152601160248201527f496e76616c69642072656465656d20746f000000000000000000000000000000604482015260640161052a565b600082815260036020908152604080832060018101546002909101805483518186028101860190945280845273ffffffffffffffffffffffffffffffffffffffff9092169493909190830182828015610d3057602002820191906000526020600020905b815481526020019060010190808311610d1c575b50505050509050600060036000868152602001908152602001600020600301805480602002602001604051908101604052809291908181526020018280548015610d9957602002820191906000526020600020905b815481526020019060010190808311610d85575b505050600088815260036020526040812080547fffffffffffffffffffffffff0000000000000000000000000000000000000000908116825560018201805490911690559394509150610df190506002830182611442565b610dff600383016000611442565b60048201600090555050610e168330868585610f92565b8373ffffffffffffffffffffffffffffffffffffffff167fed1f82c75696639c2b95c814b8eac1c8ec7f5b4057d2d6e03039d76d6da8bd4686858585604051610755949392919061196f565b60005473ffffffffffffffffffffffffffffffffffffffff163314610ee3576040517f08c379a000000000000000000000000000000000000000000000000000000000815260206004820181905260248201527f4f776e61626c653a2063616c6c6572206973206e6f7420746865206f776e6572604482015260640161052a565b73ffffffffffffffffffffffffffffffffffffffff8116610f86576040517f08c379a000000000000000000000000000000000000000000000000000000000815260206004820152602660248201527f4f776e61626c653a206e6577206f776e657220697320746865207a65726f206160448201527f6464726573730000000000000000000000000000000000000000000000000000606482015260840161052a565b610f8f816113cd565b50565b8373ffffffffffffffffffffffffffffffffffffffff168573ffffffffffffffffffffffffffffffffffffffff1614158015610ffa57508273ffffffffffffffffffffffffffffffffffffffff168473ffffffffffffffffffffffffffffffffffffffff1614155b611060576040517f08c379a000000000000000000000000000000000000000000000000000000000815260206004820152600f60248201527f496e76616c696420616464726573730000000000000000000000000000000000604482015260640161052a565b6040517f01ffc9a70000000000000000000000000000000000000000000000000000000081527f80ac58cd00000000000000000000000000000000000000000000000000000000600482015273ffffffffffffffffffffffffffffffffffffffff8616906301ffc9a79060240160206040518083038186803b1580156110e557600080fd5b505afa1580156110f9573d6000803e3d6000fd5b505050506040513d601f19601f8201168201806040525081019061111d9190611823565b1561120e5760005b8251811015611208578573ffffffffffffffffffffffffffffffffffffffff166323b872dd868686858151811061115e5761115e611aea565b60209081029190910101516040517fffffffff0000000000000000000000000000000000000000000000000000000060e086901b16815273ffffffffffffffffffffffffffffffffffffffff93841660048201529290911660248301526044820152606401600060405180830381600087803b1580156111dd57600080fd5b505af11580156111f1573d6000803e3d6000fd5b50505050808061120090611a82565b915050611125565b506113c6565b6040517f01ffc9a70000000000000000000000000000000000000000000000000000000081527fd9b67a2600000000000000000000000000000000000000000000000000000000600482015273ffffffffffffffffffffffffffffffffffffffff8616906301ffc9a79060240160206040518083038186803b15801561129357600080fd5b505afa1580156112a7573d6000803e3d6000fd5b505050506040513d601f19601f820116820180604052508101906112cb9190611823565b156113c657805182511461133b576040517f08c379a000000000000000000000000000000000000000000000000000000000815260206004820152601560248201527f496e76616c696420696473202620616d6f756e74730000000000000000000000604482015260640161052a565b6040517f2eb2c2d600000000000000000000000000000000000000000000000000000000815273ffffffffffffffffffffffffffffffffffffffff861690632eb2c2d690611393908790879087908790600401611907565b600060405180830381600087803b1580156113ad57600080fd5b505af11580156113c1573d6000803e3d6000fd5b505050505b5050505050565b6000805473ffffffffffffffffffffffffffffffffffffffff8381167fffffffffffffffffffffffff0000000000000000000000000000000000000000831681178455604051919092169283917f8be0079c531659141344cd1fd0a4f28419497f9722a3daafe3b4186f6b6457e09190a35050565b5080546000825590600052602060002090810190610f8f91906114ab565b82805482825590600052602060002090810192821561149b579160200282015b8281111561149b578251825591602001919060010190611480565b506114a79291506114ab565b5090565b5b808211156114a757600081556001016114ac565b803573ffffffffffffffffffffffffffffffffffffffff811681146114e457600080fd5b919050565b600082601f8301126114fa57600080fd5b8135602067ffffffffffffffff82111561151657611516611b19565b8160051b611525828201611a1b565b83815282810190868401838801850189101561154057600080fd5b600093505b85841015611563578035835260019390930192918401918401611545565b50979650505050505050565b600082601f83011261158057600080fd5b813567ffffffffffffffff81111561159a5761159a611b19565b6115cb60207fffffffffffffffffffffffffffffffffffffffffffffffffffffffffffffffe0601f84011601611a1b565b8181528460208386010111156115e057600080fd5b816020850160208301376000918101602001919091529392505050565b60006020828403121561160f57600080fd5b611618826114c0565b9392505050565b600080600080600060a0868803121561163757600080fd5b611640866114c0565b945061164e602087016114c0565b9350604086013567ffffffffffffffff8082111561166b57600080fd5b61167789838a016114e9565b9450606088013591508082111561168d57600080fd5b61169989838a016114e9565b935060808801359150808211156116af57600080fd5b506116bc8882890161156f565b9150509295509295909350565b600080600080600060a086880312156116e157600080fd5b6116ea866114c0565b94506116f8602087016114c0565b9350604086013567ffffffffffffffff8082111561171557600080fd5b61172189838a016114e9565b9450606088013591508082111561173757600080fd5b50611744888289016114e9565b95989497509295608001359392505050565b6000806000806080858703121561176c57600080fd5b611775856114c0565b9350611783602086016114c0565b925060408501359150606085013567ffffffffffffffff8111156117a657600080fd5b6117b28782880161156f565b91505092959194509250565b600080600080600060a086880312156117d657600080fd5b6117df866114c0565b94506117ed602087016114c0565b93506040860135925060608601359150608086013567ffffffffffffffff81111561181757600080fd5b6116bc8882890161156f565b60006020828403121561183557600080fd5b8151801515811461161857600080fd5b60006020828403121561185757600080fd5b81357fffffffff000000000000000000000000000000000000000000000000000000008116811461161857600080fd5b60006020828403121561189957600080fd5b5035919050565b600080604083850312156118b357600080fd5b823591506118c3602084016114c0565b90509250929050565b600081518084526020808501945080840160005b838110156118fc578151875295820195908201906001016118e0565b509495945050505050565b600073ffffffffffffffffffffffffffffffffffffffff808716835280861660208401525060a0604083015261194060a08301856118cc565b828103606084015261195281856118cc565b838103608090940193909352505060008152602001949350505050565b84815273ffffffffffffffffffffffffffffffffffffffff841660208201526080604082015260006119a460808301856118cc565b82810360608401526119b681856118cc565b979650505050505050565b85815273ffffffffffffffffffffffffffffffffffffffff8516602082015260a0604082015260006119f660a08301866118cc565b8281036060840152611a0881866118cc565b9150508260808301529695505050505050565b604051601f82017fffffffffffffffffffffffffffffffffffffffffffffffffffffffffffffffe016810167ffffffffffffffff81118282101715611a6257611a62611b19565b604052919050565b60008219821115611a7d57611a7d611abb565b500190565b60007fffffffffffffffffffffffffffffffffffffffffffffffffffffffffffffffff821415611ab457611ab4611abb565b5060010190565b7f4e487b7100000000000000000000000000000000000000000000000000000000600052601160045260246000fd5b7f4e487b7100000000000000000000000000000000000000000000000000000000600052603260045260246000fd5b7f4e487b7100000000000000000000000000000000000000000000000000000000600052604160045260246000fdfea26469706673582212202986c148b5351a98b712bbab9a7466e117b45e5ac76e45dbde5d332772c7878e64736f6c63430008060033",
  "devdoc": {
    "kind": "dev",
    "methods": {
      "constructor": {
        "params": {
          "_executor": "address"
        }
      },
      "onERC721Received(address,address,uint256,bytes)": {
        "details": "See {IERC721Receiver-onERC721Received}. Always returns `IERC721Receiver.onERC721Received.selector`."
      },
      "owner()": {
        "details": "Returns the address of the current owner."
      },
      "renounceOwnership()": {
        "details": "Leaves the contract without owner. It will not be possible to call `onlyOwner` functions anymore. Can only be called by the current owner. NOTE: Renouncing ownership will leave the contract without an owner, thereby removing any functionality that is only available to the owner."
      },
      "supportsInterface(bytes4)": {
        "details": "See {IERC165-supportsInterface}."
      },
      "transferOwnership(address)": {
        "details": "Transfers ownership of the contract to a new account (`newOwner`). Can only be called by the current owner."
      }
    },
    "version": 1
  },
  "userdoc": {
    "kind": "user",
    "methods": {
      "constructor": {
        "notice": "Constructor"
      },
      "setRedeemDelay(uint256)": {
        "notice": "set operator"
      }
    },
    "version": 1
  },
  "storageLayout": {
    "storage": [
      {
        "astId": 307,
        "contract": "contracts/ProxyNFTStation.sol:ProxyNFTStation",
        "label": "_owner",
        "offset": 0,
        "slot": "0",
        "type": "t_address"
      },
      {
        "astId": 7334,
        "contract": "contracts/ProxyNFTStation.sol:ProxyNFTStation",
        "label": "_depositIds",
        "offset": 0,
        "slot": "1",
        "type": "t_struct(Counter)4187_storage"
      },
      {
        "astId": 7343,
        "contract": "contracts/ProxyNFTStation.sol:ProxyNFTStation",
        "label": "DELAY_REDEEM_SEC",
        "offset": 0,
        "slot": "2",
        "type": "t_uint256"
      },
      {
        "astId": 7350,
        "contract": "contracts/ProxyNFTStation.sol:ProxyNFTStation",
        "label": "deposits",
        "offset": 0,
        "slot": "3",
        "type": "t_mapping(t_uint256,t_struct(DepositNFT)8987_storage)"
      }
    ],
    "types": {
      "t_address": {
        "encoding": "inplace",
        "label": "address",
        "numberOfBytes": "20"
      },
      "t_array(t_uint256)dyn_storage": {
        "base": "t_uint256",
        "encoding": "dynamic_array",
        "label": "uint256[]",
        "numberOfBytes": "32"
      },
      "t_mapping(t_uint256,t_struct(DepositNFT)8987_storage)": {
        "encoding": "mapping",
        "key": "t_uint256",
        "label": "mapping(uint256 => struct DepositNFT)",
        "numberOfBytes": "32",
        "value": "t_struct(DepositNFT)8987_storage"
      },
      "t_struct(Counter)4187_storage": {
        "encoding": "inplace",
        "label": "struct Counters.Counter",
        "members": [
          {
            "astId": 4186,
            "contract": "contracts/ProxyNFTStation.sol:ProxyNFTStation",
            "label": "_value",
            "offset": 0,
            "slot": "0",
            "type": "t_uint256"
          }
        ],
        "numberOfBytes": "32"
      },
      "t_struct(DepositNFT)8987_storage": {
        "encoding": "inplace",
        "label": "struct DepositNFT",
        "members": [
          {
            "astId": 8976,
            "contract": "contracts/ProxyNFTStation.sol:ProxyNFTStation",
            "label": "user",
            "offset": 0,
            "slot": "0",
            "type": "t_address"
          },
          {
            "astId": 8978,
            "contract": "contracts/ProxyNFTStation.sol:ProxyNFTStation",
            "label": "nftContract",
            "offset": 0,
            "slot": "1",
            "type": "t_address"
          },
          {
            "astId": 8981,
            "contract": "contracts/ProxyNFTStation.sol:ProxyNFTStation",
            "label": "tokenIds",
            "offset": 0,
            "slot": "2",
            "type": "t_array(t_uint256)dyn_storage"
          },
          {
            "astId": 8984,
            "contract": "contracts/ProxyNFTStation.sol:ProxyNFTStation",
            "label": "amounts",
            "offset": 0,
            "slot": "3",
            "type": "t_array(t_uint256)dyn_storage"
          },
          {
            "astId": 8986,
            "contract": "contracts/ProxyNFTStation.sol:ProxyNFTStation",
            "label": "endTime",
            "offset": 0,
            "slot": "4",
            "type": "t_uint256"
          }
        ],
        "numberOfBytes": "160"
      },
      "t_uint256": {
        "encoding": "inplace",
        "label": "uint256",
        "numberOfBytes": "32"
      }
    }
  }
}