{
  "address": "0x6AA4FF23620c63aeCC23D1B6b73BA55611311B66",
  "abi": [
    {
      "inputs": [
        {
          "internalType": "address",
          "name": "_executor",
          "type": "address"
        },
        {
          "internalType": "address",
          "name": "_weth",
          "type": "address"
        }
      ],
      "stateMutability": "nonpayable",
      "type": "constructor"
    },
    {
      "anonymous": false,
      "inputs": [
        {
          "indexed": true,
          "internalType": "address",
          "name": "executor",
          "type": "address"
        },
        {
          "indexed": true,
          "internalType": "address",
          "name": "user",
          "type": "address"
        },
        {
          "indexed": false,
          "internalType": "address",
          "name": "token",
          "type": "address"
        },
        {
          "indexed": false,
          "internalType": "uint256",
          "name": "amount",
          "type": "uint256"
        }
      ],
      "name": "Deposit",
      "type": "event"
    },
    {
      "anonymous": false,
      "inputs": [
        {
          "indexed": true,
          "internalType": "address",
          "name": "previousOwner",
          "type": "address"
        },
        {
          "indexed": true,
          "internalType": "address",
          "name": "newOwner",
          "type": "address"
        }
      ],
      "name": "OwnershipTransferred",
      "type": "event"
    },
    {
      "anonymous": false,
      "inputs": [
        {
          "indexed": true,
          "internalType": "address",
          "name": "executor",
          "type": "address"
        },
        {
          "indexed": true,
          "internalType": "address",
          "name": "user",
          "type": "address"
        },
        {
          "indexed": false,
          "internalType": "address",
          "name": "token",
          "type": "address"
        },
        {
          "indexed": false,
          "internalType": "uint256",
          "name": "amount",
          "type": "uint256"
        }
      ],
      "name": "Withdraw",
      "type": "event"
    },
    {
      "inputs": [],
      "name": "WETH",
      "outputs": [
        {
          "internalType": "address",
          "name": "",
          "type": "address"
        }
      ],
      "stateMutability": "view",
      "type": "function"
    },
    {
      "inputs": [
        {
          "internalType": "address",
          "name": "user",
          "type": "address"
        },
        {
          "internalType": "address",
          "name": "token",
          "type": "address"
        },
        {
          "internalType": "uint256",
          "name": "amount",
          "type": "uint256"
        }
      ],
      "name": "deposit",
      "outputs": [],
      "stateMutability": "payable",
      "type": "function"
    },
    {
      "inputs": [
        {
          "internalType": "address",
          "name": "",
          "type": "address"
        },
        {
          "internalType": "address",
          "name": "",
          "type": "address"
        }
      ],
      "name": "deposits",
      "outputs": [
        {
          "internalType": "uint256",
          "name": "",
          "type": "uint256"
        }
      ],
      "stateMutability": "view",
      "type": "function"
    },
    {
      "inputs": [
        {
          "internalType": "address",
          "name": "",
          "type": "address"
        }
      ],
      "name": "executors",
      "outputs": [
        {
          "internalType": "bool",
          "name": "",
          "type": "bool"
        }
      ],
      "stateMutability": "view",
      "type": "function"
    },
    {
      "inputs": [],
      "name": "owner",
      "outputs": [
        {
          "internalType": "address",
          "name": "",
          "type": "address"
        }
      ],
      "stateMutability": "view",
      "type": "function"
    },
    {
      "inputs": [],
      "name": "renounceOwnership",
      "outputs": [],
      "stateMutability": "nonpayable",
      "type": "function"
    },
    {
      "inputs": [
        {
          "internalType": "address",
          "name": "executor",
          "type": "address"
        }
      ],
      "name": "setExecutor",
      "outputs": [],
      "stateMutability": "nonpayable",
      "type": "function"
    },
    {
      "inputs": [
        {
          "internalType": "address",
          "name": "_eth",
          "type": "address"
        }
      ],
      "name": "setWETH",
      "outputs": [],
      "stateMutability": "nonpayable",
      "type": "function"
    },
    {
      "inputs": [
        {
          "internalType": "address",
          "name": "newOwner",
          "type": "address"
        }
      ],
      "name": "transferOwnership",
      "outputs": [],
      "stateMutability": "nonpayable",
      "type": "function"
    },
    {
      "inputs": [
        {
          "internalType": "address",
          "name": "user",
          "type": "address"
        },
        {
          "internalType": "address",
          "name": "token",
          "type": "address"
        },
        {
          "internalType": "uint256",
          "name": "amount",
          "type": "uint256"
        }
      ],
      "name": "withdraw",
      "outputs": [],
      "stateMutability": "nonpayable",
      "type": "function"
    }
  ],
  "transactionHash": "0xc28237015cc5633026cbd315bf643571b09e7bc2e98fbae522ec7d45fdbc511e",
  "args": [
    "0x686746214BCc37b7D4935B098C4899031C288fFd",
    "0x0000000000000000000000000000000000000000"
  ],
  "numDeployments": 1,
  "solcInputHash": "1a9c64e66e0f1071b3b5090c79ef260f",
  "bytecode": "0x60806040523480156200001157600080fd5b50604051620016f5380380620016f58339810160408190526200003491620000ee565b6200003f3362000081565b6001600160a01b039182166000908152600160208190526040909120805460ff19169091179055600380546001600160a01b0319169190921617905562000126565b600080546001600160a01b038381166001600160a01b0319831681178455604051919092169283917f8be0079c531659141344cd1fd0a4f28419497f9722a3daafe3b4186f6b6457e09190a35050565b80516001600160a01b0381168114620000e957600080fd5b919050565b600080604083850312156200010257600080fd5b6200010d83620000d1565b91506200011d60208401620000d1565b90509250929050565b6115bf80620001366000396000f3fe6080604052600436106100b15760003560e01c80638f601f6611610069578063ad5c46481161004e578063ad5c4648146101f7578063d9caed1214610224578063f2fde38b1461024457600080fd5b80638f601f66146101715780639ac2a011146101b757600080fd5b8063715018a61161009a578063715018a6146100f85780638340f5491461010d5780638da5cb5b1461012057600080fd5b80631c3c0ea8146100b65780635b769f3c146100d8575b600080fd5b3480156100c257600080fd5b506100d66100d1366004611466565b610264565b005b3480156100e457600080fd5b506100d66100f3366004611466565b61033c565b34801561010457600080fd5b506100d6610404565b6100d661011b3660046114b4565b610491565b34801561012c57600080fd5b5060005473ffffffffffffffffffffffffffffffffffffffff165b60405173ffffffffffffffffffffffffffffffffffffffff90911681526020015b60405180910390f35b34801561017d57600080fd5b506101a961018c366004611481565b600260209081526000928352604080842090915290825290205481565b604051908152602001610168565b3480156101c357600080fd5b506101e76101d2366004611466565b60016020526000908152604090205460ff1681565b6040519015158152602001610168565b34801561020357600080fd5b506003546101479073ffffffffffffffffffffffffffffffffffffffff1681565b34801561023057600080fd5b506100d661023f3660046114b4565b610577565b34801561025057600080fd5b506100d661025f366004611466565b610654565b60005473ffffffffffffffffffffffffffffffffffffffff1633146102ea576040517f08c379a000000000000000000000000000000000000000000000000000000000815260206004820181905260248201527f4f776e61626c653a2063616c6c6572206973206e6f7420746865206f776e657260448201526064015b60405180910390fd5b73ffffffffffffffffffffffffffffffffffffffff16600090815260016020819052604090912080547fffffffffffffffffffffffffffffffffffffffffffffffffffffffffffffff00169091179055565b60005473ffffffffffffffffffffffffffffffffffffffff1633146103bd576040517f08c379a000000000000000000000000000000000000000000000000000000000815260206004820181905260248201527f4f776e61626c653a2063616c6c6572206973206e6f7420746865206f776e657260448201526064016102e1565b600380547fffffffffffffffffffffffff00000000000000000000000000000000000000001673ffffffffffffffffffffffffffffffffffffffff92909216919091179055565b60005473ffffffffffffffffffffffffffffffffffffffff163314610485576040517f08c379a000000000000000000000000000000000000000000000000000000000815260206004820181905260248201527f4f776e61626c653a2063616c6c6572206973206e6f7420746865206f776e657260448201526064016102e1565b61048f6000610784565b565b3360009081526001602081905260409091205460ff16151514610510576040517f08c379a000000000000000000000000000000000000000000000000000000000815260206004820152601360248201527f4c75636b733a206f6e6c794578656375746f720000000000000000000000000060448201526064016102e1565b61051c338484846107f9565b6040805173ffffffffffffffffffffffffffffffffffffffff84811682526020820184905285169133917f7cfff908a4b583f36430b25d75964c458d8ede8a99bd61be750e97ee1b2f3a9691015b60405180910390a3505050565b3360009081526001602081905260409091205460ff161515146105f6576040517f08c379a000000000000000000000000000000000000000000000000000000000815260206004820152601360248201527f4c75636b733a206f6e6c794578656375746f720000000000000000000000000060448201526064016102e1565b61060233848484610f6d565b6040805173ffffffffffffffffffffffffffffffffffffffff84811682526020820184905285169133917f3115d1449a7b732c986cba18244e897a450f61e1bb8d589cd2e69e6c8924f9f7910161056a565b60005473ffffffffffffffffffffffffffffffffffffffff1633146106d5576040517f08c379a000000000000000000000000000000000000000000000000000000000815260206004820181905260248201527f4f776e61626c653a2063616c6c6572206973206e6f7420746865206f776e657260448201526064016102e1565b73ffffffffffffffffffffffffffffffffffffffff8116610778576040517f08c379a000000000000000000000000000000000000000000000000000000000815260206004820152602660248201527f4f776e61626c653a206e6577206f776e657220697320746865207a65726f206160448201527f646472657373000000000000000000000000000000000000000000000000000060648201526084016102e1565b61078181610784565b50565b6000805473ffffffffffffffffffffffffffffffffffffffff8381167fffffffffffffffffffffffff0000000000000000000000000000000000000000831681178455604051919092169283917f8be0079c531659141344cd1fd0a4f28419497f9722a3daafe3b4186f6b6457e09190a35050565b73ffffffffffffffffffffffffffffffffffffffff8216610c27576000610820823461141e565b90508015610c215760035473ffffffffffffffffffffffffffffffffffffffff166108cd576040517f08c379a000000000000000000000000000000000000000000000000000000000815260206004820152602a60248201527f777261707020746f6b656e206e6f7420736574206f72206d73672e76616c756560448201527f20746f6f20736d616c6c0000000000000000000000000000000000000000000060648201526084016102e1565b6003546040517f70a0823100000000000000000000000000000000000000000000000000000000815273ffffffffffffffffffffffffffffffffffffffff8681166004830152839216906370a082319060240160206040518083038186803b15801561093857600080fd5b505afa15801561094c573d6000803e3d6000fd5b505050506040513d601f19601f820116820180604052508101906109709190611512565b10156109d8576040517f08c379a000000000000000000000000000000000000000000000000000000000815260206004820152601460248201527f496e73756666696369656e742062616c616e636500000000000000000000000060448201526064016102e1565b6003546040517fdd62ed3e00000000000000000000000000000000000000000000000000000000815273ffffffffffffffffffffffffffffffffffffffff86811660048301523060248301528392169063dd62ed3e9060440160206040518083038186803b158015610a4957600080fd5b505afa158015610a5d573d6000803e3d6000fd5b505050506040513d601f19601f82011682018060405250810190610a819190611512565b1015610ae9576040517f08c379a000000000000000000000000000000000000000000000000000000000815260206004820152601660248201527f496e73756666696369656e7420616c6c6f77616e63650000000000000000000060448201526064016102e1565b6003546040517f23b872dd00000000000000000000000000000000000000000000000000000000815273ffffffffffffffffffffffffffffffffffffffff868116600483015230602483015260448201849052909116906323b872dd90606401602060405180830381600087803b158015610b6357600080fd5b505af1158015610b77573d6000803e3d6000fd5b505050506040513d601f19601f82011682018060405250810190610b9b91906114f0565b506003546040517f2e1a7d4d0000000000000000000000000000000000000000000000000000000081526004810183905273ffffffffffffffffffffffffffffffffffffffff90911690632e1a7d4d90602401600060405180830381600087803b158015610c0857600080fd5b505af1158015610c1c573d6000803e3d6000fd5b505050505b50610ef1565b6040517f70a0823100000000000000000000000000000000000000000000000000000000815273ffffffffffffffffffffffffffffffffffffffff84811660048301528291908416906370a082319060240160206040518083038186803b158015610c9157600080fd5b505afa158015610ca5573d6000803e3d6000fd5b505050506040513d601f19601f82011682018060405250810190610cc99190611512565b1015610d31576040517f08c379a000000000000000000000000000000000000000000000000000000000815260206004820152601a60248201527f496e73756666696369656e7420746f6b656e2062616c616e636500000000000060448201526064016102e1565b6040517fdd62ed3e00000000000000000000000000000000000000000000000000000000815273ffffffffffffffffffffffffffffffffffffffff848116600483015230602483015282919084169063dd62ed3e9060440160206040518083038186803b158015610da157600080fd5b505afa158015610db5573d6000803e3d6000fd5b505050506040513d601f19601f82011682018060405250810190610dd99190611512565b1015610e41576040517f08c379a000000000000000000000000000000000000000000000000000000000815260206004820152601c60248201527f496e73756666696369656e7420746f6b656e20616c6c6f77616e63650000000060448201526064016102e1565b6040517f23b872dd00000000000000000000000000000000000000000000000000000000815273ffffffffffffffffffffffffffffffffffffffff8481166004830152306024830152604482018390528316906323b872dd90606401602060405180830381600087803b158015610eb757600080fd5b505af1158015610ecb573d6000803e3d6000fd5b505050506040513d601f19601f82011682018060405250810190610eef91906114f0565b505b73ffffffffffffffffffffffffffffffffffffffff808516600090815260026020908152604080832093861683529290522054610f2e9082611431565b73ffffffffffffffffffffffffffffffffffffffff94851660009081526002602090815260408083209590971682529390935293909120929092555050565b73ffffffffffffffffffffffffffffffffffffffff831615801590610fa8575073ffffffffffffffffffffffffffffffffffffffff83163014155b61100e576040517f08c379a000000000000000000000000000000000000000000000000000000000815260206004820152600f60248201527f496e76616c69642061646472657373000000000000000000000000000000000060448201526064016102e1565b60008111611078576040517f08c379a000000000000000000000000000000000000000000000000000000000815260206004820152600e60248201527f496e76616c696420616d6f756e7400000000000000000000000000000000000060448201526064016102e1565b73ffffffffffffffffffffffffffffffffffffffff80851660009081526002602090815260408083209386168352929052205481111561113a576040517f08c379a000000000000000000000000000000000000000000000000000000000815260206004820152603060248201527f496e73756666696369656e74206465706f73697465642062616c616e6365206660448201527f6f722074686973206578656375746f720000000000000000000000000000000060648201526084016102e1565b73ffffffffffffffffffffffffffffffffffffffff808516600090815260026020908152604080832093861683529290522054611177908261141e565b73ffffffffffffffffffffffffffffffffffffffff808616600090815260026020908152604080832093871680845293909152902091909155611267578047101561121e576040517f08c379a000000000000000000000000000000000000000000000000000000000815260206004820152600d60248201527f4c61636b206f662066756e64730000000000000000000000000000000000000060448201526064016102e1565b60405173ffffffffffffffffffffffffffffffffffffffff84169082156108fc029083906000818181858888f19350505050158015611261573d6000803e3d6000fd5b50611418565b6040517f70a08231000000000000000000000000000000000000000000000000000000008152306004820152819073ffffffffffffffffffffffffffffffffffffffff8416906370a082319060240160206040518083038186803b1580156112ce57600080fd5b505afa1580156112e2573d6000803e3d6000fd5b505050506040513d601f19601f820116820180604052508101906113069190611512565b101561136e576040517f08c379a000000000000000000000000000000000000000000000000000000000815260206004820152600d60248201527f4c61636b206f6620746f6b656e0000000000000000000000000000000000000060448201526064016102e1565b6040517fa9059cbb00000000000000000000000000000000000000000000000000000000815273ffffffffffffffffffffffffffffffffffffffff84811660048301526024820183905283169063a9059cbb90604401602060405180830381600087803b1580156113de57600080fd5b505af11580156113f2573d6000803e3d6000fd5b505050506040513d601f19601f8201168201806040525081019061141691906114f0565b505b50505050565b600061142a8284611543565b9392505050565b600061142a828461152b565b803573ffffffffffffffffffffffffffffffffffffffff8116811461146157600080fd5b919050565b60006020828403121561147857600080fd5b61142a8261143d565b6000806040838503121561149457600080fd5b61149d8361143d565b91506114ab6020840161143d565b90509250929050565b6000806000606084860312156114c957600080fd5b6114d28461143d565b92506114e06020850161143d565b9150604084013590509250925092565b60006020828403121561150257600080fd5b8151801515811461142a57600080fd5b60006020828403121561152457600080fd5b5051919050565b6000821982111561153e5761153e61155a565b500190565b6000828210156115555761155561155a565b500390565b7f4e487b7100000000000000000000000000000000000000000000000000000000600052601160045260246000fdfea26469706673582212200a2c81cbd8c36e655dba372dbadc14b394d8b7695b687af84396ae745789d6ef64736f6c63430008060033",
  "devdoc": {
    "kind": "dev",
    "methods": {
      "constructor": {
        "params": {
          "_executor": "executor address"
        }
      },
      "owner()": {
        "details": "Returns the address of the current owner."
      },
      "renounceOwnership()": {
        "details": "Leaves the contract without owner. It will not be possible to call `onlyOwner` functions anymore. Can only be called by the current owner. NOTE: Renouncing ownership will leave the contract without an owner, thereby removing any functionality that is only available to the owner."
      },
      "transferOwnership(address)": {
        "details": "Transfers ownership of the contract to a new account (`newOwner`). Can only be called by the current owner."
      }
    },
    "version": 1
  },
  "userdoc": {
    "kind": "user",
    "methods": {
      "constructor": {
        "notice": "Constructor"
      },
      "setExecutor(address)": {
        "notice": "set operator"
      },
      "setWETH(address)": {
        "notice": "set IWETH"
      }
    },
    "version": 1
  },
  "storageLayout": {
    "storage": [
      {
        "astId": 917,
        "contract": "contracts/ProxyTokenStation.sol:ProxyTokenStation",
        "label": "_owner",
        "offset": 0,
        "slot": "0",
        "type": "t_address"
      },
      {
        "astId": 8524,
        "contract": "contracts/ProxyTokenStation.sol:ProxyTokenStation",
        "label": "executors",
        "offset": 0,
        "slot": "1",
        "type": "t_mapping(t_address,t_bool)"
      },
      {
        "astId": 8530,
        "contract": "contracts/ProxyTokenStation.sol:ProxyTokenStation",
        "label": "deposits",
        "offset": 0,
        "slot": "2",
        "type": "t_mapping(t_address,t_mapping(t_address,t_uint256))"
      },
      {
        "astId": 8532,
        "contract": "contracts/ProxyTokenStation.sol:ProxyTokenStation",
        "label": "WETH",
        "offset": 0,
        "slot": "3",
        "type": "t_address"
      }
    ],
    "types": {
      "t_address": {
        "encoding": "inplace",
        "label": "address",
        "numberOfBytes": "20"
      },
      "t_bool": {
        "encoding": "inplace",
        "label": "bool",
        "numberOfBytes": "1"
      },
      "t_mapping(t_address,t_bool)": {
        "encoding": "mapping",
        "key": "t_address",
        "label": "mapping(address => bool)",
        "numberOfBytes": "32",
        "value": "t_bool"
      },
      "t_mapping(t_address,t_mapping(t_address,t_uint256))": {
        "encoding": "mapping",
        "key": "t_address",
        "label": "mapping(address => mapping(address => uint256))",
        "numberOfBytes": "32",
        "value": "t_mapping(t_address,t_uint256)"
      },
      "t_mapping(t_address,t_uint256)": {
        "encoding": "mapping",
        "key": "t_address",
        "label": "mapping(address => uint256)",
        "numberOfBytes": "32",
        "value": "t_uint256"
      },
      "t_uint256": {
        "encoding": "inplace",
        "label": "uint256",
        "numberOfBytes": "32"
      }
    }
  }
}