{
  "address": "0x5BC92FC9F74285083150fA3C9F5EeC7a891E6B80",
  "abi": [
    {
      "inputs": [
        {
          "internalType": "address",
          "name": "_executor",
          "type": "address"
        },
        {
          "internalType": "address",
          "name": "_weth",
          "type": "address"
        }
      ],
      "stateMutability": "nonpayable",
      "type": "constructor"
    },
    {
      "anonymous": false,
      "inputs": [
        {
          "indexed": true,
          "internalType": "address",
          "name": "executor",
          "type": "address"
        },
        {
          "indexed": true,
          "internalType": "address",
          "name": "user",
          "type": "address"
        },
        {
          "indexed": false,
          "internalType": "address",
          "name": "token",
          "type": "address"
        },
        {
          "indexed": false,
          "internalType": "uint256",
          "name": "amount",
          "type": "uint256"
        }
      ],
      "name": "Deposit",
      "type": "event"
    },
    {
      "anonymous": false,
      "inputs": [
        {
          "indexed": true,
          "internalType": "address",
          "name": "previousOwner",
          "type": "address"
        },
        {
          "indexed": true,
          "internalType": "address",
          "name": "newOwner",
          "type": "address"
        }
      ],
      "name": "OwnershipTransferred",
      "type": "event"
    },
    {
      "anonymous": false,
      "inputs": [
        {
          "indexed": true,
          "internalType": "address",
          "name": "executor",
          "type": "address"
        },
        {
          "indexed": true,
          "internalType": "address",
          "name": "user",
          "type": "address"
        },
        {
          "indexed": false,
          "internalType": "address",
          "name": "token",
          "type": "address"
        },
        {
          "indexed": false,
          "internalType": "uint256",
          "name": "amount",
          "type": "uint256"
        }
      ],
      "name": "Withdraw",
      "type": "event"
    },
    {
      "inputs": [],
      "name": "WETH",
      "outputs": [
        {
          "internalType": "address",
          "name": "",
          "type": "address"
        }
      ],
      "stateMutability": "view",
      "type": "function"
    },
    {
      "inputs": [
        {
          "internalType": "address",
          "name": "user",
          "type": "address"
        },
        {
          "internalType": "address",
          "name": "token",
          "type": "address"
        },
        {
          "internalType": "uint256",
          "name": "amount",
          "type": "uint256"
        }
      ],
      "name": "deposit",
      "outputs": [],
      "stateMutability": "payable",
      "type": "function"
    },
    {
      "inputs": [
        {
          "internalType": "address",
          "name": "",
          "type": "address"
        },
        {
          "internalType": "address",
          "name": "",
          "type": "address"
        }
      ],
      "name": "deposits",
      "outputs": [
        {
          "internalType": "uint256",
          "name": "",
          "type": "uint256"
        }
      ],
      "stateMutability": "view",
      "type": "function"
    },
    {
      "inputs": [
        {
          "internalType": "address",
          "name": "",
          "type": "address"
        }
      ],
      "name": "executors",
      "outputs": [
        {
          "internalType": "bool",
          "name": "",
          "type": "bool"
        }
      ],
      "stateMutability": "view",
      "type": "function"
    },
    {
      "inputs": [],
      "name": "owner",
      "outputs": [
        {
          "internalType": "address",
          "name": "",
          "type": "address"
        }
      ],
      "stateMutability": "view",
      "type": "function"
    },
    {
      "inputs": [],
      "name": "renounceOwnership",
      "outputs": [],
      "stateMutability": "nonpayable",
      "type": "function"
    },
    {
      "inputs": [
        {
          "internalType": "address",
          "name": "executor",
          "type": "address"
        }
      ],
      "name": "setExecutor",
      "outputs": [],
      "stateMutability": "nonpayable",
      "type": "function"
    },
    {
      "inputs": [
        {
          "internalType": "address",
          "name": "newOwner",
          "type": "address"
        }
      ],
      "name": "transferOwnership",
      "outputs": [],
      "stateMutability": "nonpayable",
      "type": "function"
    },
    {
      "inputs": [
        {
          "internalType": "address",
          "name": "user",
          "type": "address"
        },
        {
          "internalType": "address",
          "name": "token",
          "type": "address"
        },
        {
          "internalType": "uint256",
          "name": "amount",
          "type": "uint256"
        }
      ],
      "name": "withdraw",
      "outputs": [],
      "stateMutability": "nonpayable",
      "type": "function"
    }
  ],
  "transactionHash": "0x60eff6dadf3d203b5598c21ae6d0a3a604bb4d7a55704b1a431840e52b20f5d7",
  "args": [
    "0x0C2Ee72fb44036039fEF429Dd067cA46483B66dD",
    "0x0000000000000000000000000000000000000000"
  ],
  "numDeployments": 1,
  "solcInputHash": "177ed0f2b9f34374598af4314d3fc464",
  "bytecode": "0x60a06040523480156200001157600080fd5b50604051620016e4380380620016e48339810160408190526200003491620000ea565b6200003f336200007d565b6001600160a01b03919091166000908152600160208190526040909120805460ff1916909117905560601b6001600160601b03191660805262000122565b600080546001600160a01b038381166001600160a01b0319831681178455604051919092169283917f8be0079c531659141344cd1fd0a4f28419497f9722a3daafe3b4186f6b6457e09190a35050565b80516001600160a01b0381168114620000e557600080fd5b919050565b60008060408385031215620000fe57600080fd5b6200010983620000cd565b91506200011960208401620000cd565b90509250929050565b60805160601c61158062000164600039600081816101ce0152818161077801528181610880015281816109b101528181610ae70152610b9301526115806000f3fe6080604052600436106100965760003560e01c80638f601f6611610069578063ad5c46481161004e578063ad5c4648146101bc578063d9caed12146101f0578063f2fde38b1461021057600080fd5b80638f601f66146101365780639ac2a0111461017c57600080fd5b80631c3c0ea81461009b578063715018a6146100bd5780638340f549146100d25780638da5cb5b146100e5575b600080fd5b3480156100a757600080fd5b506100bb6100b6366004611427565b610230565b005b3480156100c957600080fd5b506100bb610308565b6100bb6100e0366004611475565b610395565b3480156100f157600080fd5b5060005473ffffffffffffffffffffffffffffffffffffffff165b60405173ffffffffffffffffffffffffffffffffffffffff90911681526020015b60405180910390f35b34801561014257600080fd5b5061016e610151366004611442565b600260209081526000928352604080842090915290825290205481565b60405190815260200161012d565b34801561018857600080fd5b506101ac610197366004611427565b60016020526000908152604090205460ff1681565b604051901515815260200161012d565b3480156101c857600080fd5b5061010c7f000000000000000000000000000000000000000000000000000000000000000081565b3480156101fc57600080fd5b506100bb61020b366004611475565b6104a0565b34801561021c57600080fd5b506100bb61022b366004611427565b6105a2565b60005473ffffffffffffffffffffffffffffffffffffffff1633146102b6576040517f08c379a000000000000000000000000000000000000000000000000000000000815260206004820181905260248201527f4f776e61626c653a2063616c6c6572206973206e6f7420746865206f776e657260448201526064015b60405180910390fd5b73ffffffffffffffffffffffffffffffffffffffff16600090815260016020819052604090912080547fffffffffffffffffffffffffffffffffffffffffffffffffffffffffffffff00169091179055565b60005473ffffffffffffffffffffffffffffffffffffffff163314610389576040517f08c379a000000000000000000000000000000000000000000000000000000000815260206004820181905260248201527f4f776e61626c653a2063616c6c6572206973206e6f7420746865206f776e657260448201526064016102ad565b61039360006106d2565b565b3360009081526001602081905260409091205460ff16151514610439576040517f08c379a0000000000000000000000000000000000000000000000000000000008152602060048201526024808201527f4c75636b733a2063616c6c6572206d757374206265204c75636b73457865637560448201527f746f722e0000000000000000000000000000000000000000000000000000000060648201526084016102ad565b61044533848484610747565b6040805173ffffffffffffffffffffffffffffffffffffffff84811682526020820184905285169133917f7cfff908a4b583f36430b25d75964c458d8ede8a99bd61be750e97ee1b2f3a9691015b60405180910390a3505050565b3360009081526001602081905260409091205460ff16151514610544576040517f08c379a0000000000000000000000000000000000000000000000000000000008152602060048201526024808201527f4c75636b733a2063616c6c6572206d757374206265204c75636b73457865637560448201527f746f722e0000000000000000000000000000000000000000000000000000000060648201526084016102ad565b61055033848484610f95565b6040805173ffffffffffffffffffffffffffffffffffffffff84811682526020820184905285169133917f3115d1449a7b732c986cba18244e897a450f61e1bb8d589cd2e69e6c8924f9f79101610493565b60005473ffffffffffffffffffffffffffffffffffffffff163314610623576040517f08c379a000000000000000000000000000000000000000000000000000000000815260206004820181905260248201527f4f776e61626c653a2063616c6c6572206973206e6f7420746865206f776e657260448201526064016102ad565b73ffffffffffffffffffffffffffffffffffffffff81166106c6576040517f08c379a000000000000000000000000000000000000000000000000000000000815260206004820152602660248201527f4f776e61626c653a206e6577206f776e657220697320746865207a65726f206160448201527f646472657373000000000000000000000000000000000000000000000000000060648201526084016102ad565b6106cf816106d2565b50565b6000805473ffffffffffffffffffffffffffffffffffffffff8381167fffffffffffffffffffffffff0000000000000000000000000000000000000000831681178455604051919092169283917f8be0079c531659141344cd1fd0a4f28419497f9722a3daafe3b4186f6b6457e09190a35050565b73ffffffffffffffffffffffffffffffffffffffff8216610c8757600061076e82346113df565b90508015610c43577f000000000000000000000000000000000000000000000000000000000000000073ffffffffffffffffffffffffffffffffffffffff16610839576040517f08c379a000000000000000000000000000000000000000000000000000000000815260206004820152602a60248201527f777261707020746f6b656e206e6f7420736574206f72206d73672e76616c756560448201527f20746f6f20736d616c6c0000000000000000000000000000000000000000000060648201526084016102ad565b6040517f70a0823100000000000000000000000000000000000000000000000000000000815273ffffffffffffffffffffffffffffffffffffffff858116600483015282917f0000000000000000000000000000000000000000000000000000000000000000909116906370a082319060240160206040518083038186803b1580156108c457600080fd5b505afa1580156108d8573d6000803e3d6000fd5b505050506040513d601f19601f820116820180604052508101906108fc91906114d3565b1015610964576040517f08c379a000000000000000000000000000000000000000000000000000000000815260206004820152601460248201527f496e73756666696369656e742062616c616e636500000000000000000000000060448201526064016102ad565b6040517fdd62ed3e00000000000000000000000000000000000000000000000000000000815273ffffffffffffffffffffffffffffffffffffffff858116600483015230602483015282917f00000000000000000000000000000000000000000000000000000000000000009091169063dd62ed3e9060440160206040518083038186803b1580156109f557600080fd5b505afa158015610a09573d6000803e3d6000fd5b505050506040513d601f19601f82011682018060405250810190610a2d91906114d3565b1015610a95576040517f08c379a000000000000000000000000000000000000000000000000000000000815260206004820152601660248201527f496e73756666696369656e7420616c6c6f77616e63650000000000000000000060448201526064016102ad565b6040517f23b872dd00000000000000000000000000000000000000000000000000000000815273ffffffffffffffffffffffffffffffffffffffff8581166004830152306024830152604482018390527f000000000000000000000000000000000000000000000000000000000000000016906323b872dd90606401602060405180830381600087803b158015610b2b57600080fd5b505af1158015610b3f573d6000803e3d6000fd5b505050506040513d601f19601f82011682018060405250810190610b6391906114b1565b506040517f2e1a7d4d000000000000000000000000000000000000000000000000000000008152600481018290527f000000000000000000000000000000000000000000000000000000000000000073ffffffffffffffffffffffffffffffffffffffff1690632e1a7d4d90602401600060405180830381600087803b158015610bec57600080fd5b505af1158015610c00573d6000803e3d6000fd5b50505073ffffffffffffffffffffffffffffffffffffffff808716600090815260026020908152604080832093881683529290522054610c419150826113f2565b505b73ffffffffffffffffffffffffffffffffffffffff808616600090815260026020908152604080832093871683529290522054610c8090346113f2565b5050610f8f565b6040517f70a0823100000000000000000000000000000000000000000000000000000000815273ffffffffffffffffffffffffffffffffffffffff84811660048301528291908416906370a082319060240160206040518083038186803b158015610cf157600080fd5b505afa158015610d05573d6000803e3d6000fd5b505050506040513d601f19601f82011682018060405250810190610d2991906114d3565b1015610d91576040517f08c379a000000000000000000000000000000000000000000000000000000000815260206004820152601a60248201527f496e73756666696369656e7420746f6b656e2062616c616e636500000000000060448201526064016102ad565b6040517fdd62ed3e00000000000000000000000000000000000000000000000000000000815273ffffffffffffffffffffffffffffffffffffffff848116600483015230602483015282919084169063dd62ed3e9060440160206040518083038186803b158015610e0157600080fd5b505afa158015610e15573d6000803e3d6000fd5b505050506040513d601f19601f82011682018060405250810190610e3991906114d3565b1015610ea1576040517f08c379a000000000000000000000000000000000000000000000000000000000815260206004820152601c60248201527f496e73756666696369656e7420746f6b656e20616c6c6f77616e63650000000060448201526064016102ad565b6040517f23b872dd00000000000000000000000000000000000000000000000000000000815273ffffffffffffffffffffffffffffffffffffffff8481166004830152306024830152604482018390528316906323b872dd90606401602060405180830381600087803b158015610f1757600080fd5b505af1158015610f2b573d6000803e3d6000fd5b505050506040513d601f19601f82011682018060405250810190610f4f91906114b1565b5073ffffffffffffffffffffffffffffffffffffffff808516600090815260026020908152604080832093861683529290522054610f8d90826113f2565b505b50505050565b73ffffffffffffffffffffffffffffffffffffffff831615801590610fd0575073ffffffffffffffffffffffffffffffffffffffff83163014155b611036576040517f08c379a000000000000000000000000000000000000000000000000000000000815260206004820152600f60248201527f496e76616c69642061646472657373000000000000000000000000000000000060448201526064016102ad565b600081116110a0576040517f08c379a000000000000000000000000000000000000000000000000000000000815260206004820152600e60248201527f496e76616c696420616d6f756e7400000000000000000000000000000000000060448201526064016102ad565b73ffffffffffffffffffffffffffffffffffffffff808516600090815260026020908152604080832093861683529290522054811115611162576040517f08c379a000000000000000000000000000000000000000000000000000000000815260206004820152603060248201527f496e73756666696369656e74206465706f73697465642062616c616e6365206660448201527f6f722074686973206578656375746f720000000000000000000000000000000060648201526084016102ad565b73ffffffffffffffffffffffffffffffffffffffff821661123057804710156111e7576040517f08c379a000000000000000000000000000000000000000000000000000000000815260206004820152600d60248201527f4c61636b206f662066756e64730000000000000000000000000000000000000060448201526064016102ad565b60405173ffffffffffffffffffffffffffffffffffffffff84169082156108fc029083906000818181858888f1935050505015801561122a573d6000803e3d6000fd5b50610f8f565b6040517f70a08231000000000000000000000000000000000000000000000000000000008152306004820152819073ffffffffffffffffffffffffffffffffffffffff8416906370a082319060240160206040518083038186803b15801561129757600080fd5b505afa1580156112ab573d6000803e3d6000fd5b505050506040513d601f19601f820116820180604052508101906112cf91906114d3565b1015611337576040517f08c379a000000000000000000000000000000000000000000000000000000000815260206004820152600d60248201527f4c61636b206f6620746f6b656e0000000000000000000000000000000000000060448201526064016102ad565b6040517fa9059cbb00000000000000000000000000000000000000000000000000000000815273ffffffffffffffffffffffffffffffffffffffff84811660048301526024820183905283169063a9059cbb90604401602060405180830381600087803b1580156113a757600080fd5b505af11580156113bb573d6000803e3d6000fd5b505050506040513d601f19601f82011682018060405250810190610f8d91906114b1565b60006113eb8284611504565b9392505050565b60006113eb82846114ec565b803573ffffffffffffffffffffffffffffffffffffffff8116811461142257600080fd5b919050565b60006020828403121561143957600080fd5b6113eb826113fe565b6000806040838503121561145557600080fd5b61145e836113fe565b915061146c602084016113fe565b90509250929050565b60008060006060848603121561148a57600080fd5b611493846113fe565b92506114a1602085016113fe565b9150604084013590509250925092565b6000602082840312156114c357600080fd5b815180151581146113eb57600080fd5b6000602082840312156114e557600080fd5b5051919050565b600082198211156114ff576114ff61151b565b500190565b6000828210156115165761151661151b565b500390565b7f4e487b7100000000000000000000000000000000000000000000000000000000600052601160045260246000fdfea2646970667358221220e773b429543af91e3e1e65140e07c78766ec70fcdca863a5cfc109760d4d520064736f6c63430008060033",
  "devdoc": {
    "kind": "dev",
    "methods": {
      "constructor": {
        "params": {
          "_executor": "executor address"
        }
      },
      "owner()": {
        "details": "Returns the address of the current owner."
      },
      "renounceOwnership()": {
        "details": "Leaves the contract without owner. It will not be possible to call `onlyOwner` functions anymore. Can only be called by the current owner. NOTE: Renouncing ownership will leave the contract without an owner, thereby removing any functionality that is only available to the owner."
      },
      "transferOwnership(address)": {
        "details": "Transfers ownership of the contract to a new account (`newOwner`). Can only be called by the current owner."
      }
    },
    "version": 1
  },
  "userdoc": {
    "kind": "user",
    "methods": {
      "constructor": {
        "notice": "Constructor"
      },
      "setExecutor(address)": {
        "notice": "set operator"
      }
    },
    "version": 1
  },
  "storageLayout": {
    "storage": [
      {
        "astId": 917,
        "contract": "contracts/ProxyTokenStation.sol:ProxyTokenStation",
        "label": "_owner",
        "offset": 0,
        "slot": "0",
        "type": "t_address"
      },
      {
        "astId": 8639,
        "contract": "contracts/ProxyTokenStation.sol:ProxyTokenStation",
        "label": "executors",
        "offset": 0,
        "slot": "1",
        "type": "t_mapping(t_address,t_bool)"
      },
      {
        "astId": 8645,
        "contract": "contracts/ProxyTokenStation.sol:ProxyTokenStation",
        "label": "deposits",
        "offset": 0,
        "slot": "2",
        "type": "t_mapping(t_address,t_mapping(t_address,t_uint256))"
      }
    ],
    "types": {
      "t_address": {
        "encoding": "inplace",
        "label": "address",
        "numberOfBytes": "20"
      },
      "t_bool": {
        "encoding": "inplace",
        "label": "bool",
        "numberOfBytes": "1"
      },
      "t_mapping(t_address,t_bool)": {
        "encoding": "mapping",
        "key": "t_address",
        "label": "mapping(address => bool)",
        "numberOfBytes": "32",
        "value": "t_bool"
      },
      "t_mapping(t_address,t_mapping(t_address,t_uint256))": {
        "encoding": "mapping",
        "key": "t_address",
        "label": "mapping(address => mapping(address => uint256))",
        "numberOfBytes": "32",
        "value": "t_mapping(t_address,t_uint256)"
      },
      "t_mapping(t_address,t_uint256)": {
        "encoding": "mapping",
        "key": "t_address",
        "label": "mapping(address => uint256)",
        "numberOfBytes": "32",
        "value": "t_uint256"
      },
      "t_uint256": {
        "encoding": "inplace",
        "label": "uint256",
        "numberOfBytes": "32"
      }
    }
  }
}