{
  "address": "0x13907CfB8C44e1bAd3ff4aAB299917aD36fB8759",
  "abi": [
    {
      "inputs": [
        {
          "internalType": "uint256",
          "name": "taskId",
          "type": "uint256"
        },
        {
          "internalType": "uint256",
          "name": "count",
          "type": "uint256"
        },
        {
          "internalType": "uint256",
          "name": "num",
          "type": "uint256"
        },
        {
          "internalType": "address",
          "name": "buyer",
          "type": "address"
        }
      ],
      "name": "addTicket",
      "outputs": [],
      "stateMutability": "nonpayable",
      "type": "function"
    },
    {
      "inputs": [
        {
          "internalType": "uint256",
          "name": "taskId",
          "type": "uint256"
        },
        {
          "internalType": "uint256",
          "name": "count",
          "type": "uint256"
        },
        {
          "internalType": "uint256",
          "name": "num",
          "type": "uint256"
        },
        {
          "internalType": "address",
          "name": "buyer",
          "type": "address"
        }
      ],
      "name": "addTicket2",
      "outputs": [],
      "stateMutability": "nonpayable",
      "type": "function"
    },
    {
      "inputs": [
        {
          "internalType": "uint256",
          "name": "taskId",
          "type": "uint256"
        },
        {
          "internalType": "uint256",
          "name": "number",
          "type": "uint256"
        }
      ],
      "name": "findWinnerTicket",
      "outputs": [
        {
          "components": [
            {
              "internalType": "uint256",
              "name": "number",
              "type": "uint256"
            },
            {
              "internalType": "uint256",
              "name": "count",
              "type": "uint256"
            },
            {
              "internalType": "address",
              "name": "owner",
              "type": "address"
            }
          ],
          "internalType": "struct TestTicket.Ticket",
          "name": "",
          "type": "tuple"
        }
      ],
      "stateMutability": "nonpayable",
      "type": "function"
    },
    {
      "inputs": [
        {
          "internalType": "uint256",
          "name": "taskId",
          "type": "uint256"
        },
        {
          "internalType": "uint256",
          "name": "number",
          "type": "uint256"
        }
      ],
      "name": "findWinnerTicket2",
      "outputs": [
        {
          "components": [
            {
              "internalType": "uint256",
              "name": "number",
              "type": "uint256"
            },
            {
              "internalType": "uint256",
              "name": "count",
              "type": "uint256"
            },
            {
              "internalType": "address",
              "name": "owner",
              "type": "address"
            }
          ],
          "internalType": "struct TestTicket.Ticket",
          "name": "",
          "type": "tuple"
        }
      ],
      "stateMutability": "nonpayable",
      "type": "function"
    },
    {
      "inputs": [
        {
          "internalType": "uint256",
          "name": "",
          "type": "uint256"
        }
      ],
      "name": "lastTIDs",
      "outputs": [
        {
          "internalType": "uint256",
          "name": "",
          "type": "uint256"
        }
      ],
      "stateMutability": "view",
      "type": "function"
    },
    {
      "inputs": [
        {
          "internalType": "uint256",
          "name": "count",
          "type": "uint256"
        }
      ],
      "name": "testFind",
      "outputs": [
        {
          "internalType": "uint256",
          "name": "",
          "type": "uint256"
        }
      ],
      "stateMutability": "pure",
      "type": "function"
    },
    {
      "inputs": [
        {
          "internalType": "uint256",
          "name": "count",
          "type": "uint256"
        }
      ],
      "name": "testFind2",
      "outputs": [
        {
          "internalType": "uint256",
          "name": "",
          "type": "uint256"
        }
      ],
      "stateMutability": "pure",
      "type": "function"
    },
    {
      "inputs": [
        {
          "internalType": "uint256",
          "name": "",
          "type": "uint256"
        },
        {
          "internalType": "uint256",
          "name": "",
          "type": "uint256"
        }
      ],
      "name": "ticketIds",
      "outputs": [
        {
          "internalType": "uint256",
          "name": "",
          "type": "uint256"
        }
      ],
      "stateMutability": "view",
      "type": "function"
    },
    {
      "inputs": [
        {
          "internalType": "uint256",
          "name": "",
          "type": "uint256"
        },
        {
          "internalType": "uint256",
          "name": "",
          "type": "uint256"
        }
      ],
      "name": "tickets",
      "outputs": [
        {
          "internalType": "uint256",
          "name": "number",
          "type": "uint256"
        },
        {
          "internalType": "uint256",
          "name": "count",
          "type": "uint256"
        },
        {
          "internalType": "address",
          "name": "owner",
          "type": "address"
        }
      ],
      "stateMutability": "view",
      "type": "function"
    },
    {
      "inputs": [
        {
          "internalType": "address",
          "name": "",
          "type": "address"
        },
        {
          "internalType": "uint256",
          "name": "",
          "type": "uint256"
        }
      ],
      "name": "userTickets",
      "outputs": [
        {
          "internalType": "uint256",
          "name": "",
          "type": "uint256"
        }
      ],
      "stateMutability": "view",
      "type": "function"
    }
  ],
  "transactionHash": "0x6f7e2742eeca1a3cfcbc5f9ed9e264c9e8906eb6d492845bf60d9a0458426e23",
  "args": [],
  "numDeployments": 1,
  "solcInputHash": "1a9c64e66e0f1071b3b5090c79ef260f",
  "bytecode": "0x608060405234801561001057600080fd5b5061120a806100206000396000f3fe608060405234801561001057600080fd5b50600436106100be5760003560e01c806378df3a5211610076578063a374e43f1161005b578063a374e43f146101a2578063cf260baf1461021f578063f661b2411461024a57600080fd5b806378df3a521461017c57806382ef95311461018f57600080fd5b80631523323e116100a75780631523323e1461010b57806315d7b156146101565780631ae1420c1461016957600080fd5b80630828f88d146100c35780630b3b4718146100f6575b600080fd5b6100e36100d1366004611059565b60046020526000908152604090205481565b6040519081526020015b60405180910390f35b610109610104366004611094565b61025d565b005b61011e610119366004611072565b61028d565b6040805182518152602080840151908201529181015173ffffffffffffffffffffffffffffffffffffffff16908201526060016100ed565b610109610164366004611094565b610398565b6100e3610177366004611059565b6103c1565b6100e361018a366004611072565b6103ea565b6100e361019d366004611059565b61041b565b6101ee6101b0366004611072565b6001602081815260009384526040808520909152918352912080549181015460029091015473ffffffffffffffffffffffffffffffffffffffff1683565b60408051938452602084019290925273ffffffffffffffffffffffffffffffffffffffff16908201526060016100ed565b6100e361022d36600461102f565b600360209081526000928352604080842090915290825290205481565b61011e610258366004611072565b610440565b60005b83811015610286576102738584846104e9565b508061027e8161113d565b915050610260565b5050505050565b6102c760405180606001604052806000815260200160008152602001600073ffffffffffffffffffffffffffffffffffffffff1681525090565b60008381526001602081815260408084208685528252928390208351606081018552815480825293820154928101929092526002015473ffffffffffffffffffffffffffffffffffffffff169281019290925261038f57600084815260208190526040812061033690856105d0565b600086815260016020818152604080842094845293815291839020835160608101855281548152918101549282019290925260029091015473ffffffffffffffffffffffffffffffffffffffff16918101919091529150505b90505b92915050565b60005b83811015610286576103ae858484610656565b50806103b98161113d565b91505061039b565b600080805b838110156103e357905080806103db8161113d565b9150506103c6565b5092915050565b6002602052816000526040600020818154811061040657600080fd5b90600052602060002001600091509150505481565b6000805b8281101561043957806104318161113d565b91505061041f565b5090919050565b61047a60405180606001604052806000815260200160008152602001600073ffffffffffffffffffffffffffffffffffffffff1681525090565b60008381526001602081815260408084208685528252928390208351606081018552815480825293820154928101929092526002015473ffffffffffffffffffffffffffffffffffffffff169281019290925261038f576000848152600260205260408120610336908561076c565b60008381526004602052604081205481906105059060016110d3565b90506000600161051586846110d3565b61051f9190611126565b60408051606081018252828152602080820189815273ffffffffffffffffffffffffffffffffffffffff89811684860190815260008d8152600180865287822089835286528782209651875593519386019390935551600290940180547fffffffffffffffffffffffff000000000000000000000000000000000000000016949091169390931790925589825260048152828220849055819052209091506105c7908261082f565b95945050505050565b815460009080156103e3578083101561061f578091506105f08482610966565b90505b811580159061060157508281115b1561061a578091506106138482610966565b90506105f3565b6103e3565b6106298482610a03565b90508091505b811580159061063d57508281105b156103e35761064c8482610a03565b905080915061062f565b60008381526004602052604081205481906106729060016110d3565b90506000600161068286846110d3565b61068c9190611126565b60408051606081018252828152602080820189815273ffffffffffffffffffffffffffffffffffffffff89811684860181815260008e815260018087528882208a83528752888220975188559451878601559051600296870180547fffffffffffffffffffffffff00000000000000000000000000000000000000001691909416179092558c825260048452858220879055938352848120805492830181558152828120909101859055918252600381528282208a835290529081208054929350879290919061075d9084906110d3565b90915550909695505050505050565b815460009061077d57506000610392565b82546000905b808210156107d95760006107978383610a99565b9050848682815481106107ac576107ac6111a5565b906000526020600020015411156107c5578091506107d3565b6107d08160016110d3565b92505b50610783565b60008211801561080e575083856107f1600185611126565b81548110610801576108016111a5565b9060005260206000200154145b156108275761081e600183611126565b92505050610392565b509050610392565b8061083957600080fd5b6108438282610ab4565b1561084d57600080fd5b81546000905b8015610896578091508083101561087d576000908152600180850160205260409091200154610853565b6000908152600184016020526040902060020154610853565b60408051608081018252838152600060208083018281528385018381526001606086018181528a86528b8201909452959093209351845551938301939093555160028201559051600390910180547fffffffffffffffffffffffffffffffffffffffffffffffffffffffffffffff00169115159190911790558161091c57828455610956565b8183101561093f5760008281526001808601602052604090912001839055610956565b600082815260018501602052604090206002018390555b6109608484610ae3565b50505050565b60008161097257600080fd5b6000828152600180850160205260409091200154156109b15760008281526001808501602052604090912001546109aa908490610de4565b9050610392565b5060008181526001830160205260409020545b80158015906109e55750600081815260018085016020526040909120015482145b156103925760008181526001840160205260409020549091506109c4565b600081610a0f57600080fd5b600082815260018401602052604090206002015415610a475760008281526001840160205260409020600201546109aa908490610e21565b5060008181526001830160205260409020545b8015801590610a7b5750600081815260018401602052604090206002015482145b15610392576000818152600184016020526040902054909150610a5a565b6000610aa860028484186110eb565b61038f908484166110d3565b6000811580159061038f5750825482148061038f57505060009081526001919091016020526040902054151590565b60005b82548214801590610b105750600082815260018401602052604080822054825290206003015460ff165b15610da4576000828152600180850160205260408083205480845281842054845292200154811415610c6f5760008181526001850160205260408082205482528082206002015480835291206003015490925060ff1615610bd757600081815260018086016020526040808320600380820180547fffffffffffffffffffffffffffffffffffffffffffffffffffffffffffffff00908116909155878652838620820180548216905582548652928520018054909216909217905590829052549250610d9e565b6000818152600185016020526040902060020154831415610bff57809250610bff8484610e59565b5060008281526001808501602052604080832054808452818420600380820180547fffffffffffffffffffffffffffffffffffffffffffffffffffffffffffffff00908116909155825487529386200180549093169093179091559182905254610c6a908590610f31565b610d9e565b6000818152600180860160205260408083205483528083209091015480835291206003015490925060ff1615610d0b57600081815260018086016020526040808320600380820180547fffffffffffffffffffffffffffffffffffffffffffffffffffffffffffffff00908116909155878652838620820180548216905582548652928520018054909216909217905590829052549250610d9e565b6000818152600180860160205260409091200154831415610d3357809250610d338484610f31565b5060008281526001808501602052604080832054808452818420600380820180547fffffffffffffffffffffffffffffffffffffffffffffffffffffffffffffff00908116909155825487529386200180549093169093179091559182905254610d9e908590610e59565b50610ae6565b50508054600090815260019091016020526040902060030180547fffffffffffffffffffffffffffffffffffffffffffffffffffffffffffffff00169055565b60005b600082815260018401602052604090206002015415610e1b5760009182526001830160205260409091206002015490610de7565b50919050565b60005b600082815260018085016020526040909120015415610e1b576000918252600180840160205260409092209091015490610e24565b600081815260018084016020526040808320600281018054915482865292852090930154938590529183905590918015610ea157600081815260018601602052604090208490555b6000838152600186016020526040902082905581610ec157828555610f0e565b6000828152600180870160205260409091200154841415610ef75760008281526001808701602052604090912001839055610f0e565b600082815260018601602052604090206002018390555b505060008181526001938401602052604080822090940183905591825291902055565b60008181526001808401602052604080832091820180549254838552918420600201549385905283905590918015610f7757600081815260018601602052604090208490555b6000838152600186016020526040902082905581610f9757828555610fe4565b6000828152600186016020526040902060020154841415610fcd5760008281526001860160205260409020600201839055610fe4565b600082815260018087016020526040909120018390555b5050600081815260019093016020526040808420600201839055918352912055565b803573ffffffffffffffffffffffffffffffffffffffff8116811461102a57600080fd5b919050565b6000806040838503121561104257600080fd5b61104b83611006565b946020939093013593505050565b60006020828403121561106b57600080fd5b5035919050565b6000806040838503121561108557600080fd5b50508035926020909101359150565b600080600080608085870312156110aa57600080fd5b8435935060208501359250604085013591506110c860608601611006565b905092959194509250565b600082198211156110e6576110e6611176565b500190565b600082611121577f4e487b7100000000000000000000000000000000000000000000000000000000600052601260045260246000fd5b500490565b60008282101561113857611138611176565b500390565b60007fffffffffffffffffffffffffffffffffffffffffffffffffffffffffffffffff82141561116f5761116f611176565b5060010190565b7f4e487b7100000000000000000000000000000000000000000000000000000000600052601160045260246000fd5b7f4e487b7100000000000000000000000000000000000000000000000000000000600052603260045260246000fdfea2646970667358221220b4360f43103f6a7be530725d231112b18e1be61f625f21d4f6868614f3a1024d64736f6c63430008060033",
  "devdoc": {
    "kind": "dev",
    "methods": {
      "findWinnerTicket(uint256,uint256)": {
        "params": {
          "number": "final number",
          "taskId": "task id"
        }
      }
    },
    "version": 1
  },
  "userdoc": {
    "kind": "user",
    "methods": {
      "findWinnerTicket(uint256,uint256)": {
        "notice": "search a winner ticket by number"
      }
    },
    "version": 1
  },
  "storageLayout": {
    "storage": [
      {
        "astId": 8945,
        "contract": "contracts/TestTicket.sol:TestTicket",
        "label": "trees",
        "offset": 0,
        "slot": "0",
        "type": "t_mapping(t_uint256,t_struct(Tree)10695_storage)"
      },
      {
        "astId": 8952,
        "contract": "contracts/TestTicket.sol:TestTicket",
        "label": "tickets",
        "offset": 0,
        "slot": "1",
        "type": "t_mapping(t_uint256,t_mapping(t_uint256,t_struct(Ticket)8936_storage))"
      },
      {
        "astId": 8957,
        "contract": "contracts/TestTicket.sol:TestTicket",
        "label": "ticketIds",
        "offset": 0,
        "slot": "2",
        "type": "t_mapping(t_uint256,t_array(t_uint256)dyn_storage)"
      },
      {
        "astId": 8963,
        "contract": "contracts/TestTicket.sol:TestTicket",
        "label": "userTickets",
        "offset": 0,
        "slot": "3",
        "type": "t_mapping(t_address,t_mapping(t_uint256,t_uint256))"
      },
      {
        "astId": 8967,
        "contract": "contracts/TestTicket.sol:TestTicket",
        "label": "lastTIDs",
        "offset": 0,
        "slot": "4",
        "type": "t_mapping(t_uint256,t_uint256)"
      }
    ],
    "types": {
      "t_address": {
        "encoding": "inplace",
        "label": "address",
        "numberOfBytes": "20"
      },
      "t_array(t_uint256)dyn_storage": {
        "base": "t_uint256",
        "encoding": "dynamic_array",
        "label": "uint256[]",
        "numberOfBytes": "32"
      },
      "t_bool": {
        "encoding": "inplace",
        "label": "bool",
        "numberOfBytes": "1"
      },
      "t_mapping(t_address,t_mapping(t_uint256,t_uint256))": {
        "encoding": "mapping",
        "key": "t_address",
        "label": "mapping(address => mapping(uint256 => uint256))",
        "numberOfBytes": "32",
        "value": "t_mapping(t_uint256,t_uint256)"
      },
      "t_mapping(t_uint256,t_array(t_uint256)dyn_storage)": {
        "encoding": "mapping",
        "key": "t_uint256",
        "label": "mapping(uint256 => uint256[])",
        "numberOfBytes": "32",
        "value": "t_array(t_uint256)dyn_storage"
      },
      "t_mapping(t_uint256,t_mapping(t_uint256,t_struct(Ticket)8936_storage))": {
        "encoding": "mapping",
        "key": "t_uint256",
        "label": "mapping(uint256 => mapping(uint256 => struct TestTicket.Ticket))",
        "numberOfBytes": "32",
        "value": "t_mapping(t_uint256,t_struct(Ticket)8936_storage)"
      },
      "t_mapping(t_uint256,t_struct(Node)10687_storage)": {
        "encoding": "mapping",
        "key": "t_uint256",
        "label": "mapping(uint256 => struct RedBlackTreeLibrary.Node)",
        "numberOfBytes": "32",
        "value": "t_struct(Node)10687_storage"
      },
      "t_mapping(t_uint256,t_struct(Ticket)8936_storage)": {
        "encoding": "mapping",
        "key": "t_uint256",
        "label": "mapping(uint256 => struct TestTicket.Ticket)",
        "numberOfBytes": "32",
        "value": "t_struct(Ticket)8936_storage"
      },
      "t_mapping(t_uint256,t_struct(Tree)10695_storage)": {
        "encoding": "mapping",
        "key": "t_uint256",
        "label": "mapping(uint256 => struct RedBlackTreeLibrary.Tree)",
        "numberOfBytes": "32",
        "value": "t_struct(Tree)10695_storage"
      },
      "t_mapping(t_uint256,t_uint256)": {
        "encoding": "mapping",
        "key": "t_uint256",
        "label": "mapping(uint256 => uint256)",
        "numberOfBytes": "32",
        "value": "t_uint256"
      },
      "t_struct(Node)10687_storage": {
        "encoding": "inplace",
        "label": "struct RedBlackTreeLibrary.Node",
        "members": [
          {
            "astId": 10680,
            "contract": "contracts/TestTicket.sol:TestTicket",
            "label": "parent",
            "offset": 0,
            "slot": "0",
            "type": "t_uint256"
          },
          {
            "astId": 10682,
            "contract": "contracts/TestTicket.sol:TestTicket",
            "label": "left",
            "offset": 0,
            "slot": "1",
            "type": "t_uint256"
          },
          {
            "astId": 10684,
            "contract": "contracts/TestTicket.sol:TestTicket",
            "label": "right",
            "offset": 0,
            "slot": "2",
            "type": "t_uint256"
          },
          {
            "astId": 10686,
            "contract": "contracts/TestTicket.sol:TestTicket",
            "label": "red",
            "offset": 0,
            "slot": "3",
            "type": "t_bool"
          }
        ],
        "numberOfBytes": "128"
      },
      "t_struct(Ticket)8936_storage": {
        "encoding": "inplace",
        "label": "struct TestTicket.Ticket",
        "members": [
          {
            "astId": 8931,
            "contract": "contracts/TestTicket.sol:TestTicket",
            "label": "number",
            "offset": 0,
            "slot": "0",
            "type": "t_uint256"
          },
          {
            "astId": 8933,
            "contract": "contracts/TestTicket.sol:TestTicket",
            "label": "count",
            "offset": 0,
            "slot": "1",
            "type": "t_uint256"
          },
          {
            "astId": 8935,
            "contract": "contracts/TestTicket.sol:TestTicket",
            "label": "owner",
            "offset": 0,
            "slot": "2",
            "type": "t_address"
          }
        ],
        "numberOfBytes": "96"
      },
      "t_struct(Tree)10695_storage": {
        "encoding": "inplace",
        "label": "struct RedBlackTreeLibrary.Tree",
        "members": [
          {
            "astId": 10689,
            "contract": "contracts/TestTicket.sol:TestTicket",
            "label": "root",
            "offset": 0,
            "slot": "0",
            "type": "t_uint256"
          },
          {
            "astId": 10694,
            "contract": "contracts/TestTicket.sol:TestTicket",
            "label": "nodes",
            "offset": 0,
            "slot": "1",
            "type": "t_mapping(t_uint256,t_struct(Node)10687_storage)"
          }
        ],
        "numberOfBytes": "64"
      },
      "t_uint256": {
        "encoding": "inplace",
        "label": "uint256",
        "numberOfBytes": "32"
      }
    }
  }
}