{
  "address": "0xD68fF8785514c31A2fb5E6396F8682A4a8574fA2",
  "abi": [
    {
      "inputs": [
        {
          "internalType": "uint256",
          "name": "prod1",
          "type": "uint256"
        },
        {
          "internalType": "uint256",
          "name": "denominator",
          "type": "uint256"
        }
      ],
      "name": "PRBMath__MulDivOverflow",
      "type": "error"
    },
    {
      "inputs": [],
      "name": "PRICE_FEED_NOT_FOUND",
      "type": "error"
    },
    {
      "anonymous": false,
      "inputs": [
        {
          "indexed": false,
          "internalType": "string",
          "name": "currency",
          "type": "string"
        },
        {
          "indexed": false,
          "internalType": "string",
          "name": "token",
          "type": "string"
        },
        {
          "indexed": false,
          "internalType": "uint256",
          "name": "decimals",
          "type": "uint256"
        },
        {
          "indexed": false,
          "internalType": "contract AggregatorV3Interface",
          "name": "feed",
          "type": "address"
        }
      ],
      "name": "AddFeed",
      "type": "event"
    },
    {
      "anonymous": false,
      "inputs": [
        {
          "indexed": true,
          "internalType": "address",
          "name": "previousOwner",
          "type": "address"
        },
        {
          "indexed": true,
          "internalType": "address",
          "name": "newOwner",
          "type": "address"
        }
      ],
      "name": "OwnershipTransferred",
      "type": "event"
    },
    {
      "inputs": [
        {
          "internalType": "string",
          "name": "currency",
          "type": "string"
        },
        {
          "internalType": "string",
          "name": "token",
          "type": "string"
        },
        {
          "internalType": "uint256",
          "name": "decimals",
          "type": "uint256"
        },
        {
          "internalType": "contract AggregatorV3Interface",
          "name": "priceFeed",
          "type": "address"
        }
      ],
      "name": "addFeed",
      "outputs": [],
      "stateMutability": "nonpayable",
      "type": "function"
    },
    {
      "inputs": [
        {
          "internalType": "string",
          "name": "",
          "type": "string"
        },
        {
          "internalType": "string",
          "name": "",
          "type": "string"
        }
      ],
      "name": "feeders",
      "outputs": [
        {
          "internalType": "uint256",
          "name": "decimals",
          "type": "uint256"
        },
        {
          "internalType": "contract AggregatorV3Interface",
          "name": "feed",
          "type": "address"
        }
      ],
      "stateMutability": "view",
      "type": "function"
    },
    {
      "inputs": [
        {
          "internalType": "string",
          "name": "currency",
          "type": "string"
        },
        {
          "internalType": "string",
          "name": "token",
          "type": "string"
        }
      ],
      "name": "getFeed",
      "outputs": [
        {
          "components": [
            {
              "internalType": "uint256",
              "name": "decimals",
              "type": "uint256"
            },
            {
              "internalType": "contract AggregatorV3Interface",
              "name": "feed",
              "type": "address"
            }
          ],
          "internalType": "struct ITokenPrices.TokenFeed",
          "name": "",
          "type": "tuple"
        }
      ],
      "stateMutability": "view",
      "type": "function"
    },
    {
      "inputs": [
        {
          "internalType": "string",
          "name": "currency",
          "type": "string"
        },
        {
          "internalType": "string",
          "name": "token",
          "type": "string"
        }
      ],
      "name": "getPrice",
      "outputs": [
        {
          "internalType": "uint256",
          "name": "",
          "type": "uint256"
        }
      ],
      "stateMutability": "view",
      "type": "function"
    },
    {
      "inputs": [
        {
          "internalType": "string",
          "name": "currency",
          "type": "string"
        },
        {
          "internalType": "string[]",
          "name": "tokens",
          "type": "string[]"
        }
      ],
      "name": "getPrices",
      "outputs": [
        {
          "internalType": "uint256[]",
          "name": "",
          "type": "uint256[]"
        }
      ],
      "stateMutability": "view",
      "type": "function"
    },
    {
      "inputs": [],
      "name": "owner",
      "outputs": [
        {
          "internalType": "address",
          "name": "",
          "type": "address"
        }
      ],
      "stateMutability": "view",
      "type": "function"
    },
    {
      "inputs": [],
      "name": "renounceOwnership",
      "outputs": [],
      "stateMutability": "nonpayable",
      "type": "function"
    },
    {
      "inputs": [
        {
          "internalType": "address",
          "name": "newOwner",
          "type": "address"
        }
      ],
      "name": "transferOwnership",
      "outputs": [],
      "stateMutability": "nonpayable",
      "type": "function"
    }
  ],
  "transactionHash": "0x78bcd486741d83d0a903738e2de9ca0ac270b97419a2598cb45ed637ef07e428",
  "args": [],
  "numDeployments": 1,
  "solcInputHash": "1a9c64e66e0f1071b3b5090c79ef260f",
  "bytecode": "0x608060405234801561001057600080fd5b5061001a3361001f565b61006f565b600080546001600160a01b038381166001600160a01b0319831681178455604051919092169283917f8be0079c531659141344cd1fd0a4f28419497f9722a3daafe3b4186f6b6457e09190a35050565b6112cf8061007e6000396000f3fe608060405234801561001057600080fd5b50600436106100885760003560e01c8063715018a61161005b578063715018a6146101a55780638af09ac1146101af5780638da5cb5b146101c2578063f2fde38b146101ea57600080fd5b80630519e71a1461008d578063119481bf146100d65780632aa09127146101645780633d0f34da14610184575b600080fd5b6100a061009b366004610cf9565b6101fd565b604080518251815260209283015173ffffffffffffffffffffffffffffffffffffffff1692810192909252015b60405180910390f35b61013a6100e4366004610cf9565b8151602081840181018051600180835293830195830195909520949052825180840182018051958152908201939091019290922092909152815491015473ffffffffffffffffffffffffffffffffffffffff1682565b6040805192835273ffffffffffffffffffffffffffffffffffffffff9091166020830152016100cd565b610177610172366004610c0f565b610282565b6040516100cd9190610eb6565b610197610192366004610cf9565b610332565b6040519081526020016100cd565b6101ad61050b565b005b6101ad6101bd366004610d5d565b61059d565b60005460405173ffffffffffffffffffffffffffffffffffffffff90911681526020016100cd565b6101ad6101f8366004610bf2565b610717565b60408051808201909152600080825260208201526001836040516102219190610e9a565b90815260200160405180910390208260405161023d9190610e9a565b9081526040805191829003602090810183208383019092528154835260019091015473ffffffffffffffffffffffffffffffffffffffff169082015290505b92915050565b60606000825167ffffffffffffffff8111156102a0576102a0611248565b6040519080825280602002602001820160405280156102c9578160200160208202803683370190505b50905060005b835181101561032a576102fb858583815181106102ee576102ee611219565b6020026020010151610332565b82828151811061030d5761030d611219565b60209081029190910101528061032281611182565b9150506102cf565b509392505050565b6000806001846040516103459190610e9a565b9081526020016040518091039020836040516103619190610e9a565b90815260408051602092819003830181208183018352805482526001015473ffffffffffffffffffffffffffffffffffffffff168382015290519092506103aa91859101610e9a565b60405160208183030381529060405280519060200120846040516020016103d19190610e9a565b6040516020818303038152906040528051906020012014156104025780516103fa90600a611038565b91505061027c565b602081015173ffffffffffffffffffffffffffffffffffffffff1615610434576103fa81602001518260000151610847565b6001836040516104449190610e9a565b9081526020016040518091039020846040516104609190610e9a565b90815260408051602092819003830181208183019092528154815260019091015473ffffffffffffffffffffffffffffffffffffffff169181018290529150156104d95780516103fa906104b590600a611038565b82516104c290600a611038565b6104d484602001518560000151610847565b610967565b6040517f75c9d5ca00000000000000000000000000000000000000000000000000000000815260040160405180910390fd5b60005473ffffffffffffffffffffffffffffffffffffffff163314610591576040517f08c379a000000000000000000000000000000000000000000000000000000000815260206004820181905260248201527f4f776e61626c653a2063616c6c6572206973206e6f7420746865206f776e657260448201526064015b60405180910390fd5b61059b6000610a72565b565b60005473ffffffffffffffffffffffffffffffffffffffff16331461061e576040517f08c379a000000000000000000000000000000000000000000000000000000000815260206004820181905260248201527f4f776e61626c653a2063616c6c6572206973206e6f7420746865206f776e65726044820152606401610588565b60405180604001604052808381526020018273ffffffffffffffffffffffffffffffffffffffff168152506001856040516106599190610e9a565b9081526020016040518091039020846040516106759190610e9a565b90815260405160209181900382018120835181559290910151600190920180547fffffffffffffffffffffffff00000000000000000000000000000000000000001673ffffffffffffffffffffffffffffffffffffffff909316929092179091557f0157bfb6caece191dc6671d061c1b1cca6bb8a9db17a047a6ce8ed7f141f479c90610709908690869086908690610efa565b60405180910390a150505050565b60005473ffffffffffffffffffffffffffffffffffffffff163314610798576040517f08c379a000000000000000000000000000000000000000000000000000000000815260206004820181905260248201527f4f776e61626c653a2063616c6c6572206973206e6f7420746865206f776e65726044820152606401610588565b73ffffffffffffffffffffffffffffffffffffffff811661083b576040517f08c379a000000000000000000000000000000000000000000000000000000000815260206004820152602660248201527f4f776e61626c653a206e6577206f776e657220697320746865207a65726f206160448201527f64647265737300000000000000000000000000000000000000000000000000006064820152608401610588565b61084481610a72565b50565b6000808373ffffffffffffffffffffffffffffffffffffffff1663feaf968c6040518163ffffffff1660e01b815260040160a06040518083038186803b15801561089057600080fd5b505afa1580156108a4573d6000803e3d6000fd5b505050506040513d601f19601f820116820180604052508101906108c89190610ddd565b50505091505060008473ffffffffffffffffffffffffffffffffffffffff1663313ce5676040518163ffffffff1660e01b815260040160206040518083038186803b15801561091657600080fd5b505afa15801561092a573d6000803e3d6000fd5b505050506040513d601f19601f8201168201806040525081019061094e9190610e2d565b60ff16905061095e828286610ae7565b95945050505050565b600080807fffffffffffffffffffffffffffffffffffffffffffffffffffffffffffffffff85870985870292508281108382030391505080600014156109c0578382816109b6576109b66111ea565b0492505050610a6b565b838110610a03576040517f773cc18c0000000000000000000000000000000000000000000000000000000081526004810182905260248101859052604401610588565b600084868809851960019081018716968790049682860381900495909211909303600082900391909104909201919091029190911760038402600290811880860282030280860282030280860282030280860282030280860282030280860290910302029150505b9392505050565b6000805473ffffffffffffffffffffffffffffffffffffffff8381167fffffffffffffffffffffffff0000000000000000000000000000000000000000831681178455604051919092169283917f8be0079c531659141344cd1fd0a4f28419497f9722a3daafe3b4186f6b6457e09190a35050565b600082821415610af8575082610a6b565b82821115610b2657610b0a838361113b565b610b1590600a611038565b610b1f90856110fe565b9050610a6b565b610b30828461113b565b610b3b90600a611038565b610b1f9085610f9c565b600082601f830112610b5657600080fd5b813567ffffffffffffffff811115610b7057610b70611248565b610ba160207fffffffffffffffffffffffffffffffffffffffffffffffffffffffffffffffe0601f84011601610f4d565b818152846020838601011115610bb657600080fd5b816020850160208301376000918101602001919091529392505050565b805169ffffffffffffffffffff81168114610bed57600080fd5b919050565b600060208284031215610c0457600080fd5b8135610a6b81611277565b60008060408385031215610c2257600080fd5b823567ffffffffffffffff80821115610c3a57600080fd5b610c4686838701610b45565b9350602091508185013581811115610c5d57600080fd5b8501601f81018713610c6e57600080fd5b803582811115610c8057610c80611248565b8060051b610c8f858201610f4d565b8281528581019084870183860188018c1015610caa57600080fd5b60009350835b85811015610ce757813588811115610cc6578586fd5b610cd48e8b838b0101610b45565b8552509288019290880190600101610cb0565b50989b909a5098505050505050505050565b60008060408385031215610d0c57600080fd5b823567ffffffffffffffff80821115610d2457600080fd5b610d3086838701610b45565b93506020850135915080821115610d4657600080fd5b50610d5385828601610b45565b9150509250929050565b60008060008060808587031215610d7357600080fd5b843567ffffffffffffffff80821115610d8b57600080fd5b610d9788838901610b45565b95506020870135915080821115610dad57600080fd5b50610dba87828801610b45565b935050604085013591506060850135610dd281611277565b939692955090935050565b600080600080600060a08688031215610df557600080fd5b610dfe86610bd3565b9450602086015193506040860151925060608601519150610e2160808701610bd3565b90509295509295909350565b600060208284031215610e3f57600080fd5b815160ff81168114610a6b57600080fd5b60008151808452610e68816020860160208601611152565b601f017fffffffffffffffffffffffffffffffffffffffffffffffffffffffffffffffe0169290920160200192915050565b60008251610eac818460208701611152565b9190910192915050565b6020808252825182820181905260009190848201906040850190845b81811015610eee57835183529284019291840191600101610ed2565b50909695505050505050565b608081526000610f0d6080830187610e50565b8281036020840152610f1f8187610e50565b91505083604083015273ffffffffffffffffffffffffffffffffffffffff8316606083015295945050505050565b604051601f82017fffffffffffffffffffffffffffffffffffffffffffffffffffffffffffffffe016810167ffffffffffffffff81118282101715610f9457610f94611248565b604052919050565b600082610fd2577f4e487b7100000000000000000000000000000000000000000000000000000000600052601260045260246000fd5b500490565b600181815b8085111561103057817fffffffffffffffffffffffffffffffffffffffffffffffffffffffffffffffff04821115611016576110166111bb565b8085161561102357918102915b93841c9390800290610fdc565b509250929050565b6000610a6b838360008261104e5750600161027c565b8161105b5750600061027c565b8160018114611071576002811461107b57611097565b600191505061027c565b60ff84111561108c5761108c6111bb565b50506001821b61027c565b5060208310610133831016604e8410600b84101617156110ba575081810a61027c565b6110c48383610fd7565b807fffffffffffffffffffffffffffffffffffffffffffffffffffffffffffffffff048211156110f6576110f66111bb565b029392505050565b6000817fffffffffffffffffffffffffffffffffffffffffffffffffffffffffffffffff0483118215151615611136576111366111bb565b500290565b60008282101561114d5761114d6111bb565b500390565b60005b8381101561116d578181015183820152602001611155565b8381111561117c576000848401525b50505050565b60007fffffffffffffffffffffffffffffffffffffffffffffffffffffffffffffffff8214156111b4576111b46111bb565b5060010190565b7f4e487b7100000000000000000000000000000000000000000000000000000000600052601160045260246000fd5b7f4e487b7100000000000000000000000000000000000000000000000000000000600052601260045260246000fd5b7f4e487b7100000000000000000000000000000000000000000000000000000000600052603260045260246000fd5b7f4e487b7100000000000000000000000000000000000000000000000000000000600052604160045260246000fd5b73ffffffffffffffffffffffffffffffffffffffff8116811461084457600080fdfea2646970667358221220a1bff4226602c8ae165c310a542c153467697835a81a63fe78887ca08041cdc664736f6c63430008060033",
  "devdoc": {
    "kind": "dev",
    "methods": {
      "owner()": {
        "details": "Returns the address of the current owner."
      },
      "renounceOwnership()": {
        "details": "Leaves the contract without owner. It will not be possible to call `onlyOwner` functions anymore. Can only be called by the current owner. NOTE: Renouncing ownership will leave the contract without an owner, thereby removing any functionality that is only available to the owner."
      },
      "transferOwnership(address)": {
        "details": "Transfers ownership of the contract to a new account (`newOwner`). Can only be called by the current owner."
      }
    },
    "version": 1
  },
  "userdoc": {
    "errors": {
      "PRBMath__MulDivOverflow(uint256,uint256)": [
        {
          "notice": "Emitted when the result overflows uint256."
        }
      ]
    },
    "kind": "user",
    "methods": {},
    "notice": "Manages and normalizes price feeds.",
    "version": 1
  },
  "storageLayout": {
    "storage": [
      {
        "astId": 917,
        "contract": "contracts/TokenPrices.sol:TokenPrices",
        "label": "_owner",
        "offset": 0,
        "slot": "0",
        "type": "t_address"
      },
      {
        "astId": 9310,
        "contract": "contracts/TokenPrices.sol:TokenPrices",
        "label": "feeders",
        "offset": 0,
        "slot": "1",
        "type": "t_mapping(t_string_memory_ptr,t_mapping(t_string_memory_ptr,t_struct(TokenFeed)10602_storage))"
      }
    ],
    "types": {
      "t_address": {
        "encoding": "inplace",
        "label": "address",
        "numberOfBytes": "20"
      },
      "t_contract(AggregatorV3Interface)9629": {
        "encoding": "inplace",
        "label": "contract AggregatorV3Interface",
        "numberOfBytes": "20"
      },
      "t_mapping(t_string_memory_ptr,t_mapping(t_string_memory_ptr,t_struct(TokenFeed)10602_storage))": {
        "encoding": "mapping",
        "key": "t_string_memory_ptr",
        "label": "mapping(string => mapping(string => struct ITokenPrices.TokenFeed))",
        "numberOfBytes": "32",
        "value": "t_mapping(t_string_memory_ptr,t_struct(TokenFeed)10602_storage)"
      },
      "t_mapping(t_string_memory_ptr,t_struct(TokenFeed)10602_storage)": {
        "encoding": "mapping",
        "key": "t_string_memory_ptr",
        "label": "mapping(string => struct ITokenPrices.TokenFeed)",
        "numberOfBytes": "32",
        "value": "t_struct(TokenFeed)10602_storage"
      },
      "t_string_memory_ptr": {
        "encoding": "bytes",
        "label": "string",
        "numberOfBytes": "32"
      },
      "t_struct(TokenFeed)10602_storage": {
        "encoding": "inplace",
        "label": "struct ITokenPrices.TokenFeed",
        "members": [
          {
            "astId": 10598,
            "contract": "contracts/TokenPrices.sol:TokenPrices",
            "label": "decimals",
            "offset": 0,
            "slot": "0",
            "type": "t_uint256"
          },
          {
            "astId": 10601,
            "contract": "contracts/TokenPrices.sol:TokenPrices",
            "label": "feed",
            "offset": 0,
            "slot": "1",
            "type": "t_contract(AggregatorV3Interface)9629"
          }
        ],
        "numberOfBytes": "64"
      },
      "t_uint256": {
        "encoding": "inplace",
        "label": "uint256",
        "numberOfBytes": "32"
      }
    }
  }
}