{
  "address": "0xa5FBD5b44465E626Fe436eFbb7B538BB37e51456",
  "abi": [
    {
      "inputs": [],
      "stateMutability": "nonpayable",
      "type": "constructor"
    },
    {
      "anonymous": false,
      "inputs": [
        {
          "indexed": true,
          "internalType": "address",
          "name": "account",
          "type": "address"
        },
        {
          "indexed": true,
          "internalType": "address",
          "name": "operator",
          "type": "address"
        },
        {
          "indexed": false,
          "internalType": "bool",
          "name": "approved",
          "type": "bool"
        }
      ],
      "name": "ApprovalForAll",
      "type": "event"
    },
    {
      "anonymous": false,
      "inputs": [
        {
          "indexed": true,
          "internalType": "address",
          "name": "operator",
          "type": "address"
        },
        {
          "indexed": true,
          "internalType": "address",
          "name": "from",
          "type": "address"
        },
        {
          "indexed": true,
          "internalType": "address",
          "name": "to",
          "type": "address"
        },
        {
          "indexed": false,
          "internalType": "uint256[]",
          "name": "ids",
          "type": "uint256[]"
        },
        {
          "indexed": false,
          "internalType": "uint256[]",
          "name": "values",
          "type": "uint256[]"
        }
      ],
      "name": "TransferBatch",
      "type": "event"
    },
    {
      "anonymous": false,
      "inputs": [
        {
          "indexed": true,
          "internalType": "address",
          "name": "operator",
          "type": "address"
        },
        {
          "indexed": true,
          "internalType": "address",
          "name": "from",
          "type": "address"
        },
        {
          "indexed": true,
          "internalType": "address",
          "name": "to",
          "type": "address"
        },
        {
          "indexed": false,
          "internalType": "uint256",
          "name": "id",
          "type": "uint256"
        },
        {
          "indexed": false,
          "internalType": "uint256",
          "name": "value",
          "type": "uint256"
        }
      ],
      "name": "TransferSingle",
      "type": "event"
    },
    {
      "anonymous": false,
      "inputs": [
        {
          "indexed": false,
          "internalType": "string",
          "name": "value",
          "type": "string"
        },
        {
          "indexed": true,
          "internalType": "uint256",
          "name": "id",
          "type": "uint256"
        }
      ],
      "name": "URI",
      "type": "event"
    },
    {
      "inputs": [],
      "name": "ADMIN_ROLE",
      "outputs": [
        {
          "internalType": "bytes32",
          "name": "",
          "type": "bytes32"
        }
      ],
      "stateMutability": "view",
      "type": "function"
    },
    {
      "inputs": [],
      "name": "OWNER_ROLE",
      "outputs": [
        {
          "internalType": "bytes32",
          "name": "",
          "type": "bytes32"
        }
      ],
      "stateMutability": "view",
      "type": "function"
    },
    {
      "inputs": [
        {
          "internalType": "address",
          "name": "_address",
          "type": "address"
        }
      ],
      "name": "addAdmin",
      "outputs": [],
      "stateMutability": "nonpayable",
      "type": "function"
    },
    {
      "inputs": [
        {
          "internalType": "address",
          "name": "account",
          "type": "address"
        },
        {
          "internalType": "uint256",
          "name": "id",
          "type": "uint256"
        }
      ],
      "name": "balanceOf",
      "outputs": [
        {
          "internalType": "uint256",
          "name": "",
          "type": "uint256"
        }
      ],
      "stateMutability": "view",
      "type": "function"
    },
    {
      "inputs": [
        {
          "internalType": "address[]",
          "name": "accounts",
          "type": "address[]"
        },
        {
          "internalType": "uint256[]",
          "name": "ids",
          "type": "uint256[]"
        }
      ],
      "name": "balanceOfBatch",
      "outputs": [
        {
          "internalType": "uint256[]",
          "name": "",
          "type": "uint256[]"
        }
      ],
      "stateMutability": "view",
      "type": "function"
    },
    {
      "inputs": [
        {
          "internalType": "uint256",
          "name": "_id",
          "type": "uint256"
        },
        {
          "internalType": "uint256",
          "name": "_amount",
          "type": "uint256"
        }
      ],
      "name": "burn",
      "outputs": [],
      "stateMutability": "nonpayable",
      "type": "function"
    },
    {
      "inputs": [
        {
          "internalType": "uint256[]",
          "name": "_ids",
          "type": "uint256[]"
        },
        {
          "internalType": "uint256[]",
          "name": "_amounts",
          "type": "uint256[]"
        }
      ],
      "name": "burnBatch",
      "outputs": [],
      "stateMutability": "nonpayable",
      "type": "function"
    },
    {
      "inputs": [
        {
          "internalType": "address",
          "name": "_from",
          "type": "address"
        },
        {
          "internalType": "uint256[]",
          "name": "_burnIds",
          "type": "uint256[]"
        },
        {
          "internalType": "uint256[]",
          "name": "_burnAmounts",
          "type": "uint256[]"
        },
        {
          "internalType": "uint256[]",
          "name": "_mintIds",
          "type": "uint256[]"
        },
        {
          "internalType": "uint256[]",
          "name": "_mintAmounts",
          "type": "uint256[]"
        }
      ],
      "name": "burnForMint",
      "outputs": [],
      "stateMutability": "nonpayable",
      "type": "function"
    },
    {
      "inputs": [],
      "name": "contractURI",
      "outputs": [
        {
          "internalType": "string",
          "name": "",
          "type": "string"
        }
      ],
      "stateMutability": "view",
      "type": "function"
    },
    {
      "inputs": [
        {
          "internalType": "address",
          "name": "",
          "type": "address"
        }
      ],
      "name": "isAdmin",
      "outputs": [
        {
          "internalType": "bool",
          "name": "",
          "type": "bool"
        }
      ],
      "stateMutability": "view",
      "type": "function"
    },
    {
      "inputs": [
        {
          "internalType": "address",
          "name": "account",
          "type": "address"
        },
        {
          "internalType": "address",
          "name": "operator",
          "type": "address"
        }
      ],
      "name": "isApprovedForAll",
      "outputs": [
        {
          "internalType": "bool",
          "name": "",
          "type": "bool"
        }
      ],
      "stateMutability": "view",
      "type": "function"
    },
    {
      "inputs": [
        {
          "internalType": "address",
          "name": "_to",
          "type": "address"
        },
        {
          "internalType": "uint256",
          "name": "_id",
          "type": "uint256"
        },
        {
          "internalType": "uint256",
          "name": "_amount",
          "type": "uint256"
        }
      ],
      "name": "mint",
      "outputs": [],
      "stateMutability": "nonpayable",
      "type": "function"
    },
    {
      "inputs": [
        {
          "internalType": "address",
          "name": "_to",
          "type": "address"
        },
        {
          "internalType": "uint256[]",
          "name": "_ids",
          "type": "uint256[]"
        },
        {
          "internalType": "uint256[]",
          "name": "_amounts",
          "type": "uint256[]"
        }
      ],
      "name": "mintBatch",
      "outputs": [],
      "stateMutability": "nonpayable",
      "type": "function"
    },
    {
      "inputs": [],
      "name": "name",
      "outputs": [
        {
          "internalType": "string",
          "name": "",
          "type": "string"
        }
      ],
      "stateMutability": "view",
      "type": "function"
    },
    {
      "inputs": [],
      "name": "owner",
      "outputs": [
        {
          "internalType": "address",
          "name": "",
          "type": "address"
        }
      ],
      "stateMutability": "view",
      "type": "function"
    },
    {
      "inputs": [],
      "name": "royaltyAddress",
      "outputs": [
        {
          "internalType": "address payable",
          "name": "",
          "type": "address"
        }
      ],
      "stateMutability": "view",
      "type": "function"
    },
    {
      "inputs": [
        {
          "internalType": "address",
          "name": "from",
          "type": "address"
        },
        {
          "internalType": "address",
          "name": "to",
          "type": "address"
        },
        {
          "internalType": "uint256[]",
          "name": "ids",
          "type": "uint256[]"
        },
        {
          "internalType": "uint256[]",
          "name": "amounts",
          "type": "uint256[]"
        },
        {
          "internalType": "bytes",
          "name": "data",
          "type": "bytes"
        }
      ],
      "name": "safeBatchTransferFrom",
      "outputs": [],
      "stateMutability": "nonpayable",
      "type": "function"
    },
    {
      "inputs": [
        {
          "internalType": "address",
          "name": "from",
          "type": "address"
        },
        {
          "internalType": "address",
          "name": "to",
          "type": "address"
        },
        {
          "internalType": "uint256",
          "name": "id",
          "type": "uint256"
        },
        {
          "internalType": "uint256",
          "name": "amount",
          "type": "uint256"
        },
        {
          "internalType": "bytes",
          "name": "data",
          "type": "bytes"
        }
      ],
      "name": "safeTransferFrom",
      "outputs": [],
      "stateMutability": "nonpayable",
      "type": "function"
    },
    {
      "inputs": [
        {
          "internalType": "address",
          "name": "operator",
          "type": "address"
        },
        {
          "internalType": "bool",
          "name": "approved",
          "type": "bool"
        }
      ],
      "name": "setApprovalForAll",
      "outputs": [],
      "stateMutability": "nonpayable",
      "type": "function"
    },
    {
      "inputs": [
        {
          "internalType": "uint256",
          "name": "_id",
          "type": "uint256"
        },
        {
          "internalType": "string",
          "name": "_uri",
          "type": "string"
        }
      ],
      "name": "setURI",
      "outputs": [],
      "stateMutability": "nonpayable",
      "type": "function"
    },
    {
      "inputs": [
        {
          "internalType": "bytes4",
          "name": "interfaceId",
          "type": "bytes4"
        }
      ],
      "name": "supportsInterface",
      "outputs": [
        {
          "internalType": "bool",
          "name": "",
          "type": "bool"
        }
      ],
      "stateMutability": "view",
      "type": "function"
    },
    {
      "inputs": [],
      "name": "symbol",
      "outputs": [
        {
          "internalType": "string",
          "name": "",
          "type": "string"
        }
      ],
      "stateMutability": "view",
      "type": "function"
    },
    {
      "inputs": [
        {
          "internalType": "uint256",
          "name": "",
          "type": "uint256"
        }
      ],
      "name": "tokenURI",
      "outputs": [
        {
          "internalType": "string",
          "name": "",
          "type": "string"
        }
      ],
      "stateMutability": "view",
      "type": "function"
    },
    {
      "inputs": [
        {
          "internalType": "uint256",
          "name": "_id",
          "type": "uint256"
        }
      ],
      "name": "uri",
      "outputs": [
        {
          "internalType": "string",
          "name": "",
          "type": "string"
        }
      ],
      "stateMutability": "view",
      "type": "function"
    }
  ],
  "transactionHash": "0x6084045c9a0bc036d3aa19db04d108b416a5f90c7c95eea583e9bdfcb400cddc",
  "args": [],
  "numDeployments": 1,
  "solcInputHash": "1a9c64e66e0f1071b3b5090c79ef260f",
  "bytecode": "0x60e0604052602e60808181529062002e8760a0398051620000299160059160209091019062000156565b507fb19546dff01e856fb3f010c267a7b1c60363cf8a4664e21cc89c26224620214e6006557fa49807205ce4d355092ef5a8a18f56e8913cf4a201fbe287825b095693c21775600755600b80546001600160a01b0319167321ff1ac88a4a7c07c7573132f976d05b259632ee179055348015620000a557600080fd5b50604080516020810190915260008152620000c0816200013d565b5060408051808201909152600880825267233937b73a34b2b960c11b6020909201918252620000f29160039162000156565b5060408051808201909152600880825267232927a72a24a2a960c11b6020909201918252620001249160049162000156565b50600a80546001600160a01b0319163317905562000239565b80516200015290600290602084019062000156565b5050565b8280546200016490620001fc565b90600052602060002090601f016020900481019282620001885760008555620001d3565b82601f10620001a357805160ff1916838001178555620001d3565b82800160010185558215620001d3579182015b82811115620001d3578251825591602001919060010190620001b6565b50620001e1929150620001e5565b5090565b5b80821115620001e15760008155600101620001e6565b600181811c908216806200021157607f821691505b602082108114156200023357634e487b7160e01b600052602260045260246000fd5b50919050565b612c3e80620002496000396000f3fe608060405234801561001057600080fd5b50600436106101975760003560e01c8063862440e2116100e3578063c87b56dd1161008c578063e8a3d48511610066578063e8a3d4851461038f578063e985e9c514610397578063f242432a146103e057600080fd5b8063c87b56dd14610360578063d81d0a1514610373578063e58378bb1461038657600080fd5b8063a22cb465116100bd578063a22cb4651461031a578063ad2f852a1461032d578063b390c0ab1461034d57600080fd5b8063862440e2146102ba5780638da5cb5b146102cd57806395d89b411461031257600080fd5b80632eb2c2d611610145578063704802751161011f578063704802751461028b57806375b238fc1461029e57806383ca4b6f146102a757600080fd5b80632eb2c2d6146102455780634e1273f414610258578063510f41041461027857600080fd5b80630e89341c116101765780630e89341c146101fa578063156e29f61461020d57806324d7806c1461022257600080fd5b8062fdd58e1461019c57806301ffc9a7146101c257806306fdde03146101e5575b600080fd5b6101af6101aa36600461257c565b6103f3565b6040519081526020015b60405180910390f35b6101d56101d03660046126f7565b6104d0565b60405190151581526020016101b9565b6101ed6105b5565b6040516101b9919061295f565b6101ed610208366004612731565b610643565b61022061021b3660046125a6565b6106e5565b005b6101d56102303660046122be565b60096020526000908152604090205460ff1681565b61022061025336600461230c565b610748565b61026b6102663660046125d9565b610811565b6040516101b9919061291e565b61022061028636600461248f565b610969565b6102206102993660046122be565b6109d2565b6101af60075481565b6102206102b53660046126aa565b610a45565b6102206102c836600461274a565b610a54565b600a546102ed9073ffffffffffffffffffffffffffffffffffffffff1681565b60405173ffffffffffffffffffffffffffffffffffffffff90911681526020016101b9565b6101ed610b18565b610220610328366004612540565b610b25565b600b546102ed9073ffffffffffffffffffffffffffffffffffffffff1681565b61022061035b36600461279b565b610b30565b6101ed61036e366004612731565b610b3b565b61022061038136600461241b565b610b54565b6101af60065481565b6101ed610bb2565b6101d56103a53660046122d9565b73ffffffffffffffffffffffffffffffffffffffff918216600090815260016020908152604080832093909416825291909152205460ff1690565b6102206103ee3660046123b6565b610bbf565b600073ffffffffffffffffffffffffffffffffffffffff831661049d576040517f08c379a000000000000000000000000000000000000000000000000000000000815260206004820152602b60248201527f455243313135353a2062616c616e636520717565727920666f7220746865207a60448201527f65726f206164647265737300000000000000000000000000000000000000000060648201526084015b60405180910390fd5b5060009081526020818152604080832073ffffffffffffffffffffffffffffffffffffffff949094168352929052205490565b60007fffffffff0000000000000000000000000000000000000000000000000000000082167fd9b67a2600000000000000000000000000000000000000000000000000000000148061056357507fffffffff0000000000000000000000000000000000000000000000000000000082167f0e89341c00000000000000000000000000000000000000000000000000000000145b806105af57507f01ffc9a7000000000000000000000000000000000000000000000000000000007fffffffff000000000000000000000000000000000000000000000000000000008316145b92915050565b600380546105c2906129ae565b80601f01602080910402602001604051908101604052809291908181526020018280546105ee906129ae565b801561063b5780601f106106105761010080835404028352916020019161063b565b820191906000526020600020905b81548152906001019060200180831161061e57829003601f168201915b505050505081565b6000818152600860205260409020805460609190610660906129ae565b80601f016020809104026020016040519081016040528092919081815260200182805461068c906129ae565b80156106d95780601f106106ae576101008083540402835291602001916106d9565b820191906000526020600020905b8154815290600101906020018083116106bc57829003601f168201915b50505050509050919050565b600a5473ffffffffffffffffffffffffffffffffffffffff1633148061071f57503360009081526009602052604090205460ff1615156001145b61072857600080fd5b61074383838360405180602001604052806000815250610c81565b505050565b73ffffffffffffffffffffffffffffffffffffffff8516331480610771575061077185336103a5565b6107fd576040517f08c379a000000000000000000000000000000000000000000000000000000000815260206004820152603260248201527f455243313135353a207472616e736665722063616c6c6572206973206e6f742060448201527f6f776e6572206e6f7220617070726f76656400000000000000000000000000006064820152608401610494565b61080a8585858585610de8565b5050505050565b606081518351146108a4576040517f08c379a000000000000000000000000000000000000000000000000000000000815260206004820152602960248201527f455243313135353a206163636f756e747320616e6420696473206c656e67746860448201527f206d69736d6174636800000000000000000000000000000000000000000000006064820152608401610494565b6000835167ffffffffffffffff8111156108c0576108c0612ae4565b6040519080825280602002602001820160405280156108e9578160200160208202803683370190505b50905060005b84518110156109615761093485828151811061090d5761090d612ab5565b602002602001015185838151811061092757610927612ab5565b60200260200101516103f3565b82828151811061094657610946612ab5565b602090810291909101015261095a81612a4d565b90506108ef565b509392505050565b600a5473ffffffffffffffffffffffffffffffffffffffff163314806109a357503360009081526009602052604090205460ff1615156001145b6109ac57600080fd5b6109b7858585611122565b61080a8583836040518060200160405280600081525061143b565b600a5473ffffffffffffffffffffffffffffffffffffffff1633146109f657600080fd5b73ffffffffffffffffffffffffffffffffffffffff16600090815260096020526040902080547fffffffffffffffffffffffffffffffffffffffffffffffffffffffffffffff00166001179055565b610a50338383611122565b5050565b600a5473ffffffffffffffffffffffffffffffffffffffff16331480610a8e57503360009081526009602052604090205460ff1615156001145b610a9757600080fd5b60008281526008602052604090208054610ab0906129ae565b159050610abc57600080fd5b60008281526008602090815260409091208251610adb928401906120e2565b50817f6bb7ff708619ba0610cba295a58592e0451dee2622938c8755667688daf3529b82604051610b0c919061295f565b60405180910390a25050565b600480546105c2906129ae565b610a503383836116b4565b610a50338383611808565b600860205260009081526040902080546105c2906129ae565b600a5473ffffffffffffffffffffffffffffffffffffffff16331480610b8e57503360009081526009602052604090205460ff1615156001145b610b9757600080fd5b6107438383836040518060200160405280600081525061143b565b600580546105c2906129ae565b73ffffffffffffffffffffffffffffffffffffffff8516331480610be85750610be885336103a5565b610c74576040517f08c379a000000000000000000000000000000000000000000000000000000000815260206004820152602960248201527f455243313135353a2063616c6c6572206973206e6f74206f776e6572206e6f7260448201527f20617070726f76656400000000000000000000000000000000000000000000006064820152608401610494565b61080a8585858585611a10565b73ffffffffffffffffffffffffffffffffffffffff8416610d24576040517f08c379a000000000000000000000000000000000000000000000000000000000815260206004820152602160248201527f455243313135353a206d696e7420746f20746865207a65726f2061646472657360448201527f73000000000000000000000000000000000000000000000000000000000000006064820152608401610494565b33610d3e81600087610d3588611c41565b61080a88611c41565b60008481526020818152604080832073ffffffffffffffffffffffffffffffffffffffff8916845290915281208054859290610d7b908490612996565b9091555050604080518581526020810185905273ffffffffffffffffffffffffffffffffffffffff80881692600092918516917fc3d58168c5ae7397731d063d5bbf3d657854427343f4c083240f7aacaa2d0f62910160405180910390a461080a81600087878787611c8c565b8151835114610e79576040517f08c379a000000000000000000000000000000000000000000000000000000000815260206004820152602860248201527f455243313135353a2069647320616e6420616d6f756e7473206c656e6774682060448201527f6d69736d617463680000000000000000000000000000000000000000000000006064820152608401610494565b73ffffffffffffffffffffffffffffffffffffffff8416610f1c576040517f08c379a000000000000000000000000000000000000000000000000000000000815260206004820152602560248201527f455243313135353a207472616e7366657220746f20746865207a65726f20616460448201527f64726573730000000000000000000000000000000000000000000000000000006064820152608401610494565b3360005b845181101561108d576000858281518110610f3d57610f3d612ab5565b602002602001015190506000858381518110610f5b57610f5b612ab5565b6020908102919091018101516000848152808352604080822073ffffffffffffffffffffffffffffffffffffffff8e168352909352919091205490915081811015611028576040517f08c379a000000000000000000000000000000000000000000000000000000000815260206004820152602a60248201527f455243313135353a20696e73756666696369656e742062616c616e636520666f60448201527f72207472616e73666572000000000000000000000000000000000000000000006064820152608401610494565b60008381526020818152604080832073ffffffffffffffffffffffffffffffffffffffff8e8116855292528083208585039055908b16825281208054849290611072908490612996565b925050819055505050508061108690612a4d565b9050610f20565b508473ffffffffffffffffffffffffffffffffffffffff168673ffffffffffffffffffffffffffffffffffffffff168273ffffffffffffffffffffffffffffffffffffffff167f4a39dc06d4c0dbc64b70af90fd698a233a518aa5d07e595d983b8c0526c8f7fb8787604051611104929190612931565b60405180910390a461111a818787878787611f26565b505050505050565b73ffffffffffffffffffffffffffffffffffffffff83166111c5576040517f08c379a000000000000000000000000000000000000000000000000000000000815260206004820152602360248201527f455243313135353a206275726e2066726f6d20746865207a65726f206164647260448201527f65737300000000000000000000000000000000000000000000000000000000006064820152608401610494565b8051825114611256576040517f08c379a000000000000000000000000000000000000000000000000000000000815260206004820152602860248201527f455243313135353a2069647320616e6420616d6f756e7473206c656e6774682060448201527f6d69736d617463680000000000000000000000000000000000000000000000006064820152608401610494565b604080516020810190915260009081905233905b83518110156113b557600084828151811061128757611287612ab5565b6020026020010151905060008483815181106112a5576112a5612ab5565b6020908102919091018101516000848152808352604080822073ffffffffffffffffffffffffffffffffffffffff8c168352909352919091205490915081811015611371576040517f08c379a0000000000000000000000000000000000000000000000000000000008152602060048201526024808201527f455243313135353a206275726e20616d6f756e7420657863656564732062616c60448201527f616e6365000000000000000000000000000000000000000000000000000000006064820152608401610494565b60009283526020838152604080852073ffffffffffffffffffffffffffffffffffffffff8b16865290915290922091039055806113ad81612a4d565b91505061126a565b50600073ffffffffffffffffffffffffffffffffffffffff168473ffffffffffffffffffffffffffffffffffffffff168273ffffffffffffffffffffffffffffffffffffffff167f4a39dc06d4c0dbc64b70af90fd698a233a518aa5d07e595d983b8c0526c8f7fb868660405161142d929190612931565b60405180910390a450505050565b73ffffffffffffffffffffffffffffffffffffffff84166114de576040517f08c379a000000000000000000000000000000000000000000000000000000000815260206004820152602160248201527f455243313135353a206d696e7420746f20746865207a65726f2061646472657360448201527f73000000000000000000000000000000000000000000000000000000000000006064820152608401610494565b815183511461156f576040517f08c379a000000000000000000000000000000000000000000000000000000000815260206004820152602860248201527f455243313135353a2069647320616e6420616d6f756e7473206c656e6774682060448201527f6d69736d617463680000000000000000000000000000000000000000000000006064820152608401610494565b3360005b84518110156116255783818151811061158e5761158e612ab5565b60200260200101516000808784815181106115ab576115ab612ab5565b6020026020010151815260200190815260200160002060008873ffffffffffffffffffffffffffffffffffffffff1673ffffffffffffffffffffffffffffffffffffffff168152602001908152602001600020600082825461160d9190612996565b9091555081905061161d81612a4d565b915050611573565b508473ffffffffffffffffffffffffffffffffffffffff16600073ffffffffffffffffffffffffffffffffffffffff168273ffffffffffffffffffffffffffffffffffffffff167f4a39dc06d4c0dbc64b70af90fd698a233a518aa5d07e595d983b8c0526c8f7fb878760405161169d929190612931565b60405180910390a461080a81600087878787611f26565b8173ffffffffffffffffffffffffffffffffffffffff168373ffffffffffffffffffffffffffffffffffffffff161415611770576040517f08c379a000000000000000000000000000000000000000000000000000000000815260206004820152602960248201527f455243313135353a2073657474696e6720617070726f76616c2073746174757360448201527f20666f722073656c6600000000000000000000000000000000000000000000006064820152608401610494565b73ffffffffffffffffffffffffffffffffffffffff83811660008181526001602090815260408083209487168084529482529182902080547fffffffffffffffffffffffffffffffffffffffffffffffffffffffffffffff001686151590811790915591519182527f17307eab39ab6107e8899845ad3d59bd9653f200f220920489ca2b5937696c31910160405180910390a3505050565b73ffffffffffffffffffffffffffffffffffffffff83166118ab576040517f08c379a000000000000000000000000000000000000000000000000000000000815260206004820152602360248201527f455243313135353a206275726e2066726f6d20746865207a65726f206164647260448201527f65737300000000000000000000000000000000000000000000000000000000006064820152608401610494565b336118db818560006118bc87611c41565b6118c587611c41565b5050604080516020810190915260009052505050565b60008381526020818152604080832073ffffffffffffffffffffffffffffffffffffffff8816845290915290205482811015611998576040517f08c379a0000000000000000000000000000000000000000000000000000000008152602060048201526024808201527f455243313135353a206275726e20616d6f756e7420657863656564732062616c60448201527f616e6365000000000000000000000000000000000000000000000000000000006064820152608401610494565b60008481526020818152604080832073ffffffffffffffffffffffffffffffffffffffff898116808652918452828520888703905582518981529384018890529092908616917fc3d58168c5ae7397731d063d5bbf3d657854427343f4c083240f7aacaa2d0f62910160405180910390a45050505050565b73ffffffffffffffffffffffffffffffffffffffff8416611ab3576040517f08c379a000000000000000000000000000000000000000000000000000000000815260206004820152602560248201527f455243313135353a207472616e7366657220746f20746865207a65726f20616460448201527f64726573730000000000000000000000000000000000000000000000000000006064820152608401610494565b33611ac3818787610d3588611c41565b60008481526020818152604080832073ffffffffffffffffffffffffffffffffffffffff8a16845290915290205483811015611b81576040517f08c379a000000000000000000000000000000000000000000000000000000000815260206004820152602a60248201527f455243313135353a20696e73756666696369656e742062616c616e636520666f60448201527f72207472616e73666572000000000000000000000000000000000000000000006064820152608401610494565b60008581526020818152604080832073ffffffffffffffffffffffffffffffffffffffff8b8116855292528083208785039055908816825281208054869290611bcb908490612996565b9091555050604080518681526020810186905273ffffffffffffffffffffffffffffffffffffffff808916928a821692918616917fc3d58168c5ae7397731d063d5bbf3d657854427343f4c083240f7aacaa2d0f62910160405180910390a4611c38828888888888611c8c565b50505050505050565b60408051600180825281830190925260609160009190602080830190803683370190505090508281600081518110611c7b57611c7b612ab5565b602090810291909101015292915050565b73ffffffffffffffffffffffffffffffffffffffff84163b1561111a576040517ff23a6e6100000000000000000000000000000000000000000000000000000000815273ffffffffffffffffffffffffffffffffffffffff85169063f23a6e6190611d0390899089908890889088906004016128ce565b602060405180830381600087803b158015611d1d57600080fd5b505af1925050508015611d6b575060408051601f3d9081017fffffffffffffffffffffffffffffffffffffffffffffffffffffffffffffffe0168201909252611d6891810190612714565b60015b611e5557611d77612b13565b806308c379a01415611dcb5750611d8c612b2f565b80611d975750611dcd565b806040517f08c379a0000000000000000000000000000000000000000000000000000000008152600401610494919061295f565b505b6040517f08c379a000000000000000000000000000000000000000000000000000000000815260206004820152603460248201527f455243313135353a207472616e7366657220746f206e6f6e204552433131353560448201527f526563656976657220696d706c656d656e7465720000000000000000000000006064820152608401610494565b7fffffffff0000000000000000000000000000000000000000000000000000000081167ff23a6e610000000000000000000000000000000000000000000000000000000014611c38576040517f08c379a000000000000000000000000000000000000000000000000000000000815260206004820152602860248201527f455243313135353a204552433131353552656365697665722072656a6563746560448201527f6420746f6b656e730000000000000000000000000000000000000000000000006064820152608401610494565b73ffffffffffffffffffffffffffffffffffffffff84163b1561111a576040517fbc197c8100000000000000000000000000000000000000000000000000000000815273ffffffffffffffffffffffffffffffffffffffff85169063bc197c8190611f9d9089908990889088908890600401612863565b602060405180830381600087803b158015611fb757600080fd5b505af1925050508015612005575060408051601f3d9081017fffffffffffffffffffffffffffffffffffffffffffffffffffffffffffffffe016820190925261200291810190612714565b60015b61201157611d77612b13565b7fffffffff0000000000000000000000000000000000000000000000000000000081167fbc197c810000000000000000000000000000000000000000000000000000000014611c38576040517f08c379a000000000000000000000000000000000000000000000000000000000815260206004820152602860248201527f455243313135353a204552433131353552656365697665722072656a6563746560448201527f6420746f6b656e730000000000000000000000000000000000000000000000006064820152608401610494565b8280546120ee906129ae565b90600052602060002090601f0160209004810192826121105760008555612156565b82601f1061212957805160ff1916838001178555612156565b82800160010185558215612156579182015b8281111561215657825182559160200191906001019061213b565b50612162929150612166565b5090565b5b808211156121625760008155600101612167565b600067ffffffffffffffff83111561219557612195612ae4565b6040516121ca60207fffffffffffffffffffffffffffffffffffffffffffffffffffffffffffffffe0601f8701160182612a02565b8091508381528484840111156121df57600080fd5b83836020830137600060208583010152509392505050565b803573ffffffffffffffffffffffffffffffffffffffff8116811461221b57600080fd5b919050565b600082601f83011261223157600080fd5b8135602061223e82612972565b60405161224b8282612a02565b8381528281019150858301600585901b8701840188101561226b57600080fd5b60005b8581101561228a5781358452928401929084019060010161226e565b5090979650505050505050565b600082601f8301126122a857600080fd5b6122b78383356020850161217b565b9392505050565b6000602082840312156122d057600080fd5b6122b7826121f7565b600080604083850312156122ec57600080fd5b6122f5836121f7565b9150612303602084016121f7565b90509250929050565b600080600080600060a0868803121561232457600080fd5b61232d866121f7565b945061233b602087016121f7565b9350604086013567ffffffffffffffff8082111561235857600080fd5b61236489838a01612220565b9450606088013591508082111561237a57600080fd5b61238689838a01612220565b9350608088013591508082111561239c57600080fd5b506123a988828901612297565b9150509295509295909350565b600080600080600060a086880312156123ce57600080fd5b6123d7866121f7565b94506123e5602087016121f7565b93506040860135925060608601359150608086013567ffffffffffffffff81111561240f57600080fd5b6123a988828901612297565b60008060006060848603121561243057600080fd5b612439846121f7565b9250602084013567ffffffffffffffff8082111561245657600080fd5b61246287838801612220565b9350604086013591508082111561247857600080fd5b5061248586828701612220565b9150509250925092565b600080600080600060a086880312156124a757600080fd5b6124b0866121f7565b9450602086013567ffffffffffffffff808211156124cd57600080fd5b6124d989838a01612220565b955060408801359150808211156124ef57600080fd5b6124fb89838a01612220565b9450606088013591508082111561251157600080fd5b61251d89838a01612220565b9350608088013591508082111561253357600080fd5b506123a988828901612220565b6000806040838503121561255357600080fd5b61255c836121f7565b91506020830135801515811461257157600080fd5b809150509250929050565b6000806040838503121561258f57600080fd5b612598836121f7565b946020939093013593505050565b6000806000606084860312156125bb57600080fd5b6125c4846121f7565b95602085013595506040909401359392505050565b600080604083850312156125ec57600080fd5b823567ffffffffffffffff8082111561260457600080fd5b818501915085601f83011261261857600080fd5b8135602061262582612972565b6040516126328282612a02565b8381528281019150858301600585901b870184018b101561265257600080fd5b600096505b8487101561267c57612668816121f7565b835260019690960195918301918301612657565b509650508601359250508082111561269357600080fd5b506126a085828601612220565b9150509250929050565b600080604083850312156126bd57600080fd5b823567ffffffffffffffff808211156126d557600080fd5b6126e186838701612220565b9350602085013591508082111561269357600080fd5b60006020828403121561270957600080fd5b81356122b781612bd7565b60006020828403121561272657600080fd5b81516122b781612bd7565b60006020828403121561274357600080fd5b5035919050565b6000806040838503121561275d57600080fd5b82359150602083013567ffffffffffffffff81111561277b57600080fd5b8301601f8101851361278c57600080fd5b6126a08582356020840161217b565b600080604083850312156127ae57600080fd5b50508035926020909101359150565b600081518084526020808501945080840160005b838110156127ed578151875295820195908201906001016127d1565b509495945050505050565b6000815180845260005b8181101561281e57602081850181015186830182015201612802565b81811115612830576000602083870101525b50601f017fffffffffffffffffffffffffffffffffffffffffffffffffffffffffffffffe0169290920160200192915050565b600073ffffffffffffffffffffffffffffffffffffffff808816835280871660208401525060a0604083015261289c60a08301866127bd565b82810360608401526128ae81866127bd565b905082810360808401526128c281856127f8565b98975050505050505050565b600073ffffffffffffffffffffffffffffffffffffffff808816835280871660208401525084604083015283606083015260a0608083015261291360a08301846127f8565b979650505050505050565b6020815260006122b760208301846127bd565b60408152600061294460408301856127bd565b828103602084015261295681856127bd565b95945050505050565b6020815260006122b760208301846127f8565b600067ffffffffffffffff82111561298c5761298c612ae4565b5060051b60200190565b600082198211156129a9576129a9612a86565b500190565b600181811c908216806129c257607f821691505b602082108114156129fc577f4e487b7100000000000000000000000000000000000000000000000000000000600052602260045260246000fd5b50919050565b7fffffffffffffffffffffffffffffffffffffffffffffffffffffffffffffffe0601f830116810181811067ffffffffffffffff82111715612a4657612a46612ae4565b6040525050565b60007fffffffffffffffffffffffffffffffffffffffffffffffffffffffffffffffff821415612a7f57612a7f612a86565b5060010190565b7f4e487b7100000000000000000000000000000000000000000000000000000000600052601160045260246000fd5b7f4e487b7100000000000000000000000000000000000000000000000000000000600052603260045260246000fd5b7f4e487b7100000000000000000000000000000000000000000000000000000000600052604160045260246000fd5b600060033d1115612b2c5760046000803e5060005160e01c5b90565b600060443d1015612b3d5790565b6040517ffffffffffffffffffffffffffffffffffffffffffffffffffffffffffffffffc803d016004833e81513d67ffffffffffffffff8160248401118184111715612b8b57505050505090565b8285019150815181811115612ba35750505050505090565b843d8701016020828501011115612bbd5750505050505090565b612bcc60208286010187612a02565b509095945050505050565b7fffffffff0000000000000000000000000000000000000000000000000000000081168114612c0557600080fd5b5056fea26469706673582212203b88f742c8d48a83ff9d4d2151fed1967667fa170912f3572f954d0f0d2060bb64736f6c63430008060033516d64717256415367754a524a48417a626679733378646662684c4354794b6f67474e7951694451654e53677373",
  "devdoc": {
    "kind": "dev",
    "methods": {
      "balanceOf(address,uint256)": {
        "details": "See {IERC1155-balanceOf}. Requirements: - `account` cannot be the zero address."
      },
      "balanceOfBatch(address[],uint256[])": {
        "details": "See {IERC1155-balanceOfBatch}. Requirements: - `accounts` and `ids` must have the same length."
      },
      "isApprovedForAll(address,address)": {
        "details": "See {IERC1155-isApprovedForAll}."
      },
      "safeBatchTransferFrom(address,address,uint256[],uint256[],bytes)": {
        "details": "See {IERC1155-safeBatchTransferFrom}."
      },
      "safeTransferFrom(address,address,uint256,uint256,bytes)": {
        "details": "See {IERC1155-safeTransferFrom}."
      },
      "setApprovalForAll(address,bool)": {
        "details": "See {IERC1155-setApprovalForAll}."
      },
      "supportsInterface(bytes4)": {
        "details": "See {IERC165-supportsInterface}."
      }
    },
    "version": 1
  },
  "userdoc": {
    "kind": "user",
    "methods": {},
    "version": 1
  },
  "storageLayout": {
    "storage": [
      {
        "astId": 1132,
        "contract": "contracts/tests/NFTs/WatcherMinter.sol:WatcherMinter",
        "label": "_balances",
        "offset": 0,
        "slot": "0",
        "type": "t_mapping(t_uint256,t_mapping(t_address,t_uint256))"
      },
      {
        "astId": 1138,
        "contract": "contracts/tests/NFTs/WatcherMinter.sol:WatcherMinter",
        "label": "_operatorApprovals",
        "offset": 0,
        "slot": "1",
        "type": "t_mapping(t_address,t_mapping(t_address,t_bool))"
      },
      {
        "astId": 1140,
        "contract": "contracts/tests/NFTs/WatcherMinter.sol:WatcherMinter",
        "label": "_uri",
        "offset": 0,
        "slot": "2",
        "type": "t_string_storage"
      },
      {
        "astId": 19581,
        "contract": "contracts/tests/NFTs/WatcherMinter.sol:WatcherMinter",
        "label": "name",
        "offset": 0,
        "slot": "3",
        "type": "t_string_storage"
      },
      {
        "astId": 19583,
        "contract": "contracts/tests/NFTs/WatcherMinter.sol:WatcherMinter",
        "label": "symbol",
        "offset": 0,
        "slot": "4",
        "type": "t_string_storage"
      },
      {
        "astId": 19586,
        "contract": "contracts/tests/NFTs/WatcherMinter.sol:WatcherMinter",
        "label": "contractURI",
        "offset": 0,
        "slot": "5",
        "type": "t_string_storage"
      },
      {
        "astId": 19591,
        "contract": "contracts/tests/NFTs/WatcherMinter.sol:WatcherMinter",
        "label": "OWNER_ROLE",
        "offset": 0,
        "slot": "6",
        "type": "t_bytes32"
      },
      {
        "astId": 19596,
        "contract": "contracts/tests/NFTs/WatcherMinter.sol:WatcherMinter",
        "label": "ADMIN_ROLE",
        "offset": 0,
        "slot": "7",
        "type": "t_bytes32"
      },
      {
        "astId": 19600,
        "contract": "contracts/tests/NFTs/WatcherMinter.sol:WatcherMinter",
        "label": "tokenURI",
        "offset": 0,
        "slot": "8",
        "type": "t_mapping(t_uint256,t_string_storage)"
      },
      {
        "astId": 19604,
        "contract": "contracts/tests/NFTs/WatcherMinter.sol:WatcherMinter",
        "label": "isAdmin",
        "offset": 0,
        "slot": "9",
        "type": "t_mapping(t_address,t_bool)"
      },
      {
        "astId": 19606,
        "contract": "contracts/tests/NFTs/WatcherMinter.sol:WatcherMinter",
        "label": "owner",
        "offset": 0,
        "slot": "10",
        "type": "t_address"
      },
      {
        "astId": 19612,
        "contract": "contracts/tests/NFTs/WatcherMinter.sol:WatcherMinter",
        "label": "royaltyAddress",
        "offset": 0,
        "slot": "11",
        "type": "t_address_payable"
      }
    ],
    "types": {
      "t_address": {
        "encoding": "inplace",
        "label": "address",
        "numberOfBytes": "20"
      },
      "t_address_payable": {
        "encoding": "inplace",
        "label": "address payable",
        "numberOfBytes": "20"
      },
      "t_bool": {
        "encoding": "inplace",
        "label": "bool",
        "numberOfBytes": "1"
      },
      "t_bytes32": {
        "encoding": "inplace",
        "label": "bytes32",
        "numberOfBytes": "32"
      },
      "t_mapping(t_address,t_bool)": {
        "encoding": "mapping",
        "key": "t_address",
        "label": "mapping(address => bool)",
        "numberOfBytes": "32",
        "value": "t_bool"
      },
      "t_mapping(t_address,t_mapping(t_address,t_bool))": {
        "encoding": "mapping",
        "key": "t_address",
        "label": "mapping(address => mapping(address => bool))",
        "numberOfBytes": "32",
        "value": "t_mapping(t_address,t_bool)"
      },
      "t_mapping(t_address,t_uint256)": {
        "encoding": "mapping",
        "key": "t_address",
        "label": "mapping(address => uint256)",
        "numberOfBytes": "32",
        "value": "t_uint256"
      },
      "t_mapping(t_uint256,t_mapping(t_address,t_uint256))": {
        "encoding": "mapping",
        "key": "t_uint256",
        "label": "mapping(uint256 => mapping(address => uint256))",
        "numberOfBytes": "32",
        "value": "t_mapping(t_address,t_uint256)"
      },
      "t_mapping(t_uint256,t_string_storage)": {
        "encoding": "mapping",
        "key": "t_uint256",
        "label": "mapping(uint256 => string)",
        "numberOfBytes": "32",
        "value": "t_string_storage"
      },
      "t_string_storage": {
        "encoding": "bytes",
        "label": "string",
        "numberOfBytes": "32"
      },
      "t_uint256": {
        "encoding": "inplace",
        "label": "uint256",
        "numberOfBytes": "32"
      }
    }
  }
}