{"address":"0xF2A09f37aA6FEd4018922Cc9f3ac8f77c8Fb1Cbd","bytecode":"0x608060405234801561001057600080fd5b50615f6180620000216000396000f3fe6080604052600436106101fe5760003560e01c80638da5cb5b1161011d578063d4ab5489116100b0578063ee9a31a21161007f578063f2fde38b11610064578063f2fde38b146107a0578063f3e687c0146107c0578063f551bf20146107e057600080fd5b8063ee9a31a21461076d578063ef2d23761461078d57600080fd5b8063d4ab5489146106fa578063e44cb8e41461071a578063e47af09a1461073a578063e65d530d1461074d57600080fd5b8063b09c9785116100ec578063b09c978514610650578063b6554a8d146106a7578063bcd4f920146106c7578063bd6516fe146106e757600080fd5b80638da5cb5b1461056b578063917c4156146105895780639b9e97b8146105bc578063a374e43f146105cf57600080fd5b80636c5186f91161019557806378df3a521161016457806378df3a52146104125780637c0b8de21461043257806382bfefc81461046a5780638d9776721461048a57600080fd5b80636c5186f9146103b7578063715018a6146103ca57806373ce3143146103df578063774be5b3146103f257600080fd5b80632b32177f116101d15780632b32177f146102f15780632d08265a146103355780633408e470146103575780634f558e791461039757600080fd5b806306661abd146102035780631a3cd59a1461022b5780631d65e77e1461026d57806328de3c9b1461029a575b600080fd5b34801561020f57600080fd5b50610218610800565b6040519081526020015b60405180910390f35b34801561023757600080fd5b5061024b610246366004615233565b610810565b6040805182518152602080840151908201529181015190820152606001610222565b34801561027957600080fd5b5061028d610288366004615233565b61086d565b6040516102229190615a0f565b3480156102a657600080fd5b506102d66102b5366004615233565b609d6020526000908152604090208054600182015460029092015490919083565b60408051938452602084019290925290820152606001610222565b3480156102fd57600080fd5b50609b5461032590760100000000000000000000000000000000000000000000900460ff1681565b6040519015158152602001610222565b34801561034157600080fd5b50610355610350366004614f41565b610a56565b005b34801561036357600080fd5b50609b5474010000000000000000000000000000000000000000900461ffff165b60405161ffff9091168152602001610222565b3480156103a357600080fd5b506103256103b2366004615233565b610afb565b6103556103c536600461505f565b610b14565b3480156103d657600080fd5b50610355611102565b6103556103ed366004615549565b611168565b3480156103fe57600080fd5b5061035561040d366004615014565b61165d565b34801561041e57600080fd5b5061021861042d366004615527565b611835565b34801561043e57600080fd5b50609954610452906001600160a01b031681565b6040516001600160a01b039091168152602001610222565b34801561047657600080fd5b50609a54610452906001600160a01b031681565b34801561049657600080fd5b506105526104a5366004615233565b609c60209081526000918252604091829020805460018201546004830154600584015460068501546007860154600887015460098801548a51808c01909b52600a8901546001600160a01b039081168c52600b8a01549a8c019a909a52600c890154600d909901548a89169b74010000000000000000000000000000000000000000998a900461ffff9081169c998a169b9989169a90980460ff169896979596949593949390921692908d565b6040516102229d9c9b9a99989796959493929190615924565b34801561057757600080fd5b506065546001600160a01b0316610452565b34801561059557600080fd5b50609b546103849074010000000000000000000000000000000000000000900461ffff1681565b6103556105ca3660046154ea565b611866565b3480156105db57600080fd5b506106276105ea366004615527565b609e6020908152600092835260408084209091529082529020805460019091015463ffffffff81169064010000000090046001600160a01b031683565b6040805193845263ffffffff90921660208401526001600160a01b031690820152606001610222565b34801561065c57600080fd5b5061069261066b366004614f15565b60a06020908152600092835260408084209091529082529020805460019091015460ff1682565b60408051928352901515602083015201610222565b3480156106b357600080fd5b506103256106c2366004615233565b611b0f565b3480156106d357600080fd5b506103556106e2366004614edb565b611b91565b6103556106f5366004614f76565b611c25565b34801561070657600080fd5b50610355610715366004614fda565b611cbe565b34801561072657600080fd5b50610355610735366004615608565b611d64565b6103556107483660046154ea565b611e35565b34801561075957600080fd5b506103556107683660046151fa565b612278565b34801561077957600080fd5b50609b54610452906001600160a01b031681565b61035561079b3660046154ea565b6123b6565b3480156107ac57600080fd5b506103556107bb366004614edb565b612bcc565b3480156107cc57600080fd5b506103556107db366004615338565b612cae565b3480156107ec57600080fd5b50609854610452906001600160a01b031681565b600061080b60975490565b905090565b61083460405180606001604052806000815260200160008152602001600081525090565b506000908152609d6020908152604091829020825160608101845281548152600182015492810192909252600201549181019190915290565b610875614a20565b6000828152609c602090815260409182902082516101e08101845281546001600160a01b0380821683527401000000000000000000000000000000000000000090910461ffff168285015260018301541681850152600282018054855181860281018601909652808652919492936060860193929083018282801561091957602002820191906000526020600020905b815481526020019060010190808311610905575b505050505081526020016003820180548060200260200160405190810160405280929190818152602001828054801561097157602002820191906000526020600020905b81548152602001906001019080831161095d575b505050918352505060048201546001600160a01b038116602083015260409091019074010000000000000000000000000000000000000000900460ff1660058111156109bf576109bf615e3d565b60058111156109d0576109d0615e3d565b8152600582015460208083019190915260068301546040808401919091526007840154606084015260088401546080840152600984015461ffff1660a08401528051808201909152600a8401546001600160a01b03168152600b8401549181019190915260c0820152600c82015460e0820152600d909101546101009091015292915050565b60026001541415610aae5760405162461bcd60e51b815260206004820152601f60248201527f5265656e7472616e637947756172643a207265656e7472616e742063616c6c0060448201526064015b60405180910390fd5b600260015560005b8151811015610af357610ae1828281518110610ad457610ad4615e6c565b6020026020010151612ded565b80610aeb81615dd5565b915050610ab6565b505060018055565b60008082118015610b0e57506097548211155b92915050565b60026001541415610b675760405162461bcd60e51b815260206004820152601f60248201527f5265656e7472616e637947756172643a207265656e7472616e742063616c6c006044820152606401610aa5565b60026001556020830151609b5474010000000000000000000000000000000000000000900461ffff908116911614610be15760405162461bcd60e51b815260206004820152600f60248201527f496e76616c696420636861696e496400000000000000000000000000000000006044820152606401610aa5565b6099546001600160a01b0316610c395760405162461bcd60e51b815260206004820152600e60248201527f50726f78794e465420756e7365740000000000000000000000000000000000006044820152606401610aa5565b6098546040517f1750518c0000000000000000000000000000000000000000000000000000000081526001600160a01b0390911690631750518c90610c849033908790600401615902565b60206040518083038186803b158015610c9c57600080fd5b505afa158015610cb0573d6000803e3d6000fd5b505050506040513d601f19601f82011682018060405250810190610cd49190614ff7565b506098546040517f0990a9820000000000000000000000000000000000000000000000000000000081526001600160a01b0390911690630990a98290610d1e9085906004016159fc565b60206040518083038186803b158015610d3657600080fd5b505afa158015610d4a573d6000803e3d6000fd5b505050506040513d601f19601f82011682018060405250810190610d6e9190614ff7565b5060985460408481015190517f9aeecea50000000000000000000000000000000000000000000000000000000081526001600160a01b039182166004820152911690639aeecea59060240160206040518083038186803b158015610dd157600080fd5b505afa158015610de5573d6000803e3d6000fd5b505050506040513d601f19601f82011682018060405250810190610e099190614ff7565b15610f3557609860009054906101000a90046001600160a01b03166001600160a01b0316639571581c6040518163ffffffff1660e01b815260040160206040518083038186803b158015610e5c57600080fd5b505afa158015610e70573d6000803e3d6000fd5b505050506040513d601f19601f82011682018060405250810190610e949190614ef8565b6001600160a01b031663443cf787338560400151866060015187608001518861010001516040518663ffffffff1660e01b8152600401610ed89594939291906158b1565b602060405180830381600087803b158015610ef257600080fd5b505af1158015610f06573d6000803e3d6000fd5b505050506040513d601f19601f82011682018060405250810190610f2a919061524c565b6101c0840152610ff3565b6099546040808501516060860151608087015161010088015193517f443cf7870000000000000000000000000000000000000000000000000000000081526001600160a01b039095169463443cf78794610f9a943394909390929091906004016158b1565b602060405180830381600087803b158015610fb457600080fd5b505af1158015610fc8573d6000803e3d6000fd5b505050506040513d601f19601f82011682018060405250810190610fec919061524c565b6101c08401525b826020015161ffff16826000015161ffff16141561101a5761101583836131c3565b6110f9565b609b546001600160a01b03166110725760405162461bcd60e51b815260206004820152600c60248201527f42726964676520756e73657400000000000000000000000000000000000000006044820152606401610aa5565b609b5482516040517f107f6e280000000000000000000000000000000000000000000000000000000081526001600160a01b039092169163107f6e289134916110c691903390899089908990600401615a72565b6000604051808303818588803b1580156110df57600080fd5b505af11580156110f3573d6000803e3d6000fd5b50505050505b50506001805550565b6065546001600160a01b0316331461115c5760405162461bcd60e51b815260206004820181905260248201527f4f776e61626c653a2063616c6c6572206973206e6f7420746865206f776e65726044820152606401610aa5565b61116660006135f8565b565b8261117281610afb565b6111be5760405162461bcd60e51b815260206004820152600f60248201527f5461736b206e6f742065786973747300000000000000000000000000000000006044820152606401610aa5565b600260015414156112115760405162461bcd60e51b815260206004820152601f60248201527f5265656e7472616e637947756172643a207265656e7472616e742063616c6c006044820152606401610aa5565b60026001556098546040517fe7e46def0000000000000000000000000000000000000000000000000000000081526001600160a01b039091169063e7e46def906112659033908890889088906004016159be565b60206040518083038186803b15801561127d57600080fd5b505afa158015611291573d6000803e3d6000fd5b505050506040513d601f19601f820116820180604052508101906112b59190614ff7565b506000848152609c60205260408120600801546112db9063ffffffff8087169061366216565b609a546000878152609c60205260409081902060049081015491517f8340f54900000000000000000000000000000000000000000000000000000000815233918101919091526001600160a01b039182166024820152604481018490529293501690638340f5499034906064016000604051808303818588803b15801561136157600080fd5b505af1158015611375573d6000803e3d6000fd5b50505050506000611387868633613675565b9050600080878152609c602052604090206004015474010000000000000000000000000000000000000000900460ff1660058111156113c8576113c8615e3d565b141561141d576000868152609c6020526040902060040180547fffffffffffffffffffffff00ffffffffffffffffffffffffffffffffffffffff16740100000000000000000000000000000000000000001790555b6000868152609c60205260409020600c0154611439908361386b565b6000878152609c60205260409020600c8101829055600701541161161057609854604080517f2396197500000000000000000000000000000000000000000000000000000000815290516000926001600160a01b0316916323961975916004808301926020929190829003018186803b1580156114b557600080fd5b505afa1580156114c9573d6000803e3d6000fd5b505050506040513d601f19601f820116820180604052508101906114ed9190614ef8565b6001600160a01b03161461161057609860009054906101000a90046001600160a01b03166001600160a01b031663239619756040518163ffffffff1660e01b815260040160206040518083038186803b15801561154957600080fd5b505afa15801561155d573d6000803e3d6000fd5b505050506040513d601f19601f820116820180604052508101906115819190614ef8565b6000878152609c6020526040908190206006015490517eb34ebd0000000000000000000000000000000000000000000000000000000081526004810189905260248101919091526001600160a01b03919091169062b34ebd90604401600060405180830381600087803b1580156115f757600080fd5b505af115801561160b573d6000803e3d6000fd5b505050505b7f9373a88f901e30620a827b89bb774b9d50dedad527a9878c5261b450f67d419786338488858960405161164996959493929190615b55565b60405180910390a150506001805550505050565b6065546001600160a01b031633146116b75760405162461bcd60e51b815260206004820181905260248201527f4f776e61626c653a2063616c6c6572206973206e6f7420746865206f776e65726044820152606401610aa5565b6001600160a01b03831661170d5760405162461bcd60e51b815260206004820152600e60248201527f496e76616c6964204252494447450000000000000000000000000000000000006044820152606401610aa5565b609b54760100000000000000000000000000000000000000000000900460ff1615611788576001600160a01b0382166117885760405162461bcd60e51b815260206004820152600d60248201527f496e76616c696420544f4b454e000000000000000000000000000000000000006044820152606401610aa5565b6001600160a01b0381166117de5760405162461bcd60e51b815260206004820152600b60248201527f496e76616c6964204e46540000000000000000000000000000000000000000006044820152606401610aa5565b609b80546001600160a01b039485167fffffffffffffffffffffffff000000000000000000000000000000000000000091821617909155609a80549385169382169390931790925560998054919093169116179055565b609f602052816000526040600020818154811061185157600080fd5b90600052602060002001600091509150505481565b8161187081610afb565b6118bc5760405162461bcd60e51b815260206004820152600f60248201527f5461736b206e6f742065786973747300000000000000000000000000000000006044820152606401610aa5565b6002600154141561190f5760405162461bcd60e51b815260206004820152601f60248201527f5265656e7472616e637947756172643a207265656e7472616e742063616c6c006044820152606401610aa5565b6002600155600080848152609c602052604090206004015474010000000000000000000000000000000000000000900460ff16600581111561195357611953615e3d565b148061199c575060016000848152609c602052604090206004015474010000000000000000000000000000000000000000900460ff16600581111561199a5761199a615e3d565b145b80156119b457506000838152609d6020526040902054155b611a005760405162461bcd60e51b815260206004820152601360248201527f4f70656e696e67206f722063616e63656c6564000000000000000000000000006044820152606401610aa5565b6000838152609c60205260409020546001600160a01b03163314611a665760405162461bcd60e51b815260206004820152600c60248201527f496e76616c6964206175746800000000000000000000000000000000000000006044820152606401610aa5565b6000838152609c602052604090206004810180547fffffffffffffffffffffff00ffffffffffffffffffffffffffffffffffffffff167402000000000000000000000000000000000000000017905554611acd9084906001600160a01b0316600185613877565b604080518481523360208201527f9496d40f6a4059d9530f6361a578a4df0bfaeddcc0d913de433fd6caab89130391015b60405180910390a150506001805550565b600060046000838152609c602052604090206004015474010000000000000000000000000000000000000000900460ff166005811115611b5157611b51615e3d565b1480610b0e57506000828152609c602052604090206007810154600c90910154108015610b0e5750506000908152609c6020526040902060060154421190565b6065546001600160a01b03163314611beb5760405162461bcd60e51b815260206004820181905260248201527f4f776e61626c653a2063616c6c6572206973206e6f7420746865206f776e65726044820152606401610aa5565b609880547fffffffffffffffffffffffff0000000000000000000000000000000000000000166001600160a01b0392909216919091179055565b60026001541415611c785760405162461bcd60e51b815260206004820152601f60248201527f5265656e7472616e637947756172643a207265656e7472616e742063616c6c006044820152606401610aa5565b600260015560005b82518110156110f957611cac838281518110611c9e57611c9e615e6c565b6020026020010151836139b0565b80611cb681615dd5565b915050611c80565b6065546001600160a01b03163314611d185760405162461bcd60e51b815260206004820181905260248201527f4f776e61626c653a2063616c6c6572206973206e6f7420746865206f776e65726044820152606401610aa5565b609b8054911515760100000000000000000000000000000000000000000000027fffffffffffffffffff00ffffffffffffffffffffffffffffffffffffffffffff909216919091179055565b609b546001600160a01b03163314611dbe5760405162461bcd60e51b815260206004820152601460248201527f4578656375746f723a206f6e6c794272696467650000000000000000000000006044820152606401610aa5565b8160ff1660011415611df65760008082806020019051810190611de19190615375565b9250925050611df082826131c3565b50505050565b8160ff1660021415611e3157600080600083806020019051810190611e1b91906155b5565b93509350935050611e2d818385613b9c565b5050505b5050565b81611e3f81610afb565b611e8b5760405162461bcd60e51b815260206004820152600f60248201527f5461736b206e6f742065786973747300000000000000000000000000000000006044820152606401610aa5565b60026001541415611ede5760405162461bcd60e51b815260206004820152601f60248201527f5265656e7472616e637947756172643a207265656e7472616e742063616c6c006044820152606401610aa5565b600260018190556000848152609c602052604090206004015474010000000000000000000000000000000000000000900460ff166005811115611f2357611f23615e3d565b14611f705760405162461bcd60e51b815260206004820152600960248201527f4e6f7420436c6f736500000000000000000000000000000000000000000000006044820152606401610aa5565b609854604080517fedd3159d00000000000000000000000000000000000000000000000000000000815290516000926001600160a01b03169163edd3159d916004808301926020929190829003018186803b158015611fce57600080fd5b505afa158015611fe2573d6000803e3d6000fd5b505050506040513d601f19601f820116820180604052508101906120069190614ef8565b6001600160a01b031663463fb8c6856040518263ffffffff1660e01b815260040161203391815260200190565b60206040518083038186803b15801561204b57600080fd5b505afa15801561205f573d6000803e3d6000fd5b505050506040513d601f19601f820116820180604052508101906120839190615598565b905060008163ffffffff16116120db5760405162461bcd60e51b815260206004820152600960248201527f4e6f7420447261776e00000000000000000000000000000000000000000000006044820152606401610aa5565b6000848152609d602052604090205463ffffffff8216111561213f5760405162461bcd60e51b815260206004820152600f60248201527f496e76616c69642066696e616c4e6f00000000000000000000000000000000006044820152606401610aa5565b600061214b8583613d8e565b805190915061219c5760405162461bcd60e51b815260206004820152600b60248201527f4c6f73742077696e6e65720000000000000000000000000000000000000000006044820152606401610aa5565b6000858152609c6020908152604080832060040180547fffffffffffffffffffffff00ffffffffffffffffffffffffffffffffffffffff16740300000000000000000000000000000000000000001790558351609d909252918290206002015581015161220d908690600187613877565b61221b858260400151613eb4565b60408181015181518781526001600160a01b03909116602082015263ffffffff84168183015290517f3f3025585478f6771e5973f8ff9aa514d8592d3648a98da300f46bb7e1cc05169181900360600190a1505060018055505050565b60006122846001614566565b905080156122b957600080547fffffffffffffffffffffffffffffffffffffffffffffffffffffffffffff00ff166101001790555b6122c16146bd565b6122c9614742565b609b80547fffffffffffffffffff000000ffffffffffffffffffffffffffffffffffffffff167401000000000000000000000000000000000000000061ffff8616027fffffffffffffffffff00ffffffffffffffffffffffffffffffffffffffffffff16177601000000000000000000000000000000000000000000008415150217905580156123b157600080547fffffffffffffffffffffffffffffffffffffffffffffffffffffffffffff00ff169055604051600181527f7f26b83ff96e1f2b6a682f133852f6798a09c465da95921460cefb3847402498906020015b60405180910390a15b505050565b816123c081610afb565b61240c5760405162461bcd60e51b815260206004820152600f60248201527f5461736b206e6f742065786973747300000000000000000000000000000000006044820152606401610aa5565b6002600154141561245f5760405162461bcd60e51b815260206004820152601f60248201527f5265656e7472616e637947756172643a207265656e7472616e742063616c6c006044820152606401610aa5565b600260019081556000848152609c602052604090206004015474010000000000000000000000000000000000000000900460ff1660058111156124a4576124a4615e3d565b146124f15760405162461bcd60e51b815260206004820152600860248201527f4e6f74204f70656e0000000000000000000000000000000000000000000000006044820152606401610aa5565b6000838152609c602052604090206007810154600c9091015410158061252757506000838152609c602052604090206006015442115b6125735760405162461bcd60e51b815260206004820152601f60248201527f4e6f7420726561636820746172676574206f72206e6f742065787069726564006044820152606401610aa5565b6000838152609d6020908152604080832042600190910155609c90915290206007810154600c9091015410612b04576000838152609c6020908152604091829020600490810180547fffffffffffffffffffffff00ffffffffffffffffffffffffffffffffffffffff167402000000000000000000000000000000000000000017905560985483517fedd3159d00000000000000000000000000000000000000000000000000000000815293516001600160a01b039091169363edd3159d9381840193909291829003018186803b15801561264d57600080fd5b505afa158015612661573d6000803e3d6000fd5b505050506040513d601f19601f820116820180604052508101906126859190614ef8565b6000848152609d6020526040908190205490517f19c019890000000000000000000000000000000000000000000000000000000081526004810186905260248101919091526001600160a01b0391909116906319c0198990604401600060405180830381600087803b1580156126fa57600080fd5b505af115801561270e573d6000803e3d6000fd5b5050609854604080517f3156a58d0000000000000000000000000000000000000000000000000000000081529051600094506001600160a01b039092169250633156a58d916004808301926020929190829003018186803b15801561277257600080fd5b505afa158015612786573d6000803e3d6000fd5b505050506040513d601f19601f820116820180604052508101906127aa9190614ef8565b6001600160a01b03161461295157609860009054906101000a90046001600160a01b03166001600160a01b0316633156a58d6040518163ffffffff1660e01b815260040160206040518083038186803b15801561280657600080fd5b505afa15801561281a573d6000803e3d6000fd5b505050506040513d601f19601f8201168201806040525081019061283e9190614ef8565b6001600160a01b031662b34ebd84609860009054906101000a90046001600160a01b03166001600160a01b03166319af32536040518163ffffffff1660e01b815260040160206040518083038186803b15801561289a57600080fd5b505afa1580156128ae573d6000803e3d6000fd5b505050506040513d601f19601f820116820180604052508101906128d29190615598565b6128e29063ffffffff1642615d02565b6040517fffffffff0000000000000000000000000000000000000000000000000000000060e085901b16815260048101929092526024820152604401600060405180830381600087803b15801561293857600080fd5b505af115801561294c573d6000803e3d6000fd5b505050505b6000838152609c60205260409020546001600160a01b031633148015612a145750609854604080517f2396197500000000000000000000000000000000000000000000000000000000815290516000926001600160a01b0316916323961975916004808301926020929190829003018186803b1580156129d057600080fd5b505afa1580156129e4573d6000803e3d6000fd5b505050506040513d601f19601f82011682018060405250810190612a089190614ef8565b6001600160a01b031614155b15612aff57609860009054906101000a90046001600160a01b03166001600160a01b031663239619756040518163ffffffff1660e01b815260040160206040518083038186803b158015612a6757600080fd5b505afa158015612a7b573d6000803e3d6000fd5b505050506040513d601f19601f82011682018060405250810190612a9f9190614ef8565b6001600160a01b031663c3084117846040518263ffffffff1660e01b8152600401612acc91815260200190565b600060405180830381600087803b158015612ae657600080fd5b505af1158015612afa573d6000803e3d6000fd5b505050505b612b6a565b6000838152609c602052604081206004810180547fffffffffffffffffffffff00ffffffffffffffffffffffffffffffffffffffff167404000000000000000000000000000000000000000017905554612b6a9185916001600160a01b03169085613877565b6000838152609c6020526040908190206004015490517f8bd3be2963318bc29de9701e2edec7b2546ea1b285e0d51596a7bc9e6aa7fe3091611afe91869133917401000000000000000000000000000000000000000090910460ff1690615b32565b6065546001600160a01b03163314612c265760405162461bcd60e51b815260206004820181905260248201527f4f776e61626c653a2063616c6c6572206973206e6f7420746865206f776e65726044820152606401610aa5565b6001600160a01b038116612ca25760405162461bcd60e51b815260206004820152602660248201527f4f776e61626c653a206e6577206f776e657220697320746865207a65726f206160448201527f64647265737300000000000000000000000000000000000000000000000000006064820152608401610aa5565b612cab816135f8565b50565b81612cb881610afb565b612d045760405162461bcd60e51b815260206004820152600f60248201527f5461736b206e6f742065786973747300000000000000000000000000000000006044820152606401610aa5565b6000838152609c60205260409020546001600160a01b03163314612d6a5760405162461bcd60e51b815260206004820152600a60248201527f6f6e6c7953656c6c6572000000000000000000000000000000000000000000006044820152606401610aa5565b61010082511115612dbd5760405162461bcd60e51b815260206004820152601060248201527f496e76616c6964206e6f7465206c656e000000000000000000000000000000006044820152606401610aa5565b7e9dd9efb560a7c39b5c7455b4abbedee97f113fc547bffaa75f0bf316f13cf183836040516123a8929190615b95565b80612df781610afb565b612e435760405162461bcd60e51b815260206004820152600f60248201527f5461736b206e6f742065786973747300000000000000000000000000000000006044820152606401610aa5565b6000828152609c6020908152604080832081516101e08101835281546001600160a01b0380821683527401000000000000000000000000000000000000000090910461ffff168286015260018301541681840152600282018054845181870281018701909552808552919492936060860193909290830182828015612ee757602002820191906000526020600020905b815481526020019060010190808311612ed3575b5050505050815260200160038201805480602002602001604051908101604052809291908181526020018280548015612f3f57602002820191906000526020600020905b815481526020019060010190808311612f2b575b505050918352505060048201546001600160a01b038116602083015260409091019074010000000000000000000000000000000000000000900460ff166005811115612f8d57612f8d615e3d565b6005811115612f9e57612f9e615e3d565b8152600582015460208083019190915260068301546040808401919091526007840154606084015260088401546080840152600984015461ffff1660a08401528051808201909152600a8401546001600160a01b03168152600b8401549181019190915260c0820152600c82015460e0820152600d9091015461010090910152905061302983611b0f565b6130755760405162461bcd60e51b815260206004820152600860248201527f4e6f74204661696c0000000000000000000000000000000000000000000000006044820152606401610aa5565b33600090815260a06020908152604080832086845290915290206001015460ff16156130e35760405162461bcd60e51b815260206004820152600760248201527f436c61696d6564000000000000000000000000000000000000000000000000006044820152606401610aa5565b33600090815260a06020908152604080832086845290915281205461014083015161310d91613662565b33600081815260a0602081815260408084208a8552909152909120600190810180547fffffffffffffffffffffffffffffffffffffffffffffffffffffffffffffff001690911790558401519192506131679190836147c7565b60a0820151604080518681523360208201529081018390526001600160a01b0390911660608201527f8519296219951e1d116256cc20f1ea8c0aa35633f684a8b3bc42e4b6ffa17a5b906080015b60405180910390a150505050565b609b54760100000000000000000000000000000000000000000000900460ff1661322f5760405162461bcd60e51b815260206004820152600e60248201527f4e6f7420616c6c6f77207461736b0000000000000000000000000000000000006044820152606401610aa5565b6098546040517fc735fd740000000000000000000000000000000000000000000000000000000081526001600160a01b039091169063c735fd7490613278908590600401615a0f565b60206040518083038186803b15801561329057600080fd5b505afa1580156132a4573d6000803e3d6000fd5b505050506040513d601f19601f820116820180604052508101906132c89190614ff7565b506132d7609780546001019055565b60006132e260975490565b905060018360c0015160058111156132fc576132fc615e3d565b141561332357428360e00151106133135742613319565b8260e001515b60e0840152613393565b8260e00151421115801561333f57508261010001518360e00151105b61338b5760405162461bcd60e51b815260206004820152601260248201527f496e76616c69642074696d652072616e676500000000000000000000000000006044820152606401610aa5565b600060c08401525b6000818152609c6020908152604091829020855181548388015161ffff1674010000000000000000000000000000000000000000027fffffffffffffffffffff000000000000000000000000000000000000000000009091166001600160a01b039283161717825592860151600182018054919094167fffffffffffffffffffffffff000000000000000000000000000000000000000091909116179092556060850151805186939261344d926002850192910190614abd565b5060808201518051613469916003840191602090910190614abd565b5060a08201516004820180546001600160a01b039092167fffffffffffffffffffffffff000000000000000000000000000000000000000083168117825560c0850151927fffffffffffffffffffffff0000000000000000000000000000000000000000001617740100000000000000000000000000000000000000008360058111156134f8576134f8615e3d565b021790555060e082015160058201556101008201516006820155610120820151600782015561014082015160088201556101608201516009820180547fffffffffffffffffffffffffffffffffffffffffffffffffffffffffffff00001661ffff9092169190911790556101808201518051600a830180547fffffffffffffffffffffffff0000000000000000000000000000000000000000166001600160a01b0390921691909117905560200151600b8201556101a0820151600c8201556101c090910151600d909101556040517f0c51dc45078ee7d51611387251b9b023fb2b4c14ab4bdac08bca2820f8a101ea906123a890839086908690615bae565b606580546001600160a01b038381167fffffffffffffffffffffffff0000000000000000000000000000000000000000831681179093556040519116919082907f8be0079c531659141344cd1fd0a4f28419497f9722a3daafe3b4186f6b6457e090600090a35050565b600061366e8284615d55565b9392505050565b6000838152609d6020526040812054819061369190600161386b565b905060006136b360016136ad8463ffffffff808a169061386b16565b90614821565b905060405180606001604052808281526020018663ffffffff168152602001856001600160a01b0316815250609e600088815260200190815260200160002060008381526020019081526020016000206000820151816000015560208201518160010160006101000a81548163ffffffff021916908363ffffffff16021790555060408201518160010160046101000a8154816001600160a01b0302191690836001600160a01b03160217905550905050609f60008781526020019081526020016000208190806001815401808255809150506001900390600052602060002001600090919091909150558463ffffffff1660a06000866001600160a01b03166001600160a01b03168152602001908152602001600020600088815260200190815260200160002060000160008282546137ed9190615d02565b90915550506000868152609d602090815260409182902083905581518881526001600160a01b0387169181019190915263ffffffff871681830152606081018490526080810183905290517fae00b050d09a294dbf7d73b4f1087967802e04b95ba34f770bb22cc1fca4e7429181900360a00190a195945050505050565b600061366e8284615d02565b6000848152609c6020526040902054609b54740100000000000000000000000000000000000000009182900461ffff908116929091041614156138e6576000848152609c60205260409020600d8101546001909101546138e191906001600160a01b031685613b9c565b611df0565b8115611df057609b546000858152609c60205260409081902080546001820154600d9092015492517f8305de610000000000000000000000000000000000000000000000000000000081526001600160a01b0394851694638305de619434946139789474010000000000000000000000000000000000000000900461ffff169333938c93921691908a90600401615a22565b6000604051808303818588803b15801561399157600080fd5b505af11580156139a5573d6000803e3d6000fd5b505050505050505050565b816139ba81610afb565b613a065760405162461bcd60e51b815260206004820152600f60248201527f5461736b206e6f742065786973747300000000000000000000000000000000006044820152606401610aa5565b6000838152609c60205260409020546001600160a01b0316613a2784611b0f565b613a735760405162461bcd60e51b815260206004820152600860248201527f4e6f74204661696c0000000000000000000000000000000000000000000000006044820152606401610aa5565b6001600160a01b038116600090815260a06020908152604080832087845290915290206001015460ff1615613aea5760405162461bcd60e51b815260206004820152600760248201527f436c61696d6564000000000000000000000000000000000000000000000000006044820152606401610aa5565b6001600160a01b038116600090815260a0602090815260408083208784529091529020600190810180547fffffffffffffffffffffffffffffffffffffffffffffffffffffffffffffff001682179055613b48908590839086613877565b6000848152609c602052604090819020600181015491517f3090bc03795e5c190b39b7112509502697a7212984f74dabf6842a2b48ee1e77926131b592889286926001600160a01b03169160020190615ac4565b6098546040517f9aeecea50000000000000000000000000000000000000000000000000000000081526001600160a01b03848116600483015290911690639aeecea59060240160206040518083038186803b158015613bfa57600080fd5b505afa158015613c0e573d6000803e3d6000fd5b505050506040513d601f19601f82011682018060405250810190613c329190614ff7565b15613d3e57609860009054906101000a90046001600160a01b03166001600160a01b0316639571581c6040518163ffffffff1660e01b815260040160206040518083038186803b158015613c8557600080fd5b505afa158015613c99573d6000803e3d6000fd5b505050506040513d601f19601f82011682018060405250810190613cbd9190614ef8565b6040517ef714ce000000000000000000000000000000000000000000000000000000008152600481018590526001600160a01b038381166024830152919091169062f714ce906044015b600060405180830381600087803b158015613d2157600080fd5b505af1158015613d35573d6000803e3d6000fd5b50505050505050565b6099546040517ef714ce000000000000000000000000000000000000000000000000000000008152600481018590526001600160a01b0383811660248301529091169062f714ce90604401613d07565b60408051606081018252600080825260208201819052918101919091526000838152609e6020908152604080832063ffffffff86811685529083529281902081516060810183528154808252600190920154948516938101939093526401000000009093046001600160a01b0316908201529061366e576000848152609f60205260408120613e269063ffffffff8087169061482d16565b6000868152609f602052604081208054929350909183908110613e4b57613e4b615e6c565b600091825260208083209190910154888352609e825260408084209184529082529182902082516060810184528154815260019091015463ffffffff8116928201929092526401000000009091046001600160a01b031691810191909152925050509392505050565b6000828152609c60209081526040808320600480820154600c9092015460985484517fa5a4103100000000000000000000000000000000000000000000000000000000815294516001600160a01b0394851697929687969395613f839561271095613f7d959092169363a5a410319383830193909290829003018186803b158015613f3e57600080fd5b505afa158015613f52573d6000803e3d6000fd5b505050506040513d601f19601f82011682018060405250810190613f76919061524c565b8690613662565b906148f0565b90506000609860009054906101000a90046001600160a01b03166001600160a01b03166372c8fc0e6040518163ffffffff1660e01b815260040160206040518083038186803b158015613fd557600080fd5b505afa158015613fe9573d6000803e3d6000fd5b505050506040513d601f19601f8201168201806040525081019061400d9190614ef8565b90506140198383614821565b6000888152609c6020526040812060090154919450908190606090819061ffff161561427057609860009054906101000a90046001600160a01b03166001600160a01b03166393f1c9116040518163ffffffff1660e01b815260040160206040518083038186803b15801561408d57600080fd5b505afa1580156140a1573d6000803e3d6000fd5b505050506040513d601f19601f820116820180604052508101906140c59190614ef8565b60008c8152609c6020526040908190206009015490517f74a0a25100000000000000000000000000000000000000000000000000000000815261ffff90911660048201526001600160a01b038c81166024830152604482018e905291909116906374a0a2519060640160006040518083038186803b15801561414657600080fd5b505afa15801561415a573d6000803e3d6000fd5b505050506040513d6000823e601f3d9081017fffffffffffffffffffffffffffffffffffffffffffffffffffffffffffffffe01682016040526141a09190810190615265565b919450925090506113888311156141f95760405162461bcd60e51b815260206004820152601060248201527f496e76616c6964207374726174656779000000000000000000000000000000006044820152606401610aa5565b600a8251111561424b5760405162461bcd60e51b815260206004820152601260248201527f496e76616c69642073706c6974536861726500000000000000000000000000006044820152606401610aa5565b821561427057614261612710613f7d8a86613662565b935061426d8785614821565b96505b61427b8986886147c7565b604080518c81526001600160a01b0387811660208301528b16818301526060810188905290517f12904628fc3f4d088dc43c89ce57d125affd9814ed762f3463aafbdd6695cdb49181900360800190a183156144d257600082511180156142e3575080518251145b156144765761271060005b835181101561444c57600061432585838151811061430e5761430e615e6c565b60200260200101518461482190919063ffffffff16565b1015801561434c5750600084828151811061434257614342615e6c565b6020026020010151115b1561443a576000614385612710613f7d87858151811061436e5761436e615e6c565b60200260200101518a61366290919063ffffffff16565b90506143ab8c85848151811061439d5761439d615e6c565b6020026020010151836147c7565b6143c085838151811061430e5761430e615e6c565b92507ff19eb0aac803899ad79b0cb5b824183d99a0b555de9c57ef33a9c6d7cb677bbb8e8584815181106143f6576143f6615e6c565b60200260200101518e8460405161443094939291909384526001600160a01b03928316602085015291166040830152606082015260800190565b60405180910390a1505b8061444481615dd5565b9150506142ee565b5080156144705761446d614466612710613f7d8885613662565b899061386b565b97505b506144d2565b614481898b866147c7565b604080518c81526001600160a01b038c811660208301528b16818301526060810186905290517ff19eb0aac803899ad79b0cb5b824183d99a0b555de9c57ef33a9c6d7cb677bbb9181900360800190a15b60008b8152609c60205260409020546144f6908a906001600160a01b0316896147c7565b60008b8152609c60209081526040918290205482518e81526001600160a01b03918216928101929092528b16818301526060810189905290517ffa4054066d213019ba303aa80eb69385480b4c77c8591269524b9f9861936ef49181900360800190a15050505050505050505050565b60008054610100900460ff1615614603578160ff1660011480156145895750303b155b6145fb5760405162461bcd60e51b815260206004820152602e60248201527f496e697469616c697a61626c653a20636f6e747261637420697320616c72656160448201527f647920696e697469616c697a65640000000000000000000000000000000000006064820152608401610aa5565b506000919050565b60005460ff8084169116106146805760405162461bcd60e51b815260206004820152602e60248201527f496e697469616c697a61626c653a20636f6e747261637420697320616c72656160448201527f647920696e697469616c697a65640000000000000000000000000000000000006064820152608401610aa5565b50600080547fffffffffffffffffffffffffffffffffffffffffffffffffffffffffffffff001660ff92909216919091179055600190565b919050565b600054610100900460ff1661473a5760405162461bcd60e51b815260206004820152602b60248201527f496e697469616c697a61626c653a20636f6e7472616374206973206e6f74206960448201527f6e697469616c697a696e670000000000000000000000000000000000000000006064820152608401610aa5565b6111666148fc565b600054610100900460ff166147bf5760405162461bcd60e51b815260206004820152602b60248201527f496e697469616c697a61626c653a20636f6e7472616374206973206e6f74206960448201527f6e697469616c697a696e670000000000000000000000000000000000000000006064820152608401610aa5565b61116661497f565b609a546040517fd9caed120000000000000000000000000000000000000000000000000000000081526001600160a01b0384811660048301528581166024830152604482018490529091169063d9caed1290606401613d07565b600061366e8284615d92565b815460009061483e57506000610b0e565b82546000905b8082101561489a5760006148588383614a05565b90508486828154811061486d5761486d615e6c565b9060005260206000200154111561488657809150614894565b614891816001615d02565b92505b50614844565b6000821180156148cf575083856148b2600185615d92565b815481106148c2576148c2615e6c565b9060005260206000200154145b156148e8576148df600183615d92565b92505050610b0e565b509050610b0e565b600061366e8284615d1a565b600054610100900460ff166149795760405162461bcd60e51b815260206004820152602b60248201527f496e697469616c697a61626c653a20636f6e7472616374206973206e6f74206960448201527f6e697469616c697a696e670000000000000000000000000000000000000000006064820152608401610aa5565b60018055565b600054610100900460ff166149fc5760405162461bcd60e51b815260206004820152602b60248201527f496e697469616c697a61626c653a20636f6e7472616374206973206e6f74206960448201527f6e697469616c697a696e670000000000000000000000000000000000000000006064820152608401610aa5565b611166336135f8565b6000614a146002848418615d1a565b61366e90848416615d02565b604080516101e0810182526000808252602082018190529181018290526060808201819052608082015260a081018290529060c0820190815260200160008152602001600081526020016000815260200160008152602001600061ffff168152602001614aa9604051806040016040528060006001600160a01b03168152602001600081525090565b815260200160008152602001600081525090565b828054828255906000526020600020908101928215614af8579160200282015b82811115614af8578251825591602001919060010190614add565b50614b04929150614b08565b5090565b5b80821115614b045760008155600101614b09565b80356146b881615eca565b80516146b881615eca565b600082601f830112614b4457600080fd5b81356020614b59614b5483615c98565b615c49565b80838252828201915082860187848660051b8901011115614b7957600080fd5b60005b85811015614b9857813584529284019290840190600101614b7c565b5090979650505050505050565b600082601f830112614bb657600080fd5b81516020614bc6614b5483615c98565b80838252828201915082860187848660051b8901011115614be657600080fd5b60005b85811015614b9857815184529284019290840190600101614be9565b600082601f830112614c1657600080fd5b8135614c24614b5482615cbc565b818152846020838601011115614c3957600080fd5b816020850160208301376000918101602001919091529392505050565b80356146b881615eed565b80516146b881615eed565b600082601f830112614c7d57600080fd5b8151614c8b614b5482615cbc565b818152846020838601011115614ca057600080fd5b614cb1826020830160208701615da9565b949350505050565b600060408284031215614ccb57600080fd5b614cd3615bd9565b90508135614ce081615eca565b808252506020820135602082015292915050565b600060408284031215614d0657600080fd5b614d0e615bd9565b90508151614d1b81615eca565b808252506020820151602082015292915050565b600060608284031215614d4157600080fd5b614d49615c02565b90508135614d5681615efa565b8152602082013567ffffffffffffffff80821115614d7357600080fd5b614d7f85838601614c05565b60208401526040840135915080821115614d9857600080fd5b50614da584828501614c05565b60408301525092915050565b600060608284031215614dc357600080fd5b614dcb615c02565b90508151614dd881615efa565b8152602082015167ffffffffffffffff80821115614df557600080fd5b614e0185838601614c6c565b60208401526040840151915080821115614e1a57600080fd5b50614da584828501614c6c565b600060808284031215614e3957600080fd5b6040516080810167ffffffffffffffff8282108183111715614e5d57614e5d615e9b565b8160405282935084358352602085013560208401526040850135915080821115614e8657600080fd5b614e9286838701614c05565b60408401526060850135915080821115614eab57600080fd5b50614eb885828601614c05565b6060830152505092915050565b80356146b881615efa565b80516146b881615efa565b600060208284031215614eed57600080fd5b813561366e81615eca565b600060208284031215614f0a57600080fd5b815161366e81615eca565b60008060408385031215614f2857600080fd5b8235614f3381615eca565b946020939093013593505050565b600060208284031215614f5357600080fd5b813567ffffffffffffffff811115614f6a57600080fd5b614cb184828501614b33565b60008060408385031215614f8957600080fd5b823567ffffffffffffffff80821115614fa157600080fd5b614fad86838701614b33565b93506020850135915080821115614fc357600080fd5b50614fd085828601614e27565b9150509250929050565b600060208284031215614fec57600080fd5b813561366e81615edf565b60006020828403121561500957600080fd5b815161366e81615edf565b60008060006060848603121561502957600080fd5b833561503481615eca565b9250602084013561504481615eca565b9150604084013561505481615eca565b809150509250925092565b60008060006060848603121561507457600080fd5b833567ffffffffffffffff8082111561508c57600080fd5b9085019061020082880312156150a157600080fd5b6150a9615c25565b6150b283614b1d565b81526150c060208401614ec5565b60208201526150d160408401614b1d565b60408201526060830135828111156150e857600080fd5b6150f489828601614b33565b60608301525060808301358281111561510c57600080fd5b61511889828601614b33565b60808301525061512a60a08401614b1d565b60a082015261513b60c08401614c56565b60c082015260e08381013590820152610100808401359082015261012080840135908201526101408084013590820152610160615179818501614ec5565b9082015261018061518c89858301614cb9565b81830152506101c0808401356101a08301526101e084013581830152508095505060208601359150808211156151c157600080fd5b6151cd87838801614d2f565b935060408601359150808211156151e357600080fd5b506151f086828701614e27565b9150509250925092565b6000806040838503121561520d57600080fd5b823561521881615efa565b9150602083013561522881615edf565b809150509250929050565b60006020828403121561524557600080fd5b5035919050565b60006020828403121561525e57600080fd5b5051919050565b60008060006060848603121561527a57600080fd5b8351925060208085015167ffffffffffffffff8082111561529a57600080fd5b6152a688838901614ba5565b945060408701519150808211156152bc57600080fd5b508501601f810187136152ce57600080fd5b80516152dc614b5482615c98565b8082825284820191508484018a868560051b87010111156152fc57600080fd5b600094505b8385101561532857805161531481615eca565b835260019490940193918501918501615301565b5080955050505050509250925092565b6000806040838503121561534b57600080fd5b82359150602083013567ffffffffffffffff81111561536957600080fd5b614fd085828601614c05565b60008060006060848603121561538a57600080fd5b83519250602084015167ffffffffffffffff808211156153a957600080fd5b9085019061020082880312156153be57600080fd5b6153c6615c25565b6153cf83614b28565b81526153dd60208401614ed0565b60208201526153ee60408401614b28565b604082015260608301518281111561540557600080fd5b61541189828601614ba5565b60608301525060808301518281111561542957600080fd5b61543589828601614ba5565b60808301525061544760a08401614b28565b60a082015261545860c08401614c61565b60c082015260e08381015190820152610100808401519082015261012080840151908201526101408084015190820152610160615496818501614ed0565b908201526101806154a989858301614cf4565b908201526101c0838101516101a08301526101e090930151928101929092526040860151919350808211156154dd57600080fd5b506151f086828701614db1565b600080604083850312156154fd57600080fd5b82359150602083013567ffffffffffffffff81111561551b57600080fd5b614fd085828601614e27565b6000806040838503121561553a57600080fd5b50508035926020909101359150565b60008060006060848603121561555e57600080fd5b83359250602084013561557081615f0a565b9150604084013567ffffffffffffffff81111561558c57600080fd5b6151f086828701614c05565b6000602082840312156155aa57600080fd5b815161366e81615f0a565b600080600080608085870312156155cb57600080fd5b84516155d681615f1c565b60208601519094506155e781615eca565b60408601519093506155f881615eca565b6060959095015193969295505050565b6000806040838503121561561b57600080fd5b823561562681615f1c565b9150602083013567ffffffffffffffff81111561536957600080fd5b600081518084526020808501945080840160005b8381101561567257815187529582019590820190600101615656565b509495945050505050565b60008151808452615695816020860160208601615da9565b601f017fffffffffffffffffffffffffffffffffffffffffffffffffffffffffffffffe0169290920160200192915050565b600681106156fe577f4e487b7100000000000000000000000000000000000000000000000000000000600052602160045260246000fd5b9052565b61ffff81511682526000602082015160606020850152615725606085018261567d565b90506040830151848203604086015261573e828261567d565b95945050505050565b80516001600160a01b031682526000610200602083015161576e602086018261ffff169052565b50604083015161578960408601826001600160a01b03169052565b5060608301518160608601526157a182860182615642565b915050608083015184820360808601526157bb8282615642565b91505060a08301516157d860a08601826001600160a01b03169052565b5060c08301516157eb60c08601826156c7565b5060e083810151908501526101008084015190850152610120808401519085015261014080840151908501526101608084015161ffff81168287015250506101808381015180516001600160a01b03168683015260208101516101a087015250506101a08301516101c085810191909152909201516101e090930192909252919050565b80518252602081015160208301526000604082015160806040850152615898608085018261567d565b90506060830151848203606086015261573e828261567d565b60006001600160a01b03808816835280871660208401525060a060408301526158dd60a0830186615642565b82810360608401526158ef8186615642565b9150508260808301529695505050505050565b6001600160a01b0383168152604060208201526000614cb16040830184615747565b6001600160a01b038e8116825261ffff8e1660208301528c811660408301528b1660608201526101c0810161595c608083018c6156c7565b8960a08301528860c08301528760e08301528661010083015261ffff86166101208301526159a161014083018680516001600160a01b03168252602090810151910152565b6101808201939093526101a001529b9a5050505050505050505050565b6001600160a01b038516815283602082015263ffffffff831660408201526080606082015260006159f2608083018461567d565b9695505050505050565b60208152600061366e6020830184615702565b60208152600061366e6020830184615747565b61ffff8716815260006001600160a01b038088166020840152808716604084015280861660608401525083608083015260c060a0830152615a6660c083018461586f565b98975050505050505050565b61ffff861681526001600160a01b038516602082015260a060408201526000615a9e60a0830186615747565b8281036060840152615ab08186615702565b90508281036080840152615a66818561586f565b60006080820186835260206001600160a01b03808816828601528087166040860152506080606085015281855480845260a0860191508660005282600020935060005b81811015615b2357845483526001948501949284019201615b07565b50909998505050505050505050565b8381526001600160a01b038316602082015260608101614cb160408301846156c7565b8681526001600160a01b038616602082015284604082015263ffffffff8416606082015282608082015260c060a08201526000615a6660c083018461567d565b828152604060208201526000614cb1604083018461567d565b838152606060208201526000615bc76060830185615747565b82810360408401526159f28185615702565b6040805190810167ffffffffffffffff81118282101715615bfc57615bfc615e9b565b60405290565b6040516060810167ffffffffffffffff81118282101715615bfc57615bfc615e9b565b6040516101e0810167ffffffffffffffff81118282101715615bfc57615bfc615e9b565b604051601f82017fffffffffffffffffffffffffffffffffffffffffffffffffffffffffffffffe016810167ffffffffffffffff81118282101715615c9057615c90615e9b565b604052919050565b600067ffffffffffffffff821115615cb257615cb2615e9b565b5060051b60200190565b600067ffffffffffffffff821115615cd657615cd6615e9b565b50601f017fffffffffffffffffffffffffffffffffffffffffffffffffffffffffffffffe01660200190565b60008219821115615d1557615d15615e0e565b500190565b600082615d50577f4e487b7100000000000000000000000000000000000000000000000000000000600052601260045260246000fd5b500490565b6000817fffffffffffffffffffffffffffffffffffffffffffffffffffffffffffffffff0483118215151615615d8d57615d8d615e0e565b500290565b600082821015615da457615da4615e0e565b500390565b60005b83811015615dc4578181015183820152602001615dac565b83811115611df05750506000910152565b60007fffffffffffffffffffffffffffffffffffffffffffffffffffffffffffffffff821415615e0757615e07615e0e565b5060010190565b7f4e487b7100000000000000000000000000000000000000000000000000000000600052601160045260246000fd5b7f4e487b7100000000000000000000000000000000000000000000000000000000600052602160045260246000fd5b7f4e487b7100000000000000000000000000000000000000000000000000000000600052603260045260246000fd5b7f4e487b7100000000000000000000000000000000000000000000000000000000600052604160045260246000fd5b6001600160a01b0381168114612cab57600080fd5b8015158114612cab57600080fd5b60068110612cab57600080fd5b61ffff81168114612cab57600080fd5b63ffffffff81168114612cab57600080fd5b60ff81168114612cab57600080fdfea26469706673582212204bdb54ae59f1663e3e66fbbf09c0332f2dbf048a7a7fdfdd3e3b5ef7ef776dd764736f6c63430008060033","abi":[{"anonymous":false,"inputs":[{"indexed":false,"internalType":"uint256","name":"taskId","type":"uint256"},{"indexed":false,"internalType":"address","name":"seller","type":"address"}],"name":"CancelTask","type":"event"},{"anonymous":false,"inputs":[{"indexed":false,"internalType":"uint256","name":"taskId","type":"uint256"},{"indexed":false,"internalType":"address","name":"seller","type":"address"},{"indexed":false,"internalType":"address","name":"nftContract","type":"address"},{"indexed":false,"internalType":"uint256[]","name":"tokenIds","type":"uint256[]"}],"name":"ClaimNFT","type":"event"},{"anonymous":false,"inputs":[{"indexed":false,"internalType":"uint256","name":"taskId","type":"uint256"},{"indexed":false,"internalType":"address","name":"caller","type":"address"},{"indexed":false,"internalType":"uint256","name":"amount","type":"uint256"},{"indexed":false,"internalType":"address","name":"acceptToken","type":"address"}],"name":"ClaimToken","type":"event"},{"anonymous":false,"inputs":[{"indexed":false,"internalType":"uint256","name":"taskId","type":"uint256"},{"indexed":false,"internalType":"address","name":"caller","type":"address"},{"indexed":false,"internalType":"enum TaskStatus","name":"status","type":"uint8"}],"name":"CloseTask","type":"event"},{"anonymous":false,"inputs":[{"indexed":false,"internalType":"uint256","name":"taskId","type":"uint256"},{"components":[{"internalType":"address","name":"seller","type":"address"},{"internalType":"uint16","name":"nftChainId","type":"uint16"},{"internalType":"address","name":"nftContract","type":"address"},{"internalType":"uint256[]","name":"tokenIds","type":"uint256[]"},{"internalType":"uint256[]","name":"tokenAmounts","type":"uint256[]"},{"internalType":"address","name":"acceptToken","type":"address"},{"internalType":"enum TaskStatus","name":"status","type":"uint8"},{"internalType":"uint256","name":"startTime","type":"uint256"},{"internalType":"uint256","name":"endTime","type":"uint256"},{"internalType":"uint256","name":"targetAmount","type":"uint256"},{"internalType":"uint256","name":"price","type":"uint256"},{"internalType":"uint16","name":"paymentStrategy","type":"uint16"},{"components":[{"internalType":"address","name":"token","type":"address"},{"internalType":"uint256","name":"amount","type":"uint256"}],"internalType":"struct ExclusiveToken","name":"exclusiveToken","type":"tuple"},{"internalType":"uint256","name":"amountCollected","type":"uint256"},{"internalType":"uint256","name":"depositId","type":"uint256"}],"indexed":false,"internalType":"struct TaskItem","name":"item","type":"tuple"},{"components":[{"internalType":"uint16","name":"chainId","type":"uint16"},{"internalType":"string","name":"title","type":"string"},{"internalType":"string","name":"note","type":"string"}],"indexed":false,"internalType":"struct TaskExt","name":"ext","type":"tuple"}],"name":"CreateTask","type":"event"},{"anonymous":false,"inputs":[{"indexed":false,"internalType":"uint256","name":"taskId","type":"uint256"},{"indexed":false,"internalType":"address","name":"buyer","type":"address"},{"indexed":false,"internalType":"uint256","name":"num","type":"uint256"},{"indexed":false,"internalType":"uint256","name":"start","type":"uint256"},{"indexed":false,"internalType":"uint256","name":"end","type":"uint256"}],"name":"CreateTickets","type":"event"},{"anonymous":false,"inputs":[{"indexed":false,"internalType":"uint8","name":"version","type":"uint8"}],"name":"Initialized","type":"event"},{"anonymous":false,"inputs":[{"indexed":false,"internalType":"uint256","name":"taskId","type":"uint256"},{"indexed":false,"internalType":"address","name":"buyer","type":"address"},{"indexed":false,"internalType":"uint256","name":"amount","type":"uint256"},{"indexed":false,"internalType":"uint256","name":"count","type":"uint256"},{"indexed":false,"internalType":"uint256","name":"number","type":"uint256"},{"indexed":false,"internalType":"string","name":"note","type":"string"}],"name":"JoinTask","type":"event"},{"anonymous":false,"inputs":[{"indexed":true,"internalType":"address","name":"previousOwner","type":"address"},{"indexed":true,"internalType":"address","name":"newOwner","type":"address"}],"name":"OwnershipTransferred","type":"event"},{"anonymous":false,"inputs":[{"indexed":false,"internalType":"uint256","name":"taskId","type":"uint256"},{"indexed":false,"internalType":"address","name":"winner","type":"address"},{"indexed":false,"internalType":"uint256","name":"number","type":"uint256"}],"name":"PickWinner","type":"event"},{"anonymous":false,"inputs":[{"indexed":false,"internalType":"uint256","name":"taskId","type":"uint256"},{"indexed":false,"internalType":"address","name":"to","type":"address"},{"indexed":false,"internalType":"address","name":"token","type":"address"},{"indexed":false,"internalType":"uint256","name":"amount","type":"uint256"}],"name":"TransferFee","type":"event"},{"anonymous":false,"inputs":[{"indexed":false,"internalType":"uint256","name":"taskId","type":"uint256"},{"indexed":false,"internalType":"address","name":"to","type":"address"},{"indexed":false,"internalType":"address","name":"token","type":"address"},{"indexed":false,"internalType":"uint256","name":"amount","type":"uint256"}],"name":"TransferPayment","type":"event"},{"anonymous":false,"inputs":[{"indexed":false,"internalType":"uint256","name":"taskId","type":"uint256"},{"indexed":false,"internalType":"address","name":"to","type":"address"},{"indexed":false,"internalType":"address","name":"token","type":"address"},{"indexed":false,"internalType":"uint256","name":"amount","type":"uint256"}],"name":"TransferShareAmount","type":"event"},{"anonymous":false,"inputs":[{"indexed":false,"internalType":"uint256","name":"taskId","type":"uint256"},{"indexed":false,"internalType":"string","name":"note","type":"string"}],"name":"UpdateTaskNote","type":"event"},{"inputs":[],"name":"BRIDGE","outputs":[{"internalType":"contract ILucksBridge","name":"","type":"address"}],"stateMutability":"view","type":"function"},{"inputs":[],"name":"HELPER","outputs":[{"internalType":"contract ILucksHelper","name":"","type":"address"}],"stateMutability":"view","type":"function"},{"inputs":[],"name":"NFT","outputs":[{"internalType":"contract IProxyNFTStation","name":"","type":"address"}],"stateMutability":"view","type":"function"},{"inputs":[],"name":"TOKEN","outputs":[{"internalType":"contract IProxyTokenStation","name":"","type":"address"}],"stateMutability":"view","type":"function"},{"inputs":[{"internalType":"uint256","name":"taskId","type":"uint256"},{"components":[{"internalType":"uint256","name":"dstGasForCall","type":"uint256"},{"internalType":"uint256","name":"dstNativeAmount","type":"uint256"},{"internalType":"bytes","name":"dstNativeAddr","type":"bytes"},{"internalType":"bytes","name":"zroPaymentAddr","type":"bytes"}],"internalType":"struct lzTxObj","name":"_param","type":"tuple"}],"name":"cancelTask","outputs":[],"stateMutability":"payable","type":"function"},{"inputs":[{"internalType":"uint256[]","name":"taskIds","type":"uint256[]"},{"components":[{"internalType":"uint256","name":"dstGasForCall","type":"uint256"},{"internalType":"uint256","name":"dstNativeAmount","type":"uint256"},{"internalType":"bytes","name":"dstNativeAddr","type":"bytes"},{"internalType":"bytes","name":"zroPaymentAddr","type":"bytes"}],"internalType":"struct lzTxObj","name":"_param","type":"tuple"}],"name":"claimNFTs","outputs":[],"stateMutability":"payable","type":"function"},{"inputs":[{"internalType":"uint256[]","name":"taskIds","type":"uint256[]"}],"name":"claimTokens","outputs":[],"stateMutability":"nonpayable","type":"function"},{"inputs":[{"internalType":"uint256","name":"taskId","type":"uint256"},{"components":[{"internalType":"uint256","name":"dstGasForCall","type":"uint256"},{"internalType":"uint256","name":"dstNativeAmount","type":"uint256"},{"internalType":"bytes","name":"dstNativeAddr","type":"bytes"},{"internalType":"bytes","name":"zroPaymentAddr","type":"bytes"}],"internalType":"struct lzTxObj","name":"_param","type":"tuple"}],"name":"closeTask","outputs":[],"stateMutability":"payable","type":"function"},{"inputs":[],"name":"count","outputs":[{"internalType":"uint256","name":"","type":"uint256"}],"stateMutability":"view","type":"function"},{"inputs":[{"components":[{"internalType":"address","name":"seller","type":"address"},{"internalType":"uint16","name":"nftChainId","type":"uint16"},{"internalType":"address","name":"nftContract","type":"address"},{"internalType":"uint256[]","name":"tokenIds","type":"uint256[]"},{"internalType":"uint256[]","name":"tokenAmounts","type":"uint256[]"},{"internalType":"address","name":"acceptToken","type":"address"},{"internalType":"enum TaskStatus","name":"status","type":"uint8"},{"internalType":"uint256","name":"startTime","type":"uint256"},{"internalType":"uint256","name":"endTime","type":"uint256"},{"internalType":"uint256","name":"targetAmount","type":"uint256"},{"internalType":"uint256","name":"price","type":"uint256"},{"internalType":"uint16","name":"paymentStrategy","type":"uint16"},{"components":[{"internalType":"address","name":"token","type":"address"},{"internalType":"uint256","name":"amount","type":"uint256"}],"internalType":"struct ExclusiveToken","name":"exclusiveToken","type":"tuple"},{"internalType":"uint256","name":"amountCollected","type":"uint256"},{"internalType":"uint256","name":"depositId","type":"uint256"}],"internalType":"struct TaskItem","name":"item","type":"tuple"},{"components":[{"internalType":"uint16","name":"chainId","type":"uint16"},{"internalType":"string","name":"title","type":"string"},{"internalType":"string","name":"note","type":"string"}],"internalType":"struct TaskExt","name":"ext","type":"tuple"},{"components":[{"internalType":"uint256","name":"dstGasForCall","type":"uint256"},{"internalType":"uint256","name":"dstNativeAmount","type":"uint256"},{"internalType":"bytes","name":"dstNativeAddr","type":"bytes"},{"internalType":"bytes","name":"zroPaymentAddr","type":"bytes"}],"internalType":"struct lzTxObj","name":"_param","type":"tuple"}],"name":"createTask","outputs":[],"stateMutability":"payable","type":"function"},{"inputs":[{"internalType":"uint256","name":"taskId","type":"uint256"}],"name":"exists","outputs":[{"internalType":"bool","name":"","type":"bool"}],"stateMutability":"view","type":"function"},{"inputs":[],"name":"getChainId","outputs":[{"internalType":"uint16","name":"","type":"uint16"}],"stateMutability":"view","type":"function"},{"inputs":[{"internalType":"uint256","name":"taskId","type":"uint256"}],"name":"getInfo","outputs":[{"components":[{"internalType":"uint256","name":"lastTID","type":"uint256"},{"internalType":"uint256","name":"closeTime","type":"uint256"},{"internalType":"uint256","name":"finalNo","type":"uint256"}],"internalType":"struct TaskInfo","name":"","type":"tuple"}],"stateMutability":"view","type":"function"},{"inputs":[{"internalType":"uint256","name":"taskId","type":"uint256"}],"name":"getTask","outputs":[{"components":[{"internalType":"address","name":"seller","type":"address"},{"internalType":"uint16","name":"nftChainId","type":"uint16"},{"internalType":"address","name":"nftContract","type":"address"},{"internalType":"uint256[]","name":"tokenIds","type":"uint256[]"},{"internalType":"uint256[]","name":"tokenAmounts","type":"uint256[]"},{"internalType":"address","name":"acceptToken","type":"address"},{"internalType":"enum TaskStatus","name":"status","type":"uint8"},{"internalType":"uint256","name":"startTime","type":"uint256"},{"internalType":"uint256","name":"endTime","type":"uint256"},{"internalType":"uint256","name":"targetAmount","type":"uint256"},{"internalType":"uint256","name":"price","type":"uint256"},{"internalType":"uint16","name":"paymentStrategy","type":"uint16"},{"components":[{"internalType":"address","name":"token","type":"address"},{"internalType":"uint256","name":"amount","type":"uint256"}],"internalType":"struct ExclusiveToken","name":"exclusiveToken","type":"tuple"},{"internalType":"uint256","name":"amountCollected","type":"uint256"},{"internalType":"uint256","name":"depositId","type":"uint256"}],"internalType":"struct TaskItem","name":"","type":"tuple"}],"stateMutability":"view","type":"function"},{"inputs":[{"internalType":"uint256","name":"","type":"uint256"}],"name":"infos","outputs":[{"internalType":"uint256","name":"lastTID","type":"uint256"},{"internalType":"uint256","name":"closeTime","type":"uint256"},{"internalType":"uint256","name":"finalNo","type":"uint256"}],"stateMutability":"view","type":"function"},{"inputs":[{"internalType":"uint16","name":"_chainId","type":"uint16"},{"internalType":"bool","name":"_allowTask","type":"bool"}],"name":"initialize","outputs":[],"stateMutability":"nonpayable","type":"function"},{"inputs":[],"name":"isAllowTask","outputs":[{"internalType":"bool","name":"","type":"bool"}],"stateMutability":"view","type":"function"},{"inputs":[{"internalType":"uint256","name":"taskId","type":"uint256"}],"name":"isFail","outputs":[{"internalType":"bool","name":"","type":"bool"}],"stateMutability":"view","type":"function"},{"inputs":[{"internalType":"uint256","name":"taskId","type":"uint256"},{"internalType":"uint32","name":"num","type":"uint32"},{"internalType":"string","name":"note","type":"string"}],"name":"joinTask","outputs":[],"stateMutability":"payable","type":"function"},{"inputs":[],"name":"lzChainId","outputs":[{"internalType":"uint16","name":"","type":"uint16"}],"stateMutability":"view","type":"function"},{"inputs":[{"internalType":"uint8","name":"functionType","type":"uint8"},{"internalType":"bytes","name":"_payload","type":"bytes"}],"name":"onLzReceive","outputs":[],"stateMutability":"nonpayable","type":"function"},{"inputs":[],"name":"owner","outputs":[{"internalType":"address","name":"","type":"address"}],"stateMutability":"view","type":"function"},{"inputs":[{"internalType":"uint256","name":"taskId","type":"uint256"},{"components":[{"internalType":"uint256","name":"dstGasForCall","type":"uint256"},{"internalType":"uint256","name":"dstNativeAmount","type":"uint256"},{"internalType":"bytes","name":"dstNativeAddr","type":"bytes"},{"internalType":"bytes","name":"zroPaymentAddr","type":"bytes"}],"internalType":"struct lzTxObj","name":"_param","type":"tuple"}],"name":"pickWinner","outputs":[],"stateMutability":"payable","type":"function"},{"inputs":[],"name":"renounceOwnership","outputs":[],"stateMutability":"nonpayable","type":"function"},{"inputs":[{"internalType":"bool","name":"enable","type":"bool"}],"name":"setAllowTask","outputs":[],"stateMutability":"nonpayable","type":"function"},{"inputs":[{"internalType":"contract ILucksBridge","name":"_bridge","type":"address"},{"internalType":"contract IProxyTokenStation","name":"_token","type":"address"},{"internalType":"contract IProxyNFTStation","name":"_nft","type":"address"}],"name":"setBridgeAndProxy","outputs":[],"stateMutability":"nonpayable","type":"function"},{"inputs":[{"internalType":"contract ILucksHelper","name":"addr","type":"address"}],"name":"setLucksHelper","outputs":[],"stateMutability":"nonpayable","type":"function"},{"inputs":[{"internalType":"uint256","name":"","type":"uint256"}],"name":"tasks","outputs":[{"internalType":"address","name":"seller","type":"address"},{"internalType":"uint16","name":"nftChainId","type":"uint16"},{"internalType":"address","name":"nftContract","type":"address"},{"internalType":"address","name":"acceptToken","type":"address"},{"internalType":"enum TaskStatus","name":"status","type":"uint8"},{"internalType":"uint256","name":"startTime","type":"uint256"},{"internalType":"uint256","name":"endTime","type":"uint256"},{"internalType":"uint256","name":"targetAmount","type":"uint256"},{"internalType":"uint256","name":"price","type":"uint256"},{"internalType":"uint16","name":"paymentStrategy","type":"uint16"},{"components":[{"internalType":"address","name":"token","type":"address"},{"internalType":"uint256","name":"amount","type":"uint256"}],"internalType":"struct ExclusiveToken","name":"exclusiveToken","type":"tuple"},{"internalType":"uint256","name":"amountCollected","type":"uint256"},{"internalType":"uint256","name":"depositId","type":"uint256"}],"stateMutability":"view","type":"function"},{"inputs":[{"internalType":"uint256","name":"","type":"uint256"},{"internalType":"uint256","name":"","type":"uint256"}],"name":"ticketIds","outputs":[{"internalType":"uint256","name":"","type":"uint256"}],"stateMutability":"view","type":"function"},{"inputs":[{"internalType":"uint256","name":"","type":"uint256"},{"internalType":"uint256","name":"","type":"uint256"}],"name":"tickets","outputs":[{"internalType":"uint256","name":"number","type":"uint256"},{"internalType":"uint32","name":"count","type":"uint32"},{"internalType":"address","name":"owner","type":"address"}],"stateMutability":"view","type":"function"},{"inputs":[{"internalType":"address","name":"newOwner","type":"address"}],"name":"transferOwnership","outputs":[],"stateMutability":"nonpayable","type":"function"},{"inputs":[{"internalType":"uint256","name":"taskId","type":"uint256"},{"internalType":"string","name":"note","type":"string"}],"name":"updateTaskNote","outputs":[],"stateMutability":"nonpayable","type":"function"},{"inputs":[{"internalType":"address","name":"","type":"address"},{"internalType":"uint256","name":"","type":"uint256"}],"name":"userState","outputs":[{"internalType":"uint256","name":"num","type":"uint256"},{"internalType":"bool","name":"claimed","type":"bool"}],"stateMutability":"view","type":"function"}]}