{"address":"0x8e113C42ac144ce8DB3E1807b27f5B0Bee47398f","bytecode":"0x60806040523480156200001157600080fd5b5060405162001e1e38038062001e1e8339810160408190526200003491620000b7565b6200003f3362000067565b6001600160a01b03166000908152600260205260409020805460ff19166001179055620000e9565b600080546001600160a01b038381166001600160a01b0319831681178455604051919092169283917f8be0079c531659141344cd1fd0a4f28419497f9722a3daafe3b4186f6b6457e09190a35050565b600060208284031215620000ca57600080fd5b81516001600160a01b0381168114620000e257600080fd5b9392505050565b611d2580620000f96000396000f3fe6080604052600436106100e75760003560e01c80638da5cb5b1161008a578063bc197c8111610059578063bc197c81146102fb578063d6d6817714610340578063f23a6e61146103d4578063f2fde38b1461041957600080fd5b80638da5cb5b1461022e5780638fa68c13146102635780639ac2a01114610297578063a70354ed146102c757600080fd5b80631c3c0ea8116100c65780631c3c0ea8146101b8578063443cf787146101d85780635c833bfd146101f9578063715018a61461021957600080fd5b8062f714ce146100ec57806301ffc9a71461010e578063150b7a0214610143575b600080fd5b3480156100f857600080fd5b5061010c610107366004611a67565b610439565b005b34801561011a57600080fd5b5061012e610129366004611a25565b610728565b60405190151581526020015b60405180910390f35b34801561014f57600080fd5b5061018761015e3660046118d0565b7f150b7a0200000000000000000000000000000000000000000000000000000000949350505050565b6040517fffffffff00000000000000000000000000000000000000000000000000000000909116815260200161013a565b3480156101c457600080fd5b5061010c6101d3366004611777565b6107c1565b6101eb6101e6366004611843565b610891565b60405190815260200161013a565b34801561020557600080fd5b5061010c6102143660046119c7565b610a82565b34801561022557600080fd5b5061010c610ee9565b34801561023a57600080fd5b5060005460405173ffffffffffffffffffffffffffffffffffffffff909116815260200161013a565b34801561026f57600080fd5b506101877f80ac58cd0000000000000000000000000000000000000000000000000000000081565b3480156102a357600080fd5b5061012e6102b2366004611777565b60026020526000908152604090205460ff1681565b3480156102d357600080fd5b506101877fd9b67a260000000000000000000000000000000000000000000000000000000081565b34801561030757600080fd5b50610187610316366004611799565b7fbc197c810000000000000000000000000000000000000000000000000000000095945050505050565b34801561034c57600080fd5b506103a161035b36600461199d565b600360209081526000928352604080842090915290825290208054600182015460049092015473ffffffffffffffffffffffffffffffffffffffff918216929091169083565b6040805173ffffffffffffffffffffffffffffffffffffffff94851681529390921660208401529082015260600161013a565b3480156103e057600080fd5b506101876103ef366004611938565b7ff23a6e610000000000000000000000000000000000000000000000000000000095945050505050565b34801561042557600080fd5b5061010c610434366004611777565b610f76565b3360009081526002602052604090205460ff1615156001146104bc576040517f08c379a000000000000000000000000000000000000000000000000000000000815260206004820152601360248201527f4c75636b733a206f6e6c794578656375746f720000000000000000000000000060448201526064015b60405180910390fd5b336000908152600360209081526040808320858452909152902060020154610540576040517f08c379a000000000000000000000000000000000000000000000000000000000815260206004820152601160248201527f496e76616c6964206465706f736974496400000000000000000000000000000060448201526064016104b3565b336000908152600360209081526040808320858452825280832060018101546002909101805483518186028101860190945280845273ffffffffffffffffffffffffffffffffffffffff90921694939091908301828280156105c157602002820191906000526020600020905b8154815260200190600101908083116105ad575b50503360009081526003602081815260408084208c8552825280842090920180548351818402810184019094528084529798509296919550919350915083018282801561062d57602002820191906000526020600020905b815481526020019060010190808311610619575b50503360009081526003602090815260408083208c8452909152812080547fffffffffffffffffffffffff000000000000000000000000000000000000000090811682556001820180549091169055949550925061069191505060028301826115bc565b61069f6003830160006115bc565b600482016000905550506106b683308685856110a6565b8373ffffffffffffffffffffffffffffffffffffffff163373ffffffffffffffffffffffffffffffffffffffff167f1aa1975ec78254d9555afd3cb8a24bc7ed7cca61a92954e019b7d07e9c31626a878686866040516107199493929190611b36565b60405180910390a35050505050565b60007fffffffff0000000000000000000000000000000000000000000000000000000082167f4e2312e00000000000000000000000000000000000000000000000000000000014806107bb57507f01ffc9a7000000000000000000000000000000000000000000000000000000007fffffffff000000000000000000000000000000000000000000000000000000008316145b92915050565b60005473ffffffffffffffffffffffffffffffffffffffff163314610842576040517f08c379a000000000000000000000000000000000000000000000000000000000815260206004820181905260248201527f4f776e61626c653a2063616c6c6572206973206e6f7420746865206f776e657260448201526064016104b3565b73ffffffffffffffffffffffffffffffffffffffff16600090815260026020526040902080547fffffffffffffffffffffffffffffffffffffffffffffffffffffffffffffff00166001179055565b3360009081526002602052604081205460ff16151560011461090f576040517f08c379a000000000000000000000000000000000000000000000000000000000815260206004820152601360248201527f4c75636b733a206f6e6c794578656375746f720000000000000000000000000060448201526064016104b3565b61091c85873087876110a6565b61092a600180546001019055565b6001546040805160a08101825273ffffffffffffffffffffffffffffffffffffffff808a16825288811660208084019182528385018a8152606085018a90526080850189905233600090815260038352868120888252835295909520845181549085167fffffffffffffffffffffffff00000000000000000000000000000000000000009182161782559251600182018054919095169316929092179092559251805194955091936109e292600285019201906115da565b50606082015180516109fe9160038401916020909101906115da565b50608082015181600401559050508573ffffffffffffffffffffffffffffffffffffffff163373ffffffffffffffffffffffffffffffffffffffff167f347f2f3ccace771076d0730d10c78c9e198450059b63d2a0fa243110219604248388888888604051610a71959493929190611b88565b60405180910390a395945050505050565b60005473ffffffffffffffffffffffffffffffffffffffff163314610b03576040517f08c379a000000000000000000000000000000000000000000000000000000000815260206004820181905260248201527f4f776e61626c653a2063616c6c6572206973206e6f7420746865206f776e657260448201526064016104b3565b73ffffffffffffffffffffffffffffffffffffffff83166000908152600360209081526040808320858452909152902060020154610b9d576040517f08c379a000000000000000000000000000000000000000000000000000000000815260206004820152601160248201527f496e76616c6964206465706f736974496400000000000000000000000000000060448201526064016104b3565b73ffffffffffffffffffffffffffffffffffffffff831660009081526003602090815260408083208584529091529020600401544211610c39576040517f08c379a000000000000000000000000000000000000000000000000000000000815260206004820152601260248201527f4e6f742074696d6520746f2072656465656d000000000000000000000000000060448201526064016104b3565b73ffffffffffffffffffffffffffffffffffffffff8381166000908152600360209081526040808320868452909152902054811690821614610cd7576040517f08c379a000000000000000000000000000000000000000000000000000000000815260206004820152601160248201527f496e76616c69642072656465656d20746f00000000000000000000000000000060448201526064016104b3565b73ffffffffffffffffffffffffffffffffffffffff8381166000908152600360209081526040808320868452825280832060018101546002909101805483518186028101860190945280845291909516949192830182828015610d5957602002820191906000526020600020905b815481526020019060010190808311610d45575b5050505073ffffffffffffffffffffffffffffffffffffffff871660009081526003602081815260408084208a8552825280842090920180548351818402810184019094528084529596509294919350830182828015610dd857602002820191906000526020600020905b815481526020019060010190808311610dc4575b5050505073ffffffffffffffffffffffffffffffffffffffff881660009081526003602090815260408083208a8452909152812080547fffffffffffffffffffffffff0000000000000000000000000000000000000000908116825560018201805490911690559293509050610e5160028301826115bc565b610e5f6003830160006115bc565b60048201600090555050610e7683308685856110a6565b8373ffffffffffffffffffffffffffffffffffffffff163373ffffffffffffffffffffffffffffffffffffffff167f419f05693ec28c30b2a3f2378868ffd6e66384945f6de621f1aef8bb91e3058587868686604051610ed99493929190611b36565b60405180910390a3505050505050565b60005473ffffffffffffffffffffffffffffffffffffffff163314610f6a576040517f08c379a000000000000000000000000000000000000000000000000000000000815260206004820181905260248201527f4f776e61626c653a2063616c6c6572206973206e6f7420746865206f776e657260448201526064016104b3565b610f746000611547565b565b60005473ffffffffffffffffffffffffffffffffffffffff163314610ff7576040517f08c379a000000000000000000000000000000000000000000000000000000000815260206004820181905260248201527f4f776e61626c653a2063616c6c6572206973206e6f7420746865206f776e657260448201526064016104b3565b73ffffffffffffffffffffffffffffffffffffffff811661109a576040517f08c379a000000000000000000000000000000000000000000000000000000000815260206004820152602660248201527f4f776e61626c653a206e6577206f776e657220697320746865207a65726f206160448201527f646472657373000000000000000000000000000000000000000000000000000060648201526084016104b3565b6110a381611547565b50565b8373ffffffffffffffffffffffffffffffffffffffff168573ffffffffffffffffffffffffffffffffffffffff161415801561110e57508273ffffffffffffffffffffffffffffffffffffffff168473ffffffffffffffffffffffffffffffffffffffff1614155b611174576040517f08c379a000000000000000000000000000000000000000000000000000000000815260206004820152600f60248201527f496e76616c69642061646472657373000000000000000000000000000000000060448201526064016104b3565b6040517f01ffc9a70000000000000000000000000000000000000000000000000000000081527f80ac58cd00000000000000000000000000000000000000000000000000000000600482015273ffffffffffffffffffffffffffffffffffffffff8616906301ffc9a79060240160206040518083038186803b1580156111f957600080fd5b505afa15801561120d573d6000803e3d6000fd5b505050506040513d601f19601f820116820180604052508101906112319190611a03565b156113225760005b825181101561131c578573ffffffffffffffffffffffffffffffffffffffff166323b872dd868686858151811061127257611272611c91565b60209081029190910101516040517fffffffff0000000000000000000000000000000000000000000000000000000060e086901b16815273ffffffffffffffffffffffffffffffffffffffff93841660048201529290911660248301526044820152606401600060405180830381600087803b1580156112f157600080fd5b505af1158015611305573d6000803e3d6000fd5b50505050808061131490611c31565b915050611239565b50611540565b6040517f01ffc9a70000000000000000000000000000000000000000000000000000000081527fd9b67a2600000000000000000000000000000000000000000000000000000000600482015273ffffffffffffffffffffffffffffffffffffffff8616906301ffc9a79060240160206040518083038186803b1580156113a757600080fd5b505afa1580156113bb573d6000803e3d6000fd5b505050506040513d601f19601f820116820180604052508101906113df9190611a03565b156114de57805182511461144f576040517f08c379a000000000000000000000000000000000000000000000000000000000815260206004820152601560248201527f496e76616c696420696473202620616d6f756e7473000000000000000000000060448201526064016104b3565b6040517f2eb2c2d600000000000000000000000000000000000000000000000000000000815273ffffffffffffffffffffffffffffffffffffffff861690632eb2c2d6906114a7908790879087908790600401611ace565b600060405180830381600087803b1580156114c157600080fd5b505af11580156114d5573d6000803e3d6000fd5b50505050611540565b6040517f08c379a000000000000000000000000000000000000000000000000000000000815260206004820152600d60248201527f556e737570706f7274204e46540000000000000000000000000000000000000060448201526064016104b3565b5050505050565b6000805473ffffffffffffffffffffffffffffffffffffffff8381167fffffffffffffffffffffffff0000000000000000000000000000000000000000831681178455604051919092169283917f8be0079c531659141344cd1fd0a4f28419497f9722a3daafe3b4186f6b6457e09190a35050565b50805460008255906000526020600020908101906110a39190611625565b828054828255906000526020600020908101928215611615579160200282015b828111156116155782518255916020019190600101906115fa565b50611621929150611625565b5090565b5b808211156116215760008155600101611626565b803573ffffffffffffffffffffffffffffffffffffffff8116811461165e57600080fd5b919050565b600082601f83011261167457600080fd5b8135602067ffffffffffffffff82111561169057611690611cc0565b8160051b61169f828201611be2565b8381528281019086840183880185018910156116ba57600080fd5b600093505b858410156116dd5780358352600193909301929184019184016116bf565b50979650505050505050565b600082601f8301126116fa57600080fd5b813567ffffffffffffffff81111561171457611714611cc0565b61174560207fffffffffffffffffffffffffffffffffffffffffffffffffffffffffffffffe0601f84011601611be2565b81815284602083860101111561175a57600080fd5b816020850160208301376000918101602001919091529392505050565b60006020828403121561178957600080fd5b6117928261163a565b9392505050565b600080600080600060a086880312156117b157600080fd5b6117ba8661163a565b94506117c86020870161163a565b9350604086013567ffffffffffffffff808211156117e557600080fd5b6117f189838a01611663565b9450606088013591508082111561180757600080fd5b61181389838a01611663565b9350608088013591508082111561182957600080fd5b50611836888289016116e9565b9150509295509295909350565b600080600080600060a0868803121561185b57600080fd5b6118648661163a565b94506118726020870161163a565b9350604086013567ffffffffffffffff8082111561188f57600080fd5b61189b89838a01611663565b945060608801359150808211156118b157600080fd5b506118be88828901611663565b95989497509295608001359392505050565b600080600080608085870312156118e657600080fd5b6118ef8561163a565b93506118fd6020860161163a565b925060408501359150606085013567ffffffffffffffff81111561192057600080fd5b61192c878288016116e9565b91505092959194509250565b600080600080600060a0868803121561195057600080fd5b6119598661163a565b94506119676020870161163a565b93506040860135925060608601359150608086013567ffffffffffffffff81111561199157600080fd5b611836888289016116e9565b600080604083850312156119b057600080fd5b6119b98361163a565b946020939093013593505050565b6000806000606084860312156119dc57600080fd5b6119e58461163a565b9250602084013591506119fa6040850161163a565b90509250925092565b600060208284031215611a1557600080fd5b8151801515811461179257600080fd5b600060208284031215611a3757600080fd5b81357fffffffff000000000000000000000000000000000000000000000000000000008116811461179257600080fd5b60008060408385031215611a7a57600080fd5b82359150611a8a6020840161163a565b90509250929050565b600081518084526020808501945080840160005b83811015611ac357815187529582019590820190600101611aa7565b509495945050505050565b600073ffffffffffffffffffffffffffffffffffffffff808716835280861660208401525060a06040830152611b0760a0830185611a93565b8281036060840152611b198185611a93565b838103608090940193909352505060008152602001949350505050565b84815273ffffffffffffffffffffffffffffffffffffffff84166020820152608060408201526000611b6b6080830185611a93565b8281036060840152611b7d8185611a93565b979650505050505050565b85815273ffffffffffffffffffffffffffffffffffffffff8516602082015260a060408201526000611bbd60a0830186611a93565b8281036060840152611bcf8186611a93565b9150508260808301529695505050505050565b604051601f82017fffffffffffffffffffffffffffffffffffffffffffffffffffffffffffffffe016810167ffffffffffffffff81118282101715611c2957611c29611cc0565b604052919050565b60007fffffffffffffffffffffffffffffffffffffffffffffffffffffffffffffffff821415611c8a577f4e487b7100000000000000000000000000000000000000000000000000000000600052601160045260246000fd5b5060010190565b7f4e487b7100000000000000000000000000000000000000000000000000000000600052603260045260246000fd5b7f4e487b7100000000000000000000000000000000000000000000000000000000600052604160045260246000fdfea2646970667358221220ef926a3de9f937505054c348abc05bddc4d55ccfd41aea2fb04d11a4e0c3a47064736f6c63430008060033","abi":[{"inputs":[{"internalType":"address","name":"_executor","type":"address"}],"stateMutability":"nonpayable","type":"constructor"},{"anonymous":false,"inputs":[{"indexed":true,"internalType":"address","name":"executor","type":"address"},{"indexed":false,"internalType":"uint256","name":"depositId","type":"uint256"},{"indexed":true,"internalType":"address","name":"user","type":"address"},{"indexed":false,"internalType":"address","name":"nft","type":"address"},{"indexed":false,"internalType":"uint256[]","name":"tokenIds","type":"uint256[]"},{"indexed":false,"internalType":"uint256[]","name":"amounts","type":"uint256[]"},{"indexed":false,"internalType":"uint256","name":"endTime","type":"uint256"}],"name":"Deposit","type":"event"},{"anonymous":false,"inputs":[{"indexed":true,"internalType":"address","name":"previousOwner","type":"address"},{"indexed":true,"internalType":"address","name":"newOwner","type":"address"}],"name":"OwnershipTransferred","type":"event"},{"anonymous":false,"inputs":[{"indexed":true,"internalType":"address","name":"executor","type":"address"},{"indexed":false,"internalType":"uint256","name":"depositId","type":"uint256"},{"indexed":true,"internalType":"address","name":"to","type":"address"},{"indexed":false,"internalType":"address","name":"nft","type":"address"},{"indexed":false,"internalType":"uint256[]","name":"tokenIds","type":"uint256[]"},{"indexed":false,"internalType":"uint256[]","name":"amounts","type":"uint256[]"}],"name":"Redeem","type":"event"},{"anonymous":false,"inputs":[{"indexed":true,"internalType":"address","name":"executor","type":"address"},{"indexed":false,"internalType":"uint256","name":"depositId","type":"uint256"},{"indexed":true,"internalType":"address","name":"to","type":"address"},{"indexed":false,"internalType":"address","name":"nft","type":"address"},{"indexed":false,"internalType":"uint256[]","name":"tokenIds","type":"uint256[]"},{"indexed":false,"internalType":"uint256[]","name":"amounts","type":"uint256[]"}],"name":"Withdraw","type":"event"},{"inputs":[],"name":"ID_ERC1155","outputs":[{"internalType":"bytes4","name":"","type":"bytes4"}],"stateMutability":"view","type":"function"},{"inputs":[],"name":"ID_ERC721","outputs":[{"internalType":"bytes4","name":"","type":"bytes4"}],"stateMutability":"view","type":"function"},{"inputs":[{"internalType":"address","name":"user","type":"address"},{"internalType":"address","name":"nft","type":"address"},{"internalType":"uint256[]","name":"tokenIds","type":"uint256[]"},{"internalType":"uint256[]","name":"amounts","type":"uint256[]"},{"internalType":"uint256","name":"endTime","type":"uint256"}],"name":"deposit","outputs":[{"internalType":"uint256","name":"depositId","type":"uint256"}],"stateMutability":"payable","type":"function"},{"inputs":[{"internalType":"address","name":"","type":"address"},{"internalType":"uint256","name":"","type":"uint256"}],"name":"deposits","outputs":[{"internalType":"address","name":"user","type":"address"},{"internalType":"address","name":"nftContract","type":"address"},{"internalType":"uint256","name":"endTime","type":"uint256"}],"stateMutability":"view","type":"function"},{"inputs":[{"internalType":"address","name":"","type":"address"}],"name":"executors","outputs":[{"internalType":"bool","name":"","type":"bool"}],"stateMutability":"view","type":"function"},{"inputs":[{"internalType":"address","name":"","type":"address"},{"internalType":"address","name":"","type":"address"},{"internalType":"uint256[]","name":"","type":"uint256[]"},{"internalType":"uint256[]","name":"","type":"uint256[]"},{"internalType":"bytes","name":"","type":"bytes"}],"name":"onERC1155BatchReceived","outputs":[{"internalType":"bytes4","name":"","type":"bytes4"}],"stateMutability":"nonpayable","type":"function"},{"inputs":[{"internalType":"address","name":"","type":"address"},{"internalType":"address","name":"","type":"address"},{"internalType":"uint256","name":"","type":"uint256"},{"internalType":"uint256","name":"","type":"uint256"},{"internalType":"bytes","name":"","type":"bytes"}],"name":"onERC1155Received","outputs":[{"internalType":"bytes4","name":"","type":"bytes4"}],"stateMutability":"nonpayable","type":"function"},{"inputs":[{"internalType":"address","name":"","type":"address"},{"internalType":"address","name":"","type":"address"},{"internalType":"uint256","name":"","type":"uint256"},{"internalType":"bytes","name":"","type":"bytes"}],"name":"onERC721Received","outputs":[{"internalType":"bytes4","name":"","type":"bytes4"}],"stateMutability":"nonpayable","type":"function"},{"inputs":[],"name":"owner","outputs":[{"internalType":"address","name":"","type":"address"}],"stateMutability":"view","type":"function"},{"inputs":[{"internalType":"address","name":"executor","type":"address"},{"internalType":"uint256","name":"depositId","type":"uint256"},{"internalType":"address","name":"to","type":"address"}],"name":"redeem","outputs":[],"stateMutability":"nonpayable","type":"function"},{"inputs":[],"name":"renounceOwnership","outputs":[],"stateMutability":"nonpayable","type":"function"},{"inputs":[{"internalType":"address","name":"executor","type":"address"}],"name":"setExecutor","outputs":[],"stateMutability":"nonpayable","type":"function"},{"inputs":[{"internalType":"bytes4","name":"interfaceId","type":"bytes4"}],"name":"supportsInterface","outputs":[{"internalType":"bool","name":"","type":"bool"}],"stateMutability":"view","type":"function"},{"inputs":[{"internalType":"address","name":"newOwner","type":"address"}],"name":"transferOwnership","outputs":[],"stateMutability":"nonpayable","type":"function"},{"inputs":[{"internalType":"uint256","name":"depositId","type":"uint256"},{"internalType":"address","name":"to","type":"address"}],"name":"withdraw","outputs":[],"stateMutability":"nonpayable","type":"function"}]}